{
	"contracts/Twitter.sol": {
		"Twitter": {
			"abi": [
				{
					"inputs": [],
					"stateMutability": "nonpayable",
					"type": "constructor"
				},
				{
					"inputs": [],
					"name": "MAX_TWEET_LENGTH",
					"outputs": [
						{
							"internalType": "uint16",
							"name": "",
							"type": "uint16"
						}
					],
					"stateMutability": "view",
					"type": "function"
				},
				{
					"inputs": [
						{
							"internalType": "uint16",
							"name": "newTweetLength",
							"type": "uint16"
						}
					],
					"name": "changedTweetLength",
					"outputs": [],
					"stateMutability": "nonpayable",
					"type": "function"
				},
				{
					"inputs": [
						{
							"internalType": "string",
							"name": "_tweet",
							"type": "string"
						}
					],
					"name": "createTweet",
					"outputs": [],
					"stateMutability": "nonpayable",
					"type": "function"
				},
				{
					"inputs": [
						{
							"internalType": "address",
							"name": "_addr",
							"type": "address"
						}
					],
					"name": "deleteTweet",
					"outputs": [],
					"stateMutability": "nonpayable",
					"type": "function"
				},
				{
					"inputs": [
						{
							"internalType": "address",
							"name": "_owner",
							"type": "address"
						}
					],
					"name": "getAllTweets",
					"outputs": [
						{
							"components": [
								{
									"internalType": "uint256",
									"name": "id",
									"type": "uint256"
								},
								{
									"internalType": "address",
									"name": "author",
									"type": "address"
								},
								{
									"internalType": "string",
									"name": "content",
									"type": "string"
								},
								{
									"internalType": "uint256",
									"name": "timestamp",
									"type": "uint256"
								},
								{
									"internalType": "uint256",
									"name": "likes",
									"type": "uint256"
								}
							],
							"internalType": "struct Twitter.Tweet[]",
							"name": "",
							"type": "tuple[]"
						}
					],
					"stateMutability": "view",
					"type": "function"
				},
				{
					"inputs": [
						{
							"internalType": "uint256",
							"name": "_i",
							"type": "uint256"
						}
					],
					"name": "getTweets",
					"outputs": [
						{
							"components": [
								{
									"internalType": "uint256",
									"name": "id",
									"type": "uint256"
								},
								{
									"internalType": "address",
									"name": "author",
									"type": "address"
								},
								{
									"internalType": "string",
									"name": "content",
									"type": "string"
								},
								{
									"internalType": "uint256",
									"name": "timestamp",
									"type": "uint256"
								},
								{
									"internalType": "uint256",
									"name": "likes",
									"type": "uint256"
								}
							],
							"internalType": "struct Twitter.Tweet",
							"name": "",
							"type": "tuple"
						}
					],
					"stateMutability": "view",
					"type": "function"
				},
				{
					"inputs": [
						{
							"internalType": "uint256",
							"name": "id",
							"type": "uint256"
						},
						{
							"internalType": "address",
							"name": "author",
							"type": "address"
						}
					],
					"name": "likeTweet",
					"outputs": [],
					"stateMutability": "nonpayable",
					"type": "function"
				},
				{
					"inputs": [],
					"name": "owner",
					"outputs": [
						{
							"internalType": "address",
							"name": "",
							"type": "address"
						}
					],
					"stateMutability": "view",
					"type": "function"
				},
				{
					"inputs": [
						{
							"internalType": "address",
							"name": "",
							"type": "address"
						},
						{
							"internalType": "uint256",
							"name": "",
							"type": "uint256"
						}
					],
					"name": "tweets",
					"outputs": [
						{
							"internalType": "uint256",
							"name": "id",
							"type": "uint256"
						},
						{
							"internalType": "address",
							"name": "author",
							"type": "address"
						},
						{
							"internalType": "string",
							"name": "content",
							"type": "string"
						},
						{
							"internalType": "uint256",
							"name": "timestamp",
							"type": "uint256"
						},
						{
							"internalType": "uint256",
							"name": "likes",
							"type": "uint256"
						}
					],
					"stateMutability": "view",
					"type": "function"
				},
				{
					"inputs": [
						{
							"internalType": "uint256",
							"name": "id",
							"type": "uint256"
						},
						{
							"internalType": "address",
							"name": "author",
							"type": "address"
						}
					],
					"name": "unlikeTweet",
					"outputs": [],
					"stateMutability": "nonpayable",
					"type": "function"
				}
			],
			"devdoc": {
				"kind": "dev",
				"methods": {},
				"version": 1
			},
			"evm": {
				"assembly": "    /* \"contracts/Twitter.sol\":481:2451  contract Twitter {... */\n  mstore(0x40, 0x80)\n    /* \"contracts/Twitter.sol\":589:592  280 */\n  0x0118\n    /* \"contracts/Twitter.sol\":556:592  uint16 public MAX_TWEET_LENGTH = 280 */\n  0x01\n  exp(0x0100, 0x00)\n  dup2\n  sload\n  dup2\n  0xffff\n  mul\n  not\n  and\n  swap1\n  dup4\n  0xffff\n  and\n  mul\n  or\n  swap1\n  sstore\n  pop\n    /* \"contracts/Twitter.sol\":780:831  constructor() {... */\n  callvalue\n  dup1\n  iszero\n  tag_1\n  jumpi\n  0x00\n  dup1\n  revert\ntag_1:\n  pop\n    /* \"contracts/Twitter.sol\":813:823  msg.sender */\n  caller\n    /* \"contracts/Twitter.sol\":805:810  owner */\n  0x01\n  0x02\n    /* \"contracts/Twitter.sol\":805:823  owner = msg.sender */\n  0x0100\n  exp\n  dup2\n  sload\n  dup2\n  0xffffffffffffffffffffffffffffffffffffffff\n  mul\n  not\n  and\n  swap1\n  dup4\n  0xffffffffffffffffffffffffffffffffffffffff\n  and\n  mul\n  or\n  swap1\n  sstore\n  pop\n    /* \"contracts/Twitter.sol\":481:2451  contract Twitter {... */\n  dataSize(sub_0)\n  dup1\n  dataOffset(sub_0)\n  0x00\n  codecopy\n  0x00\n  return\nstop\n\nsub_0: assembly {\n        /* \"contracts/Twitter.sol\":481:2451  contract Twitter {... */\n      mstore(0x40, 0x80)\n      callvalue\n      dup1\n      iszero\n      tag_1\n      jumpi\n      0x00\n      dup1\n      revert\n    tag_1:\n      pop\n      jumpi(tag_2, lt(calldatasize, 0x04))\n      shr(0xe0, calldataload(0x00))\n      dup1\n      0x7c9cd2bc\n      gt\n      tag_13\n      jumpi\n      dup1\n      0x7c9cd2bc\n      eq\n      tag_8\n      jumpi\n      dup1\n      0x8da5cb5b\n      eq\n      tag_9\n      jumpi\n      dup1\n      0xa1488f7c\n      eq\n      tag_10\n      jumpi\n      dup1\n      0xd04ddaa0\n      eq\n      tag_11\n      jumpi\n      dup1\n      0xed9bb8d7\n      eq\n      tag_12\n      jumpi\n      jump(tag_2)\n    tag_13:\n      dup1\n      0x05a1b4a9\n      eq\n      tag_3\n      jumpi\n      dup1\n      0x12e7ee1c\n      eq\n      tag_4\n      jumpi\n      dup1\n      0x20f7e65c\n      eq\n      tag_5\n      jumpi\n      dup1\n      0x6d003c01\n      eq\n      tag_6\n      jumpi\n      dup1\n      0x6eb10797\n      eq\n      tag_7\n      jumpi\n    tag_2:\n      0x00\n      dup1\n      revert\n        /* \"contracts/Twitter.sol\":507:549  mapping (address => Tweet[]) public tweets */\n    tag_3:\n      tag_14\n      0x04\n      dup1\n      calldatasize\n      sub\n      dup2\n      add\n      swap1\n      tag_15\n      swap2\n      swap1\n      tag_16\n      jump\t// in\n    tag_15:\n      tag_17\n      jump\t// in\n    tag_14:\n      mload(0x40)\n      tag_18\n      swap6\n      swap5\n      swap4\n      swap3\n      swap2\n      swap1\n      tag_19\n      jump\t// in\n    tag_18:\n      mload(0x40)\n      dup1\n      swap2\n      sub\n      swap1\n      return\n        /* \"contracts/Twitter.sol\":1803:1918  function getAllTweets(address _owner) public view returns (Tweet[] memory) {... */\n    tag_4:\n      tag_20\n      0x04\n      dup1\n      calldatasize\n      sub\n      dup2\n      add\n      swap1\n      tag_21\n      swap2\n      swap1\n      tag_22\n      jump\t// in\n    tag_21:\n      tag_23\n      jump\t// in\n    tag_20:\n      mload(0x40)\n      tag_24\n      swap2\n      swap1\n      tag_25\n      jump\t// in\n    tag_24:\n      mload(0x40)\n      dup1\n      swap2\n      sub\n      swap1\n      return\n        /* \"contracts/Twitter.sol\":1926:2008  function deleteTweet(address _addr) public {... */\n    tag_5:\n      tag_26\n      0x04\n      dup1\n      calldatasize\n      sub\n      dup2\n      add\n      swap1\n      tag_27\n      swap2\n      swap1\n      tag_22\n      jump\t// in\n    tag_27:\n      tag_28\n      jump\t// in\n    tag_26:\n      stop\n        /* \"contracts/Twitter.sol\":954:1074  function changedTweetLength(uint16 newTweetLength) public onlyOwner {... */\n    tag_6:\n      tag_29\n      0x04\n      dup1\n      calldatasize\n      sub\n      dup2\n      add\n      swap1\n      tag_30\n      swap2\n      swap1\n      tag_31\n      jump\t// in\n    tag_30:\n      tag_32\n      jump\t// in\n    tag_29:\n      stop\n        /* \"contracts/Twitter.sol\":556:592  uint16 public MAX_TWEET_LENGTH = 280 */\n    tag_7:\n      tag_33\n      tag_34\n      jump\t// in\n    tag_33:\n      mload(0x40)\n      tag_35\n      swap2\n      swap1\n      tag_36\n      jump\t// in\n    tag_35:\n      mload(0x40)\n      dup1\n      swap2\n      sub\n      swap1\n      return\n        /* \"contracts/Twitter.sol\":1082:1515  function createTweet(string memory _tweet) public {... */\n    tag_8:\n      tag_37\n      0x04\n      dup1\n      calldatasize\n      sub\n      dup2\n      add\n      swap1\n      tag_38\n      swap2\n      swap1\n      tag_39\n      jump\t// in\n    tag_38:\n      tag_40\n      jump\t// in\n    tag_37:\n      stop\n        /* \"contracts/Twitter.sol\":599:619  address public owner */\n    tag_9:\n      tag_41\n      tag_42\n      jump\t// in\n    tag_41:\n      mload(0x40)\n      tag_43\n      swap2\n      swap1\n      tag_44\n      jump\t// in\n    tag_43:\n      mload(0x40)\n      dup1\n      swap2\n      sub\n      swap1\n      return\n        /* \"contracts/Twitter.sol\":2198:2446  function unlikeTweet(uint256 id, address author) external {... */\n    tag_10:\n      tag_45\n      0x04\n      dup1\n      calldatasize\n      sub\n      dup2\n      add\n      swap1\n      tag_46\n      swap2\n      swap1\n      tag_47\n      jump\t// in\n    tag_46:\n      tag_48\n      jump\t// in\n    tag_45:\n      stop\n        /* \"contracts/Twitter.sol\":2016:2190  function likeTweet(uint256 id, address author) external {... */\n    tag_11:\n      tag_49\n      0x04\n      dup1\n      calldatasize\n      sub\n      dup2\n      add\n      swap1\n      tag_50\n      swap2\n      swap1\n      tag_47\n      jump\t// in\n    tag_50:\n      tag_51\n      jump\t// in\n    tag_49:\n      stop\n        /* \"contracts/Twitter.sol\":1525:1795  function getTweets(uint256 _i) public view returns (Tweet memory) {... */\n    tag_12:\n      tag_52\n      0x04\n      dup1\n      calldatasize\n      sub\n      dup2\n      add\n      swap1\n      tag_53\n      swap2\n      swap1\n      tag_54\n      jump\t// in\n    tag_53:\n      tag_55\n      jump\t// in\n    tag_52:\n      mload(0x40)\n      tag_56\n      swap2\n      swap1\n      tag_57\n      jump\t// in\n    tag_56:\n      mload(0x40)\n      dup1\n      swap2\n      sub\n      swap1\n      return\n        /* \"contracts/Twitter.sol\":507:549  mapping (address => Tweet[]) public tweets */\n    tag_17:\n      mstore(0x20, 0x00)\n      dup2\n      0x00\n      mstore\n      keccak256(0x00, 0x40)\n      dup2\n      dup2\n      sload\n      dup2\n      lt\n      tag_58\n      jumpi\n      0x00\n      dup1\n      revert\n    tag_58:\n      swap1\n      0x00\n      mstore\n      keccak256(0x00, 0x20)\n      swap1\n      0x05\n      mul\n      add\n      0x00\n      swap2\n      pop\n      swap2\n      pop\n      pop\n      dup1\n      0x00\n      add\n      sload\n      swap1\n      dup1\n      0x01\n      add\n      0x00\n      swap1\n      sload\n      swap1\n      0x0100\n      exp\n      swap1\n      div\n      0xffffffffffffffffffffffffffffffffffffffff\n      and\n      swap1\n      dup1\n      0x02\n      add\n      dup1\n      sload\n      tag_60\n      swap1\n      tag_61\n      jump\t// in\n    tag_60:\n      dup1\n      0x1f\n      add\n      0x20\n      dup1\n      swap2\n      div\n      mul\n      0x20\n      add\n      mload(0x40)\n      swap1\n      dup2\n      add\n      0x40\n      mstore\n      dup1\n      swap3\n      swap2\n      swap1\n      dup2\n      dup2\n      mstore\n      0x20\n      add\n      dup3\n      dup1\n      sload\n      tag_62\n      swap1\n      tag_61\n      jump\t// in\n    tag_62:\n      dup1\n      iszero\n      tag_63\n      jumpi\n      dup1\n      0x1f\n      lt\n      tag_64\n      jumpi\n      0x0100\n      dup1\n      dup4\n      sload\n      div\n      mul\n      dup4\n      mstore\n      swap2\n      0x20\n      add\n      swap2\n      jump(tag_63)\n    tag_64:\n      dup3\n      add\n      swap2\n      swap1\n      0x00\n      mstore\n      keccak256(0x00, 0x20)\n      swap1\n    tag_65:\n      dup2\n      sload\n      dup2\n      mstore\n      swap1\n      0x01\n      add\n      swap1\n      0x20\n      add\n      dup1\n      dup4\n      gt\n      tag_65\n      jumpi\n      dup3\n      swap1\n      sub\n      0x1f\n      and\n      dup3\n      add\n      swap2\n    tag_63:\n      pop\n      pop\n      pop\n      pop\n      pop\n      swap1\n      dup1\n      0x03\n      add\n      sload\n      swap1\n      dup1\n      0x04\n      add\n      sload\n      swap1\n      pop\n      dup6\n      jump\t// out\n        /* \"contracts/Twitter.sol\":1803:1918  function getAllTweets(address _owner) public view returns (Tweet[] memory) {... */\n    tag_23:\n        /* \"contracts/Twitter.sol\":1862:1876  Tweet[] memory */\n      0x60\n        /* \"contracts/Twitter.sol\":1896:1902  tweets */\n      0x00\n        /* \"contracts/Twitter.sol\":1896:1910  tweets[_owner] */\n      dup1\n        /* \"contracts/Twitter.sol\":1903:1909  _owner */\n      dup4\n        /* \"contracts/Twitter.sol\":1896:1910  tweets[_owner] */\n      0xffffffffffffffffffffffffffffffffffffffff\n      and\n      0xffffffffffffffffffffffffffffffffffffffff\n      and\n      dup2\n      mstore\n      0x20\n      add\n      swap1\n      dup2\n      mstore\n      0x20\n      add\n      0x00\n      keccak256\n        /* \"contracts/Twitter.sol\":1889:1910  return tweets[_owner] */\n      dup1\n      sload\n      dup1\n      0x20\n      mul\n      0x20\n      add\n      mload(0x40)\n      swap1\n      dup2\n      add\n      0x40\n      mstore\n      dup1\n      swap3\n      swap2\n      swap1\n      dup2\n      dup2\n      mstore\n      0x20\n      add\n      0x00\n      swap1\n    tag_67:\n      dup3\n      dup3\n      lt\n      iszero\n      tag_68\n      jumpi\n      dup4\n      dup3\n      swap1\n      0x00\n      mstore\n      keccak256(0x00, 0x20)\n      swap1\n      0x05\n      mul\n      add\n      mload(0x40)\n      dup1\n      0xa0\n      add\n      0x40\n      mstore\n      swap1\n      dup2\n      0x00\n      dup3\n      add\n      sload\n      dup2\n      mstore\n      0x20\n      add\n      0x01\n      dup3\n      add\n      0x00\n      swap1\n      sload\n      swap1\n      0x0100\n      exp\n      swap1\n      div\n      0xffffffffffffffffffffffffffffffffffffffff\n      and\n      0xffffffffffffffffffffffffffffffffffffffff\n      and\n      0xffffffffffffffffffffffffffffffffffffffff\n      and\n      dup2\n      mstore\n      0x20\n      add\n      0x02\n      dup3\n      add\n      dup1\n      sload\n      tag_70\n      swap1\n      tag_61\n      jump\t// in\n    tag_70:\n      dup1\n      0x1f\n      add\n      0x20\n      dup1\n      swap2\n      div\n      mul\n      0x20\n      add\n      mload(0x40)\n      swap1\n      dup2\n      add\n      0x40\n      mstore\n      dup1\n      swap3\n      swap2\n      swap1\n      dup2\n      dup2\n      mstore\n      0x20\n      add\n      dup3\n      dup1\n      sload\n      tag_71\n      swap1\n      tag_61\n      jump\t// in\n    tag_71:\n      dup1\n      iszero\n      tag_72\n      jumpi\n      dup1\n      0x1f\n      lt\n      tag_73\n      jumpi\n      0x0100\n      dup1\n      dup4\n      sload\n      div\n      mul\n      dup4\n      mstore\n      swap2\n      0x20\n      add\n      swap2\n      jump(tag_72)\n    tag_73:\n      dup3\n      add\n      swap2\n      swap1\n      0x00\n      mstore\n      keccak256(0x00, 0x20)\n      swap1\n    tag_74:\n      dup2\n      sload\n      dup2\n      mstore\n      swap1\n      0x01\n      add\n      swap1\n      0x20\n      add\n      dup1\n      dup4\n      gt\n      tag_74\n      jumpi\n      dup3\n      swap1\n      sub\n      0x1f\n      and\n      dup3\n      add\n      swap2\n    tag_72:\n      pop\n      pop\n      pop\n      pop\n      pop\n      dup2\n      mstore\n      0x20\n      add\n      0x03\n      dup3\n      add\n      sload\n      dup2\n      mstore\n      0x20\n      add\n      0x04\n      dup3\n      add\n      sload\n      dup2\n      mstore\n      pop\n      pop\n      dup2\n      mstore\n      0x20\n      add\n      swap1\n      0x01\n      add\n      swap1\n      jump(tag_67)\n    tag_68:\n      pop\n      pop\n      pop\n      pop\n      swap1\n      pop\n        /* \"contracts/Twitter.sol\":1803:1918  function getAllTweets(address _owner) public view returns (Tweet[] memory) {... */\n      swap2\n      swap1\n      pop\n      jump\t// out\n        /* \"contracts/Twitter.sol\":1926:2008  function deleteTweet(address _addr) public {... */\n    tag_28:\n        /* \"contracts/Twitter.sol\":1987:1993  tweets */\n      0x00\n        /* \"contracts/Twitter.sol\":1987:2000  tweets[_addr] */\n      dup1\n        /* \"contracts/Twitter.sol\":1994:1999  _addr */\n      dup3\n        /* \"contracts/Twitter.sol\":1987:2000  tweets[_addr] */\n      0xffffffffffffffffffffffffffffffffffffffff\n      and\n      0xffffffffffffffffffffffffffffffffffffffff\n      and\n      dup2\n      mstore\n      0x20\n      add\n      swap1\n      dup2\n      mstore\n      0x20\n      add\n      0x00\n      keccak256\n      0x00\n        /* \"contracts/Twitter.sol\":1980:2000  delete tweets[_addr] */\n      tag_76\n      swap2\n      swap1\n      tag_77\n      jump\t// in\n    tag_76:\n        /* \"contracts/Twitter.sol\":1926:2008  function deleteTweet(address _addr) public {... */\n      pop\n      jump\t// out\n        /* \"contracts/Twitter.sol\":954:1074  function changedTweetLength(uint16 newTweetLength) public onlyOwner {... */\n    tag_32:\n        /* \"contracts/Twitter.sol\":888:898  msg.sender */\n      caller\n        /* \"contracts/Twitter.sol\":879:898  owner == msg.sender */\n      0xffffffffffffffffffffffffffffffffffffffff\n      and\n        /* \"contracts/Twitter.sol\":879:884  owner */\n      0x01\n      0x02\n      swap1\n      sload\n      swap1\n      0x0100\n      exp\n      swap1\n      div\n      0xffffffffffffffffffffffffffffffffffffffff\n      and\n        /* \"contracts/Twitter.sol\":879:898  owner == msg.sender */\n      0xffffffffffffffffffffffffffffffffffffffff\n      and\n      eq\n        /* \"contracts/Twitter.sol\":871:926  require(owner == msg.sender, \"YOU ARE NOT THE OWNER!!\") */\n      tag_79\n      jumpi\n      mload(0x40)\n      0x08c379a000000000000000000000000000000000000000000000000000000000\n      dup2\n      mstore\n      0x04\n      add\n      tag_80\n      swap1\n      tag_81\n      jump\t// in\n    tag_80:\n      mload(0x40)\n      dup1\n      swap2\n      sub\n      swap1\n      revert\n    tag_79:\n        /* \"contracts/Twitter.sol\":1052:1066  newTweetLength */\n      dup1\n        /* \"contracts/Twitter.sol\":1033:1049  MAX_TWEET_LENGTH */\n      0x01\n      0x00\n        /* \"contracts/Twitter.sol\":1033:1066  MAX_TWEET_LENGTH = newTweetLength */\n      0x0100\n      exp\n      dup2\n      sload\n      dup2\n      0xffff\n      mul\n      not\n      and\n      swap1\n      dup4\n      0xffff\n      and\n      mul\n      or\n      swap1\n      sstore\n      pop\n        /* \"contracts/Twitter.sol\":954:1074  function changedTweetLength(uint16 newTweetLength) public onlyOwner {... */\n      pop\n      jump\t// out\n        /* \"contracts/Twitter.sol\":556:592  uint16 public MAX_TWEET_LENGTH = 280 */\n    tag_34:\n      0x01\n      0x00\n      swap1\n      sload\n      swap1\n      0x0100\n      exp\n      swap1\n      div\n      0xffff\n      and\n      dup2\n      jump\t// out\n        /* \"contracts/Twitter.sol\":1082:1515  function createTweet(string memory _tweet) public {... */\n    tag_40:\n        /* \"contracts/Twitter.sol\":1177:1193  MAX_TWEET_LENGTH */\n      0x01\n      0x00\n      swap1\n      sload\n      swap1\n      0x0100\n      exp\n      swap1\n      div\n      0xffff\n      and\n        /* \"contracts/Twitter.sol\":1153:1193  bytes(_tweet).length <= MAX_TWEET_LENGTH */\n      0xffff\n      and\n        /* \"contracts/Twitter.sol\":1159:1165  _tweet */\n      dup2\n        /* \"contracts/Twitter.sol\":1153:1173  bytes(_tweet).length */\n      mload\n        /* \"contracts/Twitter.sol\":1153:1193  bytes(_tweet).length <= MAX_TWEET_LENGTH */\n      gt\n      iszero\n        /* \"contracts/Twitter.sol\":1145:1234  require(bytes(_tweet).length <= MAX_TWEET_LENGTH, \"Tweet is to long, max 280 characters\") */\n      tag_84\n      jumpi\n      mload(0x40)\n      0x08c379a000000000000000000000000000000000000000000000000000000000\n      dup2\n      mstore\n      0x04\n      add\n      tag_85\n      swap1\n      tag_86\n      jump\t// in\n    tag_85:\n      mload(0x40)\n      dup1\n      swap2\n      sub\n      swap1\n      revert\n    tag_84:\n        /* \"contracts/Twitter.sol\":1247:1268  Tweet memory newTweet */\n      0x00\n        /* \"contracts/Twitter.sol\":1271:1461  Tweet({... */\n      mload(0x40)\n      dup1\n      0xa0\n      add\n      0x40\n      mstore\n      dup1\n        /* \"contracts/Twitter.sol\":1296:1302  tweets */\n      0x00\n        /* \"contracts/Twitter.sol\":1296:1314  tweets[msg.sender] */\n      dup1\n        /* \"contracts/Twitter.sol\":1303:1313  msg.sender */\n      caller\n        /* \"contracts/Twitter.sol\":1296:1314  tweets[msg.sender] */\n      0xffffffffffffffffffffffffffffffffffffffff\n      and\n      0xffffffffffffffffffffffffffffffffffffffff\n      and\n      dup2\n      mstore\n      0x20\n      add\n      swap1\n      dup2\n      mstore\n      0x20\n      add\n      0x00\n      keccak256\n        /* \"contracts/Twitter.sol\":1296:1321  tweets[msg.sender].length */\n      dup1\n      sload\n      swap1\n      pop\n        /* \"contracts/Twitter.sol\":1271:1461  Tweet({... */\n      dup2\n      mstore\n      0x20\n      add\n        /* \"contracts/Twitter.sol\":1344:1354  msg.sender */\n      caller\n        /* \"contracts/Twitter.sol\":1271:1461  Tweet({... */\n      0xffffffffffffffffffffffffffffffffffffffff\n      and\n      dup2\n      mstore\n      0x20\n      add\n        /* \"contracts/Twitter.sol\":1378:1384  _tweet */\n      dup4\n        /* \"contracts/Twitter.sol\":1271:1461  Tweet({... */\n      dup2\n      mstore\n      0x20\n      add\n        /* \"contracts/Twitter.sol\":1411:1426  block.timestamp */\n      timestamp\n        /* \"contracts/Twitter.sol\":1271:1461  Tweet({... */\n      dup2\n      mstore\n      0x20\n      add\n        /* \"contracts/Twitter.sol\":1448:1449  0 */\n      0x00\n        /* \"contracts/Twitter.sol\":1271:1461  Tweet({... */\n      dup2\n      mstore\n      pop\n        /* \"contracts/Twitter.sol\":1247:1461  Tweet memory newTweet = Tweet({... */\n      swap1\n      pop\n        /* \"contracts/Twitter.sol\":1474:1480  tweets */\n      0x00\n        /* \"contracts/Twitter.sol\":1474:1492  tweets[msg.sender] */\n      dup1\n        /* \"contracts/Twitter.sol\":1481:1491  msg.sender */\n      caller\n        /* \"contracts/Twitter.sol\":1474:1492  tweets[msg.sender] */\n      0xffffffffffffffffffffffffffffffffffffffff\n      and\n      0xffffffffffffffffffffffffffffffffffffffff\n      and\n      dup2\n      mstore\n      0x20\n      add\n      swap1\n      dup2\n      mstore\n      0x20\n      add\n      0x00\n      keccak256\n        /* \"contracts/Twitter.sol\":1498:1506  newTweet */\n      dup2\n        /* \"contracts/Twitter.sol\":1474:1507  tweets[msg.sender].push(newTweet) */\n      swap1\n      dup1\n      0x01\n      dup2\n      sload\n      add\n      dup1\n      dup3\n      sstore\n      dup1\n      swap2\n      pop\n      pop\n      0x01\n      swap1\n      sub\n      swap1\n      0x00\n      mstore\n      keccak256(0x00, 0x20)\n      swap1\n      0x05\n      mul\n      add\n      0x00\n      swap1\n      swap2\n      swap1\n      swap2\n      swap1\n      swap2\n      pop\n      0x00\n      dup3\n      add\n      mload\n      dup2\n      0x00\n      add\n      sstore\n      0x20\n      dup3\n      add\n      mload\n      dup2\n      0x01\n      add\n      exp(0x0100, 0x00)\n      dup2\n      sload\n      dup2\n      0xffffffffffffffffffffffffffffffffffffffff\n      mul\n      not\n      and\n      swap1\n      dup4\n      0xffffffffffffffffffffffffffffffffffffffff\n      and\n      mul\n      or\n      swap1\n      sstore\n      pop\n      0x40\n      dup3\n      add\n      mload\n      dup2\n      0x02\n      add\n      swap1\n      dup2\n      tag_88\n      swap2\n      swap1\n      tag_89\n      jump\t// in\n    tag_88:\n      pop\n      0x60\n      dup3\n      add\n      mload\n      dup2\n      0x03\n      add\n      sstore\n      0x80\n      dup3\n      add\n      mload\n      dup2\n      0x04\n      add\n      sstore\n      pop\n      pop\n        /* \"contracts/Twitter.sol\":1132:1515  {... */\n      pop\n        /* \"contracts/Twitter.sol\":1082:1515  function createTweet(string memory _tweet) public {... */\n      pop\n      jump\t// out\n        /* \"contracts/Twitter.sol\":599:619  address public owner */\n    tag_42:\n      0x01\n      0x02\n      swap1\n      sload\n      swap1\n      0x0100\n      exp\n      swap1\n      div\n      0xffffffffffffffffffffffffffffffffffffffff\n      and\n      dup2\n      jump\t// out\n        /* \"contracts/Twitter.sol\":2198:2446  function unlikeTweet(uint256 id, address author) external {... */\n    tag_48:\n        /* \"contracts/Twitter.sol\":2300:2302  id */\n      dup2\n        /* \"contracts/Twitter.sol\":2275:2281  tweets */\n      0x00\n        /* \"contracts/Twitter.sol\":2275:2289  tweets[author] */\n      dup1\n        /* \"contracts/Twitter.sol\":2282:2288  author */\n      dup4\n        /* \"contracts/Twitter.sol\":2275:2289  tweets[author] */\n      0xffffffffffffffffffffffffffffffffffffffff\n      and\n      0xffffffffffffffffffffffffffffffffffffffff\n      and\n      dup2\n      mstore\n      0x20\n      add\n      swap1\n      dup2\n      mstore\n      0x20\n      add\n      0x00\n      keccak256\n        /* \"contracts/Twitter.sol\":2290:2292  id */\n      dup4\n        /* \"contracts/Twitter.sol\":2275:2293  tweets[author][id] */\n      dup2\n      sload\n      dup2\n      lt\n      tag_91\n      jumpi\n      tag_92\n      tag_93\n      jump\t// in\n    tag_92:\n    tag_91:\n      swap1\n      0x00\n      mstore\n      keccak256(0x00, 0x20)\n      swap1\n      0x05\n      mul\n      add\n        /* \"contracts/Twitter.sol\":2275:2296  tweets[author][id].id */\n      0x00\n      add\n      sload\n        /* \"contracts/Twitter.sol\":2275:2302  tweets[author][id].id == id */\n      eq\n        /* \"contracts/Twitter.sol\":2267:2327  require(tweets[author][id].id == id, \"TWEET DOES NOT EXIST\") */\n      tag_95\n      jumpi\n      mload(0x40)\n      0x08c379a000000000000000000000000000000000000000000000000000000000\n      dup2\n      mstore\n      0x04\n      add\n      tag_96\n      swap1\n      tag_97\n      jump\t// in\n    tag_96:\n      mload(0x40)\n      dup1\n      swap2\n      sub\n      swap1\n      revert\n    tag_95:\n        /* \"contracts/Twitter.sol\":2373:2374  0 */\n      0x00\n        /* \"contracts/Twitter.sol\":2346:2352  tweets */\n      dup1\n        /* \"contracts/Twitter.sol\":2346:2360  tweets[author] */\n      0x00\n        /* \"contracts/Twitter.sol\":2353:2359  author */\n      dup4\n        /* \"contracts/Twitter.sol\":2346:2360  tweets[author] */\n      0xffffffffffffffffffffffffffffffffffffffff\n      and\n      0xffffffffffffffffffffffffffffffffffffffff\n      and\n      dup2\n      mstore\n      0x20\n      add\n      swap1\n      dup2\n      mstore\n      0x20\n      add\n      0x00\n      keccak256\n        /* \"contracts/Twitter.sol\":2361:2363  id */\n      dup4\n        /* \"contracts/Twitter.sol\":2346:2364  tweets[author][id] */\n      dup2\n      sload\n      dup2\n      lt\n      tag_98\n      jumpi\n      tag_99\n      tag_93\n      jump\t// in\n    tag_99:\n    tag_98:\n      swap1\n      0x00\n      mstore\n      keccak256(0x00, 0x20)\n      swap1\n      0x05\n      mul\n      add\n        /* \"contracts/Twitter.sol\":2346:2370  tweets[author][id].likes */\n      0x04\n      add\n      sload\n        /* \"contracts/Twitter.sol\":2346:2374  tweets[author][id].likes > 0 */\n      gt\n        /* \"contracts/Twitter.sol\":2338:2399  require(tweets[author][id].likes > 0, \"TWEET DOES NOT LIKED\") */\n      tag_101\n      jumpi\n      mload(0x40)\n      0x08c379a000000000000000000000000000000000000000000000000000000000\n      dup2\n      mstore\n      0x04\n      add\n      tag_102\n      swap1\n      tag_103\n      jump\t// in\n    tag_102:\n      mload(0x40)\n      dup1\n      swap2\n      sub\n      swap1\n      revert\n    tag_101:\n        /* \"contracts/Twitter.sol\":2412:2418  tweets */\n      0x00\n        /* \"contracts/Twitter.sol\":2412:2426  tweets[author] */\n      dup1\n        /* \"contracts/Twitter.sol\":2419:2425  author */\n      dup3\n        /* \"contracts/Twitter.sol\":2412:2426  tweets[author] */\n      0xffffffffffffffffffffffffffffffffffffffff\n      and\n      0xffffffffffffffffffffffffffffffffffffffff\n      and\n      dup2\n      mstore\n      0x20\n      add\n      swap1\n      dup2\n      mstore\n      0x20\n      add\n      0x00\n      keccak256\n        /* \"contracts/Twitter.sol\":2427:2429  id */\n      dup3\n        /* \"contracts/Twitter.sol\":2412:2430  tweets[author][id] */\n      dup2\n      sload\n      dup2\n      lt\n      tag_104\n      jumpi\n      tag_105\n      tag_93\n      jump\t// in\n    tag_105:\n    tag_104:\n      swap1\n      0x00\n      mstore\n      keccak256(0x00, 0x20)\n      swap1\n      0x05\n      mul\n      add\n        /* \"contracts/Twitter.sol\":2412:2436  tweets[author][id].likes */\n      0x04\n      add\n      0x00\n        /* \"contracts/Twitter.sol\":2412:2438  tweets[author][id].likes-- */\n      dup2\n      sload\n      dup1\n      swap3\n      swap2\n      swap1\n      tag_107\n      swap1\n      tag_108\n      jump\t// in\n    tag_107:\n      swap2\n      swap1\n      pop\n      sstore\n      pop\n        /* \"contracts/Twitter.sol\":2198:2446  function unlikeTweet(uint256 id, address author) external {... */\n      pop\n      pop\n      jump\t// out\n        /* \"contracts/Twitter.sol\":2016:2190  function likeTweet(uint256 id, address author) external {... */\n    tag_51:\n        /* \"contracts/Twitter.sol\":2116:2118  id */\n      dup2\n        /* \"contracts/Twitter.sol\":2091:2097  tweets */\n      0x00\n        /* \"contracts/Twitter.sol\":2091:2105  tweets[author] */\n      dup1\n        /* \"contracts/Twitter.sol\":2098:2104  author */\n      dup4\n        /* \"contracts/Twitter.sol\":2091:2105  tweets[author] */\n      0xffffffffffffffffffffffffffffffffffffffff\n      and\n      0xffffffffffffffffffffffffffffffffffffffff\n      and\n      dup2\n      mstore\n      0x20\n      add\n      swap1\n      dup2\n      mstore\n      0x20\n      add\n      0x00\n      keccak256\n        /* \"contracts/Twitter.sol\":2106:2108  id */\n      dup4\n        /* \"contracts/Twitter.sol\":2091:2109  tweets[author][id] */\n      dup2\n      sload\n      dup2\n      lt\n      tag_110\n      jumpi\n      tag_111\n      tag_93\n      jump\t// in\n    tag_111:\n    tag_110:\n      swap1\n      0x00\n      mstore\n      keccak256(0x00, 0x20)\n      swap1\n      0x05\n      mul\n      add\n        /* \"contracts/Twitter.sol\":2091:2112  tweets[author][id].id */\n      0x00\n      add\n      sload\n        /* \"contracts/Twitter.sol\":2091:2118  tweets[author][id].id == id */\n      eq\n        /* \"contracts/Twitter.sol\":2083:2143  require(tweets[author][id].id == id, \"TWEET DOES NOT EXIST\") */\n      tag_113\n      jumpi\n      mload(0x40)\n      0x08c379a000000000000000000000000000000000000000000000000000000000\n      dup2\n      mstore\n      0x04\n      add\n      tag_114\n      swap1\n      tag_97\n      jump\t// in\n    tag_114:\n      mload(0x40)\n      dup1\n      swap2\n      sub\n      swap1\n      revert\n    tag_113:\n        /* \"contracts/Twitter.sol\":2156:2162  tweets */\n      0x00\n        /* \"contracts/Twitter.sol\":2156:2170  tweets[author] */\n      dup1\n        /* \"contracts/Twitter.sol\":2163:2169  author */\n      dup3\n        /* \"contracts/Twitter.sol\":2156:2170  tweets[author] */\n      0xffffffffffffffffffffffffffffffffffffffff\n      and\n      0xffffffffffffffffffffffffffffffffffffffff\n      and\n      dup2\n      mstore\n      0x20\n      add\n      swap1\n      dup2\n      mstore\n      0x20\n      add\n      0x00\n      keccak256\n        /* \"contracts/Twitter.sol\":2171:2173  id */\n      dup3\n        /* \"contracts/Twitter.sol\":2156:2174  tweets[author][id] */\n      dup2\n      sload\n      dup2\n      lt\n      tag_115\n      jumpi\n      tag_116\n      tag_93\n      jump\t// in\n    tag_116:\n    tag_115:\n      swap1\n      0x00\n      mstore\n      keccak256(0x00, 0x20)\n      swap1\n      0x05\n      mul\n      add\n        /* \"contracts/Twitter.sol\":2156:2180  tweets[author][id].likes */\n      0x04\n      add\n      0x00\n        /* \"contracts/Twitter.sol\":2156:2182  tweets[author][id].likes++ */\n      dup2\n      sload\n      dup1\n      swap3\n      swap2\n      swap1\n      tag_118\n      swap1\n      tag_119\n      jump\t// in\n    tag_118:\n      swap2\n      swap1\n      pop\n      sstore\n      pop\n        /* \"contracts/Twitter.sol\":2016:2190  function likeTweet(uint256 id, address author) external {... */\n      pop\n      pop\n      jump\t// out\n        /* \"contracts/Twitter.sol\":1525:1795  function getTweets(uint256 _i) public view returns (Tweet memory) {... */\n    tag_55:\n        /* \"contracts/Twitter.sol\":1577:1589  Tweet memory */\n      tag_120\n      tag_121\n      jump\t// in\n    tag_120:\n        /* \"contracts/Twitter.sol\":1616:1622  tweets */\n      0x00\n        /* \"contracts/Twitter.sol\":1616:1634  tweets[msg.sender] */\n      dup1\n        /* \"contracts/Twitter.sol\":1623:1633  msg.sender */\n      caller\n        /* \"contracts/Twitter.sol\":1616:1634  tweets[msg.sender] */\n      0xffffffffffffffffffffffffffffffffffffffff\n      and\n      0xffffffffffffffffffffffffffffffffffffffff\n      and\n      dup2\n      mstore\n      0x20\n      add\n      swap1\n      dup2\n      mstore\n      0x20\n      add\n      0x00\n      keccak256\n        /* \"contracts/Twitter.sol\":1616:1641  tweets[msg.sender].length */\n      dup1\n      sload\n      swap1\n      pop\n        /* \"contracts/Twitter.sol\":1610:1612  _i */\n      dup3\n        /* \"contracts/Twitter.sol\":1610:1641  _i <= tweets[msg.sender].length */\n      gt\n      iszero\n        /* \"contracts/Twitter.sol\":1602:1665  require(_i <= tweets[msg.sender].length, \"Invalid tweet index\") */\n      tag_123\n      jumpi\n      mload(0x40)\n      0x08c379a000000000000000000000000000000000000000000000000000000000\n      dup2\n      mstore\n      0x04\n      add\n      tag_124\n      swap1\n      tag_125\n      jump\t// in\n    tag_124:\n      mload(0x40)\n      dup1\n      swap2\n      sub\n      swap1\n      revert\n    tag_123:\n        /* \"contracts/Twitter.sol\":1765:1771  tweets */\n      0x00\n        /* \"contracts/Twitter.sol\":1765:1783  tweets[msg.sender] */\n      dup1\n        /* \"contracts/Twitter.sol\":1772:1782  msg.sender */\n      caller\n        /* \"contracts/Twitter.sol\":1765:1783  tweets[msg.sender] */\n      0xffffffffffffffffffffffffffffffffffffffff\n      and\n      0xffffffffffffffffffffffffffffffffffffffff\n      and\n      dup2\n      mstore\n      0x20\n      add\n      swap1\n      dup2\n      mstore\n      0x20\n      add\n      0x00\n      keccak256\n        /* \"contracts/Twitter.sol\":1784:1786  _i */\n      dup3\n        /* \"contracts/Twitter.sol\":1765:1787  tweets[msg.sender][_i] */\n      dup2\n      sload\n      dup2\n      lt\n      tag_126\n      jumpi\n      tag_127\n      tag_93\n      jump\t// in\n    tag_127:\n    tag_126:\n      swap1\n      0x00\n      mstore\n      keccak256(0x00, 0x20)\n      swap1\n      0x05\n      mul\n      add\n        /* \"contracts/Twitter.sol\":1758:1787  return tweets[msg.sender][_i] */\n      mload(0x40)\n      dup1\n      0xa0\n      add\n      0x40\n      mstore\n      swap1\n      dup2\n      0x00\n      dup3\n      add\n      sload\n      dup2\n      mstore\n      0x20\n      add\n      0x01\n      dup3\n      add\n      0x00\n      swap1\n      sload\n      swap1\n      0x0100\n      exp\n      swap1\n      div\n      0xffffffffffffffffffffffffffffffffffffffff\n      and\n      0xffffffffffffffffffffffffffffffffffffffff\n      and\n      0xffffffffffffffffffffffffffffffffffffffff\n      and\n      dup2\n      mstore\n      0x20\n      add\n      0x02\n      dup3\n      add\n      dup1\n      sload\n      tag_129\n      swap1\n      tag_61\n      jump\t// in\n    tag_129:\n      dup1\n      0x1f\n      add\n      0x20\n      dup1\n      swap2\n      div\n      mul\n      0x20\n      add\n      mload(0x40)\n      swap1\n      dup2\n      add\n      0x40\n      mstore\n      dup1\n      swap3\n      swap2\n      swap1\n      dup2\n      dup2\n      mstore\n      0x20\n      add\n      dup3\n      dup1\n      sload\n      tag_130\n      swap1\n      tag_61\n      jump\t// in\n    tag_130:\n      dup1\n      iszero\n      tag_131\n      jumpi\n      dup1\n      0x1f\n      lt\n      tag_132\n      jumpi\n      0x0100\n      dup1\n      dup4\n      sload\n      div\n      mul\n      dup4\n      mstore\n      swap2\n      0x20\n      add\n      swap2\n      jump(tag_131)\n    tag_132:\n      dup3\n      add\n      swap2\n      swap1\n      0x00\n      mstore\n      keccak256(0x00, 0x20)\n      swap1\n    tag_133:\n      dup2\n      sload\n      dup2\n      mstore\n      swap1\n      0x01\n      add\n      swap1\n      0x20\n      add\n      dup1\n      dup4\n      gt\n      tag_133\n      jumpi\n      dup3\n      swap1\n      sub\n      0x1f\n      and\n      dup3\n      add\n      swap2\n    tag_131:\n      pop\n      pop\n      pop\n      pop\n      pop\n      dup2\n      mstore\n      0x20\n      add\n      0x03\n      dup3\n      add\n      sload\n      dup2\n      mstore\n      0x20\n      add\n      0x04\n      dup3\n      add\n      sload\n      dup2\n      mstore\n      pop\n      pop\n      swap1\n      pop\n        /* \"contracts/Twitter.sol\":1525:1795  function getTweets(uint256 _i) public view returns (Tweet memory) {... */\n      swap2\n      swap1\n      pop\n      jump\t// out\n    tag_77:\n      pop\n      dup1\n      sload\n      0x00\n      dup3\n      sstore\n      0x05\n      mul\n      swap1\n      0x00\n      mstore\n      keccak256(0x00, 0x20)\n      swap1\n      dup2\n      add\n      swap1\n      tag_135\n      swap2\n      swap1\n      tag_136\n      jump\t// in\n    tag_135:\n      pop\n      jump\t// out\n    tag_121:\n      mload(0x40)\n      dup1\n      0xa0\n      add\n      0x40\n      mstore\n      dup1\n      0x00\n      dup2\n      mstore\n      0x20\n      add\n      and(0xffffffffffffffffffffffffffffffffffffffff, 0x00)\n      dup2\n      mstore\n      0x20\n      add\n      0x60\n      dup2\n      mstore\n      0x20\n      add\n      0x00\n      dup2\n      mstore\n      0x20\n      add\n      0x00\n      dup2\n      mstore\n      pop\n      swap1\n      jump\t// out\n    tag_136:\n    tag_137:\n      dup1\n      dup3\n      gt\n      iszero\n      tag_138\n      jumpi\n      0x00\n      dup1\n      dup3\n      add\n      0x00\n      swap1\n      sstore\n      0x01\n      dup3\n      add\n      exp(0x0100, 0x00)\n      dup2\n      sload\n      swap1\n      0xffffffffffffffffffffffffffffffffffffffff\n      mul\n      not\n      and\n      swap1\n      sstore\n      0x02\n      dup3\n      add\n      0x00\n      tag_139\n      swap2\n      swap1\n      tag_140\n      jump\t// in\n    tag_139:\n      0x03\n      dup3\n      add\n      0x00\n      swap1\n      sstore\n      0x04\n      dup3\n      add\n      0x00\n      swap1\n      sstore\n      pop\n      0x05\n      add\n      jump(tag_137)\n    tag_138:\n      pop\n      swap1\n      jump\t// out\n    tag_140:\n      pop\n      dup1\n      sload\n      tag_141\n      swap1\n      tag_61\n      jump\t// in\n    tag_141:\n      0x00\n      dup3\n      sstore\n      dup1\n      0x1f\n      lt\n      tag_143\n      jumpi\n      pop\n      jump(tag_142)\n    tag_143:\n      0x1f\n      add\n      0x20\n      swap1\n      div\n      swap1\n      0x00\n      mstore\n      keccak256(0x00, 0x20)\n      swap1\n      dup2\n      add\n      swap1\n      tag_144\n      swap2\n      swap1\n      tag_145\n      jump\t// in\n    tag_144:\n    tag_142:\n      pop\n      jump\t// out\n    tag_145:\n    tag_146:\n      dup1\n      dup3\n      gt\n      iszero\n      tag_147\n      jumpi\n      0x00\n      dup2\n      0x00\n      swap1\n      sstore\n      pop\n      0x01\n      add\n      jump(tag_146)\n    tag_147:\n      pop\n      swap1\n      jump\t// out\n        /* \"#utility.yul\":7:82   */\n    tag_148:\n        /* \"#utility.yul\":40:46   */\n      0x00\n        /* \"#utility.yul\":73:75   */\n      0x40\n        /* \"#utility.yul\":67:76   */\n      mload\n        /* \"#utility.yul\":57:76   */\n      swap1\n      pop\n        /* \"#utility.yul\":7:82   */\n      swap1\n      jump\t// out\n        /* \"#utility.yul\":88:205   */\n    tag_149:\n        /* \"#utility.yul\":197:198   */\n      0x00\n        /* \"#utility.yul\":194:195   */\n      dup1\n        /* \"#utility.yul\":187:199   */\n      revert\n        /* \"#utility.yul\":211:328   */\n    tag_150:\n        /* \"#utility.yul\":320:321   */\n      0x00\n        /* \"#utility.yul\":317:318   */\n      dup1\n        /* \"#utility.yul\":310:322   */\n      revert\n        /* \"#utility.yul\":334:460   */\n    tag_151:\n        /* \"#utility.yul\":371:378   */\n      0x00\n        /* \"#utility.yul\":411:453   */\n      0xffffffffffffffffffffffffffffffffffffffff\n        /* \"#utility.yul\":404:409   */\n      dup3\n        /* \"#utility.yul\":400:454   */\n      and\n        /* \"#utility.yul\":389:454   */\n      swap1\n      pop\n        /* \"#utility.yul\":334:460   */\n      swap2\n      swap1\n      pop\n      jump\t// out\n        /* \"#utility.yul\":466:562   */\n    tag_152:\n        /* \"#utility.yul\":503:510   */\n      0x00\n        /* \"#utility.yul\":532:556   */\n      tag_223\n        /* \"#utility.yul\":550:555   */\n      dup3\n        /* \"#utility.yul\":532:556   */\n      tag_151\n      jump\t// in\n    tag_223:\n        /* \"#utility.yul\":521:556   */\n      swap1\n      pop\n        /* \"#utility.yul\":466:562   */\n      swap2\n      swap1\n      pop\n      jump\t// out\n        /* \"#utility.yul\":568:690   */\n    tag_153:\n        /* \"#utility.yul\":641:665   */\n      tag_225\n        /* \"#utility.yul\":659:664   */\n      dup2\n        /* \"#utility.yul\":641:665   */\n      tag_152\n      jump\t// in\n    tag_225:\n        /* \"#utility.yul\":634:639   */\n      dup2\n        /* \"#utility.yul\":631:666   */\n      eq\n        /* \"#utility.yul\":621:684   */\n      tag_226\n      jumpi\n        /* \"#utility.yul\":680:681   */\n      0x00\n        /* \"#utility.yul\":677:678   */\n      dup1\n        /* \"#utility.yul\":670:682   */\n      revert\n        /* \"#utility.yul\":621:684   */\n    tag_226:\n        /* \"#utility.yul\":568:690   */\n      pop\n      jump\t// out\n        /* \"#utility.yul\":696:835   */\n    tag_154:\n        /* \"#utility.yul\":742:747   */\n      0x00\n        /* \"#utility.yul\":780:786   */\n      dup2\n        /* \"#utility.yul\":767:787   */\n      calldataload\n        /* \"#utility.yul\":758:787   */\n      swap1\n      pop\n        /* \"#utility.yul\":796:829   */\n      tag_228\n        /* \"#utility.yul\":823:828   */\n      dup2\n        /* \"#utility.yul\":796:829   */\n      tag_153\n      jump\t// in\n    tag_228:\n        /* \"#utility.yul\":696:835   */\n      swap3\n      swap2\n      pop\n      pop\n      jump\t// out\n        /* \"#utility.yul\":841:918   */\n    tag_155:\n        /* \"#utility.yul\":878:885   */\n      0x00\n        /* \"#utility.yul\":907:912   */\n      dup2\n        /* \"#utility.yul\":896:912   */\n      swap1\n      pop\n        /* \"#utility.yul\":841:918   */\n      swap2\n      swap1\n      pop\n      jump\t// out\n        /* \"#utility.yul\":924:1046   */\n    tag_156:\n        /* \"#utility.yul\":997:1021   */\n      tag_231\n        /* \"#utility.yul\":1015:1020   */\n      dup2\n        /* \"#utility.yul\":997:1021   */\n      tag_155\n      jump\t// in\n    tag_231:\n        /* \"#utility.yul\":990:995   */\n      dup2\n        /* \"#utility.yul\":987:1022   */\n      eq\n        /* \"#utility.yul\":977:1040   */\n      tag_232\n      jumpi\n        /* \"#utility.yul\":1036:1037   */\n      0x00\n        /* \"#utility.yul\":1033:1034   */\n      dup1\n        /* \"#utility.yul\":1026:1038   */\n      revert\n        /* \"#utility.yul\":977:1040   */\n    tag_232:\n        /* \"#utility.yul\":924:1046   */\n      pop\n      jump\t// out\n        /* \"#utility.yul\":1052:1191   */\n    tag_157:\n        /* \"#utility.yul\":1098:1103   */\n      0x00\n        /* \"#utility.yul\":1136:1142   */\n      dup2\n        /* \"#utility.yul\":1123:1143   */\n      calldataload\n        /* \"#utility.yul\":1114:1143   */\n      swap1\n      pop\n        /* \"#utility.yul\":1152:1185   */\n      tag_234\n        /* \"#utility.yul\":1179:1184   */\n      dup2\n        /* \"#utility.yul\":1152:1185   */\n      tag_156\n      jump\t// in\n    tag_234:\n        /* \"#utility.yul\":1052:1191   */\n      swap3\n      swap2\n      pop\n      pop\n      jump\t// out\n        /* \"#utility.yul\":1197:1671   */\n    tag_16:\n        /* \"#utility.yul\":1265:1271   */\n      0x00\n        /* \"#utility.yul\":1273:1279   */\n      dup1\n        /* \"#utility.yul\":1322:1324   */\n      0x40\n        /* \"#utility.yul\":1310:1319   */\n      dup4\n        /* \"#utility.yul\":1301:1308   */\n      dup6\n        /* \"#utility.yul\":1297:1320   */\n      sub\n        /* \"#utility.yul\":1293:1325   */\n      slt\n        /* \"#utility.yul\":1290:1409   */\n      iszero\n      tag_236\n      jumpi\n        /* \"#utility.yul\":1328:1407   */\n      tag_237\n      tag_149\n      jump\t// in\n    tag_237:\n        /* \"#utility.yul\":1290:1409   */\n    tag_236:\n        /* \"#utility.yul\":1448:1449   */\n      0x00\n        /* \"#utility.yul\":1473:1526   */\n      tag_238\n        /* \"#utility.yul\":1518:1525   */\n      dup6\n        /* \"#utility.yul\":1509:1515   */\n      dup3\n        /* \"#utility.yul\":1498:1507   */\n      dup7\n        /* \"#utility.yul\":1494:1516   */\n      add\n        /* \"#utility.yul\":1473:1526   */\n      tag_154\n      jump\t// in\n    tag_238:\n        /* \"#utility.yul\":1463:1526   */\n      swap3\n      pop\n        /* \"#utility.yul\":1419:1536   */\n      pop\n        /* \"#utility.yul\":1575:1577   */\n      0x20\n        /* \"#utility.yul\":1601:1654   */\n      tag_239\n        /* \"#utility.yul\":1646:1653   */\n      dup6\n        /* \"#utility.yul\":1637:1643   */\n      dup3\n        /* \"#utility.yul\":1626:1635   */\n      dup7\n        /* \"#utility.yul\":1622:1644   */\n      add\n        /* \"#utility.yul\":1601:1654   */\n      tag_157\n      jump\t// in\n    tag_239:\n        /* \"#utility.yul\":1591:1654   */\n      swap2\n      pop\n        /* \"#utility.yul\":1546:1664   */\n      pop\n        /* \"#utility.yul\":1197:1671   */\n      swap3\n      pop\n      swap3\n      swap1\n      pop\n      jump\t// out\n        /* \"#utility.yul\":1677:1795   */\n    tag_158:\n        /* \"#utility.yul\":1764:1788   */\n      tag_241\n        /* \"#utility.yul\":1782:1787   */\n      dup2\n        /* \"#utility.yul\":1764:1788   */\n      tag_155\n      jump\t// in\n    tag_241:\n        /* \"#utility.yul\":1759:1762   */\n      dup3\n        /* \"#utility.yul\":1752:1789   */\n      mstore\n        /* \"#utility.yul\":1677:1795   */\n      pop\n      pop\n      jump\t// out\n        /* \"#utility.yul\":1801:1919   */\n    tag_159:\n        /* \"#utility.yul\":1888:1912   */\n      tag_243\n        /* \"#utility.yul\":1906:1911   */\n      dup2\n        /* \"#utility.yul\":1888:1912   */\n      tag_152\n      jump\t// in\n    tag_243:\n        /* \"#utility.yul\":1883:1886   */\n      dup3\n        /* \"#utility.yul\":1876:1913   */\n      mstore\n        /* \"#utility.yul\":1801:1919   */\n      pop\n      pop\n      jump\t// out\n        /* \"#utility.yul\":1925:2024   */\n    tag_160:\n        /* \"#utility.yul\":1977:1983   */\n      0x00\n        /* \"#utility.yul\":2011:2016   */\n      dup2\n        /* \"#utility.yul\":2005:2017   */\n      mload\n        /* \"#utility.yul\":1995:2017   */\n      swap1\n      pop\n        /* \"#utility.yul\":1925:2024   */\n      swap2\n      swap1\n      pop\n      jump\t// out\n        /* \"#utility.yul\":2030:2199   */\n    tag_161:\n        /* \"#utility.yul\":2114:2125   */\n      0x00\n        /* \"#utility.yul\":2148:2154   */\n      dup3\n        /* \"#utility.yul\":2143:2146   */\n      dup3\n        /* \"#utility.yul\":2136:2155   */\n      mstore\n        /* \"#utility.yul\":2188:2192   */\n      0x20\n        /* \"#utility.yul\":2183:2186   */\n      dup3\n        /* \"#utility.yul\":2179:2193   */\n      add\n        /* \"#utility.yul\":2164:2193   */\n      swap1\n      pop\n        /* \"#utility.yul\":2030:2199   */\n      swap3\n      swap2\n      pop\n      pop\n      jump\t// out\n        /* \"#utility.yul\":2205:2344   */\n    tag_162:\n        /* \"#utility.yul\":2294:2300   */\n      dup3\n        /* \"#utility.yul\":2289:2292   */\n      dup2\n        /* \"#utility.yul\":2284:2287   */\n      dup4\n        /* \"#utility.yul\":2278:2301   */\n      mcopy\n        /* \"#utility.yul\":2335:2336   */\n      0x00\n        /* \"#utility.yul\":2326:2332   */\n      dup4\n        /* \"#utility.yul\":2321:2324   */\n      dup4\n        /* \"#utility.yul\":2317:2333   */\n      add\n        /* \"#utility.yul\":2310:2337   */\n      mstore\n        /* \"#utility.yul\":2205:2344   */\n      pop\n      pop\n      pop\n      jump\t// out\n        /* \"#utility.yul\":2350:2452   */\n    tag_163:\n        /* \"#utility.yul\":2391:2397   */\n      0x00\n        /* \"#utility.yul\":2442:2444   */\n      0x1f\n        /* \"#utility.yul\":2438:2445   */\n      not\n        /* \"#utility.yul\":2433:2435   */\n      0x1f\n        /* \"#utility.yul\":2426:2431   */\n      dup4\n        /* \"#utility.yul\":2422:2436   */\n      add\n        /* \"#utility.yul\":2418:2446   */\n      and\n        /* \"#utility.yul\":2408:2446   */\n      swap1\n      pop\n        /* \"#utility.yul\":2350:2452   */\n      swap2\n      swap1\n      pop\n      jump\t// out\n        /* \"#utility.yul\":2458:2835   */\n    tag_164:\n        /* \"#utility.yul\":2546:2549   */\n      0x00\n        /* \"#utility.yul\":2574:2613   */\n      tag_249\n        /* \"#utility.yul\":2607:2612   */\n      dup3\n        /* \"#utility.yul\":2574:2613   */\n      tag_160\n      jump\t// in\n    tag_249:\n        /* \"#utility.yul\":2629:2700   */\n      tag_250\n        /* \"#utility.yul\":2693:2699   */\n      dup2\n        /* \"#utility.yul\":2688:2691   */\n      dup6\n        /* \"#utility.yul\":2629:2700   */\n      tag_161\n      jump\t// in\n    tag_250:\n        /* \"#utility.yul\":2622:2700   */\n      swap4\n      pop\n        /* \"#utility.yul\":2709:2774   */\n      tag_251\n        /* \"#utility.yul\":2767:2773   */\n      dup2\n        /* \"#utility.yul\":2762:2765   */\n      dup6\n        /* \"#utility.yul\":2755:2759   */\n      0x20\n        /* \"#utility.yul\":2748:2753   */\n      dup7\n        /* \"#utility.yul\":2744:2760   */\n      add\n        /* \"#utility.yul\":2709:2774   */\n      tag_162\n      jump\t// in\n    tag_251:\n        /* \"#utility.yul\":2799:2828   */\n      tag_252\n        /* \"#utility.yul\":2821:2827   */\n      dup2\n        /* \"#utility.yul\":2799:2828   */\n      tag_163\n      jump\t// in\n    tag_252:\n        /* \"#utility.yul\":2794:2797   */\n      dup5\n        /* \"#utility.yul\":2790:2829   */\n      add\n        /* \"#utility.yul\":2783:2829   */\n      swap2\n      pop\n        /* \"#utility.yul\":2550:2835   */\n      pop\n        /* \"#utility.yul\":2458:2835   */\n      swap3\n      swap2\n      pop\n      pop\n      jump\t// out\n        /* \"#utility.yul\":2841:3596   */\n    tag_19:\n        /* \"#utility.yul\":3066:3070   */\n      0x00\n        /* \"#utility.yul\":3104:3107   */\n      0xa0\n        /* \"#utility.yul\":3093:3102   */\n      dup3\n        /* \"#utility.yul\":3089:3108   */\n      add\n        /* \"#utility.yul\":3081:3108   */\n      swap1\n      pop\n        /* \"#utility.yul\":3118:3189   */\n      tag_254\n        /* \"#utility.yul\":3186:3187   */\n      0x00\n        /* \"#utility.yul\":3175:3184   */\n      dup4\n        /* \"#utility.yul\":3171:3188   */\n      add\n        /* \"#utility.yul\":3162:3168   */\n      dup9\n        /* \"#utility.yul\":3118:3189   */\n      tag_158\n      jump\t// in\n    tag_254:\n        /* \"#utility.yul\":3199:3271   */\n      tag_255\n        /* \"#utility.yul\":3267:3269   */\n      0x20\n        /* \"#utility.yul\":3256:3265   */\n      dup4\n        /* \"#utility.yul\":3252:3270   */\n      add\n        /* \"#utility.yul\":3243:3249   */\n      dup8\n        /* \"#utility.yul\":3199:3271   */\n      tag_159\n      jump\t// in\n    tag_255:\n        /* \"#utility.yul\":3318:3327   */\n      dup2\n        /* \"#utility.yul\":3312:3316   */\n      dup2\n        /* \"#utility.yul\":3308:3328   */\n      sub\n        /* \"#utility.yul\":3303:3305   */\n      0x40\n        /* \"#utility.yul\":3292:3301   */\n      dup4\n        /* \"#utility.yul\":3288:3306   */\n      add\n        /* \"#utility.yul\":3281:3329   */\n      mstore\n        /* \"#utility.yul\":3346:3424   */\n      tag_256\n        /* \"#utility.yul\":3419:3423   */\n      dup2\n        /* \"#utility.yul\":3410:3416   */\n      dup7\n        /* \"#utility.yul\":3346:3424   */\n      tag_164\n      jump\t// in\n    tag_256:\n        /* \"#utility.yul\":3338:3424   */\n      swap1\n      pop\n        /* \"#utility.yul\":3434:3506   */\n      tag_257\n        /* \"#utility.yul\":3502:3504   */\n      0x60\n        /* \"#utility.yul\":3491:3500   */\n      dup4\n        /* \"#utility.yul\":3487:3505   */\n      add\n        /* \"#utility.yul\":3478:3484   */\n      dup6\n        /* \"#utility.yul\":3434:3506   */\n      tag_158\n      jump\t// in\n    tag_257:\n        /* \"#utility.yul\":3516:3589   */\n      tag_258\n        /* \"#utility.yul\":3584:3587   */\n      0x80\n        /* \"#utility.yul\":3573:3582   */\n      dup4\n        /* \"#utility.yul\":3569:3588   */\n      add\n        /* \"#utility.yul\":3560:3566   */\n      dup5\n        /* \"#utility.yul\":3516:3589   */\n      tag_158\n      jump\t// in\n    tag_258:\n        /* \"#utility.yul\":2841:3596   */\n      swap7\n      swap6\n      pop\n      pop\n      pop\n      pop\n      pop\n      pop\n      jump\t// out\n        /* \"#utility.yul\":3602:3931   */\n    tag_22:\n        /* \"#utility.yul\":3661:3667   */\n      0x00\n        /* \"#utility.yul\":3710:3712   */\n      0x20\n        /* \"#utility.yul\":3698:3707   */\n      dup3\n        /* \"#utility.yul\":3689:3696   */\n      dup5\n        /* \"#utility.yul\":3685:3708   */\n      sub\n        /* \"#utility.yul\":3681:3713   */\n      slt\n        /* \"#utility.yul\":3678:3797   */\n      iszero\n      tag_260\n      jumpi\n        /* \"#utility.yul\":3716:3795   */\n      tag_261\n      tag_149\n      jump\t// in\n    tag_261:\n        /* \"#utility.yul\":3678:3797   */\n    tag_260:\n        /* \"#utility.yul\":3836:3837   */\n      0x00\n        /* \"#utility.yul\":3861:3914   */\n      tag_262\n        /* \"#utility.yul\":3906:3913   */\n      dup5\n        /* \"#utility.yul\":3897:3903   */\n      dup3\n        /* \"#utility.yul\":3886:3895   */\n      dup6\n        /* \"#utility.yul\":3882:3904   */\n      add\n        /* \"#utility.yul\":3861:3914   */\n      tag_154\n      jump\t// in\n    tag_262:\n        /* \"#utility.yul\":3851:3914   */\n      swap2\n      pop\n        /* \"#utility.yul\":3807:3924   */\n      pop\n        /* \"#utility.yul\":3602:3931   */\n      swap3\n      swap2\n      pop\n      pop\n      jump\t// out\n        /* \"#utility.yul\":3937:4072   */\n    tag_165:\n        /* \"#utility.yul\":4025:4031   */\n      0x00\n        /* \"#utility.yul\":4059:4064   */\n      dup2\n        /* \"#utility.yul\":4053:4065   */\n      mload\n        /* \"#utility.yul\":4043:4065   */\n      swap1\n      pop\n        /* \"#utility.yul\":3937:4072   */\n      swap2\n      swap1\n      pop\n      jump\t// out\n        /* \"#utility.yul\":4078:4283   */\n    tag_166:\n        /* \"#utility.yul\":4198:4209   */\n      0x00\n        /* \"#utility.yul\":4232:4238   */\n      dup3\n        /* \"#utility.yul\":4227:4230   */\n      dup3\n        /* \"#utility.yul\":4220:4239   */\n      mstore\n        /* \"#utility.yul\":4272:4276   */\n      0x20\n        /* \"#utility.yul\":4267:4270   */\n      dup3\n        /* \"#utility.yul\":4263:4277   */\n      add\n        /* \"#utility.yul\":4248:4277   */\n      swap1\n      pop\n        /* \"#utility.yul\":4078:4283   */\n      swap3\n      swap2\n      pop\n      pop\n      jump\t// out\n        /* \"#utility.yul\":4289:4442   */\n    tag_167:\n        /* \"#utility.yul\":4377:4381   */\n      0x00\n        /* \"#utility.yul\":4400:4403   */\n      dup2\n        /* \"#utility.yul\":4392:4403   */\n      swap1\n      pop\n        /* \"#utility.yul\":4430:4434   */\n      0x20\n        /* \"#utility.yul\":4425:4428   */\n      dup3\n        /* \"#utility.yul\":4421:4435   */\n      add\n        /* \"#utility.yul\":4413:4435   */\n      swap1\n      pop\n        /* \"#utility.yul\":4289:4442   */\n      swap2\n      swap1\n      pop\n      jump\t// out\n        /* \"#utility.yul\":4448:4556   */\n    tag_168:\n        /* \"#utility.yul\":4525:4549   */\n      tag_267\n        /* \"#utility.yul\":4543:4548   */\n      dup2\n        /* \"#utility.yul\":4525:4549   */\n      tag_155\n      jump\t// in\n    tag_267:\n        /* \"#utility.yul\":4520:4523   */\n      dup3\n        /* \"#utility.yul\":4513:4550   */\n      mstore\n        /* \"#utility.yul\":4448:4556   */\n      pop\n      pop\n      jump\t// out\n        /* \"#utility.yul\":4562:4670   */\n    tag_169:\n        /* \"#utility.yul\":4639:4663   */\n      tag_269\n        /* \"#utility.yul\":4657:4662   */\n      dup2\n        /* \"#utility.yul\":4639:4663   */\n      tag_152\n      jump\t// in\n    tag_269:\n        /* \"#utility.yul\":4634:4637   */\n      dup3\n        /* \"#utility.yul\":4627:4664   */\n      mstore\n        /* \"#utility.yul\":4562:4670   */\n      pop\n      pop\n      jump\t// out\n        /* \"#utility.yul\":4676:4835   */\n    tag_170:\n        /* \"#utility.yul\":4750:4761   */\n      0x00\n        /* \"#utility.yul\":4784:4790   */\n      dup3\n        /* \"#utility.yul\":4779:4782   */\n      dup3\n        /* \"#utility.yul\":4772:4791   */\n      mstore\n        /* \"#utility.yul\":4824:4828   */\n      0x20\n        /* \"#utility.yul\":4819:4822   */\n      dup3\n        /* \"#utility.yul\":4815:4829   */\n      add\n        /* \"#utility.yul\":4800:4829   */\n      swap1\n      pop\n        /* \"#utility.yul\":4676:4835   */\n      swap3\n      swap2\n      pop\n      pop\n      jump\t// out\n        /* \"#utility.yul\":4841:5198   */\n    tag_171:\n        /* \"#utility.yul\":4919:4922   */\n      0x00\n        /* \"#utility.yul\":4947:4986   */\n      tag_272\n        /* \"#utility.yul\":4980:4985   */\n      dup3\n        /* \"#utility.yul\":4947:4986   */\n      tag_160\n      jump\t// in\n    tag_272:\n        /* \"#utility.yul\":5002:5063   */\n      tag_273\n        /* \"#utility.yul\":5056:5062   */\n      dup2\n        /* \"#utility.yul\":5051:5054   */\n      dup6\n        /* \"#utility.yul\":5002:5063   */\n      tag_170\n      jump\t// in\n    tag_273:\n        /* \"#utility.yul\":4995:5063   */\n      swap4\n      pop\n        /* \"#utility.yul\":5072:5137   */\n      tag_274\n        /* \"#utility.yul\":5130:5136   */\n      dup2\n        /* \"#utility.yul\":5125:5128   */\n      dup6\n        /* \"#utility.yul\":5118:5122   */\n      0x20\n        /* \"#utility.yul\":5111:5116   */\n      dup7\n        /* \"#utility.yul\":5107:5123   */\n      add\n        /* \"#utility.yul\":5072:5137   */\n      tag_162\n      jump\t// in\n    tag_274:\n        /* \"#utility.yul\":5162:5191   */\n      tag_275\n        /* \"#utility.yul\":5184:5190   */\n      dup2\n        /* \"#utility.yul\":5162:5191   */\n      tag_163\n      jump\t// in\n    tag_275:\n        /* \"#utility.yul\":5157:5160   */\n      dup5\n        /* \"#utility.yul\":5153:5192   */\n      add\n        /* \"#utility.yul\":5146:5192   */\n      swap2\n      pop\n        /* \"#utility.yul\":4923:5198   */\n      pop\n        /* \"#utility.yul\":4841:5198   */\n      swap3\n      swap2\n      pop\n      pop\n      jump\t// out\n        /* \"#utility.yul\":5256:6375   */\n    tag_172:\n        /* \"#utility.yul\":5357:5360   */\n      0x00\n        /* \"#utility.yul\":5393:5397   */\n      0xa0\n        /* \"#utility.yul\":5388:5391   */\n      dup4\n        /* \"#utility.yul\":5384:5398   */\n      add\n        /* \"#utility.yul\":5478:5482   */\n      0x00\n        /* \"#utility.yul\":5471:5476   */\n      dup4\n        /* \"#utility.yul\":5467:5483   */\n      add\n        /* \"#utility.yul\":5461:5484   */\n      mload\n        /* \"#utility.yul\":5497:5560   */\n      tag_277\n        /* \"#utility.yul\":5554:5558   */\n      0x00\n        /* \"#utility.yul\":5549:5552   */\n      dup7\n        /* \"#utility.yul\":5545:5559   */\n      add\n        /* \"#utility.yul\":5531:5543   */\n      dup3\n        /* \"#utility.yul\":5497:5560   */\n      tag_168\n      jump\t// in\n    tag_277:\n        /* \"#utility.yul\":5408:5570   */\n      pop\n        /* \"#utility.yul\":5654:5658   */\n      0x20\n        /* \"#utility.yul\":5647:5652   */\n      dup4\n        /* \"#utility.yul\":5643:5659   */\n      add\n        /* \"#utility.yul\":5637:5660   */\n      mload\n        /* \"#utility.yul\":5673:5736   */\n      tag_278\n        /* \"#utility.yul\":5730:5734   */\n      0x20\n        /* \"#utility.yul\":5725:5728   */\n      dup7\n        /* \"#utility.yul\":5721:5735   */\n      add\n        /* \"#utility.yul\":5707:5719   */\n      dup3\n        /* \"#utility.yul\":5673:5736   */\n      tag_169\n      jump\t// in\n    tag_278:\n        /* \"#utility.yul\":5580:5746   */\n      pop\n        /* \"#utility.yul\":5831:5835   */\n      0x40\n        /* \"#utility.yul\":5824:5829   */\n      dup4\n        /* \"#utility.yul\":5820:5836   */\n      add\n        /* \"#utility.yul\":5814:5837   */\n      mload\n        /* \"#utility.yul\":5884:5887   */\n      dup5\n        /* \"#utility.yul\":5878:5882   */\n      dup3\n        /* \"#utility.yul\":5874:5888   */\n      sub\n        /* \"#utility.yul\":5867:5871   */\n      0x40\n        /* \"#utility.yul\":5862:5865   */\n      dup7\n        /* \"#utility.yul\":5858:5872   */\n      add\n        /* \"#utility.yul\":5851:5889   */\n      mstore\n        /* \"#utility.yul\":5910:5983   */\n      tag_279\n        /* \"#utility.yul\":5978:5982   */\n      dup3\n        /* \"#utility.yul\":5964:5976   */\n      dup3\n        /* \"#utility.yul\":5910:5983   */\n      tag_171\n      jump\t// in\n    tag_279:\n        /* \"#utility.yul\":5902:5983   */\n      swap2\n      pop\n        /* \"#utility.yul\":5756:5994   */\n      pop\n        /* \"#utility.yul\":6081:6085   */\n      0x60\n        /* \"#utility.yul\":6074:6079   */\n      dup4\n        /* \"#utility.yul\":6070:6086   */\n      add\n        /* \"#utility.yul\":6064:6087   */\n      mload\n        /* \"#utility.yul\":6100:6163   */\n      tag_280\n        /* \"#utility.yul\":6157:6161   */\n      0x60\n        /* \"#utility.yul\":6152:6155   */\n      dup7\n        /* \"#utility.yul\":6148:6162   */\n      add\n        /* \"#utility.yul\":6134:6146   */\n      dup3\n        /* \"#utility.yul\":6100:6163   */\n      tag_168\n      jump\t// in\n    tag_280:\n        /* \"#utility.yul\":6004:6173   */\n      pop\n        /* \"#utility.yul\":6256:6260   */\n      0x80\n        /* \"#utility.yul\":6249:6254   */\n      dup4\n        /* \"#utility.yul\":6245:6261   */\n      add\n        /* \"#utility.yul\":6239:6262   */\n      mload\n        /* \"#utility.yul\":6275:6338   */\n      tag_281\n        /* \"#utility.yul\":6332:6336   */\n      0x80\n        /* \"#utility.yul\":6327:6330   */\n      dup7\n        /* \"#utility.yul\":6323:6337   */\n      add\n        /* \"#utility.yul\":6309:6321   */\n      dup3\n        /* \"#utility.yul\":6275:6338   */\n      tag_168\n      jump\t// in\n    tag_281:\n        /* \"#utility.yul\":6183:6348   */\n      pop\n        /* \"#utility.yul\":6365:6369   */\n      dup1\n        /* \"#utility.yul\":6358:6369   */\n      swap2\n      pop\n        /* \"#utility.yul\":5362:6375   */\n      pop\n        /* \"#utility.yul\":5256:6375   */\n      swap3\n      swap2\n      pop\n      pop\n      jump\t// out\n        /* \"#utility.yul\":6381:6621   */\n    tag_173:\n        /* \"#utility.yul\":6492:6502   */\n      0x00\n        /* \"#utility.yul\":6527:6615   */\n      tag_283\n        /* \"#utility.yul\":6611:6614   */\n      dup4\n        /* \"#utility.yul\":6603:6609   */\n      dup4\n        /* \"#utility.yul\":6527:6615   */\n      tag_172\n      jump\t// in\n    tag_283:\n        /* \"#utility.yul\":6513:6615   */\n      swap1\n      pop\n        /* \"#utility.yul\":6381:6621   */\n      swap3\n      swap2\n      pop\n      pop\n      jump\t// out\n        /* \"#utility.yul\":6627:6761   */\n    tag_174:\n        /* \"#utility.yul\":6718:6722   */\n      0x00\n        /* \"#utility.yul\":6750:6754   */\n      0x20\n        /* \"#utility.yul\":6745:6748   */\n      dup3\n        /* \"#utility.yul\":6741:6755   */\n      add\n        /* \"#utility.yul\":6733:6755   */\n      swap1\n      pop\n        /* \"#utility.yul\":6627:6761   */\n      swap2\n      swap1\n      pop\n      jump\t// out\n        /* \"#utility.yul\":6823:7902   */\n    tag_175:\n        /* \"#utility.yul\":6984:6987   */\n      0x00\n        /* \"#utility.yul\":7013:7088   */\n      tag_286\n        /* \"#utility.yul\":7082:7087   */\n      dup3\n        /* \"#utility.yul\":7013:7088   */\n      tag_165\n      jump\t// in\n    tag_286:\n        /* \"#utility.yul\":7104:7211   */\n      tag_287\n        /* \"#utility.yul\":7204:7210   */\n      dup2\n        /* \"#utility.yul\":7199:7202   */\n      dup6\n        /* \"#utility.yul\":7104:7211   */\n      tag_166\n      jump\t// in\n    tag_287:\n        /* \"#utility.yul\":7097:7211   */\n      swap4\n      pop\n        /* \"#utility.yul\":7237:7240   */\n      dup4\n        /* \"#utility.yul\":7282:7286   */\n      0x20\n        /* \"#utility.yul\":7274:7280   */\n      dup3\n        /* \"#utility.yul\":7270:7287   */\n      mul\n        /* \"#utility.yul\":7265:7268   */\n      dup6\n        /* \"#utility.yul\":7261:7288   */\n      add\n        /* \"#utility.yul\":7312:7389   */\n      tag_288\n        /* \"#utility.yul\":7383:7388   */\n      dup6\n        /* \"#utility.yul\":7312:7389   */\n      tag_167\n      jump\t// in\n    tag_288:\n        /* \"#utility.yul\":7412:7419   */\n      dup1\n        /* \"#utility.yul\":7443:7444   */\n      0x00\n        /* \"#utility.yul\":7428:7857   */\n    tag_289:\n        /* \"#utility.yul\":7453:7459   */\n      dup6\n        /* \"#utility.yul\":7450:7451   */\n      dup2\n        /* \"#utility.yul\":7447:7460   */\n      lt\n        /* \"#utility.yul\":7428:7857   */\n      iszero\n      tag_291\n      jumpi\n        /* \"#utility.yul\":7524:7533   */\n      dup5\n        /* \"#utility.yul\":7518:7522   */\n      dup5\n        /* \"#utility.yul\":7514:7534   */\n      sub\n        /* \"#utility.yul\":7509:7512   */\n      dup10\n        /* \"#utility.yul\":7502:7535   */\n      mstore\n        /* \"#utility.yul\":7575:7581   */\n      dup2\n        /* \"#utility.yul\":7569:7582   */\n      mload\n        /* \"#utility.yul\":7603:7709   */\n      tag_292\n        /* \"#utility.yul\":7704:7708   */\n      dup6\n        /* \"#utility.yul\":7689:7702   */\n      dup3\n        /* \"#utility.yul\":7603:7709   */\n      tag_173\n      jump\t// in\n    tag_292:\n        /* \"#utility.yul\":7595:7709   */\n      swap5\n      pop\n        /* \"#utility.yul\":7732:7813   */\n      tag_293\n        /* \"#utility.yul\":7806:7812   */\n      dup4\n        /* \"#utility.yul\":7732:7813   */\n      tag_174\n      jump\t// in\n    tag_293:\n        /* \"#utility.yul\":7722:7813   */\n      swap3\n      pop\n        /* \"#utility.yul\":7842:7846   */\n      0x20\n        /* \"#utility.yul\":7837:7840   */\n      dup11\n        /* \"#utility.yul\":7833:7847   */\n      add\n        /* \"#utility.yul\":7826:7847   */\n      swap10\n      pop\n        /* \"#utility.yul\":7488:7857   */\n      pop\n        /* \"#utility.yul\":7475:7476   */\n      0x01\n        /* \"#utility.yul\":7472:7473   */\n      dup2\n        /* \"#utility.yul\":7468:7477   */\n      add\n        /* \"#utility.yul\":7463:7477   */\n      swap1\n      pop\n        /* \"#utility.yul\":7428:7857   */\n      jump(tag_289)\n    tag_291:\n        /* \"#utility.yul\":7432:7446   */\n      pop\n        /* \"#utility.yul\":7873:7877   */\n      dup3\n        /* \"#utility.yul\":7866:7877   */\n      swap8\n      pop\n        /* \"#utility.yul\":7893:7896   */\n      dup8\n        /* \"#utility.yul\":7886:7896   */\n      swap6\n      pop\n        /* \"#utility.yul\":6989:7902   */\n      pop\n      pop\n      pop\n      pop\n      pop\n        /* \"#utility.yul\":6823:7902   */\n      swap3\n      swap2\n      pop\n      pop\n      jump\t// out\n        /* \"#utility.yul\":7908:8365   */\n    tag_25:\n        /* \"#utility.yul\":8093:8097   */\n      0x00\n        /* \"#utility.yul\":8131:8133   */\n      0x20\n        /* \"#utility.yul\":8120:8129   */\n      dup3\n        /* \"#utility.yul\":8116:8134   */\n      add\n        /* \"#utility.yul\":8108:8134   */\n      swap1\n      pop\n        /* \"#utility.yul\":8180:8189   */\n      dup2\n        /* \"#utility.yul\":8174:8178   */\n      dup2\n        /* \"#utility.yul\":8170:8190   */\n      sub\n        /* \"#utility.yul\":8166:8167   */\n      0x00\n        /* \"#utility.yul\":8155:8164   */\n      dup4\n        /* \"#utility.yul\":8151:8168   */\n      add\n        /* \"#utility.yul\":8144:8191   */\n      mstore\n        /* \"#utility.yul\":8208:8358   */\n      tag_295\n        /* \"#utility.yul\":8353:8357   */\n      dup2\n        /* \"#utility.yul\":8344:8350   */\n      dup5\n        /* \"#utility.yul\":8208:8358   */\n      tag_175\n      jump\t// in\n    tag_295:\n        /* \"#utility.yul\":8200:8358   */\n      swap1\n      pop\n        /* \"#utility.yul\":7908:8365   */\n      swap3\n      swap2\n      pop\n      pop\n      jump\t// out\n        /* \"#utility.yul\":8371:8460   */\n    tag_176:\n        /* \"#utility.yul\":8407:8414   */\n      0x00\n        /* \"#utility.yul\":8447:8453   */\n      0xffff\n        /* \"#utility.yul\":8440:8445   */\n      dup3\n        /* \"#utility.yul\":8436:8454   */\n      and\n        /* \"#utility.yul\":8425:8454   */\n      swap1\n      pop\n        /* \"#utility.yul\":8371:8460   */\n      swap2\n      swap1\n      pop\n      jump\t// out\n        /* \"#utility.yul\":8466:8586   */\n    tag_177:\n        /* \"#utility.yul\":8538:8561   */\n      tag_298\n        /* \"#utility.yul\":8555:8560   */\n      dup2\n        /* \"#utility.yul\":8538:8561   */\n      tag_176\n      jump\t// in\n    tag_298:\n        /* \"#utility.yul\":8531:8536   */\n      dup2\n        /* \"#utility.yul\":8528:8562   */\n      eq\n        /* \"#utility.yul\":8518:8580   */\n      tag_299\n      jumpi\n        /* \"#utility.yul\":8576:8577   */\n      0x00\n        /* \"#utility.yul\":8573:8574   */\n      dup1\n        /* \"#utility.yul\":8566:8578   */\n      revert\n        /* \"#utility.yul\":8518:8580   */\n    tag_299:\n        /* \"#utility.yul\":8466:8586   */\n      pop\n      jump\t// out\n        /* \"#utility.yul\":8592:8729   */\n    tag_178:\n        /* \"#utility.yul\":8637:8642   */\n      0x00\n        /* \"#utility.yul\":8675:8681   */\n      dup2\n        /* \"#utility.yul\":8662:8682   */\n      calldataload\n        /* \"#utility.yul\":8653:8682   */\n      swap1\n      pop\n        /* \"#utility.yul\":8691:8723   */\n      tag_301\n        /* \"#utility.yul\":8717:8722   */\n      dup2\n        /* \"#utility.yul\":8691:8723   */\n      tag_177\n      jump\t// in\n    tag_301:\n        /* \"#utility.yul\":8592:8729   */\n      swap3\n      swap2\n      pop\n      pop\n      jump\t// out\n        /* \"#utility.yul\":8735:9062   */\n    tag_31:\n        /* \"#utility.yul\":8793:8799   */\n      0x00\n        /* \"#utility.yul\":8842:8844   */\n      0x20\n        /* \"#utility.yul\":8830:8839   */\n      dup3\n        /* \"#utility.yul\":8821:8828   */\n      dup5\n        /* \"#utility.yul\":8817:8840   */\n      sub\n        /* \"#utility.yul\":8813:8845   */\n      slt\n        /* \"#utility.yul\":8810:8929   */\n      iszero\n      tag_303\n      jumpi\n        /* \"#utility.yul\":8848:8927   */\n      tag_304\n      tag_149\n      jump\t// in\n    tag_304:\n        /* \"#utility.yul\":8810:8929   */\n    tag_303:\n        /* \"#utility.yul\":8968:8969   */\n      0x00\n        /* \"#utility.yul\":8993:9045   */\n      tag_305\n        /* \"#utility.yul\":9037:9044   */\n      dup5\n        /* \"#utility.yul\":9028:9034   */\n      dup3\n        /* \"#utility.yul\":9017:9026   */\n      dup6\n        /* \"#utility.yul\":9013:9035   */\n      add\n        /* \"#utility.yul\":8993:9045   */\n      tag_178\n      jump\t// in\n    tag_305:\n        /* \"#utility.yul\":8983:9045   */\n      swap2\n      pop\n        /* \"#utility.yul\":8939:9055   */\n      pop\n        /* \"#utility.yul\":8735:9062   */\n      swap3\n      swap2\n      pop\n      pop\n      jump\t// out\n        /* \"#utility.yul\":9068:9183   */\n    tag_179:\n        /* \"#utility.yul\":9153:9176   */\n      tag_307\n        /* \"#utility.yul\":9170:9175   */\n      dup2\n        /* \"#utility.yul\":9153:9176   */\n      tag_176\n      jump\t// in\n    tag_307:\n        /* \"#utility.yul\":9148:9151   */\n      dup3\n        /* \"#utility.yul\":9141:9177   */\n      mstore\n        /* \"#utility.yul\":9068:9183   */\n      pop\n      pop\n      jump\t// out\n        /* \"#utility.yul\":9189:9407   */\n    tag_36:\n        /* \"#utility.yul\":9280:9284   */\n      0x00\n        /* \"#utility.yul\":9318:9320   */\n      0x20\n        /* \"#utility.yul\":9307:9316   */\n      dup3\n        /* \"#utility.yul\":9303:9321   */\n      add\n        /* \"#utility.yul\":9295:9321   */\n      swap1\n      pop\n        /* \"#utility.yul\":9331:9400   */\n      tag_309\n        /* \"#utility.yul\":9397:9398   */\n      0x00\n        /* \"#utility.yul\":9386:9395   */\n      dup4\n        /* \"#utility.yul\":9382:9399   */\n      add\n        /* \"#utility.yul\":9373:9379   */\n      dup5\n        /* \"#utility.yul\":9331:9400   */\n      tag_179\n      jump\t// in\n    tag_309:\n        /* \"#utility.yul\":9189:9407   */\n      swap3\n      swap2\n      pop\n      pop\n      jump\t// out\n        /* \"#utility.yul\":9413:9530   */\n    tag_180:\n        /* \"#utility.yul\":9522:9523   */\n      0x00\n        /* \"#utility.yul\":9519:9520   */\n      dup1\n        /* \"#utility.yul\":9512:9524   */\n      revert\n        /* \"#utility.yul\":9536:9653   */\n    tag_181:\n        /* \"#utility.yul\":9645:9646   */\n      0x00\n        /* \"#utility.yul\":9642:9643   */\n      dup1\n        /* \"#utility.yul\":9635:9647   */\n      revert\n        /* \"#utility.yul\":9659:9839   */\n    tag_182:\n        /* \"#utility.yul\":9707:9784   */\n      0x4e487b7100000000000000000000000000000000000000000000000000000000\n        /* \"#utility.yul\":9704:9705   */\n      0x00\n        /* \"#utility.yul\":9697:9785   */\n      mstore\n        /* \"#utility.yul\":9804:9808   */\n      0x41\n        /* \"#utility.yul\":9801:9802   */\n      0x04\n        /* \"#utility.yul\":9794:9809   */\n      mstore\n        /* \"#utility.yul\":9828:9832   */\n      0x24\n        /* \"#utility.yul\":9825:9826   */\n      0x00\n        /* \"#utility.yul\":9818:9833   */\n      revert\n        /* \"#utility.yul\":9845:10126   */\n    tag_183:\n        /* \"#utility.yul\":9928:9955   */\n      tag_314\n        /* \"#utility.yul\":9950:9954   */\n      dup3\n        /* \"#utility.yul\":9928:9955   */\n      tag_163\n      jump\t// in\n    tag_314:\n        /* \"#utility.yul\":9920:9926   */\n      dup2\n        /* \"#utility.yul\":9916:9956   */\n      add\n        /* \"#utility.yul\":10058:10064   */\n      dup2\n        /* \"#utility.yul\":10046:10056   */\n      dup2\n        /* \"#utility.yul\":10043:10065   */\n      lt\n        /* \"#utility.yul\":10022:10040   */\n      0xffffffffffffffff\n        /* \"#utility.yul\":10010:10020   */\n      dup3\n        /* \"#utility.yul\":10007:10041   */\n      gt\n        /* \"#utility.yul\":10004:10066   */\n      or\n        /* \"#utility.yul\":10001:10089   */\n      iszero\n      tag_315\n      jumpi\n        /* \"#utility.yul\":10069:10087   */\n      tag_316\n      tag_182\n      jump\t// in\n    tag_316:\n        /* \"#utility.yul\":10001:10089   */\n    tag_315:\n        /* \"#utility.yul\":10109:10119   */\n      dup1\n        /* \"#utility.yul\":10105:10107   */\n      0x40\n        /* \"#utility.yul\":10098:10120   */\n      mstore\n        /* \"#utility.yul\":9888:10126   */\n      pop\n        /* \"#utility.yul\":9845:10126   */\n      pop\n      pop\n      jump\t// out\n        /* \"#utility.yul\":10132:10261   */\n    tag_184:\n        /* \"#utility.yul\":10166:10172   */\n      0x00\n        /* \"#utility.yul\":10193:10213   */\n      tag_318\n      tag_148\n      jump\t// in\n    tag_318:\n        /* \"#utility.yul\":10183:10213   */\n      swap1\n      pop\n        /* \"#utility.yul\":10222:10255   */\n      tag_319\n        /* \"#utility.yul\":10250:10254   */\n      dup3\n        /* \"#utility.yul\":10242:10248   */\n      dup3\n        /* \"#utility.yul\":10222:10255   */\n      tag_183\n      jump\t// in\n    tag_319:\n        /* \"#utility.yul\":10132:10261   */\n      swap2\n      swap1\n      pop\n      jump\t// out\n        /* \"#utility.yul\":10267:10575   */\n    tag_185:\n        /* \"#utility.yul\":10329:10333   */\n      0x00\n        /* \"#utility.yul\":10419:10437   */\n      0xffffffffffffffff\n        /* \"#utility.yul\":10411:10417   */\n      dup3\n        /* \"#utility.yul\":10408:10438   */\n      gt\n        /* \"#utility.yul\":10405:10461   */\n      iszero\n      tag_321\n      jumpi\n        /* \"#utility.yul\":10441:10459   */\n      tag_322\n      tag_182\n      jump\t// in\n    tag_322:\n        /* \"#utility.yul\":10405:10461   */\n    tag_321:\n        /* \"#utility.yul\":10479:10508   */\n      tag_323\n        /* \"#utility.yul\":10501:10507   */\n      dup3\n        /* \"#utility.yul\":10479:10508   */\n      tag_163\n      jump\t// in\n    tag_323:\n        /* \"#utility.yul\":10471:10508   */\n      swap1\n      pop\n        /* \"#utility.yul\":10563:10567   */\n      0x20\n        /* \"#utility.yul\":10557:10561   */\n      dup2\n        /* \"#utility.yul\":10553:10568   */\n      add\n        /* \"#utility.yul\":10545:10568   */\n      swap1\n      pop\n        /* \"#utility.yul\":10267:10575   */\n      swap2\n      swap1\n      pop\n      jump\t// out\n        /* \"#utility.yul\":10581:10729   */\n    tag_186:\n        /* \"#utility.yul\":10679:10685   */\n      dup3\n        /* \"#utility.yul\":10674:10677   */\n      dup2\n        /* \"#utility.yul\":10669:10672   */\n      dup4\n        /* \"#utility.yul\":10656:10686   */\n      calldatacopy\n        /* \"#utility.yul\":10720:10721   */\n      0x00\n        /* \"#utility.yul\":10711:10717   */\n      dup4\n        /* \"#utility.yul\":10706:10709   */\n      dup4\n        /* \"#utility.yul\":10702:10718   */\n      add\n        /* \"#utility.yul\":10695:10722   */\n      mstore\n        /* \"#utility.yul\":10581:10729   */\n      pop\n      pop\n      pop\n      jump\t// out\n        /* \"#utility.yul\":10735:11160   */\n    tag_187:\n        /* \"#utility.yul\":10813:10818   */\n      0x00\n        /* \"#utility.yul\":10838:10904   */\n      tag_326\n        /* \"#utility.yul\":10854:10903   */\n      tag_327\n        /* \"#utility.yul\":10896:10902   */\n      dup5\n        /* \"#utility.yul\":10854:10903   */\n      tag_185\n      jump\t// in\n    tag_327:\n        /* \"#utility.yul\":10838:10904   */\n      tag_184\n      jump\t// in\n    tag_326:\n        /* \"#utility.yul\":10829:10904   */\n      swap1\n      pop\n        /* \"#utility.yul\":10927:10933   */\n      dup3\n        /* \"#utility.yul\":10920:10925   */\n      dup2\n        /* \"#utility.yul\":10913:10934   */\n      mstore\n        /* \"#utility.yul\":10965:10969   */\n      0x20\n        /* \"#utility.yul\":10958:10963   */\n      dup2\n        /* \"#utility.yul\":10954:10970   */\n      add\n        /* \"#utility.yul\":11003:11006   */\n      dup5\n        /* \"#utility.yul\":10994:11000   */\n      dup5\n        /* \"#utility.yul\":10989:10992   */\n      dup5\n        /* \"#utility.yul\":10985:11001   */\n      add\n        /* \"#utility.yul\":10982:11007   */\n      gt\n        /* \"#utility.yul\":10979:11091   */\n      iszero\n      tag_328\n      jumpi\n        /* \"#utility.yul\":11010:11089   */\n      tag_329\n      tag_181\n      jump\t// in\n    tag_329:\n        /* \"#utility.yul\":10979:11091   */\n    tag_328:\n        /* \"#utility.yul\":11100:11154   */\n      tag_330\n        /* \"#utility.yul\":11147:11153   */\n      dup5\n        /* \"#utility.yul\":11142:11145   */\n      dup3\n        /* \"#utility.yul\":11137:11140   */\n      dup6\n        /* \"#utility.yul\":11100:11154   */\n      tag_186\n      jump\t// in\n    tag_330:\n        /* \"#utility.yul\":10819:11160   */\n      pop\n        /* \"#utility.yul\":10735:11160   */\n      swap4\n      swap3\n      pop\n      pop\n      pop\n      jump\t// out\n        /* \"#utility.yul\":11180:11520   */\n    tag_188:\n        /* \"#utility.yul\":11236:11241   */\n      0x00\n        /* \"#utility.yul\":11285:11288   */\n      dup3\n        /* \"#utility.yul\":11278:11282   */\n      0x1f\n        /* \"#utility.yul\":11270:11276   */\n      dup4\n        /* \"#utility.yul\":11266:11283   */\n      add\n        /* \"#utility.yul\":11262:11289   */\n      slt\n        /* \"#utility.yul\":11252:11374   */\n      tag_332\n      jumpi\n        /* \"#utility.yul\":11293:11372   */\n      tag_333\n      tag_180\n      jump\t// in\n    tag_333:\n        /* \"#utility.yul\":11252:11374   */\n    tag_332:\n        /* \"#utility.yul\":11410:11416   */\n      dup2\n        /* \"#utility.yul\":11397:11417   */\n      calldataload\n        /* \"#utility.yul\":11435:11514   */\n      tag_334\n        /* \"#utility.yul\":11510:11513   */\n      dup5\n        /* \"#utility.yul\":11502:11508   */\n      dup3\n        /* \"#utility.yul\":11495:11499   */\n      0x20\n        /* \"#utility.yul\":11487:11493   */\n      dup7\n        /* \"#utility.yul\":11483:11500   */\n      add\n        /* \"#utility.yul\":11435:11514   */\n      tag_187\n      jump\t// in\n    tag_334:\n        /* \"#utility.yul\":11426:11514   */\n      swap2\n      pop\n        /* \"#utility.yul\":11242:11520   */\n      pop\n        /* \"#utility.yul\":11180:11520   */\n      swap3\n      swap2\n      pop\n      pop\n      jump\t// out\n        /* \"#utility.yul\":11526:12035   */\n    tag_39:\n        /* \"#utility.yul\":11595:11601   */\n      0x00\n        /* \"#utility.yul\":11644:11646   */\n      0x20\n        /* \"#utility.yul\":11632:11641   */\n      dup3\n        /* \"#utility.yul\":11623:11630   */\n      dup5\n        /* \"#utility.yul\":11619:11642   */\n      sub\n        /* \"#utility.yul\":11615:11647   */\n      slt\n        /* \"#utility.yul\":11612:11731   */\n      iszero\n      tag_336\n      jumpi\n        /* \"#utility.yul\":11650:11729   */\n      tag_337\n      tag_149\n      jump\t// in\n    tag_337:\n        /* \"#utility.yul\":11612:11731   */\n    tag_336:\n        /* \"#utility.yul\":11798:11799   */\n      0x00\n        /* \"#utility.yul\":11787:11796   */\n      dup3\n        /* \"#utility.yul\":11783:11800   */\n      add\n        /* \"#utility.yul\":11770:11801   */\n      calldataload\n        /* \"#utility.yul\":11828:11846   */\n      0xffffffffffffffff\n        /* \"#utility.yul\":11820:11826   */\n      dup2\n        /* \"#utility.yul\":11817:11847   */\n      gt\n        /* \"#utility.yul\":11814:11931   */\n      iszero\n      tag_338\n      jumpi\n        /* \"#utility.yul\":11850:11929   */\n      tag_339\n      tag_150\n      jump\t// in\n    tag_339:\n        /* \"#utility.yul\":11814:11931   */\n    tag_338:\n        /* \"#utility.yul\":11955:12018   */\n      tag_340\n        /* \"#utility.yul\":12010:12017   */\n      dup5\n        /* \"#utility.yul\":12001:12007   */\n      dup3\n        /* \"#utility.yul\":11990:11999   */\n      dup6\n        /* \"#utility.yul\":11986:12008   */\n      add\n        /* \"#utility.yul\":11955:12018   */\n      tag_188\n      jump\t// in\n    tag_340:\n        /* \"#utility.yul\":11945:12018   */\n      swap2\n      pop\n        /* \"#utility.yul\":11741:12028   */\n      pop\n        /* \"#utility.yul\":11526:12035   */\n      swap3\n      swap2\n      pop\n      pop\n      jump\t// out\n        /* \"#utility.yul\":12041:12263   */\n    tag_44:\n        /* \"#utility.yul\":12134:12138   */\n      0x00\n        /* \"#utility.yul\":12172:12174   */\n      0x20\n        /* \"#utility.yul\":12161:12170   */\n      dup3\n        /* \"#utility.yul\":12157:12175   */\n      add\n        /* \"#utility.yul\":12149:12175   */\n      swap1\n      pop\n        /* \"#utility.yul\":12185:12256   */\n      tag_342\n        /* \"#utility.yul\":12253:12254   */\n      0x00\n        /* \"#utility.yul\":12242:12251   */\n      dup4\n        /* \"#utility.yul\":12238:12255   */\n      add\n        /* \"#utility.yul\":12229:12235   */\n      dup5\n        /* \"#utility.yul\":12185:12256   */\n      tag_159\n      jump\t// in\n    tag_342:\n        /* \"#utility.yul\":12041:12263   */\n      swap3\n      swap2\n      pop\n      pop\n      jump\t// out\n        /* \"#utility.yul\":12269:12743   */\n    tag_47:\n        /* \"#utility.yul\":12337:12343   */\n      0x00\n        /* \"#utility.yul\":12345:12351   */\n      dup1\n        /* \"#utility.yul\":12394:12396   */\n      0x40\n        /* \"#utility.yul\":12382:12391   */\n      dup4\n        /* \"#utility.yul\":12373:12380   */\n      dup6\n        /* \"#utility.yul\":12369:12392   */\n      sub\n        /* \"#utility.yul\":12365:12397   */\n      slt\n        /* \"#utility.yul\":12362:12481   */\n      iszero\n      tag_344\n      jumpi\n        /* \"#utility.yul\":12400:12479   */\n      tag_345\n      tag_149\n      jump\t// in\n    tag_345:\n        /* \"#utility.yul\":12362:12481   */\n    tag_344:\n        /* \"#utility.yul\":12520:12521   */\n      0x00\n        /* \"#utility.yul\":12545:12598   */\n      tag_346\n        /* \"#utility.yul\":12590:12597   */\n      dup6\n        /* \"#utility.yul\":12581:12587   */\n      dup3\n        /* \"#utility.yul\":12570:12579   */\n      dup7\n        /* \"#utility.yul\":12566:12588   */\n      add\n        /* \"#utility.yul\":12545:12598   */\n      tag_157\n      jump\t// in\n    tag_346:\n        /* \"#utility.yul\":12535:12598   */\n      swap3\n      pop\n        /* \"#utility.yul\":12491:12608   */\n      pop\n        /* \"#utility.yul\":12647:12649   */\n      0x20\n        /* \"#utility.yul\":12673:12726   */\n      tag_347\n        /* \"#utility.yul\":12718:12725   */\n      dup6\n        /* \"#utility.yul\":12709:12715   */\n      dup3\n        /* \"#utility.yul\":12698:12707   */\n      dup7\n        /* \"#utility.yul\":12694:12716   */\n      add\n        /* \"#utility.yul\":12673:12726   */\n      tag_154\n      jump\t// in\n    tag_347:\n        /* \"#utility.yul\":12663:12726   */\n      swap2\n      pop\n        /* \"#utility.yul\":12618:12736   */\n      pop\n        /* \"#utility.yul\":12269:12743   */\n      swap3\n      pop\n      swap3\n      swap1\n      pop\n      jump\t// out\n        /* \"#utility.yul\":12749:13078   */\n    tag_54:\n        /* \"#utility.yul\":12808:12814   */\n      0x00\n        /* \"#utility.yul\":12857:12859   */\n      0x20\n        /* \"#utility.yul\":12845:12854   */\n      dup3\n        /* \"#utility.yul\":12836:12843   */\n      dup5\n        /* \"#utility.yul\":12832:12855   */\n      sub\n        /* \"#utility.yul\":12828:12860   */\n      slt\n        /* \"#utility.yul\":12825:12944   */\n      iszero\n      tag_349\n      jumpi\n        /* \"#utility.yul\":12863:12942   */\n      tag_350\n      tag_149\n      jump\t// in\n    tag_350:\n        /* \"#utility.yul\":12825:12944   */\n    tag_349:\n        /* \"#utility.yul\":12983:12984   */\n      0x00\n        /* \"#utility.yul\":13008:13061   */\n      tag_351\n        /* \"#utility.yul\":13053:13060   */\n      dup5\n        /* \"#utility.yul\":13044:13050   */\n      dup3\n        /* \"#utility.yul\":13033:13042   */\n      dup6\n        /* \"#utility.yul\":13029:13051   */\n      add\n        /* \"#utility.yul\":13008:13061   */\n      tag_157\n      jump\t// in\n    tag_351:\n        /* \"#utility.yul\":12998:13061   */\n      swap2\n      pop\n        /* \"#utility.yul\":12954:13071   */\n      pop\n        /* \"#utility.yul\":12749:13078   */\n      swap3\n      swap2\n      pop\n      pop\n      jump\t// out\n        /* \"#utility.yul\":13136:14265   */\n    tag_189:\n        /* \"#utility.yul\":13247:13250   */\n      0x00\n        /* \"#utility.yul\":13283:13287   */\n      0xa0\n        /* \"#utility.yul\":13278:13281   */\n      dup4\n        /* \"#utility.yul\":13274:13288   */\n      add\n        /* \"#utility.yul\":13368:13372   */\n      0x00\n        /* \"#utility.yul\":13361:13366   */\n      dup4\n        /* \"#utility.yul\":13357:13373   */\n      add\n        /* \"#utility.yul\":13351:13374   */\n      mload\n        /* \"#utility.yul\":13387:13450   */\n      tag_353\n        /* \"#utility.yul\":13444:13448   */\n      0x00\n        /* \"#utility.yul\":13439:13442   */\n      dup7\n        /* \"#utility.yul\":13435:13449   */\n      add\n        /* \"#utility.yul\":13421:13433   */\n      dup3\n        /* \"#utility.yul\":13387:13450   */\n      tag_168\n      jump\t// in\n    tag_353:\n        /* \"#utility.yul\":13298:13460   */\n      pop\n        /* \"#utility.yul\":13544:13548   */\n      0x20\n        /* \"#utility.yul\":13537:13542   */\n      dup4\n        /* \"#utility.yul\":13533:13549   */\n      add\n        /* \"#utility.yul\":13527:13550   */\n      mload\n        /* \"#utility.yul\":13563:13626   */\n      tag_354\n        /* \"#utility.yul\":13620:13624   */\n      0x20\n        /* \"#utility.yul\":13615:13618   */\n      dup7\n        /* \"#utility.yul\":13611:13625   */\n      add\n        /* \"#utility.yul\":13597:13609   */\n      dup3\n        /* \"#utility.yul\":13563:13626   */\n      tag_169\n      jump\t// in\n    tag_354:\n        /* \"#utility.yul\":13470:13636   */\n      pop\n        /* \"#utility.yul\":13721:13725   */\n      0x40\n        /* \"#utility.yul\":13714:13719   */\n      dup4\n        /* \"#utility.yul\":13710:13726   */\n      add\n        /* \"#utility.yul\":13704:13727   */\n      mload\n        /* \"#utility.yul\":13774:13777   */\n      dup5\n        /* \"#utility.yul\":13768:13772   */\n      dup3\n        /* \"#utility.yul\":13764:13778   */\n      sub\n        /* \"#utility.yul\":13757:13761   */\n      0x40\n        /* \"#utility.yul\":13752:13755   */\n      dup7\n        /* \"#utility.yul\":13748:13762   */\n      add\n        /* \"#utility.yul\":13741:13779   */\n      mstore\n        /* \"#utility.yul\":13800:13873   */\n      tag_355\n        /* \"#utility.yul\":13868:13872   */\n      dup3\n        /* \"#utility.yul\":13854:13866   */\n      dup3\n        /* \"#utility.yul\":13800:13873   */\n      tag_171\n      jump\t// in\n    tag_355:\n        /* \"#utility.yul\":13792:13873   */\n      swap2\n      pop\n        /* \"#utility.yul\":13646:13884   */\n      pop\n        /* \"#utility.yul\":13971:13975   */\n      0x60\n        /* \"#utility.yul\":13964:13969   */\n      dup4\n        /* \"#utility.yul\":13960:13976   */\n      add\n        /* \"#utility.yul\":13954:13977   */\n      mload\n        /* \"#utility.yul\":13990:14053   */\n      tag_356\n        /* \"#utility.yul\":14047:14051   */\n      0x60\n        /* \"#utility.yul\":14042:14045   */\n      dup7\n        /* \"#utility.yul\":14038:14052   */\n      add\n        /* \"#utility.yul\":14024:14036   */\n      dup3\n        /* \"#utility.yul\":13990:14053   */\n      tag_168\n      jump\t// in\n    tag_356:\n        /* \"#utility.yul\":13894:14063   */\n      pop\n        /* \"#utility.yul\":14146:14150   */\n      0x80\n        /* \"#utility.yul\":14139:14144   */\n      dup4\n        /* \"#utility.yul\":14135:14151   */\n      add\n        /* \"#utility.yul\":14129:14152   */\n      mload\n        /* \"#utility.yul\":14165:14228   */\n      tag_357\n        /* \"#utility.yul\":14222:14226   */\n      0x80\n        /* \"#utility.yul\":14217:14220   */\n      dup7\n        /* \"#utility.yul\":14213:14227   */\n      add\n        /* \"#utility.yul\":14199:14211   */\n      dup3\n        /* \"#utility.yul\":14165:14228   */\n      tag_168\n      jump\t// in\n    tag_357:\n        /* \"#utility.yul\":14073:14238   */\n      pop\n        /* \"#utility.yul\":14255:14259   */\n      dup1\n        /* \"#utility.yul\":14248:14259   */\n      swap2\n      pop\n        /* \"#utility.yul\":13252:14265   */\n      pop\n        /* \"#utility.yul\":13136:14265   */\n      swap3\n      swap2\n      pop\n      pop\n      jump\t// out\n        /* \"#utility.yul\":14271:14628   */\n    tag_57:\n        /* \"#utility.yul\":14406:14410   */\n      0x00\n        /* \"#utility.yul\":14444:14446   */\n      0x20\n        /* \"#utility.yul\":14433:14442   */\n      dup3\n        /* \"#utility.yul\":14429:14447   */\n      add\n        /* \"#utility.yul\":14421:14447   */\n      swap1\n      pop\n        /* \"#utility.yul\":14493:14502   */\n      dup2\n        /* \"#utility.yul\":14487:14491   */\n      dup2\n        /* \"#utility.yul\":14483:14503   */\n      sub\n        /* \"#utility.yul\":14479:14480   */\n      0x00\n        /* \"#utility.yul\":14468:14477   */\n      dup4\n        /* \"#utility.yul\":14464:14481   */\n      add\n        /* \"#utility.yul\":14457:14504   */\n      mstore\n        /* \"#utility.yul\":14521:14621   */\n      tag_359\n        /* \"#utility.yul\":14616:14620   */\n      dup2\n        /* \"#utility.yul\":14607:14613   */\n      dup5\n        /* \"#utility.yul\":14521:14621   */\n      tag_189\n      jump\t// in\n    tag_359:\n        /* \"#utility.yul\":14513:14621   */\n      swap1\n      pop\n        /* \"#utility.yul\":14271:14628   */\n      swap3\n      swap2\n      pop\n      pop\n      jump\t// out\n        /* \"#utility.yul\":14634:14814   */\n    tag_190:\n        /* \"#utility.yul\":14682:14759   */\n      0x4e487b7100000000000000000000000000000000000000000000000000000000\n        /* \"#utility.yul\":14679:14680   */\n      0x00\n        /* \"#utility.yul\":14672:14760   */\n      mstore\n        /* \"#utility.yul\":14779:14783   */\n      0x22\n        /* \"#utility.yul\":14776:14777   */\n      0x04\n        /* \"#utility.yul\":14769:14784   */\n      mstore\n        /* \"#utility.yul\":14803:14807   */\n      0x24\n        /* \"#utility.yul\":14800:14801   */\n      0x00\n        /* \"#utility.yul\":14793:14808   */\n      revert\n        /* \"#utility.yul\":14820:15140   */\n    tag_61:\n        /* \"#utility.yul\":14864:14870   */\n      0x00\n        /* \"#utility.yul\":14901:14902   */\n      0x02\n        /* \"#utility.yul\":14895:14899   */\n      dup3\n        /* \"#utility.yul\":14891:14903   */\n      div\n        /* \"#utility.yul\":14881:14903   */\n      swap1\n      pop\n        /* \"#utility.yul\":14948:14949   */\n      0x01\n        /* \"#utility.yul\":14942:14946   */\n      dup3\n        /* \"#utility.yul\":14938:14950   */\n      and\n        /* \"#utility.yul\":14969:14987   */\n      dup1\n        /* \"#utility.yul\":14959:15040   */\n      tag_362\n      jumpi\n        /* \"#utility.yul\":15025:15029   */\n      0x7f\n        /* \"#utility.yul\":15017:15023   */\n      dup3\n        /* \"#utility.yul\":15013:15030   */\n      and\n        /* \"#utility.yul\":15003:15030   */\n      swap2\n      pop\n        /* \"#utility.yul\":14959:15040   */\n    tag_362:\n        /* \"#utility.yul\":15087:15089   */\n      0x20\n        /* \"#utility.yul\":15079:15085   */\n      dup3\n        /* \"#utility.yul\":15076:15090   */\n      lt\n        /* \"#utility.yul\":15056:15074   */\n      dup2\n        /* \"#utility.yul\":15053:15091   */\n      sub\n        /* \"#utility.yul\":15050:15134   */\n      tag_363\n      jumpi\n        /* \"#utility.yul\":15106:15124   */\n      tag_364\n      tag_190\n      jump\t// in\n    tag_364:\n        /* \"#utility.yul\":15050:15134   */\n    tag_363:\n        /* \"#utility.yul\":14871:15140   */\n      pop\n        /* \"#utility.yul\":14820:15140   */\n      swap2\n      swap1\n      pop\n      jump\t// out\n        /* \"#utility.yul\":15146:15319   */\n    tag_191:\n        /* \"#utility.yul\":15286:15311   */\n      0x594f5520415245204e4f5420544845204f574e45522121000000000000000000\n        /* \"#utility.yul\":15282:15283   */\n      0x00\n        /* \"#utility.yul\":15274:15280   */\n      dup3\n        /* \"#utility.yul\":15270:15284   */\n      add\n        /* \"#utility.yul\":15263:15312   */\n      mstore\n        /* \"#utility.yul\":15146:15319   */\n      pop\n      jump\t// out\n        /* \"#utility.yul\":15325:15691   */\n    tag_192:\n        /* \"#utility.yul\":15467:15470   */\n      0x00\n        /* \"#utility.yul\":15488:15555   */\n      tag_367\n        /* \"#utility.yul\":15552:15554   */\n      0x17\n        /* \"#utility.yul\":15547:15550   */\n      dup4\n        /* \"#utility.yul\":15488:15555   */\n      tag_161\n      jump\t// in\n    tag_367:\n        /* \"#utility.yul\":15481:15555   */\n      swap2\n      pop\n        /* \"#utility.yul\":15564:15657   */\n      tag_368\n        /* \"#utility.yul\":15653:15656   */\n      dup3\n        /* \"#utility.yul\":15564:15657   */\n      tag_191\n      jump\t// in\n    tag_368:\n        /* \"#utility.yul\":15682:15684   */\n      0x20\n        /* \"#utility.yul\":15677:15680   */\n      dup3\n        /* \"#utility.yul\":15673:15685   */\n      add\n        /* \"#utility.yul\":15666:15685   */\n      swap1\n      pop\n        /* \"#utility.yul\":15325:15691   */\n      swap2\n      swap1\n      pop\n      jump\t// out\n        /* \"#utility.yul\":15697:16116   */\n    tag_81:\n        /* \"#utility.yul\":15863:15867   */\n      0x00\n        /* \"#utility.yul\":15901:15903   */\n      0x20\n        /* \"#utility.yul\":15890:15899   */\n      dup3\n        /* \"#utility.yul\":15886:15904   */\n      add\n        /* \"#utility.yul\":15878:15904   */\n      swap1\n      pop\n        /* \"#utility.yul\":15950:15959   */\n      dup2\n        /* \"#utility.yul\":15944:15948   */\n      dup2\n        /* \"#utility.yul\":15940:15960   */\n      sub\n        /* \"#utility.yul\":15936:15937   */\n      0x00\n        /* \"#utility.yul\":15925:15934   */\n      dup4\n        /* \"#utility.yul\":15921:15938   */\n      add\n        /* \"#utility.yul\":15914:15961   */\n      mstore\n        /* \"#utility.yul\":15978:16109   */\n      tag_370\n        /* \"#utility.yul\":16104:16108   */\n      dup2\n        /* \"#utility.yul\":15978:16109   */\n      tag_192\n      jump\t// in\n    tag_370:\n        /* \"#utility.yul\":15970:16109   */\n      swap1\n      pop\n        /* \"#utility.yul\":15697:16116   */\n      swap2\n      swap1\n      pop\n      jump\t// out\n        /* \"#utility.yul\":16122:16345   */\n    tag_193:\n        /* \"#utility.yul\":16262:16296   */\n      0x547765657420697320746f206c6f6e672c206d61782032383020636861726163\n        /* \"#utility.yul\":16258:16259   */\n      0x00\n        /* \"#utility.yul\":16250:16256   */\n      dup3\n        /* \"#utility.yul\":16246:16260   */\n      add\n        /* \"#utility.yul\":16239:16297   */\n      mstore\n        /* \"#utility.yul\":16331:16337   */\n      0x7465727300000000000000000000000000000000000000000000000000000000\n        /* \"#utility.yul\":16326:16328   */\n      0x20\n        /* \"#utility.yul\":16318:16324   */\n      dup3\n        /* \"#utility.yul\":16314:16329   */\n      add\n        /* \"#utility.yul\":16307:16338   */\n      mstore\n        /* \"#utility.yul\":16122:16345   */\n      pop\n      jump\t// out\n        /* \"#utility.yul\":16351:16717   */\n    tag_194:\n        /* \"#utility.yul\":16493:16496   */\n      0x00\n        /* \"#utility.yul\":16514:16581   */\n      tag_373\n        /* \"#utility.yul\":16578:16580   */\n      0x24\n        /* \"#utility.yul\":16573:16576   */\n      dup4\n        /* \"#utility.yul\":16514:16581   */\n      tag_161\n      jump\t// in\n    tag_373:\n        /* \"#utility.yul\":16507:16581   */\n      swap2\n      pop\n        /* \"#utility.yul\":16590:16683   */\n      tag_374\n        /* \"#utility.yul\":16679:16682   */\n      dup3\n        /* \"#utility.yul\":16590:16683   */\n      tag_193\n      jump\t// in\n    tag_374:\n        /* \"#utility.yul\":16708:16710   */\n      0x40\n        /* \"#utility.yul\":16703:16706   */\n      dup3\n        /* \"#utility.yul\":16699:16711   */\n      add\n        /* \"#utility.yul\":16692:16711   */\n      swap1\n      pop\n        /* \"#utility.yul\":16351:16717   */\n      swap2\n      swap1\n      pop\n      jump\t// out\n        /* \"#utility.yul\":16723:17142   */\n    tag_86:\n        /* \"#utility.yul\":16889:16893   */\n      0x00\n        /* \"#utility.yul\":16927:16929   */\n      0x20\n        /* \"#utility.yul\":16916:16925   */\n      dup3\n        /* \"#utility.yul\":16912:16930   */\n      add\n        /* \"#utility.yul\":16904:16930   */\n      swap1\n      pop\n        /* \"#utility.yul\":16976:16985   */\n      dup2\n        /* \"#utility.yul\":16970:16974   */\n      dup2\n        /* \"#utility.yul\":16966:16986   */\n      sub\n        /* \"#utility.yul\":16962:16963   */\n      0x00\n        /* \"#utility.yul\":16951:16960   */\n      dup4\n        /* \"#utility.yul\":16947:16964   */\n      add\n        /* \"#utility.yul\":16940:16987   */\n      mstore\n        /* \"#utility.yul\":17004:17135   */\n      tag_376\n        /* \"#utility.yul\":17130:17134   */\n      dup2\n        /* \"#utility.yul\":17004:17135   */\n      tag_194\n      jump\t// in\n    tag_376:\n        /* \"#utility.yul\":16996:17135   */\n      swap1\n      pop\n        /* \"#utility.yul\":16723:17142   */\n      swap2\n      swap1\n      pop\n      jump\t// out\n        /* \"#utility.yul\":17148:17289   */\n    tag_195:\n        /* \"#utility.yul\":17197:17201   */\n      0x00\n        /* \"#utility.yul\":17220:17223   */\n      dup2\n        /* \"#utility.yul\":17212:17223   */\n      swap1\n      pop\n        /* \"#utility.yul\":17243:17246   */\n      dup2\n        /* \"#utility.yul\":17240:17241   */\n      0x00\n        /* \"#utility.yul\":17233:17247   */\n      mstore\n        /* \"#utility.yul\":17277:17281   */\n      0x20\n        /* \"#utility.yul\":17274:17275   */\n      0x00\n        /* \"#utility.yul\":17264:17282   */\n      keccak256\n        /* \"#utility.yul\":17256:17282   */\n      swap1\n      pop\n        /* \"#utility.yul\":17148:17289   */\n      swap2\n      swap1\n      pop\n      jump\t// out\n        /* \"#utility.yul\":17295:17388   */\n    tag_196:\n        /* \"#utility.yul\":17332:17338   */\n      0x00\n        /* \"#utility.yul\":17379:17381   */\n      0x20\n        /* \"#utility.yul\":17374:17376   */\n      0x1f\n        /* \"#utility.yul\":17367:17372   */\n      dup4\n        /* \"#utility.yul\":17363:17377   */\n      add\n        /* \"#utility.yul\":17359:17382   */\n      div\n        /* \"#utility.yul\":17349:17382   */\n      swap1\n      pop\n        /* \"#utility.yul\":17295:17388   */\n      swap2\n      swap1\n      pop\n      jump\t// out\n        /* \"#utility.yul\":17394:17501   */\n    tag_197:\n        /* \"#utility.yul\":17438:17446   */\n      0x00\n        /* \"#utility.yul\":17488:17493   */\n      dup3\n        /* \"#utility.yul\":17482:17486   */\n      dup3\n        /* \"#utility.yul\":17478:17494   */\n      shl\n        /* \"#utility.yul\":17457:17494   */\n      swap1\n      pop\n        /* \"#utility.yul\":17394:17501   */\n      swap3\n      swap2\n      pop\n      pop\n      jump\t// out\n        /* \"#utility.yul\":17507:17900   */\n    tag_198:\n        /* \"#utility.yul\":17576:17582   */\n      0x00\n        /* \"#utility.yul\":17626:17627   */\n      0x08\n        /* \"#utility.yul\":17614:17624   */\n      dup4\n        /* \"#utility.yul\":17610:17628   */\n      mul\n        /* \"#utility.yul\":17649:17746   */\n      tag_381\n        /* \"#utility.yul\":17679:17745   */\n      0xffffffffffffffffffffffffffffffffffffffffffffffffffffffffffffffff\n        /* \"#utility.yul\":17668:17677   */\n      dup3\n        /* \"#utility.yul\":17649:17746   */\n      tag_197\n      jump\t// in\n    tag_381:\n        /* \"#utility.yul\":17767:17806   */\n      tag_382\n        /* \"#utility.yul\":17797:17805   */\n      dup7\n        /* \"#utility.yul\":17786:17795   */\n      dup4\n        /* \"#utility.yul\":17767:17806   */\n      tag_197\n      jump\t// in\n    tag_382:\n        /* \"#utility.yul\":17755:17806   */\n      swap6\n      pop\n        /* \"#utility.yul\":17839:17843   */\n      dup1\n        /* \"#utility.yul\":17835:17844   */\n      not\n        /* \"#utility.yul\":17828:17833   */\n      dup5\n        /* \"#utility.yul\":17824:17845   */\n      and\n        /* \"#utility.yul\":17815:17845   */\n      swap4\n      pop\n        /* \"#utility.yul\":17888:17892   */\n      dup1\n        /* \"#utility.yul\":17878:17886   */\n      dup7\n        /* \"#utility.yul\":17874:17893   */\n      and\n        /* \"#utility.yul\":17867:17872   */\n      dup5\n        /* \"#utility.yul\":17864:17894   */\n      or\n        /* \"#utility.yul\":17854:17894   */\n      swap3\n      pop\n        /* \"#utility.yul\":17583:17900   */\n      pop\n      pop\n        /* \"#utility.yul\":17507:17900   */\n      swap4\n      swap3\n      pop\n      pop\n      pop\n      jump\t// out\n        /* \"#utility.yul\":17906:17966   */\n    tag_199:\n        /* \"#utility.yul\":17934:17937   */\n      0x00\n        /* \"#utility.yul\":17955:17960   */\n      dup2\n        /* \"#utility.yul\":17948:17960   */\n      swap1\n      pop\n        /* \"#utility.yul\":17906:17966   */\n      swap2\n      swap1\n      pop\n      jump\t// out\n        /* \"#utility.yul\":17972:18114   */\n    tag_200:\n        /* \"#utility.yul\":18022:18031   */\n      0x00\n        /* \"#utility.yul\":18055:18108   */\n      tag_385\n        /* \"#utility.yul\":18073:18107   */\n      tag_386\n        /* \"#utility.yul\":18082:18106   */\n      tag_387\n        /* \"#utility.yul\":18100:18105   */\n      dup5\n        /* \"#utility.yul\":18082:18106   */\n      tag_155\n      jump\t// in\n    tag_387:\n        /* \"#utility.yul\":18073:18107   */\n      tag_199\n      jump\t// in\n    tag_386:\n        /* \"#utility.yul\":18055:18108   */\n      tag_155\n      jump\t// in\n    tag_385:\n        /* \"#utility.yul\":18042:18108   */\n      swap1\n      pop\n        /* \"#utility.yul\":17972:18114   */\n      swap2\n      swap1\n      pop\n      jump\t// out\n        /* \"#utility.yul\":18120:18195   */\n    tag_201:\n        /* \"#utility.yul\":18163:18166   */\n      0x00\n        /* \"#utility.yul\":18184:18189   */\n      dup2\n        /* \"#utility.yul\":18177:18189   */\n      swap1\n      pop\n        /* \"#utility.yul\":18120:18195   */\n      swap2\n      swap1\n      pop\n      jump\t// out\n        /* \"#utility.yul\":18201:18470   */\n    tag_202:\n        /* \"#utility.yul\":18311:18350   */\n      tag_390\n        /* \"#utility.yul\":18342:18349   */\n      dup4\n        /* \"#utility.yul\":18311:18350   */\n      tag_200\n      jump\t// in\n    tag_390:\n        /* \"#utility.yul\":18372:18463   */\n      tag_391\n        /* \"#utility.yul\":18421:18462   */\n      tag_392\n        /* \"#utility.yul\":18445:18461   */\n      dup3\n        /* \"#utility.yul\":18421:18462   */\n      tag_201\n      jump\t// in\n    tag_392:\n        /* \"#utility.yul\":18413:18419   */\n      dup5\n        /* \"#utility.yul\":18406:18410   */\n      dup5\n        /* \"#utility.yul\":18400:18411   */\n      sload\n        /* \"#utility.yul\":18372:18463   */\n      tag_198\n      jump\t// in\n    tag_391:\n        /* \"#utility.yul\":18366:18370   */\n      dup3\n        /* \"#utility.yul\":18359:18464   */\n      sstore\n        /* \"#utility.yul\":18277:18470   */\n      pop\n        /* \"#utility.yul\":18201:18470   */\n      pop\n      pop\n      pop\n      jump\t// out\n        /* \"#utility.yul\":18476:18549   */\n    tag_203:\n        /* \"#utility.yul\":18521:18524   */\n      0x00\n        /* \"#utility.yul\":18476:18549   */\n      swap1\n      jump\t// out\n        /* \"#utility.yul\":18555:18744   */\n    tag_204:\n        /* \"#utility.yul\":18632:18664   */\n      tag_395\n      tag_203\n      jump\t// in\n    tag_395:\n        /* \"#utility.yul\":18673:18738   */\n      tag_396\n        /* \"#utility.yul\":18731:18737   */\n      dup2\n        /* \"#utility.yul\":18723:18729   */\n      dup5\n        /* \"#utility.yul\":18717:18721   */\n      dup5\n        /* \"#utility.yul\":18673:18738   */\n      tag_202\n      jump\t// in\n    tag_396:\n        /* \"#utility.yul\":18608:18744   */\n      pop\n        /* \"#utility.yul\":18555:18744   */\n      pop\n      pop\n      jump\t// out\n        /* \"#utility.yul\":18750:18936   */\n    tag_205:\n        /* \"#utility.yul\":18810:18930   */\n    tag_398:\n        /* \"#utility.yul\":18827:18830   */\n      dup2\n        /* \"#utility.yul\":18820:18825   */\n      dup2\n        /* \"#utility.yul\":18817:18831   */\n      lt\n        /* \"#utility.yul\":18810:18930   */\n      iszero\n      tag_400\n      jumpi\n        /* \"#utility.yul\":18881:18920   */\n      tag_401\n        /* \"#utility.yul\":18918:18919   */\n      0x00\n        /* \"#utility.yul\":18911:18916   */\n      dup3\n        /* \"#utility.yul\":18881:18920   */\n      tag_204\n      jump\t// in\n    tag_401:\n        /* \"#utility.yul\":18854:18855   */\n      0x01\n        /* \"#utility.yul\":18847:18852   */\n      dup2\n        /* \"#utility.yul\":18843:18856   */\n      add\n        /* \"#utility.yul\":18834:18856   */\n      swap1\n      pop\n        /* \"#utility.yul\":18810:18930   */\n      jump(tag_398)\n    tag_400:\n        /* \"#utility.yul\":18750:18936   */\n      pop\n      pop\n      jump\t// out\n        /* \"#utility.yul\":18942:19485   */\n    tag_206:\n        /* \"#utility.yul\":19043:19045   */\n      0x1f\n        /* \"#utility.yul\":19038:19041   */\n      dup3\n        /* \"#utility.yul\":19035:19046   */\n      gt\n        /* \"#utility.yul\":19032:19478   */\n      iszero\n      tag_403\n      jumpi\n        /* \"#utility.yul\":19077:19115   */\n      tag_404\n        /* \"#utility.yul\":19109:19114   */\n      dup2\n        /* \"#utility.yul\":19077:19115   */\n      tag_195\n      jump\t// in\n    tag_404:\n        /* \"#utility.yul\":19161:19190   */\n      tag_405\n        /* \"#utility.yul\":19179:19189   */\n      dup5\n        /* \"#utility.yul\":19161:19190   */\n      tag_196\n      jump\t// in\n    tag_405:\n        /* \"#utility.yul\":19151:19159   */\n      dup2\n        /* \"#utility.yul\":19147:19191   */\n      add\n        /* \"#utility.yul\":19344:19346   */\n      0x20\n        /* \"#utility.yul\":19332:19342   */\n      dup6\n        /* \"#utility.yul\":19329:19347   */\n      lt\n        /* \"#utility.yul\":19326:19375   */\n      iszero\n      tag_406\n      jumpi\n        /* \"#utility.yul\":19365:19373   */\n      dup2\n        /* \"#utility.yul\":19350:19373   */\n      swap1\n      pop\n        /* \"#utility.yul\":19326:19375   */\n    tag_406:\n        /* \"#utility.yul\":19388:19468   */\n      tag_407\n        /* \"#utility.yul\":19444:19466   */\n      tag_408\n        /* \"#utility.yul\":19462:19465   */\n      dup6\n        /* \"#utility.yul\":19444:19466   */\n      tag_196\n      jump\t// in\n    tag_408:\n        /* \"#utility.yul\":19434:19442   */\n      dup4\n        /* \"#utility.yul\":19430:19467   */\n      add\n        /* \"#utility.yul\":19417:19428   */\n      dup3\n        /* \"#utility.yul\":19388:19468   */\n      tag_205\n      jump\t// in\n    tag_407:\n        /* \"#utility.yul\":19047:19478   */\n      pop\n      pop\n        /* \"#utility.yul\":19032:19478   */\n    tag_403:\n        /* \"#utility.yul\":18942:19485   */\n      pop\n      pop\n      pop\n      jump\t// out\n        /* \"#utility.yul\":19491:19608   */\n    tag_207:\n        /* \"#utility.yul\":19545:19553   */\n      0x00\n        /* \"#utility.yul\":19595:19600   */\n      dup3\n        /* \"#utility.yul\":19589:19593   */\n      dup3\n        /* \"#utility.yul\":19585:19601   */\n      shr\n        /* \"#utility.yul\":19564:19601   */\n      swap1\n      pop\n        /* \"#utility.yul\":19491:19608   */\n      swap3\n      swap2\n      pop\n      pop\n      jump\t// out\n        /* \"#utility.yul\":19614:19783   */\n    tag_208:\n        /* \"#utility.yul\":19658:19664   */\n      0x00\n        /* \"#utility.yul\":19691:19742   */\n      tag_411\n        /* \"#utility.yul\":19739:19740   */\n      0x00\n        /* \"#utility.yul\":19735:19741   */\n      not\n        /* \"#utility.yul\":19727:19732   */\n      dup5\n        /* \"#utility.yul\":19724:19725   */\n      0x08\n        /* \"#utility.yul\":19720:19733   */\n      mul\n        /* \"#utility.yul\":19691:19742   */\n      tag_207\n      jump\t// in\n    tag_411:\n        /* \"#utility.yul\":19687:19743   */\n      not\n        /* \"#utility.yul\":19772:19776   */\n      dup1\n        /* \"#utility.yul\":19766:19770   */\n      dup4\n        /* \"#utility.yul\":19762:19777   */\n      and\n        /* \"#utility.yul\":19752:19777   */\n      swap2\n      pop\n        /* \"#utility.yul\":19665:19783   */\n      pop\n        /* \"#utility.yul\":19614:19783   */\n      swap3\n      swap2\n      pop\n      pop\n      jump\t// out\n        /* \"#utility.yul\":19788:20083   */\n    tag_209:\n        /* \"#utility.yul\":19864:19868   */\n      0x00\n        /* \"#utility.yul\":20010:20039   */\n      tag_413\n        /* \"#utility.yul\":20035:20038   */\n      dup4\n        /* \"#utility.yul\":20029:20033   */\n      dup4\n        /* \"#utility.yul\":20010:20039   */\n      tag_208\n      jump\t// in\n    tag_413:\n        /* \"#utility.yul\":20002:20039   */\n      swap2\n      pop\n        /* \"#utility.yul\":20072:20075   */\n      dup3\n        /* \"#utility.yul\":20069:20070   */\n      0x02\n        /* \"#utility.yul\":20065:20076   */\n      mul\n        /* \"#utility.yul\":20059:20063   */\n      dup3\n        /* \"#utility.yul\":20056:20077   */\n      or\n        /* \"#utility.yul\":20048:20077   */\n      swap1\n      pop\n        /* \"#utility.yul\":19788:20083   */\n      swap3\n      swap2\n      pop\n      pop\n      jump\t// out\n        /* \"#utility.yul\":20088:21483   */\n    tag_89:\n        /* \"#utility.yul\":20205:20242   */\n      tag_415\n        /* \"#utility.yul\":20238:20241   */\n      dup3\n        /* \"#utility.yul\":20205:20242   */\n      tag_160\n      jump\t// in\n    tag_415:\n        /* \"#utility.yul\":20307:20325   */\n      0xffffffffffffffff\n        /* \"#utility.yul\":20299:20305   */\n      dup2\n        /* \"#utility.yul\":20296:20326   */\n      gt\n        /* \"#utility.yul\":20293:20349   */\n      iszero\n      tag_416\n      jumpi\n        /* \"#utility.yul\":20329:20347   */\n      tag_417\n      tag_182\n      jump\t// in\n    tag_417:\n        /* \"#utility.yul\":20293:20349   */\n    tag_416:\n        /* \"#utility.yul\":20373:20411   */\n      tag_418\n        /* \"#utility.yul\":20405:20409   */\n      dup3\n        /* \"#utility.yul\":20399:20410   */\n      sload\n        /* \"#utility.yul\":20373:20411   */\n      tag_61\n      jump\t// in\n    tag_418:\n        /* \"#utility.yul\":20458:20525   */\n      tag_419\n        /* \"#utility.yul\":20518:20524   */\n      dup3\n        /* \"#utility.yul\":20510:20516   */\n      dup3\n        /* \"#utility.yul\":20504:20508   */\n      dup6\n        /* \"#utility.yul\":20458:20525   */\n      tag_206\n      jump\t// in\n    tag_419:\n        /* \"#utility.yul\":20552:20553   */\n      0x00\n        /* \"#utility.yul\":20576:20580   */\n      0x20\n        /* \"#utility.yul\":20563:20580   */\n      swap1\n      pop\n        /* \"#utility.yul\":20608:20610   */\n      0x1f\n        /* \"#utility.yul\":20600:20606   */\n      dup4\n        /* \"#utility.yul\":20597:20611   */\n      gt\n        /* \"#utility.yul\":20625:20626   */\n      0x01\n        /* \"#utility.yul\":20620:21238   */\n      dup2\n      eq\n      tag_421\n      jumpi\n        /* \"#utility.yul\":21282:21283   */\n      0x00\n        /* \"#utility.yul\":21299:21305   */\n      dup5\n        /* \"#utility.yul\":21296:21373   */\n      iszero\n      tag_422\n      jumpi\n        /* \"#utility.yul\":21348:21357   */\n      dup3\n        /* \"#utility.yul\":21343:21346   */\n      dup8\n        /* \"#utility.yul\":21339:21358   */\n      add\n        /* \"#utility.yul\":21333:21359   */\n      mload\n        /* \"#utility.yul\":21324:21359   */\n      swap1\n      pop\n        /* \"#utility.yul\":21296:21373   */\n    tag_422:\n        /* \"#utility.yul\":21399:21466   */\n      tag_423\n        /* \"#utility.yul\":21459:21465   */\n      dup6\n        /* \"#utility.yul\":21452:21457   */\n      dup3\n        /* \"#utility.yul\":21399:21466   */\n      tag_209\n      jump\t// in\n    tag_423:\n        /* \"#utility.yul\":21393:21397   */\n      dup7\n        /* \"#utility.yul\":21386:21467   */\n      sstore\n        /* \"#utility.yul\":21255:21477   */\n      pop\n        /* \"#utility.yul\":20590:21477   */\n      jump(tag_420)\n        /* \"#utility.yul\":20620:21238   */\n    tag_421:\n        /* \"#utility.yul\":20672:20676   */\n      0x1f\n        /* \"#utility.yul\":20668:20677   */\n      not\n        /* \"#utility.yul\":20660:20666   */\n      dup5\n        /* \"#utility.yul\":20656:20678   */\n      and\n        /* \"#utility.yul\":20706:20743   */\n      tag_424\n        /* \"#utility.yul\":20738:20742   */\n      dup7\n        /* \"#utility.yul\":20706:20743   */\n      tag_195\n      jump\t// in\n    tag_424:\n        /* \"#utility.yul\":20765:20766   */\n      0x00\n        /* \"#utility.yul\":20779:20987   */\n    tag_425:\n        /* \"#utility.yul\":20793:20800   */\n      dup3\n        /* \"#utility.yul\":20790:20791   */\n      dup2\n        /* \"#utility.yul\":20787:20801   */\n      lt\n        /* \"#utility.yul\":20779:20987   */\n      iszero\n      tag_427\n      jumpi\n        /* \"#utility.yul\":20872:20881   */\n      dup5\n        /* \"#utility.yul\":20867:20870   */\n      dup10\n        /* \"#utility.yul\":20863:20882   */\n      add\n        /* \"#utility.yul\":20857:20883   */\n      mload\n        /* \"#utility.yul\":20849:20855   */\n      dup3\n        /* \"#utility.yul\":20842:20884   */\n      sstore\n        /* \"#utility.yul\":20923:20924   */\n      0x01\n        /* \"#utility.yul\":20915:20921   */\n      dup3\n        /* \"#utility.yul\":20911:20925   */\n      add\n        /* \"#utility.yul\":20901:20925   */\n      swap2\n      pop\n        /* \"#utility.yul\":20970:20972   */\n      0x20\n        /* \"#utility.yul\":20959:20968   */\n      dup6\n        /* \"#utility.yul\":20955:20973   */\n      add\n        /* \"#utility.yul\":20942:20973   */\n      swap5\n      pop\n        /* \"#utility.yul\":20816:20820   */\n      0x20\n        /* \"#utility.yul\":20813:20814   */\n      dup2\n        /* \"#utility.yul\":20809:20821   */\n      add\n        /* \"#utility.yul\":20804:20821   */\n      swap1\n      pop\n        /* \"#utility.yul\":20779:20987   */\n      jump(tag_425)\n    tag_427:\n        /* \"#utility.yul\":21015:21021   */\n      dup7\n        /* \"#utility.yul\":21006:21013   */\n      dup4\n        /* \"#utility.yul\":21003:21022   */\n      lt\n        /* \"#utility.yul\":21000:21179   */\n      iszero\n      tag_428\n      jumpi\n        /* \"#utility.yul\":21073:21082   */\n      dup5\n        /* \"#utility.yul\":21068:21071   */\n      dup10\n        /* \"#utility.yul\":21064:21083   */\n      add\n        /* \"#utility.yul\":21058:21084   */\n      mload\n        /* \"#utility.yul\":21116:21164   */\n      tag_429\n        /* \"#utility.yul\":21158:21162   */\n      0x1f\n        /* \"#utility.yul\":21150:21156   */\n      dup10\n        /* \"#utility.yul\":21146:21163   */\n      and\n        /* \"#utility.yul\":21135:21144   */\n      dup3\n        /* \"#utility.yul\":21116:21164   */\n      tag_208\n      jump\t// in\n    tag_429:\n        /* \"#utility.yul\":21108:21114   */\n      dup4\n        /* \"#utility.yul\":21101:21165   */\n      sstore\n        /* \"#utility.yul\":21023:21179   */\n      pop\n        /* \"#utility.yul\":21000:21179   */\n    tag_428:\n        /* \"#utility.yul\":21225:21226   */\n      0x01\n        /* \"#utility.yul\":21221:21222   */\n      0x02\n        /* \"#utility.yul\":21213:21219   */\n      dup9\n        /* \"#utility.yul\":21209:21223   */\n      mul\n        /* \"#utility.yul\":21205:21227   */\n      add\n        /* \"#utility.yul\":21199:21203   */\n      dup9\n        /* \"#utility.yul\":21192:21228   */\n      sstore\n        /* \"#utility.yul\":20627:21238   */\n      pop\n      pop\n      pop\n        /* \"#utility.yul\":20590:21477   */\n    tag_420:\n      pop\n        /* \"#utility.yul\":20180:21483   */\n      pop\n      pop\n      pop\n        /* \"#utility.yul\":20088:21483   */\n      pop\n      pop\n      jump\t// out\n        /* \"#utility.yul\":21489:21669   */\n    tag_93:\n        /* \"#utility.yul\":21537:21614   */\n      0x4e487b7100000000000000000000000000000000000000000000000000000000\n        /* \"#utility.yul\":21534:21535   */\n      0x00\n        /* \"#utility.yul\":21527:21615   */\n      mstore\n        /* \"#utility.yul\":21634:21638   */\n      0x32\n        /* \"#utility.yul\":21631:21632   */\n      0x04\n        /* \"#utility.yul\":21624:21639   */\n      mstore\n        /* \"#utility.yul\":21658:21662   */\n      0x24\n        /* \"#utility.yul\":21655:21656   */\n      0x00\n        /* \"#utility.yul\":21648:21663   */\n      revert\n        /* \"#utility.yul\":21675:21845   */\n    tag_210:\n        /* \"#utility.yul\":21815:21837   */\n      0x545745455420444f4553204e4f54204558495354000000000000000000000000\n        /* \"#utility.yul\":21811:21812   */\n      0x00\n        /* \"#utility.yul\":21803:21809   */\n      dup3\n        /* \"#utility.yul\":21799:21813   */\n      add\n        /* \"#utility.yul\":21792:21838   */\n      mstore\n        /* \"#utility.yul\":21675:21845   */\n      pop\n      jump\t// out\n        /* \"#utility.yul\":21851:22217   */\n    tag_211:\n        /* \"#utility.yul\":21993:21996   */\n      0x00\n        /* \"#utility.yul\":22014:22081   */\n      tag_433\n        /* \"#utility.yul\":22078:22080   */\n      0x14\n        /* \"#utility.yul\":22073:22076   */\n      dup4\n        /* \"#utility.yul\":22014:22081   */\n      tag_161\n      jump\t// in\n    tag_433:\n        /* \"#utility.yul\":22007:22081   */\n      swap2\n      pop\n        /* \"#utility.yul\":22090:22183   */\n      tag_434\n        /* \"#utility.yul\":22179:22182   */\n      dup3\n        /* \"#utility.yul\":22090:22183   */\n      tag_210\n      jump\t// in\n    tag_434:\n        /* \"#utility.yul\":22208:22210   */\n      0x20\n        /* \"#utility.yul\":22203:22206   */\n      dup3\n        /* \"#utility.yul\":22199:22211   */\n      add\n        /* \"#utility.yul\":22192:22211   */\n      swap1\n      pop\n        /* \"#utility.yul\":21851:22217   */\n      swap2\n      swap1\n      pop\n      jump\t// out\n        /* \"#utility.yul\":22223:22642   */\n    tag_97:\n        /* \"#utility.yul\":22389:22393   */\n      0x00\n        /* \"#utility.yul\":22427:22429   */\n      0x20\n        /* \"#utility.yul\":22416:22425   */\n      dup3\n        /* \"#utility.yul\":22412:22430   */\n      add\n        /* \"#utility.yul\":22404:22430   */\n      swap1\n      pop\n        /* \"#utility.yul\":22476:22485   */\n      dup2\n        /* \"#utility.yul\":22470:22474   */\n      dup2\n        /* \"#utility.yul\":22466:22486   */\n      sub\n        /* \"#utility.yul\":22462:22463   */\n      0x00\n        /* \"#utility.yul\":22451:22460   */\n      dup4\n        /* \"#utility.yul\":22447:22464   */\n      add\n        /* \"#utility.yul\":22440:22487   */\n      mstore\n        /* \"#utility.yul\":22504:22635   */\n      tag_436\n        /* \"#utility.yul\":22630:22634   */\n      dup2\n        /* \"#utility.yul\":22504:22635   */\n      tag_211\n      jump\t// in\n    tag_436:\n        /* \"#utility.yul\":22496:22635   */\n      swap1\n      pop\n        /* \"#utility.yul\":22223:22642   */\n      swap2\n      swap1\n      pop\n      jump\t// out\n        /* \"#utility.yul\":22648:22818   */\n    tag_212:\n        /* \"#utility.yul\":22788:22810   */\n      0x545745455420444f4553204e4f54204c494b4544000000000000000000000000\n        /* \"#utility.yul\":22784:22785   */\n      0x00\n        /* \"#utility.yul\":22776:22782   */\n      dup3\n        /* \"#utility.yul\":22772:22786   */\n      add\n        /* \"#utility.yul\":22765:22811   */\n      mstore\n        /* \"#utility.yul\":22648:22818   */\n      pop\n      jump\t// out\n        /* \"#utility.yul\":22824:23190   */\n    tag_213:\n        /* \"#utility.yul\":22966:22969   */\n      0x00\n        /* \"#utility.yul\":22987:23054   */\n      tag_439\n        /* \"#utility.yul\":23051:23053   */\n      0x14\n        /* \"#utility.yul\":23046:23049   */\n      dup4\n        /* \"#utility.yul\":22987:23054   */\n      tag_161\n      jump\t// in\n    tag_439:\n        /* \"#utility.yul\":22980:23054   */\n      swap2\n      pop\n        /* \"#utility.yul\":23063:23156   */\n      tag_440\n        /* \"#utility.yul\":23152:23155   */\n      dup3\n        /* \"#utility.yul\":23063:23156   */\n      tag_212\n      jump\t// in\n    tag_440:\n        /* \"#utility.yul\":23181:23183   */\n      0x20\n        /* \"#utility.yul\":23176:23179   */\n      dup3\n        /* \"#utility.yul\":23172:23184   */\n      add\n        /* \"#utility.yul\":23165:23184   */\n      swap1\n      pop\n        /* \"#utility.yul\":22824:23190   */\n      swap2\n      swap1\n      pop\n      jump\t// out\n        /* \"#utility.yul\":23196:23615   */\n    tag_103:\n        /* \"#utility.yul\":23362:23366   */\n      0x00\n        /* \"#utility.yul\":23400:23402   */\n      0x20\n        /* \"#utility.yul\":23389:23398   */\n      dup3\n        /* \"#utility.yul\":23385:23403   */\n      add\n        /* \"#utility.yul\":23377:23403   */\n      swap1\n      pop\n        /* \"#utility.yul\":23449:23458   */\n      dup2\n        /* \"#utility.yul\":23443:23447   */\n      dup2\n        /* \"#utility.yul\":23439:23459   */\n      sub\n        /* \"#utility.yul\":23435:23436   */\n      0x00\n        /* \"#utility.yul\":23424:23433   */\n      dup4\n        /* \"#utility.yul\":23420:23437   */\n      add\n        /* \"#utility.yul\":23413:23460   */\n      mstore\n        /* \"#utility.yul\":23477:23608   */\n      tag_442\n        /* \"#utility.yul\":23603:23607   */\n      dup2\n        /* \"#utility.yul\":23477:23608   */\n      tag_213\n      jump\t// in\n    tag_442:\n        /* \"#utility.yul\":23469:23608   */\n      swap1\n      pop\n        /* \"#utility.yul\":23196:23615   */\n      swap2\n      swap1\n      pop\n      jump\t// out\n        /* \"#utility.yul\":23621:23801   */\n    tag_214:\n        /* \"#utility.yul\":23669:23746   */\n      0x4e487b7100000000000000000000000000000000000000000000000000000000\n        /* \"#utility.yul\":23666:23667   */\n      0x00\n        /* \"#utility.yul\":23659:23747   */\n      mstore\n        /* \"#utility.yul\":23766:23770   */\n      0x11\n        /* \"#utility.yul\":23763:23764   */\n      0x04\n        /* \"#utility.yul\":23756:23771   */\n      mstore\n        /* \"#utility.yul\":23790:23794   */\n      0x24\n        /* \"#utility.yul\":23787:23788   */\n      0x00\n        /* \"#utility.yul\":23780:23795   */\n      revert\n        /* \"#utility.yul\":23807:23978   */\n    tag_108:\n        /* \"#utility.yul\":23846:23849   */\n      0x00\n        /* \"#utility.yul\":23869:23893   */\n      tag_445\n        /* \"#utility.yul\":23887:23892   */\n      dup3\n        /* \"#utility.yul\":23869:23893   */\n      tag_155\n      jump\t// in\n    tag_445:\n        /* \"#utility.yul\":23860:23893   */\n      swap2\n      pop\n        /* \"#utility.yul\":23915:23919   */\n      0x00\n        /* \"#utility.yul\":23908:23913   */\n      dup3\n        /* \"#utility.yul\":23905:23920   */\n      sub\n        /* \"#utility.yul\":23902:23943   */\n      tag_446\n      jumpi\n        /* \"#utility.yul\":23923:23941   */\n      tag_447\n      tag_214\n      jump\t// in\n    tag_447:\n        /* \"#utility.yul\":23902:23943   */\n    tag_446:\n        /* \"#utility.yul\":23970:23971   */\n      0x01\n        /* \"#utility.yul\":23963:23968   */\n      dup3\n        /* \"#utility.yul\":23959:23972   */\n      sub\n        /* \"#utility.yul\":23952:23972   */\n      swap1\n      pop\n        /* \"#utility.yul\":23807:23978   */\n      swap2\n      swap1\n      pop\n      jump\t// out\n        /* \"#utility.yul\":23984:24217   */\n    tag_119:\n        /* \"#utility.yul\":24023:24026   */\n      0x00\n        /* \"#utility.yul\":24046:24070   */\n      tag_449\n        /* \"#utility.yul\":24064:24069   */\n      dup3\n        /* \"#utility.yul\":24046:24070   */\n      tag_155\n      jump\t// in\n    tag_449:\n        /* \"#utility.yul\":24037:24070   */\n      swap2\n      pop\n        /* \"#utility.yul\":24092:24158   */\n      0xffffffffffffffffffffffffffffffffffffffffffffffffffffffffffffffff\n        /* \"#utility.yul\":24085:24090   */\n      dup3\n        /* \"#utility.yul\":24082:24159   */\n      sub\n        /* \"#utility.yul\":24079:24182   */\n      tag_450\n      jumpi\n        /* \"#utility.yul\":24162:24180   */\n      tag_451\n      tag_214\n      jump\t// in\n    tag_451:\n        /* \"#utility.yul\":24079:24182   */\n    tag_450:\n        /* \"#utility.yul\":24209:24210   */\n      0x01\n        /* \"#utility.yul\":24202:24207   */\n      dup3\n        /* \"#utility.yul\":24198:24211   */\n      add\n        /* \"#utility.yul\":24191:24211   */\n      swap1\n      pop\n        /* \"#utility.yul\":23984:24217   */\n      swap2\n      swap1\n      pop\n      jump\t// out\n        /* \"#utility.yul\":24223:24392   */\n    tag_215:\n        /* \"#utility.yul\":24363:24384   */\n      0x496e76616c696420747765657420696e64657800000000000000000000000000\n        /* \"#utility.yul\":24359:24360   */\n      0x00\n        /* \"#utility.yul\":24351:24357   */\n      dup3\n        /* \"#utility.yul\":24347:24361   */\n      add\n        /* \"#utility.yul\":24340:24385   */\n      mstore\n        /* \"#utility.yul\":24223:24392   */\n      pop\n      jump\t// out\n        /* \"#utility.yul\":24398:24764   */\n    tag_216:\n        /* \"#utility.yul\":24540:24543   */\n      0x00\n        /* \"#utility.yul\":24561:24628   */\n      tag_454\n        /* \"#utility.yul\":24625:24627   */\n      0x13\n        /* \"#utility.yul\":24620:24623   */\n      dup4\n        /* \"#utility.yul\":24561:24628   */\n      tag_161\n      jump\t// in\n    tag_454:\n        /* \"#utility.yul\":24554:24628   */\n      swap2\n      pop\n        /* \"#utility.yul\":24637:24730   */\n      tag_455\n        /* \"#utility.yul\":24726:24729   */\n      dup3\n        /* \"#utility.yul\":24637:24730   */\n      tag_215\n      jump\t// in\n    tag_455:\n        /* \"#utility.yul\":24755:24757   */\n      0x20\n        /* \"#utility.yul\":24750:24753   */\n      dup3\n        /* \"#utility.yul\":24746:24758   */\n      add\n        /* \"#utility.yul\":24739:24758   */\n      swap1\n      pop\n        /* \"#utility.yul\":24398:24764   */\n      swap2\n      swap1\n      pop\n      jump\t// out\n        /* \"#utility.yul\":24770:25189   */\n    tag_125:\n        /* \"#utility.yul\":24936:24940   */\n      0x00\n        /* \"#utility.yul\":24974:24976   */\n      0x20\n        /* \"#utility.yul\":24963:24972   */\n      dup3\n        /* \"#utility.yul\":24959:24977   */\n      add\n        /* \"#utility.yul\":24951:24977   */\n      swap1\n      pop\n        /* \"#utility.yul\":25023:25032   */\n      dup2\n        /* \"#utility.yul\":25017:25021   */\n      dup2\n        /* \"#utility.yul\":25013:25033   */\n      sub\n        /* \"#utility.yul\":25009:25010   */\n      0x00\n        /* \"#utility.yul\":24998:25007   */\n      dup4\n        /* \"#utility.yul\":24994:25011   */\n      add\n        /* \"#utility.yul\":24987:25034   */\n      mstore\n        /* \"#utility.yul\":25051:25182   */\n      tag_457\n        /* \"#utility.yul\":25177:25181   */\n      dup2\n        /* \"#utility.yul\":25051:25182   */\n      tag_216\n      jump\t// in\n    tag_457:\n        /* \"#utility.yul\":25043:25182   */\n      swap1\n      pop\n        /* \"#utility.yul\":24770:25189   */\n      swap2\n      swap1\n      pop\n      jump\t// out\n\n    auxdata: 0xa2646970667358221220ac34ef57cad73afb337265ae57a4107fa69dc5edd3ded6a5294d72c24a20f9f364736f6c634300081a0033\n}\n",
				"bytecode": {
					"linkReferences": {},
					"object": "608060405261011860015f6101000a81548161ffff021916908361ffff160217905550348015602c575f80fd5b5033600160026101000a81548173ffffffffffffffffffffffffffffffffffffffff021916908373ffffffffffffffffffffffffffffffffffffffff1602179055506119f08061007b5f395ff3fe608060405234801561000f575f80fd5b506004361061009c575f3560e01c80637c9cd2bc116100645780637c9cd2bc1461015a5780638da5cb5b14610176578063a1488f7c14610194578063d04ddaa0146101b0578063ed9bb8d7146101cc5761009c565b806305a1b4a9146100a057806312e7ee1c146100d457806320f7e65c146101045780636d003c01146101205780636eb107971461013c575b5f80fd5b6100ba60048036038101906100b59190610de6565b6101fc565b6040516100cb959493929190610eb2565b60405180910390f35b6100ee60048036038101906100e99190610f0a565b6102ec565b6040516100fb91906110c9565b60405180910390f35b61011e60048036038101906101199190610f0a565b610486565b005b61013a60048036038101906101359190611120565b6104d0565b005b61014461057f565b604051610151919061115a565b60405180910390f35b610174600480360381019061016f919061129f565b610592565b005b61017e610749565b60405161018b91906112e6565b60405180910390f35b6101ae60048036038101906101a991906112ff565b61076f565b005b6101ca60048036038101906101c591906112ff565b610922565b005b6101e660048036038101906101e1919061133d565b610a36565b6040516101f391906113db565b60405180910390f35b5f602052815f5260405f208181548110610214575f80fd5b905f5260205f2090600502015f9150915050805f015490806001015f9054906101000a900473ffffffffffffffffffffffffffffffffffffffff169080600201805461025f90611428565b80601f016020809104026020016040519081016040528092919081815260200182805461028b90611428565b80156102d65780601f106102ad576101008083540402835291602001916102d6565b820191905f5260205f20905b8154815290600101906020018083116102b957829003601f168201915b5050505050908060030154908060040154905085565b60605f808373ffffffffffffffffffffffffffffffffffffffff1673ffffffffffffffffffffffffffffffffffffffff1681526020019081526020015f20805480602002602001604051908101604052809291908181526020015f905b8282101561047b578382905f5260205f2090600502016040518060a00160405290815f8201548152602001600182015f9054906101000a900473ffffffffffffffffffffffffffffffffffffffff1673ffffffffffffffffffffffffffffffffffffffff1673ffffffffffffffffffffffffffffffffffffffff1681526020016002820180546103d890611428565b80601f016020809104026020016040519081016040528092919081815260200182805461040490611428565b801561044f5780601f106104265761010080835404028352916020019161044f565b820191905f5260205f20905b81548152906001019060200180831161043257829003601f168201915b505050505081526020016003820154815260200160048201548152505081526020019060010190610349565b505050509050919050565b5f808273ffffffffffffffffffffffffffffffffffffffff1673ffffffffffffffffffffffffffffffffffffffff1681526020019081526020015f205f6104cd9190610c2e565b50565b3373ffffffffffffffffffffffffffffffffffffffff16600160029054906101000a900473ffffffffffffffffffffffffffffffffffffffff1673ffffffffffffffffffffffffffffffffffffffff1614610560576040517f08c379a0000000000000000000000000000000000000000000000000000000008152600401610557906114a2565b60405180910390fd5b8060015f6101000a81548161ffff021916908361ffff16021790555050565b60015f9054906101000a900461ffff1681565b60015f9054906101000a900461ffff1661ffff16815111156105e9576040517f08c379a00000000000000000000000000000000000000000000000000000000081526004016105e090611530565b60405180910390fd5b5f6040518060a001604052805f803373ffffffffffffffffffffffffffffffffffffffff1673ffffffffffffffffffffffffffffffffffffffff1681526020019081526020015f208054905081526020013373ffffffffffffffffffffffffffffffffffffffff1681526020018381526020014281526020015f81525090505f803373ffffffffffffffffffffffffffffffffffffffff1673ffffffffffffffffffffffffffffffffffffffff1681526020019081526020015f2081908060018154018082558091505060019003905f5260205f2090600502015f909190919091505f820151815f01556020820151816001015f6101000a81548173ffffffffffffffffffffffffffffffffffffffff021916908373ffffffffffffffffffffffffffffffffffffffff160217905550604082015181600201908161072e91906116eb565b50606082015181600301556080820151816004015550505050565b600160029054906101000a900473ffffffffffffffffffffffffffffffffffffffff1681565b815f808373ffffffffffffffffffffffffffffffffffffffff1673ffffffffffffffffffffffffffffffffffffffff1681526020019081526020015f2083815481106107be576107bd6117ba565b5b905f5260205f2090600502015f01541461080d576040517f08c379a000000000000000000000000000000000000000000000000000000000815260040161080490611831565b60405180910390fd5b5f805f8373ffffffffffffffffffffffffffffffffffffffff1673ffffffffffffffffffffffffffffffffffffffff1681526020019081526020015f20838154811061085c5761085b6117ba565b5b905f5260205f20906005020160040154116108ac576040517f08c379a00000000000000000000000000000000000000000000000000000000081526004016108a390611899565b60405180910390fd5b5f808273ffffffffffffffffffffffffffffffffffffffff1673ffffffffffffffffffffffffffffffffffffffff1681526020019081526020015f2082815481106108fa576108f96117ba565b5b905f5260205f2090600502016004015f815480929190610919906118e4565b91905055505050565b815f808373ffffffffffffffffffffffffffffffffffffffff1673ffffffffffffffffffffffffffffffffffffffff1681526020019081526020015f208381548110610971576109706117ba565b5b905f5260205f2090600502015f0154146109c0576040517f08c379a00000000000000000000000000000000000000000000000000000000081526004016109b790611831565b60405180910390fd5b5f808273ffffffffffffffffffffffffffffffffffffffff1673ffffffffffffffffffffffffffffffffffffffff1681526020019081526020015f208281548110610a0e57610a0d6117ba565b5b905f5260205f2090600502016004015f815480929190610a2d9061190b565b91905055505050565b610a3e610c4f565b5f803373ffffffffffffffffffffffffffffffffffffffff1673ffffffffffffffffffffffffffffffffffffffff1681526020019081526020015f2080549050821115610ac0576040517f08c379a0000000000000000000000000000000000000000000000000000000008152600401610ab79061199c565b60405180910390fd5b5f803373ffffffffffffffffffffffffffffffffffffffff1673ffffffffffffffffffffffffffffffffffffffff1681526020019081526020015f208281548110610b0e57610b0d6117ba565b5b905f5260205f2090600502016040518060a00160405290815f8201548152602001600182015f9054906101000a900473ffffffffffffffffffffffffffffffffffffffff1673ffffffffffffffffffffffffffffffffffffffff1673ffffffffffffffffffffffffffffffffffffffff168152602001600282018054610b9390611428565b80601f0160208091040260200160405190810160405280929190818152602001828054610bbf90611428565b8015610c0a5780601f10610be157610100808354040283529160200191610c0a565b820191905f5260205f20905b815481529060010190602001808311610bed57829003601f168201915b50505050508152602001600382015481526020016004820154815250509050919050565b5080545f8255600502905f5260205f2090810190610c4c9190610c90565b50565b6040518060a001604052805f81526020015f73ffffffffffffffffffffffffffffffffffffffff168152602001606081526020015f81526020015f81525090565b5b80821115610cec575f8082015f9055600182015f6101000a81549073ffffffffffffffffffffffffffffffffffffffff0219169055600282015f610cd59190610cf0565b600382015f9055600482015f905550600501610c91565b5090565b508054610cfc90611428565b5f825580601f10610d0d5750610d2a565b601f0160209004905f5260205f2090810190610d299190610d2d565b5b50565b5b80821115610d44575f815f905550600101610d2e565b5090565b5f604051905090565b5f80fd5b5f80fd5b5f73ffffffffffffffffffffffffffffffffffffffff82169050919050565b5f610d8282610d59565b9050919050565b610d9281610d78565b8114610d9c575f80fd5b50565b5f81359050610dad81610d89565b92915050565b5f819050919050565b610dc581610db3565b8114610dcf575f80fd5b50565b5f81359050610de081610dbc565b92915050565b5f8060408385031215610dfc57610dfb610d51565b5b5f610e0985828601610d9f565b9250506020610e1a85828601610dd2565b9150509250929050565b610e2d81610db3565b82525050565b610e3c81610d78565b82525050565b5f81519050919050565b5f82825260208201905092915050565b8281835e5f83830152505050565b5f601f19601f8301169050919050565b5f610e8482610e42565b610e8e8185610e4c565b9350610e9e818560208601610e5c565b610ea781610e6a565b840191505092915050565b5f60a082019050610ec55f830188610e24565b610ed26020830187610e33565b8181036040830152610ee48186610e7a565b9050610ef36060830185610e24565b610f006080830184610e24565b9695505050505050565b5f60208284031215610f1f57610f1e610d51565b5b5f610f2c84828501610d9f565b91505092915050565b5f81519050919050565b5f82825260208201905092915050565b5f819050602082019050919050565b610f6781610db3565b82525050565b610f7681610d78565b82525050565b5f82825260208201905092915050565b5f610f9682610e42565b610fa08185610f7c565b9350610fb0818560208601610e5c565b610fb981610e6a565b840191505092915050565b5f60a083015f830151610fd95f860182610f5e565b506020830151610fec6020860182610f6d565b50604083015184820360408601526110048282610f8c565b91505060608301516110196060860182610f5e565b50608083015161102c6080860182610f5e565b508091505092915050565b5f6110428383610fc4565b905092915050565b5f602082019050919050565b5f61106082610f35565b61106a8185610f3f565b93508360208202850161107c85610f4f565b805f5b858110156110b757848403895281516110988582611037565b94506110a38361104a565b925060208a0199505060018101905061107f565b50829750879550505050505092915050565b5f6020820190508181035f8301526110e18184611056565b905092915050565b5f61ffff82169050919050565b6110ff816110e9565b8114611109575f80fd5b50565b5f8135905061111a816110f6565b92915050565b5f6020828403121561113557611134610d51565b5b5f6111428482850161110c565b91505092915050565b611154816110e9565b82525050565b5f60208201905061116d5f83018461114b565b92915050565b5f80fd5b5f80fd5b7f4e487b71000000000000000000000000000000000000000000000000000000005f52604160045260245ffd5b6111b182610e6a565b810181811067ffffffffffffffff821117156111d0576111cf61117b565b5b80604052505050565b5f6111e2610d48565b90506111ee82826111a8565b919050565b5f67ffffffffffffffff82111561120d5761120c61117b565b5b61121682610e6a565b9050602081019050919050565b828183375f83830152505050565b5f61124361123e846111f3565b6111d9565b90508281526020810184848401111561125f5761125e611177565b5b61126a848285611223565b509392505050565b5f82601f83011261128657611285611173565b5b8135611296848260208601611231565b91505092915050565b5f602082840312156112b4576112b3610d51565b5b5f82013567ffffffffffffffff8111156112d1576112d0610d55565b5b6112dd84828501611272565b91505092915050565b5f6020820190506112f95f830184610e33565b92915050565b5f806040838503121561131557611314610d51565b5b5f61132285828601610dd2565b925050602061133385828601610d9f565b9150509250929050565b5f6020828403121561135257611351610d51565b5b5f61135f84828501610dd2565b91505092915050565b5f60a083015f83015161137d5f860182610f5e565b5060208301516113906020860182610f6d565b50604083015184820360408601526113a88282610f8c565b91505060608301516113bd6060860182610f5e565b5060808301516113d06080860182610f5e565b508091505092915050565b5f6020820190508181035f8301526113f38184611368565b905092915050565b7f4e487b71000000000000000000000000000000000000000000000000000000005f52602260045260245ffd5b5f600282049050600182168061143f57607f821691505b602082108103611452576114516113fb565b5b50919050565b7f594f5520415245204e4f5420544845204f574e455221210000000000000000005f82015250565b5f61148c601783610e4c565b915061149782611458565b602082019050919050565b5f6020820190508181035f8301526114b981611480565b9050919050565b7f547765657420697320746f206c6f6e672c206d617820323830206368617261635f8201527f7465727300000000000000000000000000000000000000000000000000000000602082015250565b5f61151a602483610e4c565b9150611525826114c0565b604082019050919050565b5f6020820190508181035f8301526115478161150e565b9050919050565b5f819050815f5260205f209050919050565b5f6020601f8301049050919050565b5f82821b905092915050565b5f600883026115aa7fffffffffffffffffffffffffffffffffffffffffffffffffffffffffffffffff8261156f565b6115b4868361156f565b95508019841693508086168417925050509392505050565b5f819050919050565b5f6115ef6115ea6115e584610db3565b6115cc565b610db3565b9050919050565b5f819050919050565b611608836115d5565b61161c611614826115f6565b84845461157b565b825550505050565b5f90565b611630611624565b61163b8184846115ff565b505050565b5b8181101561165e576116535f82611628565b600181019050611641565b5050565b601f8211156116a3576116748161154e565b61167d84611560565b8101602085101561168c578190505b6116a061169885611560565b830182611640565b50505b505050565b5f82821c905092915050565b5f6116c35f19846008026116a8565b1980831691505092915050565b5f6116db83836116b4565b9150826002028217905092915050565b6116f482610e42565b67ffffffffffffffff81111561170d5761170c61117b565b5b6117178254611428565b611722828285611662565b5f60209050601f831160018114611753575f8415611741578287015190505b61174b85826116d0565b8655506117b2565b601f1984166117618661154e565b5f5b8281101561178857848901518255600182019150602085019450602081019050611763565b868310156117a557848901516117a1601f8916826116b4565b8355505b6001600288020188555050505b505050505050565b7f4e487b71000000000000000000000000000000000000000000000000000000005f52603260045260245ffd5b7f545745455420444f4553204e4f542045584953540000000000000000000000005f82015250565b5f61181b601483610e4c565b9150611826826117e7565b602082019050919050565b5f6020820190508181035f8301526118488161180f565b9050919050565b7f545745455420444f4553204e4f54204c494b45440000000000000000000000005f82015250565b5f611883601483610e4c565b915061188e8261184f565b602082019050919050565b5f6020820190508181035f8301526118b081611877565b9050919050565b7f4e487b71000000000000000000000000000000000000000000000000000000005f52601160045260245ffd5b5f6118ee82610db3565b91505f8203611900576118ff6118b7565b5b600182039050919050565b5f61191582610db3565b91507fffffffffffffffffffffffffffffffffffffffffffffffffffffffffffffffff8203611947576119466118b7565b5b600182019050919050565b7f496e76616c696420747765657420696e646578000000000000000000000000005f82015250565b5f611986601383610e4c565b915061199182611952565b602082019050919050565b5f6020820190508181035f8301526119b38161197a565b905091905056fea2646970667358221220ac34ef57cad73afb337265ae57a4107fa69dc5edd3ded6a5294d72c24a20f9f364736f6c634300081a0033",
					"opcodes": "PUSH1 0x80 PUSH1 0x40 MSTORE PUSH2 0x118 PUSH1 0x1 PUSH0 PUSH2 0x100 EXP DUP2 SLOAD DUP2 PUSH2 0xFFFF MUL NOT AND SWAP1 DUP4 PUSH2 0xFFFF AND MUL OR SWAP1 SSTORE POP CALLVALUE DUP1 ISZERO PUSH1 0x2C JUMPI PUSH0 DUP1 REVERT JUMPDEST POP CALLER PUSH1 0x1 PUSH1 0x2 PUSH2 0x100 EXP DUP2 SLOAD DUP2 PUSH20 0xFFFFFFFFFFFFFFFFFFFFFFFFFFFFFFFFFFFFFFFF MUL NOT AND SWAP1 DUP4 PUSH20 0xFFFFFFFFFFFFFFFFFFFFFFFFFFFFFFFFFFFFFFFF AND MUL OR SWAP1 SSTORE POP PUSH2 0x19F0 DUP1 PUSH2 0x7B PUSH0 CODECOPY PUSH0 RETURN INVALID PUSH1 0x80 PUSH1 0x40 MSTORE CALLVALUE DUP1 ISZERO PUSH2 0xF JUMPI PUSH0 DUP1 REVERT JUMPDEST POP PUSH1 0x4 CALLDATASIZE LT PUSH2 0x9C JUMPI PUSH0 CALLDATALOAD PUSH1 0xE0 SHR DUP1 PUSH4 0x7C9CD2BC GT PUSH2 0x64 JUMPI DUP1 PUSH4 0x7C9CD2BC EQ PUSH2 0x15A JUMPI DUP1 PUSH4 0x8DA5CB5B EQ PUSH2 0x176 JUMPI DUP1 PUSH4 0xA1488F7C EQ PUSH2 0x194 JUMPI DUP1 PUSH4 0xD04DDAA0 EQ PUSH2 0x1B0 JUMPI DUP1 PUSH4 0xED9BB8D7 EQ PUSH2 0x1CC JUMPI PUSH2 0x9C JUMP JUMPDEST DUP1 PUSH4 0x5A1B4A9 EQ PUSH2 0xA0 JUMPI DUP1 PUSH4 0x12E7EE1C EQ PUSH2 0xD4 JUMPI DUP1 PUSH4 0x20F7E65C EQ PUSH2 0x104 JUMPI DUP1 PUSH4 0x6D003C01 EQ PUSH2 0x120 JUMPI DUP1 PUSH4 0x6EB10797 EQ PUSH2 0x13C JUMPI JUMPDEST PUSH0 DUP1 REVERT JUMPDEST PUSH2 0xBA PUSH1 0x4 DUP1 CALLDATASIZE SUB DUP2 ADD SWAP1 PUSH2 0xB5 SWAP2 SWAP1 PUSH2 0xDE6 JUMP JUMPDEST PUSH2 0x1FC JUMP JUMPDEST PUSH1 0x40 MLOAD PUSH2 0xCB SWAP6 SWAP5 SWAP4 SWAP3 SWAP2 SWAP1 PUSH2 0xEB2 JUMP JUMPDEST PUSH1 0x40 MLOAD DUP1 SWAP2 SUB SWAP1 RETURN JUMPDEST PUSH2 0xEE PUSH1 0x4 DUP1 CALLDATASIZE SUB DUP2 ADD SWAP1 PUSH2 0xE9 SWAP2 SWAP1 PUSH2 0xF0A JUMP JUMPDEST PUSH2 0x2EC JUMP JUMPDEST PUSH1 0x40 MLOAD PUSH2 0xFB SWAP2 SWAP1 PUSH2 0x10C9 JUMP JUMPDEST PUSH1 0x40 MLOAD DUP1 SWAP2 SUB SWAP1 RETURN JUMPDEST PUSH2 0x11E PUSH1 0x4 DUP1 CALLDATASIZE SUB DUP2 ADD SWAP1 PUSH2 0x119 SWAP2 SWAP1 PUSH2 0xF0A JUMP JUMPDEST PUSH2 0x486 JUMP JUMPDEST STOP JUMPDEST PUSH2 0x13A PUSH1 0x4 DUP1 CALLDATASIZE SUB DUP2 ADD SWAP1 PUSH2 0x135 SWAP2 SWAP1 PUSH2 0x1120 JUMP JUMPDEST PUSH2 0x4D0 JUMP JUMPDEST STOP JUMPDEST PUSH2 0x144 PUSH2 0x57F JUMP JUMPDEST PUSH1 0x40 MLOAD PUSH2 0x151 SWAP2 SWAP1 PUSH2 0x115A JUMP JUMPDEST PUSH1 0x40 MLOAD DUP1 SWAP2 SUB SWAP1 RETURN JUMPDEST PUSH2 0x174 PUSH1 0x4 DUP1 CALLDATASIZE SUB DUP2 ADD SWAP1 PUSH2 0x16F SWAP2 SWAP1 PUSH2 0x129F JUMP JUMPDEST PUSH2 0x592 JUMP JUMPDEST STOP JUMPDEST PUSH2 0x17E PUSH2 0x749 JUMP JUMPDEST PUSH1 0x40 MLOAD PUSH2 0x18B SWAP2 SWAP1 PUSH2 0x12E6 JUMP JUMPDEST PUSH1 0x40 MLOAD DUP1 SWAP2 SUB SWAP1 RETURN JUMPDEST PUSH2 0x1AE PUSH1 0x4 DUP1 CALLDATASIZE SUB DUP2 ADD SWAP1 PUSH2 0x1A9 SWAP2 SWAP1 PUSH2 0x12FF JUMP JUMPDEST PUSH2 0x76F JUMP JUMPDEST STOP JUMPDEST PUSH2 0x1CA PUSH1 0x4 DUP1 CALLDATASIZE SUB DUP2 ADD SWAP1 PUSH2 0x1C5 SWAP2 SWAP1 PUSH2 0x12FF JUMP JUMPDEST PUSH2 0x922 JUMP JUMPDEST STOP JUMPDEST PUSH2 0x1E6 PUSH1 0x4 DUP1 CALLDATASIZE SUB DUP2 ADD SWAP1 PUSH2 0x1E1 SWAP2 SWAP1 PUSH2 0x133D JUMP JUMPDEST PUSH2 0xA36 JUMP JUMPDEST PUSH1 0x40 MLOAD PUSH2 0x1F3 SWAP2 SWAP1 PUSH2 0x13DB JUMP JUMPDEST PUSH1 0x40 MLOAD DUP1 SWAP2 SUB SWAP1 RETURN JUMPDEST PUSH0 PUSH1 0x20 MSTORE DUP2 PUSH0 MSTORE PUSH1 0x40 PUSH0 KECCAK256 DUP2 DUP2 SLOAD DUP2 LT PUSH2 0x214 JUMPI PUSH0 DUP1 REVERT JUMPDEST SWAP1 PUSH0 MSTORE PUSH1 0x20 PUSH0 KECCAK256 SWAP1 PUSH1 0x5 MUL ADD PUSH0 SWAP2 POP SWAP2 POP POP DUP1 PUSH0 ADD SLOAD SWAP1 DUP1 PUSH1 0x1 ADD PUSH0 SWAP1 SLOAD SWAP1 PUSH2 0x100 EXP SWAP1 DIV PUSH20 0xFFFFFFFFFFFFFFFFFFFFFFFFFFFFFFFFFFFFFFFF AND SWAP1 DUP1 PUSH1 0x2 ADD DUP1 SLOAD PUSH2 0x25F SWAP1 PUSH2 0x1428 JUMP JUMPDEST DUP1 PUSH1 0x1F ADD PUSH1 0x20 DUP1 SWAP2 DIV MUL PUSH1 0x20 ADD PUSH1 0x40 MLOAD SWAP1 DUP2 ADD PUSH1 0x40 MSTORE DUP1 SWAP3 SWAP2 SWAP1 DUP2 DUP2 MSTORE PUSH1 0x20 ADD DUP3 DUP1 SLOAD PUSH2 0x28B SWAP1 PUSH2 0x1428 JUMP JUMPDEST DUP1 ISZERO PUSH2 0x2D6 JUMPI DUP1 PUSH1 0x1F LT PUSH2 0x2AD JUMPI PUSH2 0x100 DUP1 DUP4 SLOAD DIV MUL DUP4 MSTORE SWAP2 PUSH1 0x20 ADD SWAP2 PUSH2 0x2D6 JUMP JUMPDEST DUP3 ADD SWAP2 SWAP1 PUSH0 MSTORE PUSH1 0x20 PUSH0 KECCAK256 SWAP1 JUMPDEST DUP2 SLOAD DUP2 MSTORE SWAP1 PUSH1 0x1 ADD SWAP1 PUSH1 0x20 ADD DUP1 DUP4 GT PUSH2 0x2B9 JUMPI DUP3 SWAP1 SUB PUSH1 0x1F AND DUP3 ADD SWAP2 JUMPDEST POP POP POP POP POP SWAP1 DUP1 PUSH1 0x3 ADD SLOAD SWAP1 DUP1 PUSH1 0x4 ADD SLOAD SWAP1 POP DUP6 JUMP JUMPDEST PUSH1 0x60 PUSH0 DUP1 DUP4 PUSH20 0xFFFFFFFFFFFFFFFFFFFFFFFFFFFFFFFFFFFFFFFF AND PUSH20 0xFFFFFFFFFFFFFFFFFFFFFFFFFFFFFFFFFFFFFFFF AND DUP2 MSTORE PUSH1 0x20 ADD SWAP1 DUP2 MSTORE PUSH1 0x20 ADD PUSH0 KECCAK256 DUP1 SLOAD DUP1 PUSH1 0x20 MUL PUSH1 0x20 ADD PUSH1 0x40 MLOAD SWAP1 DUP2 ADD PUSH1 0x40 MSTORE DUP1 SWAP3 SWAP2 SWAP1 DUP2 DUP2 MSTORE PUSH1 0x20 ADD PUSH0 SWAP1 JUMPDEST DUP3 DUP3 LT ISZERO PUSH2 0x47B JUMPI DUP4 DUP3 SWAP1 PUSH0 MSTORE PUSH1 0x20 PUSH0 KECCAK256 SWAP1 PUSH1 0x5 MUL ADD PUSH1 0x40 MLOAD DUP1 PUSH1 0xA0 ADD PUSH1 0x40 MSTORE SWAP1 DUP2 PUSH0 DUP3 ADD SLOAD DUP2 MSTORE PUSH1 0x20 ADD PUSH1 0x1 DUP3 ADD PUSH0 SWAP1 SLOAD SWAP1 PUSH2 0x100 EXP SWAP1 DIV PUSH20 0xFFFFFFFFFFFFFFFFFFFFFFFFFFFFFFFFFFFFFFFF AND PUSH20 0xFFFFFFFFFFFFFFFFFFFFFFFFFFFFFFFFFFFFFFFF AND PUSH20 0xFFFFFFFFFFFFFFFFFFFFFFFFFFFFFFFFFFFFFFFF AND DUP2 MSTORE PUSH1 0x20 ADD PUSH1 0x2 DUP3 ADD DUP1 SLOAD PUSH2 0x3D8 SWAP1 PUSH2 0x1428 JUMP JUMPDEST DUP1 PUSH1 0x1F ADD PUSH1 0x20 DUP1 SWAP2 DIV MUL PUSH1 0x20 ADD PUSH1 0x40 MLOAD SWAP1 DUP2 ADD PUSH1 0x40 MSTORE DUP1 SWAP3 SWAP2 SWAP1 DUP2 DUP2 MSTORE PUSH1 0x20 ADD DUP3 DUP1 SLOAD PUSH2 0x404 SWAP1 PUSH2 0x1428 JUMP JUMPDEST DUP1 ISZERO PUSH2 0x44F JUMPI DUP1 PUSH1 0x1F LT PUSH2 0x426 JUMPI PUSH2 0x100 DUP1 DUP4 SLOAD DIV MUL DUP4 MSTORE SWAP2 PUSH1 0x20 ADD SWAP2 PUSH2 0x44F JUMP JUMPDEST DUP3 ADD SWAP2 SWAP1 PUSH0 MSTORE PUSH1 0x20 PUSH0 KECCAK256 SWAP1 JUMPDEST DUP2 SLOAD DUP2 MSTORE SWAP1 PUSH1 0x1 ADD SWAP1 PUSH1 0x20 ADD DUP1 DUP4 GT PUSH2 0x432 JUMPI DUP3 SWAP1 SUB PUSH1 0x1F AND DUP3 ADD SWAP2 JUMPDEST POP POP POP POP POP DUP2 MSTORE PUSH1 0x20 ADD PUSH1 0x3 DUP3 ADD SLOAD DUP2 MSTORE PUSH1 0x20 ADD PUSH1 0x4 DUP3 ADD SLOAD DUP2 MSTORE POP POP DUP2 MSTORE PUSH1 0x20 ADD SWAP1 PUSH1 0x1 ADD SWAP1 PUSH2 0x349 JUMP JUMPDEST POP POP POP POP SWAP1 POP SWAP2 SWAP1 POP JUMP JUMPDEST PUSH0 DUP1 DUP3 PUSH20 0xFFFFFFFFFFFFFFFFFFFFFFFFFFFFFFFFFFFFFFFF AND PUSH20 0xFFFFFFFFFFFFFFFFFFFFFFFFFFFFFFFFFFFFFFFF AND DUP2 MSTORE PUSH1 0x20 ADD SWAP1 DUP2 MSTORE PUSH1 0x20 ADD PUSH0 KECCAK256 PUSH0 PUSH2 0x4CD SWAP2 SWAP1 PUSH2 0xC2E JUMP JUMPDEST POP JUMP JUMPDEST CALLER PUSH20 0xFFFFFFFFFFFFFFFFFFFFFFFFFFFFFFFFFFFFFFFF AND PUSH1 0x1 PUSH1 0x2 SWAP1 SLOAD SWAP1 PUSH2 0x100 EXP SWAP1 DIV PUSH20 0xFFFFFFFFFFFFFFFFFFFFFFFFFFFFFFFFFFFFFFFF AND PUSH20 0xFFFFFFFFFFFFFFFFFFFFFFFFFFFFFFFFFFFFFFFF AND EQ PUSH2 0x560 JUMPI PUSH1 0x40 MLOAD PUSH32 0x8C379A000000000000000000000000000000000000000000000000000000000 DUP2 MSTORE PUSH1 0x4 ADD PUSH2 0x557 SWAP1 PUSH2 0x14A2 JUMP JUMPDEST PUSH1 0x40 MLOAD DUP1 SWAP2 SUB SWAP1 REVERT JUMPDEST DUP1 PUSH1 0x1 PUSH0 PUSH2 0x100 EXP DUP2 SLOAD DUP2 PUSH2 0xFFFF MUL NOT AND SWAP1 DUP4 PUSH2 0xFFFF AND MUL OR SWAP1 SSTORE POP POP JUMP JUMPDEST PUSH1 0x1 PUSH0 SWAP1 SLOAD SWAP1 PUSH2 0x100 EXP SWAP1 DIV PUSH2 0xFFFF AND DUP2 JUMP JUMPDEST PUSH1 0x1 PUSH0 SWAP1 SLOAD SWAP1 PUSH2 0x100 EXP SWAP1 DIV PUSH2 0xFFFF AND PUSH2 0xFFFF AND DUP2 MLOAD GT ISZERO PUSH2 0x5E9 JUMPI PUSH1 0x40 MLOAD PUSH32 0x8C379A000000000000000000000000000000000000000000000000000000000 DUP2 MSTORE PUSH1 0x4 ADD PUSH2 0x5E0 SWAP1 PUSH2 0x1530 JUMP JUMPDEST PUSH1 0x40 MLOAD DUP1 SWAP2 SUB SWAP1 REVERT JUMPDEST PUSH0 PUSH1 0x40 MLOAD DUP1 PUSH1 0xA0 ADD PUSH1 0x40 MSTORE DUP1 PUSH0 DUP1 CALLER PUSH20 0xFFFFFFFFFFFFFFFFFFFFFFFFFFFFFFFFFFFFFFFF AND PUSH20 0xFFFFFFFFFFFFFFFFFFFFFFFFFFFFFFFFFFFFFFFF AND DUP2 MSTORE PUSH1 0x20 ADD SWAP1 DUP2 MSTORE PUSH1 0x20 ADD PUSH0 KECCAK256 DUP1 SLOAD SWAP1 POP DUP2 MSTORE PUSH1 0x20 ADD CALLER PUSH20 0xFFFFFFFFFFFFFFFFFFFFFFFFFFFFFFFFFFFFFFFF AND DUP2 MSTORE PUSH1 0x20 ADD DUP4 DUP2 MSTORE PUSH1 0x20 ADD TIMESTAMP DUP2 MSTORE PUSH1 0x20 ADD PUSH0 DUP2 MSTORE POP SWAP1 POP PUSH0 DUP1 CALLER PUSH20 0xFFFFFFFFFFFFFFFFFFFFFFFFFFFFFFFFFFFFFFFF AND PUSH20 0xFFFFFFFFFFFFFFFFFFFFFFFFFFFFFFFFFFFFFFFF AND DUP2 MSTORE PUSH1 0x20 ADD SWAP1 DUP2 MSTORE PUSH1 0x20 ADD PUSH0 KECCAK256 DUP2 SWAP1 DUP1 PUSH1 0x1 DUP2 SLOAD ADD DUP1 DUP3 SSTORE DUP1 SWAP2 POP POP PUSH1 0x1 SWAP1 SUB SWAP1 PUSH0 MSTORE PUSH1 0x20 PUSH0 KECCAK256 SWAP1 PUSH1 0x5 MUL ADD PUSH0 SWAP1 SWAP2 SWAP1 SWAP2 SWAP1 SWAP2 POP PUSH0 DUP3 ADD MLOAD DUP2 PUSH0 ADD SSTORE PUSH1 0x20 DUP3 ADD MLOAD DUP2 PUSH1 0x1 ADD PUSH0 PUSH2 0x100 EXP DUP2 SLOAD DUP2 PUSH20 0xFFFFFFFFFFFFFFFFFFFFFFFFFFFFFFFFFFFFFFFF MUL NOT AND SWAP1 DUP4 PUSH20 0xFFFFFFFFFFFFFFFFFFFFFFFFFFFFFFFFFFFFFFFF AND MUL OR SWAP1 SSTORE POP PUSH1 0x40 DUP3 ADD MLOAD DUP2 PUSH1 0x2 ADD SWAP1 DUP2 PUSH2 0x72E SWAP2 SWAP1 PUSH2 0x16EB JUMP JUMPDEST POP PUSH1 0x60 DUP3 ADD MLOAD DUP2 PUSH1 0x3 ADD SSTORE PUSH1 0x80 DUP3 ADD MLOAD DUP2 PUSH1 0x4 ADD SSTORE POP POP POP POP JUMP JUMPDEST PUSH1 0x1 PUSH1 0x2 SWAP1 SLOAD SWAP1 PUSH2 0x100 EXP SWAP1 DIV PUSH20 0xFFFFFFFFFFFFFFFFFFFFFFFFFFFFFFFFFFFFFFFF AND DUP2 JUMP JUMPDEST DUP2 PUSH0 DUP1 DUP4 PUSH20 0xFFFFFFFFFFFFFFFFFFFFFFFFFFFFFFFFFFFFFFFF AND PUSH20 0xFFFFFFFFFFFFFFFFFFFFFFFFFFFFFFFFFFFFFFFF AND DUP2 MSTORE PUSH1 0x20 ADD SWAP1 DUP2 MSTORE PUSH1 0x20 ADD PUSH0 KECCAK256 DUP4 DUP2 SLOAD DUP2 LT PUSH2 0x7BE JUMPI PUSH2 0x7BD PUSH2 0x17BA JUMP JUMPDEST JUMPDEST SWAP1 PUSH0 MSTORE PUSH1 0x20 PUSH0 KECCAK256 SWAP1 PUSH1 0x5 MUL ADD PUSH0 ADD SLOAD EQ PUSH2 0x80D JUMPI PUSH1 0x40 MLOAD PUSH32 0x8C379A000000000000000000000000000000000000000000000000000000000 DUP2 MSTORE PUSH1 0x4 ADD PUSH2 0x804 SWAP1 PUSH2 0x1831 JUMP JUMPDEST PUSH1 0x40 MLOAD DUP1 SWAP2 SUB SWAP1 REVERT JUMPDEST PUSH0 DUP1 PUSH0 DUP4 PUSH20 0xFFFFFFFFFFFFFFFFFFFFFFFFFFFFFFFFFFFFFFFF AND PUSH20 0xFFFFFFFFFFFFFFFFFFFFFFFFFFFFFFFFFFFFFFFF AND DUP2 MSTORE PUSH1 0x20 ADD SWAP1 DUP2 MSTORE PUSH1 0x20 ADD PUSH0 KECCAK256 DUP4 DUP2 SLOAD DUP2 LT PUSH2 0x85C JUMPI PUSH2 0x85B PUSH2 0x17BA JUMP JUMPDEST JUMPDEST SWAP1 PUSH0 MSTORE PUSH1 0x20 PUSH0 KECCAK256 SWAP1 PUSH1 0x5 MUL ADD PUSH1 0x4 ADD SLOAD GT PUSH2 0x8AC JUMPI PUSH1 0x40 MLOAD PUSH32 0x8C379A000000000000000000000000000000000000000000000000000000000 DUP2 MSTORE PUSH1 0x4 ADD PUSH2 0x8A3 SWAP1 PUSH2 0x1899 JUMP JUMPDEST PUSH1 0x40 MLOAD DUP1 SWAP2 SUB SWAP1 REVERT JUMPDEST PUSH0 DUP1 DUP3 PUSH20 0xFFFFFFFFFFFFFFFFFFFFFFFFFFFFFFFFFFFFFFFF AND PUSH20 0xFFFFFFFFFFFFFFFFFFFFFFFFFFFFFFFFFFFFFFFF AND DUP2 MSTORE PUSH1 0x20 ADD SWAP1 DUP2 MSTORE PUSH1 0x20 ADD PUSH0 KECCAK256 DUP3 DUP2 SLOAD DUP2 LT PUSH2 0x8FA JUMPI PUSH2 0x8F9 PUSH2 0x17BA JUMP JUMPDEST JUMPDEST SWAP1 PUSH0 MSTORE PUSH1 0x20 PUSH0 KECCAK256 SWAP1 PUSH1 0x5 MUL ADD PUSH1 0x4 ADD PUSH0 DUP2 SLOAD DUP1 SWAP3 SWAP2 SWAP1 PUSH2 0x919 SWAP1 PUSH2 0x18E4 JUMP JUMPDEST SWAP2 SWAP1 POP SSTORE POP POP POP JUMP JUMPDEST DUP2 PUSH0 DUP1 DUP4 PUSH20 0xFFFFFFFFFFFFFFFFFFFFFFFFFFFFFFFFFFFFFFFF AND PUSH20 0xFFFFFFFFFFFFFFFFFFFFFFFFFFFFFFFFFFFFFFFF AND DUP2 MSTORE PUSH1 0x20 ADD SWAP1 DUP2 MSTORE PUSH1 0x20 ADD PUSH0 KECCAK256 DUP4 DUP2 SLOAD DUP2 LT PUSH2 0x971 JUMPI PUSH2 0x970 PUSH2 0x17BA JUMP JUMPDEST JUMPDEST SWAP1 PUSH0 MSTORE PUSH1 0x20 PUSH0 KECCAK256 SWAP1 PUSH1 0x5 MUL ADD PUSH0 ADD SLOAD EQ PUSH2 0x9C0 JUMPI PUSH1 0x40 MLOAD PUSH32 0x8C379A000000000000000000000000000000000000000000000000000000000 DUP2 MSTORE PUSH1 0x4 ADD PUSH2 0x9B7 SWAP1 PUSH2 0x1831 JUMP JUMPDEST PUSH1 0x40 MLOAD DUP1 SWAP2 SUB SWAP1 REVERT JUMPDEST PUSH0 DUP1 DUP3 PUSH20 0xFFFFFFFFFFFFFFFFFFFFFFFFFFFFFFFFFFFFFFFF AND PUSH20 0xFFFFFFFFFFFFFFFFFFFFFFFFFFFFFFFFFFFFFFFF AND DUP2 MSTORE PUSH1 0x20 ADD SWAP1 DUP2 MSTORE PUSH1 0x20 ADD PUSH0 KECCAK256 DUP3 DUP2 SLOAD DUP2 LT PUSH2 0xA0E JUMPI PUSH2 0xA0D PUSH2 0x17BA JUMP JUMPDEST JUMPDEST SWAP1 PUSH0 MSTORE PUSH1 0x20 PUSH0 KECCAK256 SWAP1 PUSH1 0x5 MUL ADD PUSH1 0x4 ADD PUSH0 DUP2 SLOAD DUP1 SWAP3 SWAP2 SWAP1 PUSH2 0xA2D SWAP1 PUSH2 0x190B JUMP JUMPDEST SWAP2 SWAP1 POP SSTORE POP POP POP JUMP JUMPDEST PUSH2 0xA3E PUSH2 0xC4F JUMP JUMPDEST PUSH0 DUP1 CALLER PUSH20 0xFFFFFFFFFFFFFFFFFFFFFFFFFFFFFFFFFFFFFFFF AND PUSH20 0xFFFFFFFFFFFFFFFFFFFFFFFFFFFFFFFFFFFFFFFF AND DUP2 MSTORE PUSH1 0x20 ADD SWAP1 DUP2 MSTORE PUSH1 0x20 ADD PUSH0 KECCAK256 DUP1 SLOAD SWAP1 POP DUP3 GT ISZERO PUSH2 0xAC0 JUMPI PUSH1 0x40 MLOAD PUSH32 0x8C379A000000000000000000000000000000000000000000000000000000000 DUP2 MSTORE PUSH1 0x4 ADD PUSH2 0xAB7 SWAP1 PUSH2 0x199C JUMP JUMPDEST PUSH1 0x40 MLOAD DUP1 SWAP2 SUB SWAP1 REVERT JUMPDEST PUSH0 DUP1 CALLER PUSH20 0xFFFFFFFFFFFFFFFFFFFFFFFFFFFFFFFFFFFFFFFF AND PUSH20 0xFFFFFFFFFFFFFFFFFFFFFFFFFFFFFFFFFFFFFFFF AND DUP2 MSTORE PUSH1 0x20 ADD SWAP1 DUP2 MSTORE PUSH1 0x20 ADD PUSH0 KECCAK256 DUP3 DUP2 SLOAD DUP2 LT PUSH2 0xB0E JUMPI PUSH2 0xB0D PUSH2 0x17BA JUMP JUMPDEST JUMPDEST SWAP1 PUSH0 MSTORE PUSH1 0x20 PUSH0 KECCAK256 SWAP1 PUSH1 0x5 MUL ADD PUSH1 0x40 MLOAD DUP1 PUSH1 0xA0 ADD PUSH1 0x40 MSTORE SWAP1 DUP2 PUSH0 DUP3 ADD SLOAD DUP2 MSTORE PUSH1 0x20 ADD PUSH1 0x1 DUP3 ADD PUSH0 SWAP1 SLOAD SWAP1 PUSH2 0x100 EXP SWAP1 DIV PUSH20 0xFFFFFFFFFFFFFFFFFFFFFFFFFFFFFFFFFFFFFFFF AND PUSH20 0xFFFFFFFFFFFFFFFFFFFFFFFFFFFFFFFFFFFFFFFF AND PUSH20 0xFFFFFFFFFFFFFFFFFFFFFFFFFFFFFFFFFFFFFFFF AND DUP2 MSTORE PUSH1 0x20 ADD PUSH1 0x2 DUP3 ADD DUP1 SLOAD PUSH2 0xB93 SWAP1 PUSH2 0x1428 JUMP JUMPDEST DUP1 PUSH1 0x1F ADD PUSH1 0x20 DUP1 SWAP2 DIV MUL PUSH1 0x20 ADD PUSH1 0x40 MLOAD SWAP1 DUP2 ADD PUSH1 0x40 MSTORE DUP1 SWAP3 SWAP2 SWAP1 DUP2 DUP2 MSTORE PUSH1 0x20 ADD DUP3 DUP1 SLOAD PUSH2 0xBBF SWAP1 PUSH2 0x1428 JUMP JUMPDEST DUP1 ISZERO PUSH2 0xC0A JUMPI DUP1 PUSH1 0x1F LT PUSH2 0xBE1 JUMPI PUSH2 0x100 DUP1 DUP4 SLOAD DIV MUL DUP4 MSTORE SWAP2 PUSH1 0x20 ADD SWAP2 PUSH2 0xC0A JUMP JUMPDEST DUP3 ADD SWAP2 SWAP1 PUSH0 MSTORE PUSH1 0x20 PUSH0 KECCAK256 SWAP1 JUMPDEST DUP2 SLOAD DUP2 MSTORE SWAP1 PUSH1 0x1 ADD SWAP1 PUSH1 0x20 ADD DUP1 DUP4 GT PUSH2 0xBED JUMPI DUP3 SWAP1 SUB PUSH1 0x1F AND DUP3 ADD SWAP2 JUMPDEST POP POP POP POP POP DUP2 MSTORE PUSH1 0x20 ADD PUSH1 0x3 DUP3 ADD SLOAD DUP2 MSTORE PUSH1 0x20 ADD PUSH1 0x4 DUP3 ADD SLOAD DUP2 MSTORE POP POP SWAP1 POP SWAP2 SWAP1 POP JUMP JUMPDEST POP DUP1 SLOAD PUSH0 DUP3 SSTORE PUSH1 0x5 MUL SWAP1 PUSH0 MSTORE PUSH1 0x20 PUSH0 KECCAK256 SWAP1 DUP2 ADD SWAP1 PUSH2 0xC4C SWAP2 SWAP1 PUSH2 0xC90 JUMP JUMPDEST POP JUMP JUMPDEST PUSH1 0x40 MLOAD DUP1 PUSH1 0xA0 ADD PUSH1 0x40 MSTORE DUP1 PUSH0 DUP2 MSTORE PUSH1 0x20 ADD PUSH0 PUSH20 0xFFFFFFFFFFFFFFFFFFFFFFFFFFFFFFFFFFFFFFFF AND DUP2 MSTORE PUSH1 0x20 ADD PUSH1 0x60 DUP2 MSTORE PUSH1 0x20 ADD PUSH0 DUP2 MSTORE PUSH1 0x20 ADD PUSH0 DUP2 MSTORE POP SWAP1 JUMP JUMPDEST JUMPDEST DUP1 DUP3 GT ISZERO PUSH2 0xCEC JUMPI PUSH0 DUP1 DUP3 ADD PUSH0 SWAP1 SSTORE PUSH1 0x1 DUP3 ADD PUSH0 PUSH2 0x100 EXP DUP2 SLOAD SWAP1 PUSH20 0xFFFFFFFFFFFFFFFFFFFFFFFFFFFFFFFFFFFFFFFF MUL NOT AND SWAP1 SSTORE PUSH1 0x2 DUP3 ADD PUSH0 PUSH2 0xCD5 SWAP2 SWAP1 PUSH2 0xCF0 JUMP JUMPDEST PUSH1 0x3 DUP3 ADD PUSH0 SWAP1 SSTORE PUSH1 0x4 DUP3 ADD PUSH0 SWAP1 SSTORE POP PUSH1 0x5 ADD PUSH2 0xC91 JUMP JUMPDEST POP SWAP1 JUMP JUMPDEST POP DUP1 SLOAD PUSH2 0xCFC SWAP1 PUSH2 0x1428 JUMP JUMPDEST PUSH0 DUP3 SSTORE DUP1 PUSH1 0x1F LT PUSH2 0xD0D JUMPI POP PUSH2 0xD2A JUMP JUMPDEST PUSH1 0x1F ADD PUSH1 0x20 SWAP1 DIV SWAP1 PUSH0 MSTORE PUSH1 0x20 PUSH0 KECCAK256 SWAP1 DUP2 ADD SWAP1 PUSH2 0xD29 SWAP2 SWAP1 PUSH2 0xD2D JUMP JUMPDEST JUMPDEST POP JUMP JUMPDEST JUMPDEST DUP1 DUP3 GT ISZERO PUSH2 0xD44 JUMPI PUSH0 DUP2 PUSH0 SWAP1 SSTORE POP PUSH1 0x1 ADD PUSH2 0xD2E JUMP JUMPDEST POP SWAP1 JUMP JUMPDEST PUSH0 PUSH1 0x40 MLOAD SWAP1 POP SWAP1 JUMP JUMPDEST PUSH0 DUP1 REVERT JUMPDEST PUSH0 DUP1 REVERT JUMPDEST PUSH0 PUSH20 0xFFFFFFFFFFFFFFFFFFFFFFFFFFFFFFFFFFFFFFFF DUP3 AND SWAP1 POP SWAP2 SWAP1 POP JUMP JUMPDEST PUSH0 PUSH2 0xD82 DUP3 PUSH2 0xD59 JUMP JUMPDEST SWAP1 POP SWAP2 SWAP1 POP JUMP JUMPDEST PUSH2 0xD92 DUP2 PUSH2 0xD78 JUMP JUMPDEST DUP2 EQ PUSH2 0xD9C JUMPI PUSH0 DUP1 REVERT JUMPDEST POP JUMP JUMPDEST PUSH0 DUP2 CALLDATALOAD SWAP1 POP PUSH2 0xDAD DUP2 PUSH2 0xD89 JUMP JUMPDEST SWAP3 SWAP2 POP POP JUMP JUMPDEST PUSH0 DUP2 SWAP1 POP SWAP2 SWAP1 POP JUMP JUMPDEST PUSH2 0xDC5 DUP2 PUSH2 0xDB3 JUMP JUMPDEST DUP2 EQ PUSH2 0xDCF JUMPI PUSH0 DUP1 REVERT JUMPDEST POP JUMP JUMPDEST PUSH0 DUP2 CALLDATALOAD SWAP1 POP PUSH2 0xDE0 DUP2 PUSH2 0xDBC JUMP JUMPDEST SWAP3 SWAP2 POP POP JUMP JUMPDEST PUSH0 DUP1 PUSH1 0x40 DUP4 DUP6 SUB SLT ISZERO PUSH2 0xDFC JUMPI PUSH2 0xDFB PUSH2 0xD51 JUMP JUMPDEST JUMPDEST PUSH0 PUSH2 0xE09 DUP6 DUP3 DUP7 ADD PUSH2 0xD9F JUMP JUMPDEST SWAP3 POP POP PUSH1 0x20 PUSH2 0xE1A DUP6 DUP3 DUP7 ADD PUSH2 0xDD2 JUMP JUMPDEST SWAP2 POP POP SWAP3 POP SWAP3 SWAP1 POP JUMP JUMPDEST PUSH2 0xE2D DUP2 PUSH2 0xDB3 JUMP JUMPDEST DUP3 MSTORE POP POP JUMP JUMPDEST PUSH2 0xE3C DUP2 PUSH2 0xD78 JUMP JUMPDEST DUP3 MSTORE POP POP JUMP JUMPDEST PUSH0 DUP2 MLOAD SWAP1 POP SWAP2 SWAP1 POP JUMP JUMPDEST PUSH0 DUP3 DUP3 MSTORE PUSH1 0x20 DUP3 ADD SWAP1 POP SWAP3 SWAP2 POP POP JUMP JUMPDEST DUP3 DUP2 DUP4 MCOPY PUSH0 DUP4 DUP4 ADD MSTORE POP POP POP JUMP JUMPDEST PUSH0 PUSH1 0x1F NOT PUSH1 0x1F DUP4 ADD AND SWAP1 POP SWAP2 SWAP1 POP JUMP JUMPDEST PUSH0 PUSH2 0xE84 DUP3 PUSH2 0xE42 JUMP JUMPDEST PUSH2 0xE8E DUP2 DUP6 PUSH2 0xE4C JUMP JUMPDEST SWAP4 POP PUSH2 0xE9E DUP2 DUP6 PUSH1 0x20 DUP7 ADD PUSH2 0xE5C JUMP JUMPDEST PUSH2 0xEA7 DUP2 PUSH2 0xE6A JUMP JUMPDEST DUP5 ADD SWAP2 POP POP SWAP3 SWAP2 POP POP JUMP JUMPDEST PUSH0 PUSH1 0xA0 DUP3 ADD SWAP1 POP PUSH2 0xEC5 PUSH0 DUP4 ADD DUP9 PUSH2 0xE24 JUMP JUMPDEST PUSH2 0xED2 PUSH1 0x20 DUP4 ADD DUP8 PUSH2 0xE33 JUMP JUMPDEST DUP2 DUP2 SUB PUSH1 0x40 DUP4 ADD MSTORE PUSH2 0xEE4 DUP2 DUP7 PUSH2 0xE7A JUMP JUMPDEST SWAP1 POP PUSH2 0xEF3 PUSH1 0x60 DUP4 ADD DUP6 PUSH2 0xE24 JUMP JUMPDEST PUSH2 0xF00 PUSH1 0x80 DUP4 ADD DUP5 PUSH2 0xE24 JUMP JUMPDEST SWAP7 SWAP6 POP POP POP POP POP POP JUMP JUMPDEST PUSH0 PUSH1 0x20 DUP3 DUP5 SUB SLT ISZERO PUSH2 0xF1F JUMPI PUSH2 0xF1E PUSH2 0xD51 JUMP JUMPDEST JUMPDEST PUSH0 PUSH2 0xF2C DUP5 DUP3 DUP6 ADD PUSH2 0xD9F JUMP JUMPDEST SWAP2 POP POP SWAP3 SWAP2 POP POP JUMP JUMPDEST PUSH0 DUP2 MLOAD SWAP1 POP SWAP2 SWAP1 POP JUMP JUMPDEST PUSH0 DUP3 DUP3 MSTORE PUSH1 0x20 DUP3 ADD SWAP1 POP SWAP3 SWAP2 POP POP JUMP JUMPDEST PUSH0 DUP2 SWAP1 POP PUSH1 0x20 DUP3 ADD SWAP1 POP SWAP2 SWAP1 POP JUMP JUMPDEST PUSH2 0xF67 DUP2 PUSH2 0xDB3 JUMP JUMPDEST DUP3 MSTORE POP POP JUMP JUMPDEST PUSH2 0xF76 DUP2 PUSH2 0xD78 JUMP JUMPDEST DUP3 MSTORE POP POP JUMP JUMPDEST PUSH0 DUP3 DUP3 MSTORE PUSH1 0x20 DUP3 ADD SWAP1 POP SWAP3 SWAP2 POP POP JUMP JUMPDEST PUSH0 PUSH2 0xF96 DUP3 PUSH2 0xE42 JUMP JUMPDEST PUSH2 0xFA0 DUP2 DUP6 PUSH2 0xF7C JUMP JUMPDEST SWAP4 POP PUSH2 0xFB0 DUP2 DUP6 PUSH1 0x20 DUP7 ADD PUSH2 0xE5C JUMP JUMPDEST PUSH2 0xFB9 DUP2 PUSH2 0xE6A JUMP JUMPDEST DUP5 ADD SWAP2 POP POP SWAP3 SWAP2 POP POP JUMP JUMPDEST PUSH0 PUSH1 0xA0 DUP4 ADD PUSH0 DUP4 ADD MLOAD PUSH2 0xFD9 PUSH0 DUP7 ADD DUP3 PUSH2 0xF5E JUMP JUMPDEST POP PUSH1 0x20 DUP4 ADD MLOAD PUSH2 0xFEC PUSH1 0x20 DUP7 ADD DUP3 PUSH2 0xF6D JUMP JUMPDEST POP PUSH1 0x40 DUP4 ADD MLOAD DUP5 DUP3 SUB PUSH1 0x40 DUP7 ADD MSTORE PUSH2 0x1004 DUP3 DUP3 PUSH2 0xF8C JUMP JUMPDEST SWAP2 POP POP PUSH1 0x60 DUP4 ADD MLOAD PUSH2 0x1019 PUSH1 0x60 DUP7 ADD DUP3 PUSH2 0xF5E JUMP JUMPDEST POP PUSH1 0x80 DUP4 ADD MLOAD PUSH2 0x102C PUSH1 0x80 DUP7 ADD DUP3 PUSH2 0xF5E JUMP JUMPDEST POP DUP1 SWAP2 POP POP SWAP3 SWAP2 POP POP JUMP JUMPDEST PUSH0 PUSH2 0x1042 DUP4 DUP4 PUSH2 0xFC4 JUMP JUMPDEST SWAP1 POP SWAP3 SWAP2 POP POP JUMP JUMPDEST PUSH0 PUSH1 0x20 DUP3 ADD SWAP1 POP SWAP2 SWAP1 POP JUMP JUMPDEST PUSH0 PUSH2 0x1060 DUP3 PUSH2 0xF35 JUMP JUMPDEST PUSH2 0x106A DUP2 DUP6 PUSH2 0xF3F JUMP JUMPDEST SWAP4 POP DUP4 PUSH1 0x20 DUP3 MUL DUP6 ADD PUSH2 0x107C DUP6 PUSH2 0xF4F JUMP JUMPDEST DUP1 PUSH0 JUMPDEST DUP6 DUP2 LT ISZERO PUSH2 0x10B7 JUMPI DUP5 DUP5 SUB DUP10 MSTORE DUP2 MLOAD PUSH2 0x1098 DUP6 DUP3 PUSH2 0x1037 JUMP JUMPDEST SWAP5 POP PUSH2 0x10A3 DUP4 PUSH2 0x104A JUMP JUMPDEST SWAP3 POP PUSH1 0x20 DUP11 ADD SWAP10 POP POP PUSH1 0x1 DUP2 ADD SWAP1 POP PUSH2 0x107F JUMP JUMPDEST POP DUP3 SWAP8 POP DUP8 SWAP6 POP POP POP POP POP POP SWAP3 SWAP2 POP POP JUMP JUMPDEST PUSH0 PUSH1 0x20 DUP3 ADD SWAP1 POP DUP2 DUP2 SUB PUSH0 DUP4 ADD MSTORE PUSH2 0x10E1 DUP2 DUP5 PUSH2 0x1056 JUMP JUMPDEST SWAP1 POP SWAP3 SWAP2 POP POP JUMP JUMPDEST PUSH0 PUSH2 0xFFFF DUP3 AND SWAP1 POP SWAP2 SWAP1 POP JUMP JUMPDEST PUSH2 0x10FF DUP2 PUSH2 0x10E9 JUMP JUMPDEST DUP2 EQ PUSH2 0x1109 JUMPI PUSH0 DUP1 REVERT JUMPDEST POP JUMP JUMPDEST PUSH0 DUP2 CALLDATALOAD SWAP1 POP PUSH2 0x111A DUP2 PUSH2 0x10F6 JUMP JUMPDEST SWAP3 SWAP2 POP POP JUMP JUMPDEST PUSH0 PUSH1 0x20 DUP3 DUP5 SUB SLT ISZERO PUSH2 0x1135 JUMPI PUSH2 0x1134 PUSH2 0xD51 JUMP JUMPDEST JUMPDEST PUSH0 PUSH2 0x1142 DUP5 DUP3 DUP6 ADD PUSH2 0x110C JUMP JUMPDEST SWAP2 POP POP SWAP3 SWAP2 POP POP JUMP JUMPDEST PUSH2 0x1154 DUP2 PUSH2 0x10E9 JUMP JUMPDEST DUP3 MSTORE POP POP JUMP JUMPDEST PUSH0 PUSH1 0x20 DUP3 ADD SWAP1 POP PUSH2 0x116D PUSH0 DUP4 ADD DUP5 PUSH2 0x114B JUMP JUMPDEST SWAP3 SWAP2 POP POP JUMP JUMPDEST PUSH0 DUP1 REVERT JUMPDEST PUSH0 DUP1 REVERT JUMPDEST PUSH32 0x4E487B7100000000000000000000000000000000000000000000000000000000 PUSH0 MSTORE PUSH1 0x41 PUSH1 0x4 MSTORE PUSH1 0x24 PUSH0 REVERT JUMPDEST PUSH2 0x11B1 DUP3 PUSH2 0xE6A JUMP JUMPDEST DUP2 ADD DUP2 DUP2 LT PUSH8 0xFFFFFFFFFFFFFFFF DUP3 GT OR ISZERO PUSH2 0x11D0 JUMPI PUSH2 0x11CF PUSH2 0x117B JUMP JUMPDEST JUMPDEST DUP1 PUSH1 0x40 MSTORE POP POP POP JUMP JUMPDEST PUSH0 PUSH2 0x11E2 PUSH2 0xD48 JUMP JUMPDEST SWAP1 POP PUSH2 0x11EE DUP3 DUP3 PUSH2 0x11A8 JUMP JUMPDEST SWAP2 SWAP1 POP JUMP JUMPDEST PUSH0 PUSH8 0xFFFFFFFFFFFFFFFF DUP3 GT ISZERO PUSH2 0x120D JUMPI PUSH2 0x120C PUSH2 0x117B JUMP JUMPDEST JUMPDEST PUSH2 0x1216 DUP3 PUSH2 0xE6A JUMP JUMPDEST SWAP1 POP PUSH1 0x20 DUP2 ADD SWAP1 POP SWAP2 SWAP1 POP JUMP JUMPDEST DUP3 DUP2 DUP4 CALLDATACOPY PUSH0 DUP4 DUP4 ADD MSTORE POP POP POP JUMP JUMPDEST PUSH0 PUSH2 0x1243 PUSH2 0x123E DUP5 PUSH2 0x11F3 JUMP JUMPDEST PUSH2 0x11D9 JUMP JUMPDEST SWAP1 POP DUP3 DUP2 MSTORE PUSH1 0x20 DUP2 ADD DUP5 DUP5 DUP5 ADD GT ISZERO PUSH2 0x125F JUMPI PUSH2 0x125E PUSH2 0x1177 JUMP JUMPDEST JUMPDEST PUSH2 0x126A DUP5 DUP3 DUP6 PUSH2 0x1223 JUMP JUMPDEST POP SWAP4 SWAP3 POP POP POP JUMP JUMPDEST PUSH0 DUP3 PUSH1 0x1F DUP4 ADD SLT PUSH2 0x1286 JUMPI PUSH2 0x1285 PUSH2 0x1173 JUMP JUMPDEST JUMPDEST DUP2 CALLDATALOAD PUSH2 0x1296 DUP5 DUP3 PUSH1 0x20 DUP7 ADD PUSH2 0x1231 JUMP JUMPDEST SWAP2 POP POP SWAP3 SWAP2 POP POP JUMP JUMPDEST PUSH0 PUSH1 0x20 DUP3 DUP5 SUB SLT ISZERO PUSH2 0x12B4 JUMPI PUSH2 0x12B3 PUSH2 0xD51 JUMP JUMPDEST JUMPDEST PUSH0 DUP3 ADD CALLDATALOAD PUSH8 0xFFFFFFFFFFFFFFFF DUP2 GT ISZERO PUSH2 0x12D1 JUMPI PUSH2 0x12D0 PUSH2 0xD55 JUMP JUMPDEST JUMPDEST PUSH2 0x12DD DUP5 DUP3 DUP6 ADD PUSH2 0x1272 JUMP JUMPDEST SWAP2 POP POP SWAP3 SWAP2 POP POP JUMP JUMPDEST PUSH0 PUSH1 0x20 DUP3 ADD SWAP1 POP PUSH2 0x12F9 PUSH0 DUP4 ADD DUP5 PUSH2 0xE33 JUMP JUMPDEST SWAP3 SWAP2 POP POP JUMP JUMPDEST PUSH0 DUP1 PUSH1 0x40 DUP4 DUP6 SUB SLT ISZERO PUSH2 0x1315 JUMPI PUSH2 0x1314 PUSH2 0xD51 JUMP JUMPDEST JUMPDEST PUSH0 PUSH2 0x1322 DUP6 DUP3 DUP7 ADD PUSH2 0xDD2 JUMP JUMPDEST SWAP3 POP POP PUSH1 0x20 PUSH2 0x1333 DUP6 DUP3 DUP7 ADD PUSH2 0xD9F JUMP JUMPDEST SWAP2 POP POP SWAP3 POP SWAP3 SWAP1 POP JUMP JUMPDEST PUSH0 PUSH1 0x20 DUP3 DUP5 SUB SLT ISZERO PUSH2 0x1352 JUMPI PUSH2 0x1351 PUSH2 0xD51 JUMP JUMPDEST JUMPDEST PUSH0 PUSH2 0x135F DUP5 DUP3 DUP6 ADD PUSH2 0xDD2 JUMP JUMPDEST SWAP2 POP POP SWAP3 SWAP2 POP POP JUMP JUMPDEST PUSH0 PUSH1 0xA0 DUP4 ADD PUSH0 DUP4 ADD MLOAD PUSH2 0x137D PUSH0 DUP7 ADD DUP3 PUSH2 0xF5E JUMP JUMPDEST POP PUSH1 0x20 DUP4 ADD MLOAD PUSH2 0x1390 PUSH1 0x20 DUP7 ADD DUP3 PUSH2 0xF6D JUMP JUMPDEST POP PUSH1 0x40 DUP4 ADD MLOAD DUP5 DUP3 SUB PUSH1 0x40 DUP7 ADD MSTORE PUSH2 0x13A8 DUP3 DUP3 PUSH2 0xF8C JUMP JUMPDEST SWAP2 POP POP PUSH1 0x60 DUP4 ADD MLOAD PUSH2 0x13BD PUSH1 0x60 DUP7 ADD DUP3 PUSH2 0xF5E JUMP JUMPDEST POP PUSH1 0x80 DUP4 ADD MLOAD PUSH2 0x13D0 PUSH1 0x80 DUP7 ADD DUP3 PUSH2 0xF5E JUMP JUMPDEST POP DUP1 SWAP2 POP POP SWAP3 SWAP2 POP POP JUMP JUMPDEST PUSH0 PUSH1 0x20 DUP3 ADD SWAP1 POP DUP2 DUP2 SUB PUSH0 DUP4 ADD MSTORE PUSH2 0x13F3 DUP2 DUP5 PUSH2 0x1368 JUMP JUMPDEST SWAP1 POP SWAP3 SWAP2 POP POP JUMP JUMPDEST PUSH32 0x4E487B7100000000000000000000000000000000000000000000000000000000 PUSH0 MSTORE PUSH1 0x22 PUSH1 0x4 MSTORE PUSH1 0x24 PUSH0 REVERT JUMPDEST PUSH0 PUSH1 0x2 DUP3 DIV SWAP1 POP PUSH1 0x1 DUP3 AND DUP1 PUSH2 0x143F JUMPI PUSH1 0x7F DUP3 AND SWAP2 POP JUMPDEST PUSH1 0x20 DUP3 LT DUP2 SUB PUSH2 0x1452 JUMPI PUSH2 0x1451 PUSH2 0x13FB JUMP JUMPDEST JUMPDEST POP SWAP2 SWAP1 POP JUMP JUMPDEST PUSH32 0x594F5520415245204E4F5420544845204F574E45522121000000000000000000 PUSH0 DUP3 ADD MSTORE POP JUMP JUMPDEST PUSH0 PUSH2 0x148C PUSH1 0x17 DUP4 PUSH2 0xE4C JUMP JUMPDEST SWAP2 POP PUSH2 0x1497 DUP3 PUSH2 0x1458 JUMP JUMPDEST PUSH1 0x20 DUP3 ADD SWAP1 POP SWAP2 SWAP1 POP JUMP JUMPDEST PUSH0 PUSH1 0x20 DUP3 ADD SWAP1 POP DUP2 DUP2 SUB PUSH0 DUP4 ADD MSTORE PUSH2 0x14B9 DUP2 PUSH2 0x1480 JUMP JUMPDEST SWAP1 POP SWAP2 SWAP1 POP JUMP JUMPDEST PUSH32 0x547765657420697320746F206C6F6E672C206D61782032383020636861726163 PUSH0 DUP3 ADD MSTORE PUSH32 0x7465727300000000000000000000000000000000000000000000000000000000 PUSH1 0x20 DUP3 ADD MSTORE POP JUMP JUMPDEST PUSH0 PUSH2 0x151A PUSH1 0x24 DUP4 PUSH2 0xE4C JUMP JUMPDEST SWAP2 POP PUSH2 0x1525 DUP3 PUSH2 0x14C0 JUMP JUMPDEST PUSH1 0x40 DUP3 ADD SWAP1 POP SWAP2 SWAP1 POP JUMP JUMPDEST PUSH0 PUSH1 0x20 DUP3 ADD SWAP1 POP DUP2 DUP2 SUB PUSH0 DUP4 ADD MSTORE PUSH2 0x1547 DUP2 PUSH2 0x150E JUMP JUMPDEST SWAP1 POP SWAP2 SWAP1 POP JUMP JUMPDEST PUSH0 DUP2 SWAP1 POP DUP2 PUSH0 MSTORE PUSH1 0x20 PUSH0 KECCAK256 SWAP1 POP SWAP2 SWAP1 POP JUMP JUMPDEST PUSH0 PUSH1 0x20 PUSH1 0x1F DUP4 ADD DIV SWAP1 POP SWAP2 SWAP1 POP JUMP JUMPDEST PUSH0 DUP3 DUP3 SHL SWAP1 POP SWAP3 SWAP2 POP POP JUMP JUMPDEST PUSH0 PUSH1 0x8 DUP4 MUL PUSH2 0x15AA PUSH32 0xFFFFFFFFFFFFFFFFFFFFFFFFFFFFFFFFFFFFFFFFFFFFFFFFFFFFFFFFFFFFFFFF DUP3 PUSH2 0x156F JUMP JUMPDEST PUSH2 0x15B4 DUP7 DUP4 PUSH2 0x156F JUMP JUMPDEST SWAP6 POP DUP1 NOT DUP5 AND SWAP4 POP DUP1 DUP7 AND DUP5 OR SWAP3 POP POP POP SWAP4 SWAP3 POP POP POP JUMP JUMPDEST PUSH0 DUP2 SWAP1 POP SWAP2 SWAP1 POP JUMP JUMPDEST PUSH0 PUSH2 0x15EF PUSH2 0x15EA PUSH2 0x15E5 DUP5 PUSH2 0xDB3 JUMP JUMPDEST PUSH2 0x15CC JUMP JUMPDEST PUSH2 0xDB3 JUMP JUMPDEST SWAP1 POP SWAP2 SWAP1 POP JUMP JUMPDEST PUSH0 DUP2 SWAP1 POP SWAP2 SWAP1 POP JUMP JUMPDEST PUSH2 0x1608 DUP4 PUSH2 0x15D5 JUMP JUMPDEST PUSH2 0x161C PUSH2 0x1614 DUP3 PUSH2 0x15F6 JUMP JUMPDEST DUP5 DUP5 SLOAD PUSH2 0x157B JUMP JUMPDEST DUP3 SSTORE POP POP POP POP JUMP JUMPDEST PUSH0 SWAP1 JUMP JUMPDEST PUSH2 0x1630 PUSH2 0x1624 JUMP JUMPDEST PUSH2 0x163B DUP2 DUP5 DUP5 PUSH2 0x15FF JUMP JUMPDEST POP POP POP JUMP JUMPDEST JUMPDEST DUP2 DUP2 LT ISZERO PUSH2 0x165E JUMPI PUSH2 0x1653 PUSH0 DUP3 PUSH2 0x1628 JUMP JUMPDEST PUSH1 0x1 DUP2 ADD SWAP1 POP PUSH2 0x1641 JUMP JUMPDEST POP POP JUMP JUMPDEST PUSH1 0x1F DUP3 GT ISZERO PUSH2 0x16A3 JUMPI PUSH2 0x1674 DUP2 PUSH2 0x154E JUMP JUMPDEST PUSH2 0x167D DUP5 PUSH2 0x1560 JUMP JUMPDEST DUP2 ADD PUSH1 0x20 DUP6 LT ISZERO PUSH2 0x168C JUMPI DUP2 SWAP1 POP JUMPDEST PUSH2 0x16A0 PUSH2 0x1698 DUP6 PUSH2 0x1560 JUMP JUMPDEST DUP4 ADD DUP3 PUSH2 0x1640 JUMP JUMPDEST POP POP JUMPDEST POP POP POP JUMP JUMPDEST PUSH0 DUP3 DUP3 SHR SWAP1 POP SWAP3 SWAP2 POP POP JUMP JUMPDEST PUSH0 PUSH2 0x16C3 PUSH0 NOT DUP5 PUSH1 0x8 MUL PUSH2 0x16A8 JUMP JUMPDEST NOT DUP1 DUP4 AND SWAP2 POP POP SWAP3 SWAP2 POP POP JUMP JUMPDEST PUSH0 PUSH2 0x16DB DUP4 DUP4 PUSH2 0x16B4 JUMP JUMPDEST SWAP2 POP DUP3 PUSH1 0x2 MUL DUP3 OR SWAP1 POP SWAP3 SWAP2 POP POP JUMP JUMPDEST PUSH2 0x16F4 DUP3 PUSH2 0xE42 JUMP JUMPDEST PUSH8 0xFFFFFFFFFFFFFFFF DUP2 GT ISZERO PUSH2 0x170D JUMPI PUSH2 0x170C PUSH2 0x117B JUMP JUMPDEST JUMPDEST PUSH2 0x1717 DUP3 SLOAD PUSH2 0x1428 JUMP JUMPDEST PUSH2 0x1722 DUP3 DUP3 DUP6 PUSH2 0x1662 JUMP JUMPDEST PUSH0 PUSH1 0x20 SWAP1 POP PUSH1 0x1F DUP4 GT PUSH1 0x1 DUP2 EQ PUSH2 0x1753 JUMPI PUSH0 DUP5 ISZERO PUSH2 0x1741 JUMPI DUP3 DUP8 ADD MLOAD SWAP1 POP JUMPDEST PUSH2 0x174B DUP6 DUP3 PUSH2 0x16D0 JUMP JUMPDEST DUP7 SSTORE POP PUSH2 0x17B2 JUMP JUMPDEST PUSH1 0x1F NOT DUP5 AND PUSH2 0x1761 DUP7 PUSH2 0x154E JUMP JUMPDEST PUSH0 JUMPDEST DUP3 DUP2 LT ISZERO PUSH2 0x1788 JUMPI DUP5 DUP10 ADD MLOAD DUP3 SSTORE PUSH1 0x1 DUP3 ADD SWAP2 POP PUSH1 0x20 DUP6 ADD SWAP5 POP PUSH1 0x20 DUP2 ADD SWAP1 POP PUSH2 0x1763 JUMP JUMPDEST DUP7 DUP4 LT ISZERO PUSH2 0x17A5 JUMPI DUP5 DUP10 ADD MLOAD PUSH2 0x17A1 PUSH1 0x1F DUP10 AND DUP3 PUSH2 0x16B4 JUMP JUMPDEST DUP4 SSTORE POP JUMPDEST PUSH1 0x1 PUSH1 0x2 DUP9 MUL ADD DUP9 SSTORE POP POP POP JUMPDEST POP POP POP POP POP POP JUMP JUMPDEST PUSH32 0x4E487B7100000000000000000000000000000000000000000000000000000000 PUSH0 MSTORE PUSH1 0x32 PUSH1 0x4 MSTORE PUSH1 0x24 PUSH0 REVERT JUMPDEST PUSH32 0x545745455420444F4553204E4F54204558495354000000000000000000000000 PUSH0 DUP3 ADD MSTORE POP JUMP JUMPDEST PUSH0 PUSH2 0x181B PUSH1 0x14 DUP4 PUSH2 0xE4C JUMP JUMPDEST SWAP2 POP PUSH2 0x1826 DUP3 PUSH2 0x17E7 JUMP JUMPDEST PUSH1 0x20 DUP3 ADD SWAP1 POP SWAP2 SWAP1 POP JUMP JUMPDEST PUSH0 PUSH1 0x20 DUP3 ADD SWAP1 POP DUP2 DUP2 SUB PUSH0 DUP4 ADD MSTORE PUSH2 0x1848 DUP2 PUSH2 0x180F JUMP JUMPDEST SWAP1 POP SWAP2 SWAP1 POP JUMP JUMPDEST PUSH32 0x545745455420444F4553204E4F54204C494B4544000000000000000000000000 PUSH0 DUP3 ADD MSTORE POP JUMP JUMPDEST PUSH0 PUSH2 0x1883 PUSH1 0x14 DUP4 PUSH2 0xE4C JUMP JUMPDEST SWAP2 POP PUSH2 0x188E DUP3 PUSH2 0x184F JUMP JUMPDEST PUSH1 0x20 DUP3 ADD SWAP1 POP SWAP2 SWAP1 POP JUMP JUMPDEST PUSH0 PUSH1 0x20 DUP3 ADD SWAP1 POP DUP2 DUP2 SUB PUSH0 DUP4 ADD MSTORE PUSH2 0x18B0 DUP2 PUSH2 0x1877 JUMP JUMPDEST SWAP1 POP SWAP2 SWAP1 POP JUMP JUMPDEST PUSH32 0x4E487B7100000000000000000000000000000000000000000000000000000000 PUSH0 MSTORE PUSH1 0x11 PUSH1 0x4 MSTORE PUSH1 0x24 PUSH0 REVERT JUMPDEST PUSH0 PUSH2 0x18EE DUP3 PUSH2 0xDB3 JUMP JUMPDEST SWAP2 POP PUSH0 DUP3 SUB PUSH2 0x1900 JUMPI PUSH2 0x18FF PUSH2 0x18B7 JUMP JUMPDEST JUMPDEST PUSH1 0x1 DUP3 SUB SWAP1 POP SWAP2 SWAP1 POP JUMP JUMPDEST PUSH0 PUSH2 0x1915 DUP3 PUSH2 0xDB3 JUMP JUMPDEST SWAP2 POP PUSH32 0xFFFFFFFFFFFFFFFFFFFFFFFFFFFFFFFFFFFFFFFFFFFFFFFFFFFFFFFFFFFFFFFF DUP3 SUB PUSH2 0x1947 JUMPI PUSH2 0x1946 PUSH2 0x18B7 JUMP JUMPDEST JUMPDEST PUSH1 0x1 DUP3 ADD SWAP1 POP SWAP2 SWAP1 POP JUMP JUMPDEST PUSH32 0x496E76616C696420747765657420696E64657800000000000000000000000000 PUSH0 DUP3 ADD MSTORE POP JUMP JUMPDEST PUSH0 PUSH2 0x1986 PUSH1 0x13 DUP4 PUSH2 0xE4C JUMP JUMPDEST SWAP2 POP PUSH2 0x1991 DUP3 PUSH2 0x1952 JUMP JUMPDEST PUSH1 0x20 DUP3 ADD SWAP1 POP SWAP2 SWAP1 POP JUMP JUMPDEST PUSH0 PUSH1 0x20 DUP3 ADD SWAP1 POP DUP2 DUP2 SUB PUSH0 DUP4 ADD MSTORE PUSH2 0x19B3 DUP2 PUSH2 0x197A JUMP JUMPDEST SWAP1 POP SWAP2 SWAP1 POP JUMP INVALID LOG2 PUSH5 0x6970667358 0x22 SLT KECCAK256 0xAC CALLVALUE 0xEF JUMPI 0xCA 0xD7 GASPRICE 0xFB CALLER PUSH19 0x65AE57A4107FA69DC5EDD3DED6A5294D72C24A KECCAK256 0xF9 RETURN PUSH5 0x736F6C6343 STOP ADDMOD BYTE STOP CALLER "
				},
				"gasEstimates": {
					"creation": {
						"codeDepositCost": "1328000",
						"executionCost": "49963",
						"totalCost": "1377963"
					},
					"external": {
						"MAX_TWEET_LENGTH()": "2555",
						"changedTweetLength(uint16)": "26960",
						"createTweet(string)": "infinite",
						"deleteTweet(address)": "infinite",
						"getAllTweets(address)": "infinite",
						"getTweets(uint256)": "infinite",
						"likeTweet(uint256,address)": "infinite",
						"owner()": "2581",
						"tweets(address,uint256)": "infinite",
						"unlikeTweet(uint256,address)": "infinite"
					}
				},
				"methodIdentifiers": {
					"MAX_TWEET_LENGTH()": "6eb10797",
					"changedTweetLength(uint16)": "6d003c01",
					"createTweet(string)": "7c9cd2bc",
					"deleteTweet(address)": "20f7e65c",
					"getAllTweets(address)": "12e7ee1c",
					"getTweets(uint256)": "ed9bb8d7",
					"likeTweet(uint256,address)": "d04ddaa0",
					"owner()": "8da5cb5b",
					"tweets(address,uint256)": "05a1b4a9",
					"unlikeTweet(uint256,address)": "a1488f7c"
				}
			},
			"storageLayout": {
				"storage": [
					{
						"astId": 7,
						"contract": "contracts/Twitter.sol:Twitter",
						"label": "tweets",
						"offset": 0,
						"slot": "0",
						"type": "t_mapping(t_address,t_array(t_struct(Tweet)23_storage)dyn_storage)"
					},
					{
						"astId": 10,
						"contract": "contracts/Twitter.sol:Twitter",
						"label": "MAX_TWEET_LENGTH",
						"offset": 0,
						"slot": "1",
						"type": "t_uint16"
					},
					{
						"astId": 12,
						"contract": "contracts/Twitter.sol:Twitter",
						"label": "owner",
						"offset": 2,
						"slot": "1",
						"type": "t_address"
					}
				],
				"types": {
					"t_address": {
						"encoding": "inplace",
						"label": "address",
						"numberOfBytes": "20"
					},
					"t_array(t_struct(Tweet)23_storage)dyn_storage": {
						"base": "t_struct(Tweet)23_storage",
						"encoding": "dynamic_array",
						"label": "struct Twitter.Tweet[]",
						"numberOfBytes": "32"
					},
					"t_mapping(t_address,t_array(t_struct(Tweet)23_storage)dyn_storage)": {
						"encoding": "mapping",
						"key": "t_address",
						"label": "mapping(address => struct Twitter.Tweet[])",
						"numberOfBytes": "32",
						"value": "t_array(t_struct(Tweet)23_storage)dyn_storage"
					},
					"t_string_storage": {
						"encoding": "bytes",
						"label": "string",
						"numberOfBytes": "32"
					},
					"t_struct(Tweet)23_storage": {
						"encoding": "inplace",
						"label": "struct Twitter.Tweet",
						"members": [
							{
								"astId": 14,
								"contract": "contracts/Twitter.sol:Twitter",
								"label": "id",
								"offset": 0,
								"slot": "0",
								"type": "t_uint256"
							},
							{
								"astId": 16,
								"contract": "contracts/Twitter.sol:Twitter",
								"label": "author",
								"offset": 0,
								"slot": "1",
								"type": "t_address"
							},
							{
								"astId": 18,
								"contract": "contracts/Twitter.sol:Twitter",
								"label": "content",
								"offset": 0,
								"slot": "2",
								"type": "t_string_storage"
							},
							{
								"astId": 20,
								"contract": "contracts/Twitter.sol:Twitter",
								"label": "timestamp",
								"offset": 0,
								"slot": "3",
								"type": "t_uint256"
							},
							{
								"astId": 22,
								"contract": "contracts/Twitter.sol:Twitter",
								"label": "likes",
								"offset": 0,
								"slot": "4",
								"type": "t_uint256"
							}
						],
						"numberOfBytes": "160"
					},
					"t_uint16": {
						"encoding": "inplace",
						"label": "uint16",
						"numberOfBytes": "2"
					},
					"t_uint256": {
						"encoding": "inplace",
						"label": "uint256",
						"numberOfBytes": "32"
					}
				}
			},
			"userdoc": {
				"kind": "user",
				"methods": {},
				"version": 1
			}
		}
	}
}