{
	"contracts/Twitter-Interaction-User.sol": {
		"Profile": {
			"abi": [
				{
					"inputs": [
						{
							"internalType": "address",
							"name": "_user",
							"type": "address"
						}
					],
					"name": "getProfile",
					"outputs": [
						{
							"components": [
								{
									"internalType": "string",
									"name": "displayName",
									"type": "string"
								},
								{
									"internalType": "string",
									"name": "bio",
									"type": "string"
								}
							],
							"internalType": "struct Profile.UserProfile",
							"name": "",
							"type": "tuple"
						}
					],
					"stateMutability": "view",
					"type": "function"
				},
				{
					"inputs": [
						{
							"internalType": "string",
							"name": "_displayName",
							"type": "string"
						},
						{
							"internalType": "string",
							"name": "_bio",
							"type": "string"
						}
					],
					"name": "setProfile",
					"outputs": [],
					"stateMutability": "nonpayable",
					"type": "function"
				}
			],
			"devdoc": {
				"kind": "dev",
				"methods": {},
				"version": 1
			},
			"evm": {
				"assembly": "    /* \"contracts/Twitter-Interaction-User.sol\":191:723  contract Profile {... */\n  mstore(0x40, 0x80)\n  callvalue\n  dup1\n  iszero\n  tag_1\n  jumpi\n  0x00\n  dup1\n  revert\ntag_1:\n  pop\n  dataSize(sub_0)\n  dup1\n  dataOffset(sub_0)\n  0x00\n  codecopy\n  0x00\n  return\nstop\n\nsub_0: assembly {\n        /* \"contracts/Twitter-Interaction-User.sol\":191:723  contract Profile {... */\n      mstore(0x40, 0x80)\n      callvalue\n      dup1\n      iszero\n      tag_1\n      jumpi\n      0x00\n      dup1\n      revert\n    tag_1:\n      pop\n      jumpi(tag_2, lt(calldatasize, 0x04))\n      shr(0xe0, calldataload(0x00))\n      dup1\n      0x0f53a470\n      eq\n      tag_3\n      jumpi\n      dup1\n      0x719e37ae\n      eq\n      tag_4\n      jumpi\n    tag_2:\n      0x00\n      dup1\n      revert\n        /* \"contracts/Twitter-Interaction-User.sol\":578:721  function getProfile(address _user)... */\n    tag_3:\n      tag_5\n      0x04\n      dup1\n      calldatasize\n      sub\n      dup2\n      add\n      swap1\n      tag_6\n      swap2\n      swap1\n      tag_7\n      jump\t// in\n    tag_6:\n      tag_8\n      jump\t// in\n    tag_5:\n      mload(0x40)\n      tag_9\n      swap2\n      swap1\n      tag_10\n      jump\t// in\n    tag_9:\n      mload(0x40)\n      dup1\n      swap2\n      sub\n      swap1\n      return\n        /* \"contracts/Twitter-Interaction-User.sol\":350:572  function setProfile(string memory _displayName, string memory _bio) public {... */\n    tag_4:\n      tag_11\n      0x04\n      dup1\n      calldatasize\n      sub\n      dup2\n      add\n      swap1\n      tag_12\n      swap2\n      swap1\n      tag_13\n      jump\t// in\n    tag_12:\n      tag_14\n      jump\t// in\n    tag_11:\n      stop\n        /* \"contracts/Twitter-Interaction-User.sol\":578:721  function getProfile(address _user)... */\n    tag_8:\n        /* \"contracts/Twitter-Interaction-User.sol\":658:676  UserProfile memory */\n      tag_15\n      tag_16\n      jump\t// in\n    tag_15:\n        /* \"contracts/Twitter-Interaction-User.sol\":699:707  profiles */\n      0x00\n        /* \"contracts/Twitter-Interaction-User.sol\":699:714  profiles[_user] */\n      dup1\n        /* \"contracts/Twitter-Interaction-User.sol\":708:713  _user */\n      dup4\n        /* \"contracts/Twitter-Interaction-User.sol\":699:714  profiles[_user] */\n      0xffffffffffffffffffffffffffffffffffffffff\n      and\n      0xffffffffffffffffffffffffffffffffffffffff\n      and\n      dup2\n      mstore\n      0x20\n      add\n      swap1\n      dup2\n      mstore\n      0x20\n      add\n      0x00\n      keccak256\n        /* \"contracts/Twitter-Interaction-User.sol\":692:714  return profiles[_user] */\n      mload(0x40)\n      dup1\n      0x40\n      add\n      0x40\n      mstore\n      swap1\n      dup2\n      0x00\n      dup3\n      add\n      dup1\n      sload\n      tag_18\n      swap1\n      tag_19\n      jump\t// in\n    tag_18:\n      dup1\n      0x1f\n      add\n      0x20\n      dup1\n      swap2\n      div\n      mul\n      0x20\n      add\n      mload(0x40)\n      swap1\n      dup2\n      add\n      0x40\n      mstore\n      dup1\n      swap3\n      swap2\n      swap1\n      dup2\n      dup2\n      mstore\n      0x20\n      add\n      dup3\n      dup1\n      sload\n      tag_20\n      swap1\n      tag_19\n      jump\t// in\n    tag_20:\n      dup1\n      iszero\n      tag_21\n      jumpi\n      dup1\n      0x1f\n      lt\n      tag_22\n      jumpi\n      0x0100\n      dup1\n      dup4\n      sload\n      div\n      mul\n      dup4\n      mstore\n      swap2\n      0x20\n      add\n      swap2\n      jump(tag_21)\n    tag_22:\n      dup3\n      add\n      swap2\n      swap1\n      0x00\n      mstore\n      keccak256(0x00, 0x20)\n      swap1\n    tag_23:\n      dup2\n      sload\n      dup2\n      mstore\n      swap1\n      0x01\n      add\n      swap1\n      0x20\n      add\n      dup1\n      dup4\n      gt\n      tag_23\n      jumpi\n      dup3\n      swap1\n      sub\n      0x1f\n      and\n      dup3\n      add\n      swap2\n    tag_21:\n      pop\n      pop\n      pop\n      pop\n      pop\n      dup2\n      mstore\n      0x20\n      add\n      0x01\n      dup3\n      add\n      dup1\n      sload\n      tag_24\n      swap1\n      tag_19\n      jump\t// in\n    tag_24:\n      dup1\n      0x1f\n      add\n      0x20\n      dup1\n      swap2\n      div\n      mul\n      0x20\n      add\n      mload(0x40)\n      swap1\n      dup2\n      add\n      0x40\n      mstore\n      dup1\n      swap3\n      swap2\n      swap1\n      dup2\n      dup2\n      mstore\n      0x20\n      add\n      dup3\n      dup1\n      sload\n      tag_25\n      swap1\n      tag_19\n      jump\t// in\n    tag_25:\n      dup1\n      iszero\n      tag_26\n      jumpi\n      dup1\n      0x1f\n      lt\n      tag_27\n      jumpi\n      0x0100\n      dup1\n      dup4\n      sload\n      div\n      mul\n      dup4\n      mstore\n      swap2\n      0x20\n      add\n      swap2\n      jump(tag_26)\n    tag_27:\n      dup3\n      add\n      swap2\n      swap1\n      0x00\n      mstore\n      keccak256(0x00, 0x20)\n      swap1\n    tag_28:\n      dup2\n      sload\n      dup2\n      mstore\n      swap1\n      0x01\n      add\n      swap1\n      0x20\n      add\n      dup1\n      dup4\n      gt\n      tag_28\n      jumpi\n      dup3\n      swap1\n      sub\n      0x1f\n      and\n      dup3\n      add\n      swap2\n    tag_26:\n      pop\n      pop\n      pop\n      pop\n      pop\n      dup2\n      mstore\n      pop\n      pop\n      swap1\n      pop\n        /* \"contracts/Twitter-Interaction-User.sol\":578:721  function getProfile(address _user)... */\n      swap2\n      swap1\n      pop\n      jump\t// out\n        /* \"contracts/Twitter-Interaction-User.sol\":350:572  function setProfile(string memory _displayName, string memory _bio) public {... */\n    tag_14:\n        /* \"contracts/Twitter-Interaction-User.sol\":480:565  UserProfile({... */\n      mload(0x40)\n      dup1\n      0x40\n      add\n      0x40\n      mstore\n      dup1\n        /* \"contracts/Twitter-Interaction-User.sol\":519:531  _displayName */\n      dup4\n        /* \"contracts/Twitter-Interaction-User.sol\":480:565  UserProfile({... */\n      dup2\n      mstore\n      0x20\n      add\n        /* \"contracts/Twitter-Interaction-User.sol\":550:554  _bio */\n      dup3\n        /* \"contracts/Twitter-Interaction-User.sol\":480:565  UserProfile({... */\n      dup2\n      mstore\n      pop\n        /* \"contracts/Twitter-Interaction-User.sol\":457:465  profiles */\n      0x00\n        /* \"contracts/Twitter-Interaction-User.sol\":457:477  profiles[msg.sender] */\n      dup1\n        /* \"contracts/Twitter-Interaction-User.sol\":466:476  msg.sender */\n      caller\n        /* \"contracts/Twitter-Interaction-User.sol\":457:477  profiles[msg.sender] */\n      0xffffffffffffffffffffffffffffffffffffffff\n      and\n      0xffffffffffffffffffffffffffffffffffffffff\n      and\n      dup2\n      mstore\n      0x20\n      add\n      swap1\n      dup2\n      mstore\n      0x20\n      add\n      0x00\n      keccak256\n        /* \"contracts/Twitter-Interaction-User.sol\":457:565  profiles[msg.sender] = UserProfile({... */\n      0x00\n      dup3\n      add\n      mload\n      dup2\n      0x00\n      add\n      swap1\n      dup2\n      tag_30\n      swap2\n      swap1\n      tag_31\n      jump\t// in\n    tag_30:\n      pop\n      0x20\n      dup3\n      add\n      mload\n      dup2\n      0x01\n      add\n      swap1\n      dup2\n      tag_32\n      swap2\n      swap1\n      tag_31\n      jump\t// in\n    tag_32:\n      pop\n      swap1\n      pop\n      pop\n        /* \"contracts/Twitter-Interaction-User.sol\":350:572  function setProfile(string memory _displayName, string memory _bio) public {... */\n      pop\n      pop\n      jump\t// out\n    tag_16:\n      mload(0x40)\n      dup1\n      0x40\n      add\n      0x40\n      mstore\n      dup1\n      0x60\n      dup2\n      mstore\n      0x20\n      add\n      0x60\n      dup2\n      mstore\n      pop\n      swap1\n      jump\t// out\n        /* \"#utility.yul\":7:82   */\n    tag_33:\n        /* \"#utility.yul\":40:46   */\n      0x00\n        /* \"#utility.yul\":73:75   */\n      0x40\n        /* \"#utility.yul\":67:76   */\n      mload\n        /* \"#utility.yul\":57:76   */\n      swap1\n      pop\n        /* \"#utility.yul\":7:82   */\n      swap1\n      jump\t// out\n        /* \"#utility.yul\":88:205   */\n    tag_34:\n        /* \"#utility.yul\":197:198   */\n      0x00\n        /* \"#utility.yul\":194:195   */\n      dup1\n        /* \"#utility.yul\":187:199   */\n      revert\n        /* \"#utility.yul\":211:328   */\n    tag_35:\n        /* \"#utility.yul\":320:321   */\n      0x00\n        /* \"#utility.yul\":317:318   */\n      dup1\n        /* \"#utility.yul\":310:322   */\n      revert\n        /* \"#utility.yul\":334:460   */\n    tag_36:\n        /* \"#utility.yul\":371:378   */\n      0x00\n        /* \"#utility.yul\":411:453   */\n      0xffffffffffffffffffffffffffffffffffffffff\n        /* \"#utility.yul\":404:409   */\n      dup3\n        /* \"#utility.yul\":400:454   */\n      and\n        /* \"#utility.yul\":389:454   */\n      swap1\n      pop\n        /* \"#utility.yul\":334:460   */\n      swap2\n      swap1\n      pop\n      jump\t// out\n        /* \"#utility.yul\":466:562   */\n    tag_37:\n        /* \"#utility.yul\":503:510   */\n      0x00\n        /* \"#utility.yul\":532:556   */\n      tag_78\n        /* \"#utility.yul\":550:555   */\n      dup3\n        /* \"#utility.yul\":532:556   */\n      tag_36\n      jump\t// in\n    tag_78:\n        /* \"#utility.yul\":521:556   */\n      swap1\n      pop\n        /* \"#utility.yul\":466:562   */\n      swap2\n      swap1\n      pop\n      jump\t// out\n        /* \"#utility.yul\":568:690   */\n    tag_38:\n        /* \"#utility.yul\":641:665   */\n      tag_80\n        /* \"#utility.yul\":659:664   */\n      dup2\n        /* \"#utility.yul\":641:665   */\n      tag_37\n      jump\t// in\n    tag_80:\n        /* \"#utility.yul\":634:639   */\n      dup2\n        /* \"#utility.yul\":631:666   */\n      eq\n        /* \"#utility.yul\":621:684   */\n      tag_81\n      jumpi\n        /* \"#utility.yul\":680:681   */\n      0x00\n        /* \"#utility.yul\":677:678   */\n      dup1\n        /* \"#utility.yul\":670:682   */\n      revert\n        /* \"#utility.yul\":621:684   */\n    tag_81:\n        /* \"#utility.yul\":568:690   */\n      pop\n      jump\t// out\n        /* \"#utility.yul\":696:835   */\n    tag_39:\n        /* \"#utility.yul\":742:747   */\n      0x00\n        /* \"#utility.yul\":780:786   */\n      dup2\n        /* \"#utility.yul\":767:787   */\n      calldataload\n        /* \"#utility.yul\":758:787   */\n      swap1\n      pop\n        /* \"#utility.yul\":796:829   */\n      tag_83\n        /* \"#utility.yul\":823:828   */\n      dup2\n        /* \"#utility.yul\":796:829   */\n      tag_38\n      jump\t// in\n    tag_83:\n        /* \"#utility.yul\":696:835   */\n      swap3\n      swap2\n      pop\n      pop\n      jump\t// out\n        /* \"#utility.yul\":841:1170   */\n    tag_7:\n        /* \"#utility.yul\":900:906   */\n      0x00\n        /* \"#utility.yul\":949:951   */\n      0x20\n        /* \"#utility.yul\":937:946   */\n      dup3\n        /* \"#utility.yul\":928:935   */\n      dup5\n        /* \"#utility.yul\":924:947   */\n      sub\n        /* \"#utility.yul\":920:952   */\n      slt\n        /* \"#utility.yul\":917:1036   */\n      iszero\n      tag_85\n      jumpi\n        /* \"#utility.yul\":955:1034   */\n      tag_86\n      tag_34\n      jump\t// in\n    tag_86:\n        /* \"#utility.yul\":917:1036   */\n    tag_85:\n        /* \"#utility.yul\":1075:1076   */\n      0x00\n        /* \"#utility.yul\":1100:1153   */\n      tag_87\n        /* \"#utility.yul\":1145:1152   */\n      dup5\n        /* \"#utility.yul\":1136:1142   */\n      dup3\n        /* \"#utility.yul\":1125:1134   */\n      dup6\n        /* \"#utility.yul\":1121:1143   */\n      add\n        /* \"#utility.yul\":1100:1153   */\n      tag_39\n      jump\t// in\n    tag_87:\n        /* \"#utility.yul\":1090:1153   */\n      swap2\n      pop\n        /* \"#utility.yul\":1046:1163   */\n      pop\n        /* \"#utility.yul\":841:1170   */\n      swap3\n      swap2\n      pop\n      pop\n      jump\t// out\n        /* \"#utility.yul\":1176:1275   */\n    tag_40:\n        /* \"#utility.yul\":1228:1234   */\n      0x00\n        /* \"#utility.yul\":1262:1267   */\n      dup2\n        /* \"#utility.yul\":1256:1268   */\n      mload\n        /* \"#utility.yul\":1246:1268   */\n      swap1\n      pop\n        /* \"#utility.yul\":1176:1275   */\n      swap2\n      swap1\n      pop\n      jump\t// out\n        /* \"#utility.yul\":1281:1440   */\n    tag_41:\n        /* \"#utility.yul\":1355:1366   */\n      0x00\n        /* \"#utility.yul\":1389:1395   */\n      dup3\n        /* \"#utility.yul\":1384:1387   */\n      dup3\n        /* \"#utility.yul\":1377:1396   */\n      mstore\n        /* \"#utility.yul\":1429:1433   */\n      0x20\n        /* \"#utility.yul\":1424:1427   */\n      dup3\n        /* \"#utility.yul\":1420:1434   */\n      add\n        /* \"#utility.yul\":1405:1434   */\n      swap1\n      pop\n        /* \"#utility.yul\":1281:1440   */\n      swap3\n      swap2\n      pop\n      pop\n      jump\t// out\n        /* \"#utility.yul\":1446:1585   */\n    tag_42:\n        /* \"#utility.yul\":1535:1541   */\n      dup3\n        /* \"#utility.yul\":1530:1533   */\n      dup2\n        /* \"#utility.yul\":1525:1528   */\n      dup4\n        /* \"#utility.yul\":1519:1542   */\n      mcopy\n        /* \"#utility.yul\":1576:1577   */\n      0x00\n        /* \"#utility.yul\":1567:1573   */\n      dup4\n        /* \"#utility.yul\":1562:1565   */\n      dup4\n        /* \"#utility.yul\":1558:1574   */\n      add\n        /* \"#utility.yul\":1551:1578   */\n      mstore\n        /* \"#utility.yul\":1446:1585   */\n      pop\n      pop\n      pop\n      jump\t// out\n        /* \"#utility.yul\":1591:1693   */\n    tag_43:\n        /* \"#utility.yul\":1632:1638   */\n      0x00\n        /* \"#utility.yul\":1683:1685   */\n      0x1f\n        /* \"#utility.yul\":1679:1686   */\n      not\n        /* \"#utility.yul\":1674:1676   */\n      0x1f\n        /* \"#utility.yul\":1667:1672   */\n      dup4\n        /* \"#utility.yul\":1663:1677   */\n      add\n        /* \"#utility.yul\":1659:1687   */\n      and\n        /* \"#utility.yul\":1649:1687   */\n      swap1\n      pop\n        /* \"#utility.yul\":1591:1693   */\n      swap2\n      swap1\n      pop\n      jump\t// out\n        /* \"#utility.yul\":1699:2056   */\n    tag_44:\n        /* \"#utility.yul\":1777:1780   */\n      0x00\n        /* \"#utility.yul\":1805:1844   */\n      tag_93\n        /* \"#utility.yul\":1838:1843   */\n      dup3\n        /* \"#utility.yul\":1805:1844   */\n      tag_40\n      jump\t// in\n    tag_93:\n        /* \"#utility.yul\":1860:1921   */\n      tag_94\n        /* \"#utility.yul\":1914:1920   */\n      dup2\n        /* \"#utility.yul\":1909:1912   */\n      dup6\n        /* \"#utility.yul\":1860:1921   */\n      tag_41\n      jump\t// in\n    tag_94:\n        /* \"#utility.yul\":1853:1921   */\n      swap4\n      pop\n        /* \"#utility.yul\":1930:1995   */\n      tag_95\n        /* \"#utility.yul\":1988:1994   */\n      dup2\n        /* \"#utility.yul\":1983:1986   */\n      dup6\n        /* \"#utility.yul\":1976:1980   */\n      0x20\n        /* \"#utility.yul\":1969:1974   */\n      dup7\n        /* \"#utility.yul\":1965:1981   */\n      add\n        /* \"#utility.yul\":1930:1995   */\n      tag_42\n      jump\t// in\n    tag_95:\n        /* \"#utility.yul\":2020:2049   */\n      tag_96\n        /* \"#utility.yul\":2042:2048   */\n      dup2\n        /* \"#utility.yul\":2020:2049   */\n      tag_43\n      jump\t// in\n    tag_96:\n        /* \"#utility.yul\":2015:2018   */\n      dup5\n        /* \"#utility.yul\":2011:2050   */\n      add\n        /* \"#utility.yul\":2004:2050   */\n      swap2\n      pop\n        /* \"#utility.yul\":1781:2056   */\n      pop\n        /* \"#utility.yul\":1699:2056   */\n      swap3\n      swap2\n      pop\n      pop\n      jump\t// out\n        /* \"#utility.yul\":2126:2811   */\n    tag_45:\n        /* \"#utility.yul\":2247:2250   */\n      0x00\n        /* \"#utility.yul\":2283:2287   */\n      0x40\n        /* \"#utility.yul\":2278:2281   */\n      dup4\n        /* \"#utility.yul\":2274:2288   */\n      add\n        /* \"#utility.yul\":2377:2381   */\n      0x00\n        /* \"#utility.yul\":2370:2375   */\n      dup4\n        /* \"#utility.yul\":2366:2382   */\n      add\n        /* \"#utility.yul\":2360:2383   */\n      mload\n        /* \"#utility.yul\":2430:2433   */\n      dup5\n        /* \"#utility.yul\":2424:2428   */\n      dup3\n        /* \"#utility.yul\":2420:2434   */\n      sub\n        /* \"#utility.yul\":2413:2417   */\n      0x00\n        /* \"#utility.yul\":2408:2411   */\n      dup7\n        /* \"#utility.yul\":2404:2418   */\n      add\n        /* \"#utility.yul\":2397:2435   */\n      mstore\n        /* \"#utility.yul\":2456:2529   */\n      tag_98\n        /* \"#utility.yul\":2524:2528   */\n      dup3\n        /* \"#utility.yul\":2510:2522   */\n      dup3\n        /* \"#utility.yul\":2456:2529   */\n      tag_44\n      jump\t// in\n    tag_98:\n        /* \"#utility.yul\":2448:2529   */\n      swap2\n      pop\n        /* \"#utility.yul\":2298:2540   */\n      pop\n        /* \"#utility.yul\":2621:2625   */\n      0x20\n        /* \"#utility.yul\":2614:2619   */\n      dup4\n        /* \"#utility.yul\":2610:2626   */\n      add\n        /* \"#utility.yul\":2604:2627   */\n      mload\n        /* \"#utility.yul\":2674:2677   */\n      dup5\n        /* \"#utility.yul\":2668:2672   */\n      dup3\n        /* \"#utility.yul\":2664:2678   */\n      sub\n        /* \"#utility.yul\":2657:2661   */\n      0x20\n        /* \"#utility.yul\":2652:2655   */\n      dup7\n        /* \"#utility.yul\":2648:2662   */\n      add\n        /* \"#utility.yul\":2641:2679   */\n      mstore\n        /* \"#utility.yul\":2700:2773   */\n      tag_99\n        /* \"#utility.yul\":2768:2772   */\n      dup3\n        /* \"#utility.yul\":2754:2766   */\n      dup3\n        /* \"#utility.yul\":2700:2773   */\n      tag_44\n      jump\t// in\n    tag_99:\n        /* \"#utility.yul\":2692:2773   */\n      swap2\n      pop\n        /* \"#utility.yul\":2550:2784   */\n      pop\n        /* \"#utility.yul\":2801:2805   */\n      dup1\n        /* \"#utility.yul\":2794:2805   */\n      swap2\n      pop\n        /* \"#utility.yul\":2252:2811   */\n      pop\n        /* \"#utility.yul\":2126:2811   */\n      swap3\n      swap2\n      pop\n      pop\n      jump\t// out\n        /* \"#utility.yul\":2817:3194   */\n    tag_10:\n        /* \"#utility.yul\":2962:2966   */\n      0x00\n        /* \"#utility.yul\":3000:3002   */\n      0x20\n        /* \"#utility.yul\":2989:2998   */\n      dup3\n        /* \"#utility.yul\":2985:3003   */\n      add\n        /* \"#utility.yul\":2977:3003   */\n      swap1\n      pop\n        /* \"#utility.yul\":3049:3058   */\n      dup2\n        /* \"#utility.yul\":3043:3047   */\n      dup2\n        /* \"#utility.yul\":3039:3059   */\n      sub\n        /* \"#utility.yul\":3035:3036   */\n      0x00\n        /* \"#utility.yul\":3024:3033   */\n      dup4\n        /* \"#utility.yul\":3020:3037   */\n      add\n        /* \"#utility.yul\":3013:3060   */\n      mstore\n        /* \"#utility.yul\":3077:3187   */\n      tag_101\n        /* \"#utility.yul\":3182:3186   */\n      dup2\n        /* \"#utility.yul\":3173:3179   */\n      dup5\n        /* \"#utility.yul\":3077:3187   */\n      tag_45\n      jump\t// in\n    tag_101:\n        /* \"#utility.yul\":3069:3187   */\n      swap1\n      pop\n        /* \"#utility.yul\":2817:3194   */\n      swap3\n      swap2\n      pop\n      pop\n      jump\t// out\n        /* \"#utility.yul\":3200:3317   */\n    tag_46:\n        /* \"#utility.yul\":3309:3310   */\n      0x00\n        /* \"#utility.yul\":3306:3307   */\n      dup1\n        /* \"#utility.yul\":3299:3311   */\n      revert\n        /* \"#utility.yul\":3323:3440   */\n    tag_47:\n        /* \"#utility.yul\":3432:3433   */\n      0x00\n        /* \"#utility.yul\":3429:3430   */\n      dup1\n        /* \"#utility.yul\":3422:3434   */\n      revert\n        /* \"#utility.yul\":3446:3626   */\n    tag_48:\n        /* \"#utility.yul\":3494:3571   */\n      0x4e487b7100000000000000000000000000000000000000000000000000000000\n        /* \"#utility.yul\":3491:3492   */\n      0x00\n        /* \"#utility.yul\":3484:3572   */\n      mstore\n        /* \"#utility.yul\":3591:3595   */\n      0x41\n        /* \"#utility.yul\":3588:3589   */\n      0x04\n        /* \"#utility.yul\":3581:3596   */\n      mstore\n        /* \"#utility.yul\":3615:3619   */\n      0x24\n        /* \"#utility.yul\":3612:3613   */\n      0x00\n        /* \"#utility.yul\":3605:3620   */\n      revert\n        /* \"#utility.yul\":3632:3913   */\n    tag_49:\n        /* \"#utility.yul\":3715:3742   */\n      tag_106\n        /* \"#utility.yul\":3737:3741   */\n      dup3\n        /* \"#utility.yul\":3715:3742   */\n      tag_43\n      jump\t// in\n    tag_106:\n        /* \"#utility.yul\":3707:3713   */\n      dup2\n        /* \"#utility.yul\":3703:3743   */\n      add\n        /* \"#utility.yul\":3845:3851   */\n      dup2\n        /* \"#utility.yul\":3833:3843   */\n      dup2\n        /* \"#utility.yul\":3830:3852   */\n      lt\n        /* \"#utility.yul\":3809:3827   */\n      0xffffffffffffffff\n        /* \"#utility.yul\":3797:3807   */\n      dup3\n        /* \"#utility.yul\":3794:3828   */\n      gt\n        /* \"#utility.yul\":3791:3853   */\n      or\n        /* \"#utility.yul\":3788:3876   */\n      iszero\n      tag_107\n      jumpi\n        /* \"#utility.yul\":3856:3874   */\n      tag_108\n      tag_48\n      jump\t// in\n    tag_108:\n        /* \"#utility.yul\":3788:3876   */\n    tag_107:\n        /* \"#utility.yul\":3896:3906   */\n      dup1\n        /* \"#utility.yul\":3892:3894   */\n      0x40\n        /* \"#utility.yul\":3885:3907   */\n      mstore\n        /* \"#utility.yul\":3675:3913   */\n      pop\n        /* \"#utility.yul\":3632:3913   */\n      pop\n      pop\n      jump\t// out\n        /* \"#utility.yul\":3919:4048   */\n    tag_50:\n        /* \"#utility.yul\":3953:3959   */\n      0x00\n        /* \"#utility.yul\":3980:4000   */\n      tag_110\n      tag_33\n      jump\t// in\n    tag_110:\n        /* \"#utility.yul\":3970:4000   */\n      swap1\n      pop\n        /* \"#utility.yul\":4009:4042   */\n      tag_111\n        /* \"#utility.yul\":4037:4041   */\n      dup3\n        /* \"#utility.yul\":4029:4035   */\n      dup3\n        /* \"#utility.yul\":4009:4042   */\n      tag_49\n      jump\t// in\n    tag_111:\n        /* \"#utility.yul\":3919:4048   */\n      swap2\n      swap1\n      pop\n      jump\t// out\n        /* \"#utility.yul\":4054:4362   */\n    tag_51:\n        /* \"#utility.yul\":4116:4120   */\n      0x00\n        /* \"#utility.yul\":4206:4224   */\n      0xffffffffffffffff\n        /* \"#utility.yul\":4198:4204   */\n      dup3\n        /* \"#utility.yul\":4195:4225   */\n      gt\n        /* \"#utility.yul\":4192:4248   */\n      iszero\n      tag_113\n      jumpi\n        /* \"#utility.yul\":4228:4246   */\n      tag_114\n      tag_48\n      jump\t// in\n    tag_114:\n        /* \"#utility.yul\":4192:4248   */\n    tag_113:\n        /* \"#utility.yul\":4266:4295   */\n      tag_115\n        /* \"#utility.yul\":4288:4294   */\n      dup3\n        /* \"#utility.yul\":4266:4295   */\n      tag_43\n      jump\t// in\n    tag_115:\n        /* \"#utility.yul\":4258:4295   */\n      swap1\n      pop\n        /* \"#utility.yul\":4350:4354   */\n      0x20\n        /* \"#utility.yul\":4344:4348   */\n      dup2\n        /* \"#utility.yul\":4340:4355   */\n      add\n        /* \"#utility.yul\":4332:4355   */\n      swap1\n      pop\n        /* \"#utility.yul\":4054:4362   */\n      swap2\n      swap1\n      pop\n      jump\t// out\n        /* \"#utility.yul\":4368:4516   */\n    tag_52:\n        /* \"#utility.yul\":4466:4472   */\n      dup3\n        /* \"#utility.yul\":4461:4464   */\n      dup2\n        /* \"#utility.yul\":4456:4459   */\n      dup4\n        /* \"#utility.yul\":4443:4473   */\n      calldatacopy\n        /* \"#utility.yul\":4507:4508   */\n      0x00\n        /* \"#utility.yul\":4498:4504   */\n      dup4\n        /* \"#utility.yul\":4493:4496   */\n      dup4\n        /* \"#utility.yul\":4489:4505   */\n      add\n        /* \"#utility.yul\":4482:4509   */\n      mstore\n        /* \"#utility.yul\":4368:4516   */\n      pop\n      pop\n      pop\n      jump\t// out\n        /* \"#utility.yul\":4522:4947   */\n    tag_53:\n        /* \"#utility.yul\":4600:4605   */\n      0x00\n        /* \"#utility.yul\":4625:4691   */\n      tag_118\n        /* \"#utility.yul\":4641:4690   */\n      tag_119\n        /* \"#utility.yul\":4683:4689   */\n      dup5\n        /* \"#utility.yul\":4641:4690   */\n      tag_51\n      jump\t// in\n    tag_119:\n        /* \"#utility.yul\":4625:4691   */\n      tag_50\n      jump\t// in\n    tag_118:\n        /* \"#utility.yul\":4616:4691   */\n      swap1\n      pop\n        /* \"#utility.yul\":4714:4720   */\n      dup3\n        /* \"#utility.yul\":4707:4712   */\n      dup2\n        /* \"#utility.yul\":4700:4721   */\n      mstore\n        /* \"#utility.yul\":4752:4756   */\n      0x20\n        /* \"#utility.yul\":4745:4750   */\n      dup2\n        /* \"#utility.yul\":4741:4757   */\n      add\n        /* \"#utility.yul\":4790:4793   */\n      dup5\n        /* \"#utility.yul\":4781:4787   */\n      dup5\n        /* \"#utility.yul\":4776:4779   */\n      dup5\n        /* \"#utility.yul\":4772:4788   */\n      add\n        /* \"#utility.yul\":4769:4794   */\n      gt\n        /* \"#utility.yul\":4766:4878   */\n      iszero\n      tag_120\n      jumpi\n        /* \"#utility.yul\":4797:4876   */\n      tag_121\n      tag_47\n      jump\t// in\n    tag_121:\n        /* \"#utility.yul\":4766:4878   */\n    tag_120:\n        /* \"#utility.yul\":4887:4941   */\n      tag_122\n        /* \"#utility.yul\":4934:4940   */\n      dup5\n        /* \"#utility.yul\":4929:4932   */\n      dup3\n        /* \"#utility.yul\":4924:4927   */\n      dup6\n        /* \"#utility.yul\":4887:4941   */\n      tag_52\n      jump\t// in\n    tag_122:\n        /* \"#utility.yul\":4606:4947   */\n      pop\n        /* \"#utility.yul\":4522:4947   */\n      swap4\n      swap3\n      pop\n      pop\n      pop\n      jump\t// out\n        /* \"#utility.yul\":4967:5307   */\n    tag_54:\n        /* \"#utility.yul\":5023:5028   */\n      0x00\n        /* \"#utility.yul\":5072:5075   */\n      dup3\n        /* \"#utility.yul\":5065:5069   */\n      0x1f\n        /* \"#utility.yul\":5057:5063   */\n      dup4\n        /* \"#utility.yul\":5053:5070   */\n      add\n        /* \"#utility.yul\":5049:5076   */\n      slt\n        /* \"#utility.yul\":5039:5161   */\n      tag_124\n      jumpi\n        /* \"#utility.yul\":5080:5159   */\n      tag_125\n      tag_46\n      jump\t// in\n    tag_125:\n        /* \"#utility.yul\":5039:5161   */\n    tag_124:\n        /* \"#utility.yul\":5197:5203   */\n      dup2\n        /* \"#utility.yul\":5184:5204   */\n      calldataload\n        /* \"#utility.yul\":5222:5301   */\n      tag_126\n        /* \"#utility.yul\":5297:5300   */\n      dup5\n        /* \"#utility.yul\":5289:5295   */\n      dup3\n        /* \"#utility.yul\":5282:5286   */\n      0x20\n        /* \"#utility.yul\":5274:5280   */\n      dup7\n        /* \"#utility.yul\":5270:5287   */\n      add\n        /* \"#utility.yul\":5222:5301   */\n      tag_53\n      jump\t// in\n    tag_126:\n        /* \"#utility.yul\":5213:5301   */\n      swap2\n      pop\n        /* \"#utility.yul\":5029:5307   */\n      pop\n        /* \"#utility.yul\":4967:5307   */\n      swap3\n      swap2\n      pop\n      pop\n      jump\t// out\n        /* \"#utility.yul\":5313:6147   */\n    tag_13:\n        /* \"#utility.yul\":5401:5407   */\n      0x00\n        /* \"#utility.yul\":5409:5415   */\n      dup1\n        /* \"#utility.yul\":5458:5460   */\n      0x40\n        /* \"#utility.yul\":5446:5455   */\n      dup4\n        /* \"#utility.yul\":5437:5444   */\n      dup6\n        /* \"#utility.yul\":5433:5456   */\n      sub\n        /* \"#utility.yul\":5429:5461   */\n      slt\n        /* \"#utility.yul\":5426:5545   */\n      iszero\n      tag_128\n      jumpi\n        /* \"#utility.yul\":5464:5543   */\n      tag_129\n      tag_34\n      jump\t// in\n    tag_129:\n        /* \"#utility.yul\":5426:5545   */\n    tag_128:\n        /* \"#utility.yul\":5612:5613   */\n      0x00\n        /* \"#utility.yul\":5601:5610   */\n      dup4\n        /* \"#utility.yul\":5597:5614   */\n      add\n        /* \"#utility.yul\":5584:5615   */\n      calldataload\n        /* \"#utility.yul\":5642:5660   */\n      0xffffffffffffffff\n        /* \"#utility.yul\":5634:5640   */\n      dup2\n        /* \"#utility.yul\":5631:5661   */\n      gt\n        /* \"#utility.yul\":5628:5745   */\n      iszero\n      tag_130\n      jumpi\n        /* \"#utility.yul\":5664:5743   */\n      tag_131\n      tag_35\n      jump\t// in\n    tag_131:\n        /* \"#utility.yul\":5628:5745   */\n    tag_130:\n        /* \"#utility.yul\":5769:5832   */\n      tag_132\n        /* \"#utility.yul\":5824:5831   */\n      dup6\n        /* \"#utility.yul\":5815:5821   */\n      dup3\n        /* \"#utility.yul\":5804:5813   */\n      dup7\n        /* \"#utility.yul\":5800:5822   */\n      add\n        /* \"#utility.yul\":5769:5832   */\n      tag_54\n      jump\t// in\n    tag_132:\n        /* \"#utility.yul\":5759:5832   */\n      swap3\n      pop\n        /* \"#utility.yul\":5555:5842   */\n      pop\n        /* \"#utility.yul\":5909:5911   */\n      0x20\n        /* \"#utility.yul\":5898:5907   */\n      dup4\n        /* \"#utility.yul\":5894:5912   */\n      add\n        /* \"#utility.yul\":5881:5913   */\n      calldataload\n        /* \"#utility.yul\":5940:5958   */\n      0xffffffffffffffff\n        /* \"#utility.yul\":5932:5938   */\n      dup2\n        /* \"#utility.yul\":5929:5959   */\n      gt\n        /* \"#utility.yul\":5926:6043   */\n      iszero\n      tag_133\n      jumpi\n        /* \"#utility.yul\":5962:6041   */\n      tag_134\n      tag_35\n      jump\t// in\n    tag_134:\n        /* \"#utility.yul\":5926:6043   */\n    tag_133:\n        /* \"#utility.yul\":6067:6130   */\n      tag_135\n        /* \"#utility.yul\":6122:6129   */\n      dup6\n        /* \"#utility.yul\":6113:6119   */\n      dup3\n        /* \"#utility.yul\":6102:6111   */\n      dup7\n        /* \"#utility.yul\":6098:6120   */\n      add\n        /* \"#utility.yul\":6067:6130   */\n      tag_54\n      jump\t// in\n    tag_135:\n        /* \"#utility.yul\":6057:6130   */\n      swap2\n      pop\n        /* \"#utility.yul\":5852:6140   */\n      pop\n        /* \"#utility.yul\":5313:6147   */\n      swap3\n      pop\n      swap3\n      swap1\n      pop\n      jump\t// out\n        /* \"#utility.yul\":6153:6333   */\n    tag_55:\n        /* \"#utility.yul\":6201:6278   */\n      0x4e487b7100000000000000000000000000000000000000000000000000000000\n        /* \"#utility.yul\":6198:6199   */\n      0x00\n        /* \"#utility.yul\":6191:6279   */\n      mstore\n        /* \"#utility.yul\":6298:6302   */\n      0x22\n        /* \"#utility.yul\":6295:6296   */\n      0x04\n        /* \"#utility.yul\":6288:6303   */\n      mstore\n        /* \"#utility.yul\":6322:6326   */\n      0x24\n        /* \"#utility.yul\":6319:6320   */\n      0x00\n        /* \"#utility.yul\":6312:6327   */\n      revert\n        /* \"#utility.yul\":6339:6659   */\n    tag_19:\n        /* \"#utility.yul\":6383:6389   */\n      0x00\n        /* \"#utility.yul\":6420:6421   */\n      0x02\n        /* \"#utility.yul\":6414:6418   */\n      dup3\n        /* \"#utility.yul\":6410:6422   */\n      div\n        /* \"#utility.yul\":6400:6422   */\n      swap1\n      pop\n        /* \"#utility.yul\":6467:6468   */\n      0x01\n        /* \"#utility.yul\":6461:6465   */\n      dup3\n        /* \"#utility.yul\":6457:6469   */\n      and\n        /* \"#utility.yul\":6488:6506   */\n      dup1\n        /* \"#utility.yul\":6478:6559   */\n      tag_138\n      jumpi\n        /* \"#utility.yul\":6544:6548   */\n      0x7f\n        /* \"#utility.yul\":6536:6542   */\n      dup3\n        /* \"#utility.yul\":6532:6549   */\n      and\n        /* \"#utility.yul\":6522:6549   */\n      swap2\n      pop\n        /* \"#utility.yul\":6478:6559   */\n    tag_138:\n        /* \"#utility.yul\":6606:6608   */\n      0x20\n        /* \"#utility.yul\":6598:6604   */\n      dup3\n        /* \"#utility.yul\":6595:6609   */\n      lt\n        /* \"#utility.yul\":6575:6593   */\n      dup2\n        /* \"#utility.yul\":6572:6610   */\n      sub\n        /* \"#utility.yul\":6569:6653   */\n      tag_139\n      jumpi\n        /* \"#utility.yul\":6625:6643   */\n      tag_140\n      tag_55\n      jump\t// in\n    tag_140:\n        /* \"#utility.yul\":6569:6653   */\n    tag_139:\n        /* \"#utility.yul\":6390:6659   */\n      pop\n        /* \"#utility.yul\":6339:6659   */\n      swap2\n      swap1\n      pop\n      jump\t// out\n        /* \"#utility.yul\":6665:6806   */\n    tag_56:\n        /* \"#utility.yul\":6714:6718   */\n      0x00\n        /* \"#utility.yul\":6737:6740   */\n      dup2\n        /* \"#utility.yul\":6729:6740   */\n      swap1\n      pop\n        /* \"#utility.yul\":6760:6763   */\n      dup2\n        /* \"#utility.yul\":6757:6758   */\n      0x00\n        /* \"#utility.yul\":6750:6764   */\n      mstore\n        /* \"#utility.yul\":6794:6798   */\n      0x20\n        /* \"#utility.yul\":6791:6792   */\n      0x00\n        /* \"#utility.yul\":6781:6799   */\n      keccak256\n        /* \"#utility.yul\":6773:6799   */\n      swap1\n      pop\n        /* \"#utility.yul\":6665:6806   */\n      swap2\n      swap1\n      pop\n      jump\t// out\n        /* \"#utility.yul\":6812:6905   */\n    tag_57:\n        /* \"#utility.yul\":6849:6855   */\n      0x00\n        /* \"#utility.yul\":6896:6898   */\n      0x20\n        /* \"#utility.yul\":6891:6893   */\n      0x1f\n        /* \"#utility.yul\":6884:6889   */\n      dup4\n        /* \"#utility.yul\":6880:6894   */\n      add\n        /* \"#utility.yul\":6876:6899   */\n      div\n        /* \"#utility.yul\":6866:6899   */\n      swap1\n      pop\n        /* \"#utility.yul\":6812:6905   */\n      swap2\n      swap1\n      pop\n      jump\t// out\n        /* \"#utility.yul\":6911:7018   */\n    tag_58:\n        /* \"#utility.yul\":6955:6963   */\n      0x00\n        /* \"#utility.yul\":7005:7010   */\n      dup3\n        /* \"#utility.yul\":6999:7003   */\n      dup3\n        /* \"#utility.yul\":6995:7011   */\n      shl\n        /* \"#utility.yul\":6974:7011   */\n      swap1\n      pop\n        /* \"#utility.yul\":6911:7018   */\n      swap3\n      swap2\n      pop\n      pop\n      jump\t// out\n        /* \"#utility.yul\":7024:7417   */\n    tag_59:\n        /* \"#utility.yul\":7093:7099   */\n      0x00\n        /* \"#utility.yul\":7143:7144   */\n      0x08\n        /* \"#utility.yul\":7131:7141   */\n      dup4\n        /* \"#utility.yul\":7127:7145   */\n      mul\n        /* \"#utility.yul\":7166:7263   */\n      tag_145\n        /* \"#utility.yul\":7196:7262   */\n      0xffffffffffffffffffffffffffffffffffffffffffffffffffffffffffffffff\n        /* \"#utility.yul\":7185:7194   */\n      dup3\n        /* \"#utility.yul\":7166:7263   */\n      tag_58\n      jump\t// in\n    tag_145:\n        /* \"#utility.yul\":7284:7323   */\n      tag_146\n        /* \"#utility.yul\":7314:7322   */\n      dup7\n        /* \"#utility.yul\":7303:7312   */\n      dup4\n        /* \"#utility.yul\":7284:7323   */\n      tag_58\n      jump\t// in\n    tag_146:\n        /* \"#utility.yul\":7272:7323   */\n      swap6\n      pop\n        /* \"#utility.yul\":7356:7360   */\n      dup1\n        /* \"#utility.yul\":7352:7361   */\n      not\n        /* \"#utility.yul\":7345:7350   */\n      dup5\n        /* \"#utility.yul\":7341:7362   */\n      and\n        /* \"#utility.yul\":7332:7362   */\n      swap4\n      pop\n        /* \"#utility.yul\":7405:7409   */\n      dup1\n        /* \"#utility.yul\":7395:7403   */\n      dup7\n        /* \"#utility.yul\":7391:7410   */\n      and\n        /* \"#utility.yul\":7384:7389   */\n      dup5\n        /* \"#utility.yul\":7381:7411   */\n      or\n        /* \"#utility.yul\":7371:7411   */\n      swap3\n      pop\n        /* \"#utility.yul\":7100:7417   */\n      pop\n      pop\n        /* \"#utility.yul\":7024:7417   */\n      swap4\n      swap3\n      pop\n      pop\n      pop\n      jump\t// out\n        /* \"#utility.yul\":7423:7500   */\n    tag_60:\n        /* \"#utility.yul\":7460:7467   */\n      0x00\n        /* \"#utility.yul\":7489:7494   */\n      dup2\n        /* \"#utility.yul\":7478:7494   */\n      swap1\n      pop\n        /* \"#utility.yul\":7423:7500   */\n      swap2\n      swap1\n      pop\n      jump\t// out\n        /* \"#utility.yul\":7506:7566   */\n    tag_61:\n        /* \"#utility.yul\":7534:7537   */\n      0x00\n        /* \"#utility.yul\":7555:7560   */\n      dup2\n        /* \"#utility.yul\":7548:7560   */\n      swap1\n      pop\n        /* \"#utility.yul\":7506:7566   */\n      swap2\n      swap1\n      pop\n      jump\t// out\n        /* \"#utility.yul\":7572:7714   */\n    tag_62:\n        /* \"#utility.yul\":7622:7631   */\n      0x00\n        /* \"#utility.yul\":7655:7708   */\n      tag_150\n        /* \"#utility.yul\":7673:7707   */\n      tag_151\n        /* \"#utility.yul\":7682:7706   */\n      tag_152\n        /* \"#utility.yul\":7700:7705   */\n      dup5\n        /* \"#utility.yul\":7682:7706   */\n      tag_60\n      jump\t// in\n    tag_152:\n        /* \"#utility.yul\":7673:7707   */\n      tag_61\n      jump\t// in\n    tag_151:\n        /* \"#utility.yul\":7655:7708   */\n      tag_60\n      jump\t// in\n    tag_150:\n        /* \"#utility.yul\":7642:7708   */\n      swap1\n      pop\n        /* \"#utility.yul\":7572:7714   */\n      swap2\n      swap1\n      pop\n      jump\t// out\n        /* \"#utility.yul\":7720:7795   */\n    tag_63:\n        /* \"#utility.yul\":7763:7766   */\n      0x00\n        /* \"#utility.yul\":7784:7789   */\n      dup2\n        /* \"#utility.yul\":7777:7789   */\n      swap1\n      pop\n        /* \"#utility.yul\":7720:7795   */\n      swap2\n      swap1\n      pop\n      jump\t// out\n        /* \"#utility.yul\":7801:8070   */\n    tag_64:\n        /* \"#utility.yul\":7911:7950   */\n      tag_155\n        /* \"#utility.yul\":7942:7949   */\n      dup4\n        /* \"#utility.yul\":7911:7950   */\n      tag_62\n      jump\t// in\n    tag_155:\n        /* \"#utility.yul\":7972:8063   */\n      tag_156\n        /* \"#utility.yul\":8021:8062   */\n      tag_157\n        /* \"#utility.yul\":8045:8061   */\n      dup3\n        /* \"#utility.yul\":8021:8062   */\n      tag_63\n      jump\t// in\n    tag_157:\n        /* \"#utility.yul\":8013:8019   */\n      dup5\n        /* \"#utility.yul\":8006:8010   */\n      dup5\n        /* \"#utility.yul\":8000:8011   */\n      sload\n        /* \"#utility.yul\":7972:8063   */\n      tag_59\n      jump\t// in\n    tag_156:\n        /* \"#utility.yul\":7966:7970   */\n      dup3\n        /* \"#utility.yul\":7959:8064   */\n      sstore\n        /* \"#utility.yul\":7877:8070   */\n      pop\n        /* \"#utility.yul\":7801:8070   */\n      pop\n      pop\n      pop\n      jump\t// out\n        /* \"#utility.yul\":8076:8149   */\n    tag_65:\n        /* \"#utility.yul\":8121:8124   */\n      0x00\n        /* \"#utility.yul\":8076:8149   */\n      swap1\n      jump\t// out\n        /* \"#utility.yul\":8155:8344   */\n    tag_66:\n        /* \"#utility.yul\":8232:8264   */\n      tag_160\n      tag_65\n      jump\t// in\n    tag_160:\n        /* \"#utility.yul\":8273:8338   */\n      tag_161\n        /* \"#utility.yul\":8331:8337   */\n      dup2\n        /* \"#utility.yul\":8323:8329   */\n      dup5\n        /* \"#utility.yul\":8317:8321   */\n      dup5\n        /* \"#utility.yul\":8273:8338   */\n      tag_64\n      jump\t// in\n    tag_161:\n        /* \"#utility.yul\":8208:8344   */\n      pop\n        /* \"#utility.yul\":8155:8344   */\n      pop\n      pop\n      jump\t// out\n        /* \"#utility.yul\":8350:8536   */\n    tag_67:\n        /* \"#utility.yul\":8410:8530   */\n    tag_163:\n        /* \"#utility.yul\":8427:8430   */\n      dup2\n        /* \"#utility.yul\":8420:8425   */\n      dup2\n        /* \"#utility.yul\":8417:8431   */\n      lt\n        /* \"#utility.yul\":8410:8530   */\n      iszero\n      tag_165\n      jumpi\n        /* \"#utility.yul\":8481:8520   */\n      tag_166\n        /* \"#utility.yul\":8518:8519   */\n      0x00\n        /* \"#utility.yul\":8511:8516   */\n      dup3\n        /* \"#utility.yul\":8481:8520   */\n      tag_66\n      jump\t// in\n    tag_166:\n        /* \"#utility.yul\":8454:8455   */\n      0x01\n        /* \"#utility.yul\":8447:8452   */\n      dup2\n        /* \"#utility.yul\":8443:8456   */\n      add\n        /* \"#utility.yul\":8434:8456   */\n      swap1\n      pop\n        /* \"#utility.yul\":8410:8530   */\n      jump(tag_163)\n    tag_165:\n        /* \"#utility.yul\":8350:8536   */\n      pop\n      pop\n      jump\t// out\n        /* \"#utility.yul\":8542:9085   */\n    tag_68:\n        /* \"#utility.yul\":8643:8645   */\n      0x1f\n        /* \"#utility.yul\":8638:8641   */\n      dup3\n        /* \"#utility.yul\":8635:8646   */\n      gt\n        /* \"#utility.yul\":8632:9078   */\n      iszero\n      tag_168\n      jumpi\n        /* \"#utility.yul\":8677:8715   */\n      tag_169\n        /* \"#utility.yul\":8709:8714   */\n      dup2\n        /* \"#utility.yul\":8677:8715   */\n      tag_56\n      jump\t// in\n    tag_169:\n        /* \"#utility.yul\":8761:8790   */\n      tag_170\n        /* \"#utility.yul\":8779:8789   */\n      dup5\n        /* \"#utility.yul\":8761:8790   */\n      tag_57\n      jump\t// in\n    tag_170:\n        /* \"#utility.yul\":8751:8759   */\n      dup2\n        /* \"#utility.yul\":8747:8791   */\n      add\n        /* \"#utility.yul\":8944:8946   */\n      0x20\n        /* \"#utility.yul\":8932:8942   */\n      dup6\n        /* \"#utility.yul\":8929:8947   */\n      lt\n        /* \"#utility.yul\":8926:8975   */\n      iszero\n      tag_171\n      jumpi\n        /* \"#utility.yul\":8965:8973   */\n      dup2\n        /* \"#utility.yul\":8950:8973   */\n      swap1\n      pop\n        /* \"#utility.yul\":8926:8975   */\n    tag_171:\n        /* \"#utility.yul\":8988:9068   */\n      tag_172\n        /* \"#utility.yul\":9044:9066   */\n      tag_173\n        /* \"#utility.yul\":9062:9065   */\n      dup6\n        /* \"#utility.yul\":9044:9066   */\n      tag_57\n      jump\t// in\n    tag_173:\n        /* \"#utility.yul\":9034:9042   */\n      dup4\n        /* \"#utility.yul\":9030:9067   */\n      add\n        /* \"#utility.yul\":9017:9028   */\n      dup3\n        /* \"#utility.yul\":8988:9068   */\n      tag_67\n      jump\t// in\n    tag_172:\n        /* \"#utility.yul\":8647:9078   */\n      pop\n      pop\n        /* \"#utility.yul\":8632:9078   */\n    tag_168:\n        /* \"#utility.yul\":8542:9085   */\n      pop\n      pop\n      pop\n      jump\t// out\n        /* \"#utility.yul\":9091:9208   */\n    tag_69:\n        /* \"#utility.yul\":9145:9153   */\n      0x00\n        /* \"#utility.yul\":9195:9200   */\n      dup3\n        /* \"#utility.yul\":9189:9193   */\n      dup3\n        /* \"#utility.yul\":9185:9201   */\n      shr\n        /* \"#utility.yul\":9164:9201   */\n      swap1\n      pop\n        /* \"#utility.yul\":9091:9208   */\n      swap3\n      swap2\n      pop\n      pop\n      jump\t// out\n        /* \"#utility.yul\":9214:9383   */\n    tag_70:\n        /* \"#utility.yul\":9258:9264   */\n      0x00\n        /* \"#utility.yul\":9291:9342   */\n      tag_176\n        /* \"#utility.yul\":9339:9340   */\n      0x00\n        /* \"#utility.yul\":9335:9341   */\n      not\n        /* \"#utility.yul\":9327:9332   */\n      dup5\n        /* \"#utility.yul\":9324:9325   */\n      0x08\n        /* \"#utility.yul\":9320:9333   */\n      mul\n        /* \"#utility.yul\":9291:9342   */\n      tag_69\n      jump\t// in\n    tag_176:\n        /* \"#utility.yul\":9287:9343   */\n      not\n        /* \"#utility.yul\":9372:9376   */\n      dup1\n        /* \"#utility.yul\":9366:9370   */\n      dup4\n        /* \"#utility.yul\":9362:9377   */\n      and\n        /* \"#utility.yul\":9352:9377   */\n      swap2\n      pop\n        /* \"#utility.yul\":9265:9383   */\n      pop\n        /* \"#utility.yul\":9214:9383   */\n      swap3\n      swap2\n      pop\n      pop\n      jump\t// out\n        /* \"#utility.yul\":9388:9683   */\n    tag_71:\n        /* \"#utility.yul\":9464:9468   */\n      0x00\n        /* \"#utility.yul\":9610:9639   */\n      tag_178\n        /* \"#utility.yul\":9635:9638   */\n      dup4\n        /* \"#utility.yul\":9629:9633   */\n      dup4\n        /* \"#utility.yul\":9610:9639   */\n      tag_70\n      jump\t// in\n    tag_178:\n        /* \"#utility.yul\":9602:9639   */\n      swap2\n      pop\n        /* \"#utility.yul\":9672:9675   */\n      dup3\n        /* \"#utility.yul\":9669:9670   */\n      0x02\n        /* \"#utility.yul\":9665:9676   */\n      mul\n        /* \"#utility.yul\":9659:9663   */\n      dup3\n        /* \"#utility.yul\":9656:9677   */\n      or\n        /* \"#utility.yul\":9648:9677   */\n      swap1\n      pop\n        /* \"#utility.yul\":9388:9683   */\n      swap3\n      swap2\n      pop\n      pop\n      jump\t// out\n        /* \"#utility.yul\":9688:11083   */\n    tag_31:\n        /* \"#utility.yul\":9805:9842   */\n      tag_180\n        /* \"#utility.yul\":9838:9841   */\n      dup3\n        /* \"#utility.yul\":9805:9842   */\n      tag_40\n      jump\t// in\n    tag_180:\n        /* \"#utility.yul\":9907:9925   */\n      0xffffffffffffffff\n        /* \"#utility.yul\":9899:9905   */\n      dup2\n        /* \"#utility.yul\":9896:9926   */\n      gt\n        /* \"#utility.yul\":9893:9949   */\n      iszero\n      tag_181\n      jumpi\n        /* \"#utility.yul\":9929:9947   */\n      tag_182\n      tag_48\n      jump\t// in\n    tag_182:\n        /* \"#utility.yul\":9893:9949   */\n    tag_181:\n        /* \"#utility.yul\":9973:10011   */\n      tag_183\n        /* \"#utility.yul\":10005:10009   */\n      dup3\n        /* \"#utility.yul\":9999:10010   */\n      sload\n        /* \"#utility.yul\":9973:10011   */\n      tag_19\n      jump\t// in\n    tag_183:\n        /* \"#utility.yul\":10058:10125   */\n      tag_184\n        /* \"#utility.yul\":10118:10124   */\n      dup3\n        /* \"#utility.yul\":10110:10116   */\n      dup3\n        /* \"#utility.yul\":10104:10108   */\n      dup6\n        /* \"#utility.yul\":10058:10125   */\n      tag_68\n      jump\t// in\n    tag_184:\n        /* \"#utility.yul\":10152:10153   */\n      0x00\n        /* \"#utility.yul\":10176:10180   */\n      0x20\n        /* \"#utility.yul\":10163:10180   */\n      swap1\n      pop\n        /* \"#utility.yul\":10208:10210   */\n      0x1f\n        /* \"#utility.yul\":10200:10206   */\n      dup4\n        /* \"#utility.yul\":10197:10211   */\n      gt\n        /* \"#utility.yul\":10225:10226   */\n      0x01\n        /* \"#utility.yul\":10220:10838   */\n      dup2\n      eq\n      tag_186\n      jumpi\n        /* \"#utility.yul\":10882:10883   */\n      0x00\n        /* \"#utility.yul\":10899:10905   */\n      dup5\n        /* \"#utility.yul\":10896:10973   */\n      iszero\n      tag_187\n      jumpi\n        /* \"#utility.yul\":10948:10957   */\n      dup3\n        /* \"#utility.yul\":10943:10946   */\n      dup8\n        /* \"#utility.yul\":10939:10958   */\n      add\n        /* \"#utility.yul\":10933:10959   */\n      mload\n        /* \"#utility.yul\":10924:10959   */\n      swap1\n      pop\n        /* \"#utility.yul\":10896:10973   */\n    tag_187:\n        /* \"#utility.yul\":10999:11066   */\n      tag_188\n        /* \"#utility.yul\":11059:11065   */\n      dup6\n        /* \"#utility.yul\":11052:11057   */\n      dup3\n        /* \"#utility.yul\":10999:11066   */\n      tag_71\n      jump\t// in\n    tag_188:\n        /* \"#utility.yul\":10993:10997   */\n      dup7\n        /* \"#utility.yul\":10986:11067   */\n      sstore\n        /* \"#utility.yul\":10855:11077   */\n      pop\n        /* \"#utility.yul\":10190:11077   */\n      jump(tag_185)\n        /* \"#utility.yul\":10220:10838   */\n    tag_186:\n        /* \"#utility.yul\":10272:10276   */\n      0x1f\n        /* \"#utility.yul\":10268:10277   */\n      not\n        /* \"#utility.yul\":10260:10266   */\n      dup5\n        /* \"#utility.yul\":10256:10278   */\n      and\n        /* \"#utility.yul\":10306:10343   */\n      tag_189\n        /* \"#utility.yul\":10338:10342   */\n      dup7\n        /* \"#utility.yul\":10306:10343   */\n      tag_56\n      jump\t// in\n    tag_189:\n        /* \"#utility.yul\":10365:10366   */\n      0x00\n        /* \"#utility.yul\":10379:10587   */\n    tag_190:\n        /* \"#utility.yul\":10393:10400   */\n      dup3\n        /* \"#utility.yul\":10390:10391   */\n      dup2\n        /* \"#utility.yul\":10387:10401   */\n      lt\n        /* \"#utility.yul\":10379:10587   */\n      iszero\n      tag_192\n      jumpi\n        /* \"#utility.yul\":10472:10481   */\n      dup5\n        /* \"#utility.yul\":10467:10470   */\n      dup10\n        /* \"#utility.yul\":10463:10482   */\n      add\n        /* \"#utility.yul\":10457:10483   */\n      mload\n        /* \"#utility.yul\":10449:10455   */\n      dup3\n        /* \"#utility.yul\":10442:10484   */\n      sstore\n        /* \"#utility.yul\":10523:10524   */\n      0x01\n        /* \"#utility.yul\":10515:10521   */\n      dup3\n        /* \"#utility.yul\":10511:10525   */\n      add\n        /* \"#utility.yul\":10501:10525   */\n      swap2\n      pop\n        /* \"#utility.yul\":10570:10572   */\n      0x20\n        /* \"#utility.yul\":10559:10568   */\n      dup6\n        /* \"#utility.yul\":10555:10573   */\n      add\n        /* \"#utility.yul\":10542:10573   */\n      swap5\n      pop\n        /* \"#utility.yul\":10416:10420   */\n      0x20\n        /* \"#utility.yul\":10413:10414   */\n      dup2\n        /* \"#utility.yul\":10409:10421   */\n      add\n        /* \"#utility.yul\":10404:10421   */\n      swap1\n      pop\n        /* \"#utility.yul\":10379:10587   */\n      jump(tag_190)\n    tag_192:\n        /* \"#utility.yul\":10615:10621   */\n      dup7\n        /* \"#utility.yul\":10606:10613   */\n      dup4\n        /* \"#utility.yul\":10603:10622   */\n      lt\n        /* \"#utility.yul\":10600:10779   */\n      iszero\n      tag_193\n      jumpi\n        /* \"#utility.yul\":10673:10682   */\n      dup5\n        /* \"#utility.yul\":10668:10671   */\n      dup10\n        /* \"#utility.yul\":10664:10683   */\n      add\n        /* \"#utility.yul\":10658:10684   */\n      mload\n        /* \"#utility.yul\":10716:10764   */\n      tag_194\n        /* \"#utility.yul\":10758:10762   */\n      0x1f\n        /* \"#utility.yul\":10750:10756   */\n      dup10\n        /* \"#utility.yul\":10746:10763   */\n      and\n        /* \"#utility.yul\":10735:10744   */\n      dup3\n        /* \"#utility.yul\":10716:10764   */\n      tag_70\n      jump\t// in\n    tag_194:\n        /* \"#utility.yul\":10708:10714   */\n      dup4\n        /* \"#utility.yul\":10701:10765   */\n      sstore\n        /* \"#utility.yul\":10623:10779   */\n      pop\n        /* \"#utility.yul\":10600:10779   */\n    tag_193:\n        /* \"#utility.yul\":10825:10826   */\n      0x01\n        /* \"#utility.yul\":10821:10822   */\n      0x02\n        /* \"#utility.yul\":10813:10819   */\n      dup9\n        /* \"#utility.yul\":10809:10823   */\n      mul\n        /* \"#utility.yul\":10805:10827   */\n      add\n        /* \"#utility.yul\":10799:10803   */\n      dup9\n        /* \"#utility.yul\":10792:10828   */\n      sstore\n        /* \"#utility.yul\":10227:10838   */\n      pop\n      pop\n      pop\n        /* \"#utility.yul\":10190:11077   */\n    tag_185:\n      pop\n        /* \"#utility.yul\":9780:11083   */\n      pop\n      pop\n      pop\n        /* \"#utility.yul\":9688:11083   */\n      pop\n      pop\n      jump\t// out\n\n    auxdata: 0xa264697066735822122003864fc170fea88c0b824a704299b0c778e99a2c51ed034467103ef500bd176764736f6c634300081a0033\n}\n",
				"bytecode": {
					"linkReferences": {},
					"object": "6080604052348015600e575f80fd5b506108a68061001c5f395ff3fe608060405234801561000f575f80fd5b5060043610610034575f3560e01c80630f53a47014610038578063719e37ae14610068575b5f80fd5b610052600480360381019061004d9190610300565b610084565b60405161005f91906103dc565b60405180910390f35b610082600480360381019061007d9190610528565b6101f9565b005b61008c61027b565b5f808373ffffffffffffffffffffffffffffffffffffffff1673ffffffffffffffffffffffffffffffffffffffff1681526020019081526020015f206040518060400160405290815f820180546100e2906105cb565b80601f016020809104026020016040519081016040528092919081815260200182805461010e906105cb565b80156101595780601f1061013057610100808354040283529160200191610159565b820191905f5260205f20905b81548152906001019060200180831161013c57829003601f168201915b50505050508152602001600182018054610172906105cb565b80601f016020809104026020016040519081016040528092919081815260200182805461019e906105cb565b80156101e95780601f106101c0576101008083540402835291602001916101e9565b820191905f5260205f20905b8154815290600101906020018083116101cc57829003601f168201915b5050505050815250509050919050565b6040518060400160405280838152602001828152505f803373ffffffffffffffffffffffffffffffffffffffff1673ffffffffffffffffffffffffffffffffffffffff1681526020019081526020015f205f820151815f01908161025d91906107a1565b50602082015181600101908161027391906107a1565b509050505050565b604051806040016040528060608152602001606081525090565b5f604051905090565b5f80fd5b5f80fd5b5f73ffffffffffffffffffffffffffffffffffffffff82169050919050565b5f6102cf826102a6565b9050919050565b6102df816102c5565b81146102e9575f80fd5b50565b5f813590506102fa816102d6565b92915050565b5f602082840312156103155761031461029e565b5b5f610322848285016102ec565b91505092915050565b5f81519050919050565b5f82825260208201905092915050565b8281835e5f83830152505050565b5f601f19601f8301169050919050565b5f61036d8261032b565b6103778185610335565b9350610387818560208601610345565b61039081610353565b840191505092915050565b5f604083015f8301518482035f8601526103b58282610363565b915050602083015184820360208601526103cf8282610363565b9150508091505092915050565b5f6020820190508181035f8301526103f4818461039b565b905092915050565b5f80fd5b5f80fd5b7f4e487b71000000000000000000000000000000000000000000000000000000005f52604160045260245ffd5b61043a82610353565b810181811067ffffffffffffffff8211171561045957610458610404565b5b80604052505050565b5f61046b610295565b90506104778282610431565b919050565b5f67ffffffffffffffff82111561049657610495610404565b5b61049f82610353565b9050602081019050919050565b828183375f83830152505050565b5f6104cc6104c78461047c565b610462565b9050828152602081018484840111156104e8576104e7610400565b5b6104f38482856104ac565b509392505050565b5f82601f83011261050f5761050e6103fc565b5b813561051f8482602086016104ba565b91505092915050565b5f806040838503121561053e5761053d61029e565b5b5f83013567ffffffffffffffff81111561055b5761055a6102a2565b5b610567858286016104fb565b925050602083013567ffffffffffffffff811115610588576105876102a2565b5b610594858286016104fb565b9150509250929050565b7f4e487b71000000000000000000000000000000000000000000000000000000005f52602260045260245ffd5b5f60028204905060018216806105e257607f821691505b6020821081036105f5576105f461059e565b5b50919050565b5f819050815f5260205f209050919050565b5f6020601f8301049050919050565b5f82821b905092915050565b5f600883026106577fffffffffffffffffffffffffffffffffffffffffffffffffffffffffffffffff8261061c565b610661868361061c565b95508019841693508086168417925050509392505050565b5f819050919050565b5f819050919050565b5f6106a56106a061069b84610679565b610682565b610679565b9050919050565b5f819050919050565b6106be8361068b565b6106d26106ca826106ac565b848454610628565b825550505050565b5f90565b6106e66106da565b6106f18184846106b5565b505050565b5b81811015610714576107095f826106de565b6001810190506106f7565b5050565b601f8211156107595761072a816105fb565b6107338461060d565b81016020851015610742578190505b61075661074e8561060d565b8301826106f6565b50505b505050565b5f82821c905092915050565b5f6107795f198460080261075e565b1980831691505092915050565b5f610791838361076a565b9150826002028217905092915050565b6107aa8261032b565b67ffffffffffffffff8111156107c3576107c2610404565b5b6107cd82546105cb565b6107d8828285610718565b5f60209050601f831160018114610809575f84156107f7578287015190505b6108018582610786565b865550610868565b601f198416610817866105fb565b5f5b8281101561083e57848901518255600182019150602085019450602081019050610819565b8683101561085b5784890151610857601f89168261076a565b8355505b6001600288020188555050505b50505050505056fea264697066735822122003864fc170fea88c0b824a704299b0c778e99a2c51ed034467103ef500bd176764736f6c634300081a0033",
					"opcodes": "PUSH1 0x80 PUSH1 0x40 MSTORE CALLVALUE DUP1 ISZERO PUSH1 0xE JUMPI PUSH0 DUP1 REVERT JUMPDEST POP PUSH2 0x8A6 DUP1 PUSH2 0x1C PUSH0 CODECOPY PUSH0 RETURN INVALID PUSH1 0x80 PUSH1 0x40 MSTORE CALLVALUE DUP1 ISZERO PUSH2 0xF JUMPI PUSH0 DUP1 REVERT JUMPDEST POP PUSH1 0x4 CALLDATASIZE LT PUSH2 0x34 JUMPI PUSH0 CALLDATALOAD PUSH1 0xE0 SHR DUP1 PUSH4 0xF53A470 EQ PUSH2 0x38 JUMPI DUP1 PUSH4 0x719E37AE EQ PUSH2 0x68 JUMPI JUMPDEST PUSH0 DUP1 REVERT JUMPDEST PUSH2 0x52 PUSH1 0x4 DUP1 CALLDATASIZE SUB DUP2 ADD SWAP1 PUSH2 0x4D SWAP2 SWAP1 PUSH2 0x300 JUMP JUMPDEST PUSH2 0x84 JUMP JUMPDEST PUSH1 0x40 MLOAD PUSH2 0x5F SWAP2 SWAP1 PUSH2 0x3DC JUMP JUMPDEST PUSH1 0x40 MLOAD DUP1 SWAP2 SUB SWAP1 RETURN JUMPDEST PUSH2 0x82 PUSH1 0x4 DUP1 CALLDATASIZE SUB DUP2 ADD SWAP1 PUSH2 0x7D SWAP2 SWAP1 PUSH2 0x528 JUMP JUMPDEST PUSH2 0x1F9 JUMP JUMPDEST STOP JUMPDEST PUSH2 0x8C PUSH2 0x27B JUMP JUMPDEST PUSH0 DUP1 DUP4 PUSH20 0xFFFFFFFFFFFFFFFFFFFFFFFFFFFFFFFFFFFFFFFF AND PUSH20 0xFFFFFFFFFFFFFFFFFFFFFFFFFFFFFFFFFFFFFFFF AND DUP2 MSTORE PUSH1 0x20 ADD SWAP1 DUP2 MSTORE PUSH1 0x20 ADD PUSH0 KECCAK256 PUSH1 0x40 MLOAD DUP1 PUSH1 0x40 ADD PUSH1 0x40 MSTORE SWAP1 DUP2 PUSH0 DUP3 ADD DUP1 SLOAD PUSH2 0xE2 SWAP1 PUSH2 0x5CB JUMP JUMPDEST DUP1 PUSH1 0x1F ADD PUSH1 0x20 DUP1 SWAP2 DIV MUL PUSH1 0x20 ADD PUSH1 0x40 MLOAD SWAP1 DUP2 ADD PUSH1 0x40 MSTORE DUP1 SWAP3 SWAP2 SWAP1 DUP2 DUP2 MSTORE PUSH1 0x20 ADD DUP3 DUP1 SLOAD PUSH2 0x10E SWAP1 PUSH2 0x5CB JUMP JUMPDEST DUP1 ISZERO PUSH2 0x159 JUMPI DUP1 PUSH1 0x1F LT PUSH2 0x130 JUMPI PUSH2 0x100 DUP1 DUP4 SLOAD DIV MUL DUP4 MSTORE SWAP2 PUSH1 0x20 ADD SWAP2 PUSH2 0x159 JUMP JUMPDEST DUP3 ADD SWAP2 SWAP1 PUSH0 MSTORE PUSH1 0x20 PUSH0 KECCAK256 SWAP1 JUMPDEST DUP2 SLOAD DUP2 MSTORE SWAP1 PUSH1 0x1 ADD SWAP1 PUSH1 0x20 ADD DUP1 DUP4 GT PUSH2 0x13C JUMPI DUP3 SWAP1 SUB PUSH1 0x1F AND DUP3 ADD SWAP2 JUMPDEST POP POP POP POP POP DUP2 MSTORE PUSH1 0x20 ADD PUSH1 0x1 DUP3 ADD DUP1 SLOAD PUSH2 0x172 SWAP1 PUSH2 0x5CB JUMP JUMPDEST DUP1 PUSH1 0x1F ADD PUSH1 0x20 DUP1 SWAP2 DIV MUL PUSH1 0x20 ADD PUSH1 0x40 MLOAD SWAP1 DUP2 ADD PUSH1 0x40 MSTORE DUP1 SWAP3 SWAP2 SWAP1 DUP2 DUP2 MSTORE PUSH1 0x20 ADD DUP3 DUP1 SLOAD PUSH2 0x19E SWAP1 PUSH2 0x5CB JUMP JUMPDEST DUP1 ISZERO PUSH2 0x1E9 JUMPI DUP1 PUSH1 0x1F LT PUSH2 0x1C0 JUMPI PUSH2 0x100 DUP1 DUP4 SLOAD DIV MUL DUP4 MSTORE SWAP2 PUSH1 0x20 ADD SWAP2 PUSH2 0x1E9 JUMP JUMPDEST DUP3 ADD SWAP2 SWAP1 PUSH0 MSTORE PUSH1 0x20 PUSH0 KECCAK256 SWAP1 JUMPDEST DUP2 SLOAD DUP2 MSTORE SWAP1 PUSH1 0x1 ADD SWAP1 PUSH1 0x20 ADD DUP1 DUP4 GT PUSH2 0x1CC JUMPI DUP3 SWAP1 SUB PUSH1 0x1F AND DUP3 ADD SWAP2 JUMPDEST POP POP POP POP POP DUP2 MSTORE POP POP SWAP1 POP SWAP2 SWAP1 POP JUMP JUMPDEST PUSH1 0x40 MLOAD DUP1 PUSH1 0x40 ADD PUSH1 0x40 MSTORE DUP1 DUP4 DUP2 MSTORE PUSH1 0x20 ADD DUP3 DUP2 MSTORE POP PUSH0 DUP1 CALLER PUSH20 0xFFFFFFFFFFFFFFFFFFFFFFFFFFFFFFFFFFFFFFFF AND PUSH20 0xFFFFFFFFFFFFFFFFFFFFFFFFFFFFFFFFFFFFFFFF AND DUP2 MSTORE PUSH1 0x20 ADD SWAP1 DUP2 MSTORE PUSH1 0x20 ADD PUSH0 KECCAK256 PUSH0 DUP3 ADD MLOAD DUP2 PUSH0 ADD SWAP1 DUP2 PUSH2 0x25D SWAP2 SWAP1 PUSH2 0x7A1 JUMP JUMPDEST POP PUSH1 0x20 DUP3 ADD MLOAD DUP2 PUSH1 0x1 ADD SWAP1 DUP2 PUSH2 0x273 SWAP2 SWAP1 PUSH2 0x7A1 JUMP JUMPDEST POP SWAP1 POP POP POP POP JUMP JUMPDEST PUSH1 0x40 MLOAD DUP1 PUSH1 0x40 ADD PUSH1 0x40 MSTORE DUP1 PUSH1 0x60 DUP2 MSTORE PUSH1 0x20 ADD PUSH1 0x60 DUP2 MSTORE POP SWAP1 JUMP JUMPDEST PUSH0 PUSH1 0x40 MLOAD SWAP1 POP SWAP1 JUMP JUMPDEST PUSH0 DUP1 REVERT JUMPDEST PUSH0 DUP1 REVERT JUMPDEST PUSH0 PUSH20 0xFFFFFFFFFFFFFFFFFFFFFFFFFFFFFFFFFFFFFFFF DUP3 AND SWAP1 POP SWAP2 SWAP1 POP JUMP JUMPDEST PUSH0 PUSH2 0x2CF DUP3 PUSH2 0x2A6 JUMP JUMPDEST SWAP1 POP SWAP2 SWAP1 POP JUMP JUMPDEST PUSH2 0x2DF DUP2 PUSH2 0x2C5 JUMP JUMPDEST DUP2 EQ PUSH2 0x2E9 JUMPI PUSH0 DUP1 REVERT JUMPDEST POP JUMP JUMPDEST PUSH0 DUP2 CALLDATALOAD SWAP1 POP PUSH2 0x2FA DUP2 PUSH2 0x2D6 JUMP JUMPDEST SWAP3 SWAP2 POP POP JUMP JUMPDEST PUSH0 PUSH1 0x20 DUP3 DUP5 SUB SLT ISZERO PUSH2 0x315 JUMPI PUSH2 0x314 PUSH2 0x29E JUMP JUMPDEST JUMPDEST PUSH0 PUSH2 0x322 DUP5 DUP3 DUP6 ADD PUSH2 0x2EC JUMP JUMPDEST SWAP2 POP POP SWAP3 SWAP2 POP POP JUMP JUMPDEST PUSH0 DUP2 MLOAD SWAP1 POP SWAP2 SWAP1 POP JUMP JUMPDEST PUSH0 DUP3 DUP3 MSTORE PUSH1 0x20 DUP3 ADD SWAP1 POP SWAP3 SWAP2 POP POP JUMP JUMPDEST DUP3 DUP2 DUP4 MCOPY PUSH0 DUP4 DUP4 ADD MSTORE POP POP POP JUMP JUMPDEST PUSH0 PUSH1 0x1F NOT PUSH1 0x1F DUP4 ADD AND SWAP1 POP SWAP2 SWAP1 POP JUMP JUMPDEST PUSH0 PUSH2 0x36D DUP3 PUSH2 0x32B JUMP JUMPDEST PUSH2 0x377 DUP2 DUP6 PUSH2 0x335 JUMP JUMPDEST SWAP4 POP PUSH2 0x387 DUP2 DUP6 PUSH1 0x20 DUP7 ADD PUSH2 0x345 JUMP JUMPDEST PUSH2 0x390 DUP2 PUSH2 0x353 JUMP JUMPDEST DUP5 ADD SWAP2 POP POP SWAP3 SWAP2 POP POP JUMP JUMPDEST PUSH0 PUSH1 0x40 DUP4 ADD PUSH0 DUP4 ADD MLOAD DUP5 DUP3 SUB PUSH0 DUP7 ADD MSTORE PUSH2 0x3B5 DUP3 DUP3 PUSH2 0x363 JUMP JUMPDEST SWAP2 POP POP PUSH1 0x20 DUP4 ADD MLOAD DUP5 DUP3 SUB PUSH1 0x20 DUP7 ADD MSTORE PUSH2 0x3CF DUP3 DUP3 PUSH2 0x363 JUMP JUMPDEST SWAP2 POP POP DUP1 SWAP2 POP POP SWAP3 SWAP2 POP POP JUMP JUMPDEST PUSH0 PUSH1 0x20 DUP3 ADD SWAP1 POP DUP2 DUP2 SUB PUSH0 DUP4 ADD MSTORE PUSH2 0x3F4 DUP2 DUP5 PUSH2 0x39B JUMP JUMPDEST SWAP1 POP SWAP3 SWAP2 POP POP JUMP JUMPDEST PUSH0 DUP1 REVERT JUMPDEST PUSH0 DUP1 REVERT JUMPDEST PUSH32 0x4E487B7100000000000000000000000000000000000000000000000000000000 PUSH0 MSTORE PUSH1 0x41 PUSH1 0x4 MSTORE PUSH1 0x24 PUSH0 REVERT JUMPDEST PUSH2 0x43A DUP3 PUSH2 0x353 JUMP JUMPDEST DUP2 ADD DUP2 DUP2 LT PUSH8 0xFFFFFFFFFFFFFFFF DUP3 GT OR ISZERO PUSH2 0x459 JUMPI PUSH2 0x458 PUSH2 0x404 JUMP JUMPDEST JUMPDEST DUP1 PUSH1 0x40 MSTORE POP POP POP JUMP JUMPDEST PUSH0 PUSH2 0x46B PUSH2 0x295 JUMP JUMPDEST SWAP1 POP PUSH2 0x477 DUP3 DUP3 PUSH2 0x431 JUMP JUMPDEST SWAP2 SWAP1 POP JUMP JUMPDEST PUSH0 PUSH8 0xFFFFFFFFFFFFFFFF DUP3 GT ISZERO PUSH2 0x496 JUMPI PUSH2 0x495 PUSH2 0x404 JUMP JUMPDEST JUMPDEST PUSH2 0x49F DUP3 PUSH2 0x353 JUMP JUMPDEST SWAP1 POP PUSH1 0x20 DUP2 ADD SWAP1 POP SWAP2 SWAP1 POP JUMP JUMPDEST DUP3 DUP2 DUP4 CALLDATACOPY PUSH0 DUP4 DUP4 ADD MSTORE POP POP POP JUMP JUMPDEST PUSH0 PUSH2 0x4CC PUSH2 0x4C7 DUP5 PUSH2 0x47C JUMP JUMPDEST PUSH2 0x462 JUMP JUMPDEST SWAP1 POP DUP3 DUP2 MSTORE PUSH1 0x20 DUP2 ADD DUP5 DUP5 DUP5 ADD GT ISZERO PUSH2 0x4E8 JUMPI PUSH2 0x4E7 PUSH2 0x400 JUMP JUMPDEST JUMPDEST PUSH2 0x4F3 DUP5 DUP3 DUP6 PUSH2 0x4AC JUMP JUMPDEST POP SWAP4 SWAP3 POP POP POP JUMP JUMPDEST PUSH0 DUP3 PUSH1 0x1F DUP4 ADD SLT PUSH2 0x50F JUMPI PUSH2 0x50E PUSH2 0x3FC JUMP JUMPDEST JUMPDEST DUP2 CALLDATALOAD PUSH2 0x51F DUP5 DUP3 PUSH1 0x20 DUP7 ADD PUSH2 0x4BA JUMP JUMPDEST SWAP2 POP POP SWAP3 SWAP2 POP POP JUMP JUMPDEST PUSH0 DUP1 PUSH1 0x40 DUP4 DUP6 SUB SLT ISZERO PUSH2 0x53E JUMPI PUSH2 0x53D PUSH2 0x29E JUMP JUMPDEST JUMPDEST PUSH0 DUP4 ADD CALLDATALOAD PUSH8 0xFFFFFFFFFFFFFFFF DUP2 GT ISZERO PUSH2 0x55B JUMPI PUSH2 0x55A PUSH2 0x2A2 JUMP JUMPDEST JUMPDEST PUSH2 0x567 DUP6 DUP3 DUP7 ADD PUSH2 0x4FB JUMP JUMPDEST SWAP3 POP POP PUSH1 0x20 DUP4 ADD CALLDATALOAD PUSH8 0xFFFFFFFFFFFFFFFF DUP2 GT ISZERO PUSH2 0x588 JUMPI PUSH2 0x587 PUSH2 0x2A2 JUMP JUMPDEST JUMPDEST PUSH2 0x594 DUP6 DUP3 DUP7 ADD PUSH2 0x4FB JUMP JUMPDEST SWAP2 POP POP SWAP3 POP SWAP3 SWAP1 POP JUMP JUMPDEST PUSH32 0x4E487B7100000000000000000000000000000000000000000000000000000000 PUSH0 MSTORE PUSH1 0x22 PUSH1 0x4 MSTORE PUSH1 0x24 PUSH0 REVERT JUMPDEST PUSH0 PUSH1 0x2 DUP3 DIV SWAP1 POP PUSH1 0x1 DUP3 AND DUP1 PUSH2 0x5E2 JUMPI PUSH1 0x7F DUP3 AND SWAP2 POP JUMPDEST PUSH1 0x20 DUP3 LT DUP2 SUB PUSH2 0x5F5 JUMPI PUSH2 0x5F4 PUSH2 0x59E JUMP JUMPDEST JUMPDEST POP SWAP2 SWAP1 POP JUMP JUMPDEST PUSH0 DUP2 SWAP1 POP DUP2 PUSH0 MSTORE PUSH1 0x20 PUSH0 KECCAK256 SWAP1 POP SWAP2 SWAP1 POP JUMP JUMPDEST PUSH0 PUSH1 0x20 PUSH1 0x1F DUP4 ADD DIV SWAP1 POP SWAP2 SWAP1 POP JUMP JUMPDEST PUSH0 DUP3 DUP3 SHL SWAP1 POP SWAP3 SWAP2 POP POP JUMP JUMPDEST PUSH0 PUSH1 0x8 DUP4 MUL PUSH2 0x657 PUSH32 0xFFFFFFFFFFFFFFFFFFFFFFFFFFFFFFFFFFFFFFFFFFFFFFFFFFFFFFFFFFFFFFFF DUP3 PUSH2 0x61C JUMP JUMPDEST PUSH2 0x661 DUP7 DUP4 PUSH2 0x61C JUMP JUMPDEST SWAP6 POP DUP1 NOT DUP5 AND SWAP4 POP DUP1 DUP7 AND DUP5 OR SWAP3 POP POP POP SWAP4 SWAP3 POP POP POP JUMP JUMPDEST PUSH0 DUP2 SWAP1 POP SWAP2 SWAP1 POP JUMP JUMPDEST PUSH0 DUP2 SWAP1 POP SWAP2 SWAP1 POP JUMP JUMPDEST PUSH0 PUSH2 0x6A5 PUSH2 0x6A0 PUSH2 0x69B DUP5 PUSH2 0x679 JUMP JUMPDEST PUSH2 0x682 JUMP JUMPDEST PUSH2 0x679 JUMP JUMPDEST SWAP1 POP SWAP2 SWAP1 POP JUMP JUMPDEST PUSH0 DUP2 SWAP1 POP SWAP2 SWAP1 POP JUMP JUMPDEST PUSH2 0x6BE DUP4 PUSH2 0x68B JUMP JUMPDEST PUSH2 0x6D2 PUSH2 0x6CA DUP3 PUSH2 0x6AC JUMP JUMPDEST DUP5 DUP5 SLOAD PUSH2 0x628 JUMP JUMPDEST DUP3 SSTORE POP POP POP POP JUMP JUMPDEST PUSH0 SWAP1 JUMP JUMPDEST PUSH2 0x6E6 PUSH2 0x6DA JUMP JUMPDEST PUSH2 0x6F1 DUP2 DUP5 DUP5 PUSH2 0x6B5 JUMP JUMPDEST POP POP POP JUMP JUMPDEST JUMPDEST DUP2 DUP2 LT ISZERO PUSH2 0x714 JUMPI PUSH2 0x709 PUSH0 DUP3 PUSH2 0x6DE JUMP JUMPDEST PUSH1 0x1 DUP2 ADD SWAP1 POP PUSH2 0x6F7 JUMP JUMPDEST POP POP JUMP JUMPDEST PUSH1 0x1F DUP3 GT ISZERO PUSH2 0x759 JUMPI PUSH2 0x72A DUP2 PUSH2 0x5FB JUMP JUMPDEST PUSH2 0x733 DUP5 PUSH2 0x60D JUMP JUMPDEST DUP2 ADD PUSH1 0x20 DUP6 LT ISZERO PUSH2 0x742 JUMPI DUP2 SWAP1 POP JUMPDEST PUSH2 0x756 PUSH2 0x74E DUP6 PUSH2 0x60D JUMP JUMPDEST DUP4 ADD DUP3 PUSH2 0x6F6 JUMP JUMPDEST POP POP JUMPDEST POP POP POP JUMP JUMPDEST PUSH0 DUP3 DUP3 SHR SWAP1 POP SWAP3 SWAP2 POP POP JUMP JUMPDEST PUSH0 PUSH2 0x779 PUSH0 NOT DUP5 PUSH1 0x8 MUL PUSH2 0x75E JUMP JUMPDEST NOT DUP1 DUP4 AND SWAP2 POP POP SWAP3 SWAP2 POP POP JUMP JUMPDEST PUSH0 PUSH2 0x791 DUP4 DUP4 PUSH2 0x76A JUMP JUMPDEST SWAP2 POP DUP3 PUSH1 0x2 MUL DUP3 OR SWAP1 POP SWAP3 SWAP2 POP POP JUMP JUMPDEST PUSH2 0x7AA DUP3 PUSH2 0x32B JUMP JUMPDEST PUSH8 0xFFFFFFFFFFFFFFFF DUP2 GT ISZERO PUSH2 0x7C3 JUMPI PUSH2 0x7C2 PUSH2 0x404 JUMP JUMPDEST JUMPDEST PUSH2 0x7CD DUP3 SLOAD PUSH2 0x5CB JUMP JUMPDEST PUSH2 0x7D8 DUP3 DUP3 DUP6 PUSH2 0x718 JUMP JUMPDEST PUSH0 PUSH1 0x20 SWAP1 POP PUSH1 0x1F DUP4 GT PUSH1 0x1 DUP2 EQ PUSH2 0x809 JUMPI PUSH0 DUP5 ISZERO PUSH2 0x7F7 JUMPI DUP3 DUP8 ADD MLOAD SWAP1 POP JUMPDEST PUSH2 0x801 DUP6 DUP3 PUSH2 0x786 JUMP JUMPDEST DUP7 SSTORE POP PUSH2 0x868 JUMP JUMPDEST PUSH1 0x1F NOT DUP5 AND PUSH2 0x817 DUP7 PUSH2 0x5FB JUMP JUMPDEST PUSH0 JUMPDEST DUP3 DUP2 LT ISZERO PUSH2 0x83E JUMPI DUP5 DUP10 ADD MLOAD DUP3 SSTORE PUSH1 0x1 DUP3 ADD SWAP2 POP PUSH1 0x20 DUP6 ADD SWAP5 POP PUSH1 0x20 DUP2 ADD SWAP1 POP PUSH2 0x819 JUMP JUMPDEST DUP7 DUP4 LT ISZERO PUSH2 0x85B JUMPI DUP5 DUP10 ADD MLOAD PUSH2 0x857 PUSH1 0x1F DUP10 AND DUP3 PUSH2 0x76A JUMP JUMPDEST DUP4 SSTORE POP JUMPDEST PUSH1 0x1 PUSH1 0x2 DUP9 MUL ADD DUP9 SSTORE POP POP POP JUMPDEST POP POP POP POP POP POP JUMP INVALID LOG2 PUSH5 0x6970667358 0x22 SLT KECCAK256 SUB DUP7 0x4F 0xC1 PUSH17 0xFEA88C0B824A704299B0C778E99A2C51ED SUB PREVRANDAO PUSH8 0x103EF500BD176764 PUSH20 0x6F6C634300081A00330000000000000000000000 "
				},
				"gasEstimates": {
					"creation": {
						"codeDepositCost": "442800",
						"executionCost": "478",
						"totalCost": "443278"
					},
					"external": {
						"getProfile(address)": "infinite",
						"setProfile(string,string)": "infinite"
					}
				},
				"methodIdentifiers": {
					"getProfile(address)": "0f53a470",
					"setProfile(string,string)": "719e37ae"
				}
			},
			"storageLayout": {
				"storage": [
					{
						"astId": 11,
						"contract": "contracts/Twitter-Interaction-User.sol:Profile",
						"label": "profiles",
						"offset": 0,
						"slot": "0",
						"type": "t_mapping(t_address,t_struct(UserProfile)6_storage)"
					}
				],
				"types": {
					"t_address": {
						"encoding": "inplace",
						"label": "address",
						"numberOfBytes": "20"
					},
					"t_mapping(t_address,t_struct(UserProfile)6_storage)": {
						"encoding": "mapping",
						"key": "t_address",
						"label": "mapping(address => struct Profile.UserProfile)",
						"numberOfBytes": "32",
						"value": "t_struct(UserProfile)6_storage"
					},
					"t_string_storage": {
						"encoding": "bytes",
						"label": "string",
						"numberOfBytes": "32"
					},
					"t_struct(UserProfile)6_storage": {
						"encoding": "inplace",
						"label": "struct Profile.UserProfile",
						"members": [
							{
								"astId": 3,
								"contract": "contracts/Twitter-Interaction-User.sol:Profile",
								"label": "displayName",
								"offset": 0,
								"slot": "0",
								"type": "t_string_storage"
							},
							{
								"astId": 5,
								"contract": "contracts/Twitter-Interaction-User.sol:Profile",
								"label": "bio",
								"offset": 0,
								"slot": "1",
								"type": "t_string_storage"
							}
						],
						"numberOfBytes": "64"
					}
				}
			},
			"userdoc": {
				"kind": "user",
				"methods": {},
				"version": 1
			}
		}
	}
}