{
	"contracts/Twitter.sol": {
		"Twitter": {
			"abi": [
				{
					"inputs": [
						{
							"internalType": "string",
							"name": "_tweet",
							"type": "string"
						}
					],
					"name": "createTweet",
					"outputs": [],
					"stateMutability": "nonpayable",
					"type": "function"
				},
				{
					"inputs": [
						{
							"internalType": "address",
							"name": "_addr",
							"type": "address"
						}
					],
					"name": "deleteTweet",
					"outputs": [],
					"stateMutability": "nonpayable",
					"type": "function"
				},
				{
					"inputs": [
						{
							"internalType": "address",
							"name": "_owner",
							"type": "address"
						}
					],
					"name": "getTweets",
					"outputs": [
						{
							"internalType": "string",
							"name": "",
							"type": "string"
						}
					],
					"stateMutability": "view",
					"type": "function"
				}
			],
			"devdoc": {
				"kind": "dev",
				"methods": {},
				"version": 1
			},
			"evm": {
				"assembly": "    /* \"contracts/Twitter.sol\":275:694  contract Twitter {... */\n  mstore(0x40, 0x80)\n  callvalue\n  dup1\n  iszero\n  tag_1\n  jumpi\n  0x00\n  dup1\n  revert\ntag_1:\n  pop\n  dataSize(sub_0)\n  dup1\n  dataOffset(sub_0)\n  0x00\n  codecopy\n  0x00\n  return\nstop\n\nsub_0: assembly {\n        /* \"contracts/Twitter.sol\":275:694  contract Twitter {... */\n      mstore(0x40, 0x80)\n      callvalue\n      dup1\n      iszero\n      tag_1\n      jumpi\n      0x00\n      dup1\n      revert\n    tag_1:\n      pop\n      jumpi(tag_2, lt(calldatasize, 0x04))\n      shr(0xe0, calldataload(0x00))\n      dup1\n      0x20f7e65c\n      eq\n      tag_3\n      jumpi\n      dup1\n      0x7c9cd2bc\n      eq\n      tag_4\n      jumpi\n      dup1\n      0x9e92b093\n      eq\n      tag_5\n      jumpi\n    tag_2:\n      0x00\n      dup1\n      revert\n        /* \"contracts/Twitter.sol\":609:691  function deleteTweet(address _addr) public {... */\n    tag_3:\n      tag_6\n      0x04\n      dup1\n      calldatasize\n      sub\n      dup2\n      add\n      swap1\n      tag_7\n      swap2\n      swap1\n      tag_8\n      jump\t// in\n    tag_7:\n      tag_9\n      jump\t// in\n    tag_6:\n      stop\n        /* \"contracts/Twitter.sol\":352:480  function createTweet(string memory _tweet) public {... */\n    tag_4:\n      tag_10\n      0x04\n      dup1\n      calldatasize\n      sub\n      dup2\n      add\n      swap1\n      tag_11\n      swap2\n      swap1\n      tag_12\n      jump\t// in\n    tag_11:\n      tag_13\n      jump\t// in\n    tag_10:\n      stop\n        /* \"contracts/Twitter.sol\":490:601  function getTweets(address _owner) public view returns (string memory) {... */\n    tag_5:\n      tag_14\n      0x04\n      dup1\n      calldatasize\n      sub\n      dup2\n      add\n      swap1\n      tag_15\n      swap2\n      swap1\n      tag_8\n      jump\t// in\n    tag_15:\n      tag_16\n      jump\t// in\n    tag_14:\n      mload(0x40)\n      tag_17\n      swap2\n      swap1\n      tag_18\n      jump\t// in\n    tag_17:\n      mload(0x40)\n      dup1\n      swap2\n      sub\n      swap1\n      return\n        /* \"contracts/Twitter.sol\":609:691  function deleteTweet(address _addr) public {... */\n    tag_9:\n        /* \"contracts/Twitter.sol\":670:676  tweets */\n      0x00\n        /* \"contracts/Twitter.sol\":670:683  tweets[_addr] */\n      dup1\n        /* \"contracts/Twitter.sol\":677:682  _addr */\n      dup3\n        /* \"contracts/Twitter.sol\":670:683  tweets[_addr] */\n      0xffffffffffffffffffffffffffffffffffffffff\n      and\n      0xffffffffffffffffffffffffffffffffffffffff\n      and\n      dup2\n      mstore\n      0x20\n      add\n      swap1\n      dup2\n      mstore\n      0x20\n      add\n      0x00\n      keccak256\n      0x00\n        /* \"contracts/Twitter.sol\":663:683  delete tweets[_addr] */\n      tag_20\n      swap2\n      swap1\n      tag_21\n      jump\t// in\n    tag_20:\n        /* \"contracts/Twitter.sol\":609:691  function deleteTweet(address _addr) public {... */\n      pop\n      jump\t// out\n        /* \"contracts/Twitter.sol\":352:480  function createTweet(string memory _tweet) public {... */\n    tag_13:\n        /* \"contracts/Twitter.sol\":434:440  _tweet */\n      dup1\n        /* \"contracts/Twitter.sol\":413:419  tweets */\n      0x00\n        /* \"contracts/Twitter.sol\":413:431  tweets[msg.sender] */\n      dup1\n        /* \"contracts/Twitter.sol\":420:430  msg.sender */\n      caller\n        /* \"contracts/Twitter.sol\":413:431  tweets[msg.sender] */\n      0xffffffffffffffffffffffffffffffffffffffff\n      and\n      0xffffffffffffffffffffffffffffffffffffffff\n      and\n      dup2\n      mstore\n      0x20\n      add\n      swap1\n      dup2\n      mstore\n      0x20\n      add\n      0x00\n      keccak256\n        /* \"contracts/Twitter.sol\":413:440  tweets[msg.sender] = _tweet */\n      swap1\n      dup2\n      tag_23\n      swap2\n      swap1\n      tag_24\n      jump\t// in\n    tag_23:\n      pop\n        /* \"contracts/Twitter.sol\":352:480  function createTweet(string memory _tweet) public {... */\n      pop\n      jump\t// out\n        /* \"contracts/Twitter.sol\":490:601  function getTweets(address _owner) public view returns (string memory) {... */\n    tag_16:\n        /* \"contracts/Twitter.sol\":546:559  string memory */\n      0x60\n        /* \"contracts/Twitter.sol\":579:585  tweets */\n      0x00\n        /* \"contracts/Twitter.sol\":579:593  tweets[_owner] */\n      dup1\n        /* \"contracts/Twitter.sol\":586:592  _owner */\n      dup4\n        /* \"contracts/Twitter.sol\":579:593  tweets[_owner] */\n      0xffffffffffffffffffffffffffffffffffffffff\n      and\n      0xffffffffffffffffffffffffffffffffffffffff\n      and\n      dup2\n      mstore\n      0x20\n      add\n      swap1\n      dup2\n      mstore\n      0x20\n      add\n      0x00\n      keccak256\n        /* \"contracts/Twitter.sol\":572:593  return tweets[_owner] */\n      dup1\n      sload\n      tag_26\n      swap1\n      tag_27\n      jump\t// in\n    tag_26:\n      dup1\n      0x1f\n      add\n      0x20\n      dup1\n      swap2\n      div\n      mul\n      0x20\n      add\n      mload(0x40)\n      swap1\n      dup2\n      add\n      0x40\n      mstore\n      dup1\n      swap3\n      swap2\n      swap1\n      dup2\n      dup2\n      mstore\n      0x20\n      add\n      dup3\n      dup1\n      sload\n      tag_28\n      swap1\n      tag_27\n      jump\t// in\n    tag_28:\n      dup1\n      iszero\n      tag_29\n      jumpi\n      dup1\n      0x1f\n      lt\n      tag_30\n      jumpi\n      0x0100\n      dup1\n      dup4\n      sload\n      div\n      mul\n      dup4\n      mstore\n      swap2\n      0x20\n      add\n      swap2\n      jump(tag_29)\n    tag_30:\n      dup3\n      add\n      swap2\n      swap1\n      0x00\n      mstore\n      keccak256(0x00, 0x20)\n      swap1\n    tag_31:\n      dup2\n      sload\n      dup2\n      mstore\n      swap1\n      0x01\n      add\n      swap1\n      0x20\n      add\n      dup1\n      dup4\n      gt\n      tag_31\n      jumpi\n      dup3\n      swap1\n      sub\n      0x1f\n      and\n      dup3\n      add\n      swap2\n    tag_29:\n      pop\n      pop\n      pop\n      pop\n      pop\n      swap1\n      pop\n        /* \"contracts/Twitter.sol\":490:601  function getTweets(address _owner) public view returns (string memory) {... */\n      swap2\n      swap1\n      pop\n      jump\t// out\n    tag_21:\n      pop\n      dup1\n      sload\n      tag_32\n      swap1\n      tag_27\n      jump\t// in\n    tag_32:\n      0x00\n      dup3\n      sstore\n      dup1\n      0x1f\n      lt\n      tag_34\n      jumpi\n      pop\n      jump(tag_33)\n    tag_34:\n      0x1f\n      add\n      0x20\n      swap1\n      div\n      swap1\n      0x00\n      mstore\n      keccak256(0x00, 0x20)\n      swap1\n      dup2\n      add\n      swap1\n      tag_35\n      swap2\n      swap1\n      tag_36\n      jump\t// in\n    tag_35:\n    tag_33:\n      pop\n      jump\t// out\n    tag_36:\n    tag_37:\n      dup1\n      dup3\n      gt\n      iszero\n      tag_38\n      jumpi\n      0x00\n      dup2\n      0x00\n      swap1\n      sstore\n      pop\n      0x01\n      add\n      jump(tag_37)\n    tag_38:\n      pop\n      swap1\n      jump\t// out\n        /* \"#utility.yul\":7:82   */\n    tag_39:\n        /* \"#utility.yul\":40:46   */\n      0x00\n        /* \"#utility.yul\":73:75   */\n      0x40\n        /* \"#utility.yul\":67:76   */\n      mload\n        /* \"#utility.yul\":57:76   */\n      swap1\n      pop\n        /* \"#utility.yul\":7:82   */\n      swap1\n      jump\t// out\n        /* \"#utility.yul\":88:205   */\n    tag_40:\n        /* \"#utility.yul\":197:198   */\n      0x00\n        /* \"#utility.yul\":194:195   */\n      dup1\n        /* \"#utility.yul\":187:199   */\n      revert\n        /* \"#utility.yul\":211:328   */\n    tag_41:\n        /* \"#utility.yul\":320:321   */\n      0x00\n        /* \"#utility.yul\":317:318   */\n      dup1\n        /* \"#utility.yul\":310:322   */\n      revert\n        /* \"#utility.yul\":334:460   */\n    tag_42:\n        /* \"#utility.yul\":371:378   */\n      0x00\n        /* \"#utility.yul\":411:453   */\n      0xffffffffffffffffffffffffffffffffffffffff\n        /* \"#utility.yul\":404:409   */\n      dup3\n        /* \"#utility.yul\":400:454   */\n      and\n        /* \"#utility.yul\":389:454   */\n      swap1\n      pop\n        /* \"#utility.yul\":334:460   */\n      swap2\n      swap1\n      pop\n      jump\t// out\n        /* \"#utility.yul\":466:562   */\n    tag_43:\n        /* \"#utility.yul\":503:510   */\n      0x00\n        /* \"#utility.yul\":532:556   */\n      tag_83\n        /* \"#utility.yul\":550:555   */\n      dup3\n        /* \"#utility.yul\":532:556   */\n      tag_42\n      jump\t// in\n    tag_83:\n        /* \"#utility.yul\":521:556   */\n      swap1\n      pop\n        /* \"#utility.yul\":466:562   */\n      swap2\n      swap1\n      pop\n      jump\t// out\n        /* \"#utility.yul\":568:690   */\n    tag_44:\n        /* \"#utility.yul\":641:665   */\n      tag_85\n        /* \"#utility.yul\":659:664   */\n      dup2\n        /* \"#utility.yul\":641:665   */\n      tag_43\n      jump\t// in\n    tag_85:\n        /* \"#utility.yul\":634:639   */\n      dup2\n        /* \"#utility.yul\":631:666   */\n      eq\n        /* \"#utility.yul\":621:684   */\n      tag_86\n      jumpi\n        /* \"#utility.yul\":680:681   */\n      0x00\n        /* \"#utility.yul\":677:678   */\n      dup1\n        /* \"#utility.yul\":670:682   */\n      revert\n        /* \"#utility.yul\":621:684   */\n    tag_86:\n        /* \"#utility.yul\":568:690   */\n      pop\n      jump\t// out\n        /* \"#utility.yul\":696:835   */\n    tag_45:\n        /* \"#utility.yul\":742:747   */\n      0x00\n        /* \"#utility.yul\":780:786   */\n      dup2\n        /* \"#utility.yul\":767:787   */\n      calldataload\n        /* \"#utility.yul\":758:787   */\n      swap1\n      pop\n        /* \"#utility.yul\":796:829   */\n      tag_88\n        /* \"#utility.yul\":823:828   */\n      dup2\n        /* \"#utility.yul\":796:829   */\n      tag_44\n      jump\t// in\n    tag_88:\n        /* \"#utility.yul\":696:835   */\n      swap3\n      swap2\n      pop\n      pop\n      jump\t// out\n        /* \"#utility.yul\":841:1170   */\n    tag_8:\n        /* \"#utility.yul\":900:906   */\n      0x00\n        /* \"#utility.yul\":949:951   */\n      0x20\n        /* \"#utility.yul\":937:946   */\n      dup3\n        /* \"#utility.yul\":928:935   */\n      dup5\n        /* \"#utility.yul\":924:947   */\n      sub\n        /* \"#utility.yul\":920:952   */\n      slt\n        /* \"#utility.yul\":917:1036   */\n      iszero\n      tag_90\n      jumpi\n        /* \"#utility.yul\":955:1034   */\n      tag_91\n      tag_40\n      jump\t// in\n    tag_91:\n        /* \"#utility.yul\":917:1036   */\n    tag_90:\n        /* \"#utility.yul\":1075:1076   */\n      0x00\n        /* \"#utility.yul\":1100:1153   */\n      tag_92\n        /* \"#utility.yul\":1145:1152   */\n      dup5\n        /* \"#utility.yul\":1136:1142   */\n      dup3\n        /* \"#utility.yul\":1125:1134   */\n      dup6\n        /* \"#utility.yul\":1121:1143   */\n      add\n        /* \"#utility.yul\":1100:1153   */\n      tag_45\n      jump\t// in\n    tag_92:\n        /* \"#utility.yul\":1090:1153   */\n      swap2\n      pop\n        /* \"#utility.yul\":1046:1163   */\n      pop\n        /* \"#utility.yul\":841:1170   */\n      swap3\n      swap2\n      pop\n      pop\n      jump\t// out\n        /* \"#utility.yul\":1176:1293   */\n    tag_46:\n        /* \"#utility.yul\":1285:1286   */\n      0x00\n        /* \"#utility.yul\":1282:1283   */\n      dup1\n        /* \"#utility.yul\":1275:1287   */\n      revert\n        /* \"#utility.yul\":1299:1416   */\n    tag_47:\n        /* \"#utility.yul\":1408:1409   */\n      0x00\n        /* \"#utility.yul\":1405:1406   */\n      dup1\n        /* \"#utility.yul\":1398:1410   */\n      revert\n        /* \"#utility.yul\":1422:1524   */\n    tag_48:\n        /* \"#utility.yul\":1463:1469   */\n      0x00\n        /* \"#utility.yul\":1514:1516   */\n      0x1f\n        /* \"#utility.yul\":1510:1517   */\n      not\n        /* \"#utility.yul\":1505:1507   */\n      0x1f\n        /* \"#utility.yul\":1498:1503   */\n      dup4\n        /* \"#utility.yul\":1494:1508   */\n      add\n        /* \"#utility.yul\":1490:1518   */\n      and\n        /* \"#utility.yul\":1480:1518   */\n      swap1\n      pop\n        /* \"#utility.yul\":1422:1524   */\n      swap2\n      swap1\n      pop\n      jump\t// out\n        /* \"#utility.yul\":1530:1710   */\n    tag_49:\n        /* \"#utility.yul\":1578:1655   */\n      0x4e487b7100000000000000000000000000000000000000000000000000000000\n        /* \"#utility.yul\":1575:1576   */\n      0x00\n        /* \"#utility.yul\":1568:1656   */\n      mstore\n        /* \"#utility.yul\":1675:1679   */\n      0x41\n        /* \"#utility.yul\":1672:1673   */\n      0x04\n        /* \"#utility.yul\":1665:1680   */\n      mstore\n        /* \"#utility.yul\":1699:1703   */\n      0x24\n        /* \"#utility.yul\":1696:1697   */\n      0x00\n        /* \"#utility.yul\":1689:1704   */\n      revert\n        /* \"#utility.yul\":1716:1997   */\n    tag_50:\n        /* \"#utility.yul\":1799:1826   */\n      tag_98\n        /* \"#utility.yul\":1821:1825   */\n      dup3\n        /* \"#utility.yul\":1799:1826   */\n      tag_48\n      jump\t// in\n    tag_98:\n        /* \"#utility.yul\":1791:1797   */\n      dup2\n        /* \"#utility.yul\":1787:1827   */\n      add\n        /* \"#utility.yul\":1929:1935   */\n      dup2\n        /* \"#utility.yul\":1917:1927   */\n      dup2\n        /* \"#utility.yul\":1914:1936   */\n      lt\n        /* \"#utility.yul\":1893:1911   */\n      0xffffffffffffffff\n        /* \"#utility.yul\":1881:1891   */\n      dup3\n        /* \"#utility.yul\":1878:1912   */\n      gt\n        /* \"#utility.yul\":1875:1937   */\n      or\n        /* \"#utility.yul\":1872:1960   */\n      iszero\n      tag_99\n      jumpi\n        /* \"#utility.yul\":1940:1958   */\n      tag_100\n      tag_49\n      jump\t// in\n    tag_100:\n        /* \"#utility.yul\":1872:1960   */\n    tag_99:\n        /* \"#utility.yul\":1980:1990   */\n      dup1\n        /* \"#utility.yul\":1976:1978   */\n      0x40\n        /* \"#utility.yul\":1969:1991   */\n      mstore\n        /* \"#utility.yul\":1759:1997   */\n      pop\n        /* \"#utility.yul\":1716:1997   */\n      pop\n      pop\n      jump\t// out\n        /* \"#utility.yul\":2003:2132   */\n    tag_51:\n        /* \"#utility.yul\":2037:2043   */\n      0x00\n        /* \"#utility.yul\":2064:2084   */\n      tag_102\n      tag_39\n      jump\t// in\n    tag_102:\n        /* \"#utility.yul\":2054:2084   */\n      swap1\n      pop\n        /* \"#utility.yul\":2093:2126   */\n      tag_103\n        /* \"#utility.yul\":2121:2125   */\n      dup3\n        /* \"#utility.yul\":2113:2119   */\n      dup3\n        /* \"#utility.yul\":2093:2126   */\n      tag_50\n      jump\t// in\n    tag_103:\n        /* \"#utility.yul\":2003:2132   */\n      swap2\n      swap1\n      pop\n      jump\t// out\n        /* \"#utility.yul\":2138:2446   */\n    tag_52:\n        /* \"#utility.yul\":2200:2204   */\n      0x00\n        /* \"#utility.yul\":2290:2308   */\n      0xffffffffffffffff\n        /* \"#utility.yul\":2282:2288   */\n      dup3\n        /* \"#utility.yul\":2279:2309   */\n      gt\n        /* \"#utility.yul\":2276:2332   */\n      iszero\n      tag_105\n      jumpi\n        /* \"#utility.yul\":2312:2330   */\n      tag_106\n      tag_49\n      jump\t// in\n    tag_106:\n        /* \"#utility.yul\":2276:2332   */\n    tag_105:\n        /* \"#utility.yul\":2350:2379   */\n      tag_107\n        /* \"#utility.yul\":2372:2378   */\n      dup3\n        /* \"#utility.yul\":2350:2379   */\n      tag_48\n      jump\t// in\n    tag_107:\n        /* \"#utility.yul\":2342:2379   */\n      swap1\n      pop\n        /* \"#utility.yul\":2434:2438   */\n      0x20\n        /* \"#utility.yul\":2428:2432   */\n      dup2\n        /* \"#utility.yul\":2424:2439   */\n      add\n        /* \"#utility.yul\":2416:2439   */\n      swap1\n      pop\n        /* \"#utility.yul\":2138:2446   */\n      swap2\n      swap1\n      pop\n      jump\t// out\n        /* \"#utility.yul\":2452:2600   */\n    tag_53:\n        /* \"#utility.yul\":2550:2556   */\n      dup3\n        /* \"#utility.yul\":2545:2548   */\n      dup2\n        /* \"#utility.yul\":2540:2543   */\n      dup4\n        /* \"#utility.yul\":2527:2557   */\n      calldatacopy\n        /* \"#utility.yul\":2591:2592   */\n      0x00\n        /* \"#utility.yul\":2582:2588   */\n      dup4\n        /* \"#utility.yul\":2577:2580   */\n      dup4\n        /* \"#utility.yul\":2573:2589   */\n      add\n        /* \"#utility.yul\":2566:2593   */\n      mstore\n        /* \"#utility.yul\":2452:2600   */\n      pop\n      pop\n      pop\n      jump\t// out\n        /* \"#utility.yul\":2606:3031   */\n    tag_54:\n        /* \"#utility.yul\":2684:2689   */\n      0x00\n        /* \"#utility.yul\":2709:2775   */\n      tag_110\n        /* \"#utility.yul\":2725:2774   */\n      tag_111\n        /* \"#utility.yul\":2767:2773   */\n      dup5\n        /* \"#utility.yul\":2725:2774   */\n      tag_52\n      jump\t// in\n    tag_111:\n        /* \"#utility.yul\":2709:2775   */\n      tag_51\n      jump\t// in\n    tag_110:\n        /* \"#utility.yul\":2700:2775   */\n      swap1\n      pop\n        /* \"#utility.yul\":2798:2804   */\n      dup3\n        /* \"#utility.yul\":2791:2796   */\n      dup2\n        /* \"#utility.yul\":2784:2805   */\n      mstore\n        /* \"#utility.yul\":2836:2840   */\n      0x20\n        /* \"#utility.yul\":2829:2834   */\n      dup2\n        /* \"#utility.yul\":2825:2841   */\n      add\n        /* \"#utility.yul\":2874:2877   */\n      dup5\n        /* \"#utility.yul\":2865:2871   */\n      dup5\n        /* \"#utility.yul\":2860:2863   */\n      dup5\n        /* \"#utility.yul\":2856:2872   */\n      add\n        /* \"#utility.yul\":2853:2878   */\n      gt\n        /* \"#utility.yul\":2850:2962   */\n      iszero\n      tag_112\n      jumpi\n        /* \"#utility.yul\":2881:2960   */\n      tag_113\n      tag_47\n      jump\t// in\n    tag_113:\n        /* \"#utility.yul\":2850:2962   */\n    tag_112:\n        /* \"#utility.yul\":2971:3025   */\n      tag_114\n        /* \"#utility.yul\":3018:3024   */\n      dup5\n        /* \"#utility.yul\":3013:3016   */\n      dup3\n        /* \"#utility.yul\":3008:3011   */\n      dup6\n        /* \"#utility.yul\":2971:3025   */\n      tag_53\n      jump\t// in\n    tag_114:\n        /* \"#utility.yul\":2690:3031   */\n      pop\n        /* \"#utility.yul\":2606:3031   */\n      swap4\n      swap3\n      pop\n      pop\n      pop\n      jump\t// out\n        /* \"#utility.yul\":3051:3391   */\n    tag_55:\n        /* \"#utility.yul\":3107:3112   */\n      0x00\n        /* \"#utility.yul\":3156:3159   */\n      dup3\n        /* \"#utility.yul\":3149:3153   */\n      0x1f\n        /* \"#utility.yul\":3141:3147   */\n      dup4\n        /* \"#utility.yul\":3137:3154   */\n      add\n        /* \"#utility.yul\":3133:3160   */\n      slt\n        /* \"#utility.yul\":3123:3245   */\n      tag_116\n      jumpi\n        /* \"#utility.yul\":3164:3243   */\n      tag_117\n      tag_46\n      jump\t// in\n    tag_117:\n        /* \"#utility.yul\":3123:3245   */\n    tag_116:\n        /* \"#utility.yul\":3281:3287   */\n      dup2\n        /* \"#utility.yul\":3268:3288   */\n      calldataload\n        /* \"#utility.yul\":3306:3385   */\n      tag_118\n        /* \"#utility.yul\":3381:3384   */\n      dup5\n        /* \"#utility.yul\":3373:3379   */\n      dup3\n        /* \"#utility.yul\":3366:3370   */\n      0x20\n        /* \"#utility.yul\":3358:3364   */\n      dup7\n        /* \"#utility.yul\":3354:3371   */\n      add\n        /* \"#utility.yul\":3306:3385   */\n      tag_54\n      jump\t// in\n    tag_118:\n        /* \"#utility.yul\":3297:3385   */\n      swap2\n      pop\n        /* \"#utility.yul\":3113:3391   */\n      pop\n        /* \"#utility.yul\":3051:3391   */\n      swap3\n      swap2\n      pop\n      pop\n      jump\t// out\n        /* \"#utility.yul\":3397:3906   */\n    tag_12:\n        /* \"#utility.yul\":3466:3472   */\n      0x00\n        /* \"#utility.yul\":3515:3517   */\n      0x20\n        /* \"#utility.yul\":3503:3512   */\n      dup3\n        /* \"#utility.yul\":3494:3501   */\n      dup5\n        /* \"#utility.yul\":3490:3513   */\n      sub\n        /* \"#utility.yul\":3486:3518   */\n      slt\n        /* \"#utility.yul\":3483:3602   */\n      iszero\n      tag_120\n      jumpi\n        /* \"#utility.yul\":3521:3600   */\n      tag_121\n      tag_40\n      jump\t// in\n    tag_121:\n        /* \"#utility.yul\":3483:3602   */\n    tag_120:\n        /* \"#utility.yul\":3669:3670   */\n      0x00\n        /* \"#utility.yul\":3658:3667   */\n      dup3\n        /* \"#utility.yul\":3654:3671   */\n      add\n        /* \"#utility.yul\":3641:3672   */\n      calldataload\n        /* \"#utility.yul\":3699:3717   */\n      0xffffffffffffffff\n        /* \"#utility.yul\":3691:3697   */\n      dup2\n        /* \"#utility.yul\":3688:3718   */\n      gt\n        /* \"#utility.yul\":3685:3802   */\n      iszero\n      tag_122\n      jumpi\n        /* \"#utility.yul\":3721:3800   */\n      tag_123\n      tag_41\n      jump\t// in\n    tag_123:\n        /* \"#utility.yul\":3685:3802   */\n    tag_122:\n        /* \"#utility.yul\":3826:3889   */\n      tag_124\n        /* \"#utility.yul\":3881:3888   */\n      dup5\n        /* \"#utility.yul\":3872:3878   */\n      dup3\n        /* \"#utility.yul\":3861:3870   */\n      dup6\n        /* \"#utility.yul\":3857:3879   */\n      add\n        /* \"#utility.yul\":3826:3889   */\n      tag_55\n      jump\t// in\n    tag_124:\n        /* \"#utility.yul\":3816:3889   */\n      swap2\n      pop\n        /* \"#utility.yul\":3612:3899   */\n      pop\n        /* \"#utility.yul\":3397:3906   */\n      swap3\n      swap2\n      pop\n      pop\n      jump\t// out\n        /* \"#utility.yul\":3912:4011   */\n    tag_56:\n        /* \"#utility.yul\":3964:3970   */\n      0x00\n        /* \"#utility.yul\":3998:4003   */\n      dup2\n        /* \"#utility.yul\":3992:4004   */\n      mload\n        /* \"#utility.yul\":3982:4004   */\n      swap1\n      pop\n        /* \"#utility.yul\":3912:4011   */\n      swap2\n      swap1\n      pop\n      jump\t// out\n        /* \"#utility.yul\":4017:4186   */\n    tag_57:\n        /* \"#utility.yul\":4101:4112   */\n      0x00\n        /* \"#utility.yul\":4135:4141   */\n      dup3\n        /* \"#utility.yul\":4130:4133   */\n      dup3\n        /* \"#utility.yul\":4123:4142   */\n      mstore\n        /* \"#utility.yul\":4175:4179   */\n      0x20\n        /* \"#utility.yul\":4170:4173   */\n      dup3\n        /* \"#utility.yul\":4166:4180   */\n      add\n        /* \"#utility.yul\":4151:4180   */\n      swap1\n      pop\n        /* \"#utility.yul\":4017:4186   */\n      swap3\n      swap2\n      pop\n      pop\n      jump\t// out\n        /* \"#utility.yul\":4192:4331   */\n    tag_58:\n        /* \"#utility.yul\":4281:4287   */\n      dup3\n        /* \"#utility.yul\":4276:4279   */\n      dup2\n        /* \"#utility.yul\":4271:4274   */\n      dup4\n        /* \"#utility.yul\":4265:4288   */\n      mcopy\n        /* \"#utility.yul\":4322:4323   */\n      0x00\n        /* \"#utility.yul\":4313:4319   */\n      dup4\n        /* \"#utility.yul\":4308:4311   */\n      dup4\n        /* \"#utility.yul\":4304:4320   */\n      add\n        /* \"#utility.yul\":4297:4324   */\n      mstore\n        /* \"#utility.yul\":4192:4331   */\n      pop\n      pop\n      pop\n      jump\t// out\n        /* \"#utility.yul\":4337:4714   */\n    tag_59:\n        /* \"#utility.yul\":4425:4428   */\n      0x00\n        /* \"#utility.yul\":4453:4492   */\n      tag_129\n        /* \"#utility.yul\":4486:4491   */\n      dup3\n        /* \"#utility.yul\":4453:4492   */\n      tag_56\n      jump\t// in\n    tag_129:\n        /* \"#utility.yul\":4508:4579   */\n      tag_130\n        /* \"#utility.yul\":4572:4578   */\n      dup2\n        /* \"#utility.yul\":4567:4570   */\n      dup6\n        /* \"#utility.yul\":4508:4579   */\n      tag_57\n      jump\t// in\n    tag_130:\n        /* \"#utility.yul\":4501:4579   */\n      swap4\n      pop\n        /* \"#utility.yul\":4588:4653   */\n      tag_131\n        /* \"#utility.yul\":4646:4652   */\n      dup2\n        /* \"#utility.yul\":4641:4644   */\n      dup6\n        /* \"#utility.yul\":4634:4638   */\n      0x20\n        /* \"#utility.yul\":4627:4632   */\n      dup7\n        /* \"#utility.yul\":4623:4639   */\n      add\n        /* \"#utility.yul\":4588:4653   */\n      tag_58\n      jump\t// in\n    tag_131:\n        /* \"#utility.yul\":4678:4707   */\n      tag_132\n        /* \"#utility.yul\":4700:4706   */\n      dup2\n        /* \"#utility.yul\":4678:4707   */\n      tag_48\n      jump\t// in\n    tag_132:\n        /* \"#utility.yul\":4673:4676   */\n      dup5\n        /* \"#utility.yul\":4669:4708   */\n      add\n        /* \"#utility.yul\":4662:4708   */\n      swap2\n      pop\n        /* \"#utility.yul\":4429:4714   */\n      pop\n        /* \"#utility.yul\":4337:4714   */\n      swap3\n      swap2\n      pop\n      pop\n      jump\t// out\n        /* \"#utility.yul\":4720:5033   */\n    tag_18:\n        /* \"#utility.yul\":4833:4837   */\n      0x00\n        /* \"#utility.yul\":4871:4873   */\n      0x20\n        /* \"#utility.yul\":4860:4869   */\n      dup3\n        /* \"#utility.yul\":4856:4874   */\n      add\n        /* \"#utility.yul\":4848:4874   */\n      swap1\n      pop\n        /* \"#utility.yul\":4920:4929   */\n      dup2\n        /* \"#utility.yul\":4914:4918   */\n      dup2\n        /* \"#utility.yul\":4910:4930   */\n      sub\n        /* \"#utility.yul\":4906:4907   */\n      0x00\n        /* \"#utility.yul\":4895:4904   */\n      dup4\n        /* \"#utility.yul\":4891:4908   */\n      add\n        /* \"#utility.yul\":4884:4931   */\n      mstore\n        /* \"#utility.yul\":4948:5026   */\n      tag_134\n        /* \"#utility.yul\":5021:5025   */\n      dup2\n        /* \"#utility.yul\":5012:5018   */\n      dup5\n        /* \"#utility.yul\":4948:5026   */\n      tag_59\n      jump\t// in\n    tag_134:\n        /* \"#utility.yul\":4940:5026   */\n      swap1\n      pop\n        /* \"#utility.yul\":4720:5033   */\n      swap3\n      swap2\n      pop\n      pop\n      jump\t// out\n        /* \"#utility.yul\":5039:5219   */\n    tag_60:\n        /* \"#utility.yul\":5087:5164   */\n      0x4e487b7100000000000000000000000000000000000000000000000000000000\n        /* \"#utility.yul\":5084:5085   */\n      0x00\n        /* \"#utility.yul\":5077:5165   */\n      mstore\n        /* \"#utility.yul\":5184:5188   */\n      0x22\n        /* \"#utility.yul\":5181:5182   */\n      0x04\n        /* \"#utility.yul\":5174:5189   */\n      mstore\n        /* \"#utility.yul\":5208:5212   */\n      0x24\n        /* \"#utility.yul\":5205:5206   */\n      0x00\n        /* \"#utility.yul\":5198:5213   */\n      revert\n        /* \"#utility.yul\":5225:5545   */\n    tag_27:\n        /* \"#utility.yul\":5269:5275   */\n      0x00\n        /* \"#utility.yul\":5306:5307   */\n      0x02\n        /* \"#utility.yul\":5300:5304   */\n      dup3\n        /* \"#utility.yul\":5296:5308   */\n      div\n        /* \"#utility.yul\":5286:5308   */\n      swap1\n      pop\n        /* \"#utility.yul\":5353:5354   */\n      0x01\n        /* \"#utility.yul\":5347:5351   */\n      dup3\n        /* \"#utility.yul\":5343:5355   */\n      and\n        /* \"#utility.yul\":5374:5392   */\n      dup1\n        /* \"#utility.yul\":5364:5445   */\n      tag_137\n      jumpi\n        /* \"#utility.yul\":5430:5434   */\n      0x7f\n        /* \"#utility.yul\":5422:5428   */\n      dup3\n        /* \"#utility.yul\":5418:5435   */\n      and\n        /* \"#utility.yul\":5408:5435   */\n      swap2\n      pop\n        /* \"#utility.yul\":5364:5445   */\n    tag_137:\n        /* \"#utility.yul\":5492:5494   */\n      0x20\n        /* \"#utility.yul\":5484:5490   */\n      dup3\n        /* \"#utility.yul\":5481:5495   */\n      lt\n        /* \"#utility.yul\":5461:5479   */\n      dup2\n        /* \"#utility.yul\":5458:5496   */\n      sub\n        /* \"#utility.yul\":5455:5539   */\n      tag_138\n      jumpi\n        /* \"#utility.yul\":5511:5529   */\n      tag_139\n      tag_60\n      jump\t// in\n    tag_139:\n        /* \"#utility.yul\":5455:5539   */\n    tag_138:\n        /* \"#utility.yul\":5276:5545   */\n      pop\n        /* \"#utility.yul\":5225:5545   */\n      swap2\n      swap1\n      pop\n      jump\t// out\n        /* \"#utility.yul\":5551:5692   */\n    tag_61:\n        /* \"#utility.yul\":5600:5604   */\n      0x00\n        /* \"#utility.yul\":5623:5626   */\n      dup2\n        /* \"#utility.yul\":5615:5626   */\n      swap1\n      pop\n        /* \"#utility.yul\":5646:5649   */\n      dup2\n        /* \"#utility.yul\":5643:5644   */\n      0x00\n        /* \"#utility.yul\":5636:5650   */\n      mstore\n        /* \"#utility.yul\":5680:5684   */\n      0x20\n        /* \"#utility.yul\":5677:5678   */\n      0x00\n        /* \"#utility.yul\":5667:5685   */\n      keccak256\n        /* \"#utility.yul\":5659:5685   */\n      swap1\n      pop\n        /* \"#utility.yul\":5551:5692   */\n      swap2\n      swap1\n      pop\n      jump\t// out\n        /* \"#utility.yul\":5698:5791   */\n    tag_62:\n        /* \"#utility.yul\":5735:5741   */\n      0x00\n        /* \"#utility.yul\":5782:5784   */\n      0x20\n        /* \"#utility.yul\":5777:5779   */\n      0x1f\n        /* \"#utility.yul\":5770:5775   */\n      dup4\n        /* \"#utility.yul\":5766:5780   */\n      add\n        /* \"#utility.yul\":5762:5785   */\n      div\n        /* \"#utility.yul\":5752:5785   */\n      swap1\n      pop\n        /* \"#utility.yul\":5698:5791   */\n      swap2\n      swap1\n      pop\n      jump\t// out\n        /* \"#utility.yul\":5797:5904   */\n    tag_63:\n        /* \"#utility.yul\":5841:5849   */\n      0x00\n        /* \"#utility.yul\":5891:5896   */\n      dup3\n        /* \"#utility.yul\":5885:5889   */\n      dup3\n        /* \"#utility.yul\":5881:5897   */\n      shl\n        /* \"#utility.yul\":5860:5897   */\n      swap1\n      pop\n        /* \"#utility.yul\":5797:5904   */\n      swap3\n      swap2\n      pop\n      pop\n      jump\t// out\n        /* \"#utility.yul\":5910:6303   */\n    tag_64:\n        /* \"#utility.yul\":5979:5985   */\n      0x00\n        /* \"#utility.yul\":6029:6030   */\n      0x08\n        /* \"#utility.yul\":6017:6027   */\n      dup4\n        /* \"#utility.yul\":6013:6031   */\n      mul\n        /* \"#utility.yul\":6052:6149   */\n      tag_144\n        /* \"#utility.yul\":6082:6148   */\n      0xffffffffffffffffffffffffffffffffffffffffffffffffffffffffffffffff\n        /* \"#utility.yul\":6071:6080   */\n      dup3\n        /* \"#utility.yul\":6052:6149   */\n      tag_63\n      jump\t// in\n    tag_144:\n        /* \"#utility.yul\":6170:6209   */\n      tag_145\n        /* \"#utility.yul\":6200:6208   */\n      dup7\n        /* \"#utility.yul\":6189:6198   */\n      dup4\n        /* \"#utility.yul\":6170:6209   */\n      tag_63\n      jump\t// in\n    tag_145:\n        /* \"#utility.yul\":6158:6209   */\n      swap6\n      pop\n        /* \"#utility.yul\":6242:6246   */\n      dup1\n        /* \"#utility.yul\":6238:6247   */\n      not\n        /* \"#utility.yul\":6231:6236   */\n      dup5\n        /* \"#utility.yul\":6227:6248   */\n      and\n        /* \"#utility.yul\":6218:6248   */\n      swap4\n      pop\n        /* \"#utility.yul\":6291:6295   */\n      dup1\n        /* \"#utility.yul\":6281:6289   */\n      dup7\n        /* \"#utility.yul\":6277:6296   */\n      and\n        /* \"#utility.yul\":6270:6275   */\n      dup5\n        /* \"#utility.yul\":6267:6297   */\n      or\n        /* \"#utility.yul\":6257:6297   */\n      swap3\n      pop\n        /* \"#utility.yul\":5986:6303   */\n      pop\n      pop\n        /* \"#utility.yul\":5910:6303   */\n      swap4\n      swap3\n      pop\n      pop\n      pop\n      jump\t// out\n        /* \"#utility.yul\":6309:6386   */\n    tag_65:\n        /* \"#utility.yul\":6346:6353   */\n      0x00\n        /* \"#utility.yul\":6375:6380   */\n      dup2\n        /* \"#utility.yul\":6364:6380   */\n      swap1\n      pop\n        /* \"#utility.yul\":6309:6386   */\n      swap2\n      swap1\n      pop\n      jump\t// out\n        /* \"#utility.yul\":6392:6452   */\n    tag_66:\n        /* \"#utility.yul\":6420:6423   */\n      0x00\n        /* \"#utility.yul\":6441:6446   */\n      dup2\n        /* \"#utility.yul\":6434:6446   */\n      swap1\n      pop\n        /* \"#utility.yul\":6392:6452   */\n      swap2\n      swap1\n      pop\n      jump\t// out\n        /* \"#utility.yul\":6458:6600   */\n    tag_67:\n        /* \"#utility.yul\":6508:6517   */\n      0x00\n        /* \"#utility.yul\":6541:6594   */\n      tag_149\n        /* \"#utility.yul\":6559:6593   */\n      tag_150\n        /* \"#utility.yul\":6568:6592   */\n      tag_151\n        /* \"#utility.yul\":6586:6591   */\n      dup5\n        /* \"#utility.yul\":6568:6592   */\n      tag_65\n      jump\t// in\n    tag_151:\n        /* \"#utility.yul\":6559:6593   */\n      tag_66\n      jump\t// in\n    tag_150:\n        /* \"#utility.yul\":6541:6594   */\n      tag_65\n      jump\t// in\n    tag_149:\n        /* \"#utility.yul\":6528:6594   */\n      swap1\n      pop\n        /* \"#utility.yul\":6458:6600   */\n      swap2\n      swap1\n      pop\n      jump\t// out\n        /* \"#utility.yul\":6606:6681   */\n    tag_68:\n        /* \"#utility.yul\":6649:6652   */\n      0x00\n        /* \"#utility.yul\":6670:6675   */\n      dup2\n        /* \"#utility.yul\":6663:6675   */\n      swap1\n      pop\n        /* \"#utility.yul\":6606:6681   */\n      swap2\n      swap1\n      pop\n      jump\t// out\n        /* \"#utility.yul\":6687:6956   */\n    tag_69:\n        /* \"#utility.yul\":6797:6836   */\n      tag_154\n        /* \"#utility.yul\":6828:6835   */\n      dup4\n        /* \"#utility.yul\":6797:6836   */\n      tag_67\n      jump\t// in\n    tag_154:\n        /* \"#utility.yul\":6858:6949   */\n      tag_155\n        /* \"#utility.yul\":6907:6948   */\n      tag_156\n        /* \"#utility.yul\":6931:6947   */\n      dup3\n        /* \"#utility.yul\":6907:6948   */\n      tag_68\n      jump\t// in\n    tag_156:\n        /* \"#utility.yul\":6899:6905   */\n      dup5\n        /* \"#utility.yul\":6892:6896   */\n      dup5\n        /* \"#utility.yul\":6886:6897   */\n      sload\n        /* \"#utility.yul\":6858:6949   */\n      tag_64\n      jump\t// in\n    tag_155:\n        /* \"#utility.yul\":6852:6856   */\n      dup3\n        /* \"#utility.yul\":6845:6950   */\n      sstore\n        /* \"#utility.yul\":6763:6956   */\n      pop\n        /* \"#utility.yul\":6687:6956   */\n      pop\n      pop\n      pop\n      jump\t// out\n        /* \"#utility.yul\":6962:7035   */\n    tag_70:\n        /* \"#utility.yul\":7007:7010   */\n      0x00\n        /* \"#utility.yul\":6962:7035   */\n      swap1\n      jump\t// out\n        /* \"#utility.yul\":7041:7230   */\n    tag_71:\n        /* \"#utility.yul\":7118:7150   */\n      tag_159\n      tag_70\n      jump\t// in\n    tag_159:\n        /* \"#utility.yul\":7159:7224   */\n      tag_160\n        /* \"#utility.yul\":7217:7223   */\n      dup2\n        /* \"#utility.yul\":7209:7215   */\n      dup5\n        /* \"#utility.yul\":7203:7207   */\n      dup5\n        /* \"#utility.yul\":7159:7224   */\n      tag_69\n      jump\t// in\n    tag_160:\n        /* \"#utility.yul\":7094:7230   */\n      pop\n        /* \"#utility.yul\":7041:7230   */\n      pop\n      pop\n      jump\t// out\n        /* \"#utility.yul\":7236:7422   */\n    tag_72:\n        /* \"#utility.yul\":7296:7416   */\n    tag_162:\n        /* \"#utility.yul\":7313:7316   */\n      dup2\n        /* \"#utility.yul\":7306:7311   */\n      dup2\n        /* \"#utility.yul\":7303:7317   */\n      lt\n        /* \"#utility.yul\":7296:7416   */\n      iszero\n      tag_164\n      jumpi\n        /* \"#utility.yul\":7367:7406   */\n      tag_165\n        /* \"#utility.yul\":7404:7405   */\n      0x00\n        /* \"#utility.yul\":7397:7402   */\n      dup3\n        /* \"#utility.yul\":7367:7406   */\n      tag_71\n      jump\t// in\n    tag_165:\n        /* \"#utility.yul\":7340:7341   */\n      0x01\n        /* \"#utility.yul\":7333:7338   */\n      dup2\n        /* \"#utility.yul\":7329:7342   */\n      add\n        /* \"#utility.yul\":7320:7342   */\n      swap1\n      pop\n        /* \"#utility.yul\":7296:7416   */\n      jump(tag_162)\n    tag_164:\n        /* \"#utility.yul\":7236:7422   */\n      pop\n      pop\n      jump\t// out\n        /* \"#utility.yul\":7428:7971   */\n    tag_73:\n        /* \"#utility.yul\":7529:7531   */\n      0x1f\n        /* \"#utility.yul\":7524:7527   */\n      dup3\n        /* \"#utility.yul\":7521:7532   */\n      gt\n        /* \"#utility.yul\":7518:7964   */\n      iszero\n      tag_167\n      jumpi\n        /* \"#utility.yul\":7563:7601   */\n      tag_168\n        /* \"#utility.yul\":7595:7600   */\n      dup2\n        /* \"#utility.yul\":7563:7601   */\n      tag_61\n      jump\t// in\n    tag_168:\n        /* \"#utility.yul\":7647:7676   */\n      tag_169\n        /* \"#utility.yul\":7665:7675   */\n      dup5\n        /* \"#utility.yul\":7647:7676   */\n      tag_62\n      jump\t// in\n    tag_169:\n        /* \"#utility.yul\":7637:7645   */\n      dup2\n        /* \"#utility.yul\":7633:7677   */\n      add\n        /* \"#utility.yul\":7830:7832   */\n      0x20\n        /* \"#utility.yul\":7818:7828   */\n      dup6\n        /* \"#utility.yul\":7815:7833   */\n      lt\n        /* \"#utility.yul\":7812:7861   */\n      iszero\n      tag_170\n      jumpi\n        /* \"#utility.yul\":7851:7859   */\n      dup2\n        /* \"#utility.yul\":7836:7859   */\n      swap1\n      pop\n        /* \"#utility.yul\":7812:7861   */\n    tag_170:\n        /* \"#utility.yul\":7874:7954   */\n      tag_171\n        /* \"#utility.yul\":7930:7952   */\n      tag_172\n        /* \"#utility.yul\":7948:7951   */\n      dup6\n        /* \"#utility.yul\":7930:7952   */\n      tag_62\n      jump\t// in\n    tag_172:\n        /* \"#utility.yul\":7920:7928   */\n      dup4\n        /* \"#utility.yul\":7916:7953   */\n      add\n        /* \"#utility.yul\":7903:7914   */\n      dup3\n        /* \"#utility.yul\":7874:7954   */\n      tag_72\n      jump\t// in\n    tag_171:\n        /* \"#utility.yul\":7533:7964   */\n      pop\n      pop\n        /* \"#utility.yul\":7518:7964   */\n    tag_167:\n        /* \"#utility.yul\":7428:7971   */\n      pop\n      pop\n      pop\n      jump\t// out\n        /* \"#utility.yul\":7977:8094   */\n    tag_74:\n        /* \"#utility.yul\":8031:8039   */\n      0x00\n        /* \"#utility.yul\":8081:8086   */\n      dup3\n        /* \"#utility.yul\":8075:8079   */\n      dup3\n        /* \"#utility.yul\":8071:8087   */\n      shr\n        /* \"#utility.yul\":8050:8087   */\n      swap1\n      pop\n        /* \"#utility.yul\":7977:8094   */\n      swap3\n      swap2\n      pop\n      pop\n      jump\t// out\n        /* \"#utility.yul\":8100:8269   */\n    tag_75:\n        /* \"#utility.yul\":8144:8150   */\n      0x00\n        /* \"#utility.yul\":8177:8228   */\n      tag_175\n        /* \"#utility.yul\":8225:8226   */\n      0x00\n        /* \"#utility.yul\":8221:8227   */\n      not\n        /* \"#utility.yul\":8213:8218   */\n      dup5\n        /* \"#utility.yul\":8210:8211   */\n      0x08\n        /* \"#utility.yul\":8206:8219   */\n      mul\n        /* \"#utility.yul\":8177:8228   */\n      tag_74\n      jump\t// in\n    tag_175:\n        /* \"#utility.yul\":8173:8229   */\n      not\n        /* \"#utility.yul\":8258:8262   */\n      dup1\n        /* \"#utility.yul\":8252:8256   */\n      dup4\n        /* \"#utility.yul\":8248:8263   */\n      and\n        /* \"#utility.yul\":8238:8263   */\n      swap2\n      pop\n        /* \"#utility.yul\":8151:8269   */\n      pop\n        /* \"#utility.yul\":8100:8269   */\n      swap3\n      swap2\n      pop\n      pop\n      jump\t// out\n        /* \"#utility.yul\":8274:8569   */\n    tag_76:\n        /* \"#utility.yul\":8350:8354   */\n      0x00\n        /* \"#utility.yul\":8496:8525   */\n      tag_177\n        /* \"#utility.yul\":8521:8524   */\n      dup4\n        /* \"#utility.yul\":8515:8519   */\n      dup4\n        /* \"#utility.yul\":8496:8525   */\n      tag_75\n      jump\t// in\n    tag_177:\n        /* \"#utility.yul\":8488:8525   */\n      swap2\n      pop\n        /* \"#utility.yul\":8558:8561   */\n      dup3\n        /* \"#utility.yul\":8555:8556   */\n      0x02\n        /* \"#utility.yul\":8551:8562   */\n      mul\n        /* \"#utility.yul\":8545:8549   */\n      dup3\n        /* \"#utility.yul\":8542:8563   */\n      or\n        /* \"#utility.yul\":8534:8563   */\n      swap1\n      pop\n        /* \"#utility.yul\":8274:8569   */\n      swap3\n      swap2\n      pop\n      pop\n      jump\t// out\n        /* \"#utility.yul\":8574:9969   */\n    tag_24:\n        /* \"#utility.yul\":8691:8728   */\n      tag_179\n        /* \"#utility.yul\":8724:8727   */\n      dup3\n        /* \"#utility.yul\":8691:8728   */\n      tag_56\n      jump\t// in\n    tag_179:\n        /* \"#utility.yul\":8793:8811   */\n      0xffffffffffffffff\n        /* \"#utility.yul\":8785:8791   */\n      dup2\n        /* \"#utility.yul\":8782:8812   */\n      gt\n        /* \"#utility.yul\":8779:8835   */\n      iszero\n      tag_180\n      jumpi\n        /* \"#utility.yul\":8815:8833   */\n      tag_181\n      tag_49\n      jump\t// in\n    tag_181:\n        /* \"#utility.yul\":8779:8835   */\n    tag_180:\n        /* \"#utility.yul\":8859:8897   */\n      tag_182\n        /* \"#utility.yul\":8891:8895   */\n      dup3\n        /* \"#utility.yul\":8885:8896   */\n      sload\n        /* \"#utility.yul\":8859:8897   */\n      tag_27\n      jump\t// in\n    tag_182:\n        /* \"#utility.yul\":8944:9011   */\n      tag_183\n        /* \"#utility.yul\":9004:9010   */\n      dup3\n        /* \"#utility.yul\":8996:9002   */\n      dup3\n        /* \"#utility.yul\":8990:8994   */\n      dup6\n        /* \"#utility.yul\":8944:9011   */\n      tag_73\n      jump\t// in\n    tag_183:\n        /* \"#utility.yul\":9038:9039   */\n      0x00\n        /* \"#utility.yul\":9062:9066   */\n      0x20\n        /* \"#utility.yul\":9049:9066   */\n      swap1\n      pop\n        /* \"#utility.yul\":9094:9096   */\n      0x1f\n        /* \"#utility.yul\":9086:9092   */\n      dup4\n        /* \"#utility.yul\":9083:9097   */\n      gt\n        /* \"#utility.yul\":9111:9112   */\n      0x01\n        /* \"#utility.yul\":9106:9724   */\n      dup2\n      eq\n      tag_185\n      jumpi\n        /* \"#utility.yul\":9768:9769   */\n      0x00\n        /* \"#utility.yul\":9785:9791   */\n      dup5\n        /* \"#utility.yul\":9782:9859   */\n      iszero\n      tag_186\n      jumpi\n        /* \"#utility.yul\":9834:9843   */\n      dup3\n        /* \"#utility.yul\":9829:9832   */\n      dup8\n        /* \"#utility.yul\":9825:9844   */\n      add\n        /* \"#utility.yul\":9819:9845   */\n      mload\n        /* \"#utility.yul\":9810:9845   */\n      swap1\n      pop\n        /* \"#utility.yul\":9782:9859   */\n    tag_186:\n        /* \"#utility.yul\":9885:9952   */\n      tag_187\n        /* \"#utility.yul\":9945:9951   */\n      dup6\n        /* \"#utility.yul\":9938:9943   */\n      dup3\n        /* \"#utility.yul\":9885:9952   */\n      tag_76\n      jump\t// in\n    tag_187:\n        /* \"#utility.yul\":9879:9883   */\n      dup7\n        /* \"#utility.yul\":9872:9953   */\n      sstore\n        /* \"#utility.yul\":9741:9963   */\n      pop\n        /* \"#utility.yul\":9076:9963   */\n      jump(tag_184)\n        /* \"#utility.yul\":9106:9724   */\n    tag_185:\n        /* \"#utility.yul\":9158:9162   */\n      0x1f\n        /* \"#utility.yul\":9154:9163   */\n      not\n        /* \"#utility.yul\":9146:9152   */\n      dup5\n        /* \"#utility.yul\":9142:9164   */\n      and\n        /* \"#utility.yul\":9192:9229   */\n      tag_188\n        /* \"#utility.yul\":9224:9228   */\n      dup7\n        /* \"#utility.yul\":9192:9229   */\n      tag_61\n      jump\t// in\n    tag_188:\n        /* \"#utility.yul\":9251:9252   */\n      0x00\n        /* \"#utility.yul\":9265:9473   */\n    tag_189:\n        /* \"#utility.yul\":9279:9286   */\n      dup3\n        /* \"#utility.yul\":9276:9277   */\n      dup2\n        /* \"#utility.yul\":9273:9287   */\n      lt\n        /* \"#utility.yul\":9265:9473   */\n      iszero\n      tag_191\n      jumpi\n        /* \"#utility.yul\":9358:9367   */\n      dup5\n        /* \"#utility.yul\":9353:9356   */\n      dup10\n        /* \"#utility.yul\":9349:9368   */\n      add\n        /* \"#utility.yul\":9343:9369   */\n      mload\n        /* \"#utility.yul\":9335:9341   */\n      dup3\n        /* \"#utility.yul\":9328:9370   */\n      sstore\n        /* \"#utility.yul\":9409:9410   */\n      0x01\n        /* \"#utility.yul\":9401:9407   */\n      dup3\n        /* \"#utility.yul\":9397:9411   */\n      add\n        /* \"#utility.yul\":9387:9411   */\n      swap2\n      pop\n        /* \"#utility.yul\":9456:9458   */\n      0x20\n        /* \"#utility.yul\":9445:9454   */\n      dup6\n        /* \"#utility.yul\":9441:9459   */\n      add\n        /* \"#utility.yul\":9428:9459   */\n      swap5\n      pop\n        /* \"#utility.yul\":9302:9306   */\n      0x20\n        /* \"#utility.yul\":9299:9300   */\n      dup2\n        /* \"#utility.yul\":9295:9307   */\n      add\n        /* \"#utility.yul\":9290:9307   */\n      swap1\n      pop\n        /* \"#utility.yul\":9265:9473   */\n      jump(tag_189)\n    tag_191:\n        /* \"#utility.yul\":9501:9507   */\n      dup7\n        /* \"#utility.yul\":9492:9499   */\n      dup4\n        /* \"#utility.yul\":9489:9508   */\n      lt\n        /* \"#utility.yul\":9486:9665   */\n      iszero\n      tag_192\n      jumpi\n        /* \"#utility.yul\":9559:9568   */\n      dup5\n        /* \"#utility.yul\":9554:9557   */\n      dup10\n        /* \"#utility.yul\":9550:9569   */\n      add\n        /* \"#utility.yul\":9544:9570   */\n      mload\n        /* \"#utility.yul\":9602:9650   */\n      tag_193\n        /* \"#utility.yul\":9644:9648   */\n      0x1f\n        /* \"#utility.yul\":9636:9642   */\n      dup10\n        /* \"#utility.yul\":9632:9649   */\n      and\n        /* \"#utility.yul\":9621:9630   */\n      dup3\n        /* \"#utility.yul\":9602:9650   */\n      tag_75\n      jump\t// in\n    tag_193:\n        /* \"#utility.yul\":9594:9600   */\n      dup4\n        /* \"#utility.yul\":9587:9651   */\n      sstore\n        /* \"#utility.yul\":9509:9665   */\n      pop\n        /* \"#utility.yul\":9486:9665   */\n    tag_192:\n        /* \"#utility.yul\":9711:9712   */\n      0x01\n        /* \"#utility.yul\":9707:9708   */\n      0x02\n        /* \"#utility.yul\":9699:9705   */\n      dup9\n        /* \"#utility.yul\":9695:9709   */\n      mul\n        /* \"#utility.yul\":9691:9713   */\n      add\n        /* \"#utility.yul\":9685:9689   */\n      dup9\n        /* \"#utility.yul\":9678:9714   */\n      sstore\n        /* \"#utility.yul\":9113:9724   */\n      pop\n      pop\n      pop\n        /* \"#utility.yul\":9076:9963   */\n    tag_184:\n      pop\n        /* \"#utility.yul\":8666:9969   */\n      pop\n      pop\n      pop\n        /* \"#utility.yul\":8574:9969   */\n      pop\n      pop\n      jump\t// out\n\n    auxdata: 0xa2646970667358221220649f522c082ef6552601c46f2a059bfb23840c9d0465bd5255090041692aa0f164736f6c634300081a0033\n}\n",
				"bytecode": {
					"linkReferences": {},
					"object": "6080604052348015600e575f80fd5b506108078061001c5f395ff3fe608060405234801561000f575f80fd5b506004361061003f575f3560e01c806320f7e65c146100435780637c9cd2bc1461005f5780639e92b0931461007b575b5f80fd5b61005d600480360381019061005891906102d1565b6100ab565b005b61007960048036038101906100749190610438565b6100f5565b005b610095600480360381019061009091906102d1565b610142565b6040516100a291906104df565b60405180910390f35b5f808273ffffffffffffffffffffffffffffffffffffffff1673ffffffffffffffffffffffffffffffffffffffff1681526020019081526020015f205f6100f2919061020e565b50565b805f803373ffffffffffffffffffffffffffffffffffffffff1673ffffffffffffffffffffffffffffffffffffffff1681526020019081526020015f20908161013e9190610702565b5050565b60605f808373ffffffffffffffffffffffffffffffffffffffff1673ffffffffffffffffffffffffffffffffffffffff1681526020019081526020015f20805461018b9061052c565b80601f01602080910402602001604051908101604052809291908181526020018280546101b79061052c565b80156102025780601f106101d957610100808354040283529160200191610202565b820191905f5260205f20905b8154815290600101906020018083116101e557829003601f168201915b50505050509050919050565b50805461021a9061052c565b5f825580601f1061022b5750610248565b601f0160209004905f5260205f2090810190610247919061024b565b5b50565b5b80821115610262575f815f90555060010161024c565b5090565b5f604051905090565b5f80fd5b5f80fd5b5f73ffffffffffffffffffffffffffffffffffffffff82169050919050565b5f6102a082610277565b9050919050565b6102b081610296565b81146102ba575f80fd5b50565b5f813590506102cb816102a7565b92915050565b5f602082840312156102e6576102e561026f565b5b5f6102f3848285016102bd565b91505092915050565b5f80fd5b5f80fd5b5f601f19601f8301169050919050565b7f4e487b71000000000000000000000000000000000000000000000000000000005f52604160045260245ffd5b61034a82610304565b810181811067ffffffffffffffff8211171561036957610368610314565b5b80604052505050565b5f61037b610266565b90506103878282610341565b919050565b5f67ffffffffffffffff8211156103a6576103a5610314565b5b6103af82610304565b9050602081019050919050565b828183375f83830152505050565b5f6103dc6103d78461038c565b610372565b9050828152602081018484840111156103f8576103f7610300565b5b6104038482856103bc565b509392505050565b5f82601f83011261041f5761041e6102fc565b5b813561042f8482602086016103ca565b91505092915050565b5f6020828403121561044d5761044c61026f565b5b5f82013567ffffffffffffffff81111561046a57610469610273565b5b6104768482850161040b565b91505092915050565b5f81519050919050565b5f82825260208201905092915050565b8281835e5f83830152505050565b5f6104b18261047f565b6104bb8185610489565b93506104cb818560208601610499565b6104d481610304565b840191505092915050565b5f6020820190508181035f8301526104f781846104a7565b905092915050565b7f4e487b71000000000000000000000000000000000000000000000000000000005f52602260045260245ffd5b5f600282049050600182168061054357607f821691505b602082108103610556576105556104ff565b5b50919050565b5f819050815f5260205f209050919050565b5f6020601f8301049050919050565b5f82821b905092915050565b5f600883026105b87fffffffffffffffffffffffffffffffffffffffffffffffffffffffffffffffff8261057d565b6105c2868361057d565b95508019841693508086168417925050509392505050565b5f819050919050565b5f819050919050565b5f6106066106016105fc846105da565b6105e3565b6105da565b9050919050565b5f819050919050565b61061f836105ec565b61063361062b8261060d565b848454610589565b825550505050565b5f90565b61064761063b565b610652818484610616565b505050565b5b818110156106755761066a5f8261063f565b600181019050610658565b5050565b601f8211156106ba5761068b8161055c565b6106948461056e565b810160208510156106a3578190505b6106b76106af8561056e565b830182610657565b50505b505050565b5f82821c905092915050565b5f6106da5f19846008026106bf565b1980831691505092915050565b5f6106f283836106cb565b9150826002028217905092915050565b61070b8261047f565b67ffffffffffffffff81111561072457610723610314565b5b61072e825461052c565b610739828285610679565b5f60209050601f83116001811461076a575f8415610758578287015190505b61076285826106e7565b8655506107c9565b601f1984166107788661055c565b5f5b8281101561079f5784890151825560018201915060208501945060208101905061077a565b868310156107bc57848901516107b8601f8916826106cb565b8355505b6001600288020188555050505b50505050505056fea2646970667358221220649f522c082ef6552601c46f2a059bfb23840c9d0465bd5255090041692aa0f164736f6c634300081a0033",
					"opcodes": "PUSH1 0x80 PUSH1 0x40 MSTORE CALLVALUE DUP1 ISZERO PUSH1 0xE JUMPI PUSH0 DUP1 REVERT JUMPDEST POP PUSH2 0x807 DUP1 PUSH2 0x1C PUSH0 CODECOPY PUSH0 RETURN INVALID PUSH1 0x80 PUSH1 0x40 MSTORE CALLVALUE DUP1 ISZERO PUSH2 0xF JUMPI PUSH0 DUP1 REVERT JUMPDEST POP PUSH1 0x4 CALLDATASIZE LT PUSH2 0x3F JUMPI PUSH0 CALLDATALOAD PUSH1 0xE0 SHR DUP1 PUSH4 0x20F7E65C EQ PUSH2 0x43 JUMPI DUP1 PUSH4 0x7C9CD2BC EQ PUSH2 0x5F JUMPI DUP1 PUSH4 0x9E92B093 EQ PUSH2 0x7B JUMPI JUMPDEST PUSH0 DUP1 REVERT JUMPDEST PUSH2 0x5D PUSH1 0x4 DUP1 CALLDATASIZE SUB DUP2 ADD SWAP1 PUSH2 0x58 SWAP2 SWAP1 PUSH2 0x2D1 JUMP JUMPDEST PUSH2 0xAB JUMP JUMPDEST STOP JUMPDEST PUSH2 0x79 PUSH1 0x4 DUP1 CALLDATASIZE SUB DUP2 ADD SWAP1 PUSH2 0x74 SWAP2 SWAP1 PUSH2 0x438 JUMP JUMPDEST PUSH2 0xF5 JUMP JUMPDEST STOP JUMPDEST PUSH2 0x95 PUSH1 0x4 DUP1 CALLDATASIZE SUB DUP2 ADD SWAP1 PUSH2 0x90 SWAP2 SWAP1 PUSH2 0x2D1 JUMP JUMPDEST PUSH2 0x142 JUMP JUMPDEST PUSH1 0x40 MLOAD PUSH2 0xA2 SWAP2 SWAP1 PUSH2 0x4DF JUMP JUMPDEST PUSH1 0x40 MLOAD DUP1 SWAP2 SUB SWAP1 RETURN JUMPDEST PUSH0 DUP1 DUP3 PUSH20 0xFFFFFFFFFFFFFFFFFFFFFFFFFFFFFFFFFFFFFFFF AND PUSH20 0xFFFFFFFFFFFFFFFFFFFFFFFFFFFFFFFFFFFFFFFF AND DUP2 MSTORE PUSH1 0x20 ADD SWAP1 DUP2 MSTORE PUSH1 0x20 ADD PUSH0 KECCAK256 PUSH0 PUSH2 0xF2 SWAP2 SWAP1 PUSH2 0x20E JUMP JUMPDEST POP JUMP JUMPDEST DUP1 PUSH0 DUP1 CALLER PUSH20 0xFFFFFFFFFFFFFFFFFFFFFFFFFFFFFFFFFFFFFFFF AND PUSH20 0xFFFFFFFFFFFFFFFFFFFFFFFFFFFFFFFFFFFFFFFF AND DUP2 MSTORE PUSH1 0x20 ADD SWAP1 DUP2 MSTORE PUSH1 0x20 ADD PUSH0 KECCAK256 SWAP1 DUP2 PUSH2 0x13E SWAP2 SWAP1 PUSH2 0x702 JUMP JUMPDEST POP POP JUMP JUMPDEST PUSH1 0x60 PUSH0 DUP1 DUP4 PUSH20 0xFFFFFFFFFFFFFFFFFFFFFFFFFFFFFFFFFFFFFFFF AND PUSH20 0xFFFFFFFFFFFFFFFFFFFFFFFFFFFFFFFFFFFFFFFF AND DUP2 MSTORE PUSH1 0x20 ADD SWAP1 DUP2 MSTORE PUSH1 0x20 ADD PUSH0 KECCAK256 DUP1 SLOAD PUSH2 0x18B SWAP1 PUSH2 0x52C JUMP JUMPDEST DUP1 PUSH1 0x1F ADD PUSH1 0x20 DUP1 SWAP2 DIV MUL PUSH1 0x20 ADD PUSH1 0x40 MLOAD SWAP1 DUP2 ADD PUSH1 0x40 MSTORE DUP1 SWAP3 SWAP2 SWAP1 DUP2 DUP2 MSTORE PUSH1 0x20 ADD DUP3 DUP1 SLOAD PUSH2 0x1B7 SWAP1 PUSH2 0x52C JUMP JUMPDEST DUP1 ISZERO PUSH2 0x202 JUMPI DUP1 PUSH1 0x1F LT PUSH2 0x1D9 JUMPI PUSH2 0x100 DUP1 DUP4 SLOAD DIV MUL DUP4 MSTORE SWAP2 PUSH1 0x20 ADD SWAP2 PUSH2 0x202 JUMP JUMPDEST DUP3 ADD SWAP2 SWAP1 PUSH0 MSTORE PUSH1 0x20 PUSH0 KECCAK256 SWAP1 JUMPDEST DUP2 SLOAD DUP2 MSTORE SWAP1 PUSH1 0x1 ADD SWAP1 PUSH1 0x20 ADD DUP1 DUP4 GT PUSH2 0x1E5 JUMPI DUP3 SWAP1 SUB PUSH1 0x1F AND DUP3 ADD SWAP2 JUMPDEST POP POP POP POP POP SWAP1 POP SWAP2 SWAP1 POP JUMP JUMPDEST POP DUP1 SLOAD PUSH2 0x21A SWAP1 PUSH2 0x52C JUMP JUMPDEST PUSH0 DUP3 SSTORE DUP1 PUSH1 0x1F LT PUSH2 0x22B JUMPI POP PUSH2 0x248 JUMP JUMPDEST PUSH1 0x1F ADD PUSH1 0x20 SWAP1 DIV SWAP1 PUSH0 MSTORE PUSH1 0x20 PUSH0 KECCAK256 SWAP1 DUP2 ADD SWAP1 PUSH2 0x247 SWAP2 SWAP1 PUSH2 0x24B JUMP JUMPDEST JUMPDEST POP JUMP JUMPDEST JUMPDEST DUP1 DUP3 GT ISZERO PUSH2 0x262 JUMPI PUSH0 DUP2 PUSH0 SWAP1 SSTORE POP PUSH1 0x1 ADD PUSH2 0x24C JUMP JUMPDEST POP SWAP1 JUMP JUMPDEST PUSH0 PUSH1 0x40 MLOAD SWAP1 POP SWAP1 JUMP JUMPDEST PUSH0 DUP1 REVERT JUMPDEST PUSH0 DUP1 REVERT JUMPDEST PUSH0 PUSH20 0xFFFFFFFFFFFFFFFFFFFFFFFFFFFFFFFFFFFFFFFF DUP3 AND SWAP1 POP SWAP2 SWAP1 POP JUMP JUMPDEST PUSH0 PUSH2 0x2A0 DUP3 PUSH2 0x277 JUMP JUMPDEST SWAP1 POP SWAP2 SWAP1 POP JUMP JUMPDEST PUSH2 0x2B0 DUP2 PUSH2 0x296 JUMP JUMPDEST DUP2 EQ PUSH2 0x2BA JUMPI PUSH0 DUP1 REVERT JUMPDEST POP JUMP JUMPDEST PUSH0 DUP2 CALLDATALOAD SWAP1 POP PUSH2 0x2CB DUP2 PUSH2 0x2A7 JUMP JUMPDEST SWAP3 SWAP2 POP POP JUMP JUMPDEST PUSH0 PUSH1 0x20 DUP3 DUP5 SUB SLT ISZERO PUSH2 0x2E6 JUMPI PUSH2 0x2E5 PUSH2 0x26F JUMP JUMPDEST JUMPDEST PUSH0 PUSH2 0x2F3 DUP5 DUP3 DUP6 ADD PUSH2 0x2BD JUMP JUMPDEST SWAP2 POP POP SWAP3 SWAP2 POP POP JUMP JUMPDEST PUSH0 DUP1 REVERT JUMPDEST PUSH0 DUP1 REVERT JUMPDEST PUSH0 PUSH1 0x1F NOT PUSH1 0x1F DUP4 ADD AND SWAP1 POP SWAP2 SWAP1 POP JUMP JUMPDEST PUSH32 0x4E487B7100000000000000000000000000000000000000000000000000000000 PUSH0 MSTORE PUSH1 0x41 PUSH1 0x4 MSTORE PUSH1 0x24 PUSH0 REVERT JUMPDEST PUSH2 0x34A DUP3 PUSH2 0x304 JUMP JUMPDEST DUP2 ADD DUP2 DUP2 LT PUSH8 0xFFFFFFFFFFFFFFFF DUP3 GT OR ISZERO PUSH2 0x369 JUMPI PUSH2 0x368 PUSH2 0x314 JUMP JUMPDEST JUMPDEST DUP1 PUSH1 0x40 MSTORE POP POP POP JUMP JUMPDEST PUSH0 PUSH2 0x37B PUSH2 0x266 JUMP JUMPDEST SWAP1 POP PUSH2 0x387 DUP3 DUP3 PUSH2 0x341 JUMP JUMPDEST SWAP2 SWAP1 POP JUMP JUMPDEST PUSH0 PUSH8 0xFFFFFFFFFFFFFFFF DUP3 GT ISZERO PUSH2 0x3A6 JUMPI PUSH2 0x3A5 PUSH2 0x314 JUMP JUMPDEST JUMPDEST PUSH2 0x3AF DUP3 PUSH2 0x304 JUMP JUMPDEST SWAP1 POP PUSH1 0x20 DUP2 ADD SWAP1 POP SWAP2 SWAP1 POP JUMP JUMPDEST DUP3 DUP2 DUP4 CALLDATACOPY PUSH0 DUP4 DUP4 ADD MSTORE POP POP POP JUMP JUMPDEST PUSH0 PUSH2 0x3DC PUSH2 0x3D7 DUP5 PUSH2 0x38C JUMP JUMPDEST PUSH2 0x372 JUMP JUMPDEST SWAP1 POP DUP3 DUP2 MSTORE PUSH1 0x20 DUP2 ADD DUP5 DUP5 DUP5 ADD GT ISZERO PUSH2 0x3F8 JUMPI PUSH2 0x3F7 PUSH2 0x300 JUMP JUMPDEST JUMPDEST PUSH2 0x403 DUP5 DUP3 DUP6 PUSH2 0x3BC JUMP JUMPDEST POP SWAP4 SWAP3 POP POP POP JUMP JUMPDEST PUSH0 DUP3 PUSH1 0x1F DUP4 ADD SLT PUSH2 0x41F JUMPI PUSH2 0x41E PUSH2 0x2FC JUMP JUMPDEST JUMPDEST DUP2 CALLDATALOAD PUSH2 0x42F DUP5 DUP3 PUSH1 0x20 DUP7 ADD PUSH2 0x3CA JUMP JUMPDEST SWAP2 POP POP SWAP3 SWAP2 POP POP JUMP JUMPDEST PUSH0 PUSH1 0x20 DUP3 DUP5 SUB SLT ISZERO PUSH2 0x44D JUMPI PUSH2 0x44C PUSH2 0x26F JUMP JUMPDEST JUMPDEST PUSH0 DUP3 ADD CALLDATALOAD PUSH8 0xFFFFFFFFFFFFFFFF DUP2 GT ISZERO PUSH2 0x46A JUMPI PUSH2 0x469 PUSH2 0x273 JUMP JUMPDEST JUMPDEST PUSH2 0x476 DUP5 DUP3 DUP6 ADD PUSH2 0x40B JUMP JUMPDEST SWAP2 POP POP SWAP3 SWAP2 POP POP JUMP JUMPDEST PUSH0 DUP2 MLOAD SWAP1 POP SWAP2 SWAP1 POP JUMP JUMPDEST PUSH0 DUP3 DUP3 MSTORE PUSH1 0x20 DUP3 ADD SWAP1 POP SWAP3 SWAP2 POP POP JUMP JUMPDEST DUP3 DUP2 DUP4 MCOPY PUSH0 DUP4 DUP4 ADD MSTORE POP POP POP JUMP JUMPDEST PUSH0 PUSH2 0x4B1 DUP3 PUSH2 0x47F JUMP JUMPDEST PUSH2 0x4BB DUP2 DUP6 PUSH2 0x489 JUMP JUMPDEST SWAP4 POP PUSH2 0x4CB DUP2 DUP6 PUSH1 0x20 DUP7 ADD PUSH2 0x499 JUMP JUMPDEST PUSH2 0x4D4 DUP2 PUSH2 0x304 JUMP JUMPDEST DUP5 ADD SWAP2 POP POP SWAP3 SWAP2 POP POP JUMP JUMPDEST PUSH0 PUSH1 0x20 DUP3 ADD SWAP1 POP DUP2 DUP2 SUB PUSH0 DUP4 ADD MSTORE PUSH2 0x4F7 DUP2 DUP5 PUSH2 0x4A7 JUMP JUMPDEST SWAP1 POP SWAP3 SWAP2 POP POP JUMP JUMPDEST PUSH32 0x4E487B7100000000000000000000000000000000000000000000000000000000 PUSH0 MSTORE PUSH1 0x22 PUSH1 0x4 MSTORE PUSH1 0x24 PUSH0 REVERT JUMPDEST PUSH0 PUSH1 0x2 DUP3 DIV SWAP1 POP PUSH1 0x1 DUP3 AND DUP1 PUSH2 0x543 JUMPI PUSH1 0x7F DUP3 AND SWAP2 POP JUMPDEST PUSH1 0x20 DUP3 LT DUP2 SUB PUSH2 0x556 JUMPI PUSH2 0x555 PUSH2 0x4FF JUMP JUMPDEST JUMPDEST POP SWAP2 SWAP1 POP JUMP JUMPDEST PUSH0 DUP2 SWAP1 POP DUP2 PUSH0 MSTORE PUSH1 0x20 PUSH0 KECCAK256 SWAP1 POP SWAP2 SWAP1 POP JUMP JUMPDEST PUSH0 PUSH1 0x20 PUSH1 0x1F DUP4 ADD DIV SWAP1 POP SWAP2 SWAP1 POP JUMP JUMPDEST PUSH0 DUP3 DUP3 SHL SWAP1 POP SWAP3 SWAP2 POP POP JUMP JUMPDEST PUSH0 PUSH1 0x8 DUP4 MUL PUSH2 0x5B8 PUSH32 0xFFFFFFFFFFFFFFFFFFFFFFFFFFFFFFFFFFFFFFFFFFFFFFFFFFFFFFFFFFFFFFFF DUP3 PUSH2 0x57D JUMP JUMPDEST PUSH2 0x5C2 DUP7 DUP4 PUSH2 0x57D JUMP JUMPDEST SWAP6 POP DUP1 NOT DUP5 AND SWAP4 POP DUP1 DUP7 AND DUP5 OR SWAP3 POP POP POP SWAP4 SWAP3 POP POP POP JUMP JUMPDEST PUSH0 DUP2 SWAP1 POP SWAP2 SWAP1 POP JUMP JUMPDEST PUSH0 DUP2 SWAP1 POP SWAP2 SWAP1 POP JUMP JUMPDEST PUSH0 PUSH2 0x606 PUSH2 0x601 PUSH2 0x5FC DUP5 PUSH2 0x5DA JUMP JUMPDEST PUSH2 0x5E3 JUMP JUMPDEST PUSH2 0x5DA JUMP JUMPDEST SWAP1 POP SWAP2 SWAP1 POP JUMP JUMPDEST PUSH0 DUP2 SWAP1 POP SWAP2 SWAP1 POP JUMP JUMPDEST PUSH2 0x61F DUP4 PUSH2 0x5EC JUMP JUMPDEST PUSH2 0x633 PUSH2 0x62B DUP3 PUSH2 0x60D JUMP JUMPDEST DUP5 DUP5 SLOAD PUSH2 0x589 JUMP JUMPDEST DUP3 SSTORE POP POP POP POP JUMP JUMPDEST PUSH0 SWAP1 JUMP JUMPDEST PUSH2 0x647 PUSH2 0x63B JUMP JUMPDEST PUSH2 0x652 DUP2 DUP5 DUP5 PUSH2 0x616 JUMP JUMPDEST POP POP POP JUMP JUMPDEST JUMPDEST DUP2 DUP2 LT ISZERO PUSH2 0x675 JUMPI PUSH2 0x66A PUSH0 DUP3 PUSH2 0x63F JUMP JUMPDEST PUSH1 0x1 DUP2 ADD SWAP1 POP PUSH2 0x658 JUMP JUMPDEST POP POP JUMP JUMPDEST PUSH1 0x1F DUP3 GT ISZERO PUSH2 0x6BA JUMPI PUSH2 0x68B DUP2 PUSH2 0x55C JUMP JUMPDEST PUSH2 0x694 DUP5 PUSH2 0x56E JUMP JUMPDEST DUP2 ADD PUSH1 0x20 DUP6 LT ISZERO PUSH2 0x6A3 JUMPI DUP2 SWAP1 POP JUMPDEST PUSH2 0x6B7 PUSH2 0x6AF DUP6 PUSH2 0x56E JUMP JUMPDEST DUP4 ADD DUP3 PUSH2 0x657 JUMP JUMPDEST POP POP JUMPDEST POP POP POP JUMP JUMPDEST PUSH0 DUP3 DUP3 SHR SWAP1 POP SWAP3 SWAP2 POP POP JUMP JUMPDEST PUSH0 PUSH2 0x6DA PUSH0 NOT DUP5 PUSH1 0x8 MUL PUSH2 0x6BF JUMP JUMPDEST NOT DUP1 DUP4 AND SWAP2 POP POP SWAP3 SWAP2 POP POP JUMP JUMPDEST PUSH0 PUSH2 0x6F2 DUP4 DUP4 PUSH2 0x6CB JUMP JUMPDEST SWAP2 POP DUP3 PUSH1 0x2 MUL DUP3 OR SWAP1 POP SWAP3 SWAP2 POP POP JUMP JUMPDEST PUSH2 0x70B DUP3 PUSH2 0x47F JUMP JUMPDEST PUSH8 0xFFFFFFFFFFFFFFFF DUP2 GT ISZERO PUSH2 0x724 JUMPI PUSH2 0x723 PUSH2 0x314 JUMP JUMPDEST JUMPDEST PUSH2 0x72E DUP3 SLOAD PUSH2 0x52C JUMP JUMPDEST PUSH2 0x739 DUP3 DUP3 DUP6 PUSH2 0x679 JUMP JUMPDEST PUSH0 PUSH1 0x20 SWAP1 POP PUSH1 0x1F DUP4 GT PUSH1 0x1 DUP2 EQ PUSH2 0x76A JUMPI PUSH0 DUP5 ISZERO PUSH2 0x758 JUMPI DUP3 DUP8 ADD MLOAD SWAP1 POP JUMPDEST PUSH2 0x762 DUP6 DUP3 PUSH2 0x6E7 JUMP JUMPDEST DUP7 SSTORE POP PUSH2 0x7C9 JUMP JUMPDEST PUSH1 0x1F NOT DUP5 AND PUSH2 0x778 DUP7 PUSH2 0x55C JUMP JUMPDEST PUSH0 JUMPDEST DUP3 DUP2 LT ISZERO PUSH2 0x79F JUMPI DUP5 DUP10 ADD MLOAD DUP3 SSTORE PUSH1 0x1 DUP3 ADD SWAP2 POP PUSH1 0x20 DUP6 ADD SWAP5 POP PUSH1 0x20 DUP2 ADD SWAP1 POP PUSH2 0x77A JUMP JUMPDEST DUP7 DUP4 LT ISZERO PUSH2 0x7BC JUMPI DUP5 DUP10 ADD MLOAD PUSH2 0x7B8 PUSH1 0x1F DUP10 AND DUP3 PUSH2 0x6CB JUMP JUMPDEST DUP4 SSTORE POP JUMPDEST PUSH1 0x1 PUSH1 0x2 DUP9 MUL ADD DUP9 SSTORE POP POP POP JUMPDEST POP POP POP POP POP POP JUMP INVALID LOG2 PUSH5 0x6970667358 0x22 SLT KECCAK256 PUSH5 0x9F522C082E 0xF6 SSTORE 0x26 ADD 0xC4 PUSH16 0x2A059BFB23840C9D0465BD5255090041 PUSH10 0x2AA0F164736F6C634300 ADDMOD BYTE STOP CALLER "
				},
				"gasEstimates": {
					"creation": {
						"codeDepositCost": "411000",
						"executionCost": "447",
						"totalCost": "411447"
					},
					"external": {
						"createTweet(string)": "infinite",
						"deleteTweet(address)": "infinite",
						"getTweets(address)": "infinite"
					}
				},
				"methodIdentifiers": {
					"createTweet(string)": "7c9cd2bc",
					"deleteTweet(address)": "20f7e65c",
					"getTweets(address)": "9e92b093"
				}
			},
			"storageLayout": {
				"storage": [
					{
						"astId": 5,
						"contract": "contracts/Twitter.sol:Twitter",
						"label": "tweets",
						"offset": 0,
						"slot": "0",
						"type": "t_mapping(t_address,t_string_storage)"
					}
				],
				"types": {
					"t_address": {
						"encoding": "inplace",
						"label": "address",
						"numberOfBytes": "20"
					},
					"t_mapping(t_address,t_string_storage)": {
						"encoding": "mapping",
						"key": "t_address",
						"label": "mapping(address => string)",
						"numberOfBytes": "32",
						"value": "t_string_storage"
					},
					"t_string_storage": {
						"encoding": "bytes",
						"label": "string",
						"numberOfBytes": "32"
					}
				}
			},
			"userdoc": {
				"kind": "user",
				"methods": {},
				"version": 1
			}
		}
	}
}