{
	"contracts/Twitter.sol": {
		"Twitter": {
			"abi": [
				{
					"inputs": [
						{
							"internalType": "string",
							"name": "_tweet",
							"type": "string"
						}
					],
					"name": "createTweet",
					"outputs": [],
					"stateMutability": "nonpayable",
					"type": "function"
				},
				{
					"inputs": [
						{
							"internalType": "address",
							"name": "_addr",
							"type": "address"
						}
					],
					"name": "deleteTweet",
					"outputs": [],
					"stateMutability": "nonpayable",
					"type": "function"
				},
				{
					"inputs": [
						{
							"internalType": "address",
							"name": "_owner",
							"type": "address"
						}
					],
					"name": "getAllTweets",
					"outputs": [
						{
							"components": [
								{
									"internalType": "address",
									"name": "author",
									"type": "address"
								},
								{
									"internalType": "string",
									"name": "content",
									"type": "string"
								},
								{
									"internalType": "uint256",
									"name": "timestamp",
									"type": "uint256"
								},
								{
									"internalType": "uint256",
									"name": "likes",
									"type": "uint256"
								}
							],
							"internalType": "struct Twitter.Tweet[]",
							"name": "",
							"type": "tuple[]"
						}
					],
					"stateMutability": "view",
					"type": "function"
				},
				{
					"inputs": [
						{
							"internalType": "uint256",
							"name": "_i",
							"type": "uint256"
						}
					],
					"name": "getTweets",
					"outputs": [
						{
							"components": [
								{
									"internalType": "address",
									"name": "author",
									"type": "address"
								},
								{
									"internalType": "string",
									"name": "content",
									"type": "string"
								},
								{
									"internalType": "uint256",
									"name": "timestamp",
									"type": "uint256"
								},
								{
									"internalType": "uint256",
									"name": "likes",
									"type": "uint256"
								}
							],
							"internalType": "struct Twitter.Tweet",
							"name": "",
							"type": "tuple"
						}
					],
					"stateMutability": "view",
					"type": "function"
				}
			],
			"devdoc": {
				"kind": "dev",
				"methods": {},
				"version": 1
			},
			"evm": {
				"assembly": "    /* \"contracts/Twitter.sol\":162:1303  contract Twitter {... */\n  mstore(0x40, 0x80)\n  callvalue\n  dup1\n  iszero\n  tag_1\n  jumpi\n  0x00\n  dup1\n  revert\ntag_1:\n  pop\n  dataSize(sub_0)\n  dup1\n  dataOffset(sub_0)\n  0x00\n  codecopy\n  0x00\n  return\nstop\n\nsub_0: assembly {\n        /* \"contracts/Twitter.sol\":162:1303  contract Twitter {... */\n      mstore(0x40, 0x80)\n      callvalue\n      dup1\n      iszero\n      tag_1\n      jumpi\n      0x00\n      dup1\n      revert\n    tag_1:\n      pop\n      jumpi(tag_2, lt(calldatasize, 0x04))\n      shr(0xe0, calldataload(0x00))\n      dup1\n      0x12e7ee1c\n      eq\n      tag_3\n      jumpi\n      dup1\n      0x20f7e65c\n      eq\n      tag_4\n      jumpi\n      dup1\n      0x7c9cd2bc\n      eq\n      tag_5\n      jumpi\n      dup1\n      0xed9bb8d7\n      eq\n      tag_6\n      jumpi\n    tag_2:\n      0x00\n      dup1\n      revert\n        /* \"contracts/Twitter.sol\":1095:1210  function getAllTweets(address _owner) public view returns (Tweet[] memory) {... */\n    tag_3:\n      tag_7\n      0x04\n      dup1\n      calldatasize\n      sub\n      dup2\n      add\n      swap1\n      tag_8\n      swap2\n      swap1\n      tag_9\n      jump\t// in\n    tag_8:\n      tag_10\n      jump\t// in\n    tag_7:\n      mload(0x40)\n      tag_11\n      swap2\n      swap1\n      tag_12\n      jump\t// in\n    tag_11:\n      mload(0x40)\n      dup1\n      swap2\n      sub\n      swap1\n      return\n        /* \"contracts/Twitter.sol\":1218:1300  function deleteTweet(address _addr) public {... */\n    tag_4:\n      tag_13\n      0x04\n      dup1\n      calldatasize\n      sub\n      dup2\n      add\n      swap1\n      tag_14\n      swap2\n      swap1\n      tag_9\n      jump\t// in\n    tag_14:\n      tag_15\n      jump\t// in\n    tag_13:\n      stop\n        /* \"contracts/Twitter.sol\":418:807  function createTweet(string memory _tweet) public {... */\n    tag_5:\n      tag_16\n      0x04\n      dup1\n      calldatasize\n      sub\n      dup2\n      add\n      swap1\n      tag_17\n      swap2\n      swap1\n      tag_18\n      jump\t// in\n    tag_17:\n      tag_19\n      jump\t// in\n    tag_16:\n      stop\n        /* \"contracts/Twitter.sol\":817:1087  function getTweets(uint256 _i) public view returns (Tweet memory) {... */\n    tag_6:\n      tag_20\n      0x04\n      dup1\n      calldatasize\n      sub\n      dup2\n      add\n      swap1\n      tag_21\n      swap2\n      swap1\n      tag_22\n      jump\t// in\n    tag_21:\n      tag_23\n      jump\t// in\n    tag_20:\n      mload(0x40)\n      tag_24\n      swap2\n      swap1\n      tag_25\n      jump\t// in\n    tag_24:\n      mload(0x40)\n      dup1\n      swap2\n      sub\n      swap1\n      return\n        /* \"contracts/Twitter.sol\":1095:1210  function getAllTweets(address _owner) public view returns (Tweet[] memory) {... */\n    tag_10:\n        /* \"contracts/Twitter.sol\":1154:1168  Tweet[] memory */\n      0x60\n        /* \"contracts/Twitter.sol\":1188:1194  tweets */\n      0x00\n        /* \"contracts/Twitter.sol\":1188:1202  tweets[_owner] */\n      dup1\n        /* \"contracts/Twitter.sol\":1195:1201  _owner */\n      dup4\n        /* \"contracts/Twitter.sol\":1188:1202  tweets[_owner] */\n      0xffffffffffffffffffffffffffffffffffffffff\n      and\n      0xffffffffffffffffffffffffffffffffffffffff\n      and\n      dup2\n      mstore\n      0x20\n      add\n      swap1\n      dup2\n      mstore\n      0x20\n      add\n      0x00\n      keccak256\n        /* \"contracts/Twitter.sol\":1181:1202  return tweets[_owner] */\n      dup1\n      sload\n      dup1\n      0x20\n      mul\n      0x20\n      add\n      mload(0x40)\n      swap1\n      dup2\n      add\n      0x40\n      mstore\n      dup1\n      swap3\n      swap2\n      swap1\n      dup2\n      dup2\n      mstore\n      0x20\n      add\n      0x00\n      swap1\n    tag_27:\n      dup3\n      dup3\n      lt\n      iszero\n      tag_28\n      jumpi\n      dup4\n      dup3\n      swap1\n      0x00\n      mstore\n      keccak256(0x00, 0x20)\n      swap1\n      0x04\n      mul\n      add\n      mload(0x40)\n      dup1\n      0x80\n      add\n      0x40\n      mstore\n      swap1\n      dup2\n      0x00\n      dup3\n      add\n      0x00\n      swap1\n      sload\n      swap1\n      0x0100\n      exp\n      swap1\n      div\n      0xffffffffffffffffffffffffffffffffffffffff\n      and\n      0xffffffffffffffffffffffffffffffffffffffff\n      and\n      0xffffffffffffffffffffffffffffffffffffffff\n      and\n      dup2\n      mstore\n      0x20\n      add\n      0x01\n      dup3\n      add\n      dup1\n      sload\n      tag_30\n      swap1\n      tag_31\n      jump\t// in\n    tag_30:\n      dup1\n      0x1f\n      add\n      0x20\n      dup1\n      swap2\n      div\n      mul\n      0x20\n      add\n      mload(0x40)\n      swap1\n      dup2\n      add\n      0x40\n      mstore\n      dup1\n      swap3\n      swap2\n      swap1\n      dup2\n      dup2\n      mstore\n      0x20\n      add\n      dup3\n      dup1\n      sload\n      tag_32\n      swap1\n      tag_31\n      jump\t// in\n    tag_32:\n      dup1\n      iszero\n      tag_33\n      jumpi\n      dup1\n      0x1f\n      lt\n      tag_34\n      jumpi\n      0x0100\n      dup1\n      dup4\n      sload\n      div\n      mul\n      dup4\n      mstore\n      swap2\n      0x20\n      add\n      swap2\n      jump(tag_33)\n    tag_34:\n      dup3\n      add\n      swap2\n      swap1\n      0x00\n      mstore\n      keccak256(0x00, 0x20)\n      swap1\n    tag_35:\n      dup2\n      sload\n      dup2\n      mstore\n      swap1\n      0x01\n      add\n      swap1\n      0x20\n      add\n      dup1\n      dup4\n      gt\n      tag_35\n      jumpi\n      dup3\n      swap1\n      sub\n      0x1f\n      and\n      dup3\n      add\n      swap2\n    tag_33:\n      pop\n      pop\n      pop\n      pop\n      pop\n      dup2\n      mstore\n      0x20\n      add\n      0x02\n      dup3\n      add\n      sload\n      dup2\n      mstore\n      0x20\n      add\n      0x03\n      dup3\n      add\n      sload\n      dup2\n      mstore\n      pop\n      pop\n      dup2\n      mstore\n      0x20\n      add\n      swap1\n      0x01\n      add\n      swap1\n      jump(tag_27)\n    tag_28:\n      pop\n      pop\n      pop\n      pop\n      swap1\n      pop\n        /* \"contracts/Twitter.sol\":1095:1210  function getAllTweets(address _owner) public view returns (Tweet[] memory) {... */\n      swap2\n      swap1\n      pop\n      jump\t// out\n        /* \"contracts/Twitter.sol\":1218:1300  function deleteTweet(address _addr) public {... */\n    tag_15:\n        /* \"contracts/Twitter.sol\":1279:1285  tweets */\n      0x00\n        /* \"contracts/Twitter.sol\":1279:1292  tweets[_addr] */\n      dup1\n        /* \"contracts/Twitter.sol\":1286:1291  _addr */\n      dup3\n        /* \"contracts/Twitter.sol\":1279:1292  tweets[_addr] */\n      0xffffffffffffffffffffffffffffffffffffffff\n      and\n      0xffffffffffffffffffffffffffffffffffffffff\n      and\n      dup2\n      mstore\n      0x20\n      add\n      swap1\n      dup2\n      mstore\n      0x20\n      add\n      0x00\n      keccak256\n      0x00\n        /* \"contracts/Twitter.sol\":1272:1292  delete tweets[_addr] */\n      tag_37\n      swap2\n      swap1\n      tag_38\n      jump\t// in\n    tag_37:\n        /* \"contracts/Twitter.sol\":1218:1300  function deleteTweet(address _addr) public {... */\n      pop\n      jump\t// out\n        /* \"contracts/Twitter.sol\":418:807  function createTweet(string memory _tweet) public {... */\n    tag_19:\n        /* \"contracts/Twitter.sol\":223:226  280 */\n      0x0118\n        /* \"contracts/Twitter.sol\":489:529  bytes(_tweet).length <= MAX_TWEET_LENGTH */\n      0xffff\n      and\n        /* \"contracts/Twitter.sol\":495:501  _tweet */\n      dup2\n        /* \"contracts/Twitter.sol\":489:509  bytes(_tweet).length */\n      mload\n        /* \"contracts/Twitter.sol\":489:529  bytes(_tweet).length <= MAX_TWEET_LENGTH */\n      gt\n      iszero\n        /* \"contracts/Twitter.sol\":481:570  require(bytes(_tweet).length <= MAX_TWEET_LENGTH, \"Tweet is to long, max 280 characters\") */\n      tag_40\n      jumpi\n      mload(0x40)\n      0x08c379a000000000000000000000000000000000000000000000000000000000\n      dup2\n      mstore\n      0x04\n      add\n      tag_41\n      swap1\n      tag_42\n      jump\t// in\n    tag_41:\n      mload(0x40)\n      dup1\n      swap2\n      sub\n      swap1\n      revert\n    tag_40:\n        /* \"contracts/Twitter.sol\":583:604  Tweet memory newTweet */\n      0x00\n        /* \"contracts/Twitter.sol\":607:753  Tweet({... */\n      mload(0x40)\n      dup1\n      0x80\n      add\n      0x40\n      mstore\n      dup1\n        /* \"contracts/Twitter.sol\":636:646  msg.sender */\n      caller\n        /* \"contracts/Twitter.sol\":607:753  Tweet({... */\n      0xffffffffffffffffffffffffffffffffffffffff\n      and\n      dup2\n      mstore\n      0x20\n      add\n        /* \"contracts/Twitter.sol\":670:676  _tweet */\n      dup4\n        /* \"contracts/Twitter.sol\":607:753  Tweet({... */\n      dup2\n      mstore\n      0x20\n      add\n        /* \"contracts/Twitter.sol\":703:718  block.timestamp */\n      timestamp\n        /* \"contracts/Twitter.sol\":607:753  Tweet({... */\n      dup2\n      mstore\n      0x20\n      add\n        /* \"contracts/Twitter.sol\":740:741  0 */\n      0x00\n        /* \"contracts/Twitter.sol\":607:753  Tweet({... */\n      dup2\n      mstore\n      pop\n        /* \"contracts/Twitter.sol\":583:753  Tweet memory newTweet = Tweet({... */\n      swap1\n      pop\n        /* \"contracts/Twitter.sol\":766:772  tweets */\n      0x00\n        /* \"contracts/Twitter.sol\":766:784  tweets[msg.sender] */\n      dup1\n        /* \"contracts/Twitter.sol\":773:783  msg.sender */\n      caller\n        /* \"contracts/Twitter.sol\":766:784  tweets[msg.sender] */\n      0xffffffffffffffffffffffffffffffffffffffff\n      and\n      0xffffffffffffffffffffffffffffffffffffffff\n      and\n      dup2\n      mstore\n      0x20\n      add\n      swap1\n      dup2\n      mstore\n      0x20\n      add\n      0x00\n      keccak256\n        /* \"contracts/Twitter.sol\":790:798  newTweet */\n      dup2\n        /* \"contracts/Twitter.sol\":766:799  tweets[msg.sender].push(newTweet) */\n      swap1\n      dup1\n      0x01\n      dup2\n      sload\n      add\n      dup1\n      dup3\n      sstore\n      dup1\n      swap2\n      pop\n      pop\n      0x01\n      swap1\n      sub\n      swap1\n      0x00\n      mstore\n      keccak256(0x00, 0x20)\n      swap1\n      0x04\n      mul\n      add\n      0x00\n      swap1\n      swap2\n      swap1\n      swap2\n      swap1\n      swap2\n      pop\n      0x00\n      dup3\n      add\n      mload\n      dup2\n      0x00\n      add\n      exp(0x0100, 0x00)\n      dup2\n      sload\n      dup2\n      0xffffffffffffffffffffffffffffffffffffffff\n      mul\n      not\n      and\n      swap1\n      dup4\n      0xffffffffffffffffffffffffffffffffffffffff\n      and\n      mul\n      or\n      swap1\n      sstore\n      pop\n      0x20\n      dup3\n      add\n      mload\n      dup2\n      0x01\n      add\n      swap1\n      dup2\n      tag_44\n      swap2\n      swap1\n      tag_45\n      jump\t// in\n    tag_44:\n      pop\n      0x40\n      dup3\n      add\n      mload\n      dup2\n      0x02\n      add\n      sstore\n      0x60\n      dup3\n      add\n      mload\n      dup2\n      0x03\n      add\n      sstore\n      pop\n      pop\n        /* \"contracts/Twitter.sol\":468:807  {... */\n      pop\n        /* \"contracts/Twitter.sol\":418:807  function createTweet(string memory _tweet) public {... */\n      pop\n      jump\t// out\n        /* \"contracts/Twitter.sol\":817:1087  function getTweets(uint256 _i) public view returns (Tweet memory) {... */\n    tag_23:\n        /* \"contracts/Twitter.sol\":869:881  Tweet memory */\n      tag_46\n      tag_47\n      jump\t// in\n    tag_46:\n        /* \"contracts/Twitter.sol\":908:914  tweets */\n      0x00\n        /* \"contracts/Twitter.sol\":908:926  tweets[msg.sender] */\n      dup1\n        /* \"contracts/Twitter.sol\":915:925  msg.sender */\n      caller\n        /* \"contracts/Twitter.sol\":908:926  tweets[msg.sender] */\n      0xffffffffffffffffffffffffffffffffffffffff\n      and\n      0xffffffffffffffffffffffffffffffffffffffff\n      and\n      dup2\n      mstore\n      0x20\n      add\n      swap1\n      dup2\n      mstore\n      0x20\n      add\n      0x00\n      keccak256\n        /* \"contracts/Twitter.sol\":908:933  tweets[msg.sender].length */\n      dup1\n      sload\n      swap1\n      pop\n        /* \"contracts/Twitter.sol\":902:904  _i */\n      dup3\n        /* \"contracts/Twitter.sol\":902:933  _i <= tweets[msg.sender].length */\n      gt\n      iszero\n        /* \"contracts/Twitter.sol\":894:957  require(_i <= tweets[msg.sender].length, \"Invalid tweet index\") */\n      tag_49\n      jumpi\n      mload(0x40)\n      0x08c379a000000000000000000000000000000000000000000000000000000000\n      dup2\n      mstore\n      0x04\n      add\n      tag_50\n      swap1\n      tag_51\n      jump\t// in\n    tag_50:\n      mload(0x40)\n      dup1\n      swap2\n      sub\n      swap1\n      revert\n    tag_49:\n        /* \"contracts/Twitter.sol\":1057:1063  tweets */\n      0x00\n        /* \"contracts/Twitter.sol\":1057:1075  tweets[msg.sender] */\n      dup1\n        /* \"contracts/Twitter.sol\":1064:1074  msg.sender */\n      caller\n        /* \"contracts/Twitter.sol\":1057:1075  tweets[msg.sender] */\n      0xffffffffffffffffffffffffffffffffffffffff\n      and\n      0xffffffffffffffffffffffffffffffffffffffff\n      and\n      dup2\n      mstore\n      0x20\n      add\n      swap1\n      dup2\n      mstore\n      0x20\n      add\n      0x00\n      keccak256\n        /* \"contracts/Twitter.sol\":1076:1078  _i */\n      dup3\n        /* \"contracts/Twitter.sol\":1057:1079  tweets[msg.sender][_i] */\n      dup2\n      sload\n      dup2\n      lt\n      tag_52\n      jumpi\n      tag_53\n      tag_54\n      jump\t// in\n    tag_53:\n    tag_52:\n      swap1\n      0x00\n      mstore\n      keccak256(0x00, 0x20)\n      swap1\n      0x04\n      mul\n      add\n        /* \"contracts/Twitter.sol\":1050:1079  return tweets[msg.sender][_i] */\n      mload(0x40)\n      dup1\n      0x80\n      add\n      0x40\n      mstore\n      swap1\n      dup2\n      0x00\n      dup3\n      add\n      0x00\n      swap1\n      sload\n      swap1\n      0x0100\n      exp\n      swap1\n      div\n      0xffffffffffffffffffffffffffffffffffffffff\n      and\n      0xffffffffffffffffffffffffffffffffffffffff\n      and\n      0xffffffffffffffffffffffffffffffffffffffff\n      and\n      dup2\n      mstore\n      0x20\n      add\n      0x01\n      dup3\n      add\n      dup1\n      sload\n      tag_56\n      swap1\n      tag_31\n      jump\t// in\n    tag_56:\n      dup1\n      0x1f\n      add\n      0x20\n      dup1\n      swap2\n      div\n      mul\n      0x20\n      add\n      mload(0x40)\n      swap1\n      dup2\n      add\n      0x40\n      mstore\n      dup1\n      swap3\n      swap2\n      swap1\n      dup2\n      dup2\n      mstore\n      0x20\n      add\n      dup3\n      dup1\n      sload\n      tag_57\n      swap1\n      tag_31\n      jump\t// in\n    tag_57:\n      dup1\n      iszero\n      tag_58\n      jumpi\n      dup1\n      0x1f\n      lt\n      tag_59\n      jumpi\n      0x0100\n      dup1\n      dup4\n      sload\n      div\n      mul\n      dup4\n      mstore\n      swap2\n      0x20\n      add\n      swap2\n      jump(tag_58)\n    tag_59:\n      dup3\n      add\n      swap2\n      swap1\n      0x00\n      mstore\n      keccak256(0x00, 0x20)\n      swap1\n    tag_60:\n      dup2\n      sload\n      dup2\n      mstore\n      swap1\n      0x01\n      add\n      swap1\n      0x20\n      add\n      dup1\n      dup4\n      gt\n      tag_60\n      jumpi\n      dup3\n      swap1\n      sub\n      0x1f\n      and\n      dup3\n      add\n      swap2\n    tag_58:\n      pop\n      pop\n      pop\n      pop\n      pop\n      dup2\n      mstore\n      0x20\n      add\n      0x02\n      dup3\n      add\n      sload\n      dup2\n      mstore\n      0x20\n      add\n      0x03\n      dup3\n      add\n      sload\n      dup2\n      mstore\n      pop\n      pop\n      swap1\n      pop\n        /* \"contracts/Twitter.sol\":817:1087  function getTweets(uint256 _i) public view returns (Tweet memory) {... */\n      swap2\n      swap1\n      pop\n      jump\t// out\n    tag_38:\n      pop\n      dup1\n      sload\n      0x00\n      dup3\n      sstore\n      0x04\n      mul\n      swap1\n      0x00\n      mstore\n      keccak256(0x00, 0x20)\n      swap1\n      dup2\n      add\n      swap1\n      tag_62\n      swap2\n      swap1\n      tag_63\n      jump\t// in\n    tag_62:\n      pop\n      jump\t// out\n    tag_47:\n      mload(0x40)\n      dup1\n      0x80\n      add\n      0x40\n      mstore\n      dup1\n      and(0xffffffffffffffffffffffffffffffffffffffff, 0x00)\n      dup2\n      mstore\n      0x20\n      add\n      0x60\n      dup2\n      mstore\n      0x20\n      add\n      0x00\n      dup2\n      mstore\n      0x20\n      add\n      0x00\n      dup2\n      mstore\n      pop\n      swap1\n      jump\t// out\n    tag_63:\n    tag_64:\n      dup1\n      dup3\n      gt\n      iszero\n      tag_65\n      jumpi\n      0x00\n      dup1\n      dup3\n      add\n      exp(0x0100, 0x00)\n      dup2\n      sload\n      swap1\n      0xffffffffffffffffffffffffffffffffffffffff\n      mul\n      not\n      and\n      swap1\n      sstore\n      0x01\n      dup3\n      add\n      0x00\n      tag_66\n      swap2\n      swap1\n      tag_67\n      jump\t// in\n    tag_66:\n      0x02\n      dup3\n      add\n      0x00\n      swap1\n      sstore\n      0x03\n      dup3\n      add\n      0x00\n      swap1\n      sstore\n      pop\n      0x04\n      add\n      jump(tag_64)\n    tag_65:\n      pop\n      swap1\n      jump\t// out\n    tag_67:\n      pop\n      dup1\n      sload\n      tag_68\n      swap1\n      tag_31\n      jump\t// in\n    tag_68:\n      0x00\n      dup3\n      sstore\n      dup1\n      0x1f\n      lt\n      tag_70\n      jumpi\n      pop\n      jump(tag_69)\n    tag_70:\n      0x1f\n      add\n      0x20\n      swap1\n      div\n      swap1\n      0x00\n      mstore\n      keccak256(0x00, 0x20)\n      swap1\n      dup2\n      add\n      swap1\n      tag_71\n      swap2\n      swap1\n      tag_72\n      jump\t// in\n    tag_71:\n    tag_69:\n      pop\n      jump\t// out\n    tag_72:\n    tag_73:\n      dup1\n      dup3\n      gt\n      iszero\n      tag_74\n      jumpi\n      0x00\n      dup2\n      0x00\n      swap1\n      sstore\n      pop\n      0x01\n      add\n      jump(tag_73)\n    tag_74:\n      pop\n      swap1\n      jump\t// out\n        /* \"#utility.yul\":7:82   */\n    tag_75:\n        /* \"#utility.yul\":40:46   */\n      0x00\n        /* \"#utility.yul\":73:75   */\n      0x40\n        /* \"#utility.yul\":67:76   */\n      mload\n        /* \"#utility.yul\":57:76   */\n      swap1\n      pop\n        /* \"#utility.yul\":7:82   */\n      swap1\n      jump\t// out\n        /* \"#utility.yul\":88:205   */\n    tag_76:\n        /* \"#utility.yul\":197:198   */\n      0x00\n        /* \"#utility.yul\":194:195   */\n      dup1\n        /* \"#utility.yul\":187:199   */\n      revert\n        /* \"#utility.yul\":211:328   */\n    tag_77:\n        /* \"#utility.yul\":320:321   */\n      0x00\n        /* \"#utility.yul\":317:318   */\n      dup1\n        /* \"#utility.yul\":310:322   */\n      revert\n        /* \"#utility.yul\":334:460   */\n    tag_78:\n        /* \"#utility.yul\":371:378   */\n      0x00\n        /* \"#utility.yul\":411:453   */\n      0xffffffffffffffffffffffffffffffffffffffff\n        /* \"#utility.yul\":404:409   */\n      dup3\n        /* \"#utility.yul\":400:454   */\n      and\n        /* \"#utility.yul\":389:454   */\n      swap1\n      pop\n        /* \"#utility.yul\":334:460   */\n      swap2\n      swap1\n      pop\n      jump\t// out\n        /* \"#utility.yul\":466:562   */\n    tag_79:\n        /* \"#utility.yul\":503:510   */\n      0x00\n        /* \"#utility.yul\":532:556   */\n      tag_136\n        /* \"#utility.yul\":550:555   */\n      dup3\n        /* \"#utility.yul\":532:556   */\n      tag_78\n      jump\t// in\n    tag_136:\n        /* \"#utility.yul\":521:556   */\n      swap1\n      pop\n        /* \"#utility.yul\":466:562   */\n      swap2\n      swap1\n      pop\n      jump\t// out\n        /* \"#utility.yul\":568:690   */\n    tag_80:\n        /* \"#utility.yul\":641:665   */\n      tag_138\n        /* \"#utility.yul\":659:664   */\n      dup2\n        /* \"#utility.yul\":641:665   */\n      tag_79\n      jump\t// in\n    tag_138:\n        /* \"#utility.yul\":634:639   */\n      dup2\n        /* \"#utility.yul\":631:666   */\n      eq\n        /* \"#utility.yul\":621:684   */\n      tag_139\n      jumpi\n        /* \"#utility.yul\":680:681   */\n      0x00\n        /* \"#utility.yul\":677:678   */\n      dup1\n        /* \"#utility.yul\":670:682   */\n      revert\n        /* \"#utility.yul\":621:684   */\n    tag_139:\n        /* \"#utility.yul\":568:690   */\n      pop\n      jump\t// out\n        /* \"#utility.yul\":696:835   */\n    tag_81:\n        /* \"#utility.yul\":742:747   */\n      0x00\n        /* \"#utility.yul\":780:786   */\n      dup2\n        /* \"#utility.yul\":767:787   */\n      calldataload\n        /* \"#utility.yul\":758:787   */\n      swap1\n      pop\n        /* \"#utility.yul\":796:829   */\n      tag_141\n        /* \"#utility.yul\":823:828   */\n      dup2\n        /* \"#utility.yul\":796:829   */\n      tag_80\n      jump\t// in\n    tag_141:\n        /* \"#utility.yul\":696:835   */\n      swap3\n      swap2\n      pop\n      pop\n      jump\t// out\n        /* \"#utility.yul\":841:1170   */\n    tag_9:\n        /* \"#utility.yul\":900:906   */\n      0x00\n        /* \"#utility.yul\":949:951   */\n      0x20\n        /* \"#utility.yul\":937:946   */\n      dup3\n        /* \"#utility.yul\":928:935   */\n      dup5\n        /* \"#utility.yul\":924:947   */\n      sub\n        /* \"#utility.yul\":920:952   */\n      slt\n        /* \"#utility.yul\":917:1036   */\n      iszero\n      tag_143\n      jumpi\n        /* \"#utility.yul\":955:1034   */\n      tag_144\n      tag_76\n      jump\t// in\n    tag_144:\n        /* \"#utility.yul\":917:1036   */\n    tag_143:\n        /* \"#utility.yul\":1075:1076   */\n      0x00\n        /* \"#utility.yul\":1100:1153   */\n      tag_145\n        /* \"#utility.yul\":1145:1152   */\n      dup5\n        /* \"#utility.yul\":1136:1142   */\n      dup3\n        /* \"#utility.yul\":1125:1134   */\n      dup6\n        /* \"#utility.yul\":1121:1143   */\n      add\n        /* \"#utility.yul\":1100:1153   */\n      tag_81\n      jump\t// in\n    tag_145:\n        /* \"#utility.yul\":1090:1153   */\n      swap2\n      pop\n        /* \"#utility.yul\":1046:1163   */\n      pop\n        /* \"#utility.yul\":841:1170   */\n      swap3\n      swap2\n      pop\n      pop\n      jump\t// out\n        /* \"#utility.yul\":1176:1311   */\n    tag_82:\n        /* \"#utility.yul\":1264:1270   */\n      0x00\n        /* \"#utility.yul\":1298:1303   */\n      dup2\n        /* \"#utility.yul\":1292:1304   */\n      mload\n        /* \"#utility.yul\":1282:1304   */\n      swap1\n      pop\n        /* \"#utility.yul\":1176:1311   */\n      swap2\n      swap1\n      pop\n      jump\t// out\n        /* \"#utility.yul\":1317:1522   */\n    tag_83:\n        /* \"#utility.yul\":1437:1448   */\n      0x00\n        /* \"#utility.yul\":1471:1477   */\n      dup3\n        /* \"#utility.yul\":1466:1469   */\n      dup3\n        /* \"#utility.yul\":1459:1478   */\n      mstore\n        /* \"#utility.yul\":1511:1515   */\n      0x20\n        /* \"#utility.yul\":1506:1509   */\n      dup3\n        /* \"#utility.yul\":1502:1516   */\n      add\n        /* \"#utility.yul\":1487:1516   */\n      swap1\n      pop\n        /* \"#utility.yul\":1317:1522   */\n      swap3\n      swap2\n      pop\n      pop\n      jump\t// out\n        /* \"#utility.yul\":1528:1681   */\n    tag_84:\n        /* \"#utility.yul\":1616:1620   */\n      0x00\n        /* \"#utility.yul\":1639:1642   */\n      dup2\n        /* \"#utility.yul\":1631:1642   */\n      swap1\n      pop\n        /* \"#utility.yul\":1669:1673   */\n      0x20\n        /* \"#utility.yul\":1664:1667   */\n      dup3\n        /* \"#utility.yul\":1660:1674   */\n      add\n        /* \"#utility.yul\":1652:1674   */\n      swap1\n      pop\n        /* \"#utility.yul\":1528:1681   */\n      swap2\n      swap1\n      pop\n      jump\t// out\n        /* \"#utility.yul\":1687:1795   */\n    tag_85:\n        /* \"#utility.yul\":1764:1788   */\n      tag_150\n        /* \"#utility.yul\":1782:1787   */\n      dup2\n        /* \"#utility.yul\":1764:1788   */\n      tag_79\n      jump\t// in\n    tag_150:\n        /* \"#utility.yul\":1759:1762   */\n      dup3\n        /* \"#utility.yul\":1752:1789   */\n      mstore\n        /* \"#utility.yul\":1687:1795   */\n      pop\n      pop\n      jump\t// out\n        /* \"#utility.yul\":1801:1900   */\n    tag_86:\n        /* \"#utility.yul\":1853:1859   */\n      0x00\n        /* \"#utility.yul\":1887:1892   */\n      dup2\n        /* \"#utility.yul\":1881:1893   */\n      mload\n        /* \"#utility.yul\":1871:1893   */\n      swap1\n      pop\n        /* \"#utility.yul\":1801:1900   */\n      swap2\n      swap1\n      pop\n      jump\t// out\n        /* \"#utility.yul\":1906:2065   */\n    tag_87:\n        /* \"#utility.yul\":1980:1991   */\n      0x00\n        /* \"#utility.yul\":2014:2020   */\n      dup3\n        /* \"#utility.yul\":2009:2012   */\n      dup3\n        /* \"#utility.yul\":2002:2021   */\n      mstore\n        /* \"#utility.yul\":2054:2058   */\n      0x20\n        /* \"#utility.yul\":2049:2052   */\n      dup3\n        /* \"#utility.yul\":2045:2059   */\n      add\n        /* \"#utility.yul\":2030:2059   */\n      swap1\n      pop\n        /* \"#utility.yul\":1906:2065   */\n      swap3\n      swap2\n      pop\n      pop\n      jump\t// out\n        /* \"#utility.yul\":2071:2210   */\n    tag_88:\n        /* \"#utility.yul\":2160:2166   */\n      dup3\n        /* \"#utility.yul\":2155:2158   */\n      dup2\n        /* \"#utility.yul\":2150:2153   */\n      dup4\n        /* \"#utility.yul\":2144:2167   */\n      mcopy\n        /* \"#utility.yul\":2201:2202   */\n      0x00\n        /* \"#utility.yul\":2192:2198   */\n      dup4\n        /* \"#utility.yul\":2187:2190   */\n      dup4\n        /* \"#utility.yul\":2183:2199   */\n      add\n        /* \"#utility.yul\":2176:2203   */\n      mstore\n        /* \"#utility.yul\":2071:2210   */\n      pop\n      pop\n      pop\n      jump\t// out\n        /* \"#utility.yul\":2216:2318   */\n    tag_89:\n        /* \"#utility.yul\":2257:2263   */\n      0x00\n        /* \"#utility.yul\":2308:2310   */\n      0x1f\n        /* \"#utility.yul\":2304:2311   */\n      not\n        /* \"#utility.yul\":2299:2301   */\n      0x1f\n        /* \"#utility.yul\":2292:2297   */\n      dup4\n        /* \"#utility.yul\":2288:2302   */\n      add\n        /* \"#utility.yul\":2284:2312   */\n      and\n        /* \"#utility.yul\":2274:2312   */\n      swap1\n      pop\n        /* \"#utility.yul\":2216:2318   */\n      swap2\n      swap1\n      pop\n      jump\t// out\n        /* \"#utility.yul\":2324:2681   */\n    tag_90:\n        /* \"#utility.yul\":2402:2405   */\n      0x00\n        /* \"#utility.yul\":2430:2469   */\n      tag_156\n        /* \"#utility.yul\":2463:2468   */\n      dup3\n        /* \"#utility.yul\":2430:2469   */\n      tag_86\n      jump\t// in\n    tag_156:\n        /* \"#utility.yul\":2485:2546   */\n      tag_157\n        /* \"#utility.yul\":2539:2545   */\n      dup2\n        /* \"#utility.yul\":2534:2537   */\n      dup6\n        /* \"#utility.yul\":2485:2546   */\n      tag_87\n      jump\t// in\n    tag_157:\n        /* \"#utility.yul\":2478:2546   */\n      swap4\n      pop\n        /* \"#utility.yul\":2555:2620   */\n      tag_158\n        /* \"#utility.yul\":2613:2619   */\n      dup2\n        /* \"#utility.yul\":2608:2611   */\n      dup6\n        /* \"#utility.yul\":2601:2605   */\n      0x20\n        /* \"#utility.yul\":2594:2599   */\n      dup7\n        /* \"#utility.yul\":2590:2606   */\n      add\n        /* \"#utility.yul\":2555:2620   */\n      tag_88\n      jump\t// in\n    tag_158:\n        /* \"#utility.yul\":2645:2674   */\n      tag_159\n        /* \"#utility.yul\":2667:2673   */\n      dup2\n        /* \"#utility.yul\":2645:2674   */\n      tag_89\n      jump\t// in\n    tag_159:\n        /* \"#utility.yul\":2640:2643   */\n      dup5\n        /* \"#utility.yul\":2636:2675   */\n      add\n        /* \"#utility.yul\":2629:2675   */\n      swap2\n      pop\n        /* \"#utility.yul\":2406:2681   */\n      pop\n        /* \"#utility.yul\":2324:2681   */\n      swap3\n      swap2\n      pop\n      pop\n      jump\t// out\n        /* \"#utility.yul\":2687:2764   */\n    tag_91:\n        /* \"#utility.yul\":2724:2731   */\n      0x00\n        /* \"#utility.yul\":2753:2758   */\n      dup2\n        /* \"#utility.yul\":2742:2758   */\n      swap1\n      pop\n        /* \"#utility.yul\":2687:2764   */\n      swap2\n      swap1\n      pop\n      jump\t// out\n        /* \"#utility.yul\":2770:2878   */\n    tag_92:\n        /* \"#utility.yul\":2847:2871   */\n      tag_162\n        /* \"#utility.yul\":2865:2870   */\n      dup2\n        /* \"#utility.yul\":2847:2871   */\n      tag_91\n      jump\t// in\n    tag_162:\n        /* \"#utility.yul\":2842:2845   */\n      dup3\n        /* \"#utility.yul\":2835:2872   */\n      mstore\n        /* \"#utility.yul\":2770:2878   */\n      pop\n      pop\n      jump\t// out\n        /* \"#utility.yul\":2936:3883   */\n    tag_93:\n        /* \"#utility.yul\":3037:3040   */\n      0x00\n        /* \"#utility.yul\":3073:3077   */\n      0x80\n        /* \"#utility.yul\":3068:3071   */\n      dup4\n        /* \"#utility.yul\":3064:3078   */\n      add\n        /* \"#utility.yul\":3162:3166   */\n      0x00\n        /* \"#utility.yul\":3155:3160   */\n      dup4\n        /* \"#utility.yul\":3151:3167   */\n      add\n        /* \"#utility.yul\":3145:3168   */\n      mload\n        /* \"#utility.yul\":3181:3244   */\n      tag_164\n        /* \"#utility.yul\":3238:3242   */\n      0x00\n        /* \"#utility.yul\":3233:3236   */\n      dup7\n        /* \"#utility.yul\":3229:3243   */\n      add\n        /* \"#utility.yul\":3215:3227   */\n      dup3\n        /* \"#utility.yul\":3181:3244   */\n      tag_85\n      jump\t// in\n    tag_164:\n        /* \"#utility.yul\":3088:3254   */\n      pop\n        /* \"#utility.yul\":3339:3343   */\n      0x20\n        /* \"#utility.yul\":3332:3337   */\n      dup4\n        /* \"#utility.yul\":3328:3344   */\n      add\n        /* \"#utility.yul\":3322:3345   */\n      mload\n        /* \"#utility.yul\":3392:3395   */\n      dup5\n        /* \"#utility.yul\":3386:3390   */\n      dup3\n        /* \"#utility.yul\":3382:3396   */\n      sub\n        /* \"#utility.yul\":3375:3379   */\n      0x20\n        /* \"#utility.yul\":3370:3373   */\n      dup7\n        /* \"#utility.yul\":3366:3380   */\n      add\n        /* \"#utility.yul\":3359:3397   */\n      mstore\n        /* \"#utility.yul\":3418:3491   */\n      tag_165\n        /* \"#utility.yul\":3486:3490   */\n      dup3\n        /* \"#utility.yul\":3472:3484   */\n      dup3\n        /* \"#utility.yul\":3418:3491   */\n      tag_90\n      jump\t// in\n    tag_165:\n        /* \"#utility.yul\":3410:3491   */\n      swap2\n      pop\n        /* \"#utility.yul\":3264:3502   */\n      pop\n        /* \"#utility.yul\":3589:3593   */\n      0x40\n        /* \"#utility.yul\":3582:3587   */\n      dup4\n        /* \"#utility.yul\":3578:3594   */\n      add\n        /* \"#utility.yul\":3572:3595   */\n      mload\n        /* \"#utility.yul\":3608:3671   */\n      tag_166\n        /* \"#utility.yul\":3665:3669   */\n      0x40\n        /* \"#utility.yul\":3660:3663   */\n      dup7\n        /* \"#utility.yul\":3656:3670   */\n      add\n        /* \"#utility.yul\":3642:3654   */\n      dup3\n        /* \"#utility.yul\":3608:3671   */\n      tag_92\n      jump\t// in\n    tag_166:\n        /* \"#utility.yul\":3512:3681   */\n      pop\n        /* \"#utility.yul\":3764:3768   */\n      0x60\n        /* \"#utility.yul\":3757:3762   */\n      dup4\n        /* \"#utility.yul\":3753:3769   */\n      add\n        /* \"#utility.yul\":3747:3770   */\n      mload\n        /* \"#utility.yul\":3783:3846   */\n      tag_167\n        /* \"#utility.yul\":3840:3844   */\n      0x60\n        /* \"#utility.yul\":3835:3838   */\n      dup7\n        /* \"#utility.yul\":3831:3845   */\n      add\n        /* \"#utility.yul\":3817:3829   */\n      dup3\n        /* \"#utility.yul\":3783:3846   */\n      tag_92\n      jump\t// in\n    tag_167:\n        /* \"#utility.yul\":3691:3856   */\n      pop\n        /* \"#utility.yul\":3873:3877   */\n      dup1\n        /* \"#utility.yul\":3866:3877   */\n      swap2\n      pop\n        /* \"#utility.yul\":3042:3883   */\n      pop\n        /* \"#utility.yul\":2936:3883   */\n      swap3\n      swap2\n      pop\n      pop\n      jump\t// out\n        /* \"#utility.yul\":3889:4129   */\n    tag_94:\n        /* \"#utility.yul\":4000:4010   */\n      0x00\n        /* \"#utility.yul\":4035:4123   */\n      tag_169\n        /* \"#utility.yul\":4119:4122   */\n      dup4\n        /* \"#utility.yul\":4111:4117   */\n      dup4\n        /* \"#utility.yul\":4035:4123   */\n      tag_93\n      jump\t// in\n    tag_169:\n        /* \"#utility.yul\":4021:4123   */\n      swap1\n      pop\n        /* \"#utility.yul\":3889:4129   */\n      swap3\n      swap2\n      pop\n      pop\n      jump\t// out\n        /* \"#utility.yul\":4135:4269   */\n    tag_95:\n        /* \"#utility.yul\":4226:4230   */\n      0x00\n        /* \"#utility.yul\":4258:4262   */\n      0x20\n        /* \"#utility.yul\":4253:4256   */\n      dup3\n        /* \"#utility.yul\":4249:4263   */\n      add\n        /* \"#utility.yul\":4241:4263   */\n      swap1\n      pop\n        /* \"#utility.yul\":4135:4269   */\n      swap2\n      swap1\n      pop\n      jump\t// out\n        /* \"#utility.yul\":4331:5410   */\n    tag_96:\n        /* \"#utility.yul\":4492:4495   */\n      0x00\n        /* \"#utility.yul\":4521:4596   */\n      tag_172\n        /* \"#utility.yul\":4590:4595   */\n      dup3\n        /* \"#utility.yul\":4521:4596   */\n      tag_82\n      jump\t// in\n    tag_172:\n        /* \"#utility.yul\":4612:4719   */\n      tag_173\n        /* \"#utility.yul\":4712:4718   */\n      dup2\n        /* \"#utility.yul\":4707:4710   */\n      dup6\n        /* \"#utility.yul\":4612:4719   */\n      tag_83\n      jump\t// in\n    tag_173:\n        /* \"#utility.yul\":4605:4719   */\n      swap4\n      pop\n        /* \"#utility.yul\":4745:4748   */\n      dup4\n        /* \"#utility.yul\":4790:4794   */\n      0x20\n        /* \"#utility.yul\":4782:4788   */\n      dup3\n        /* \"#utility.yul\":4778:4795   */\n      mul\n        /* \"#utility.yul\":4773:4776   */\n      dup6\n        /* \"#utility.yul\":4769:4796   */\n      add\n        /* \"#utility.yul\":4820:4897   */\n      tag_174\n        /* \"#utility.yul\":4891:4896   */\n      dup6\n        /* \"#utility.yul\":4820:4897   */\n      tag_84\n      jump\t// in\n    tag_174:\n        /* \"#utility.yul\":4920:4927   */\n      dup1\n        /* \"#utility.yul\":4951:4952   */\n      0x00\n        /* \"#utility.yul\":4936:5365   */\n    tag_175:\n        /* \"#utility.yul\":4961:4967   */\n      dup6\n        /* \"#utility.yul\":4958:4959   */\n      dup2\n        /* \"#utility.yul\":4955:4968   */\n      lt\n        /* \"#utility.yul\":4936:5365   */\n      iszero\n      tag_177\n      jumpi\n        /* \"#utility.yul\":5032:5041   */\n      dup5\n        /* \"#utility.yul\":5026:5030   */\n      dup5\n        /* \"#utility.yul\":5022:5042   */\n      sub\n        /* \"#utility.yul\":5017:5020   */\n      dup10\n        /* \"#utility.yul\":5010:5043   */\n      mstore\n        /* \"#utility.yul\":5083:5089   */\n      dup2\n        /* \"#utility.yul\":5077:5090   */\n      mload\n        /* \"#utility.yul\":5111:5217   */\n      tag_178\n        /* \"#utility.yul\":5212:5216   */\n      dup6\n        /* \"#utility.yul\":5197:5210   */\n      dup3\n        /* \"#utility.yul\":5111:5217   */\n      tag_94\n      jump\t// in\n    tag_178:\n        /* \"#utility.yul\":5103:5217   */\n      swap5\n      pop\n        /* \"#utility.yul\":5240:5321   */\n      tag_179\n        /* \"#utility.yul\":5314:5320   */\n      dup4\n        /* \"#utility.yul\":5240:5321   */\n      tag_95\n      jump\t// in\n    tag_179:\n        /* \"#utility.yul\":5230:5321   */\n      swap3\n      pop\n        /* \"#utility.yul\":5350:5354   */\n      0x20\n        /* \"#utility.yul\":5345:5348   */\n      dup11\n        /* \"#utility.yul\":5341:5355   */\n      add\n        /* \"#utility.yul\":5334:5355   */\n      swap10\n      pop\n        /* \"#utility.yul\":4996:5365   */\n      pop\n        /* \"#utility.yul\":4983:4984   */\n      0x01\n        /* \"#utility.yul\":4980:4981   */\n      dup2\n        /* \"#utility.yul\":4976:4985   */\n      add\n        /* \"#utility.yul\":4971:4985   */\n      swap1\n      pop\n        /* \"#utility.yul\":4936:5365   */\n      jump(tag_175)\n    tag_177:\n        /* \"#utility.yul\":4940:4954   */\n      pop\n        /* \"#utility.yul\":5381:5385   */\n      dup3\n        /* \"#utility.yul\":5374:5385   */\n      swap8\n      pop\n        /* \"#utility.yul\":5401:5404   */\n      dup8\n        /* \"#utility.yul\":5394:5404   */\n      swap6\n      pop\n        /* \"#utility.yul\":4497:5410   */\n      pop\n      pop\n      pop\n      pop\n      pop\n        /* \"#utility.yul\":4331:5410   */\n      swap3\n      swap2\n      pop\n      pop\n      jump\t// out\n        /* \"#utility.yul\":5416:5873   */\n    tag_12:\n        /* \"#utility.yul\":5601:5605   */\n      0x00\n        /* \"#utility.yul\":5639:5641   */\n      0x20\n        /* \"#utility.yul\":5628:5637   */\n      dup3\n        /* \"#utility.yul\":5624:5642   */\n      add\n        /* \"#utility.yul\":5616:5642   */\n      swap1\n      pop\n        /* \"#utility.yul\":5688:5697   */\n      dup2\n        /* \"#utility.yul\":5682:5686   */\n      dup2\n        /* \"#utility.yul\":5678:5698   */\n      sub\n        /* \"#utility.yul\":5674:5675   */\n      0x00\n        /* \"#utility.yul\":5663:5672   */\n      dup4\n        /* \"#utility.yul\":5659:5676   */\n      add\n        /* \"#utility.yul\":5652:5699   */\n      mstore\n        /* \"#utility.yul\":5716:5866   */\n      tag_181\n        /* \"#utility.yul\":5861:5865   */\n      dup2\n        /* \"#utility.yul\":5852:5858   */\n      dup5\n        /* \"#utility.yul\":5716:5866   */\n      tag_96\n      jump\t// in\n    tag_181:\n        /* \"#utility.yul\":5708:5866   */\n      swap1\n      pop\n        /* \"#utility.yul\":5416:5873   */\n      swap3\n      swap2\n      pop\n      pop\n      jump\t// out\n        /* \"#utility.yul\":5879:5996   */\n    tag_97:\n        /* \"#utility.yul\":5988:5989   */\n      0x00\n        /* \"#utility.yul\":5985:5986   */\n      dup1\n        /* \"#utility.yul\":5978:5990   */\n      revert\n        /* \"#utility.yul\":6002:6119   */\n    tag_98:\n        /* \"#utility.yul\":6111:6112   */\n      0x00\n        /* \"#utility.yul\":6108:6109   */\n      dup1\n        /* \"#utility.yul\":6101:6113   */\n      revert\n        /* \"#utility.yul\":6125:6305   */\n    tag_99:\n        /* \"#utility.yul\":6173:6250   */\n      0x4e487b7100000000000000000000000000000000000000000000000000000000\n        /* \"#utility.yul\":6170:6171   */\n      0x00\n        /* \"#utility.yul\":6163:6251   */\n      mstore\n        /* \"#utility.yul\":6270:6274   */\n      0x41\n        /* \"#utility.yul\":6267:6268   */\n      0x04\n        /* \"#utility.yul\":6260:6275   */\n      mstore\n        /* \"#utility.yul\":6294:6298   */\n      0x24\n        /* \"#utility.yul\":6291:6292   */\n      0x00\n        /* \"#utility.yul\":6284:6299   */\n      revert\n        /* \"#utility.yul\":6311:6592   */\n    tag_100:\n        /* \"#utility.yul\":6394:6421   */\n      tag_186\n        /* \"#utility.yul\":6416:6420   */\n      dup3\n        /* \"#utility.yul\":6394:6421   */\n      tag_89\n      jump\t// in\n    tag_186:\n        /* \"#utility.yul\":6386:6392   */\n      dup2\n        /* \"#utility.yul\":6382:6422   */\n      add\n        /* \"#utility.yul\":6524:6530   */\n      dup2\n        /* \"#utility.yul\":6512:6522   */\n      dup2\n        /* \"#utility.yul\":6509:6531   */\n      lt\n        /* \"#utility.yul\":6488:6506   */\n      0xffffffffffffffff\n        /* \"#utility.yul\":6476:6486   */\n      dup3\n        /* \"#utility.yul\":6473:6507   */\n      gt\n        /* \"#utility.yul\":6470:6532   */\n      or\n        /* \"#utility.yul\":6467:6555   */\n      iszero\n      tag_187\n      jumpi\n        /* \"#utility.yul\":6535:6553   */\n      tag_188\n      tag_99\n      jump\t// in\n    tag_188:\n        /* \"#utility.yul\":6467:6555   */\n    tag_187:\n        /* \"#utility.yul\":6575:6585   */\n      dup1\n        /* \"#utility.yul\":6571:6573   */\n      0x40\n        /* \"#utility.yul\":6564:6586   */\n      mstore\n        /* \"#utility.yul\":6354:6592   */\n      pop\n        /* \"#utility.yul\":6311:6592   */\n      pop\n      pop\n      jump\t// out\n        /* \"#utility.yul\":6598:6727   */\n    tag_101:\n        /* \"#utility.yul\":6632:6638   */\n      0x00\n        /* \"#utility.yul\":6659:6679   */\n      tag_190\n      tag_75\n      jump\t// in\n    tag_190:\n        /* \"#utility.yul\":6649:6679   */\n      swap1\n      pop\n        /* \"#utility.yul\":6688:6721   */\n      tag_191\n        /* \"#utility.yul\":6716:6720   */\n      dup3\n        /* \"#utility.yul\":6708:6714   */\n      dup3\n        /* \"#utility.yul\":6688:6721   */\n      tag_100\n      jump\t// in\n    tag_191:\n        /* \"#utility.yul\":6598:6727   */\n      swap2\n      swap1\n      pop\n      jump\t// out\n        /* \"#utility.yul\":6733:7041   */\n    tag_102:\n        /* \"#utility.yul\":6795:6799   */\n      0x00\n        /* \"#utility.yul\":6885:6903   */\n      0xffffffffffffffff\n        /* \"#utility.yul\":6877:6883   */\n      dup3\n        /* \"#utility.yul\":6874:6904   */\n      gt\n        /* \"#utility.yul\":6871:6927   */\n      iszero\n      tag_193\n      jumpi\n        /* \"#utility.yul\":6907:6925   */\n      tag_194\n      tag_99\n      jump\t// in\n    tag_194:\n        /* \"#utility.yul\":6871:6927   */\n    tag_193:\n        /* \"#utility.yul\":6945:6974   */\n      tag_195\n        /* \"#utility.yul\":6967:6973   */\n      dup3\n        /* \"#utility.yul\":6945:6974   */\n      tag_89\n      jump\t// in\n    tag_195:\n        /* \"#utility.yul\":6937:6974   */\n      swap1\n      pop\n        /* \"#utility.yul\":7029:7033   */\n      0x20\n        /* \"#utility.yul\":7023:7027   */\n      dup2\n        /* \"#utility.yul\":7019:7034   */\n      add\n        /* \"#utility.yul\":7011:7034   */\n      swap1\n      pop\n        /* \"#utility.yul\":6733:7041   */\n      swap2\n      swap1\n      pop\n      jump\t// out\n        /* \"#utility.yul\":7047:7195   */\n    tag_103:\n        /* \"#utility.yul\":7145:7151   */\n      dup3\n        /* \"#utility.yul\":7140:7143   */\n      dup2\n        /* \"#utility.yul\":7135:7138   */\n      dup4\n        /* \"#utility.yul\":7122:7152   */\n      calldatacopy\n        /* \"#utility.yul\":7186:7187   */\n      0x00\n        /* \"#utility.yul\":7177:7183   */\n      dup4\n        /* \"#utility.yul\":7172:7175   */\n      dup4\n        /* \"#utility.yul\":7168:7184   */\n      add\n        /* \"#utility.yul\":7161:7188   */\n      mstore\n        /* \"#utility.yul\":7047:7195   */\n      pop\n      pop\n      pop\n      jump\t// out\n        /* \"#utility.yul\":7201:7626   */\n    tag_104:\n        /* \"#utility.yul\":7279:7284   */\n      0x00\n        /* \"#utility.yul\":7304:7370   */\n      tag_198\n        /* \"#utility.yul\":7320:7369   */\n      tag_199\n        /* \"#utility.yul\":7362:7368   */\n      dup5\n        /* \"#utility.yul\":7320:7369   */\n      tag_102\n      jump\t// in\n    tag_199:\n        /* \"#utility.yul\":7304:7370   */\n      tag_101\n      jump\t// in\n    tag_198:\n        /* \"#utility.yul\":7295:7370   */\n      swap1\n      pop\n        /* \"#utility.yul\":7393:7399   */\n      dup3\n        /* \"#utility.yul\":7386:7391   */\n      dup2\n        /* \"#utility.yul\":7379:7400   */\n      mstore\n        /* \"#utility.yul\":7431:7435   */\n      0x20\n        /* \"#utility.yul\":7424:7429   */\n      dup2\n        /* \"#utility.yul\":7420:7436   */\n      add\n        /* \"#utility.yul\":7469:7472   */\n      dup5\n        /* \"#utility.yul\":7460:7466   */\n      dup5\n        /* \"#utility.yul\":7455:7458   */\n      dup5\n        /* \"#utility.yul\":7451:7467   */\n      add\n        /* \"#utility.yul\":7448:7473   */\n      gt\n        /* \"#utility.yul\":7445:7557   */\n      iszero\n      tag_200\n      jumpi\n        /* \"#utility.yul\":7476:7555   */\n      tag_201\n      tag_98\n      jump\t// in\n    tag_201:\n        /* \"#utility.yul\":7445:7557   */\n    tag_200:\n        /* \"#utility.yul\":7566:7620   */\n      tag_202\n        /* \"#utility.yul\":7613:7619   */\n      dup5\n        /* \"#utility.yul\":7608:7611   */\n      dup3\n        /* \"#utility.yul\":7603:7606   */\n      dup6\n        /* \"#utility.yul\":7566:7620   */\n      tag_103\n      jump\t// in\n    tag_202:\n        /* \"#utility.yul\":7285:7626   */\n      pop\n        /* \"#utility.yul\":7201:7626   */\n      swap4\n      swap3\n      pop\n      pop\n      pop\n      jump\t// out\n        /* \"#utility.yul\":7646:7986   */\n    tag_105:\n        /* \"#utility.yul\":7702:7707   */\n      0x00\n        /* \"#utility.yul\":7751:7754   */\n      dup3\n        /* \"#utility.yul\":7744:7748   */\n      0x1f\n        /* \"#utility.yul\":7736:7742   */\n      dup4\n        /* \"#utility.yul\":7732:7749   */\n      add\n        /* \"#utility.yul\":7728:7755   */\n      slt\n        /* \"#utility.yul\":7718:7840   */\n      tag_204\n      jumpi\n        /* \"#utility.yul\":7759:7838   */\n      tag_205\n      tag_97\n      jump\t// in\n    tag_205:\n        /* \"#utility.yul\":7718:7840   */\n    tag_204:\n        /* \"#utility.yul\":7876:7882   */\n      dup2\n        /* \"#utility.yul\":7863:7883   */\n      calldataload\n        /* \"#utility.yul\":7901:7980   */\n      tag_206\n        /* \"#utility.yul\":7976:7979   */\n      dup5\n        /* \"#utility.yul\":7968:7974   */\n      dup3\n        /* \"#utility.yul\":7961:7965   */\n      0x20\n        /* \"#utility.yul\":7953:7959   */\n      dup7\n        /* \"#utility.yul\":7949:7966   */\n      add\n        /* \"#utility.yul\":7901:7980   */\n      tag_104\n      jump\t// in\n    tag_206:\n        /* \"#utility.yul\":7892:7980   */\n      swap2\n      pop\n        /* \"#utility.yul\":7708:7986   */\n      pop\n        /* \"#utility.yul\":7646:7986   */\n      swap3\n      swap2\n      pop\n      pop\n      jump\t// out\n        /* \"#utility.yul\":7992:8501   */\n    tag_18:\n        /* \"#utility.yul\":8061:8067   */\n      0x00\n        /* \"#utility.yul\":8110:8112   */\n      0x20\n        /* \"#utility.yul\":8098:8107   */\n      dup3\n        /* \"#utility.yul\":8089:8096   */\n      dup5\n        /* \"#utility.yul\":8085:8108   */\n      sub\n        /* \"#utility.yul\":8081:8113   */\n      slt\n        /* \"#utility.yul\":8078:8197   */\n      iszero\n      tag_208\n      jumpi\n        /* \"#utility.yul\":8116:8195   */\n      tag_209\n      tag_76\n      jump\t// in\n    tag_209:\n        /* \"#utility.yul\":8078:8197   */\n    tag_208:\n        /* \"#utility.yul\":8264:8265   */\n      0x00\n        /* \"#utility.yul\":8253:8262   */\n      dup3\n        /* \"#utility.yul\":8249:8266   */\n      add\n        /* \"#utility.yul\":8236:8267   */\n      calldataload\n        /* \"#utility.yul\":8294:8312   */\n      0xffffffffffffffff\n        /* \"#utility.yul\":8286:8292   */\n      dup2\n        /* \"#utility.yul\":8283:8313   */\n      gt\n        /* \"#utility.yul\":8280:8397   */\n      iszero\n      tag_210\n      jumpi\n        /* \"#utility.yul\":8316:8395   */\n      tag_211\n      tag_77\n      jump\t// in\n    tag_211:\n        /* \"#utility.yul\":8280:8397   */\n    tag_210:\n        /* \"#utility.yul\":8421:8484   */\n      tag_212\n        /* \"#utility.yul\":8476:8483   */\n      dup5\n        /* \"#utility.yul\":8467:8473   */\n      dup3\n        /* \"#utility.yul\":8456:8465   */\n      dup6\n        /* \"#utility.yul\":8452:8474   */\n      add\n        /* \"#utility.yul\":8421:8484   */\n      tag_105\n      jump\t// in\n    tag_212:\n        /* \"#utility.yul\":8411:8484   */\n      swap2\n      pop\n        /* \"#utility.yul\":8207:8494   */\n      pop\n        /* \"#utility.yul\":7992:8501   */\n      swap3\n      swap2\n      pop\n      pop\n      jump\t// out\n        /* \"#utility.yul\":8507:8629   */\n    tag_106:\n        /* \"#utility.yul\":8580:8604   */\n      tag_214\n        /* \"#utility.yul\":8598:8603   */\n      dup2\n        /* \"#utility.yul\":8580:8604   */\n      tag_91\n      jump\t// in\n    tag_214:\n        /* \"#utility.yul\":8573:8578   */\n      dup2\n        /* \"#utility.yul\":8570:8605   */\n      eq\n        /* \"#utility.yul\":8560:8623   */\n      tag_215\n      jumpi\n        /* \"#utility.yul\":8619:8620   */\n      0x00\n        /* \"#utility.yul\":8616:8617   */\n      dup1\n        /* \"#utility.yul\":8609:8621   */\n      revert\n        /* \"#utility.yul\":8560:8623   */\n    tag_215:\n        /* \"#utility.yul\":8507:8629   */\n      pop\n      jump\t// out\n        /* \"#utility.yul\":8635:8774   */\n    tag_107:\n        /* \"#utility.yul\":8681:8686   */\n      0x00\n        /* \"#utility.yul\":8719:8725   */\n      dup2\n        /* \"#utility.yul\":8706:8726   */\n      calldataload\n        /* \"#utility.yul\":8697:8726   */\n      swap1\n      pop\n        /* \"#utility.yul\":8735:8768   */\n      tag_217\n        /* \"#utility.yul\":8762:8767   */\n      dup2\n        /* \"#utility.yul\":8735:8768   */\n      tag_106\n      jump\t// in\n    tag_217:\n        /* \"#utility.yul\":8635:8774   */\n      swap3\n      swap2\n      pop\n      pop\n      jump\t// out\n        /* \"#utility.yul\":8780:9109   */\n    tag_22:\n        /* \"#utility.yul\":8839:8845   */\n      0x00\n        /* \"#utility.yul\":8888:8890   */\n      0x20\n        /* \"#utility.yul\":8876:8885   */\n      dup3\n        /* \"#utility.yul\":8867:8874   */\n      dup5\n        /* \"#utility.yul\":8863:8886   */\n      sub\n        /* \"#utility.yul\":8859:8891   */\n      slt\n        /* \"#utility.yul\":8856:8975   */\n      iszero\n      tag_219\n      jumpi\n        /* \"#utility.yul\":8894:8973   */\n      tag_220\n      tag_76\n      jump\t// in\n    tag_220:\n        /* \"#utility.yul\":8856:8975   */\n    tag_219:\n        /* \"#utility.yul\":9014:9015   */\n      0x00\n        /* \"#utility.yul\":9039:9092   */\n      tag_221\n        /* \"#utility.yul\":9084:9091   */\n      dup5\n        /* \"#utility.yul\":9075:9081   */\n      dup3\n        /* \"#utility.yul\":9064:9073   */\n      dup6\n        /* \"#utility.yul\":9060:9082   */\n      add\n        /* \"#utility.yul\":9039:9092   */\n      tag_107\n      jump\t// in\n    tag_221:\n        /* \"#utility.yul\":9029:9092   */\n      swap2\n      pop\n        /* \"#utility.yul\":8985:9102   */\n      pop\n        /* \"#utility.yul\":8780:9109   */\n      swap3\n      swap2\n      pop\n      pop\n      jump\t// out\n        /* \"#utility.yul\":9167:10124   */\n    tag_108:\n        /* \"#utility.yul\":9278:9281   */\n      0x00\n        /* \"#utility.yul\":9314:9318   */\n      0x80\n        /* \"#utility.yul\":9309:9312   */\n      dup4\n        /* \"#utility.yul\":9305:9319   */\n      add\n        /* \"#utility.yul\":9403:9407   */\n      0x00\n        /* \"#utility.yul\":9396:9401   */\n      dup4\n        /* \"#utility.yul\":9392:9408   */\n      add\n        /* \"#utility.yul\":9386:9409   */\n      mload\n        /* \"#utility.yul\":9422:9485   */\n      tag_223\n        /* \"#utility.yul\":9479:9483   */\n      0x00\n        /* \"#utility.yul\":9474:9477   */\n      dup7\n        /* \"#utility.yul\":9470:9484   */\n      add\n        /* \"#utility.yul\":9456:9468   */\n      dup3\n        /* \"#utility.yul\":9422:9485   */\n      tag_85\n      jump\t// in\n    tag_223:\n        /* \"#utility.yul\":9329:9495   */\n      pop\n        /* \"#utility.yul\":9580:9584   */\n      0x20\n        /* \"#utility.yul\":9573:9578   */\n      dup4\n        /* \"#utility.yul\":9569:9585   */\n      add\n        /* \"#utility.yul\":9563:9586   */\n      mload\n        /* \"#utility.yul\":9633:9636   */\n      dup5\n        /* \"#utility.yul\":9627:9631   */\n      dup3\n        /* \"#utility.yul\":9623:9637   */\n      sub\n        /* \"#utility.yul\":9616:9620   */\n      0x20\n        /* \"#utility.yul\":9611:9614   */\n      dup7\n        /* \"#utility.yul\":9607:9621   */\n      add\n        /* \"#utility.yul\":9600:9638   */\n      mstore\n        /* \"#utility.yul\":9659:9732   */\n      tag_224\n        /* \"#utility.yul\":9727:9731   */\n      dup3\n        /* \"#utility.yul\":9713:9725   */\n      dup3\n        /* \"#utility.yul\":9659:9732   */\n      tag_90\n      jump\t// in\n    tag_224:\n        /* \"#utility.yul\":9651:9732   */\n      swap2\n      pop\n        /* \"#utility.yul\":9505:9743   */\n      pop\n        /* \"#utility.yul\":9830:9834   */\n      0x40\n        /* \"#utility.yul\":9823:9828   */\n      dup4\n        /* \"#utility.yul\":9819:9835   */\n      add\n        /* \"#utility.yul\":9813:9836   */\n      mload\n        /* \"#utility.yul\":9849:9912   */\n      tag_225\n        /* \"#utility.yul\":9906:9910   */\n      0x40\n        /* \"#utility.yul\":9901:9904   */\n      dup7\n        /* \"#utility.yul\":9897:9911   */\n      add\n        /* \"#utility.yul\":9883:9895   */\n      dup3\n        /* \"#utility.yul\":9849:9912   */\n      tag_92\n      jump\t// in\n    tag_225:\n        /* \"#utility.yul\":9753:9922   */\n      pop\n        /* \"#utility.yul\":10005:10009   */\n      0x60\n        /* \"#utility.yul\":9998:10003   */\n      dup4\n        /* \"#utility.yul\":9994:10010   */\n      add\n        /* \"#utility.yul\":9988:10011   */\n      mload\n        /* \"#utility.yul\":10024:10087   */\n      tag_226\n        /* \"#utility.yul\":10081:10085   */\n      0x60\n        /* \"#utility.yul\":10076:10079   */\n      dup7\n        /* \"#utility.yul\":10072:10086   */\n      add\n        /* \"#utility.yul\":10058:10070   */\n      dup3\n        /* \"#utility.yul\":10024:10087   */\n      tag_92\n      jump\t// in\n    tag_226:\n        /* \"#utility.yul\":9932:10097   */\n      pop\n        /* \"#utility.yul\":10114:10118   */\n      dup1\n        /* \"#utility.yul\":10107:10118   */\n      swap2\n      pop\n        /* \"#utility.yul\":9283:10124   */\n      pop\n        /* \"#utility.yul\":9167:10124   */\n      swap3\n      swap2\n      pop\n      pop\n      jump\t// out\n        /* \"#utility.yul\":10130:10487   */\n    tag_25:\n        /* \"#utility.yul\":10265:10269   */\n      0x00\n        /* \"#utility.yul\":10303:10305   */\n      0x20\n        /* \"#utility.yul\":10292:10301   */\n      dup3\n        /* \"#utility.yul\":10288:10306   */\n      add\n        /* \"#utility.yul\":10280:10306   */\n      swap1\n      pop\n        /* \"#utility.yul\":10352:10361   */\n      dup2\n        /* \"#utility.yul\":10346:10350   */\n      dup2\n        /* \"#utility.yul\":10342:10362   */\n      sub\n        /* \"#utility.yul\":10338:10339   */\n      0x00\n        /* \"#utility.yul\":10327:10336   */\n      dup4\n        /* \"#utility.yul\":10323:10340   */\n      add\n        /* \"#utility.yul\":10316:10363   */\n      mstore\n        /* \"#utility.yul\":10380:10480   */\n      tag_228\n        /* \"#utility.yul\":10475:10479   */\n      dup2\n        /* \"#utility.yul\":10466:10472   */\n      dup5\n        /* \"#utility.yul\":10380:10480   */\n      tag_108\n      jump\t// in\n    tag_228:\n        /* \"#utility.yul\":10372:10480   */\n      swap1\n      pop\n        /* \"#utility.yul\":10130:10487   */\n      swap3\n      swap2\n      pop\n      pop\n      jump\t// out\n        /* \"#utility.yul\":10493:10673   */\n    tag_109:\n        /* \"#utility.yul\":10541:10618   */\n      0x4e487b7100000000000000000000000000000000000000000000000000000000\n        /* \"#utility.yul\":10538:10539   */\n      0x00\n        /* \"#utility.yul\":10531:10619   */\n      mstore\n        /* \"#utility.yul\":10638:10642   */\n      0x22\n        /* \"#utility.yul\":10635:10636   */\n      0x04\n        /* \"#utility.yul\":10628:10643   */\n      mstore\n        /* \"#utility.yul\":10662:10666   */\n      0x24\n        /* \"#utility.yul\":10659:10660   */\n      0x00\n        /* \"#utility.yul\":10652:10667   */\n      revert\n        /* \"#utility.yul\":10679:10999   */\n    tag_31:\n        /* \"#utility.yul\":10723:10729   */\n      0x00\n        /* \"#utility.yul\":10760:10761   */\n      0x02\n        /* \"#utility.yul\":10754:10758   */\n      dup3\n        /* \"#utility.yul\":10750:10762   */\n      div\n        /* \"#utility.yul\":10740:10762   */\n      swap1\n      pop\n        /* \"#utility.yul\":10807:10808   */\n      0x01\n        /* \"#utility.yul\":10801:10805   */\n      dup3\n        /* \"#utility.yul\":10797:10809   */\n      and\n        /* \"#utility.yul\":10828:10846   */\n      dup1\n        /* \"#utility.yul\":10818:10899   */\n      tag_231\n      jumpi\n        /* \"#utility.yul\":10884:10888   */\n      0x7f\n        /* \"#utility.yul\":10876:10882   */\n      dup3\n        /* \"#utility.yul\":10872:10889   */\n      and\n        /* \"#utility.yul\":10862:10889   */\n      swap2\n      pop\n        /* \"#utility.yul\":10818:10899   */\n    tag_231:\n        /* \"#utility.yul\":10946:10948   */\n      0x20\n        /* \"#utility.yul\":10938:10944   */\n      dup3\n        /* \"#utility.yul\":10935:10949   */\n      lt\n        /* \"#utility.yul\":10915:10933   */\n      dup2\n        /* \"#utility.yul\":10912:10950   */\n      sub\n        /* \"#utility.yul\":10909:10993   */\n      tag_232\n      jumpi\n        /* \"#utility.yul\":10965:10983   */\n      tag_233\n      tag_109\n      jump\t// in\n    tag_233:\n        /* \"#utility.yul\":10909:10993   */\n    tag_232:\n        /* \"#utility.yul\":10730:10999   */\n      pop\n        /* \"#utility.yul\":10679:10999   */\n      swap2\n      swap1\n      pop\n      jump\t// out\n        /* \"#utility.yul\":11005:11174   */\n    tag_110:\n        /* \"#utility.yul\":11089:11100   */\n      0x00\n        /* \"#utility.yul\":11123:11129   */\n      dup3\n        /* \"#utility.yul\":11118:11121   */\n      dup3\n        /* \"#utility.yul\":11111:11130   */\n      mstore\n        /* \"#utility.yul\":11163:11167   */\n      0x20\n        /* \"#utility.yul\":11158:11161   */\n      dup3\n        /* \"#utility.yul\":11154:11168   */\n      add\n        /* \"#utility.yul\":11139:11168   */\n      swap1\n      pop\n        /* \"#utility.yul\":11005:11174   */\n      swap3\n      swap2\n      pop\n      pop\n      jump\t// out\n        /* \"#utility.yul\":11180:11403   */\n    tag_111:\n        /* \"#utility.yul\":11320:11354   */\n      0x547765657420697320746f206c6f6e672c206d61782032383020636861726163\n        /* \"#utility.yul\":11316:11317   */\n      0x00\n        /* \"#utility.yul\":11308:11314   */\n      dup3\n        /* \"#utility.yul\":11304:11318   */\n      add\n        /* \"#utility.yul\":11297:11355   */\n      mstore\n        /* \"#utility.yul\":11389:11395   */\n      0x7465727300000000000000000000000000000000000000000000000000000000\n        /* \"#utility.yul\":11384:11386   */\n      0x20\n        /* \"#utility.yul\":11376:11382   */\n      dup3\n        /* \"#utility.yul\":11372:11387   */\n      add\n        /* \"#utility.yul\":11365:11396   */\n      mstore\n        /* \"#utility.yul\":11180:11403   */\n      pop\n      jump\t// out\n        /* \"#utility.yul\":11409:11775   */\n    tag_112:\n        /* \"#utility.yul\":11551:11554   */\n      0x00\n        /* \"#utility.yul\":11572:11639   */\n      tag_237\n        /* \"#utility.yul\":11636:11638   */\n      0x24\n        /* \"#utility.yul\":11631:11634   */\n      dup4\n        /* \"#utility.yul\":11572:11639   */\n      tag_110\n      jump\t// in\n    tag_237:\n        /* \"#utility.yul\":11565:11639   */\n      swap2\n      pop\n        /* \"#utility.yul\":11648:11741   */\n      tag_238\n        /* \"#utility.yul\":11737:11740   */\n      dup3\n        /* \"#utility.yul\":11648:11741   */\n      tag_111\n      jump\t// in\n    tag_238:\n        /* \"#utility.yul\":11766:11768   */\n      0x40\n        /* \"#utility.yul\":11761:11764   */\n      dup3\n        /* \"#utility.yul\":11757:11769   */\n      add\n        /* \"#utility.yul\":11750:11769   */\n      swap1\n      pop\n        /* \"#utility.yul\":11409:11775   */\n      swap2\n      swap1\n      pop\n      jump\t// out\n        /* \"#utility.yul\":11781:12200   */\n    tag_42:\n        /* \"#utility.yul\":11947:11951   */\n      0x00\n        /* \"#utility.yul\":11985:11987   */\n      0x20\n        /* \"#utility.yul\":11974:11983   */\n      dup3\n        /* \"#utility.yul\":11970:11988   */\n      add\n        /* \"#utility.yul\":11962:11988   */\n      swap1\n      pop\n        /* \"#utility.yul\":12034:12043   */\n      dup2\n        /* \"#utility.yul\":12028:12032   */\n      dup2\n        /* \"#utility.yul\":12024:12044   */\n      sub\n        /* \"#utility.yul\":12020:12021   */\n      0x00\n        /* \"#utility.yul\":12009:12018   */\n      dup4\n        /* \"#utility.yul\":12005:12022   */\n      add\n        /* \"#utility.yul\":11998:12045   */\n      mstore\n        /* \"#utility.yul\":12062:12193   */\n      tag_240\n        /* \"#utility.yul\":12188:12192   */\n      dup2\n        /* \"#utility.yul\":12062:12193   */\n      tag_112\n      jump\t// in\n    tag_240:\n        /* \"#utility.yul\":12054:12193   */\n      swap1\n      pop\n        /* \"#utility.yul\":11781:12200   */\n      swap2\n      swap1\n      pop\n      jump\t// out\n        /* \"#utility.yul\":12206:12347   */\n    tag_113:\n        /* \"#utility.yul\":12255:12259   */\n      0x00\n        /* \"#utility.yul\":12278:12281   */\n      dup2\n        /* \"#utility.yul\":12270:12281   */\n      swap1\n      pop\n        /* \"#utility.yul\":12301:12304   */\n      dup2\n        /* \"#utility.yul\":12298:12299   */\n      0x00\n        /* \"#utility.yul\":12291:12305   */\n      mstore\n        /* \"#utility.yul\":12335:12339   */\n      0x20\n        /* \"#utility.yul\":12332:12333   */\n      0x00\n        /* \"#utility.yul\":12322:12340   */\n      keccak256\n        /* \"#utility.yul\":12314:12340   */\n      swap1\n      pop\n        /* \"#utility.yul\":12206:12347   */\n      swap2\n      swap1\n      pop\n      jump\t// out\n        /* \"#utility.yul\":12353:12446   */\n    tag_114:\n        /* \"#utility.yul\":12390:12396   */\n      0x00\n        /* \"#utility.yul\":12437:12439   */\n      0x20\n        /* \"#utility.yul\":12432:12434   */\n      0x1f\n        /* \"#utility.yul\":12425:12430   */\n      dup4\n        /* \"#utility.yul\":12421:12435   */\n      add\n        /* \"#utility.yul\":12417:12440   */\n      div\n        /* \"#utility.yul\":12407:12440   */\n      swap1\n      pop\n        /* \"#utility.yul\":12353:12446   */\n      swap2\n      swap1\n      pop\n      jump\t// out\n        /* \"#utility.yul\":12452:12559   */\n    tag_115:\n        /* \"#utility.yul\":12496:12504   */\n      0x00\n        /* \"#utility.yul\":12546:12551   */\n      dup3\n        /* \"#utility.yul\":12540:12544   */\n      dup3\n        /* \"#utility.yul\":12536:12552   */\n      shl\n        /* \"#utility.yul\":12515:12552   */\n      swap1\n      pop\n        /* \"#utility.yul\":12452:12559   */\n      swap3\n      swap2\n      pop\n      pop\n      jump\t// out\n        /* \"#utility.yul\":12565:12958   */\n    tag_116:\n        /* \"#utility.yul\":12634:12640   */\n      0x00\n        /* \"#utility.yul\":12684:12685   */\n      0x08\n        /* \"#utility.yul\":12672:12682   */\n      dup4\n        /* \"#utility.yul\":12668:12686   */\n      mul\n        /* \"#utility.yul\":12707:12804   */\n      tag_245\n        /* \"#utility.yul\":12737:12803   */\n      0xffffffffffffffffffffffffffffffffffffffffffffffffffffffffffffffff\n        /* \"#utility.yul\":12726:12735   */\n      dup3\n        /* \"#utility.yul\":12707:12804   */\n      tag_115\n      jump\t// in\n    tag_245:\n        /* \"#utility.yul\":12825:12864   */\n      tag_246\n        /* \"#utility.yul\":12855:12863   */\n      dup7\n        /* \"#utility.yul\":12844:12853   */\n      dup4\n        /* \"#utility.yul\":12825:12864   */\n      tag_115\n      jump\t// in\n    tag_246:\n        /* \"#utility.yul\":12813:12864   */\n      swap6\n      pop\n        /* \"#utility.yul\":12897:12901   */\n      dup1\n        /* \"#utility.yul\":12893:12902   */\n      not\n        /* \"#utility.yul\":12886:12891   */\n      dup5\n        /* \"#utility.yul\":12882:12903   */\n      and\n        /* \"#utility.yul\":12873:12903   */\n      swap4\n      pop\n        /* \"#utility.yul\":12946:12950   */\n      dup1\n        /* \"#utility.yul\":12936:12944   */\n      dup7\n        /* \"#utility.yul\":12932:12951   */\n      and\n        /* \"#utility.yul\":12925:12930   */\n      dup5\n        /* \"#utility.yul\":12922:12952   */\n      or\n        /* \"#utility.yul\":12912:12952   */\n      swap3\n      pop\n        /* \"#utility.yul\":12641:12958   */\n      pop\n      pop\n        /* \"#utility.yul\":12565:12958   */\n      swap4\n      swap3\n      pop\n      pop\n      pop\n      jump\t// out\n        /* \"#utility.yul\":12964:13024   */\n    tag_117:\n        /* \"#utility.yul\":12992:12995   */\n      0x00\n        /* \"#utility.yul\":13013:13018   */\n      dup2\n        /* \"#utility.yul\":13006:13018   */\n      swap1\n      pop\n        /* \"#utility.yul\":12964:13024   */\n      swap2\n      swap1\n      pop\n      jump\t// out\n        /* \"#utility.yul\":13030:13172   */\n    tag_118:\n        /* \"#utility.yul\":13080:13089   */\n      0x00\n        /* \"#utility.yul\":13113:13166   */\n      tag_249\n        /* \"#utility.yul\":13131:13165   */\n      tag_250\n        /* \"#utility.yul\":13140:13164   */\n      tag_251\n        /* \"#utility.yul\":13158:13163   */\n      dup5\n        /* \"#utility.yul\":13140:13164   */\n      tag_91\n      jump\t// in\n    tag_251:\n        /* \"#utility.yul\":13131:13165   */\n      tag_117\n      jump\t// in\n    tag_250:\n        /* \"#utility.yul\":13113:13166   */\n      tag_91\n      jump\t// in\n    tag_249:\n        /* \"#utility.yul\":13100:13166   */\n      swap1\n      pop\n        /* \"#utility.yul\":13030:13172   */\n      swap2\n      swap1\n      pop\n      jump\t// out\n        /* \"#utility.yul\":13178:13253   */\n    tag_119:\n        /* \"#utility.yul\":13221:13224   */\n      0x00\n        /* \"#utility.yul\":13242:13247   */\n      dup2\n        /* \"#utility.yul\":13235:13247   */\n      swap1\n      pop\n        /* \"#utility.yul\":13178:13253   */\n      swap2\n      swap1\n      pop\n      jump\t// out\n        /* \"#utility.yul\":13259:13528   */\n    tag_120:\n        /* \"#utility.yul\":13369:13408   */\n      tag_254\n        /* \"#utility.yul\":13400:13407   */\n      dup4\n        /* \"#utility.yul\":13369:13408   */\n      tag_118\n      jump\t// in\n    tag_254:\n        /* \"#utility.yul\":13430:13521   */\n      tag_255\n        /* \"#utility.yul\":13479:13520   */\n      tag_256\n        /* \"#utility.yul\":13503:13519   */\n      dup3\n        /* \"#utility.yul\":13479:13520   */\n      tag_119\n      jump\t// in\n    tag_256:\n        /* \"#utility.yul\":13471:13477   */\n      dup5\n        /* \"#utility.yul\":13464:13468   */\n      dup5\n        /* \"#utility.yul\":13458:13469   */\n      sload\n        /* \"#utility.yul\":13430:13521   */\n      tag_116\n      jump\t// in\n    tag_255:\n        /* \"#utility.yul\":13424:13428   */\n      dup3\n        /* \"#utility.yul\":13417:13522   */\n      sstore\n        /* \"#utility.yul\":13335:13528   */\n      pop\n        /* \"#utility.yul\":13259:13528   */\n      pop\n      pop\n      pop\n      jump\t// out\n        /* \"#utility.yul\":13534:13607   */\n    tag_121:\n        /* \"#utility.yul\":13579:13582   */\n      0x00\n        /* \"#utility.yul\":13534:13607   */\n      swap1\n      jump\t// out\n        /* \"#utility.yul\":13613:13802   */\n    tag_122:\n        /* \"#utility.yul\":13690:13722   */\n      tag_259\n      tag_121\n      jump\t// in\n    tag_259:\n        /* \"#utility.yul\":13731:13796   */\n      tag_260\n        /* \"#utility.yul\":13789:13795   */\n      dup2\n        /* \"#utility.yul\":13781:13787   */\n      dup5\n        /* \"#utility.yul\":13775:13779   */\n      dup5\n        /* \"#utility.yul\":13731:13796   */\n      tag_120\n      jump\t// in\n    tag_260:\n        /* \"#utility.yul\":13666:13802   */\n      pop\n        /* \"#utility.yul\":13613:13802   */\n      pop\n      pop\n      jump\t// out\n        /* \"#utility.yul\":13808:13994   */\n    tag_123:\n        /* \"#utility.yul\":13868:13988   */\n    tag_262:\n        /* \"#utility.yul\":13885:13888   */\n      dup2\n        /* \"#utility.yul\":13878:13883   */\n      dup2\n        /* \"#utility.yul\":13875:13889   */\n      lt\n        /* \"#utility.yul\":13868:13988   */\n      iszero\n      tag_264\n      jumpi\n        /* \"#utility.yul\":13939:13978   */\n      tag_265\n        /* \"#utility.yul\":13976:13977   */\n      0x00\n        /* \"#utility.yul\":13969:13974   */\n      dup3\n        /* \"#utility.yul\":13939:13978   */\n      tag_122\n      jump\t// in\n    tag_265:\n        /* \"#utility.yul\":13912:13913   */\n      0x01\n        /* \"#utility.yul\":13905:13910   */\n      dup2\n        /* \"#utility.yul\":13901:13914   */\n      add\n        /* \"#utility.yul\":13892:13914   */\n      swap1\n      pop\n        /* \"#utility.yul\":13868:13988   */\n      jump(tag_262)\n    tag_264:\n        /* \"#utility.yul\":13808:13994   */\n      pop\n      pop\n      jump\t// out\n        /* \"#utility.yul\":14000:14543   */\n    tag_124:\n        /* \"#utility.yul\":14101:14103   */\n      0x1f\n        /* \"#utility.yul\":14096:14099   */\n      dup3\n        /* \"#utility.yul\":14093:14104   */\n      gt\n        /* \"#utility.yul\":14090:14536   */\n      iszero\n      tag_267\n      jumpi\n        /* \"#utility.yul\":14135:14173   */\n      tag_268\n        /* \"#utility.yul\":14167:14172   */\n      dup2\n        /* \"#utility.yul\":14135:14173   */\n      tag_113\n      jump\t// in\n    tag_268:\n        /* \"#utility.yul\":14219:14248   */\n      tag_269\n        /* \"#utility.yul\":14237:14247   */\n      dup5\n        /* \"#utility.yul\":14219:14248   */\n      tag_114\n      jump\t// in\n    tag_269:\n        /* \"#utility.yul\":14209:14217   */\n      dup2\n        /* \"#utility.yul\":14205:14249   */\n      add\n        /* \"#utility.yul\":14402:14404   */\n      0x20\n        /* \"#utility.yul\":14390:14400   */\n      dup6\n        /* \"#utility.yul\":14387:14405   */\n      lt\n        /* \"#utility.yul\":14384:14433   */\n      iszero\n      tag_270\n      jumpi\n        /* \"#utility.yul\":14423:14431   */\n      dup2\n        /* \"#utility.yul\":14408:14431   */\n      swap1\n      pop\n        /* \"#utility.yul\":14384:14433   */\n    tag_270:\n        /* \"#utility.yul\":14446:14526   */\n      tag_271\n        /* \"#utility.yul\":14502:14524   */\n      tag_272\n        /* \"#utility.yul\":14520:14523   */\n      dup6\n        /* \"#utility.yul\":14502:14524   */\n      tag_114\n      jump\t// in\n    tag_272:\n        /* \"#utility.yul\":14492:14500   */\n      dup4\n        /* \"#utility.yul\":14488:14525   */\n      add\n        /* \"#utility.yul\":14475:14486   */\n      dup3\n        /* \"#utility.yul\":14446:14526   */\n      tag_123\n      jump\t// in\n    tag_271:\n        /* \"#utility.yul\":14105:14536   */\n      pop\n      pop\n        /* \"#utility.yul\":14090:14536   */\n    tag_267:\n        /* \"#utility.yul\":14000:14543   */\n      pop\n      pop\n      pop\n      jump\t// out\n        /* \"#utility.yul\":14549:14666   */\n    tag_125:\n        /* \"#utility.yul\":14603:14611   */\n      0x00\n        /* \"#utility.yul\":14653:14658   */\n      dup3\n        /* \"#utility.yul\":14647:14651   */\n      dup3\n        /* \"#utility.yul\":14643:14659   */\n      shr\n        /* \"#utility.yul\":14622:14659   */\n      swap1\n      pop\n        /* \"#utility.yul\":14549:14666   */\n      swap3\n      swap2\n      pop\n      pop\n      jump\t// out\n        /* \"#utility.yul\":14672:14841   */\n    tag_126:\n        /* \"#utility.yul\":14716:14722   */\n      0x00\n        /* \"#utility.yul\":14749:14800   */\n      tag_275\n        /* \"#utility.yul\":14797:14798   */\n      0x00\n        /* \"#utility.yul\":14793:14799   */\n      not\n        /* \"#utility.yul\":14785:14790   */\n      dup5\n        /* \"#utility.yul\":14782:14783   */\n      0x08\n        /* \"#utility.yul\":14778:14791   */\n      mul\n        /* \"#utility.yul\":14749:14800   */\n      tag_125\n      jump\t// in\n    tag_275:\n        /* \"#utility.yul\":14745:14801   */\n      not\n        /* \"#utility.yul\":14830:14834   */\n      dup1\n        /* \"#utility.yul\":14824:14828   */\n      dup4\n        /* \"#utility.yul\":14820:14835   */\n      and\n        /* \"#utility.yul\":14810:14835   */\n      swap2\n      pop\n        /* \"#utility.yul\":14723:14841   */\n      pop\n        /* \"#utility.yul\":14672:14841   */\n      swap3\n      swap2\n      pop\n      pop\n      jump\t// out\n        /* \"#utility.yul\":14846:15141   */\n    tag_127:\n        /* \"#utility.yul\":14922:14926   */\n      0x00\n        /* \"#utility.yul\":15068:15097   */\n      tag_277\n        /* \"#utility.yul\":15093:15096   */\n      dup4\n        /* \"#utility.yul\":15087:15091   */\n      dup4\n        /* \"#utility.yul\":15068:15097   */\n      tag_126\n      jump\t// in\n    tag_277:\n        /* \"#utility.yul\":15060:15097   */\n      swap2\n      pop\n        /* \"#utility.yul\":15130:15133   */\n      dup3\n        /* \"#utility.yul\":15127:15128   */\n      0x02\n        /* \"#utility.yul\":15123:15134   */\n      mul\n        /* \"#utility.yul\":15117:15121   */\n      dup3\n        /* \"#utility.yul\":15114:15135   */\n      or\n        /* \"#utility.yul\":15106:15135   */\n      swap1\n      pop\n        /* \"#utility.yul\":14846:15141   */\n      swap3\n      swap2\n      pop\n      pop\n      jump\t// out\n        /* \"#utility.yul\":15146:16541   */\n    tag_45:\n        /* \"#utility.yul\":15263:15300   */\n      tag_279\n        /* \"#utility.yul\":15296:15299   */\n      dup3\n        /* \"#utility.yul\":15263:15300   */\n      tag_86\n      jump\t// in\n    tag_279:\n        /* \"#utility.yul\":15365:15383   */\n      0xffffffffffffffff\n        /* \"#utility.yul\":15357:15363   */\n      dup2\n        /* \"#utility.yul\":15354:15384   */\n      gt\n        /* \"#utility.yul\":15351:15407   */\n      iszero\n      tag_280\n      jumpi\n        /* \"#utility.yul\":15387:15405   */\n      tag_281\n      tag_99\n      jump\t// in\n    tag_281:\n        /* \"#utility.yul\":15351:15407   */\n    tag_280:\n        /* \"#utility.yul\":15431:15469   */\n      tag_282\n        /* \"#utility.yul\":15463:15467   */\n      dup3\n        /* \"#utility.yul\":15457:15468   */\n      sload\n        /* \"#utility.yul\":15431:15469   */\n      tag_31\n      jump\t// in\n    tag_282:\n        /* \"#utility.yul\":15516:15583   */\n      tag_283\n        /* \"#utility.yul\":15576:15582   */\n      dup3\n        /* \"#utility.yul\":15568:15574   */\n      dup3\n        /* \"#utility.yul\":15562:15566   */\n      dup6\n        /* \"#utility.yul\":15516:15583   */\n      tag_124\n      jump\t// in\n    tag_283:\n        /* \"#utility.yul\":15610:15611   */\n      0x00\n        /* \"#utility.yul\":15634:15638   */\n      0x20\n        /* \"#utility.yul\":15621:15638   */\n      swap1\n      pop\n        /* \"#utility.yul\":15666:15668   */\n      0x1f\n        /* \"#utility.yul\":15658:15664   */\n      dup4\n        /* \"#utility.yul\":15655:15669   */\n      gt\n        /* \"#utility.yul\":15683:15684   */\n      0x01\n        /* \"#utility.yul\":15678:16296   */\n      dup2\n      eq\n      tag_285\n      jumpi\n        /* \"#utility.yul\":16340:16341   */\n      0x00\n        /* \"#utility.yul\":16357:16363   */\n      dup5\n        /* \"#utility.yul\":16354:16431   */\n      iszero\n      tag_286\n      jumpi\n        /* \"#utility.yul\":16406:16415   */\n      dup3\n        /* \"#utility.yul\":16401:16404   */\n      dup8\n        /* \"#utility.yul\":16397:16416   */\n      add\n        /* \"#utility.yul\":16391:16417   */\n      mload\n        /* \"#utility.yul\":16382:16417   */\n      swap1\n      pop\n        /* \"#utility.yul\":16354:16431   */\n    tag_286:\n        /* \"#utility.yul\":16457:16524   */\n      tag_287\n        /* \"#utility.yul\":16517:16523   */\n      dup6\n        /* \"#utility.yul\":16510:16515   */\n      dup3\n        /* \"#utility.yul\":16457:16524   */\n      tag_127\n      jump\t// in\n    tag_287:\n        /* \"#utility.yul\":16451:16455   */\n      dup7\n        /* \"#utility.yul\":16444:16525   */\n      sstore\n        /* \"#utility.yul\":16313:16535   */\n      pop\n        /* \"#utility.yul\":15648:16535   */\n      jump(tag_284)\n        /* \"#utility.yul\":15678:16296   */\n    tag_285:\n        /* \"#utility.yul\":15730:15734   */\n      0x1f\n        /* \"#utility.yul\":15726:15735   */\n      not\n        /* \"#utility.yul\":15718:15724   */\n      dup5\n        /* \"#utility.yul\":15714:15736   */\n      and\n        /* \"#utility.yul\":15764:15801   */\n      tag_288\n        /* \"#utility.yul\":15796:15800   */\n      dup7\n        /* \"#utility.yul\":15764:15801   */\n      tag_113\n      jump\t// in\n    tag_288:\n        /* \"#utility.yul\":15823:15824   */\n      0x00\n        /* \"#utility.yul\":15837:16045   */\n    tag_289:\n        /* \"#utility.yul\":15851:15858   */\n      dup3\n        /* \"#utility.yul\":15848:15849   */\n      dup2\n        /* \"#utility.yul\":15845:15859   */\n      lt\n        /* \"#utility.yul\":15837:16045   */\n      iszero\n      tag_291\n      jumpi\n        /* \"#utility.yul\":15930:15939   */\n      dup5\n        /* \"#utility.yul\":15925:15928   */\n      dup10\n        /* \"#utility.yul\":15921:15940   */\n      add\n        /* \"#utility.yul\":15915:15941   */\n      mload\n        /* \"#utility.yul\":15907:15913   */\n      dup3\n        /* \"#utility.yul\":15900:15942   */\n      sstore\n        /* \"#utility.yul\":15981:15982   */\n      0x01\n        /* \"#utility.yul\":15973:15979   */\n      dup3\n        /* \"#utility.yul\":15969:15983   */\n      add\n        /* \"#utility.yul\":15959:15983   */\n      swap2\n      pop\n        /* \"#utility.yul\":16028:16030   */\n      0x20\n        /* \"#utility.yul\":16017:16026   */\n      dup6\n        /* \"#utility.yul\":16013:16031   */\n      add\n        /* \"#utility.yul\":16000:16031   */\n      swap5\n      pop\n        /* \"#utility.yul\":15874:15878   */\n      0x20\n        /* \"#utility.yul\":15871:15872   */\n      dup2\n        /* \"#utility.yul\":15867:15879   */\n      add\n        /* \"#utility.yul\":15862:15879   */\n      swap1\n      pop\n        /* \"#utility.yul\":15837:16045   */\n      jump(tag_289)\n    tag_291:\n        /* \"#utility.yul\":16073:16079   */\n      dup7\n        /* \"#utility.yul\":16064:16071   */\n      dup4\n        /* \"#utility.yul\":16061:16080   */\n      lt\n        /* \"#utility.yul\":16058:16237   */\n      iszero\n      tag_292\n      jumpi\n        /* \"#utility.yul\":16131:16140   */\n      dup5\n        /* \"#utility.yul\":16126:16129   */\n      dup10\n        /* \"#utility.yul\":16122:16141   */\n      add\n        /* \"#utility.yul\":16116:16142   */\n      mload\n        /* \"#utility.yul\":16174:16222   */\n      tag_293\n        /* \"#utility.yul\":16216:16220   */\n      0x1f\n        /* \"#utility.yul\":16208:16214   */\n      dup10\n        /* \"#utility.yul\":16204:16221   */\n      and\n        /* \"#utility.yul\":16193:16202   */\n      dup3\n        /* \"#utility.yul\":16174:16222   */\n      tag_126\n      jump\t// in\n    tag_293:\n        /* \"#utility.yul\":16166:16172   */\n      dup4\n        /* \"#utility.yul\":16159:16223   */\n      sstore\n        /* \"#utility.yul\":16081:16237   */\n      pop\n        /* \"#utility.yul\":16058:16237   */\n    tag_292:\n        /* \"#utility.yul\":16283:16284   */\n      0x01\n        /* \"#utility.yul\":16279:16280   */\n      0x02\n        /* \"#utility.yul\":16271:16277   */\n      dup9\n        /* \"#utility.yul\":16267:16281   */\n      mul\n        /* \"#utility.yul\":16263:16285   */\n      add\n        /* \"#utility.yul\":16257:16261   */\n      dup9\n        /* \"#utility.yul\":16250:16286   */\n      sstore\n        /* \"#utility.yul\":15685:16296   */\n      pop\n      pop\n      pop\n        /* \"#utility.yul\":15648:16535   */\n    tag_284:\n      pop\n        /* \"#utility.yul\":15238:16541   */\n      pop\n      pop\n      pop\n        /* \"#utility.yul\":15146:16541   */\n      pop\n      pop\n      jump\t// out\n        /* \"#utility.yul\":16547:16716   */\n    tag_128:\n        /* \"#utility.yul\":16687:16708   */\n      0x496e76616c696420747765657420696e64657800000000000000000000000000\n        /* \"#utility.yul\":16683:16684   */\n      0x00\n        /* \"#utility.yul\":16675:16681   */\n      dup3\n        /* \"#utility.yul\":16671:16685   */\n      add\n        /* \"#utility.yul\":16664:16709   */\n      mstore\n        /* \"#utility.yul\":16547:16716   */\n      pop\n      jump\t// out\n        /* \"#utility.yul\":16722:17088   */\n    tag_129:\n        /* \"#utility.yul\":16864:16867   */\n      0x00\n        /* \"#utility.yul\":16885:16952   */\n      tag_296\n        /* \"#utility.yul\":16949:16951   */\n      0x13\n        /* \"#utility.yul\":16944:16947   */\n      dup4\n        /* \"#utility.yul\":16885:16952   */\n      tag_110\n      jump\t// in\n    tag_296:\n        /* \"#utility.yul\":16878:16952   */\n      swap2\n      pop\n        /* \"#utility.yul\":16961:17054   */\n      tag_297\n        /* \"#utility.yul\":17050:17053   */\n      dup3\n        /* \"#utility.yul\":16961:17054   */\n      tag_128\n      jump\t// in\n    tag_297:\n        /* \"#utility.yul\":17079:17081   */\n      0x20\n        /* \"#utility.yul\":17074:17077   */\n      dup3\n        /* \"#utility.yul\":17070:17082   */\n      add\n        /* \"#utility.yul\":17063:17082   */\n      swap1\n      pop\n        /* \"#utility.yul\":16722:17088   */\n      swap2\n      swap1\n      pop\n      jump\t// out\n        /* \"#utility.yul\":17094:17513   */\n    tag_51:\n        /* \"#utility.yul\":17260:17264   */\n      0x00\n        /* \"#utility.yul\":17298:17300   */\n      0x20\n        /* \"#utility.yul\":17287:17296   */\n      dup3\n        /* \"#utility.yul\":17283:17301   */\n      add\n        /* \"#utility.yul\":17275:17301   */\n      swap1\n      pop\n        /* \"#utility.yul\":17347:17356   */\n      dup2\n        /* \"#utility.yul\":17341:17345   */\n      dup2\n        /* \"#utility.yul\":17337:17357   */\n      sub\n        /* \"#utility.yul\":17333:17334   */\n      0x00\n        /* \"#utility.yul\":17322:17331   */\n      dup4\n        /* \"#utility.yul\":17318:17335   */\n      add\n        /* \"#utility.yul\":17311:17358   */\n      mstore\n        /* \"#utility.yul\":17375:17506   */\n      tag_299\n        /* \"#utility.yul\":17501:17505   */\n      dup2\n        /* \"#utility.yul\":17375:17506   */\n      tag_129\n      jump\t// in\n    tag_299:\n        /* \"#utility.yul\":17367:17506   */\n      swap1\n      pop\n        /* \"#utility.yul\":17094:17513   */\n      swap2\n      swap1\n      pop\n      jump\t// out\n        /* \"#utility.yul\":17519:17699   */\n    tag_54:\n        /* \"#utility.yul\":17567:17644   */\n      0x4e487b7100000000000000000000000000000000000000000000000000000000\n        /* \"#utility.yul\":17564:17565   */\n      0x00\n        /* \"#utility.yul\":17557:17645   */\n      mstore\n        /* \"#utility.yul\":17664:17668   */\n      0x32\n        /* \"#utility.yul\":17661:17662   */\n      0x04\n        /* \"#utility.yul\":17654:17669   */\n      mstore\n        /* \"#utility.yul\":17688:17692   */\n      0x24\n        /* \"#utility.yul\":17685:17686   */\n      0x00\n        /* \"#utility.yul\":17678:17693   */\n      revert\n\n    auxdata: 0xa26469706673582212200d5841c8fe653ec056272793570ee513a6ed1f3609111e8998a2e74728901ac064736f6c634300081a0033\n}\n",
				"bytecode": {
					"linkReferences": {},
					"object": "6080604052348015600e575f80fd5b50610ff88061001c5f395ff3fe608060405234801561000f575f80fd5b506004361061004a575f3560e01c806312e7ee1c1461004e57806320f7e65c1461007e5780637c9cd2bc1461009a578063ed9bb8d7146100b6575b5f80fd5b61006860048036038101906100639190610781565b6100e6565b604051610075919061095e565b60405180910390f35b61009860048036038101906100939190610781565b610276565b005b6100b460048036038101906100af9190610aaa565b6102c0565b005b6100d060048036038101906100cb9190610b1b565b61041b565b6040516100dd9190610ba6565b60405180910390f35b60605f808373ffffffffffffffffffffffffffffffffffffffff1673ffffffffffffffffffffffffffffffffffffffff1681526020019081526020015f20805480602002602001604051908101604052809291908181526020015f905b8282101561026b578382905f5260205f2090600402016040518060800160405290815f82015f9054906101000a900473ffffffffffffffffffffffffffffffffffffffff1673ffffffffffffffffffffffffffffffffffffffff1673ffffffffffffffffffffffffffffffffffffffff1681526020016001820180546101c890610bf3565b80601f01602080910402602001604051908101604052809291908181526020018280546101f490610bf3565b801561023f5780601f106102165761010080835404028352916020019161023f565b820191905f5260205f20905b81548152906001019060200180831161022257829003601f168201915b505050505081526020016002820154815260200160038201548152505081526020019060010190610143565b505050509050919050565b5f808273ffffffffffffffffffffffffffffffffffffffff1673ffffffffffffffffffffffffffffffffffffffff1681526020019081526020015f205f6102bd9190610609565b50565b61011861ffff168151111561030a576040517f08c379a000000000000000000000000000000000000000000000000000000000815260040161030190610ca3565b60405180910390fd5b5f60405180608001604052803373ffffffffffffffffffffffffffffffffffffffff1681526020018381526020014281526020015f81525090505f803373ffffffffffffffffffffffffffffffffffffffff1673ffffffffffffffffffffffffffffffffffffffff1681526020019081526020015f2081908060018154018082558091505060019003905f5260205f2090600402015f909190919091505f820151815f015f6101000a81548173ffffffffffffffffffffffffffffffffffffffff021916908373ffffffffffffffffffffffffffffffffffffffff16021790555060208201518160010190816104009190610e5e565b50604082015181600201556060820151816003015550505050565b61042361062a565b5f803373ffffffffffffffffffffffffffffffffffffffff1673ffffffffffffffffffffffffffffffffffffffff1681526020019081526020015f20805490508211156104a5576040517f08c379a000000000000000000000000000000000000000000000000000000000815260040161049c90610f77565b60405180910390fd5b5f803373ffffffffffffffffffffffffffffffffffffffff1673ffffffffffffffffffffffffffffffffffffffff1681526020019081526020015f2082815481106104f3576104f2610f95565b5b905f5260205f2090600402016040518060800160405290815f82015f9054906101000a900473ffffffffffffffffffffffffffffffffffffffff1673ffffffffffffffffffffffffffffffffffffffff1673ffffffffffffffffffffffffffffffffffffffff16815260200160018201805461056e90610bf3565b80601f016020809104026020016040519081016040528092919081815260200182805461059a90610bf3565b80156105e55780601f106105bc576101008083540402835291602001916105e5565b820191905f5260205f20905b8154815290600101906020018083116105c857829003601f168201915b50505050508152602001600282015481526020016003820154815250509050919050565b5080545f8255600402905f5260205f20908101906106279190610665565b50565b60405180608001604052805f73ffffffffffffffffffffffffffffffffffffffff168152602001606081526020015f81526020015f81525090565b5b808211156106ba575f8082015f6101000a81549073ffffffffffffffffffffffffffffffffffffffff0219169055600182015f6106a391906106be565b600282015f9055600382015f905550600401610666565b5090565b5080546106ca90610bf3565b5f825580601f106106db57506106f8565b601f0160209004905f5260205f20908101906106f791906106fb565b5b50565b5b80821115610712575f815f9055506001016106fc565b5090565b5f604051905090565b5f80fd5b5f80fd5b5f73ffffffffffffffffffffffffffffffffffffffff82169050919050565b5f61075082610727565b9050919050565b61076081610746565b811461076a575f80fd5b50565b5f8135905061077b81610757565b92915050565b5f602082840312156107965761079561071f565b5b5f6107a38482850161076d565b91505092915050565b5f81519050919050565b5f82825260208201905092915050565b5f819050602082019050919050565b6107de81610746565b82525050565b5f81519050919050565b5f82825260208201905092915050565b8281835e5f83830152505050565b5f601f19601f8301169050919050565b5f610826826107e4565b61083081856107ee565b93506108408185602086016107fe565b6108498161080c565b840191505092915050565b5f819050919050565b61086681610854565b82525050565b5f608083015f8301516108815f8601826107d5565b5060208301518482036020860152610899828261081c565b91505060408301516108ae604086018261085d565b5060608301516108c1606086018261085d565b508091505092915050565b5f6108d7838361086c565b905092915050565b5f602082019050919050565b5f6108f5826107ac565b6108ff81856107b6565b935083602082028501610911856107c6565b805f5b8581101561094c578484038952815161092d85826108cc565b9450610938836108df565b925060208a01995050600181019050610914565b50829750879550505050505092915050565b5f6020820190508181035f83015261097681846108eb565b905092915050565b5f80fd5b5f80fd5b7f4e487b71000000000000000000000000000000000000000000000000000000005f52604160045260245ffd5b6109bc8261080c565b810181811067ffffffffffffffff821117156109db576109da610986565b5b80604052505050565b5f6109ed610716565b90506109f982826109b3565b919050565b5f67ffffffffffffffff821115610a1857610a17610986565b5b610a218261080c565b9050602081019050919050565b828183375f83830152505050565b5f610a4e610a49846109fe565b6109e4565b905082815260208101848484011115610a6a57610a69610982565b5b610a75848285610a2e565b509392505050565b5f82601f830112610a9157610a9061097e565b5b8135610aa1848260208601610a3c565b91505092915050565b5f60208284031215610abf57610abe61071f565b5b5f82013567ffffffffffffffff811115610adc57610adb610723565b5b610ae884828501610a7d565b91505092915050565b610afa81610854565b8114610b04575f80fd5b50565b5f81359050610b1581610af1565b92915050565b5f60208284031215610b3057610b2f61071f565b5b5f610b3d84828501610b07565b91505092915050565b5f608083015f830151610b5b5f8601826107d5565b5060208301518482036020860152610b73828261081c565b9150506040830151610b88604086018261085d565b506060830151610b9b606086018261085d565b508091505092915050565b5f6020820190508181035f830152610bbe8184610b46565b905092915050565b7f4e487b71000000000000000000000000000000000000000000000000000000005f52602260045260245ffd5b5f6002820490506001821680610c0a57607f821691505b602082108103610c1d57610c1c610bc6565b5b50919050565b5f82825260208201905092915050565b7f547765657420697320746f206c6f6e672c206d617820323830206368617261635f8201527f7465727300000000000000000000000000000000000000000000000000000000602082015250565b5f610c8d602483610c23565b9150610c9882610c33565b604082019050919050565b5f6020820190508181035f830152610cba81610c81565b9050919050565b5f819050815f5260205f209050919050565b5f6020601f8301049050919050565b5f82821b905092915050565b5f60088302610d1d7fffffffffffffffffffffffffffffffffffffffffffffffffffffffffffffffff82610ce2565b610d278683610ce2565b95508019841693508086168417925050509392505050565b5f819050919050565b5f610d62610d5d610d5884610854565b610d3f565b610854565b9050919050565b5f819050919050565b610d7b83610d48565b610d8f610d8782610d69565b848454610cee565b825550505050565b5f90565b610da3610d97565b610dae818484610d72565b505050565b5b81811015610dd157610dc65f82610d9b565b600181019050610db4565b5050565b601f821115610e1657610de781610cc1565b610df084610cd3565b81016020851015610dff578190505b610e13610e0b85610cd3565b830182610db3565b50505b505050565b5f82821c905092915050565b5f610e365f1984600802610e1b565b1980831691505092915050565b5f610e4e8383610e27565b9150826002028217905092915050565b610e67826107e4565b67ffffffffffffffff811115610e8057610e7f610986565b5b610e8a8254610bf3565b610e95828285610dd5565b5f60209050601f831160018114610ec6575f8415610eb4578287015190505b610ebe8582610e43565b865550610f25565b601f198416610ed486610cc1565b5f5b82811015610efb57848901518255600182019150602085019450602081019050610ed6565b86831015610f185784890151610f14601f891682610e27565b8355505b6001600288020188555050505b505050505050565b7f496e76616c696420747765657420696e646578000000000000000000000000005f82015250565b5f610f61601383610c23565b9150610f6c82610f2d565b602082019050919050565b5f6020820190508181035f830152610f8e81610f55565b9050919050565b7f4e487b71000000000000000000000000000000000000000000000000000000005f52603260045260245ffdfea26469706673582212200d5841c8fe653ec056272793570ee513a6ed1f3609111e8998a2e74728901ac064736f6c634300081a0033",
					"opcodes": "PUSH1 0x80 PUSH1 0x40 MSTORE CALLVALUE DUP1 ISZERO PUSH1 0xE JUMPI PUSH0 DUP1 REVERT JUMPDEST POP PUSH2 0xFF8 DUP1 PUSH2 0x1C PUSH0 CODECOPY PUSH0 RETURN INVALID PUSH1 0x80 PUSH1 0x40 MSTORE CALLVALUE DUP1 ISZERO PUSH2 0xF JUMPI PUSH0 DUP1 REVERT JUMPDEST POP PUSH1 0x4 CALLDATASIZE LT PUSH2 0x4A JUMPI PUSH0 CALLDATALOAD PUSH1 0xE0 SHR DUP1 PUSH4 0x12E7EE1C EQ PUSH2 0x4E JUMPI DUP1 PUSH4 0x20F7E65C EQ PUSH2 0x7E JUMPI DUP1 PUSH4 0x7C9CD2BC EQ PUSH2 0x9A JUMPI DUP1 PUSH4 0xED9BB8D7 EQ PUSH2 0xB6 JUMPI JUMPDEST PUSH0 DUP1 REVERT JUMPDEST PUSH2 0x68 PUSH1 0x4 DUP1 CALLDATASIZE SUB DUP2 ADD SWAP1 PUSH2 0x63 SWAP2 SWAP1 PUSH2 0x781 JUMP JUMPDEST PUSH2 0xE6 JUMP JUMPDEST PUSH1 0x40 MLOAD PUSH2 0x75 SWAP2 SWAP1 PUSH2 0x95E JUMP JUMPDEST PUSH1 0x40 MLOAD DUP1 SWAP2 SUB SWAP1 RETURN JUMPDEST PUSH2 0x98 PUSH1 0x4 DUP1 CALLDATASIZE SUB DUP2 ADD SWAP1 PUSH2 0x93 SWAP2 SWAP1 PUSH2 0x781 JUMP JUMPDEST PUSH2 0x276 JUMP JUMPDEST STOP JUMPDEST PUSH2 0xB4 PUSH1 0x4 DUP1 CALLDATASIZE SUB DUP2 ADD SWAP1 PUSH2 0xAF SWAP2 SWAP1 PUSH2 0xAAA JUMP JUMPDEST PUSH2 0x2C0 JUMP JUMPDEST STOP JUMPDEST PUSH2 0xD0 PUSH1 0x4 DUP1 CALLDATASIZE SUB DUP2 ADD SWAP1 PUSH2 0xCB SWAP2 SWAP1 PUSH2 0xB1B JUMP JUMPDEST PUSH2 0x41B JUMP JUMPDEST PUSH1 0x40 MLOAD PUSH2 0xDD SWAP2 SWAP1 PUSH2 0xBA6 JUMP JUMPDEST PUSH1 0x40 MLOAD DUP1 SWAP2 SUB SWAP1 RETURN JUMPDEST PUSH1 0x60 PUSH0 DUP1 DUP4 PUSH20 0xFFFFFFFFFFFFFFFFFFFFFFFFFFFFFFFFFFFFFFFF AND PUSH20 0xFFFFFFFFFFFFFFFFFFFFFFFFFFFFFFFFFFFFFFFF AND DUP2 MSTORE PUSH1 0x20 ADD SWAP1 DUP2 MSTORE PUSH1 0x20 ADD PUSH0 KECCAK256 DUP1 SLOAD DUP1 PUSH1 0x20 MUL PUSH1 0x20 ADD PUSH1 0x40 MLOAD SWAP1 DUP2 ADD PUSH1 0x40 MSTORE DUP1 SWAP3 SWAP2 SWAP1 DUP2 DUP2 MSTORE PUSH1 0x20 ADD PUSH0 SWAP1 JUMPDEST DUP3 DUP3 LT ISZERO PUSH2 0x26B JUMPI DUP4 DUP3 SWAP1 PUSH0 MSTORE PUSH1 0x20 PUSH0 KECCAK256 SWAP1 PUSH1 0x4 MUL ADD PUSH1 0x40 MLOAD DUP1 PUSH1 0x80 ADD PUSH1 0x40 MSTORE SWAP1 DUP2 PUSH0 DUP3 ADD PUSH0 SWAP1 SLOAD SWAP1 PUSH2 0x100 EXP SWAP1 DIV PUSH20 0xFFFFFFFFFFFFFFFFFFFFFFFFFFFFFFFFFFFFFFFF AND PUSH20 0xFFFFFFFFFFFFFFFFFFFFFFFFFFFFFFFFFFFFFFFF AND PUSH20 0xFFFFFFFFFFFFFFFFFFFFFFFFFFFFFFFFFFFFFFFF AND DUP2 MSTORE PUSH1 0x20 ADD PUSH1 0x1 DUP3 ADD DUP1 SLOAD PUSH2 0x1C8 SWAP1 PUSH2 0xBF3 JUMP JUMPDEST DUP1 PUSH1 0x1F ADD PUSH1 0x20 DUP1 SWAP2 DIV MUL PUSH1 0x20 ADD PUSH1 0x40 MLOAD SWAP1 DUP2 ADD PUSH1 0x40 MSTORE DUP1 SWAP3 SWAP2 SWAP1 DUP2 DUP2 MSTORE PUSH1 0x20 ADD DUP3 DUP1 SLOAD PUSH2 0x1F4 SWAP1 PUSH2 0xBF3 JUMP JUMPDEST DUP1 ISZERO PUSH2 0x23F JUMPI DUP1 PUSH1 0x1F LT PUSH2 0x216 JUMPI PUSH2 0x100 DUP1 DUP4 SLOAD DIV MUL DUP4 MSTORE SWAP2 PUSH1 0x20 ADD SWAP2 PUSH2 0x23F JUMP JUMPDEST DUP3 ADD SWAP2 SWAP1 PUSH0 MSTORE PUSH1 0x20 PUSH0 KECCAK256 SWAP1 JUMPDEST DUP2 SLOAD DUP2 MSTORE SWAP1 PUSH1 0x1 ADD SWAP1 PUSH1 0x20 ADD DUP1 DUP4 GT PUSH2 0x222 JUMPI DUP3 SWAP1 SUB PUSH1 0x1F AND DUP3 ADD SWAP2 JUMPDEST POP POP POP POP POP DUP2 MSTORE PUSH1 0x20 ADD PUSH1 0x2 DUP3 ADD SLOAD DUP2 MSTORE PUSH1 0x20 ADD PUSH1 0x3 DUP3 ADD SLOAD DUP2 MSTORE POP POP DUP2 MSTORE PUSH1 0x20 ADD SWAP1 PUSH1 0x1 ADD SWAP1 PUSH2 0x143 JUMP JUMPDEST POP POP POP POP SWAP1 POP SWAP2 SWAP1 POP JUMP JUMPDEST PUSH0 DUP1 DUP3 PUSH20 0xFFFFFFFFFFFFFFFFFFFFFFFFFFFFFFFFFFFFFFFF AND PUSH20 0xFFFFFFFFFFFFFFFFFFFFFFFFFFFFFFFFFFFFFFFF AND DUP2 MSTORE PUSH1 0x20 ADD SWAP1 DUP2 MSTORE PUSH1 0x20 ADD PUSH0 KECCAK256 PUSH0 PUSH2 0x2BD SWAP2 SWAP1 PUSH2 0x609 JUMP JUMPDEST POP JUMP JUMPDEST PUSH2 0x118 PUSH2 0xFFFF AND DUP2 MLOAD GT ISZERO PUSH2 0x30A JUMPI PUSH1 0x40 MLOAD PUSH32 0x8C379A000000000000000000000000000000000000000000000000000000000 DUP2 MSTORE PUSH1 0x4 ADD PUSH2 0x301 SWAP1 PUSH2 0xCA3 JUMP JUMPDEST PUSH1 0x40 MLOAD DUP1 SWAP2 SUB SWAP1 REVERT JUMPDEST PUSH0 PUSH1 0x40 MLOAD DUP1 PUSH1 0x80 ADD PUSH1 0x40 MSTORE DUP1 CALLER PUSH20 0xFFFFFFFFFFFFFFFFFFFFFFFFFFFFFFFFFFFFFFFF AND DUP2 MSTORE PUSH1 0x20 ADD DUP4 DUP2 MSTORE PUSH1 0x20 ADD TIMESTAMP DUP2 MSTORE PUSH1 0x20 ADD PUSH0 DUP2 MSTORE POP SWAP1 POP PUSH0 DUP1 CALLER PUSH20 0xFFFFFFFFFFFFFFFFFFFFFFFFFFFFFFFFFFFFFFFF AND PUSH20 0xFFFFFFFFFFFFFFFFFFFFFFFFFFFFFFFFFFFFFFFF AND DUP2 MSTORE PUSH1 0x20 ADD SWAP1 DUP2 MSTORE PUSH1 0x20 ADD PUSH0 KECCAK256 DUP2 SWAP1 DUP1 PUSH1 0x1 DUP2 SLOAD ADD DUP1 DUP3 SSTORE DUP1 SWAP2 POP POP PUSH1 0x1 SWAP1 SUB SWAP1 PUSH0 MSTORE PUSH1 0x20 PUSH0 KECCAK256 SWAP1 PUSH1 0x4 MUL ADD PUSH0 SWAP1 SWAP2 SWAP1 SWAP2 SWAP1 SWAP2 POP PUSH0 DUP3 ADD MLOAD DUP2 PUSH0 ADD PUSH0 PUSH2 0x100 EXP DUP2 SLOAD DUP2 PUSH20 0xFFFFFFFFFFFFFFFFFFFFFFFFFFFFFFFFFFFFFFFF MUL NOT AND SWAP1 DUP4 PUSH20 0xFFFFFFFFFFFFFFFFFFFFFFFFFFFFFFFFFFFFFFFF AND MUL OR SWAP1 SSTORE POP PUSH1 0x20 DUP3 ADD MLOAD DUP2 PUSH1 0x1 ADD SWAP1 DUP2 PUSH2 0x400 SWAP2 SWAP1 PUSH2 0xE5E JUMP JUMPDEST POP PUSH1 0x40 DUP3 ADD MLOAD DUP2 PUSH1 0x2 ADD SSTORE PUSH1 0x60 DUP3 ADD MLOAD DUP2 PUSH1 0x3 ADD SSTORE POP POP POP POP JUMP JUMPDEST PUSH2 0x423 PUSH2 0x62A JUMP JUMPDEST PUSH0 DUP1 CALLER PUSH20 0xFFFFFFFFFFFFFFFFFFFFFFFFFFFFFFFFFFFFFFFF AND PUSH20 0xFFFFFFFFFFFFFFFFFFFFFFFFFFFFFFFFFFFFFFFF AND DUP2 MSTORE PUSH1 0x20 ADD SWAP1 DUP2 MSTORE PUSH1 0x20 ADD PUSH0 KECCAK256 DUP1 SLOAD SWAP1 POP DUP3 GT ISZERO PUSH2 0x4A5 JUMPI PUSH1 0x40 MLOAD PUSH32 0x8C379A000000000000000000000000000000000000000000000000000000000 DUP2 MSTORE PUSH1 0x4 ADD PUSH2 0x49C SWAP1 PUSH2 0xF77 JUMP JUMPDEST PUSH1 0x40 MLOAD DUP1 SWAP2 SUB SWAP1 REVERT JUMPDEST PUSH0 DUP1 CALLER PUSH20 0xFFFFFFFFFFFFFFFFFFFFFFFFFFFFFFFFFFFFFFFF AND PUSH20 0xFFFFFFFFFFFFFFFFFFFFFFFFFFFFFFFFFFFFFFFF AND DUP2 MSTORE PUSH1 0x20 ADD SWAP1 DUP2 MSTORE PUSH1 0x20 ADD PUSH0 KECCAK256 DUP3 DUP2 SLOAD DUP2 LT PUSH2 0x4F3 JUMPI PUSH2 0x4F2 PUSH2 0xF95 JUMP JUMPDEST JUMPDEST SWAP1 PUSH0 MSTORE PUSH1 0x20 PUSH0 KECCAK256 SWAP1 PUSH1 0x4 MUL ADD PUSH1 0x40 MLOAD DUP1 PUSH1 0x80 ADD PUSH1 0x40 MSTORE SWAP1 DUP2 PUSH0 DUP3 ADD PUSH0 SWAP1 SLOAD SWAP1 PUSH2 0x100 EXP SWAP1 DIV PUSH20 0xFFFFFFFFFFFFFFFFFFFFFFFFFFFFFFFFFFFFFFFF AND PUSH20 0xFFFFFFFFFFFFFFFFFFFFFFFFFFFFFFFFFFFFFFFF AND PUSH20 0xFFFFFFFFFFFFFFFFFFFFFFFFFFFFFFFFFFFFFFFF AND DUP2 MSTORE PUSH1 0x20 ADD PUSH1 0x1 DUP3 ADD DUP1 SLOAD PUSH2 0x56E SWAP1 PUSH2 0xBF3 JUMP JUMPDEST DUP1 PUSH1 0x1F ADD PUSH1 0x20 DUP1 SWAP2 DIV MUL PUSH1 0x20 ADD PUSH1 0x40 MLOAD SWAP1 DUP2 ADD PUSH1 0x40 MSTORE DUP1 SWAP3 SWAP2 SWAP1 DUP2 DUP2 MSTORE PUSH1 0x20 ADD DUP3 DUP1 SLOAD PUSH2 0x59A SWAP1 PUSH2 0xBF3 JUMP JUMPDEST DUP1 ISZERO PUSH2 0x5E5 JUMPI DUP1 PUSH1 0x1F LT PUSH2 0x5BC JUMPI PUSH2 0x100 DUP1 DUP4 SLOAD DIV MUL DUP4 MSTORE SWAP2 PUSH1 0x20 ADD SWAP2 PUSH2 0x5E5 JUMP JUMPDEST DUP3 ADD SWAP2 SWAP1 PUSH0 MSTORE PUSH1 0x20 PUSH0 KECCAK256 SWAP1 JUMPDEST DUP2 SLOAD DUP2 MSTORE SWAP1 PUSH1 0x1 ADD SWAP1 PUSH1 0x20 ADD DUP1 DUP4 GT PUSH2 0x5C8 JUMPI DUP3 SWAP1 SUB PUSH1 0x1F AND DUP3 ADD SWAP2 JUMPDEST POP POP POP POP POP DUP2 MSTORE PUSH1 0x20 ADD PUSH1 0x2 DUP3 ADD SLOAD DUP2 MSTORE PUSH1 0x20 ADD PUSH1 0x3 DUP3 ADD SLOAD DUP2 MSTORE POP POP SWAP1 POP SWAP2 SWAP1 POP JUMP JUMPDEST POP DUP1 SLOAD PUSH0 DUP3 SSTORE PUSH1 0x4 MUL SWAP1 PUSH0 MSTORE PUSH1 0x20 PUSH0 KECCAK256 SWAP1 DUP2 ADD SWAP1 PUSH2 0x627 SWAP2 SWAP1 PUSH2 0x665 JUMP JUMPDEST POP JUMP JUMPDEST PUSH1 0x40 MLOAD DUP1 PUSH1 0x80 ADD PUSH1 0x40 MSTORE DUP1 PUSH0 PUSH20 0xFFFFFFFFFFFFFFFFFFFFFFFFFFFFFFFFFFFFFFFF AND DUP2 MSTORE PUSH1 0x20 ADD PUSH1 0x60 DUP2 MSTORE PUSH1 0x20 ADD PUSH0 DUP2 MSTORE PUSH1 0x20 ADD PUSH0 DUP2 MSTORE POP SWAP1 JUMP JUMPDEST JUMPDEST DUP1 DUP3 GT ISZERO PUSH2 0x6BA JUMPI PUSH0 DUP1 DUP3 ADD PUSH0 PUSH2 0x100 EXP DUP2 SLOAD SWAP1 PUSH20 0xFFFFFFFFFFFFFFFFFFFFFFFFFFFFFFFFFFFFFFFF MUL NOT AND SWAP1 SSTORE PUSH1 0x1 DUP3 ADD PUSH0 PUSH2 0x6A3 SWAP2 SWAP1 PUSH2 0x6BE JUMP JUMPDEST PUSH1 0x2 DUP3 ADD PUSH0 SWAP1 SSTORE PUSH1 0x3 DUP3 ADD PUSH0 SWAP1 SSTORE POP PUSH1 0x4 ADD PUSH2 0x666 JUMP JUMPDEST POP SWAP1 JUMP JUMPDEST POP DUP1 SLOAD PUSH2 0x6CA SWAP1 PUSH2 0xBF3 JUMP JUMPDEST PUSH0 DUP3 SSTORE DUP1 PUSH1 0x1F LT PUSH2 0x6DB JUMPI POP PUSH2 0x6F8 JUMP JUMPDEST PUSH1 0x1F ADD PUSH1 0x20 SWAP1 DIV SWAP1 PUSH0 MSTORE PUSH1 0x20 PUSH0 KECCAK256 SWAP1 DUP2 ADD SWAP1 PUSH2 0x6F7 SWAP2 SWAP1 PUSH2 0x6FB JUMP JUMPDEST JUMPDEST POP JUMP JUMPDEST JUMPDEST DUP1 DUP3 GT ISZERO PUSH2 0x712 JUMPI PUSH0 DUP2 PUSH0 SWAP1 SSTORE POP PUSH1 0x1 ADD PUSH2 0x6FC JUMP JUMPDEST POP SWAP1 JUMP JUMPDEST PUSH0 PUSH1 0x40 MLOAD SWAP1 POP SWAP1 JUMP JUMPDEST PUSH0 DUP1 REVERT JUMPDEST PUSH0 DUP1 REVERT JUMPDEST PUSH0 PUSH20 0xFFFFFFFFFFFFFFFFFFFFFFFFFFFFFFFFFFFFFFFF DUP3 AND SWAP1 POP SWAP2 SWAP1 POP JUMP JUMPDEST PUSH0 PUSH2 0x750 DUP3 PUSH2 0x727 JUMP JUMPDEST SWAP1 POP SWAP2 SWAP1 POP JUMP JUMPDEST PUSH2 0x760 DUP2 PUSH2 0x746 JUMP JUMPDEST DUP2 EQ PUSH2 0x76A JUMPI PUSH0 DUP1 REVERT JUMPDEST POP JUMP JUMPDEST PUSH0 DUP2 CALLDATALOAD SWAP1 POP PUSH2 0x77B DUP2 PUSH2 0x757 JUMP JUMPDEST SWAP3 SWAP2 POP POP JUMP JUMPDEST PUSH0 PUSH1 0x20 DUP3 DUP5 SUB SLT ISZERO PUSH2 0x796 JUMPI PUSH2 0x795 PUSH2 0x71F JUMP JUMPDEST JUMPDEST PUSH0 PUSH2 0x7A3 DUP5 DUP3 DUP6 ADD PUSH2 0x76D JUMP JUMPDEST SWAP2 POP POP SWAP3 SWAP2 POP POP JUMP JUMPDEST PUSH0 DUP2 MLOAD SWAP1 POP SWAP2 SWAP1 POP JUMP JUMPDEST PUSH0 DUP3 DUP3 MSTORE PUSH1 0x20 DUP3 ADD SWAP1 POP SWAP3 SWAP2 POP POP JUMP JUMPDEST PUSH0 DUP2 SWAP1 POP PUSH1 0x20 DUP3 ADD SWAP1 POP SWAP2 SWAP1 POP JUMP JUMPDEST PUSH2 0x7DE DUP2 PUSH2 0x746 JUMP JUMPDEST DUP3 MSTORE POP POP JUMP JUMPDEST PUSH0 DUP2 MLOAD SWAP1 POP SWAP2 SWAP1 POP JUMP JUMPDEST PUSH0 DUP3 DUP3 MSTORE PUSH1 0x20 DUP3 ADD SWAP1 POP SWAP3 SWAP2 POP POP JUMP JUMPDEST DUP3 DUP2 DUP4 MCOPY PUSH0 DUP4 DUP4 ADD MSTORE POP POP POP JUMP JUMPDEST PUSH0 PUSH1 0x1F NOT PUSH1 0x1F DUP4 ADD AND SWAP1 POP SWAP2 SWAP1 POP JUMP JUMPDEST PUSH0 PUSH2 0x826 DUP3 PUSH2 0x7E4 JUMP JUMPDEST PUSH2 0x830 DUP2 DUP6 PUSH2 0x7EE JUMP JUMPDEST SWAP4 POP PUSH2 0x840 DUP2 DUP6 PUSH1 0x20 DUP7 ADD PUSH2 0x7FE JUMP JUMPDEST PUSH2 0x849 DUP2 PUSH2 0x80C JUMP JUMPDEST DUP5 ADD SWAP2 POP POP SWAP3 SWAP2 POP POP JUMP JUMPDEST PUSH0 DUP2 SWAP1 POP SWAP2 SWAP1 POP JUMP JUMPDEST PUSH2 0x866 DUP2 PUSH2 0x854 JUMP JUMPDEST DUP3 MSTORE POP POP JUMP JUMPDEST PUSH0 PUSH1 0x80 DUP4 ADD PUSH0 DUP4 ADD MLOAD PUSH2 0x881 PUSH0 DUP7 ADD DUP3 PUSH2 0x7D5 JUMP JUMPDEST POP PUSH1 0x20 DUP4 ADD MLOAD DUP5 DUP3 SUB PUSH1 0x20 DUP7 ADD MSTORE PUSH2 0x899 DUP3 DUP3 PUSH2 0x81C JUMP JUMPDEST SWAP2 POP POP PUSH1 0x40 DUP4 ADD MLOAD PUSH2 0x8AE PUSH1 0x40 DUP7 ADD DUP3 PUSH2 0x85D JUMP JUMPDEST POP PUSH1 0x60 DUP4 ADD MLOAD PUSH2 0x8C1 PUSH1 0x60 DUP7 ADD DUP3 PUSH2 0x85D JUMP JUMPDEST POP DUP1 SWAP2 POP POP SWAP3 SWAP2 POP POP JUMP JUMPDEST PUSH0 PUSH2 0x8D7 DUP4 DUP4 PUSH2 0x86C JUMP JUMPDEST SWAP1 POP SWAP3 SWAP2 POP POP JUMP JUMPDEST PUSH0 PUSH1 0x20 DUP3 ADD SWAP1 POP SWAP2 SWAP1 POP JUMP JUMPDEST PUSH0 PUSH2 0x8F5 DUP3 PUSH2 0x7AC JUMP JUMPDEST PUSH2 0x8FF DUP2 DUP6 PUSH2 0x7B6 JUMP JUMPDEST SWAP4 POP DUP4 PUSH1 0x20 DUP3 MUL DUP6 ADD PUSH2 0x911 DUP6 PUSH2 0x7C6 JUMP JUMPDEST DUP1 PUSH0 JUMPDEST DUP6 DUP2 LT ISZERO PUSH2 0x94C JUMPI DUP5 DUP5 SUB DUP10 MSTORE DUP2 MLOAD PUSH2 0x92D DUP6 DUP3 PUSH2 0x8CC JUMP JUMPDEST SWAP5 POP PUSH2 0x938 DUP4 PUSH2 0x8DF JUMP JUMPDEST SWAP3 POP PUSH1 0x20 DUP11 ADD SWAP10 POP POP PUSH1 0x1 DUP2 ADD SWAP1 POP PUSH2 0x914 JUMP JUMPDEST POP DUP3 SWAP8 POP DUP8 SWAP6 POP POP POP POP POP POP SWAP3 SWAP2 POP POP JUMP JUMPDEST PUSH0 PUSH1 0x20 DUP3 ADD SWAP1 POP DUP2 DUP2 SUB PUSH0 DUP4 ADD MSTORE PUSH2 0x976 DUP2 DUP5 PUSH2 0x8EB JUMP JUMPDEST SWAP1 POP SWAP3 SWAP2 POP POP JUMP JUMPDEST PUSH0 DUP1 REVERT JUMPDEST PUSH0 DUP1 REVERT JUMPDEST PUSH32 0x4E487B7100000000000000000000000000000000000000000000000000000000 PUSH0 MSTORE PUSH1 0x41 PUSH1 0x4 MSTORE PUSH1 0x24 PUSH0 REVERT JUMPDEST PUSH2 0x9BC DUP3 PUSH2 0x80C JUMP JUMPDEST DUP2 ADD DUP2 DUP2 LT PUSH8 0xFFFFFFFFFFFFFFFF DUP3 GT OR ISZERO PUSH2 0x9DB JUMPI PUSH2 0x9DA PUSH2 0x986 JUMP JUMPDEST JUMPDEST DUP1 PUSH1 0x40 MSTORE POP POP POP JUMP JUMPDEST PUSH0 PUSH2 0x9ED PUSH2 0x716 JUMP JUMPDEST SWAP1 POP PUSH2 0x9F9 DUP3 DUP3 PUSH2 0x9B3 JUMP JUMPDEST SWAP2 SWAP1 POP JUMP JUMPDEST PUSH0 PUSH8 0xFFFFFFFFFFFFFFFF DUP3 GT ISZERO PUSH2 0xA18 JUMPI PUSH2 0xA17 PUSH2 0x986 JUMP JUMPDEST JUMPDEST PUSH2 0xA21 DUP3 PUSH2 0x80C JUMP JUMPDEST SWAP1 POP PUSH1 0x20 DUP2 ADD SWAP1 POP SWAP2 SWAP1 POP JUMP JUMPDEST DUP3 DUP2 DUP4 CALLDATACOPY PUSH0 DUP4 DUP4 ADD MSTORE POP POP POP JUMP JUMPDEST PUSH0 PUSH2 0xA4E PUSH2 0xA49 DUP5 PUSH2 0x9FE JUMP JUMPDEST PUSH2 0x9E4 JUMP JUMPDEST SWAP1 POP DUP3 DUP2 MSTORE PUSH1 0x20 DUP2 ADD DUP5 DUP5 DUP5 ADD GT ISZERO PUSH2 0xA6A JUMPI PUSH2 0xA69 PUSH2 0x982 JUMP JUMPDEST JUMPDEST PUSH2 0xA75 DUP5 DUP3 DUP6 PUSH2 0xA2E JUMP JUMPDEST POP SWAP4 SWAP3 POP POP POP JUMP JUMPDEST PUSH0 DUP3 PUSH1 0x1F DUP4 ADD SLT PUSH2 0xA91 JUMPI PUSH2 0xA90 PUSH2 0x97E JUMP JUMPDEST JUMPDEST DUP2 CALLDATALOAD PUSH2 0xAA1 DUP5 DUP3 PUSH1 0x20 DUP7 ADD PUSH2 0xA3C JUMP JUMPDEST SWAP2 POP POP SWAP3 SWAP2 POP POP JUMP JUMPDEST PUSH0 PUSH1 0x20 DUP3 DUP5 SUB SLT ISZERO PUSH2 0xABF JUMPI PUSH2 0xABE PUSH2 0x71F JUMP JUMPDEST JUMPDEST PUSH0 DUP3 ADD CALLDATALOAD PUSH8 0xFFFFFFFFFFFFFFFF DUP2 GT ISZERO PUSH2 0xADC JUMPI PUSH2 0xADB PUSH2 0x723 JUMP JUMPDEST JUMPDEST PUSH2 0xAE8 DUP5 DUP3 DUP6 ADD PUSH2 0xA7D JUMP JUMPDEST SWAP2 POP POP SWAP3 SWAP2 POP POP JUMP JUMPDEST PUSH2 0xAFA DUP2 PUSH2 0x854 JUMP JUMPDEST DUP2 EQ PUSH2 0xB04 JUMPI PUSH0 DUP1 REVERT JUMPDEST POP JUMP JUMPDEST PUSH0 DUP2 CALLDATALOAD SWAP1 POP PUSH2 0xB15 DUP2 PUSH2 0xAF1 JUMP JUMPDEST SWAP3 SWAP2 POP POP JUMP JUMPDEST PUSH0 PUSH1 0x20 DUP3 DUP5 SUB SLT ISZERO PUSH2 0xB30 JUMPI PUSH2 0xB2F PUSH2 0x71F JUMP JUMPDEST JUMPDEST PUSH0 PUSH2 0xB3D DUP5 DUP3 DUP6 ADD PUSH2 0xB07 JUMP JUMPDEST SWAP2 POP POP SWAP3 SWAP2 POP POP JUMP JUMPDEST PUSH0 PUSH1 0x80 DUP4 ADD PUSH0 DUP4 ADD MLOAD PUSH2 0xB5B PUSH0 DUP7 ADD DUP3 PUSH2 0x7D5 JUMP JUMPDEST POP PUSH1 0x20 DUP4 ADD MLOAD DUP5 DUP3 SUB PUSH1 0x20 DUP7 ADD MSTORE PUSH2 0xB73 DUP3 DUP3 PUSH2 0x81C JUMP JUMPDEST SWAP2 POP POP PUSH1 0x40 DUP4 ADD MLOAD PUSH2 0xB88 PUSH1 0x40 DUP7 ADD DUP3 PUSH2 0x85D JUMP JUMPDEST POP PUSH1 0x60 DUP4 ADD MLOAD PUSH2 0xB9B PUSH1 0x60 DUP7 ADD DUP3 PUSH2 0x85D JUMP JUMPDEST POP DUP1 SWAP2 POP POP SWAP3 SWAP2 POP POP JUMP JUMPDEST PUSH0 PUSH1 0x20 DUP3 ADD SWAP1 POP DUP2 DUP2 SUB PUSH0 DUP4 ADD MSTORE PUSH2 0xBBE DUP2 DUP5 PUSH2 0xB46 JUMP JUMPDEST SWAP1 POP SWAP3 SWAP2 POP POP JUMP JUMPDEST PUSH32 0x4E487B7100000000000000000000000000000000000000000000000000000000 PUSH0 MSTORE PUSH1 0x22 PUSH1 0x4 MSTORE PUSH1 0x24 PUSH0 REVERT JUMPDEST PUSH0 PUSH1 0x2 DUP3 DIV SWAP1 POP PUSH1 0x1 DUP3 AND DUP1 PUSH2 0xC0A JUMPI PUSH1 0x7F DUP3 AND SWAP2 POP JUMPDEST PUSH1 0x20 DUP3 LT DUP2 SUB PUSH2 0xC1D JUMPI PUSH2 0xC1C PUSH2 0xBC6 JUMP JUMPDEST JUMPDEST POP SWAP2 SWAP1 POP JUMP JUMPDEST PUSH0 DUP3 DUP3 MSTORE PUSH1 0x20 DUP3 ADD SWAP1 POP SWAP3 SWAP2 POP POP JUMP JUMPDEST PUSH32 0x547765657420697320746F206C6F6E672C206D61782032383020636861726163 PUSH0 DUP3 ADD MSTORE PUSH32 0x7465727300000000000000000000000000000000000000000000000000000000 PUSH1 0x20 DUP3 ADD MSTORE POP JUMP JUMPDEST PUSH0 PUSH2 0xC8D PUSH1 0x24 DUP4 PUSH2 0xC23 JUMP JUMPDEST SWAP2 POP PUSH2 0xC98 DUP3 PUSH2 0xC33 JUMP JUMPDEST PUSH1 0x40 DUP3 ADD SWAP1 POP SWAP2 SWAP1 POP JUMP JUMPDEST PUSH0 PUSH1 0x20 DUP3 ADD SWAP1 POP DUP2 DUP2 SUB PUSH0 DUP4 ADD MSTORE PUSH2 0xCBA DUP2 PUSH2 0xC81 JUMP JUMPDEST SWAP1 POP SWAP2 SWAP1 POP JUMP JUMPDEST PUSH0 DUP2 SWAP1 POP DUP2 PUSH0 MSTORE PUSH1 0x20 PUSH0 KECCAK256 SWAP1 POP SWAP2 SWAP1 POP JUMP JUMPDEST PUSH0 PUSH1 0x20 PUSH1 0x1F DUP4 ADD DIV SWAP1 POP SWAP2 SWAP1 POP JUMP JUMPDEST PUSH0 DUP3 DUP3 SHL SWAP1 POP SWAP3 SWAP2 POP POP JUMP JUMPDEST PUSH0 PUSH1 0x8 DUP4 MUL PUSH2 0xD1D PUSH32 0xFFFFFFFFFFFFFFFFFFFFFFFFFFFFFFFFFFFFFFFFFFFFFFFFFFFFFFFFFFFFFFFF DUP3 PUSH2 0xCE2 JUMP JUMPDEST PUSH2 0xD27 DUP7 DUP4 PUSH2 0xCE2 JUMP JUMPDEST SWAP6 POP DUP1 NOT DUP5 AND SWAP4 POP DUP1 DUP7 AND DUP5 OR SWAP3 POP POP POP SWAP4 SWAP3 POP POP POP JUMP JUMPDEST PUSH0 DUP2 SWAP1 POP SWAP2 SWAP1 POP JUMP JUMPDEST PUSH0 PUSH2 0xD62 PUSH2 0xD5D PUSH2 0xD58 DUP5 PUSH2 0x854 JUMP JUMPDEST PUSH2 0xD3F JUMP JUMPDEST PUSH2 0x854 JUMP JUMPDEST SWAP1 POP SWAP2 SWAP1 POP JUMP JUMPDEST PUSH0 DUP2 SWAP1 POP SWAP2 SWAP1 POP JUMP JUMPDEST PUSH2 0xD7B DUP4 PUSH2 0xD48 JUMP JUMPDEST PUSH2 0xD8F PUSH2 0xD87 DUP3 PUSH2 0xD69 JUMP JUMPDEST DUP5 DUP5 SLOAD PUSH2 0xCEE JUMP JUMPDEST DUP3 SSTORE POP POP POP POP JUMP JUMPDEST PUSH0 SWAP1 JUMP JUMPDEST PUSH2 0xDA3 PUSH2 0xD97 JUMP JUMPDEST PUSH2 0xDAE DUP2 DUP5 DUP5 PUSH2 0xD72 JUMP JUMPDEST POP POP POP JUMP JUMPDEST JUMPDEST DUP2 DUP2 LT ISZERO PUSH2 0xDD1 JUMPI PUSH2 0xDC6 PUSH0 DUP3 PUSH2 0xD9B JUMP JUMPDEST PUSH1 0x1 DUP2 ADD SWAP1 POP PUSH2 0xDB4 JUMP JUMPDEST POP POP JUMP JUMPDEST PUSH1 0x1F DUP3 GT ISZERO PUSH2 0xE16 JUMPI PUSH2 0xDE7 DUP2 PUSH2 0xCC1 JUMP JUMPDEST PUSH2 0xDF0 DUP5 PUSH2 0xCD3 JUMP JUMPDEST DUP2 ADD PUSH1 0x20 DUP6 LT ISZERO PUSH2 0xDFF JUMPI DUP2 SWAP1 POP JUMPDEST PUSH2 0xE13 PUSH2 0xE0B DUP6 PUSH2 0xCD3 JUMP JUMPDEST DUP4 ADD DUP3 PUSH2 0xDB3 JUMP JUMPDEST POP POP JUMPDEST POP POP POP JUMP JUMPDEST PUSH0 DUP3 DUP3 SHR SWAP1 POP SWAP3 SWAP2 POP POP JUMP JUMPDEST PUSH0 PUSH2 0xE36 PUSH0 NOT DUP5 PUSH1 0x8 MUL PUSH2 0xE1B JUMP JUMPDEST NOT DUP1 DUP4 AND SWAP2 POP POP SWAP3 SWAP2 POP POP JUMP JUMPDEST PUSH0 PUSH2 0xE4E DUP4 DUP4 PUSH2 0xE27 JUMP JUMPDEST SWAP2 POP DUP3 PUSH1 0x2 MUL DUP3 OR SWAP1 POP SWAP3 SWAP2 POP POP JUMP JUMPDEST PUSH2 0xE67 DUP3 PUSH2 0x7E4 JUMP JUMPDEST PUSH8 0xFFFFFFFFFFFFFFFF DUP2 GT ISZERO PUSH2 0xE80 JUMPI PUSH2 0xE7F PUSH2 0x986 JUMP JUMPDEST JUMPDEST PUSH2 0xE8A DUP3 SLOAD PUSH2 0xBF3 JUMP JUMPDEST PUSH2 0xE95 DUP3 DUP3 DUP6 PUSH2 0xDD5 JUMP JUMPDEST PUSH0 PUSH1 0x20 SWAP1 POP PUSH1 0x1F DUP4 GT PUSH1 0x1 DUP2 EQ PUSH2 0xEC6 JUMPI PUSH0 DUP5 ISZERO PUSH2 0xEB4 JUMPI DUP3 DUP8 ADD MLOAD SWAP1 POP JUMPDEST PUSH2 0xEBE DUP6 DUP3 PUSH2 0xE43 JUMP JUMPDEST DUP7 SSTORE POP PUSH2 0xF25 JUMP JUMPDEST PUSH1 0x1F NOT DUP5 AND PUSH2 0xED4 DUP7 PUSH2 0xCC1 JUMP JUMPDEST PUSH0 JUMPDEST DUP3 DUP2 LT ISZERO PUSH2 0xEFB JUMPI DUP5 DUP10 ADD MLOAD DUP3 SSTORE PUSH1 0x1 DUP3 ADD SWAP2 POP PUSH1 0x20 DUP6 ADD SWAP5 POP PUSH1 0x20 DUP2 ADD SWAP1 POP PUSH2 0xED6 JUMP JUMPDEST DUP7 DUP4 LT ISZERO PUSH2 0xF18 JUMPI DUP5 DUP10 ADD MLOAD PUSH2 0xF14 PUSH1 0x1F DUP10 AND DUP3 PUSH2 0xE27 JUMP JUMPDEST DUP4 SSTORE POP JUMPDEST PUSH1 0x1 PUSH1 0x2 DUP9 MUL ADD DUP9 SSTORE POP POP POP JUMPDEST POP POP POP POP POP POP JUMP JUMPDEST PUSH32 0x496E76616C696420747765657420696E64657800000000000000000000000000 PUSH0 DUP3 ADD MSTORE POP JUMP JUMPDEST PUSH0 PUSH2 0xF61 PUSH1 0x13 DUP4 PUSH2 0xC23 JUMP JUMPDEST SWAP2 POP PUSH2 0xF6C DUP3 PUSH2 0xF2D JUMP JUMPDEST PUSH1 0x20 DUP3 ADD SWAP1 POP SWAP2 SWAP1 POP JUMP JUMPDEST PUSH0 PUSH1 0x20 DUP3 ADD SWAP1 POP DUP2 DUP2 SUB PUSH0 DUP4 ADD MSTORE PUSH2 0xF8E DUP2 PUSH2 0xF55 JUMP JUMPDEST SWAP1 POP SWAP2 SWAP1 POP JUMP JUMPDEST PUSH32 0x4E487B7100000000000000000000000000000000000000000000000000000000 PUSH0 MSTORE PUSH1 0x32 PUSH1 0x4 MSTORE PUSH1 0x24 PUSH0 REVERT INVALID LOG2 PUSH5 0x6970667358 0x22 SLT KECCAK256 0xD PC COINBASE 0xC8 INVALID PUSH6 0x3EC056272793 JUMPI 0xE 0xE5 SGT 0xA6 0xED 0x1F CALLDATASIZE MULMOD GT 0x1E DUP10 SWAP9 LOG2 0xE7 SELFBALANCE 0x28 SWAP1 BYTE 0xC0 PUSH5 0x736F6C6343 STOP ADDMOD BYTE STOP CALLER "
				},
				"gasEstimates": {
					"creation": {
						"codeDepositCost": "817600",
						"executionCost": "849",
						"totalCost": "818449"
					},
					"external": {
						"createTweet(string)": "infinite",
						"deleteTweet(address)": "infinite",
						"getAllTweets(address)": "infinite",
						"getTweets(uint256)": "infinite"
					}
				},
				"methodIdentifiers": {
					"createTweet(string)": "7c9cd2bc",
					"deleteTweet(address)": "20f7e65c",
					"getAllTweets(address)": "12e7ee1c",
					"getTweets(uint256)": "ed9bb8d7"
				}
			},
			"storageLayout": {
				"storage": [
					{
						"astId": 19,
						"contract": "contracts/Twitter.sol:Twitter",
						"label": "tweets",
						"offset": 0,
						"slot": "0",
						"type": "t_mapping(t_address,t_array(t_struct(Tweet)13_storage)dyn_storage)"
					}
				],
				"types": {
					"t_address": {
						"encoding": "inplace",
						"label": "address",
						"numberOfBytes": "20"
					},
					"t_array(t_struct(Tweet)13_storage)dyn_storage": {
						"base": "t_struct(Tweet)13_storage",
						"encoding": "dynamic_array",
						"label": "struct Twitter.Tweet[]",
						"numberOfBytes": "32"
					},
					"t_mapping(t_address,t_array(t_struct(Tweet)13_storage)dyn_storage)": {
						"encoding": "mapping",
						"key": "t_address",
						"label": "mapping(address => struct Twitter.Tweet[])",
						"numberOfBytes": "32",
						"value": "t_array(t_struct(Tweet)13_storage)dyn_storage"
					},
					"t_string_storage": {
						"encoding": "bytes",
						"label": "string",
						"numberOfBytes": "32"
					},
					"t_struct(Tweet)13_storage": {
						"encoding": "inplace",
						"label": "struct Twitter.Tweet",
						"members": [
							{
								"astId": 6,
								"contract": "contracts/Twitter.sol:Twitter",
								"label": "author",
								"offset": 0,
								"slot": "0",
								"type": "t_address"
							},
							{
								"astId": 8,
								"contract": "contracts/Twitter.sol:Twitter",
								"label": "content",
								"offset": 0,
								"slot": "1",
								"type": "t_string_storage"
							},
							{
								"astId": 10,
								"contract": "contracts/Twitter.sol:Twitter",
								"label": "timestamp",
								"offset": 0,
								"slot": "2",
								"type": "t_uint256"
							},
							{
								"astId": 12,
								"contract": "contracts/Twitter.sol:Twitter",
								"label": "likes",
								"offset": 0,
								"slot": "3",
								"type": "t_uint256"
							}
						],
						"numberOfBytes": "128"
					},
					"t_uint256": {
						"encoding": "inplace",
						"label": "uint256",
						"numberOfBytes": "32"
					}
				}
			},
			"userdoc": {
				"kind": "user",
				"methods": {},
				"version": 1
			}
		}
	}
}