{
	"contracts/Calculator.sol": {
		"AdvanceCalculator": {
			"abi": [
				{
					"inputs": [],
					"name": "getOwner",
					"outputs": [
						{
							"internalType": "address",
							"name": "",
							"type": "address"
						}
					],
					"stateMutability": "view",
					"type": "function"
				},
				{
					"inputs": [],
					"name": "getResult",
					"outputs": [
						{
							"internalType": "uint256",
							"name": "",
							"type": "uint256"
						}
					],
					"stateMutability": "view",
					"type": "function"
				},
				{
					"inputs": [
						{
							"internalType": "uint256",
							"name": "a",
							"type": "uint256"
						},
						{
							"internalType": "uint256",
							"name": "b",
							"type": "uint256"
						},
						{
							"internalType": "uint8",
							"name": "operation",
							"type": "uint8"
						}
					],
					"name": "performOperation",
					"outputs": [],
					"stateMutability": "nonpayable",
					"type": "function"
				}
			],
			"devdoc": {
				"kind": "dev",
				"methods": {},
				"version": 1
			},
			"evm": {
				"assembly": "    /* \"contracts/Calculator.sol\":530:1312  contract AdvanceCalculator is BasicCalculator {... */\n  mstore(0x40, 0x80)\n  callvalue\n  dup1\n  iszero\n  tag_1\n  jumpi\n  0x00\n  dup1\n  revert\ntag_1:\n  pop\n  dataSize(sub_0)\n  dup1\n  dataOffset(sub_0)\n  0x00\n  codecopy\n  0x00\n  return\nstop\n\nsub_0: assembly {\n        /* \"contracts/Calculator.sol\":530:1312  contract AdvanceCalculator is BasicCalculator {... */\n      mstore(0x40, 0x80)\n      callvalue\n      dup1\n      iszero\n      tag_1\n      jumpi\n      0x00\n      dup1\n      revert\n    tag_1:\n      pop\n      jumpi(tag_2, lt(calldatasize, 0x04))\n      shr(0xe0, calldataload(0x00))\n      dup1\n      0x893d20e8\n      eq\n      tag_3\n      jumpi\n      dup1\n      0xd595b5b7\n      eq\n      tag_4\n      jumpi\n      dup1\n      0xde292789\n      eq\n      tag_5\n      jumpi\n    tag_2:\n      0x00\n      dup1\n      revert\n        /* \"contracts/Calculator.sol\":1219:1307  function getOwner() external view returns (address) {... */\n    tag_3:\n      tag_6\n      tag_7\n      jump\t// in\n    tag_6:\n      mload(0x40)\n      tag_8\n      swap2\n      swap1\n      tag_9\n      jump\t// in\n    tag_8:\n      mload(0x40)\n      dup1\n      swap2\n      sub\n      swap1\n      return\n        /* \"contracts/Calculator.sol\":809:1120  function performOperation(uint256 a, uint256 b, uint8 operation) public {... */\n    tag_4:\n      tag_10\n      0x04\n      dup1\n      calldatasize\n      sub\n      dup2\n      add\n      swap1\n      tag_11\n      swap2\n      swap1\n      tag_12\n      jump\t// in\n    tag_11:\n      tag_13\n      jump\t// in\n    tag_10:\n      stop\n        /* \"contracts/Calculator.sol\":1128:1211  function getResult() public view returns (uint256) {... */\n    tag_5:\n      tag_14\n      tag_15\n      jump\t// in\n    tag_14:\n      mload(0x40)\n      tag_16\n      swap2\n      swap1\n      tag_17\n      jump\t// in\n    tag_16:\n      mload(0x40)\n      dup1\n      swap2\n      sub\n      swap1\n      return\n        /* \"contracts/Calculator.sol\":1219:1307  function getOwner() external view returns (address) {... */\n    tag_7:\n        /* \"contracts/Calculator.sol\":1262:1269  address */\n      0x00\n        /* \"contracts/Calculator.sol\":1289:1299  msg.sender */\n      caller\n        /* \"contracts/Calculator.sol\":1282:1299  return msg.sender */\n      swap1\n      pop\n        /* \"contracts/Calculator.sol\":1219:1307  function getOwner() external view returns (address) {... */\n      swap1\n      jump\t// out\n        /* \"contracts/Calculator.sol\":809:1120  function performOperation(uint256 a, uint256 b, uint8 operation) public {... */\n    tag_13:\n        /* \"contracts/Calculator.sol\":909:910  0 */\n      0x00\n        /* \"contracts/Calculator.sol\":896:905  operation */\n      dup2\n        /* \"contracts/Calculator.sol\":896:910  operation == 0 */\n      0xff\n      and\n      sub\n        /* \"contracts/Calculator.sol\":892:1112  if (operation == 0) add(a, b);... */\n      tag_20\n      jumpi\n        /* \"contracts/Calculator.sol\":912:921  add(a, b) */\n      tag_21\n        /* \"contracts/Calculator.sol\":916:917  a */\n      dup4\n        /* \"contracts/Calculator.sol\":919:920  b */\n      dup4\n        /* \"contracts/Calculator.sol\":912:915  add */\n      tag_22\n        /* \"contracts/Calculator.sol\":912:921  add(a, b) */\n      jump\t// in\n    tag_21:\n        /* \"contracts/Calculator.sol\":892:1112  if (operation == 0) add(a, b);... */\n      jump(tag_23)\n    tag_20:\n        /* \"contracts/Calculator.sol\":954:955  1 */\n      0x01\n        /* \"contracts/Calculator.sol\":941:950  operation */\n      dup2\n        /* \"contracts/Calculator.sol\":941:955  operation == 1 */\n      0xff\n      and\n      sub\n        /* \"contracts/Calculator.sol\":937:1112  if (operation == 1) subtract(a, b);... */\n      tag_24\n      jumpi\n        /* \"contracts/Calculator.sol\":957:971  subtract(a, b) */\n      tag_25\n        /* \"contracts/Calculator.sol\":966:967  a */\n      dup4\n        /* \"contracts/Calculator.sol\":969:970  b */\n      dup4\n        /* \"contracts/Calculator.sol\":957:965  subtract */\n      tag_26\n        /* \"contracts/Calculator.sol\":957:971  subtract(a, b) */\n      jump\t// in\n    tag_25:\n        /* \"contracts/Calculator.sol\":937:1112  if (operation == 1) subtract(a, b);... */\n      jump(tag_27)\n    tag_24:\n        /* \"contracts/Calculator.sol\":1004:1005  2 */\n      0x02\n        /* \"contracts/Calculator.sol\":991:1000  operation */\n      dup2\n        /* \"contracts/Calculator.sol\":991:1005  operation == 2 */\n      0xff\n      and\n      sub\n        /* \"contracts/Calculator.sol\":987:1112  if (operation == 2) multiply(a, b);... */\n      tag_28\n      jumpi\n        /* \"contracts/Calculator.sol\":1007:1021  multiply(a, b) */\n      tag_29\n        /* \"contracts/Calculator.sol\":1016:1017  a */\n      dup4\n        /* \"contracts/Calculator.sol\":1019:1020  b */\n      dup4\n        /* \"contracts/Calculator.sol\":1007:1015  multiply */\n      tag_30\n        /* \"contracts/Calculator.sol\":1007:1021  multiply(a, b) */\n      jump\t// in\n    tag_29:\n        /* \"contracts/Calculator.sol\":987:1112  if (operation == 2) multiply(a, b);... */\n      jump(tag_31)\n    tag_28:\n        /* \"contracts/Calculator.sol\":1054:1055  3 */\n      0x03\n        /* \"contracts/Calculator.sol\":1041:1050  operation */\n      dup2\n        /* \"contracts/Calculator.sol\":1041:1055  operation == 3 */\n      0xff\n      and\n      sub\n        /* \"contracts/Calculator.sol\":1037:1112  if (operation == 3) devide(a, b);... */\n      tag_32\n      jumpi\n        /* \"contracts/Calculator.sol\":1057:1069  devide(a, b) */\n      tag_33\n        /* \"contracts/Calculator.sol\":1064:1065  a */\n      dup4\n        /* \"contracts/Calculator.sol\":1067:1068  b */\n      dup4\n        /* \"contracts/Calculator.sol\":1057:1063  devide */\n      tag_34\n        /* \"contracts/Calculator.sol\":1057:1069  devide(a, b) */\n      jump\t// in\n    tag_33:\n        /* \"contracts/Calculator.sol\":1037:1112  if (operation == 3) devide(a, b);... */\n      jump(tag_35)\n    tag_32:\n        /* \"contracts/Calculator.sol\":1085:1112  revert(\"Invalid Operation\") */\n      mload(0x40)\n      0x08c379a000000000000000000000000000000000000000000000000000000000\n      dup2\n      mstore\n      0x04\n      add\n      tag_36\n      swap1\n      tag_37\n      jump\t// in\n    tag_36:\n      mload(0x40)\n      dup1\n      swap2\n      sub\n      swap1\n      revert\n        /* \"contracts/Calculator.sol\":1037:1112  if (operation == 3) devide(a, b);... */\n    tag_35:\n        /* \"contracts/Calculator.sol\":987:1112  if (operation == 2) multiply(a, b);... */\n    tag_31:\n        /* \"contracts/Calculator.sol\":937:1112  if (operation == 1) subtract(a, b);... */\n    tag_27:\n        /* \"contracts/Calculator.sol\":892:1112  if (operation == 0) add(a, b);... */\n    tag_23:\n        /* \"contracts/Calculator.sol\":809:1120  function performOperation(uint256 a, uint256 b, uint8 operation) public {... */\n      pop\n      pop\n      pop\n      jump\t// out\n        /* \"contracts/Calculator.sol\":1128:1211  function getResult() public view returns (uint256) {... */\n    tag_15:\n        /* \"contracts/Calculator.sol\":1170:1177  uint256 */\n      0x00\n        /* \"contracts/Calculator.sol\":1197:1203  result */\n      dup1\n      sload\n        /* \"contracts/Calculator.sol\":1190:1203  return result */\n      swap1\n      pop\n        /* \"contracts/Calculator.sol\":1128:1211  function getResult() public view returns (uint256) {... */\n      swap1\n      jump\t// out\n        /* \"contracts/Calculator.sol\":354:431  function add(uint256 a, uint256 b) internal {... */\n    tag_22:\n        /* \"contracts/Calculator.sol\":422:423  b */\n      dup1\n        /* \"contracts/Calculator.sol\":418:419  a */\n      dup3\n        /* \"contracts/Calculator.sol\":418:423  a + b */\n      tag_40\n      swap2\n      swap1\n      tag_41\n      jump\t// in\n    tag_40:\n        /* \"contracts/Calculator.sol\":409:415  result */\n      0x00\n        /* \"contracts/Calculator.sol\":409:423  result = a + b */\n      dup2\n      swap1\n      sstore\n      pop\n        /* \"contracts/Calculator.sol\":354:431  function add(uint256 a, uint256 b) internal {... */\n      pop\n      pop\n      jump\t// out\n        /* \"contracts/Calculator.sol\":439:521  function subtract(uint256 a, uint256 b) internal {... */\n    tag_26:\n        /* \"contracts/Calculator.sol\":512:513  b */\n      dup1\n        /* \"contracts/Calculator.sol\":508:509  a */\n      dup3\n        /* \"contracts/Calculator.sol\":508:513  a - b */\n      tag_43\n      swap2\n      swap1\n      tag_44\n      jump\t// in\n    tag_43:\n        /* \"contracts/Calculator.sol\":499:505  result */\n      0x00\n        /* \"contracts/Calculator.sol\":499:513  result = a - b */\n      dup2\n      swap1\n      sstore\n      pop\n        /* \"contracts/Calculator.sol\":439:521  function subtract(uint256 a, uint256 b) internal {... */\n      pop\n      pop\n      jump\t// out\n        /* \"contracts/Calculator.sol\":585:667  function multiply(uint256 a, uint256 b) internal {... */\n    tag_30:\n        /* \"contracts/Calculator.sol\":658:659  b */\n      dup1\n        /* \"contracts/Calculator.sol\":654:655  a */\n      dup3\n        /* \"contracts/Calculator.sol\":654:659  a * b */\n      tag_46\n      swap2\n      swap1\n      tag_47\n      jump\t// in\n    tag_46:\n        /* \"contracts/Calculator.sol\":645:651  result */\n      0x00\n        /* \"contracts/Calculator.sol\":645:659  result = a * b */\n      dup2\n      swap1\n      sstore\n      pop\n        /* \"contracts/Calculator.sol\":585:667  function multiply(uint256 a, uint256 b) internal {... */\n      pop\n      pop\n      jump\t// out\n        /* \"contracts/Calculator.sol\":675:801  function devide(uint256 a, uint256 b) internal {... */\n    tag_34:\n        /* \"contracts/Calculator.sol\":746:747  0 */\n      0x00\n        /* \"contracts/Calculator.sol\":741:742  b */\n      dup2\n        /* \"contracts/Calculator.sol\":741:747  b != 0 */\n      sub\n        /* \"contracts/Calculator.sol\":733:768  require(b != 0, \"Division by zero\") */\n      tag_49\n      jumpi\n      mload(0x40)\n      0x08c379a000000000000000000000000000000000000000000000000000000000\n      dup2\n      mstore\n      0x04\n      add\n      tag_50\n      swap1\n      tag_51\n      jump\t// in\n    tag_50:\n      mload(0x40)\n      dup1\n      swap2\n      sub\n      swap1\n      revert\n    tag_49:\n        /* \"contracts/Calculator.sol\":792:793  b */\n      dup1\n        /* \"contracts/Calculator.sol\":788:789  a */\n      dup3\n        /* \"contracts/Calculator.sol\":788:793  a / b */\n      tag_52\n      swap2\n      swap1\n      tag_53\n      jump\t// in\n    tag_52:\n        /* \"contracts/Calculator.sol\":779:785  result */\n      0x00\n        /* \"contracts/Calculator.sol\":779:793  result = a / b */\n      dup2\n      swap1\n      sstore\n      pop\n        /* \"contracts/Calculator.sol\":675:801  function devide(uint256 a, uint256 b) internal {... */\n      pop\n      pop\n      jump\t// out\n        /* \"#utility.yul\":7:133   */\n    tag_54:\n        /* \"#utility.yul\":44:51   */\n      0x00\n        /* \"#utility.yul\":84:126   */\n      0xffffffffffffffffffffffffffffffffffffffff\n        /* \"#utility.yul\":77:82   */\n      dup3\n        /* \"#utility.yul\":73:127   */\n      and\n        /* \"#utility.yul\":62:127   */\n      swap1\n      pop\n        /* \"#utility.yul\":7:133   */\n      swap2\n      swap1\n      pop\n      jump\t// out\n        /* \"#utility.yul\":139:235   */\n    tag_55:\n        /* \"#utility.yul\":176:183   */\n      0x00\n        /* \"#utility.yul\":205:229   */\n      tag_77\n        /* \"#utility.yul\":223:228   */\n      dup3\n        /* \"#utility.yul\":205:229   */\n      tag_54\n      jump\t// in\n    tag_77:\n        /* \"#utility.yul\":194:229   */\n      swap1\n      pop\n        /* \"#utility.yul\":139:235   */\n      swap2\n      swap1\n      pop\n      jump\t// out\n        /* \"#utility.yul\":241:359   */\n    tag_56:\n        /* \"#utility.yul\":328:352   */\n      tag_79\n        /* \"#utility.yul\":346:351   */\n      dup2\n        /* \"#utility.yul\":328:352   */\n      tag_55\n      jump\t// in\n    tag_79:\n        /* \"#utility.yul\":323:326   */\n      dup3\n        /* \"#utility.yul\":316:353   */\n      mstore\n        /* \"#utility.yul\":241:359   */\n      pop\n      pop\n      jump\t// out\n        /* \"#utility.yul\":365:587   */\n    tag_9:\n        /* \"#utility.yul\":458:462   */\n      0x00\n        /* \"#utility.yul\":496:498   */\n      0x20\n        /* \"#utility.yul\":485:494   */\n      dup3\n        /* \"#utility.yul\":481:499   */\n      add\n        /* \"#utility.yul\":473:499   */\n      swap1\n      pop\n        /* \"#utility.yul\":509:580   */\n      tag_81\n        /* \"#utility.yul\":577:578   */\n      0x00\n        /* \"#utility.yul\":566:575   */\n      dup4\n        /* \"#utility.yul\":562:579   */\n      add\n        /* \"#utility.yul\":553:559   */\n      dup5\n        /* \"#utility.yul\":509:580   */\n      tag_56\n      jump\t// in\n    tag_81:\n        /* \"#utility.yul\":365:587   */\n      swap3\n      swap2\n      pop\n      pop\n      jump\t// out\n        /* \"#utility.yul\":674:791   */\n    tag_58:\n        /* \"#utility.yul\":783:784   */\n      0x00\n        /* \"#utility.yul\":780:781   */\n      dup1\n        /* \"#utility.yul\":773:785   */\n      revert\n        /* \"#utility.yul\":920:997   */\n    tag_60:\n        /* \"#utility.yul\":957:964   */\n      0x00\n        /* \"#utility.yul\":986:991   */\n      dup2\n        /* \"#utility.yul\":975:991   */\n      swap1\n      pop\n        /* \"#utility.yul\":920:997   */\n      swap2\n      swap1\n      pop\n      jump\t// out\n        /* \"#utility.yul\":1003:1125   */\n    tag_61:\n        /* \"#utility.yul\":1076:1100   */\n      tag_87\n        /* \"#utility.yul\":1094:1099   */\n      dup2\n        /* \"#utility.yul\":1076:1100   */\n      tag_60\n      jump\t// in\n    tag_87:\n        /* \"#utility.yul\":1069:1074   */\n      dup2\n        /* \"#utility.yul\":1066:1101   */\n      eq\n        /* \"#utility.yul\":1056:1119   */\n      tag_88\n      jumpi\n        /* \"#utility.yul\":1115:1116   */\n      0x00\n        /* \"#utility.yul\":1112:1113   */\n      dup1\n        /* \"#utility.yul\":1105:1117   */\n      revert\n        /* \"#utility.yul\":1056:1119   */\n    tag_88:\n        /* \"#utility.yul\":1003:1125   */\n      pop\n      jump\t// out\n        /* \"#utility.yul\":1131:1270   */\n    tag_62:\n        /* \"#utility.yul\":1177:1182   */\n      0x00\n        /* \"#utility.yul\":1215:1221   */\n      dup2\n        /* \"#utility.yul\":1202:1222   */\n      calldataload\n        /* \"#utility.yul\":1193:1222   */\n      swap1\n      pop\n        /* \"#utility.yul\":1231:1264   */\n      tag_90\n        /* \"#utility.yul\":1258:1263   */\n      dup2\n        /* \"#utility.yul\":1231:1264   */\n      tag_61\n      jump\t// in\n    tag_90:\n        /* \"#utility.yul\":1131:1270   */\n      swap3\n      swap2\n      pop\n      pop\n      jump\t// out\n        /* \"#utility.yul\":1276:1362   */\n    tag_63:\n        /* \"#utility.yul\":1311:1318   */\n      0x00\n        /* \"#utility.yul\":1351:1355   */\n      0xff\n        /* \"#utility.yul\":1344:1349   */\n      dup3\n        /* \"#utility.yul\":1340:1356   */\n      and\n        /* \"#utility.yul\":1329:1356   */\n      swap1\n      pop\n        /* \"#utility.yul\":1276:1362   */\n      swap2\n      swap1\n      pop\n      jump\t// out\n        /* \"#utility.yul\":1368:1486   */\n    tag_64:\n        /* \"#utility.yul\":1439:1461   */\n      tag_93\n        /* \"#utility.yul\":1455:1460   */\n      dup2\n        /* \"#utility.yul\":1439:1461   */\n      tag_63\n      jump\t// in\n    tag_93:\n        /* \"#utility.yul\":1432:1437   */\n      dup2\n        /* \"#utility.yul\":1429:1462   */\n      eq\n        /* \"#utility.yul\":1419:1480   */\n      tag_94\n      jumpi\n        /* \"#utility.yul\":1476:1477   */\n      0x00\n        /* \"#utility.yul\":1473:1474   */\n      dup1\n        /* \"#utility.yul\":1466:1478   */\n      revert\n        /* \"#utility.yul\":1419:1480   */\n    tag_94:\n        /* \"#utility.yul\":1368:1486   */\n      pop\n      jump\t// out\n        /* \"#utility.yul\":1492:1627   */\n    tag_65:\n        /* \"#utility.yul\":1536:1541   */\n      0x00\n        /* \"#utility.yul\":1574:1580   */\n      dup2\n        /* \"#utility.yul\":1561:1581   */\n      calldataload\n        /* \"#utility.yul\":1552:1581   */\n      swap1\n      pop\n        /* \"#utility.yul\":1590:1621   */\n      tag_96\n        /* \"#utility.yul\":1615:1620   */\n      dup2\n        /* \"#utility.yul\":1590:1621   */\n      tag_64\n      jump\t// in\n    tag_96:\n        /* \"#utility.yul\":1492:1627   */\n      swap3\n      swap2\n      pop\n      pop\n      jump\t// out\n        /* \"#utility.yul\":1633:2248   */\n    tag_12:\n        /* \"#utility.yul\":1708:1714   */\n      0x00\n        /* \"#utility.yul\":1716:1722   */\n      dup1\n        /* \"#utility.yul\":1724:1730   */\n      0x00\n        /* \"#utility.yul\":1773:1775   */\n      0x60\n        /* \"#utility.yul\":1761:1770   */\n      dup5\n        /* \"#utility.yul\":1752:1759   */\n      dup7\n        /* \"#utility.yul\":1748:1771   */\n      sub\n        /* \"#utility.yul\":1744:1776   */\n      slt\n        /* \"#utility.yul\":1741:1860   */\n      iszero\n      tag_98\n      jumpi\n        /* \"#utility.yul\":1779:1858   */\n      tag_99\n      tag_58\n      jump\t// in\n    tag_99:\n        /* \"#utility.yul\":1741:1860   */\n    tag_98:\n        /* \"#utility.yul\":1899:1900   */\n      0x00\n        /* \"#utility.yul\":1924:1977   */\n      tag_100\n        /* \"#utility.yul\":1969:1976   */\n      dup7\n        /* \"#utility.yul\":1960:1966   */\n      dup3\n        /* \"#utility.yul\":1949:1958   */\n      dup8\n        /* \"#utility.yul\":1945:1967   */\n      add\n        /* \"#utility.yul\":1924:1977   */\n      tag_62\n      jump\t// in\n    tag_100:\n        /* \"#utility.yul\":1914:1977   */\n      swap4\n      pop\n        /* \"#utility.yul\":1870:1987   */\n      pop\n        /* \"#utility.yul\":2026:2028   */\n      0x20\n        /* \"#utility.yul\":2052:2105   */\n      tag_101\n        /* \"#utility.yul\":2097:2104   */\n      dup7\n        /* \"#utility.yul\":2088:2094   */\n      dup3\n        /* \"#utility.yul\":2077:2086   */\n      dup8\n        /* \"#utility.yul\":2073:2095   */\n      add\n        /* \"#utility.yul\":2052:2105   */\n      tag_62\n      jump\t// in\n    tag_101:\n        /* \"#utility.yul\":2042:2105   */\n      swap3\n      pop\n        /* \"#utility.yul\":1997:2115   */\n      pop\n        /* \"#utility.yul\":2154:2156   */\n      0x40\n        /* \"#utility.yul\":2180:2231   */\n      tag_102\n        /* \"#utility.yul\":2223:2230   */\n      dup7\n        /* \"#utility.yul\":2214:2220   */\n      dup3\n        /* \"#utility.yul\":2203:2212   */\n      dup8\n        /* \"#utility.yul\":2199:2221   */\n      add\n        /* \"#utility.yul\":2180:2231   */\n      tag_65\n      jump\t// in\n    tag_102:\n        /* \"#utility.yul\":2170:2231   */\n      swap2\n      pop\n        /* \"#utility.yul\":2125:2241   */\n      pop\n        /* \"#utility.yul\":1633:2248   */\n      swap3\n      pop\n      swap3\n      pop\n      swap3\n      jump\t// out\n        /* \"#utility.yul\":2254:2372   */\n    tag_66:\n        /* \"#utility.yul\":2341:2365   */\n      tag_104\n        /* \"#utility.yul\":2359:2364   */\n      dup2\n        /* \"#utility.yul\":2341:2365   */\n      tag_60\n      jump\t// in\n    tag_104:\n        /* \"#utility.yul\":2336:2339   */\n      dup3\n        /* \"#utility.yul\":2329:2366   */\n      mstore\n        /* \"#utility.yul\":2254:2372   */\n      pop\n      pop\n      jump\t// out\n        /* \"#utility.yul\":2378:2600   */\n    tag_17:\n        /* \"#utility.yul\":2471:2475   */\n      0x00\n        /* \"#utility.yul\":2509:2511   */\n      0x20\n        /* \"#utility.yul\":2498:2507   */\n      dup3\n        /* \"#utility.yul\":2494:2512   */\n      add\n        /* \"#utility.yul\":2486:2512   */\n      swap1\n      pop\n        /* \"#utility.yul\":2522:2593   */\n      tag_106\n        /* \"#utility.yul\":2590:2591   */\n      0x00\n        /* \"#utility.yul\":2579:2588   */\n      dup4\n        /* \"#utility.yul\":2575:2592   */\n      add\n        /* \"#utility.yul\":2566:2572   */\n      dup5\n        /* \"#utility.yul\":2522:2593   */\n      tag_66\n      jump\t// in\n    tag_106:\n        /* \"#utility.yul\":2378:2600   */\n      swap3\n      swap2\n      pop\n      pop\n      jump\t// out\n        /* \"#utility.yul\":2606:2775   */\n    tag_67:\n        /* \"#utility.yul\":2690:2701   */\n      0x00\n        /* \"#utility.yul\":2724:2730   */\n      dup3\n        /* \"#utility.yul\":2719:2722   */\n      dup3\n        /* \"#utility.yul\":2712:2731   */\n      mstore\n        /* \"#utility.yul\":2764:2768   */\n      0x20\n        /* \"#utility.yul\":2759:2762   */\n      dup3\n        /* \"#utility.yul\":2755:2769   */\n      add\n        /* \"#utility.yul\":2740:2769   */\n      swap1\n      pop\n        /* \"#utility.yul\":2606:2775   */\n      swap3\n      swap2\n      pop\n      pop\n      jump\t// out\n        /* \"#utility.yul\":2781:2948   */\n    tag_68:\n        /* \"#utility.yul\":2921:2940   */\n      0x496e76616c6964204f7065726174696f6e000000000000000000000000000000\n        /* \"#utility.yul\":2917:2918   */\n      0x00\n        /* \"#utility.yul\":2909:2915   */\n      dup3\n        /* \"#utility.yul\":2905:2919   */\n      add\n        /* \"#utility.yul\":2898:2941   */\n      mstore\n        /* \"#utility.yul\":2781:2948   */\n      pop\n      jump\t// out\n        /* \"#utility.yul\":2954:3320   */\n    tag_69:\n        /* \"#utility.yul\":3096:3099   */\n      0x00\n        /* \"#utility.yul\":3117:3184   */\n      tag_110\n        /* \"#utility.yul\":3181:3183   */\n      0x11\n        /* \"#utility.yul\":3176:3179   */\n      dup4\n        /* \"#utility.yul\":3117:3184   */\n      tag_67\n      jump\t// in\n    tag_110:\n        /* \"#utility.yul\":3110:3184   */\n      swap2\n      pop\n        /* \"#utility.yul\":3193:3286   */\n      tag_111\n        /* \"#utility.yul\":3282:3285   */\n      dup3\n        /* \"#utility.yul\":3193:3286   */\n      tag_68\n      jump\t// in\n    tag_111:\n        /* \"#utility.yul\":3311:3313   */\n      0x20\n        /* \"#utility.yul\":3306:3309   */\n      dup3\n        /* \"#utility.yul\":3302:3314   */\n      add\n        /* \"#utility.yul\":3295:3314   */\n      swap1\n      pop\n        /* \"#utility.yul\":2954:3320   */\n      swap2\n      swap1\n      pop\n      jump\t// out\n        /* \"#utility.yul\":3326:3745   */\n    tag_37:\n        /* \"#utility.yul\":3492:3496   */\n      0x00\n        /* \"#utility.yul\":3530:3532   */\n      0x20\n        /* \"#utility.yul\":3519:3528   */\n      dup3\n        /* \"#utility.yul\":3515:3533   */\n      add\n        /* \"#utility.yul\":3507:3533   */\n      swap1\n      pop\n        /* \"#utility.yul\":3579:3588   */\n      dup2\n        /* \"#utility.yul\":3573:3577   */\n      dup2\n        /* \"#utility.yul\":3569:3589   */\n      sub\n        /* \"#utility.yul\":3565:3566   */\n      0x00\n        /* \"#utility.yul\":3554:3563   */\n      dup4\n        /* \"#utility.yul\":3550:3567   */\n      add\n        /* \"#utility.yul\":3543:3590   */\n      mstore\n        /* \"#utility.yul\":3607:3738   */\n      tag_113\n        /* \"#utility.yul\":3733:3737   */\n      dup2\n        /* \"#utility.yul\":3607:3738   */\n      tag_69\n      jump\t// in\n    tag_113:\n        /* \"#utility.yul\":3599:3738   */\n      swap1\n      pop\n        /* \"#utility.yul\":3326:3745   */\n      swap2\n      swap1\n      pop\n      jump\t// out\n        /* \"#utility.yul\":3751:3931   */\n    tag_70:\n        /* \"#utility.yul\":3799:3876   */\n      0x4e487b7100000000000000000000000000000000000000000000000000000000\n        /* \"#utility.yul\":3796:3797   */\n      0x00\n        /* \"#utility.yul\":3789:3877   */\n      mstore\n        /* \"#utility.yul\":3896:3900   */\n      0x11\n        /* \"#utility.yul\":3893:3894   */\n      0x04\n        /* \"#utility.yul\":3886:3901   */\n      mstore\n        /* \"#utility.yul\":3920:3924   */\n      0x24\n        /* \"#utility.yul\":3917:3918   */\n      0x00\n        /* \"#utility.yul\":3910:3925   */\n      revert\n        /* \"#utility.yul\":3937:4128   */\n    tag_41:\n        /* \"#utility.yul\":3977:3980   */\n      0x00\n        /* \"#utility.yul\":3996:4016   */\n      tag_116\n        /* \"#utility.yul\":4014:4015   */\n      dup3\n        /* \"#utility.yul\":3996:4016   */\n      tag_60\n      jump\t// in\n    tag_116:\n        /* \"#utility.yul\":3991:4016   */\n      swap2\n      pop\n        /* \"#utility.yul\":4030:4050   */\n      tag_117\n        /* \"#utility.yul\":4048:4049   */\n      dup4\n        /* \"#utility.yul\":4030:4050   */\n      tag_60\n      jump\t// in\n    tag_117:\n        /* \"#utility.yul\":4025:4050   */\n      swap3\n      pop\n        /* \"#utility.yul\":4073:4074   */\n      dup3\n        /* \"#utility.yul\":4070:4071   */\n      dup3\n        /* \"#utility.yul\":4066:4075   */\n      add\n        /* \"#utility.yul\":4059:4075   */\n      swap1\n      pop\n        /* \"#utility.yul\":4094:4097   */\n      dup1\n        /* \"#utility.yul\":4091:4092   */\n      dup3\n        /* \"#utility.yul\":4088:4098   */\n      gt\n        /* \"#utility.yul\":4085:4121   */\n      iszero\n      tag_118\n      jumpi\n        /* \"#utility.yul\":4101:4119   */\n      tag_119\n      tag_70\n      jump\t// in\n    tag_119:\n        /* \"#utility.yul\":4085:4121   */\n    tag_118:\n        /* \"#utility.yul\":3937:4128   */\n      swap3\n      swap2\n      pop\n      pop\n      jump\t// out\n        /* \"#utility.yul\":4134:4328   */\n    tag_44:\n        /* \"#utility.yul\":4174:4178   */\n      0x00\n        /* \"#utility.yul\":4194:4214   */\n      tag_121\n        /* \"#utility.yul\":4212:4213   */\n      dup3\n        /* \"#utility.yul\":4194:4214   */\n      tag_60\n      jump\t// in\n    tag_121:\n        /* \"#utility.yul\":4189:4214   */\n      swap2\n      pop\n        /* \"#utility.yul\":4228:4248   */\n      tag_122\n        /* \"#utility.yul\":4246:4247   */\n      dup4\n        /* \"#utility.yul\":4228:4248   */\n      tag_60\n      jump\t// in\n    tag_122:\n        /* \"#utility.yul\":4223:4248   */\n      swap3\n      pop\n        /* \"#utility.yul\":4272:4273   */\n      dup3\n        /* \"#utility.yul\":4269:4270   */\n      dup3\n        /* \"#utility.yul\":4265:4274   */\n      sub\n        /* \"#utility.yul\":4257:4274   */\n      swap1\n      pop\n        /* \"#utility.yul\":4296:4297   */\n      dup2\n        /* \"#utility.yul\":4290:4294   */\n      dup2\n        /* \"#utility.yul\":4287:4298   */\n      gt\n        /* \"#utility.yul\":4284:4321   */\n      iszero\n      tag_123\n      jumpi\n        /* \"#utility.yul\":4301:4319   */\n      tag_124\n      tag_70\n      jump\t// in\n    tag_124:\n        /* \"#utility.yul\":4284:4321   */\n    tag_123:\n        /* \"#utility.yul\":4134:4328   */\n      swap3\n      swap2\n      pop\n      pop\n      jump\t// out\n        /* \"#utility.yul\":4334:4744   */\n    tag_47:\n        /* \"#utility.yul\":4374:4381   */\n      0x00\n        /* \"#utility.yul\":4397:4417   */\n      tag_126\n        /* \"#utility.yul\":4415:4416   */\n      dup3\n        /* \"#utility.yul\":4397:4417   */\n      tag_60\n      jump\t// in\n    tag_126:\n        /* \"#utility.yul\":4392:4417   */\n      swap2\n      pop\n        /* \"#utility.yul\":4431:4451   */\n      tag_127\n        /* \"#utility.yul\":4449:4450   */\n      dup4\n        /* \"#utility.yul\":4431:4451   */\n      tag_60\n      jump\t// in\n    tag_127:\n        /* \"#utility.yul\":4426:4451   */\n      swap3\n      pop\n        /* \"#utility.yul\":4486:4487   */\n      dup3\n        /* \"#utility.yul\":4483:4484   */\n      dup3\n        /* \"#utility.yul\":4479:4488   */\n      mul\n        /* \"#utility.yul\":4508:4538   */\n      tag_128\n        /* \"#utility.yul\":4526:4537   */\n      dup2\n        /* \"#utility.yul\":4508:4538   */\n      tag_60\n      jump\t// in\n    tag_128:\n        /* \"#utility.yul\":4497:4538   */\n      swap2\n      pop\n        /* \"#utility.yul\":4687:4688   */\n      dup3\n        /* \"#utility.yul\":4678:4685   */\n      dup3\n        /* \"#utility.yul\":4674:4689   */\n      div\n        /* \"#utility.yul\":4671:4672   */\n      dup5\n        /* \"#utility.yul\":4668:4690   */\n      eq\n        /* \"#utility.yul\":4648:4649   */\n      dup4\n        /* \"#utility.yul\":4641:4650   */\n      iszero\n        /* \"#utility.yul\":4621:4704   */\n      or\n        /* \"#utility.yul\":4598:4737   */\n      tag_129\n      jumpi\n        /* \"#utility.yul\":4717:4735   */\n      tag_130\n      tag_70\n      jump\t// in\n    tag_130:\n        /* \"#utility.yul\":4598:4737   */\n    tag_129:\n        /* \"#utility.yul\":4382:4744   */\n      pop\n        /* \"#utility.yul\":4334:4744   */\n      swap3\n      swap2\n      pop\n      pop\n      jump\t// out\n        /* \"#utility.yul\":4750:4916   */\n    tag_71:\n        /* \"#utility.yul\":4890:4908   */\n      0x4469766973696f6e206279207a65726f00000000000000000000000000000000\n        /* \"#utility.yul\":4886:4887   */\n      0x00\n        /* \"#utility.yul\":4878:4884   */\n      dup3\n        /* \"#utility.yul\":4874:4888   */\n      add\n        /* \"#utility.yul\":4867:4909   */\n      mstore\n        /* \"#utility.yul\":4750:4916   */\n      pop\n      jump\t// out\n        /* \"#utility.yul\":4922:5288   */\n    tag_72:\n        /* \"#utility.yul\":5064:5067   */\n      0x00\n        /* \"#utility.yul\":5085:5152   */\n      tag_133\n        /* \"#utility.yul\":5149:5151   */\n      0x10\n        /* \"#utility.yul\":5144:5147   */\n      dup4\n        /* \"#utility.yul\":5085:5152   */\n      tag_67\n      jump\t// in\n    tag_133:\n        /* \"#utility.yul\":5078:5152   */\n      swap2\n      pop\n        /* \"#utility.yul\":5161:5254   */\n      tag_134\n        /* \"#utility.yul\":5250:5253   */\n      dup3\n        /* \"#utility.yul\":5161:5254   */\n      tag_71\n      jump\t// in\n    tag_134:\n        /* \"#utility.yul\":5279:5281   */\n      0x20\n        /* \"#utility.yul\":5274:5277   */\n      dup3\n        /* \"#utility.yul\":5270:5282   */\n      add\n        /* \"#utility.yul\":5263:5282   */\n      swap1\n      pop\n        /* \"#utility.yul\":4922:5288   */\n      swap2\n      swap1\n      pop\n      jump\t// out\n        /* \"#utility.yul\":5294:5713   */\n    tag_51:\n        /* \"#utility.yul\":5460:5464   */\n      0x00\n        /* \"#utility.yul\":5498:5500   */\n      0x20\n        /* \"#utility.yul\":5487:5496   */\n      dup3\n        /* \"#utility.yul\":5483:5501   */\n      add\n        /* \"#utility.yul\":5475:5501   */\n      swap1\n      pop\n        /* \"#utility.yul\":5547:5556   */\n      dup2\n        /* \"#utility.yul\":5541:5545   */\n      dup2\n        /* \"#utility.yul\":5537:5557   */\n      sub\n        /* \"#utility.yul\":5533:5534   */\n      0x00\n        /* \"#utility.yul\":5522:5531   */\n      dup4\n        /* \"#utility.yul\":5518:5535   */\n      add\n        /* \"#utility.yul\":5511:5558   */\n      mstore\n        /* \"#utility.yul\":5575:5706   */\n      tag_136\n        /* \"#utility.yul\":5701:5705   */\n      dup2\n        /* \"#utility.yul\":5575:5706   */\n      tag_72\n      jump\t// in\n    tag_136:\n        /* \"#utility.yul\":5567:5706   */\n      swap1\n      pop\n        /* \"#utility.yul\":5294:5713   */\n      swap2\n      swap1\n      pop\n      jump\t// out\n        /* \"#utility.yul\":5719:5899   */\n    tag_73:\n        /* \"#utility.yul\":5767:5844   */\n      0x4e487b7100000000000000000000000000000000000000000000000000000000\n        /* \"#utility.yul\":5764:5765   */\n      0x00\n        /* \"#utility.yul\":5757:5845   */\n      mstore\n        /* \"#utility.yul\":5864:5868   */\n      0x12\n        /* \"#utility.yul\":5861:5862   */\n      0x04\n        /* \"#utility.yul\":5854:5869   */\n      mstore\n        /* \"#utility.yul\":5888:5892   */\n      0x24\n        /* \"#utility.yul\":5885:5886   */\n      0x00\n        /* \"#utility.yul\":5878:5893   */\n      revert\n        /* \"#utility.yul\":5905:6090   */\n    tag_53:\n        /* \"#utility.yul\":5945:5946   */\n      0x00\n        /* \"#utility.yul\":5962:5982   */\n      tag_139\n        /* \"#utility.yul\":5980:5981   */\n      dup3\n        /* \"#utility.yul\":5962:5982   */\n      tag_60\n      jump\t// in\n    tag_139:\n        /* \"#utility.yul\":5957:5982   */\n      swap2\n      pop\n        /* \"#utility.yul\":5996:6016   */\n      tag_140\n        /* \"#utility.yul\":6014:6015   */\n      dup4\n        /* \"#utility.yul\":5996:6016   */\n      tag_60\n      jump\t// in\n    tag_140:\n        /* \"#utility.yul\":5991:6016   */\n      swap3\n      pop\n        /* \"#utility.yul\":6035:6036   */\n      dup3\n        /* \"#utility.yul\":6025:6060   */\n      tag_141\n      jumpi\n        /* \"#utility.yul\":6040:6058   */\n      tag_142\n      tag_73\n      jump\t// in\n    tag_142:\n        /* \"#utility.yul\":6025:6060   */\n    tag_141:\n        /* \"#utility.yul\":6082:6083   */\n      dup3\n        /* \"#utility.yul\":6079:6080   */\n      dup3\n        /* \"#utility.yul\":6075:6084   */\n      div\n        /* \"#utility.yul\":6070:6084   */\n      swap1\n      pop\n        /* \"#utility.yul\":5905:6090   */\n      swap3\n      swap2\n      pop\n      pop\n      jump\t// out\n\n    auxdata: 0xa2646970667358221220762c6820a52fbdb32fbf2d6cba1a9d1d34c00b86c680f1cd7614c4e5d127c15164736f6c634300081a0033\n}\n",
				"bytecode": {
					"linkReferences": {},
					"object": "6080604052348015600e575f80fd5b5061056e8061001c5f395ff3fe608060405234801561000f575f80fd5b506004361061003f575f3560e01c8063893d20e814610043578063d595b5b714610061578063de2927891461007d575b5f80fd5b61004b61009b565b6040516100589190610229565b60405180910390f35b61007b600480360381019061007691906102af565b6100a2565b005b61008561014c565b604051610092919061030e565b60405180910390f35b5f33905090565b5f8160ff16036100bb576100b68383610154565b610147565b60018160ff16036100d5576100d08383610169565b610146565b60028160ff16036100ef576100ea838361017e565b610145565b60038160ff1603610109576101048383610193565b610144565b6040517f08c379a000000000000000000000000000000000000000000000000000000000815260040161013b90610381565b60405180910390fd5b5b5b5b505050565b5f8054905090565b808261016091906103cc565b5f819055505050565b808261017591906103ff565b5f819055505050565b808261018a9190610432565b5f819055505050565b5f81036101d5576040517f08c379a00000000000000000000000000000000000000000000000000000000081526004016101cc906104bd565b60405180910390fd5b80826101e19190610508565b5f819055505050565b5f73ffffffffffffffffffffffffffffffffffffffff82169050919050565b5f610213826101ea565b9050919050565b61022381610209565b82525050565b5f60208201905061023c5f83018461021a565b92915050565b5f80fd5b5f819050919050565b61025881610246565b8114610262575f80fd5b50565b5f813590506102738161024f565b92915050565b5f60ff82169050919050565b61028e81610279565b8114610298575f80fd5b50565b5f813590506102a981610285565b92915050565b5f805f606084860312156102c6576102c5610242565b5b5f6102d386828701610265565b93505060206102e486828701610265565b92505060406102f58682870161029b565b9150509250925092565b61030881610246565b82525050565b5f6020820190506103215f8301846102ff565b92915050565b5f82825260208201905092915050565b7f496e76616c6964204f7065726174696f6e0000000000000000000000000000005f82015250565b5f61036b601183610327565b915061037682610337565b602082019050919050565b5f6020820190508181035f8301526103988161035f565b9050919050565b7f4e487b71000000000000000000000000000000000000000000000000000000005f52601160045260245ffd5b5f6103d682610246565b91506103e183610246565b92508282019050808211156103f9576103f861039f565b5b92915050565b5f61040982610246565b915061041483610246565b925082820390508181111561042c5761042b61039f565b5b92915050565b5f61043c82610246565b915061044783610246565b925082820261045581610246565b9150828204841483151761046c5761046b61039f565b5b5092915050565b7f4469766973696f6e206279207a65726f000000000000000000000000000000005f82015250565b5f6104a7601083610327565b91506104b282610473565b602082019050919050565b5f6020820190508181035f8301526104d48161049b565b9050919050565b7f4e487b71000000000000000000000000000000000000000000000000000000005f52601260045260245ffd5b5f61051282610246565b915061051d83610246565b92508261052d5761052c6104db565b5b82820490509291505056fea2646970667358221220762c6820a52fbdb32fbf2d6cba1a9d1d34c00b86c680f1cd7614c4e5d127c15164736f6c634300081a0033",
					"opcodes": "PUSH1 0x80 PUSH1 0x40 MSTORE CALLVALUE DUP1 ISZERO PUSH1 0xE JUMPI PUSH0 DUP1 REVERT JUMPDEST POP PUSH2 0x56E DUP1 PUSH2 0x1C PUSH0 CODECOPY PUSH0 RETURN INVALID PUSH1 0x80 PUSH1 0x40 MSTORE CALLVALUE DUP1 ISZERO PUSH2 0xF JUMPI PUSH0 DUP1 REVERT JUMPDEST POP PUSH1 0x4 CALLDATASIZE LT PUSH2 0x3F JUMPI PUSH0 CALLDATALOAD PUSH1 0xE0 SHR DUP1 PUSH4 0x893D20E8 EQ PUSH2 0x43 JUMPI DUP1 PUSH4 0xD595B5B7 EQ PUSH2 0x61 JUMPI DUP1 PUSH4 0xDE292789 EQ PUSH2 0x7D JUMPI JUMPDEST PUSH0 DUP1 REVERT JUMPDEST PUSH2 0x4B PUSH2 0x9B JUMP JUMPDEST PUSH1 0x40 MLOAD PUSH2 0x58 SWAP2 SWAP1 PUSH2 0x229 JUMP JUMPDEST PUSH1 0x40 MLOAD DUP1 SWAP2 SUB SWAP1 RETURN JUMPDEST PUSH2 0x7B PUSH1 0x4 DUP1 CALLDATASIZE SUB DUP2 ADD SWAP1 PUSH2 0x76 SWAP2 SWAP1 PUSH2 0x2AF JUMP JUMPDEST PUSH2 0xA2 JUMP JUMPDEST STOP JUMPDEST PUSH2 0x85 PUSH2 0x14C JUMP JUMPDEST PUSH1 0x40 MLOAD PUSH2 0x92 SWAP2 SWAP1 PUSH2 0x30E JUMP JUMPDEST PUSH1 0x40 MLOAD DUP1 SWAP2 SUB SWAP1 RETURN JUMPDEST PUSH0 CALLER SWAP1 POP SWAP1 JUMP JUMPDEST PUSH0 DUP2 PUSH1 0xFF AND SUB PUSH2 0xBB JUMPI PUSH2 0xB6 DUP4 DUP4 PUSH2 0x154 JUMP JUMPDEST PUSH2 0x147 JUMP JUMPDEST PUSH1 0x1 DUP2 PUSH1 0xFF AND SUB PUSH2 0xD5 JUMPI PUSH2 0xD0 DUP4 DUP4 PUSH2 0x169 JUMP JUMPDEST PUSH2 0x146 JUMP JUMPDEST PUSH1 0x2 DUP2 PUSH1 0xFF AND SUB PUSH2 0xEF JUMPI PUSH2 0xEA DUP4 DUP4 PUSH2 0x17E JUMP JUMPDEST PUSH2 0x145 JUMP JUMPDEST PUSH1 0x3 DUP2 PUSH1 0xFF AND SUB PUSH2 0x109 JUMPI PUSH2 0x104 DUP4 DUP4 PUSH2 0x193 JUMP JUMPDEST PUSH2 0x144 JUMP JUMPDEST PUSH1 0x40 MLOAD PUSH32 0x8C379A000000000000000000000000000000000000000000000000000000000 DUP2 MSTORE PUSH1 0x4 ADD PUSH2 0x13B SWAP1 PUSH2 0x381 JUMP JUMPDEST PUSH1 0x40 MLOAD DUP1 SWAP2 SUB SWAP1 REVERT JUMPDEST JUMPDEST JUMPDEST JUMPDEST POP POP POP JUMP JUMPDEST PUSH0 DUP1 SLOAD SWAP1 POP SWAP1 JUMP JUMPDEST DUP1 DUP3 PUSH2 0x160 SWAP2 SWAP1 PUSH2 0x3CC JUMP JUMPDEST PUSH0 DUP2 SWAP1 SSTORE POP POP POP JUMP JUMPDEST DUP1 DUP3 PUSH2 0x175 SWAP2 SWAP1 PUSH2 0x3FF JUMP JUMPDEST PUSH0 DUP2 SWAP1 SSTORE POP POP POP JUMP JUMPDEST DUP1 DUP3 PUSH2 0x18A SWAP2 SWAP1 PUSH2 0x432 JUMP JUMPDEST PUSH0 DUP2 SWAP1 SSTORE POP POP POP JUMP JUMPDEST PUSH0 DUP2 SUB PUSH2 0x1D5 JUMPI PUSH1 0x40 MLOAD PUSH32 0x8C379A000000000000000000000000000000000000000000000000000000000 DUP2 MSTORE PUSH1 0x4 ADD PUSH2 0x1CC SWAP1 PUSH2 0x4BD JUMP JUMPDEST PUSH1 0x40 MLOAD DUP1 SWAP2 SUB SWAP1 REVERT JUMPDEST DUP1 DUP3 PUSH2 0x1E1 SWAP2 SWAP1 PUSH2 0x508 JUMP JUMPDEST PUSH0 DUP2 SWAP1 SSTORE POP POP POP JUMP JUMPDEST PUSH0 PUSH20 0xFFFFFFFFFFFFFFFFFFFFFFFFFFFFFFFFFFFFFFFF DUP3 AND SWAP1 POP SWAP2 SWAP1 POP JUMP JUMPDEST PUSH0 PUSH2 0x213 DUP3 PUSH2 0x1EA JUMP JUMPDEST SWAP1 POP SWAP2 SWAP1 POP JUMP JUMPDEST PUSH2 0x223 DUP2 PUSH2 0x209 JUMP JUMPDEST DUP3 MSTORE POP POP JUMP JUMPDEST PUSH0 PUSH1 0x20 DUP3 ADD SWAP1 POP PUSH2 0x23C PUSH0 DUP4 ADD DUP5 PUSH2 0x21A JUMP JUMPDEST SWAP3 SWAP2 POP POP JUMP JUMPDEST PUSH0 DUP1 REVERT JUMPDEST PUSH0 DUP2 SWAP1 POP SWAP2 SWAP1 POP JUMP JUMPDEST PUSH2 0x258 DUP2 PUSH2 0x246 JUMP JUMPDEST DUP2 EQ PUSH2 0x262 JUMPI PUSH0 DUP1 REVERT JUMPDEST POP JUMP JUMPDEST PUSH0 DUP2 CALLDATALOAD SWAP1 POP PUSH2 0x273 DUP2 PUSH2 0x24F JUMP JUMPDEST SWAP3 SWAP2 POP POP JUMP JUMPDEST PUSH0 PUSH1 0xFF DUP3 AND SWAP1 POP SWAP2 SWAP1 POP JUMP JUMPDEST PUSH2 0x28E DUP2 PUSH2 0x279 JUMP JUMPDEST DUP2 EQ PUSH2 0x298 JUMPI PUSH0 DUP1 REVERT JUMPDEST POP JUMP JUMPDEST PUSH0 DUP2 CALLDATALOAD SWAP1 POP PUSH2 0x2A9 DUP2 PUSH2 0x285 JUMP JUMPDEST SWAP3 SWAP2 POP POP JUMP JUMPDEST PUSH0 DUP1 PUSH0 PUSH1 0x60 DUP5 DUP7 SUB SLT ISZERO PUSH2 0x2C6 JUMPI PUSH2 0x2C5 PUSH2 0x242 JUMP JUMPDEST JUMPDEST PUSH0 PUSH2 0x2D3 DUP7 DUP3 DUP8 ADD PUSH2 0x265 JUMP JUMPDEST SWAP4 POP POP PUSH1 0x20 PUSH2 0x2E4 DUP7 DUP3 DUP8 ADD PUSH2 0x265 JUMP JUMPDEST SWAP3 POP POP PUSH1 0x40 PUSH2 0x2F5 DUP7 DUP3 DUP8 ADD PUSH2 0x29B JUMP JUMPDEST SWAP2 POP POP SWAP3 POP SWAP3 POP SWAP3 JUMP JUMPDEST PUSH2 0x308 DUP2 PUSH2 0x246 JUMP JUMPDEST DUP3 MSTORE POP POP JUMP JUMPDEST PUSH0 PUSH1 0x20 DUP3 ADD SWAP1 POP PUSH2 0x321 PUSH0 DUP4 ADD DUP5 PUSH2 0x2FF JUMP JUMPDEST SWAP3 SWAP2 POP POP JUMP JUMPDEST PUSH0 DUP3 DUP3 MSTORE PUSH1 0x20 DUP3 ADD SWAP1 POP SWAP3 SWAP2 POP POP JUMP JUMPDEST PUSH32 0x496E76616C6964204F7065726174696F6E000000000000000000000000000000 PUSH0 DUP3 ADD MSTORE POP JUMP JUMPDEST PUSH0 PUSH2 0x36B PUSH1 0x11 DUP4 PUSH2 0x327 JUMP JUMPDEST SWAP2 POP PUSH2 0x376 DUP3 PUSH2 0x337 JUMP JUMPDEST PUSH1 0x20 DUP3 ADD SWAP1 POP SWAP2 SWAP1 POP JUMP JUMPDEST PUSH0 PUSH1 0x20 DUP3 ADD SWAP1 POP DUP2 DUP2 SUB PUSH0 DUP4 ADD MSTORE PUSH2 0x398 DUP2 PUSH2 0x35F JUMP JUMPDEST SWAP1 POP SWAP2 SWAP1 POP JUMP JUMPDEST PUSH32 0x4E487B7100000000000000000000000000000000000000000000000000000000 PUSH0 MSTORE PUSH1 0x11 PUSH1 0x4 MSTORE PUSH1 0x24 PUSH0 REVERT JUMPDEST PUSH0 PUSH2 0x3D6 DUP3 PUSH2 0x246 JUMP JUMPDEST SWAP2 POP PUSH2 0x3E1 DUP4 PUSH2 0x246 JUMP JUMPDEST SWAP3 POP DUP3 DUP3 ADD SWAP1 POP DUP1 DUP3 GT ISZERO PUSH2 0x3F9 JUMPI PUSH2 0x3F8 PUSH2 0x39F JUMP JUMPDEST JUMPDEST SWAP3 SWAP2 POP POP JUMP JUMPDEST PUSH0 PUSH2 0x409 DUP3 PUSH2 0x246 JUMP JUMPDEST SWAP2 POP PUSH2 0x414 DUP4 PUSH2 0x246 JUMP JUMPDEST SWAP3 POP DUP3 DUP3 SUB SWAP1 POP DUP2 DUP2 GT ISZERO PUSH2 0x42C JUMPI PUSH2 0x42B PUSH2 0x39F JUMP JUMPDEST JUMPDEST SWAP3 SWAP2 POP POP JUMP JUMPDEST PUSH0 PUSH2 0x43C DUP3 PUSH2 0x246 JUMP JUMPDEST SWAP2 POP PUSH2 0x447 DUP4 PUSH2 0x246 JUMP JUMPDEST SWAP3 POP DUP3 DUP3 MUL PUSH2 0x455 DUP2 PUSH2 0x246 JUMP JUMPDEST SWAP2 POP DUP3 DUP3 DIV DUP5 EQ DUP4 ISZERO OR PUSH2 0x46C JUMPI PUSH2 0x46B PUSH2 0x39F JUMP JUMPDEST JUMPDEST POP SWAP3 SWAP2 POP POP JUMP JUMPDEST PUSH32 0x4469766973696F6E206279207A65726F00000000000000000000000000000000 PUSH0 DUP3 ADD MSTORE POP JUMP JUMPDEST PUSH0 PUSH2 0x4A7 PUSH1 0x10 DUP4 PUSH2 0x327 JUMP JUMPDEST SWAP2 POP PUSH2 0x4B2 DUP3 PUSH2 0x473 JUMP JUMPDEST PUSH1 0x20 DUP3 ADD SWAP1 POP SWAP2 SWAP1 POP JUMP JUMPDEST PUSH0 PUSH1 0x20 DUP3 ADD SWAP1 POP DUP2 DUP2 SUB PUSH0 DUP4 ADD MSTORE PUSH2 0x4D4 DUP2 PUSH2 0x49B JUMP JUMPDEST SWAP1 POP SWAP2 SWAP1 POP JUMP JUMPDEST PUSH32 0x4E487B7100000000000000000000000000000000000000000000000000000000 PUSH0 MSTORE PUSH1 0x12 PUSH1 0x4 MSTORE PUSH1 0x24 PUSH0 REVERT JUMPDEST PUSH0 PUSH2 0x512 DUP3 PUSH2 0x246 JUMP JUMPDEST SWAP2 POP PUSH2 0x51D DUP4 PUSH2 0x246 JUMP JUMPDEST SWAP3 POP DUP3 PUSH2 0x52D JUMPI PUSH2 0x52C PUSH2 0x4DB JUMP JUMPDEST JUMPDEST DUP3 DUP3 DIV SWAP1 POP SWAP3 SWAP2 POP POP JUMP INVALID LOG2 PUSH5 0x6970667358 0x22 SLT KECCAK256 PUSH23 0x2C6820A52FBDB32FBF2D6CBA1A9D1D34C00B86C680F1CD PUSH23 0x14C4E5D127C15164736F6C634300081A00330000000000 "
				},
				"gasEstimates": {
					"creation": {
						"codeDepositCost": "278000",
						"executionCost": "316",
						"totalCost": "278316"
					},
					"external": {
						"getOwner()": "357",
						"getResult()": "2454",
						"performOperation(uint256,uint256,uint8)": "infinite"
					},
					"internal": {
						"devide(uint256,uint256)": "infinite",
						"multiply(uint256,uint256)": "infinite"
					}
				},
				"methodIdentifiers": {
					"getOwner()": "893d20e8",
					"getResult()": "de292789",
					"performOperation(uint256,uint256,uint8)": "d595b5b7"
				}
			},
			"storageLayout": {
				"storage": [
					{
						"astId": 3,
						"contract": "contracts/Calculator.sol:AdvanceCalculator",
						"label": "result",
						"offset": 0,
						"slot": "0",
						"type": "t_uint256"
					}
				],
				"types": {
					"t_uint256": {
						"encoding": "inplace",
						"label": "uint256",
						"numberOfBytes": "32"
					}
				}
			},
			"userdoc": {
				"kind": "user",
				"methods": {},
				"version": 1
			}
		}
	}
}