{
	"contracts/Twitter.sol": {
		"Twitter": {
			"abi": [
				{
					"inputs": [
						{
							"internalType": "address",
							"name": "_profileContract",
							"type": "address"
						}
					],
					"stateMutability": "nonpayable",
					"type": "constructor"
				},
				{
					"inputs": [
						{
							"internalType": "address",
							"name": "owner",
							"type": "address"
						}
					],
					"name": "OwnableInvalidOwner",
					"type": "error"
				},
				{
					"inputs": [
						{
							"internalType": "address",
							"name": "account",
							"type": "address"
						}
					],
					"name": "OwnableUnauthorizedAccount",
					"type": "error"
				},
				{
					"anonymous": false,
					"inputs": [
						{
							"indexed": true,
							"internalType": "address",
							"name": "previousOwner",
							"type": "address"
						},
						{
							"indexed": true,
							"internalType": "address",
							"name": "newOwner",
							"type": "address"
						}
					],
					"name": "OwnershipTransferred",
					"type": "event"
				},
				{
					"anonymous": false,
					"inputs": [
						{
							"indexed": true,
							"internalType": "uint256",
							"name": "id",
							"type": "uint256"
						},
						{
							"indexed": false,
							"internalType": "address",
							"name": "author",
							"type": "address"
						},
						{
							"indexed": false,
							"internalType": "string",
							"name": "content",
							"type": "string"
						},
						{
							"indexed": false,
							"internalType": "uint256",
							"name": "timestamp",
							"type": "uint256"
						}
					],
					"name": "TweetCreated",
					"type": "event"
				},
				{
					"anonymous": false,
					"inputs": [
						{
							"indexed": false,
							"internalType": "address",
							"name": "liker",
							"type": "address"
						},
						{
							"indexed": false,
							"internalType": "address",
							"name": "tweetAuthor",
							"type": "address"
						},
						{
							"indexed": false,
							"internalType": "uint256",
							"name": "tweetId",
							"type": "uint256"
						},
						{
							"indexed": false,
							"internalType": "uint256",
							"name": "newLikeCount",
							"type": "uint256"
						}
					],
					"name": "TweetLiked",
					"type": "event"
				},
				{
					"anonymous": false,
					"inputs": [
						{
							"indexed": false,
							"internalType": "address",
							"name": "unliker",
							"type": "address"
						},
						{
							"indexed": false,
							"internalType": "address",
							"name": "tweetAuthor",
							"type": "address"
						},
						{
							"indexed": false,
							"internalType": "uint256",
							"name": "tweetId",
							"type": "uint256"
						},
						{
							"indexed": false,
							"internalType": "uint256",
							"name": "newLikeCount",
							"type": "uint256"
						}
					],
					"name": "TweetUnLiked",
					"type": "event"
				},
				{
					"inputs": [],
					"name": "MAX_TWEET_LENGTH",
					"outputs": [
						{
							"internalType": "uint16",
							"name": "",
							"type": "uint16"
						}
					],
					"stateMutability": "view",
					"type": "function"
				},
				{
					"inputs": [
						{
							"internalType": "uint16",
							"name": "newTweetLength",
							"type": "uint16"
						}
					],
					"name": "changedTweetLength",
					"outputs": [],
					"stateMutability": "nonpayable",
					"type": "function"
				},
				{
					"inputs": [
						{
							"internalType": "string",
							"name": "_tweet",
							"type": "string"
						}
					],
					"name": "createTweet",
					"outputs": [],
					"stateMutability": "nonpayable",
					"type": "function"
				},
				{
					"inputs": [
						{
							"internalType": "address",
							"name": "_addr",
							"type": "address"
						}
					],
					"name": "deleteTweet",
					"outputs": [],
					"stateMutability": "nonpayable",
					"type": "function"
				},
				{
					"inputs": [
						{
							"internalType": "address",
							"name": "_owner",
							"type": "address"
						}
					],
					"name": "getAllTweets",
					"outputs": [
						{
							"components": [
								{
									"internalType": "uint256",
									"name": "id",
									"type": "uint256"
								},
								{
									"internalType": "address",
									"name": "author",
									"type": "address"
								},
								{
									"internalType": "string",
									"name": "content",
									"type": "string"
								},
								{
									"internalType": "uint256",
									"name": "timestamp",
									"type": "uint256"
								},
								{
									"internalType": "uint256",
									"name": "likes",
									"type": "uint256"
								}
							],
							"internalType": "struct Twitter.Tweet[]",
							"name": "",
							"type": "tuple[]"
						}
					],
					"stateMutability": "view",
					"type": "function"
				},
				{
					"inputs": [
						{
							"internalType": "address",
							"name": "_author",
							"type": "address"
						}
					],
					"name": "getTotalLikes",
					"outputs": [
						{
							"internalType": "uint256",
							"name": "",
							"type": "uint256"
						}
					],
					"stateMutability": "view",
					"type": "function"
				},
				{
					"inputs": [
						{
							"internalType": "uint256",
							"name": "_i",
							"type": "uint256"
						}
					],
					"name": "getTweets",
					"outputs": [
						{
							"components": [
								{
									"internalType": "uint256",
									"name": "id",
									"type": "uint256"
								},
								{
									"internalType": "address",
									"name": "author",
									"type": "address"
								},
								{
									"internalType": "string",
									"name": "content",
									"type": "string"
								},
								{
									"internalType": "uint256",
									"name": "timestamp",
									"type": "uint256"
								},
								{
									"internalType": "uint256",
									"name": "likes",
									"type": "uint256"
								}
							],
							"internalType": "struct Twitter.Tweet",
							"name": "",
							"type": "tuple"
						}
					],
					"stateMutability": "view",
					"type": "function"
				},
				{
					"inputs": [
						{
							"internalType": "uint256",
							"name": "id",
							"type": "uint256"
						},
						{
							"internalType": "address",
							"name": "author",
							"type": "address"
						}
					],
					"name": "likeTweet",
					"outputs": [],
					"stateMutability": "nonpayable",
					"type": "function"
				},
				{
					"inputs": [],
					"name": "owner",
					"outputs": [
						{
							"internalType": "address",
							"name": "",
							"type": "address"
						}
					],
					"stateMutability": "view",
					"type": "function"
				},
				{
					"inputs": [],
					"name": "profileContract",
					"outputs": [
						{
							"internalType": "contract IProfile",
							"name": "",
							"type": "address"
						}
					],
					"stateMutability": "view",
					"type": "function"
				},
				{
					"inputs": [],
					"name": "renounceOwnership",
					"outputs": [],
					"stateMutability": "nonpayable",
					"type": "function"
				},
				{
					"inputs": [
						{
							"internalType": "address",
							"name": "newOwner",
							"type": "address"
						}
					],
					"name": "transferOwnership",
					"outputs": [],
					"stateMutability": "nonpayable",
					"type": "function"
				},
				{
					"inputs": [
						{
							"internalType": "address",
							"name": "",
							"type": "address"
						},
						{
							"internalType": "uint256",
							"name": "",
							"type": "uint256"
						}
					],
					"name": "tweets",
					"outputs": [
						{
							"internalType": "uint256",
							"name": "id",
							"type": "uint256"
						},
						{
							"internalType": "address",
							"name": "author",
							"type": "address"
						},
						{
							"internalType": "string",
							"name": "content",
							"type": "string"
						},
						{
							"internalType": "uint256",
							"name": "timestamp",
							"type": "uint256"
						},
						{
							"internalType": "uint256",
							"name": "likes",
							"type": "uint256"
						}
					],
					"stateMutability": "view",
					"type": "function"
				},
				{
					"inputs": [
						{
							"internalType": "uint256",
							"name": "id",
							"type": "uint256"
						},
						{
							"internalType": "address",
							"name": "author",
							"type": "address"
						}
					],
					"name": "unlikeTweet",
					"outputs": [],
					"stateMutability": "nonpayable",
					"type": "function"
				}
			],
			"devdoc": {
				"errors": {
					"OwnableInvalidOwner(address)": [
						{
							"details": "The owner is not a valid owner account. (eg. `address(0)`)"
						}
					],
					"OwnableUnauthorizedAccount(address)": [
						{
							"details": "The caller account is not authorized to perform an operation."
						}
					]
				},
				"kind": "dev",
				"methods": {
					"owner()": {
						"details": "Returns the address of the current owner."
					},
					"renounceOwnership()": {
						"details": "Leaves the contract without owner. It will not be possible to call `onlyOwner` functions. Can only be called by the current owner. NOTE: Renouncing ownership will leave the contract without an owner, thereby disabling any functionality that is only available to the owner."
					},
					"transferOwnership(address)": {
						"details": "Transfers ownership of the contract to a new account (`newOwner`). Can only be called by the current owner."
					}
				},
				"version": 1
			},
			"evm": {
				"assembly": "    /* \"contracts/Twitter.sol\":799:4081  contract Twitter is Ownable {... */\n  mstore(0x40, 0x80)\n    /* \"contracts/Twitter.sol\":1335:1338  280 */\n  0x0118\n    /* \"contracts/Twitter.sol\":1302:1338  uint16 public MAX_TWEET_LENGTH = 280 */\n  0x02\n  exp(0x0100, 0x00)\n  dup2\n  sload\n  dup2\n  0xffff\n  mul\n  not\n  and\n  swap1\n  dup4\n  0xffff\n  and\n  mul\n  or\n  swap1\n  sstore\n  pop\n    /* \"contracts/Twitter.sol\":1579:1698  constructor(address _profileContract) Ownable(msg.sender) {... */\n  callvalue\n  dup1\n  iszero\n  tag_1\n  jumpi\n  0x00\n  dup1\n  revert\ntag_1:\n  pop\n  mload(0x40)\n  sub(codesize, bytecodeSize)\n  dup1\n  bytecodeSize\n  dup4\n  codecopy\n  dup2\n  dup2\n  add\n  0x40\n  mstore\n  dup2\n  add\n  swap1\n  tag_2\n  swap2\n  swap1\n  tag_3\n  jump\t// in\ntag_2:\n    /* \"contracts/Twitter.sol\":1625:1635  msg.sender */\n  caller\n    /* \"@openzeppelin/contracts/access/Ownable.sol\":1297:1298  0 */\n  0x00\n    /* \"@openzeppelin/contracts/access/Ownable.sol\":1273:1299  initialOwner == address(0) */\n  0xffffffffffffffffffffffffffffffffffffffff\n  and\n    /* \"@openzeppelin/contracts/access/Ownable.sol\":1273:1285  initialOwner */\n  dup2\n    /* \"@openzeppelin/contracts/access/Ownable.sol\":1273:1299  initialOwner == address(0) */\n  0xffffffffffffffffffffffffffffffffffffffff\n  and\n  sub\n    /* \"@openzeppelin/contracts/access/Ownable.sol\":1269:1364  if (initialOwner == address(0)) {... */\n  tag_7\n  jumpi\n    /* \"@openzeppelin/contracts/access/Ownable.sol\":1350:1351  0 */\n  0x00\n    /* \"@openzeppelin/contracts/access/Ownable.sol\":1322:1353  OwnableInvalidOwner(address(0)) */\n  mload(0x40)\n  0x1e4fbdf700000000000000000000000000000000000000000000000000000000\n  dup2\n  mstore\n  0x04\n  add\n  tag_8\n  swap2\n  swap1\n  tag_9\n  jump\t// in\ntag_8:\n  mload(0x40)\n  dup1\n  swap2\n  sub\n  swap1\n  revert\n    /* \"@openzeppelin/contracts/access/Ownable.sol\":1269:1364  if (initialOwner == address(0)) {... */\ntag_7:\n    /* \"@openzeppelin/contracts/access/Ownable.sol\":1373:1405  _transferOwnership(initialOwner) */\n  tag_10\n    /* \"@openzeppelin/contracts/access/Ownable.sol\":1392:1404  initialOwner */\n  dup2\n    /* \"@openzeppelin/contracts/access/Ownable.sol\":1373:1391  _transferOwnership */\n  shl(0x20, tag_11)\n    /* \"@openzeppelin/contracts/access/Ownable.sol\":1373:1405  _transferOwnership(initialOwner) */\n  0x20\n  shr\n  jump\t// in\ntag_10:\n    /* \"@openzeppelin/contracts/access/Ownable.sol\":1225:1412  constructor(address initialOwner) {... */\n  pop\n    /* \"contracts/Twitter.sol\":1674:1690  _profileContract */\n  dup1\n    /* \"contracts/Twitter.sol\":1647:1662  profileContract */\n  0x02\n  dup1\n    /* \"contracts/Twitter.sol\":1647:1691  profileContract = IProfile(_profileContract) */\n  0x0100\n  exp\n  dup2\n  sload\n  dup2\n  0xffffffffffffffffffffffffffffffffffffffff\n  mul\n  not\n  and\n  swap1\n  dup4\n  0xffffffffffffffffffffffffffffffffffffffff\n  and\n  mul\n  or\n  swap1\n  sstore\n  pop\n    /* \"contracts/Twitter.sol\":1579:1698  constructor(address _profileContract) Ownable(msg.sender) {... */\n  pop\n    /* \"contracts/Twitter.sol\":799:4081  contract Twitter is Ownable {... */\n  jump(tag_13)\n    /* \"@openzeppelin/contracts/access/Ownable.sol\":2912:3099  function _transferOwnership(address newOwner) internal virtual {... */\ntag_11:\n    /* \"@openzeppelin/contracts/access/Ownable.sol\":2985:3001  address oldOwner */\n  0x00\n    /* \"@openzeppelin/contracts/access/Ownable.sol\":3004:3010  _owner */\n  dup1\n  0x00\n  swap1\n  sload\n  swap1\n  0x0100\n  exp\n  swap1\n  div\n  0xffffffffffffffffffffffffffffffffffffffff\n  and\n    /* \"@openzeppelin/contracts/access/Ownable.sol\":2985:3010  address oldOwner = _owner */\n  swap1\n  pop\n    /* \"@openzeppelin/contracts/access/Ownable.sol\":3029:3037  newOwner */\n  dup2\n    /* \"@openzeppelin/contracts/access/Ownable.sol\":3020:3026  _owner */\n  0x00\n  dup1\n    /* \"@openzeppelin/contracts/access/Ownable.sol\":3020:3037  _owner = newOwner */\n  0x0100\n  exp\n  dup2\n  sload\n  dup2\n  0xffffffffffffffffffffffffffffffffffffffff\n  mul\n  not\n  and\n  swap1\n  dup4\n  0xffffffffffffffffffffffffffffffffffffffff\n  and\n  mul\n  or\n  swap1\n  sstore\n  pop\n    /* \"@openzeppelin/contracts/access/Ownable.sol\":3083:3091  newOwner */\n  dup2\n    /* \"@openzeppelin/contracts/access/Ownable.sol\":3052:3092  OwnershipTransferred(oldOwner, newOwner) */\n  0xffffffffffffffffffffffffffffffffffffffff\n  and\n    /* \"@openzeppelin/contracts/access/Ownable.sol\":3073:3081  oldOwner */\n  dup2\n    /* \"@openzeppelin/contracts/access/Ownable.sol\":3052:3092  OwnershipTransferred(oldOwner, newOwner) */\n  0xffffffffffffffffffffffffffffffffffffffff\n  and\n  0x8be0079c531659141344cd1fd0a4f28419497f9722a3daafe3b4186f6b6457e0\n  mload(0x40)\n  mload(0x40)\n  dup1\n  swap2\n  sub\n  swap1\n  log3\n    /* \"@openzeppelin/contracts/access/Ownable.sol\":2975:3099  {... */\n  pop\n    /* \"@openzeppelin/contracts/access/Ownable.sol\":2912:3099  function _transferOwnership(address newOwner) internal virtual {... */\n  pop\n  jump\t// out\n    /* \"#utility.yul\":88:205   */\ntag_16:\n    /* \"#utility.yul\":197:198   */\n  0x00\n    /* \"#utility.yul\":194:195   */\n  dup1\n    /* \"#utility.yul\":187:199   */\n  revert\n    /* \"#utility.yul\":334:460   */\ntag_18:\n    /* \"#utility.yul\":371:378   */\n  0x00\n    /* \"#utility.yul\":411:453   */\n  0xffffffffffffffffffffffffffffffffffffffff\n    /* \"#utility.yul\":404:409   */\n  dup3\n    /* \"#utility.yul\":400:454   */\n  and\n    /* \"#utility.yul\":389:454   */\n  swap1\n  pop\n    /* \"#utility.yul\":334:460   */\n  swap2\n  swap1\n  pop\n  jump\t// out\n    /* \"#utility.yul\":466:562   */\ntag_19:\n    /* \"#utility.yul\":503:510   */\n  0x00\n    /* \"#utility.yul\":532:556   */\n  tag_29\n    /* \"#utility.yul\":550:555   */\n  dup3\n    /* \"#utility.yul\":532:556   */\n  tag_18\n  jump\t// in\ntag_29:\n    /* \"#utility.yul\":521:556   */\n  swap1\n  pop\n    /* \"#utility.yul\":466:562   */\n  swap2\n  swap1\n  pop\n  jump\t// out\n    /* \"#utility.yul\":568:690   */\ntag_20:\n    /* \"#utility.yul\":641:665   */\n  tag_31\n    /* \"#utility.yul\":659:664   */\n  dup2\n    /* \"#utility.yul\":641:665   */\n  tag_19\n  jump\t// in\ntag_31:\n    /* \"#utility.yul\":634:639   */\n  dup2\n    /* \"#utility.yul\":631:666   */\n  eq\n    /* \"#utility.yul\":621:684   */\n  tag_32\n  jumpi\n    /* \"#utility.yul\":680:681   */\n  0x00\n    /* \"#utility.yul\":677:678   */\n  dup1\n    /* \"#utility.yul\":670:682   */\n  revert\n    /* \"#utility.yul\":621:684   */\ntag_32:\n    /* \"#utility.yul\":568:690   */\n  pop\n  jump\t// out\n    /* \"#utility.yul\":696:839   */\ntag_21:\n    /* \"#utility.yul\":753:758   */\n  0x00\n    /* \"#utility.yul\":784:790   */\n  dup2\n    /* \"#utility.yul\":778:791   */\n  mload\n    /* \"#utility.yul\":769:791   */\n  swap1\n  pop\n    /* \"#utility.yul\":800:833   */\n  tag_34\n    /* \"#utility.yul\":827:832   */\n  dup2\n    /* \"#utility.yul\":800:833   */\n  tag_20\n  jump\t// in\ntag_34:\n    /* \"#utility.yul\":696:839   */\n  swap3\n  swap2\n  pop\n  pop\n  jump\t// out\n    /* \"#utility.yul\":845:1196   */\ntag_3:\n    /* \"#utility.yul\":915:921   */\n  0x00\n    /* \"#utility.yul\":964:966   */\n  0x20\n    /* \"#utility.yul\":952:961   */\n  dup3\n    /* \"#utility.yul\":943:950   */\n  dup5\n    /* \"#utility.yul\":939:962   */\n  sub\n    /* \"#utility.yul\":935:967   */\n  slt\n    /* \"#utility.yul\":932:1051   */\n  iszero\n  tag_36\n  jumpi\n    /* \"#utility.yul\":970:1049   */\n  tag_37\n  tag_16\n  jump\t// in\ntag_37:\n    /* \"#utility.yul\":932:1051   */\ntag_36:\n    /* \"#utility.yul\":1090:1091   */\n  0x00\n    /* \"#utility.yul\":1115:1179   */\n  tag_38\n    /* \"#utility.yul\":1171:1178   */\n  dup5\n    /* \"#utility.yul\":1162:1168   */\n  dup3\n    /* \"#utility.yul\":1151:1160   */\n  dup6\n    /* \"#utility.yul\":1147:1169   */\n  add\n    /* \"#utility.yul\":1115:1179   */\n  tag_21\n  jump\t// in\ntag_38:\n    /* \"#utility.yul\":1105:1179   */\n  swap2\n  pop\n    /* \"#utility.yul\":1061:1189   */\n  pop\n    /* \"#utility.yul\":845:1196   */\n  swap3\n  swap2\n  pop\n  pop\n  jump\t// out\n    /* \"#utility.yul\":1202:1320   */\ntag_22:\n    /* \"#utility.yul\":1289:1313   */\n  tag_40\n    /* \"#utility.yul\":1307:1312   */\n  dup2\n    /* \"#utility.yul\":1289:1313   */\n  tag_19\n  jump\t// in\ntag_40:\n    /* \"#utility.yul\":1284:1287   */\n  dup3\n    /* \"#utility.yul\":1277:1314   */\n  mstore\n    /* \"#utility.yul\":1202:1320   */\n  pop\n  pop\n  jump\t// out\n    /* \"#utility.yul\":1326:1548   */\ntag_9:\n    /* \"#utility.yul\":1419:1423   */\n  0x00\n    /* \"#utility.yul\":1457:1459   */\n  0x20\n    /* \"#utility.yul\":1446:1455   */\n  dup3\n    /* \"#utility.yul\":1442:1460   */\n  add\n    /* \"#utility.yul\":1434:1460   */\n  swap1\n  pop\n    /* \"#utility.yul\":1470:1541   */\n  tag_42\n    /* \"#utility.yul\":1538:1539   */\n  0x00\n    /* \"#utility.yul\":1527:1536   */\n  dup4\n    /* \"#utility.yul\":1523:1540   */\n  add\n    /* \"#utility.yul\":1514:1520   */\n  dup5\n    /* \"#utility.yul\":1470:1541   */\n  tag_22\n  jump\t// in\ntag_42:\n    /* \"#utility.yul\":1326:1548   */\n  swap3\n  swap2\n  pop\n  pop\n  jump\t// out\n    /* \"contracts/Twitter.sol\":799:4081  contract Twitter is Ownable {... */\ntag_13:\n  dataSize(sub_0)\n  dup1\n  dataOffset(sub_0)\n  0x00\n  codecopy\n  0x00\n  return\nstop\n\nsub_0: assembly {\n        /* \"contracts/Twitter.sol\":799:4081  contract Twitter is Ownable {... */\n      mstore(0x40, 0x80)\n      callvalue\n      dup1\n      iszero\n      tag_1\n      jumpi\n      0x00\n      dup1\n      revert\n    tag_1:\n      pop\n      jumpi(tag_2, lt(calldatasize, 0x04))\n      shr(0xe0, calldataload(0x00))\n      dup1\n      0x820785cc\n      gt\n      tag_17\n      jumpi\n      dup1\n      0xa3974b21\n      gt\n      tag_18\n      jumpi\n      dup1\n      0xa3974b21\n      eq\n      tag_13\n      jumpi\n      dup1\n      0xd04ddaa0\n      eq\n      tag_14\n      jumpi\n      dup1\n      0xed9bb8d7\n      eq\n      tag_15\n      jumpi\n      dup1\n      0xf2fde38b\n      eq\n      tag_16\n      jumpi\n      jump(tag_2)\n    tag_18:\n      dup1\n      0x820785cc\n      eq\n      tag_10\n      jumpi\n      dup1\n      0x8da5cb5b\n      eq\n      tag_11\n      jumpi\n      dup1\n      0xa1488f7c\n      eq\n      tag_12\n      jumpi\n      jump(tag_2)\n    tag_17:\n      dup1\n      0x6d003c01\n      gt\n      tag_19\n      jumpi\n      dup1\n      0x6d003c01\n      eq\n      tag_6\n      jumpi\n      dup1\n      0x6eb10797\n      eq\n      tag_7\n      jumpi\n      dup1\n      0x715018a6\n      eq\n      tag_8\n      jumpi\n      dup1\n      0x7c9cd2bc\n      eq\n      tag_9\n      jumpi\n      jump(tag_2)\n    tag_19:\n      dup1\n      0x05a1b4a9\n      eq\n      tag_3\n      jumpi\n      dup1\n      0x12e7ee1c\n      eq\n      tag_4\n      jumpi\n      dup1\n      0x20f7e65c\n      eq\n      tag_5\n      jumpi\n    tag_2:\n      0x00\n      dup1\n      revert\n        /* \"contracts/Twitter.sol\":1254:1295  mapping(address => Tweet[]) public tweets */\n    tag_3:\n      tag_20\n      0x04\n      dup1\n      calldatasize\n      sub\n      dup2\n      add\n      swap1\n      tag_21\n      swap2\n      swap1\n      tag_22\n      jump\t// in\n    tag_21:\n      tag_23\n      jump\t// in\n    tag_20:\n      mload(0x40)\n      tag_24\n      swap6\n      swap5\n      swap4\n      swap3\n      swap2\n      swap1\n      tag_25\n      jump\t// in\n    tag_24:\n      mload(0x40)\n      dup1\n      swap2\n      sub\n      swap1\n      return\n        /* \"contracts/Twitter.sol\":2988:3101  function getAllTweets(address _owner) public view returns (Tweet[] memory) {... */\n    tag_4:\n      tag_26\n      0x04\n      dup1\n      calldatasize\n      sub\n      dup2\n      add\n      swap1\n      tag_27\n      swap2\n      swap1\n      tag_28\n      jump\t// in\n    tag_27:\n      tag_29\n      jump\t// in\n    tag_26:\n      mload(0x40)\n      tag_30\n      swap2\n      swap1\n      tag_31\n      jump\t// in\n    tag_30:\n      mload(0x40)\n      dup1\n      swap2\n      sub\n      swap1\n      return\n        /* \"contracts/Twitter.sol\":3107:3187  function deleteTweet(address _addr) public {... */\n    tag_5:\n      tag_32\n      0x04\n      dup1\n      calldatasize\n      sub\n      dup2\n      add\n      swap1\n      tag_33\n      swap2\n      swap1\n      tag_28\n      jump\t// in\n    tag_33:\n      tag_34\n      jump\t// in\n    tag_32:\n      stop\n        /* \"contracts/Twitter.sol\":1966:2084  function changedTweetLength(uint16 newTweetLength) public onlyOwner {... */\n    tag_6:\n      tag_35\n      0x04\n      dup1\n      calldatasize\n      sub\n      dup2\n      add\n      swap1\n      tag_36\n      swap2\n      swap1\n      tag_37\n      jump\t// in\n    tag_36:\n      tag_38\n      jump\t// in\n    tag_35:\n      stop\n        /* \"contracts/Twitter.sol\":1302:1338  uint16 public MAX_TWEET_LENGTH = 280 */\n    tag_7:\n      tag_39\n      tag_40\n      jump\t// in\n    tag_39:\n      mload(0x40)\n      tag_41\n      swap2\n      swap1\n      tag_42\n      jump\t// in\n    tag_41:\n      mload(0x40)\n      dup1\n      swap2\n      sub\n      swap1\n      return\n        /* \"@openzeppelin/contracts/access/Ownable.sol\":2293:2394  function renounceOwnership() public virtual onlyOwner {... */\n    tag_8:\n      tag_43\n      tag_44\n      jump\t// in\n    tag_43:\n      stop\n        /* \"contracts/Twitter.sol\":2090:2711  function createTweet(string memory _tweet) public onlyRegistered {... */\n    tag_9:\n      tag_45\n      0x04\n      dup1\n      calldatasize\n      sub\n      dup2\n      add\n      swap1\n      tag_46\n      swap2\n      swap1\n      tag_47\n      jump\t// in\n    tag_46:\n      tag_48\n      jump\t// in\n    tag_45:\n      stop\n        /* \"contracts/Twitter.sol\":3818:4079  function getTotalLikes(address _author) external view returns (uint256) {... */\n    tag_10:\n      tag_49\n      0x04\n      dup1\n      calldatasize\n      sub\n      dup2\n      add\n      swap1\n      tag_50\n      swap2\n      swap1\n      tag_28\n      jump\t// in\n    tag_50:\n      tag_51\n      jump\t// in\n    tag_49:\n      mload(0x40)\n      tag_52\n      swap2\n      swap1\n      tag_53\n      jump\t// in\n    tag_52:\n      mload(0x40)\n      dup1\n      swap2\n      sub\n      swap1\n      return\n        /* \"@openzeppelin/contracts/access/Ownable.sol\":1638:1723  function owner() public view virtual returns (address) {... */\n    tag_11:\n      tag_54\n      tag_55\n      jump\t// in\n    tag_54:\n      mload(0x40)\n      tag_56\n      swap2\n      swap1\n      tag_57\n      jump\t// in\n    tag_56:\n      mload(0x40)\n      dup1\n      swap2\n      sub\n      swap1\n      return\n        /* \"contracts/Twitter.sol\":3460:3795  function unlikeTweet(uint256 id, address author) external onlyRegistered {... */\n    tag_12:\n      tag_58\n      0x04\n      dup1\n      calldatasize\n      sub\n      dup2\n      add\n      swap1\n      tag_59\n      swap2\n      swap1\n      tag_60\n      jump\t// in\n    tag_59:\n      tag_61\n      jump\t// in\n    tag_58:\n      stop\n        /* \"contracts/Twitter.sol\":1344:1375  IProfile public profileContract */\n    tag_13:\n      tag_62\n      tag_63\n      jump\t// in\n    tag_62:\n      mload(0x40)\n      tag_64\n      swap2\n      swap1\n      tag_65\n      jump\t// in\n    tag_64:\n      mload(0x40)\n      dup1\n      swap2\n      sub\n      swap1\n      return\n        /* \"contracts/Twitter.sol\":3193:3454  function likeTweet(uint256 id, address author) external onlyRegistered {... */\n    tag_14:\n      tag_66\n      0x04\n      dup1\n      calldatasize\n      sub\n      dup2\n      add\n      swap1\n      tag_67\n      swap2\n      swap1\n      tag_60\n      jump\t// in\n    tag_67:\n      tag_68\n      jump\t// in\n    tag_66:\n      stop\n        /* \"contracts/Twitter.sol\":2717:2982  function getTweets(uint256 _i) public view returns (Tweet memory) {... */\n    tag_15:\n      tag_69\n      0x04\n      dup1\n      calldatasize\n      sub\n      dup2\n      add\n      swap1\n      tag_70\n      swap2\n      swap1\n      tag_71\n      jump\t// in\n    tag_70:\n      tag_72\n      jump\t// in\n    tag_69:\n      mload(0x40)\n      tag_73\n      swap2\n      swap1\n      tag_74\n      jump\t// in\n    tag_73:\n      mload(0x40)\n      dup1\n      swap2\n      sub\n      swap1\n      return\n        /* \"@openzeppelin/contracts/access/Ownable.sol\":2543:2758  function transferOwnership(address newOwner) public virtual onlyOwner {... */\n    tag_16:\n      tag_75\n      0x04\n      dup1\n      calldatasize\n      sub\n      dup2\n      add\n      swap1\n      tag_76\n      swap2\n      swap1\n      tag_28\n      jump\t// in\n    tag_76:\n      tag_77\n      jump\t// in\n    tag_75:\n      stop\n        /* \"contracts/Twitter.sol\":1254:1295  mapping(address => Tweet[]) public tweets */\n    tag_23:\n      mstore(0x20, 0x01)\n      dup2\n      0x00\n      mstore\n      keccak256(0x00, 0x40)\n      dup2\n      dup2\n      sload\n      dup2\n      lt\n      tag_78\n      jumpi\n      0x00\n      dup1\n      revert\n    tag_78:\n      swap1\n      0x00\n      mstore\n      keccak256(0x00, 0x20)\n      swap1\n      0x05\n      mul\n      add\n      0x00\n      swap2\n      pop\n      swap2\n      pop\n      pop\n      dup1\n      0x00\n      add\n      sload\n      swap1\n      dup1\n      0x01\n      add\n      0x00\n      swap1\n      sload\n      swap1\n      0x0100\n      exp\n      swap1\n      div\n      0xffffffffffffffffffffffffffffffffffffffff\n      and\n      swap1\n      dup1\n      0x02\n      add\n      dup1\n      sload\n      tag_80\n      swap1\n      tag_81\n      jump\t// in\n    tag_80:\n      dup1\n      0x1f\n      add\n      0x20\n      dup1\n      swap2\n      div\n      mul\n      0x20\n      add\n      mload(0x40)\n      swap1\n      dup2\n      add\n      0x40\n      mstore\n      dup1\n      swap3\n      swap2\n      swap1\n      dup2\n      dup2\n      mstore\n      0x20\n      add\n      dup3\n      dup1\n      sload\n      tag_82\n      swap1\n      tag_81\n      jump\t// in\n    tag_82:\n      dup1\n      iszero\n      tag_83\n      jumpi\n      dup1\n      0x1f\n      lt\n      tag_84\n      jumpi\n      0x0100\n      dup1\n      dup4\n      sload\n      div\n      mul\n      dup4\n      mstore\n      swap2\n      0x20\n      add\n      swap2\n      jump(tag_83)\n    tag_84:\n      dup3\n      add\n      swap2\n      swap1\n      0x00\n      mstore\n      keccak256(0x00, 0x20)\n      swap1\n    tag_85:\n      dup2\n      sload\n      dup2\n      mstore\n      swap1\n      0x01\n      add\n      swap1\n      0x20\n      add\n      dup1\n      dup4\n      gt\n      tag_85\n      jumpi\n      dup3\n      swap1\n      sub\n      0x1f\n      and\n      dup3\n      add\n      swap2\n    tag_83:\n      pop\n      pop\n      pop\n      pop\n      pop\n      swap1\n      dup1\n      0x03\n      add\n      sload\n      swap1\n      dup1\n      0x04\n      add\n      sload\n      swap1\n      pop\n      dup6\n      jump\t// out\n        /* \"contracts/Twitter.sol\":2988:3101  function getAllTweets(address _owner) public view returns (Tweet[] memory) {... */\n    tag_29:\n        /* \"contracts/Twitter.sol\":3047:3061  Tweet[] memory */\n      0x60\n        /* \"contracts/Twitter.sol\":3080:3086  tweets */\n      0x01\n        /* \"contracts/Twitter.sol\":3080:3094  tweets[_owner] */\n      0x00\n        /* \"contracts/Twitter.sol\":3087:3093  _owner */\n      dup4\n        /* \"contracts/Twitter.sol\":3080:3094  tweets[_owner] */\n      0xffffffffffffffffffffffffffffffffffffffff\n      and\n      0xffffffffffffffffffffffffffffffffffffffff\n      and\n      dup2\n      mstore\n      0x20\n      add\n      swap1\n      dup2\n      mstore\n      0x20\n      add\n      0x00\n      keccak256\n        /* \"contracts/Twitter.sol\":3073:3094  return tweets[_owner] */\n      dup1\n      sload\n      dup1\n      0x20\n      mul\n      0x20\n      add\n      mload(0x40)\n      swap1\n      dup2\n      add\n      0x40\n      mstore\n      dup1\n      swap3\n      swap2\n      swap1\n      dup2\n      dup2\n      mstore\n      0x20\n      add\n      0x00\n      swap1\n    tag_87:\n      dup3\n      dup3\n      lt\n      iszero\n      tag_88\n      jumpi\n      dup4\n      dup3\n      swap1\n      0x00\n      mstore\n      keccak256(0x00, 0x20)\n      swap1\n      0x05\n      mul\n      add\n      mload(0x40)\n      dup1\n      0xa0\n      add\n      0x40\n      mstore\n      swap1\n      dup2\n      0x00\n      dup3\n      add\n      sload\n      dup2\n      mstore\n      0x20\n      add\n      0x01\n      dup3\n      add\n      0x00\n      swap1\n      sload\n      swap1\n      0x0100\n      exp\n      swap1\n      div\n      0xffffffffffffffffffffffffffffffffffffffff\n      and\n      0xffffffffffffffffffffffffffffffffffffffff\n      and\n      0xffffffffffffffffffffffffffffffffffffffff\n      and\n      dup2\n      mstore\n      0x20\n      add\n      0x02\n      dup3\n      add\n      dup1\n      sload\n      tag_90\n      swap1\n      tag_81\n      jump\t// in\n    tag_90:\n      dup1\n      0x1f\n      add\n      0x20\n      dup1\n      swap2\n      div\n      mul\n      0x20\n      add\n      mload(0x40)\n      swap1\n      dup2\n      add\n      0x40\n      mstore\n      dup1\n      swap3\n      swap2\n      swap1\n      dup2\n      dup2\n      mstore\n      0x20\n      add\n      dup3\n      dup1\n      sload\n      tag_91\n      swap1\n      tag_81\n      jump\t// in\n    tag_91:\n      dup1\n      iszero\n      tag_92\n      jumpi\n      dup1\n      0x1f\n      lt\n      tag_93\n      jumpi\n      0x0100\n      dup1\n      dup4\n      sload\n      div\n      mul\n      dup4\n      mstore\n      swap2\n      0x20\n      add\n      swap2\n      jump(tag_92)\n    tag_93:\n      dup3\n      add\n      swap2\n      swap1\n      0x00\n      mstore\n      keccak256(0x00, 0x20)\n      swap1\n    tag_94:\n      dup2\n      sload\n      dup2\n      mstore\n      swap1\n      0x01\n      add\n      swap1\n      0x20\n      add\n      dup1\n      dup4\n      gt\n      tag_94\n      jumpi\n      dup3\n      swap1\n      sub\n      0x1f\n      and\n      dup3\n      add\n      swap2\n    tag_92:\n      pop\n      pop\n      pop\n      pop\n      pop\n      dup2\n      mstore\n      0x20\n      add\n      0x03\n      dup3\n      add\n      sload\n      dup2\n      mstore\n      0x20\n      add\n      0x04\n      dup3\n      add\n      sload\n      dup2\n      mstore\n      pop\n      pop\n      dup2\n      mstore\n      0x20\n      add\n      swap1\n      0x01\n      add\n      swap1\n      jump(tag_87)\n    tag_88:\n      pop\n      pop\n      pop\n      pop\n      swap1\n      pop\n        /* \"contracts/Twitter.sol\":2988:3101  function getAllTweets(address _owner) public view returns (Tweet[] memory) {... */\n      swap2\n      swap1\n      pop\n      jump\t// out\n        /* \"contracts/Twitter.sol\":3107:3187  function deleteTweet(address _addr) public {... */\n    tag_34:\n        /* \"contracts/Twitter.sol\":3167:3173  tweets */\n      0x01\n        /* \"contracts/Twitter.sol\":3167:3180  tweets[_addr] */\n      0x00\n        /* \"contracts/Twitter.sol\":3174:3179  _addr */\n      dup3\n        /* \"contracts/Twitter.sol\":3167:3180  tweets[_addr] */\n      0xffffffffffffffffffffffffffffffffffffffff\n      and\n      0xffffffffffffffffffffffffffffffffffffffff\n      and\n      dup2\n      mstore\n      0x20\n      add\n      swap1\n      dup2\n      mstore\n      0x20\n      add\n      0x00\n      keccak256\n      0x00\n        /* \"contracts/Twitter.sol\":3160:3180  delete tweets[_addr] */\n      tag_96\n      swap2\n      swap1\n      tag_97\n      jump\t// in\n    tag_96:\n        /* \"contracts/Twitter.sol\":3107:3187  function deleteTweet(address _addr) public {... */\n      pop\n      jump\t// out\n        /* \"contracts/Twitter.sol\":1966:2084  function changedTweetLength(uint16 newTweetLength) public onlyOwner {... */\n    tag_38:\n        /* \"@openzeppelin/contracts/access/Ownable.sol\":1531:1544  _checkOwner() */\n      tag_99\n        /* \"@openzeppelin/contracts/access/Ownable.sol\":1531:1542  _checkOwner */\n      tag_100\n        /* \"@openzeppelin/contracts/access/Ownable.sol\":1531:1544  _checkOwner() */\n      jump\t// in\n    tag_99:\n        /* \"contracts/Twitter.sol\":2063:2077  newTweetLength */\n      dup1\n        /* \"contracts/Twitter.sol\":2044:2060  MAX_TWEET_LENGTH */\n      0x02\n      0x00\n        /* \"contracts/Twitter.sol\":2044:2077  MAX_TWEET_LENGTH = newTweetLength */\n      0x0100\n      exp\n      dup2\n      sload\n      dup2\n      0xffff\n      mul\n      not\n      and\n      swap1\n      dup4\n      0xffff\n      and\n      mul\n      or\n      swap1\n      sstore\n      pop\n        /* \"contracts/Twitter.sol\":1966:2084  function changedTweetLength(uint16 newTweetLength) public onlyOwner {... */\n      pop\n      jump\t// out\n        /* \"contracts/Twitter.sol\":1302:1338  uint16 public MAX_TWEET_LENGTH = 280 */\n    tag_40:\n      0x02\n      0x00\n      swap1\n      sload\n      swap1\n      0x0100\n      exp\n      swap1\n      div\n      0xffff\n      and\n      dup2\n      jump\t// out\n        /* \"@openzeppelin/contracts/access/Ownable.sol\":2293:2394  function renounceOwnership() public virtual onlyOwner {... */\n    tag_44:\n        /* \"@openzeppelin/contracts/access/Ownable.sol\":1531:1544  _checkOwner() */\n      tag_103\n        /* \"@openzeppelin/contracts/access/Ownable.sol\":1531:1542  _checkOwner */\n      tag_100\n        /* \"@openzeppelin/contracts/access/Ownable.sol\":1531:1544  _checkOwner() */\n      jump\t// in\n    tag_103:\n        /* \"@openzeppelin/contracts/access/Ownable.sol\":2357:2387  _transferOwnership(address(0)) */\n      tag_105\n        /* \"@openzeppelin/contracts/access/Ownable.sol\":2384:2385  0 */\n      0x00\n        /* \"@openzeppelin/contracts/access/Ownable.sol\":2357:2375  _transferOwnership */\n      tag_106\n        /* \"@openzeppelin/contracts/access/Ownable.sol\":2357:2387  _transferOwnership(address(0)) */\n      jump\t// in\n    tag_105:\n        /* \"@openzeppelin/contracts/access/Ownable.sol\":2293:2394  function renounceOwnership() public virtual onlyOwner {... */\n      jump\t// out\n        /* \"contracts/Twitter.sol\":2090:2711  function createTweet(string memory _tweet) public onlyRegistered {... */\n    tag_48:\n        /* \"contracts/Twitter.sol\":1755:1798  IProfile.UserProfile memory userProfileTemp */\n      0x00\n        /* \"contracts/Twitter.sol\":1801:1816  profileContract */\n      0x02\n      dup1\n      sload\n      swap1\n      0x0100\n      exp\n      swap1\n      div\n      0xffffffffffffffffffffffffffffffffffffffff\n      and\n        /* \"contracts/Twitter.sol\":1801:1827  profileContract.getProfile */\n      0xffffffffffffffffffffffffffffffffffffffff\n      and\n      0x0f53a470\n        /* \"contracts/Twitter.sol\":1828:1838  msg.sender */\n      caller\n        /* \"contracts/Twitter.sol\":1801:1839  profileContract.getProfile(msg.sender) */\n      mload(0x40)\n      dup3\n      0xffffffff\n      and\n      0xe0\n      shl\n      dup2\n      mstore\n      0x04\n      add\n      tag_108\n      swap2\n      swap1\n      tag_57\n      jump\t// in\n    tag_108:\n      0x00\n      mload(0x40)\n      dup1\n      dup4\n      sub\n      dup2\n      dup7\n      gas\n      staticcall\n      iszero\n      dup1\n      iszero\n      tag_110\n      jumpi\n      returndatasize\n      0x00\n      dup1\n      returndatacopy\n      revert(0x00, returndatasize)\n    tag_110:\n      pop\n      pop\n      pop\n      pop\n      mload(0x40)\n      returndatasize\n      0x00\n      dup3\n      returndatacopy\n      returndatasize\n      not(0x1f)\n      0x1f\n      dup3\n      add\n      and\n      dup3\n      add\n      dup1\n      0x40\n      mstore\n      pop\n      dup2\n      add\n      swap1\n      tag_111\n      swap2\n      swap1\n      tag_112\n      jump\t// in\n    tag_111:\n        /* \"contracts/Twitter.sol\":1755:1839  IProfile.UserProfile memory userProfileTemp = profileContract.getProfile(msg.sender) */\n      swap1\n      pop\n        /* \"contracts/Twitter.sol\":1901:1902  0 */\n      0x00\n        /* \"contracts/Twitter.sol\":1863:1878  userProfileTemp */\n      dup2\n        /* \"contracts/Twitter.sol\":1863:1890  userProfileTemp.displayName */\n      0x00\n      add\n      mload\n        /* \"contracts/Twitter.sol\":1857:1898  bytes(userProfileTemp.displayName).length */\n      mload\n        /* \"contracts/Twitter.sol\":1857:1902  bytes(userProfileTemp.displayName).length > 0 */\n      gt\n        /* \"contracts/Twitter.sol\":1849:1926  require(bytes(userProfileTemp.displayName).length > 0, \"USER NOT REGISTERED\") */\n      tag_113\n      jumpi\n      mload(0x40)\n      0x08c379a000000000000000000000000000000000000000000000000000000000\n      dup2\n      mstore\n      0x04\n      add\n      tag_114\n      swap1\n      tag_115\n      jump\t// in\n    tag_114:\n      mload(0x40)\n      dup1\n      swap2\n      sub\n      swap1\n      revert\n    tag_113:\n        /* \"contracts/Twitter.sol\":2210:2226  MAX_TWEET_LENGTH */\n      0x02\n      0x00\n      swap1\n      sload\n      swap1\n      0x0100\n      exp\n      swap1\n      div\n      0xffff\n      and\n        /* \"contracts/Twitter.sol\":2186:2226  bytes(_tweet).length <= MAX_TWEET_LENGTH */\n      0xffff\n      and\n        /* \"contracts/Twitter.sol\":2192:2198  _tweet */\n      dup3\n        /* \"contracts/Twitter.sol\":2186:2206  bytes(_tweet).length */\n      mload\n        /* \"contracts/Twitter.sol\":2186:2226  bytes(_tweet).length <= MAX_TWEET_LENGTH */\n      gt\n      iszero\n        /* \"contracts/Twitter.sol\":2165:2288  require(... */\n      tag_117\n      jumpi\n      mload(0x40)\n      0x08c379a000000000000000000000000000000000000000000000000000000000\n      dup2\n      mstore\n      0x04\n      add\n      tag_118\n      swap1\n      tag_119\n      jump\t// in\n    tag_118:\n      mload(0x40)\n      dup1\n      swap2\n      sub\n      swap1\n      revert\n    tag_117:\n        /* \"contracts/Twitter.sol\":2299:2320  Tweet memory newTweet */\n      0x00\n        /* \"contracts/Twitter.sol\":2323:2506  Tweet({... */\n      mload(0x40)\n      dup1\n      0xa0\n      add\n      0x40\n      mstore\n      dup1\n        /* \"contracts/Twitter.sol\":2347:2353  tweets */\n      0x01\n        /* \"contracts/Twitter.sol\":2347:2365  tweets[msg.sender] */\n      0x00\n        /* \"contracts/Twitter.sol\":2354:2364  msg.sender */\n      caller\n        /* \"contracts/Twitter.sol\":2347:2365  tweets[msg.sender] */\n      0xffffffffffffffffffffffffffffffffffffffff\n      and\n      0xffffffffffffffffffffffffffffffffffffffff\n      and\n      dup2\n      mstore\n      0x20\n      add\n      swap1\n      dup2\n      mstore\n      0x20\n      add\n      0x00\n      keccak256\n        /* \"contracts/Twitter.sol\":2347:2372  tweets[msg.sender].length */\n      dup1\n      sload\n      swap1\n      pop\n        /* \"contracts/Twitter.sol\":2323:2506  Tweet({... */\n      dup2\n      mstore\n      0x20\n      add\n        /* \"contracts/Twitter.sol\":2394:2404  msg.sender */\n      caller\n        /* \"contracts/Twitter.sol\":2323:2506  Tweet({... */\n      0xffffffffffffffffffffffffffffffffffffffff\n      and\n      dup2\n      mstore\n      0x20\n      add\n        /* \"contracts/Twitter.sol\":2427:2433  _tweet */\n      dup5\n        /* \"contracts/Twitter.sol\":2323:2506  Tweet({... */\n      dup2\n      mstore\n      0x20\n      add\n        /* \"contracts/Twitter.sol\":2458:2473  block.timestamp */\n      timestamp\n        /* \"contracts/Twitter.sol\":2323:2506  Tweet({... */\n      dup2\n      mstore\n      0x20\n      add\n        /* \"contracts/Twitter.sol\":2494:2495  0 */\n      0x00\n        /* \"contracts/Twitter.sol\":2323:2506  Tweet({... */\n      dup2\n      mstore\n      pop\n        /* \"contracts/Twitter.sol\":2299:2506  Tweet memory newTweet = Tweet({... */\n      swap1\n      pop\n        /* \"contracts/Twitter.sol\":2517:2523  tweets */\n      0x01\n        /* \"contracts/Twitter.sol\":2517:2535  tweets[msg.sender] */\n      0x00\n        /* \"contracts/Twitter.sol\":2524:2534  msg.sender */\n      caller\n        /* \"contracts/Twitter.sol\":2517:2535  tweets[msg.sender] */\n      0xffffffffffffffffffffffffffffffffffffffff\n      and\n      0xffffffffffffffffffffffffffffffffffffffff\n      and\n      dup2\n      mstore\n      0x20\n      add\n      swap1\n      dup2\n      mstore\n      0x20\n      add\n      0x00\n      keccak256\n        /* \"contracts/Twitter.sol\":2541:2549  newTweet */\n      dup2\n        /* \"contracts/Twitter.sol\":2517:2550  tweets[msg.sender].push(newTweet) */\n      swap1\n      dup1\n      0x01\n      dup2\n      sload\n      add\n      dup1\n      dup3\n      sstore\n      dup1\n      swap2\n      pop\n      pop\n      0x01\n      swap1\n      sub\n      swap1\n      0x00\n      mstore\n      keccak256(0x00, 0x20)\n      swap1\n      0x05\n      mul\n      add\n      0x00\n      swap1\n      swap2\n      swap1\n      swap2\n      swap1\n      swap2\n      pop\n      0x00\n      dup3\n      add\n      mload\n      dup2\n      0x00\n      add\n      sstore\n      0x20\n      dup3\n      add\n      mload\n      dup2\n      0x01\n      add\n      exp(0x0100, 0x00)\n      dup2\n      sload\n      dup2\n      0xffffffffffffffffffffffffffffffffffffffff\n      mul\n      not\n      and\n      swap1\n      dup4\n      0xffffffffffffffffffffffffffffffffffffffff\n      and\n      mul\n      or\n      swap1\n      sstore\n      pop\n      0x40\n      dup3\n      add\n      mload\n      dup2\n      0x02\n      add\n      swap1\n      dup2\n      tag_121\n      swap2\n      swap1\n      tag_122\n      jump\t// in\n    tag_121:\n      pop\n      0x60\n      dup3\n      add\n      mload\n      dup2\n      0x03\n      add\n      sstore\n      0x80\n      dup3\n      add\n      mload\n      dup2\n      0x04\n      add\n      sstore\n      pop\n      pop\n        /* \"contracts/Twitter.sol\":2592:2600  newTweet */\n      dup1\n        /* \"contracts/Twitter.sol\":2592:2603  newTweet.id */\n      0x00\n      add\n      mload\n        /* \"contracts/Twitter.sol\":2566:2704  TweetCreated(... */\n      0x16fd3c13e9d46923e0a8bce11c7b473ec508a72e6c96cd2404b29ce972afc29e\n        /* \"contracts/Twitter.sol\":2617:2625  newTweet */\n      dup3\n        /* \"contracts/Twitter.sol\":2617:2632  newTweet.author */\n      0x20\n      add\n      mload\n        /* \"contracts/Twitter.sol\":2646:2654  newTweet */\n      dup4\n        /* \"contracts/Twitter.sol\":2646:2662  newTweet.content */\n      0x40\n      add\n      mload\n        /* \"contracts/Twitter.sol\":2676:2684  newTweet */\n      dup5\n        /* \"contracts/Twitter.sol\":2676:2694  newTweet.timestamp */\n      0x60\n      add\n      mload\n        /* \"contracts/Twitter.sol\":2566:2704  TweetCreated(... */\n      mload(0x40)\n      tag_123\n      swap4\n      swap3\n      swap2\n      swap1\n      tag_124\n      jump\t// in\n    tag_123:\n      mload(0x40)\n      dup1\n      swap2\n      sub\n      swap1\n      log2\n        /* \"contracts/Twitter.sol\":2155:2711  {... */\n      pop\n        /* \"contracts/Twitter.sol\":1745:1944  {... */\n      pop\n        /* \"contracts/Twitter.sol\":2090:2711  function createTweet(string memory _tweet) public onlyRegistered {... */\n      pop\n      jump\t// out\n        /* \"contracts/Twitter.sol\":3818:4079  function getTotalLikes(address _author) external view returns (uint256) {... */\n    tag_51:\n        /* \"contracts/Twitter.sol\":3881:3888  uint256 */\n      0x00\n        /* \"contracts/Twitter.sol\":3900:3918  uint256 totalLikes */\n      dup1\n        /* \"contracts/Twitter.sol\":3934:3943  uint256 i */\n      0x00\n        /* \"contracts/Twitter.sol\":3929:4045  for (uint256 i = 0; i < tweets[_author].length; i++) {... */\n    tag_126:\n        /* \"contracts/Twitter.sol\":3953:3959  tweets */\n      0x01\n        /* \"contracts/Twitter.sol\":3953:3968  tweets[_author] */\n      0x00\n        /* \"contracts/Twitter.sol\":3960:3967  _author */\n      dup6\n        /* \"contracts/Twitter.sol\":3953:3968  tweets[_author] */\n      0xffffffffffffffffffffffffffffffffffffffff\n      and\n      0xffffffffffffffffffffffffffffffffffffffff\n      and\n      dup2\n      mstore\n      0x20\n      add\n      swap1\n      dup2\n      mstore\n      0x20\n      add\n      0x00\n      keccak256\n        /* \"contracts/Twitter.sol\":3953:3975  tweets[_author].length */\n      dup1\n      sload\n      swap1\n      pop\n        /* \"contracts/Twitter.sol\":3949:3950  i */\n      dup2\n        /* \"contracts/Twitter.sol\":3949:3975  i < tweets[_author].length */\n      lt\n        /* \"contracts/Twitter.sol\":3929:4045  for (uint256 i = 0; i < tweets[_author].length; i++) {... */\n      iszero\n      tag_127\n      jumpi\n        /* \"contracts/Twitter.sol\":4010:4016  tweets */\n      0x01\n        /* \"contracts/Twitter.sol\":4010:4025  tweets[_author] */\n      0x00\n        /* \"contracts/Twitter.sol\":4017:4024  _author */\n      dup6\n        /* \"contracts/Twitter.sol\":4010:4025  tweets[_author] */\n      0xffffffffffffffffffffffffffffffffffffffff\n      and\n      0xffffffffffffffffffffffffffffffffffffffff\n      and\n      dup2\n      mstore\n      0x20\n      add\n      swap1\n      dup2\n      mstore\n      0x20\n      add\n      0x00\n      keccak256\n        /* \"contracts/Twitter.sol\":4026:4027  i */\n      dup2\n        /* \"contracts/Twitter.sol\":4010:4028  tweets[_author][i] */\n      dup2\n      sload\n      dup2\n      lt\n      tag_129\n      jumpi\n      tag_130\n      tag_131\n      jump\t// in\n    tag_130:\n    tag_129:\n      swap1\n      0x00\n      mstore\n      keccak256(0x00, 0x20)\n      swap1\n      0x05\n      mul\n      add\n        /* \"contracts/Twitter.sol\":4010:4034  tweets[_author][i].likes */\n      0x04\n      add\n      sload\n        /* \"contracts/Twitter.sol\":3996:4034  totalLikes += tweets[_author][i].likes */\n      dup3\n      tag_133\n      swap2\n      swap1\n      tag_134\n      jump\t// in\n    tag_133:\n      swap2\n      pop\n        /* \"contracts/Twitter.sol\":3977:3980  i++ */\n      dup1\n      dup1\n      0x01\n      add\n      swap2\n      pop\n      pop\n        /* \"contracts/Twitter.sol\":3929:4045  for (uint256 i = 0; i < tweets[_author].length; i++) {... */\n      jump(tag_126)\n    tag_127:\n      pop\n        /* \"contracts/Twitter.sol\":4062:4072  totalLikes */\n      dup1\n        /* \"contracts/Twitter.sol\":4055:4072  return totalLikes */\n      swap2\n      pop\n      pop\n        /* \"contracts/Twitter.sol\":3818:4079  function getTotalLikes(address _author) external view returns (uint256) {... */\n      swap2\n      swap1\n      pop\n      jump\t// out\n        /* \"@openzeppelin/contracts/access/Ownable.sol\":1638:1723  function owner() public view virtual returns (address) {... */\n    tag_55:\n        /* \"@openzeppelin/contracts/access/Ownable.sol\":1684:1691  address */\n      0x00\n        /* \"@openzeppelin/contracts/access/Ownable.sol\":1710:1716  _owner */\n      dup1\n      0x00\n      swap1\n      sload\n      swap1\n      0x0100\n      exp\n      swap1\n      div\n      0xffffffffffffffffffffffffffffffffffffffff\n      and\n        /* \"@openzeppelin/contracts/access/Ownable.sol\":1703:1716  return _owner */\n      swap1\n      pop\n        /* \"@openzeppelin/contracts/access/Ownable.sol\":1638:1723  function owner() public view virtual returns (address) {... */\n      swap1\n      jump\t// out\n        /* \"contracts/Twitter.sol\":3460:3795  function unlikeTweet(uint256 id, address author) external onlyRegistered {... */\n    tag_61:\n        /* \"contracts/Twitter.sol\":1755:1798  IProfile.UserProfile memory userProfileTemp */\n      0x00\n        /* \"contracts/Twitter.sol\":1801:1816  profileContract */\n      0x02\n      dup1\n      sload\n      swap1\n      0x0100\n      exp\n      swap1\n      div\n      0xffffffffffffffffffffffffffffffffffffffff\n      and\n        /* \"contracts/Twitter.sol\":1801:1827  profileContract.getProfile */\n      0xffffffffffffffffffffffffffffffffffffffff\n      and\n      0x0f53a470\n        /* \"contracts/Twitter.sol\":1828:1838  msg.sender */\n      caller\n        /* \"contracts/Twitter.sol\":1801:1839  profileContract.getProfile(msg.sender) */\n      mload(0x40)\n      dup3\n      0xffffffff\n      and\n      0xe0\n      shl\n      dup2\n      mstore\n      0x04\n      add\n      tag_137\n      swap2\n      swap1\n      tag_57\n      jump\t// in\n    tag_137:\n      0x00\n      mload(0x40)\n      dup1\n      dup4\n      sub\n      dup2\n      dup7\n      gas\n      staticcall\n      iszero\n      dup1\n      iszero\n      tag_139\n      jumpi\n      returndatasize\n      0x00\n      dup1\n      returndatacopy\n      revert(0x00, returndatasize)\n    tag_139:\n      pop\n      pop\n      pop\n      pop\n      mload(0x40)\n      returndatasize\n      0x00\n      dup3\n      returndatacopy\n      returndatasize\n      not(0x1f)\n      0x1f\n      dup3\n      add\n      and\n      dup3\n      add\n      dup1\n      0x40\n      mstore\n      pop\n      dup2\n      add\n      swap1\n      tag_140\n      swap2\n      swap1\n      tag_112\n      jump\t// in\n    tag_140:\n        /* \"contracts/Twitter.sol\":1755:1839  IProfile.UserProfile memory userProfileTemp = profileContract.getProfile(msg.sender) */\n      swap1\n      pop\n        /* \"contracts/Twitter.sol\":1901:1902  0 */\n      0x00\n        /* \"contracts/Twitter.sol\":1863:1878  userProfileTemp */\n      dup2\n        /* \"contracts/Twitter.sol\":1863:1890  userProfileTemp.displayName */\n      0x00\n      add\n      mload\n        /* \"contracts/Twitter.sol\":1857:1898  bytes(userProfileTemp.displayName).length */\n      mload\n        /* \"contracts/Twitter.sol\":1857:1902  bytes(userProfileTemp.displayName).length > 0 */\n      gt\n        /* \"contracts/Twitter.sol\":1849:1926  require(bytes(userProfileTemp.displayName).length > 0, \"USER NOT REGISTERED\") */\n      tag_141\n      jumpi\n      mload(0x40)\n      0x08c379a000000000000000000000000000000000000000000000000000000000\n      dup2\n      mstore\n      0x04\n      add\n      tag_142\n      swap1\n      tag_115\n      jump\t// in\n    tag_142:\n      mload(0x40)\n      dup1\n      swap2\n      sub\n      swap1\n      revert\n    tag_141:\n        /* \"contracts/Twitter.sol\":3576:3578  id */\n      dup3\n        /* \"contracts/Twitter.sol\":3551:3557  tweets */\n      0x01\n        /* \"contracts/Twitter.sol\":3551:3565  tweets[author] */\n      0x00\n        /* \"contracts/Twitter.sol\":3558:3564  author */\n      dup5\n        /* \"contracts/Twitter.sol\":3551:3565  tweets[author] */\n      0xffffffffffffffffffffffffffffffffffffffff\n      and\n      0xffffffffffffffffffffffffffffffffffffffff\n      and\n      dup2\n      mstore\n      0x20\n      add\n      swap1\n      dup2\n      mstore\n      0x20\n      add\n      0x00\n      keccak256\n        /* \"contracts/Twitter.sol\":3566:3568  id */\n      dup5\n        /* \"contracts/Twitter.sol\":3551:3569  tweets[author][id] */\n      dup2\n      sload\n      dup2\n      lt\n      tag_144\n      jumpi\n      tag_145\n      tag_131\n      jump\t// in\n    tag_145:\n    tag_144:\n      swap1\n      0x00\n      mstore\n      keccak256(0x00, 0x20)\n      swap1\n      0x05\n      mul\n      add\n        /* \"contracts/Twitter.sol\":3551:3572  tweets[author][id].id */\n      0x00\n      add\n      sload\n        /* \"contracts/Twitter.sol\":3551:3578  tweets[author][id].id == id */\n      eq\n        /* \"contracts/Twitter.sol\":3543:3603  require(tweets[author][id].id == id, \"TWEET DOES NOT EXIST\") */\n      tag_147\n      jumpi\n      mload(0x40)\n      0x08c379a000000000000000000000000000000000000000000000000000000000\n      dup2\n      mstore\n      0x04\n      add\n      tag_148\n      swap1\n      tag_149\n      jump\t// in\n    tag_148:\n      mload(0x40)\n      dup1\n      swap2\n      sub\n      swap1\n      revert\n    tag_147:\n        /* \"contracts/Twitter.sol\":3648:3649  0 */\n      0x00\n        /* \"contracts/Twitter.sol\":3621:3627  tweets */\n      0x01\n        /* \"contracts/Twitter.sol\":3621:3635  tweets[author] */\n      0x00\n        /* \"contracts/Twitter.sol\":3628:3634  author */\n      dup5\n        /* \"contracts/Twitter.sol\":3621:3635  tweets[author] */\n      0xffffffffffffffffffffffffffffffffffffffff\n      and\n      0xffffffffffffffffffffffffffffffffffffffff\n      and\n      dup2\n      mstore\n      0x20\n      add\n      swap1\n      dup2\n      mstore\n      0x20\n      add\n      0x00\n      keccak256\n        /* \"contracts/Twitter.sol\":3636:3638  id */\n      dup5\n        /* \"contracts/Twitter.sol\":3621:3639  tweets[author][id] */\n      dup2\n      sload\n      dup2\n      lt\n      tag_150\n      jumpi\n      tag_151\n      tag_131\n      jump\t// in\n    tag_151:\n    tag_150:\n      swap1\n      0x00\n      mstore\n      keccak256(0x00, 0x20)\n      swap1\n      0x05\n      mul\n      add\n        /* \"contracts/Twitter.sol\":3621:3645  tweets[author][id].likes */\n      0x04\n      add\n      sload\n        /* \"contracts/Twitter.sol\":3621:3649  tweets[author][id].likes > 0 */\n      gt\n        /* \"contracts/Twitter.sol\":3613:3674  require(tweets[author][id].likes > 0, \"TWEET DOES NOT LIKED\") */\n      tag_153\n      jumpi\n      mload(0x40)\n      0x08c379a000000000000000000000000000000000000000000000000000000000\n      dup2\n      mstore\n      0x04\n      add\n      tag_154\n      swap1\n      tag_155\n      jump\t// in\n    tag_154:\n      mload(0x40)\n      dup1\n      swap2\n      sub\n      swap1\n      revert\n    tag_153:\n        /* \"contracts/Twitter.sol\":3685:3691  tweets */\n      0x01\n        /* \"contracts/Twitter.sol\":3685:3699  tweets[author] */\n      0x00\n        /* \"contracts/Twitter.sol\":3692:3698  author */\n      dup4\n        /* \"contracts/Twitter.sol\":3685:3699  tweets[author] */\n      0xffffffffffffffffffffffffffffffffffffffff\n      and\n      0xffffffffffffffffffffffffffffffffffffffff\n      and\n      dup2\n      mstore\n      0x20\n      add\n      swap1\n      dup2\n      mstore\n      0x20\n      add\n      0x00\n      keccak256\n        /* \"contracts/Twitter.sol\":3700:3702  id */\n      dup4\n        /* \"contracts/Twitter.sol\":3685:3703  tweets[author][id] */\n      dup2\n      sload\n      dup2\n      lt\n      tag_156\n      jumpi\n      tag_157\n      tag_131\n      jump\t// in\n    tag_157:\n    tag_156:\n      swap1\n      0x00\n      mstore\n      keccak256(0x00, 0x20)\n      swap1\n      0x05\n      mul\n      add\n        /* \"contracts/Twitter.sol\":3685:3709  tweets[author][id].likes */\n      0x04\n      add\n      0x00\n        /* \"contracts/Twitter.sol\":3685:3711  tweets[author][id].likes-- */\n      dup2\n      sload\n      dup1\n      swap3\n      swap2\n      swap1\n      tag_159\n      swap1\n      tag_160\n      jump\t// in\n    tag_159:\n      swap2\n      swap1\n      pop\n      sstore\n      pop\n        /* \"contracts/Twitter.sol\":3726:3788  TweetUnLiked(msg.sender, author, id, tweets[author][id].likes) */\n      0x273883c252143c4abce776697615e41ca9bc1aac5968c585d1c8ba8ffaa8b3c1\n        /* \"contracts/Twitter.sol\":3739:3749  msg.sender */\n      caller\n        /* \"contracts/Twitter.sol\":3751:3757  author */\n      dup4\n        /* \"contracts/Twitter.sol\":3759:3761  id */\n      dup6\n        /* \"contracts/Twitter.sol\":3763:3769  tweets */\n      0x01\n        /* \"contracts/Twitter.sol\":3763:3777  tweets[author] */\n      0x00\n        /* \"contracts/Twitter.sol\":3770:3776  author */\n      dup8\n        /* \"contracts/Twitter.sol\":3763:3777  tweets[author] */\n      0xffffffffffffffffffffffffffffffffffffffff\n      and\n      0xffffffffffffffffffffffffffffffffffffffff\n      and\n      dup2\n      mstore\n      0x20\n      add\n      swap1\n      dup2\n      mstore\n      0x20\n      add\n      0x00\n      keccak256\n        /* \"contracts/Twitter.sol\":3778:3780  id */\n      dup8\n        /* \"contracts/Twitter.sol\":3763:3781  tweets[author][id] */\n      dup2\n      sload\n      dup2\n      lt\n      tag_161\n      jumpi\n      tag_162\n      tag_131\n      jump\t// in\n    tag_162:\n    tag_161:\n      swap1\n      0x00\n      mstore\n      keccak256(0x00, 0x20)\n      swap1\n      0x05\n      mul\n      add\n        /* \"contracts/Twitter.sol\":3763:3787  tweets[author][id].likes */\n      0x04\n      add\n      sload\n        /* \"contracts/Twitter.sol\":3726:3788  TweetUnLiked(msg.sender, author, id, tweets[author][id].likes) */\n      mload(0x40)\n      tag_164\n      swap5\n      swap4\n      swap3\n      swap2\n      swap1\n      tag_165\n      jump\t// in\n    tag_164:\n      mload(0x40)\n      dup1\n      swap2\n      sub\n      swap1\n      log1\n        /* \"contracts/Twitter.sol\":1745:1944  {... */\n      pop\n        /* \"contracts/Twitter.sol\":3460:3795  function unlikeTweet(uint256 id, address author) external onlyRegistered {... */\n      pop\n      pop\n      jump\t// out\n        /* \"contracts/Twitter.sol\":1344:1375  IProfile public profileContract */\n    tag_63:\n      0x02\n      dup1\n      sload\n      swap1\n      0x0100\n      exp\n      swap1\n      div\n      0xffffffffffffffffffffffffffffffffffffffff\n      and\n      dup2\n      jump\t// out\n        /* \"contracts/Twitter.sol\":3193:3454  function likeTweet(uint256 id, address author) external onlyRegistered {... */\n    tag_68:\n        /* \"contracts/Twitter.sol\":1755:1798  IProfile.UserProfile memory userProfileTemp */\n      0x00\n        /* \"contracts/Twitter.sol\":1801:1816  profileContract */\n      0x02\n      dup1\n      sload\n      swap1\n      0x0100\n      exp\n      swap1\n      div\n      0xffffffffffffffffffffffffffffffffffffffff\n      and\n        /* \"contracts/Twitter.sol\":1801:1827  profileContract.getProfile */\n      0xffffffffffffffffffffffffffffffffffffffff\n      and\n      0x0f53a470\n        /* \"contracts/Twitter.sol\":1828:1838  msg.sender */\n      caller\n        /* \"contracts/Twitter.sol\":1801:1839  profileContract.getProfile(msg.sender) */\n      mload(0x40)\n      dup3\n      0xffffffff\n      and\n      0xe0\n      shl\n      dup2\n      mstore\n      0x04\n      add\n      tag_167\n      swap2\n      swap1\n      tag_57\n      jump\t// in\n    tag_167:\n      0x00\n      mload(0x40)\n      dup1\n      dup4\n      sub\n      dup2\n      dup7\n      gas\n      staticcall\n      iszero\n      dup1\n      iszero\n      tag_169\n      jumpi\n      returndatasize\n      0x00\n      dup1\n      returndatacopy\n      revert(0x00, returndatasize)\n    tag_169:\n      pop\n      pop\n      pop\n      pop\n      mload(0x40)\n      returndatasize\n      0x00\n      dup3\n      returndatacopy\n      returndatasize\n      not(0x1f)\n      0x1f\n      dup3\n      add\n      and\n      dup3\n      add\n      dup1\n      0x40\n      mstore\n      pop\n      dup2\n      add\n      swap1\n      tag_170\n      swap2\n      swap1\n      tag_112\n      jump\t// in\n    tag_170:\n        /* \"contracts/Twitter.sol\":1755:1839  IProfile.UserProfile memory userProfileTemp = profileContract.getProfile(msg.sender) */\n      swap1\n      pop\n        /* \"contracts/Twitter.sol\":1901:1902  0 */\n      0x00\n        /* \"contracts/Twitter.sol\":1863:1878  userProfileTemp */\n      dup2\n        /* \"contracts/Twitter.sol\":1863:1890  userProfileTemp.displayName */\n      0x00\n      add\n      mload\n        /* \"contracts/Twitter.sol\":1857:1898  bytes(userProfileTemp.displayName).length */\n      mload\n        /* \"contracts/Twitter.sol\":1857:1902  bytes(userProfileTemp.displayName).length > 0 */\n      gt\n        /* \"contracts/Twitter.sol\":1849:1926  require(bytes(userProfileTemp.displayName).length > 0, \"USER NOT REGISTERED\") */\n      tag_171\n      jumpi\n      mload(0x40)\n      0x08c379a000000000000000000000000000000000000000000000000000000000\n      dup2\n      mstore\n      0x04\n      add\n      tag_172\n      swap1\n      tag_115\n      jump\t// in\n    tag_172:\n      mload(0x40)\n      dup1\n      swap2\n      sub\n      swap1\n      revert\n    tag_171:\n        /* \"contracts/Twitter.sol\":3307:3309  id */\n      dup3\n        /* \"contracts/Twitter.sol\":3282:3288  tweets */\n      0x01\n        /* \"contracts/Twitter.sol\":3282:3296  tweets[author] */\n      0x00\n        /* \"contracts/Twitter.sol\":3289:3295  author */\n      dup5\n        /* \"contracts/Twitter.sol\":3282:3296  tweets[author] */\n      0xffffffffffffffffffffffffffffffffffffffff\n      and\n      0xffffffffffffffffffffffffffffffffffffffff\n      and\n      dup2\n      mstore\n      0x20\n      add\n      swap1\n      dup2\n      mstore\n      0x20\n      add\n      0x00\n      keccak256\n        /* \"contracts/Twitter.sol\":3297:3299  id */\n      dup5\n        /* \"contracts/Twitter.sol\":3282:3300  tweets[author][id] */\n      dup2\n      sload\n      dup2\n      lt\n      tag_174\n      jumpi\n      tag_175\n      tag_131\n      jump\t// in\n    tag_175:\n    tag_174:\n      swap1\n      0x00\n      mstore\n      keccak256(0x00, 0x20)\n      swap1\n      0x05\n      mul\n      add\n        /* \"contracts/Twitter.sol\":3282:3303  tweets[author][id].id */\n      0x00\n      add\n      sload\n        /* \"contracts/Twitter.sol\":3282:3309  tweets[author][id].id == id */\n      eq\n        /* \"contracts/Twitter.sol\":3274:3334  require(tweets[author][id].id == id, \"TWEET DOES NOT EXIST\") */\n      tag_177\n      jumpi\n      mload(0x40)\n      0x08c379a000000000000000000000000000000000000000000000000000000000\n      dup2\n      mstore\n      0x04\n      add\n      tag_178\n      swap1\n      tag_149\n      jump\t// in\n    tag_178:\n      mload(0x40)\n      dup1\n      swap2\n      sub\n      swap1\n      revert\n    tag_177:\n        /* \"contracts/Twitter.sol\":3345:3351  tweets */\n      0x01\n        /* \"contracts/Twitter.sol\":3345:3359  tweets[author] */\n      0x00\n        /* \"contracts/Twitter.sol\":3352:3358  author */\n      dup4\n        /* \"contracts/Twitter.sol\":3345:3359  tweets[author] */\n      0xffffffffffffffffffffffffffffffffffffffff\n      and\n      0xffffffffffffffffffffffffffffffffffffffff\n      and\n      dup2\n      mstore\n      0x20\n      add\n      swap1\n      dup2\n      mstore\n      0x20\n      add\n      0x00\n      keccak256\n        /* \"contracts/Twitter.sol\":3360:3362  id */\n      dup4\n        /* \"contracts/Twitter.sol\":3345:3363  tweets[author][id] */\n      dup2\n      sload\n      dup2\n      lt\n      tag_179\n      jumpi\n      tag_180\n      tag_131\n      jump\t// in\n    tag_180:\n    tag_179:\n      swap1\n      0x00\n      mstore\n      keccak256(0x00, 0x20)\n      swap1\n      0x05\n      mul\n      add\n        /* \"contracts/Twitter.sol\":3345:3369  tweets[author][id].likes */\n      0x04\n      add\n      0x00\n        /* \"contracts/Twitter.sol\":3345:3371  tweets[author][id].likes++ */\n      dup2\n      sload\n      dup1\n      swap3\n      swap2\n      swap1\n      tag_182\n      swap1\n      tag_183\n      jump\t// in\n    tag_182:\n      swap2\n      swap1\n      pop\n      sstore\n      pop\n        /* \"contracts/Twitter.sol\":3387:3447  TweetLiked(msg.sender, author, id, tweets[author][id].likes) */\n      0xe8a76fc0f16d11a00d1e93b689b63d76cf60af914dd3d915375dc41d01a0c3c8\n        /* \"contracts/Twitter.sol\":3398:3408  msg.sender */\n      caller\n        /* \"contracts/Twitter.sol\":3410:3416  author */\n      dup4\n        /* \"contracts/Twitter.sol\":3418:3420  id */\n      dup6\n        /* \"contracts/Twitter.sol\":3422:3428  tweets */\n      0x01\n        /* \"contracts/Twitter.sol\":3422:3436  tweets[author] */\n      0x00\n        /* \"contracts/Twitter.sol\":3429:3435  author */\n      dup8\n        /* \"contracts/Twitter.sol\":3422:3436  tweets[author] */\n      0xffffffffffffffffffffffffffffffffffffffff\n      and\n      0xffffffffffffffffffffffffffffffffffffffff\n      and\n      dup2\n      mstore\n      0x20\n      add\n      swap1\n      dup2\n      mstore\n      0x20\n      add\n      0x00\n      keccak256\n        /* \"contracts/Twitter.sol\":3437:3439  id */\n      dup8\n        /* \"contracts/Twitter.sol\":3422:3440  tweets[author][id] */\n      dup2\n      sload\n      dup2\n      lt\n      tag_184\n      jumpi\n      tag_185\n      tag_131\n      jump\t// in\n    tag_185:\n    tag_184:\n      swap1\n      0x00\n      mstore\n      keccak256(0x00, 0x20)\n      swap1\n      0x05\n      mul\n      add\n        /* \"contracts/Twitter.sol\":3422:3446  tweets[author][id].likes */\n      0x04\n      add\n      sload\n        /* \"contracts/Twitter.sol\":3387:3447  TweetLiked(msg.sender, author, id, tweets[author][id].likes) */\n      mload(0x40)\n      tag_187\n      swap5\n      swap4\n      swap3\n      swap2\n      swap1\n      tag_165\n      jump\t// in\n    tag_187:\n      mload(0x40)\n      dup1\n      swap2\n      sub\n      swap1\n      log1\n        /* \"contracts/Twitter.sol\":1745:1944  {... */\n      pop\n        /* \"contracts/Twitter.sol\":3193:3454  function likeTweet(uint256 id, address author) external onlyRegistered {... */\n      pop\n      pop\n      jump\t// out\n        /* \"contracts/Twitter.sol\":2717:2982  function getTweets(uint256 _i) public view returns (Tweet memory) {... */\n    tag_72:\n        /* \"contracts/Twitter.sol\":2769:2781  Tweet memory */\n      tag_188\n      tag_189\n      jump\t// in\n    tag_188:\n        /* \"contracts/Twitter.sol\":2807:2813  tweets */\n      0x01\n        /* \"contracts/Twitter.sol\":2807:2825  tweets[msg.sender] */\n      0x00\n        /* \"contracts/Twitter.sol\":2814:2824  msg.sender */\n      caller\n        /* \"contracts/Twitter.sol\":2807:2825  tweets[msg.sender] */\n      0xffffffffffffffffffffffffffffffffffffffff\n      and\n      0xffffffffffffffffffffffffffffffffffffffff\n      and\n      dup2\n      mstore\n      0x20\n      add\n      swap1\n      dup2\n      mstore\n      0x20\n      add\n      0x00\n      keccak256\n        /* \"contracts/Twitter.sol\":2807:2832  tweets[msg.sender].length */\n      dup1\n      sload\n      swap1\n      pop\n        /* \"contracts/Twitter.sol\":2801:2803  _i */\n      dup3\n        /* \"contracts/Twitter.sol\":2801:2832  _i <= tweets[msg.sender].length */\n      gt\n      iszero\n        /* \"contracts/Twitter.sol\":2793:2856  require(_i <= tweets[msg.sender].length, \"Invalid tweet index\") */\n      tag_191\n      jumpi\n      mload(0x40)\n      0x08c379a000000000000000000000000000000000000000000000000000000000\n      dup2\n      mstore\n      0x04\n      add\n      tag_192\n      swap1\n      tag_193\n      jump\t// in\n    tag_192:\n      mload(0x40)\n      dup1\n      swap2\n      sub\n      swap1\n      revert\n    tag_191:\n        /* \"contracts/Twitter.sol\":2953:2959  tweets */\n      0x01\n        /* \"contracts/Twitter.sol\":2953:2971  tweets[msg.sender] */\n      0x00\n        /* \"contracts/Twitter.sol\":2960:2970  msg.sender */\n      caller\n        /* \"contracts/Twitter.sol\":2953:2971  tweets[msg.sender] */\n      0xffffffffffffffffffffffffffffffffffffffff\n      and\n      0xffffffffffffffffffffffffffffffffffffffff\n      and\n      dup2\n      mstore\n      0x20\n      add\n      swap1\n      dup2\n      mstore\n      0x20\n      add\n      0x00\n      keccak256\n        /* \"contracts/Twitter.sol\":2972:2974  _i */\n      dup3\n        /* \"contracts/Twitter.sol\":2953:2975  tweets[msg.sender][_i] */\n      dup2\n      sload\n      dup2\n      lt\n      tag_194\n      jumpi\n      tag_195\n      tag_131\n      jump\t// in\n    tag_195:\n    tag_194:\n      swap1\n      0x00\n      mstore\n      keccak256(0x00, 0x20)\n      swap1\n      0x05\n      mul\n      add\n        /* \"contracts/Twitter.sol\":2946:2975  return tweets[msg.sender][_i] */\n      mload(0x40)\n      dup1\n      0xa0\n      add\n      0x40\n      mstore\n      swap1\n      dup2\n      0x00\n      dup3\n      add\n      sload\n      dup2\n      mstore\n      0x20\n      add\n      0x01\n      dup3\n      add\n      0x00\n      swap1\n      sload\n      swap1\n      0x0100\n      exp\n      swap1\n      div\n      0xffffffffffffffffffffffffffffffffffffffff\n      and\n      0xffffffffffffffffffffffffffffffffffffffff\n      and\n      0xffffffffffffffffffffffffffffffffffffffff\n      and\n      dup2\n      mstore\n      0x20\n      add\n      0x02\n      dup3\n      add\n      dup1\n      sload\n      tag_197\n      swap1\n      tag_81\n      jump\t// in\n    tag_197:\n      dup1\n      0x1f\n      add\n      0x20\n      dup1\n      swap2\n      div\n      mul\n      0x20\n      add\n      mload(0x40)\n      swap1\n      dup2\n      add\n      0x40\n      mstore\n      dup1\n      swap3\n      swap2\n      swap1\n      dup2\n      dup2\n      mstore\n      0x20\n      add\n      dup3\n      dup1\n      sload\n      tag_198\n      swap1\n      tag_81\n      jump\t// in\n    tag_198:\n      dup1\n      iszero\n      tag_199\n      jumpi\n      dup1\n      0x1f\n      lt\n      tag_200\n      jumpi\n      0x0100\n      dup1\n      dup4\n      sload\n      div\n      mul\n      dup4\n      mstore\n      swap2\n      0x20\n      add\n      swap2\n      jump(tag_199)\n    tag_200:\n      dup3\n      add\n      swap2\n      swap1\n      0x00\n      mstore\n      keccak256(0x00, 0x20)\n      swap1\n    tag_201:\n      dup2\n      sload\n      dup2\n      mstore\n      swap1\n      0x01\n      add\n      swap1\n      0x20\n      add\n      dup1\n      dup4\n      gt\n      tag_201\n      jumpi\n      dup3\n      swap1\n      sub\n      0x1f\n      and\n      dup3\n      add\n      swap2\n    tag_199:\n      pop\n      pop\n      pop\n      pop\n      pop\n      dup2\n      mstore\n      0x20\n      add\n      0x03\n      dup3\n      add\n      sload\n      dup2\n      mstore\n      0x20\n      add\n      0x04\n      dup3\n      add\n      sload\n      dup2\n      mstore\n      pop\n      pop\n      swap1\n      pop\n        /* \"contracts/Twitter.sol\":2717:2982  function getTweets(uint256 _i) public view returns (Tweet memory) {... */\n      swap2\n      swap1\n      pop\n      jump\t// out\n        /* \"@openzeppelin/contracts/access/Ownable.sol\":2543:2758  function transferOwnership(address newOwner) public virtual onlyOwner {... */\n    tag_77:\n        /* \"@openzeppelin/contracts/access/Ownable.sol\":1531:1544  _checkOwner() */\n      tag_203\n        /* \"@openzeppelin/contracts/access/Ownable.sol\":1531:1542  _checkOwner */\n      tag_100\n        /* \"@openzeppelin/contracts/access/Ownable.sol\":1531:1544  _checkOwner() */\n      jump\t// in\n    tag_203:\n        /* \"@openzeppelin/contracts/access/Ownable.sol\":2647:2648  0 */\n      0x00\n        /* \"@openzeppelin/contracts/access/Ownable.sol\":2627:2649  newOwner == address(0) */\n      0xffffffffffffffffffffffffffffffffffffffff\n      and\n        /* \"@openzeppelin/contracts/access/Ownable.sol\":2627:2635  newOwner */\n      dup2\n        /* \"@openzeppelin/contracts/access/Ownable.sol\":2627:2649  newOwner == address(0) */\n      0xffffffffffffffffffffffffffffffffffffffff\n      and\n      sub\n        /* \"@openzeppelin/contracts/access/Ownable.sol\":2623:2714  if (newOwner == address(0)) {... */\n      tag_205\n      jumpi\n        /* \"@openzeppelin/contracts/access/Ownable.sol\":2700:2701  0 */\n      0x00\n        /* \"@openzeppelin/contracts/access/Ownable.sol\":2672:2703  OwnableInvalidOwner(address(0)) */\n      mload(0x40)\n      0x1e4fbdf700000000000000000000000000000000000000000000000000000000\n      dup2\n      mstore\n      0x04\n      add\n      tag_206\n      swap2\n      swap1\n      tag_57\n      jump\t// in\n    tag_206:\n      mload(0x40)\n      dup1\n      swap2\n      sub\n      swap1\n      revert\n        /* \"@openzeppelin/contracts/access/Ownable.sol\":2623:2714  if (newOwner == address(0)) {... */\n    tag_205:\n        /* \"@openzeppelin/contracts/access/Ownable.sol\":2723:2751  _transferOwnership(newOwner) */\n      tag_207\n        /* \"@openzeppelin/contracts/access/Ownable.sol\":2742:2750  newOwner */\n      dup2\n        /* \"@openzeppelin/contracts/access/Ownable.sol\":2723:2741  _transferOwnership */\n      tag_106\n        /* \"@openzeppelin/contracts/access/Ownable.sol\":2723:2751  _transferOwnership(newOwner) */\n      jump\t// in\n    tag_207:\n        /* \"@openzeppelin/contracts/access/Ownable.sol\":2543:2758  function transferOwnership(address newOwner) public virtual onlyOwner {... */\n      pop\n      jump\t// out\n        /* \"@openzeppelin/contracts/access/Ownable.sol\":1796:1958  function _checkOwner() internal view virtual {... */\n    tag_100:\n        /* \"@openzeppelin/contracts/access/Ownable.sol\":1866:1878  _msgSender() */\n      tag_209\n        /* \"@openzeppelin/contracts/access/Ownable.sol\":1866:1876  _msgSender */\n      tag_210\n        /* \"@openzeppelin/contracts/access/Ownable.sol\":1866:1878  _msgSender() */\n      jump\t// in\n    tag_209:\n        /* \"@openzeppelin/contracts/access/Ownable.sol\":1855:1878  owner() != _msgSender() */\n      0xffffffffffffffffffffffffffffffffffffffff\n      and\n        /* \"@openzeppelin/contracts/access/Ownable.sol\":1855:1862  owner() */\n      tag_211\n        /* \"@openzeppelin/contracts/access/Ownable.sol\":1855:1860  owner */\n      tag_55\n        /* \"@openzeppelin/contracts/access/Ownable.sol\":1855:1862  owner() */\n      jump\t// in\n    tag_211:\n        /* \"@openzeppelin/contracts/access/Ownable.sol\":1855:1878  owner() != _msgSender() */\n      0xffffffffffffffffffffffffffffffffffffffff\n      and\n      eq\n        /* \"@openzeppelin/contracts/access/Ownable.sol\":1851:1952  if (owner() != _msgSender()) {... */\n      tag_212\n      jumpi\n        /* \"@openzeppelin/contracts/access/Ownable.sol\":1928:1940  _msgSender() */\n      tag_213\n        /* \"@openzeppelin/contracts/access/Ownable.sol\":1928:1938  _msgSender */\n      tag_210\n        /* \"@openzeppelin/contracts/access/Ownable.sol\":1928:1940  _msgSender() */\n      jump\t// in\n    tag_213:\n        /* \"@openzeppelin/contracts/access/Ownable.sol\":1901:1941  OwnableUnauthorizedAccount(_msgSender()) */\n      mload(0x40)\n      0x118cdaa700000000000000000000000000000000000000000000000000000000\n      dup2\n      mstore\n      0x04\n      add\n      tag_214\n      swap2\n      swap1\n      tag_57\n      jump\t// in\n    tag_214:\n      mload(0x40)\n      dup1\n      swap2\n      sub\n      swap1\n      revert\n        /* \"@openzeppelin/contracts/access/Ownable.sol\":1851:1952  if (owner() != _msgSender()) {... */\n    tag_212:\n        /* \"@openzeppelin/contracts/access/Ownable.sol\":1796:1958  function _checkOwner() internal view virtual {... */\n      jump\t// out\n        /* \"@openzeppelin/contracts/access/Ownable.sol\":2912:3099  function _transferOwnership(address newOwner) internal virtual {... */\n    tag_106:\n        /* \"@openzeppelin/contracts/access/Ownable.sol\":2985:3001  address oldOwner */\n      0x00\n        /* \"@openzeppelin/contracts/access/Ownable.sol\":3004:3010  _owner */\n      dup1\n      0x00\n      swap1\n      sload\n      swap1\n      0x0100\n      exp\n      swap1\n      div\n      0xffffffffffffffffffffffffffffffffffffffff\n      and\n        /* \"@openzeppelin/contracts/access/Ownable.sol\":2985:3010  address oldOwner = _owner */\n      swap1\n      pop\n        /* \"@openzeppelin/contracts/access/Ownable.sol\":3029:3037  newOwner */\n      dup2\n        /* \"@openzeppelin/contracts/access/Ownable.sol\":3020:3026  _owner */\n      0x00\n      dup1\n        /* \"@openzeppelin/contracts/access/Ownable.sol\":3020:3037  _owner = newOwner */\n      0x0100\n      exp\n      dup2\n      sload\n      dup2\n      0xffffffffffffffffffffffffffffffffffffffff\n      mul\n      not\n      and\n      swap1\n      dup4\n      0xffffffffffffffffffffffffffffffffffffffff\n      and\n      mul\n      or\n      swap1\n      sstore\n      pop\n        /* \"@openzeppelin/contracts/access/Ownable.sol\":3083:3091  newOwner */\n      dup2\n        /* \"@openzeppelin/contracts/access/Ownable.sol\":3052:3092  OwnershipTransferred(oldOwner, newOwner) */\n      0xffffffffffffffffffffffffffffffffffffffff\n      and\n        /* \"@openzeppelin/contracts/access/Ownable.sol\":3073:3081  oldOwner */\n      dup2\n        /* \"@openzeppelin/contracts/access/Ownable.sol\":3052:3092  OwnershipTransferred(oldOwner, newOwner) */\n      0xffffffffffffffffffffffffffffffffffffffff\n      and\n      0x8be0079c531659141344cd1fd0a4f28419497f9722a3daafe3b4186f6b6457e0\n      mload(0x40)\n      mload(0x40)\n      dup1\n      swap2\n      sub\n      swap1\n      log3\n        /* \"@openzeppelin/contracts/access/Ownable.sol\":2975:3099  {... */\n      pop\n        /* \"@openzeppelin/contracts/access/Ownable.sol\":2912:3099  function _transferOwnership(address newOwner) internal virtual {... */\n      pop\n      jump\t// out\n        /* \"@openzeppelin/contracts/utils/Context.sol\":656:752  function _msgSender() internal view virtual returns (address) {... */\n    tag_210:\n        /* \"@openzeppelin/contracts/utils/Context.sol\":709:716  address */\n      0x00\n        /* \"@openzeppelin/contracts/utils/Context.sol\":735:745  msg.sender */\n      caller\n        /* \"@openzeppelin/contracts/utils/Context.sol\":728:745  return msg.sender */\n      swap1\n      pop\n        /* \"@openzeppelin/contracts/utils/Context.sol\":656:752  function _msgSender() internal view virtual returns (address) {... */\n      swap1\n      jump\t// out\n    tag_97:\n      pop\n      dup1\n      sload\n      0x00\n      dup3\n      sstore\n      0x05\n      mul\n      swap1\n      0x00\n      mstore\n      keccak256(0x00, 0x20)\n      swap1\n      dup2\n      add\n      swap1\n      tag_218\n      swap2\n      swap1\n      tag_219\n      jump\t// in\n    tag_218:\n      pop\n      jump\t// out\n    tag_189:\n      mload(0x40)\n      dup1\n      0xa0\n      add\n      0x40\n      mstore\n      dup1\n      0x00\n      dup2\n      mstore\n      0x20\n      add\n      and(0xffffffffffffffffffffffffffffffffffffffff, 0x00)\n      dup2\n      mstore\n      0x20\n      add\n      0x60\n      dup2\n      mstore\n      0x20\n      add\n      0x00\n      dup2\n      mstore\n      0x20\n      add\n      0x00\n      dup2\n      mstore\n      pop\n      swap1\n      jump\t// out\n    tag_219:\n    tag_220:\n      dup1\n      dup3\n      gt\n      iszero\n      tag_221\n      jumpi\n      0x00\n      dup1\n      dup3\n      add\n      0x00\n      swap1\n      sstore\n      0x01\n      dup3\n      add\n      exp(0x0100, 0x00)\n      dup2\n      sload\n      swap1\n      0xffffffffffffffffffffffffffffffffffffffff\n      mul\n      not\n      and\n      swap1\n      sstore\n      0x02\n      dup3\n      add\n      0x00\n      tag_222\n      swap2\n      swap1\n      tag_223\n      jump\t// in\n    tag_222:\n      0x03\n      dup3\n      add\n      0x00\n      swap1\n      sstore\n      0x04\n      dup3\n      add\n      0x00\n      swap1\n      sstore\n      pop\n      0x05\n      add\n      jump(tag_220)\n    tag_221:\n      pop\n      swap1\n      jump\t// out\n    tag_223:\n      pop\n      dup1\n      sload\n      tag_224\n      swap1\n      tag_81\n      jump\t// in\n    tag_224:\n      0x00\n      dup3\n      sstore\n      dup1\n      0x1f\n      lt\n      tag_226\n      jumpi\n      pop\n      jump(tag_225)\n    tag_226:\n      0x1f\n      add\n      0x20\n      swap1\n      div\n      swap1\n      0x00\n      mstore\n      keccak256(0x00, 0x20)\n      swap1\n      dup2\n      add\n      swap1\n      tag_227\n      swap2\n      swap1\n      tag_228\n      jump\t// in\n    tag_227:\n    tag_225:\n      pop\n      jump\t// out\n    tag_228:\n    tag_229:\n      dup1\n      dup3\n      gt\n      iszero\n      tag_230\n      jumpi\n      0x00\n      dup2\n      0x00\n      swap1\n      sstore\n      pop\n      0x01\n      add\n      jump(tag_229)\n    tag_230:\n      pop\n      swap1\n      jump\t// out\n        /* \"#utility.yul\":7:82   */\n    tag_231:\n        /* \"#utility.yul\":40:46   */\n      0x00\n        /* \"#utility.yul\":73:75   */\n      0x40\n        /* \"#utility.yul\":67:76   */\n      mload\n        /* \"#utility.yul\":57:76   */\n      swap1\n      pop\n        /* \"#utility.yul\":7:82   */\n      swap1\n      jump\t// out\n        /* \"#utility.yul\":88:205   */\n    tag_232:\n        /* \"#utility.yul\":197:198   */\n      0x00\n        /* \"#utility.yul\":194:195   */\n      dup1\n        /* \"#utility.yul\":187:199   */\n      revert\n        /* \"#utility.yul\":211:328   */\n    tag_233:\n        /* \"#utility.yul\":320:321   */\n      0x00\n        /* \"#utility.yul\":317:318   */\n      dup1\n        /* \"#utility.yul\":310:322   */\n      revert\n        /* \"#utility.yul\":334:460   */\n    tag_234:\n        /* \"#utility.yul\":371:378   */\n      0x00\n        /* \"#utility.yul\":411:453   */\n      0xffffffffffffffffffffffffffffffffffffffff\n        /* \"#utility.yul\":404:409   */\n      dup3\n        /* \"#utility.yul\":400:454   */\n      and\n        /* \"#utility.yul\":389:454   */\n      swap1\n      pop\n        /* \"#utility.yul\":334:460   */\n      swap2\n      swap1\n      pop\n      jump\t// out\n        /* \"#utility.yul\":466:562   */\n    tag_235:\n        /* \"#utility.yul\":503:510   */\n      0x00\n        /* \"#utility.yul\":532:556   */\n      tag_315\n        /* \"#utility.yul\":550:555   */\n      dup3\n        /* \"#utility.yul\":532:556   */\n      tag_234\n      jump\t// in\n    tag_315:\n        /* \"#utility.yul\":521:556   */\n      swap1\n      pop\n        /* \"#utility.yul\":466:562   */\n      swap2\n      swap1\n      pop\n      jump\t// out\n        /* \"#utility.yul\":568:690   */\n    tag_236:\n        /* \"#utility.yul\":641:665   */\n      tag_317\n        /* \"#utility.yul\":659:664   */\n      dup2\n        /* \"#utility.yul\":641:665   */\n      tag_235\n      jump\t// in\n    tag_317:\n        /* \"#utility.yul\":634:639   */\n      dup2\n        /* \"#utility.yul\":631:666   */\n      eq\n        /* \"#utility.yul\":621:684   */\n      tag_318\n      jumpi\n        /* \"#utility.yul\":680:681   */\n      0x00\n        /* \"#utility.yul\":677:678   */\n      dup1\n        /* \"#utility.yul\":670:682   */\n      revert\n        /* \"#utility.yul\":621:684   */\n    tag_318:\n        /* \"#utility.yul\":568:690   */\n      pop\n      jump\t// out\n        /* \"#utility.yul\":696:835   */\n    tag_237:\n        /* \"#utility.yul\":742:747   */\n      0x00\n        /* \"#utility.yul\":780:786   */\n      dup2\n        /* \"#utility.yul\":767:787   */\n      calldataload\n        /* \"#utility.yul\":758:787   */\n      swap1\n      pop\n        /* \"#utility.yul\":796:829   */\n      tag_320\n        /* \"#utility.yul\":823:828   */\n      dup2\n        /* \"#utility.yul\":796:829   */\n      tag_236\n      jump\t// in\n    tag_320:\n        /* \"#utility.yul\":696:835   */\n      swap3\n      swap2\n      pop\n      pop\n      jump\t// out\n        /* \"#utility.yul\":841:918   */\n    tag_238:\n        /* \"#utility.yul\":878:885   */\n      0x00\n        /* \"#utility.yul\":907:912   */\n      dup2\n        /* \"#utility.yul\":896:912   */\n      swap1\n      pop\n        /* \"#utility.yul\":841:918   */\n      swap2\n      swap1\n      pop\n      jump\t// out\n        /* \"#utility.yul\":924:1046   */\n    tag_239:\n        /* \"#utility.yul\":997:1021   */\n      tag_323\n        /* \"#utility.yul\":1015:1020   */\n      dup2\n        /* \"#utility.yul\":997:1021   */\n      tag_238\n      jump\t// in\n    tag_323:\n        /* \"#utility.yul\":990:995   */\n      dup2\n        /* \"#utility.yul\":987:1022   */\n      eq\n        /* \"#utility.yul\":977:1040   */\n      tag_324\n      jumpi\n        /* \"#utility.yul\":1036:1037   */\n      0x00\n        /* \"#utility.yul\":1033:1034   */\n      dup1\n        /* \"#utility.yul\":1026:1038   */\n      revert\n        /* \"#utility.yul\":977:1040   */\n    tag_324:\n        /* \"#utility.yul\":924:1046   */\n      pop\n      jump\t// out\n        /* \"#utility.yul\":1052:1191   */\n    tag_240:\n        /* \"#utility.yul\":1098:1103   */\n      0x00\n        /* \"#utility.yul\":1136:1142   */\n      dup2\n        /* \"#utility.yul\":1123:1143   */\n      calldataload\n        /* \"#utility.yul\":1114:1143   */\n      swap1\n      pop\n        /* \"#utility.yul\":1152:1185   */\n      tag_326\n        /* \"#utility.yul\":1179:1184   */\n      dup2\n        /* \"#utility.yul\":1152:1185   */\n      tag_239\n      jump\t// in\n    tag_326:\n        /* \"#utility.yul\":1052:1191   */\n      swap3\n      swap2\n      pop\n      pop\n      jump\t// out\n        /* \"#utility.yul\":1197:1671   */\n    tag_22:\n        /* \"#utility.yul\":1265:1271   */\n      0x00\n        /* \"#utility.yul\":1273:1279   */\n      dup1\n        /* \"#utility.yul\":1322:1324   */\n      0x40\n        /* \"#utility.yul\":1310:1319   */\n      dup4\n        /* \"#utility.yul\":1301:1308   */\n      dup6\n        /* \"#utility.yul\":1297:1320   */\n      sub\n        /* \"#utility.yul\":1293:1325   */\n      slt\n        /* \"#utility.yul\":1290:1409   */\n      iszero\n      tag_328\n      jumpi\n        /* \"#utility.yul\":1328:1407   */\n      tag_329\n      tag_232\n      jump\t// in\n    tag_329:\n        /* \"#utility.yul\":1290:1409   */\n    tag_328:\n        /* \"#utility.yul\":1448:1449   */\n      0x00\n        /* \"#utility.yul\":1473:1526   */\n      tag_330\n        /* \"#utility.yul\":1518:1525   */\n      dup6\n        /* \"#utility.yul\":1509:1515   */\n      dup3\n        /* \"#utility.yul\":1498:1507   */\n      dup7\n        /* \"#utility.yul\":1494:1516   */\n      add\n        /* \"#utility.yul\":1473:1526   */\n      tag_237\n      jump\t// in\n    tag_330:\n        /* \"#utility.yul\":1463:1526   */\n      swap3\n      pop\n        /* \"#utility.yul\":1419:1536   */\n      pop\n        /* \"#utility.yul\":1575:1577   */\n      0x20\n        /* \"#utility.yul\":1601:1654   */\n      tag_331\n        /* \"#utility.yul\":1646:1653   */\n      dup6\n        /* \"#utility.yul\":1637:1643   */\n      dup3\n        /* \"#utility.yul\":1626:1635   */\n      dup7\n        /* \"#utility.yul\":1622:1644   */\n      add\n        /* \"#utility.yul\":1601:1654   */\n      tag_240\n      jump\t// in\n    tag_331:\n        /* \"#utility.yul\":1591:1654   */\n      swap2\n      pop\n        /* \"#utility.yul\":1546:1664   */\n      pop\n        /* \"#utility.yul\":1197:1671   */\n      swap3\n      pop\n      swap3\n      swap1\n      pop\n      jump\t// out\n        /* \"#utility.yul\":1677:1795   */\n    tag_241:\n        /* \"#utility.yul\":1764:1788   */\n      tag_333\n        /* \"#utility.yul\":1782:1787   */\n      dup2\n        /* \"#utility.yul\":1764:1788   */\n      tag_238\n      jump\t// in\n    tag_333:\n        /* \"#utility.yul\":1759:1762   */\n      dup3\n        /* \"#utility.yul\":1752:1789   */\n      mstore\n        /* \"#utility.yul\":1677:1795   */\n      pop\n      pop\n      jump\t// out\n        /* \"#utility.yul\":1801:1919   */\n    tag_242:\n        /* \"#utility.yul\":1888:1912   */\n      tag_335\n        /* \"#utility.yul\":1906:1911   */\n      dup2\n        /* \"#utility.yul\":1888:1912   */\n      tag_235\n      jump\t// in\n    tag_335:\n        /* \"#utility.yul\":1883:1886   */\n      dup3\n        /* \"#utility.yul\":1876:1913   */\n      mstore\n        /* \"#utility.yul\":1801:1919   */\n      pop\n      pop\n      jump\t// out\n        /* \"#utility.yul\":1925:2024   */\n    tag_243:\n        /* \"#utility.yul\":1977:1983   */\n      0x00\n        /* \"#utility.yul\":2011:2016   */\n      dup2\n        /* \"#utility.yul\":2005:2017   */\n      mload\n        /* \"#utility.yul\":1995:2017   */\n      swap1\n      pop\n        /* \"#utility.yul\":1925:2024   */\n      swap2\n      swap1\n      pop\n      jump\t// out\n        /* \"#utility.yul\":2030:2199   */\n    tag_244:\n        /* \"#utility.yul\":2114:2125   */\n      0x00\n        /* \"#utility.yul\":2148:2154   */\n      dup3\n        /* \"#utility.yul\":2143:2146   */\n      dup3\n        /* \"#utility.yul\":2136:2155   */\n      mstore\n        /* \"#utility.yul\":2188:2192   */\n      0x20\n        /* \"#utility.yul\":2183:2186   */\n      dup3\n        /* \"#utility.yul\":2179:2193   */\n      add\n        /* \"#utility.yul\":2164:2193   */\n      swap1\n      pop\n        /* \"#utility.yul\":2030:2199   */\n      swap3\n      swap2\n      pop\n      pop\n      jump\t// out\n        /* \"#utility.yul\":2205:2344   */\n    tag_245:\n        /* \"#utility.yul\":2294:2300   */\n      dup3\n        /* \"#utility.yul\":2289:2292   */\n      dup2\n        /* \"#utility.yul\":2284:2287   */\n      dup4\n        /* \"#utility.yul\":2278:2301   */\n      mcopy\n        /* \"#utility.yul\":2335:2336   */\n      0x00\n        /* \"#utility.yul\":2326:2332   */\n      dup4\n        /* \"#utility.yul\":2321:2324   */\n      dup4\n        /* \"#utility.yul\":2317:2333   */\n      add\n        /* \"#utility.yul\":2310:2337   */\n      mstore\n        /* \"#utility.yul\":2205:2344   */\n      pop\n      pop\n      pop\n      jump\t// out\n        /* \"#utility.yul\":2350:2452   */\n    tag_246:\n        /* \"#utility.yul\":2391:2397   */\n      0x00\n        /* \"#utility.yul\":2442:2444   */\n      0x1f\n        /* \"#utility.yul\":2438:2445   */\n      not\n        /* \"#utility.yul\":2433:2435   */\n      0x1f\n        /* \"#utility.yul\":2426:2431   */\n      dup4\n        /* \"#utility.yul\":2422:2436   */\n      add\n        /* \"#utility.yul\":2418:2446   */\n      and\n        /* \"#utility.yul\":2408:2446   */\n      swap1\n      pop\n        /* \"#utility.yul\":2350:2452   */\n      swap2\n      swap1\n      pop\n      jump\t// out\n        /* \"#utility.yul\":2458:2835   */\n    tag_247:\n        /* \"#utility.yul\":2546:2549   */\n      0x00\n        /* \"#utility.yul\":2574:2613   */\n      tag_341\n        /* \"#utility.yul\":2607:2612   */\n      dup3\n        /* \"#utility.yul\":2574:2613   */\n      tag_243\n      jump\t// in\n    tag_341:\n        /* \"#utility.yul\":2629:2700   */\n      tag_342\n        /* \"#utility.yul\":2693:2699   */\n      dup2\n        /* \"#utility.yul\":2688:2691   */\n      dup6\n        /* \"#utility.yul\":2629:2700   */\n      tag_244\n      jump\t// in\n    tag_342:\n        /* \"#utility.yul\":2622:2700   */\n      swap4\n      pop\n        /* \"#utility.yul\":2709:2774   */\n      tag_343\n        /* \"#utility.yul\":2767:2773   */\n      dup2\n        /* \"#utility.yul\":2762:2765   */\n      dup6\n        /* \"#utility.yul\":2755:2759   */\n      0x20\n        /* \"#utility.yul\":2748:2753   */\n      dup7\n        /* \"#utility.yul\":2744:2760   */\n      add\n        /* \"#utility.yul\":2709:2774   */\n      tag_245\n      jump\t// in\n    tag_343:\n        /* \"#utility.yul\":2799:2828   */\n      tag_344\n        /* \"#utility.yul\":2821:2827   */\n      dup2\n        /* \"#utility.yul\":2799:2828   */\n      tag_246\n      jump\t// in\n    tag_344:\n        /* \"#utility.yul\":2794:2797   */\n      dup5\n        /* \"#utility.yul\":2790:2829   */\n      add\n        /* \"#utility.yul\":2783:2829   */\n      swap2\n      pop\n        /* \"#utility.yul\":2550:2835   */\n      pop\n        /* \"#utility.yul\":2458:2835   */\n      swap3\n      swap2\n      pop\n      pop\n      jump\t// out\n        /* \"#utility.yul\":2841:3596   */\n    tag_25:\n        /* \"#utility.yul\":3066:3070   */\n      0x00\n        /* \"#utility.yul\":3104:3107   */\n      0xa0\n        /* \"#utility.yul\":3093:3102   */\n      dup3\n        /* \"#utility.yul\":3089:3108   */\n      add\n        /* \"#utility.yul\":3081:3108   */\n      swap1\n      pop\n        /* \"#utility.yul\":3118:3189   */\n      tag_346\n        /* \"#utility.yul\":3186:3187   */\n      0x00\n        /* \"#utility.yul\":3175:3184   */\n      dup4\n        /* \"#utility.yul\":3171:3188   */\n      add\n        /* \"#utility.yul\":3162:3168   */\n      dup9\n        /* \"#utility.yul\":3118:3189   */\n      tag_241\n      jump\t// in\n    tag_346:\n        /* \"#utility.yul\":3199:3271   */\n      tag_347\n        /* \"#utility.yul\":3267:3269   */\n      0x20\n        /* \"#utility.yul\":3256:3265   */\n      dup4\n        /* \"#utility.yul\":3252:3270   */\n      add\n        /* \"#utility.yul\":3243:3249   */\n      dup8\n        /* \"#utility.yul\":3199:3271   */\n      tag_242\n      jump\t// in\n    tag_347:\n        /* \"#utility.yul\":3318:3327   */\n      dup2\n        /* \"#utility.yul\":3312:3316   */\n      dup2\n        /* \"#utility.yul\":3308:3328   */\n      sub\n        /* \"#utility.yul\":3303:3305   */\n      0x40\n        /* \"#utility.yul\":3292:3301   */\n      dup4\n        /* \"#utility.yul\":3288:3306   */\n      add\n        /* \"#utility.yul\":3281:3329   */\n      mstore\n        /* \"#utility.yul\":3346:3424   */\n      tag_348\n        /* \"#utility.yul\":3419:3423   */\n      dup2\n        /* \"#utility.yul\":3410:3416   */\n      dup7\n        /* \"#utility.yul\":3346:3424   */\n      tag_247\n      jump\t// in\n    tag_348:\n        /* \"#utility.yul\":3338:3424   */\n      swap1\n      pop\n        /* \"#utility.yul\":3434:3506   */\n      tag_349\n        /* \"#utility.yul\":3502:3504   */\n      0x60\n        /* \"#utility.yul\":3491:3500   */\n      dup4\n        /* \"#utility.yul\":3487:3505   */\n      add\n        /* \"#utility.yul\":3478:3484   */\n      dup6\n        /* \"#utility.yul\":3434:3506   */\n      tag_241\n      jump\t// in\n    tag_349:\n        /* \"#utility.yul\":3516:3589   */\n      tag_350\n        /* \"#utility.yul\":3584:3587   */\n      0x80\n        /* \"#utility.yul\":3573:3582   */\n      dup4\n        /* \"#utility.yul\":3569:3588   */\n      add\n        /* \"#utility.yul\":3560:3566   */\n      dup5\n        /* \"#utility.yul\":3516:3589   */\n      tag_241\n      jump\t// in\n    tag_350:\n        /* \"#utility.yul\":2841:3596   */\n      swap7\n      swap6\n      pop\n      pop\n      pop\n      pop\n      pop\n      pop\n      jump\t// out\n        /* \"#utility.yul\":3602:3931   */\n    tag_28:\n        /* \"#utility.yul\":3661:3667   */\n      0x00\n        /* \"#utility.yul\":3710:3712   */\n      0x20\n        /* \"#utility.yul\":3698:3707   */\n      dup3\n        /* \"#utility.yul\":3689:3696   */\n      dup5\n        /* \"#utility.yul\":3685:3708   */\n      sub\n        /* \"#utility.yul\":3681:3713   */\n      slt\n        /* \"#utility.yul\":3678:3797   */\n      iszero\n      tag_352\n      jumpi\n        /* \"#utility.yul\":3716:3795   */\n      tag_353\n      tag_232\n      jump\t// in\n    tag_353:\n        /* \"#utility.yul\":3678:3797   */\n    tag_352:\n        /* \"#utility.yul\":3836:3837   */\n      0x00\n        /* \"#utility.yul\":3861:3914   */\n      tag_354\n        /* \"#utility.yul\":3906:3913   */\n      dup5\n        /* \"#utility.yul\":3897:3903   */\n      dup3\n        /* \"#utility.yul\":3886:3895   */\n      dup6\n        /* \"#utility.yul\":3882:3904   */\n      add\n        /* \"#utility.yul\":3861:3914   */\n      tag_237\n      jump\t// in\n    tag_354:\n        /* \"#utility.yul\":3851:3914   */\n      swap2\n      pop\n        /* \"#utility.yul\":3807:3924   */\n      pop\n        /* \"#utility.yul\":3602:3931   */\n      swap3\n      swap2\n      pop\n      pop\n      jump\t// out\n        /* \"#utility.yul\":3937:4073   */\n    tag_248:\n        /* \"#utility.yul\":4026:4032   */\n      0x00\n        /* \"#utility.yul\":4060:4065   */\n      dup2\n        /* \"#utility.yul\":4054:4066   */\n      mload\n        /* \"#utility.yul\":4044:4066   */\n      swap1\n      pop\n        /* \"#utility.yul\":3937:4073   */\n      swap2\n      swap1\n      pop\n      jump\t// out\n        /* \"#utility.yul\":4079:4285   */\n    tag_249:\n        /* \"#utility.yul\":4200:4211   */\n      0x00\n        /* \"#utility.yul\":4234:4240   */\n      dup3\n        /* \"#utility.yul\":4229:4232   */\n      dup3\n        /* \"#utility.yul\":4222:4241   */\n      mstore\n        /* \"#utility.yul\":4274:4278   */\n      0x20\n        /* \"#utility.yul\":4269:4272   */\n      dup3\n        /* \"#utility.yul\":4265:4279   */\n      add\n        /* \"#utility.yul\":4250:4279   */\n      swap1\n      pop\n        /* \"#utility.yul\":4079:4285   */\n      swap3\n      swap2\n      pop\n      pop\n      jump\t// out\n        /* \"#utility.yul\":4291:4445   */\n    tag_250:\n        /* \"#utility.yul\":4380:4384   */\n      0x00\n        /* \"#utility.yul\":4403:4406   */\n      dup2\n        /* \"#utility.yul\":4395:4406   */\n      swap1\n      pop\n        /* \"#utility.yul\":4433:4437   */\n      0x20\n        /* \"#utility.yul\":4428:4431   */\n      dup3\n        /* \"#utility.yul\":4424:4438   */\n      add\n        /* \"#utility.yul\":4416:4438   */\n      swap1\n      pop\n        /* \"#utility.yul\":4291:4445   */\n      swap2\n      swap1\n      pop\n      jump\t// out\n        /* \"#utility.yul\":4451:4559   */\n    tag_251:\n        /* \"#utility.yul\":4528:4552   */\n      tag_359\n        /* \"#utility.yul\":4546:4551   */\n      dup2\n        /* \"#utility.yul\":4528:4552   */\n      tag_238\n      jump\t// in\n    tag_359:\n        /* \"#utility.yul\":4523:4526   */\n      dup3\n        /* \"#utility.yul\":4516:4553   */\n      mstore\n        /* \"#utility.yul\":4451:4559   */\n      pop\n      pop\n      jump\t// out\n        /* \"#utility.yul\":4565:4673   */\n    tag_252:\n        /* \"#utility.yul\":4642:4666   */\n      tag_361\n        /* \"#utility.yul\":4660:4665   */\n      dup2\n        /* \"#utility.yul\":4642:4666   */\n      tag_235\n      jump\t// in\n    tag_361:\n        /* \"#utility.yul\":4637:4640   */\n      dup3\n        /* \"#utility.yul\":4630:4667   */\n      mstore\n        /* \"#utility.yul\":4565:4673   */\n      pop\n      pop\n      jump\t// out\n        /* \"#utility.yul\":4679:4838   */\n    tag_253:\n        /* \"#utility.yul\":4753:4764   */\n      0x00\n        /* \"#utility.yul\":4787:4793   */\n      dup3\n        /* \"#utility.yul\":4782:4785   */\n      dup3\n        /* \"#utility.yul\":4775:4794   */\n      mstore\n        /* \"#utility.yul\":4827:4831   */\n      0x20\n        /* \"#utility.yul\":4822:4825   */\n      dup3\n        /* \"#utility.yul\":4818:4832   */\n      add\n        /* \"#utility.yul\":4803:4832   */\n      swap1\n      pop\n        /* \"#utility.yul\":4679:4838   */\n      swap3\n      swap2\n      pop\n      pop\n      jump\t// out\n        /* \"#utility.yul\":4844:5201   */\n    tag_254:\n        /* \"#utility.yul\":4922:4925   */\n      0x00\n        /* \"#utility.yul\":4950:4989   */\n      tag_364\n        /* \"#utility.yul\":4983:4988   */\n      dup3\n        /* \"#utility.yul\":4950:4989   */\n      tag_243\n      jump\t// in\n    tag_364:\n        /* \"#utility.yul\":5005:5066   */\n      tag_365\n        /* \"#utility.yul\":5059:5065   */\n      dup2\n        /* \"#utility.yul\":5054:5057   */\n      dup6\n        /* \"#utility.yul\":5005:5066   */\n      tag_253\n      jump\t// in\n    tag_365:\n        /* \"#utility.yul\":4998:5066   */\n      swap4\n      pop\n        /* \"#utility.yul\":5075:5140   */\n      tag_366\n        /* \"#utility.yul\":5133:5139   */\n      dup2\n        /* \"#utility.yul\":5128:5131   */\n      dup6\n        /* \"#utility.yul\":5121:5125   */\n      0x20\n        /* \"#utility.yul\":5114:5119   */\n      dup7\n        /* \"#utility.yul\":5110:5126   */\n      add\n        /* \"#utility.yul\":5075:5140   */\n      tag_245\n      jump\t// in\n    tag_366:\n        /* \"#utility.yul\":5165:5194   */\n      tag_367\n        /* \"#utility.yul\":5187:5193   */\n      dup2\n        /* \"#utility.yul\":5165:5194   */\n      tag_246\n      jump\t// in\n    tag_367:\n        /* \"#utility.yul\":5160:5163   */\n      dup5\n        /* \"#utility.yul\":5156:5195   */\n      add\n        /* \"#utility.yul\":5149:5195   */\n      swap2\n      pop\n        /* \"#utility.yul\":4926:5201   */\n      pop\n        /* \"#utility.yul\":4844:5201   */\n      swap3\n      swap2\n      pop\n      pop\n      jump\t// out\n        /* \"#utility.yul\":5259:6380   */\n    tag_255:\n        /* \"#utility.yul\":5362:5365   */\n      0x00\n        /* \"#utility.yul\":5398:5402   */\n      0xa0\n        /* \"#utility.yul\":5393:5396   */\n      dup4\n        /* \"#utility.yul\":5389:5403   */\n      add\n        /* \"#utility.yul\":5483:5487   */\n      0x00\n        /* \"#utility.yul\":5476:5481   */\n      dup4\n        /* \"#utility.yul\":5472:5488   */\n      add\n        /* \"#utility.yul\":5466:5489   */\n      mload\n        /* \"#utility.yul\":5502:5565   */\n      tag_369\n        /* \"#utility.yul\":5559:5563   */\n      0x00\n        /* \"#utility.yul\":5554:5557   */\n      dup7\n        /* \"#utility.yul\":5550:5564   */\n      add\n        /* \"#utility.yul\":5536:5548   */\n      dup3\n        /* \"#utility.yul\":5502:5565   */\n      tag_251\n      jump\t// in\n    tag_369:\n        /* \"#utility.yul\":5413:5575   */\n      pop\n        /* \"#utility.yul\":5659:5663   */\n      0x20\n        /* \"#utility.yul\":5652:5657   */\n      dup4\n        /* \"#utility.yul\":5648:5664   */\n      add\n        /* \"#utility.yul\":5642:5665   */\n      mload\n        /* \"#utility.yul\":5678:5741   */\n      tag_370\n        /* \"#utility.yul\":5735:5739   */\n      0x20\n        /* \"#utility.yul\":5730:5733   */\n      dup7\n        /* \"#utility.yul\":5726:5740   */\n      add\n        /* \"#utility.yul\":5712:5724   */\n      dup3\n        /* \"#utility.yul\":5678:5741   */\n      tag_252\n      jump\t// in\n    tag_370:\n        /* \"#utility.yul\":5585:5751   */\n      pop\n        /* \"#utility.yul\":5836:5840   */\n      0x40\n        /* \"#utility.yul\":5829:5834   */\n      dup4\n        /* \"#utility.yul\":5825:5841   */\n      add\n        /* \"#utility.yul\":5819:5842   */\n      mload\n        /* \"#utility.yul\":5889:5892   */\n      dup5\n        /* \"#utility.yul\":5883:5887   */\n      dup3\n        /* \"#utility.yul\":5879:5893   */\n      sub\n        /* \"#utility.yul\":5872:5876   */\n      0x40\n        /* \"#utility.yul\":5867:5870   */\n      dup7\n        /* \"#utility.yul\":5863:5877   */\n      add\n        /* \"#utility.yul\":5856:5894   */\n      mstore\n        /* \"#utility.yul\":5915:5988   */\n      tag_371\n        /* \"#utility.yul\":5983:5987   */\n      dup3\n        /* \"#utility.yul\":5969:5981   */\n      dup3\n        /* \"#utility.yul\":5915:5988   */\n      tag_254\n      jump\t// in\n    tag_371:\n        /* \"#utility.yul\":5907:5988   */\n      swap2\n      pop\n        /* \"#utility.yul\":5761:5999   */\n      pop\n        /* \"#utility.yul\":6086:6090   */\n      0x60\n        /* \"#utility.yul\":6079:6084   */\n      dup4\n        /* \"#utility.yul\":6075:6091   */\n      add\n        /* \"#utility.yul\":6069:6092   */\n      mload\n        /* \"#utility.yul\":6105:6168   */\n      tag_372\n        /* \"#utility.yul\":6162:6166   */\n      0x60\n        /* \"#utility.yul\":6157:6160   */\n      dup7\n        /* \"#utility.yul\":6153:6167   */\n      add\n        /* \"#utility.yul\":6139:6151   */\n      dup3\n        /* \"#utility.yul\":6105:6168   */\n      tag_251\n      jump\t// in\n    tag_372:\n        /* \"#utility.yul\":6009:6178   */\n      pop\n        /* \"#utility.yul\":6261:6265   */\n      0x80\n        /* \"#utility.yul\":6254:6259   */\n      dup4\n        /* \"#utility.yul\":6250:6266   */\n      add\n        /* \"#utility.yul\":6244:6267   */\n      mload\n        /* \"#utility.yul\":6280:6343   */\n      tag_373\n        /* \"#utility.yul\":6337:6341   */\n      0x80\n        /* \"#utility.yul\":6332:6335   */\n      dup7\n        /* \"#utility.yul\":6328:6342   */\n      add\n        /* \"#utility.yul\":6314:6326   */\n      dup3\n        /* \"#utility.yul\":6280:6343   */\n      tag_251\n      jump\t// in\n    tag_373:\n        /* \"#utility.yul\":6188:6353   */\n      pop\n        /* \"#utility.yul\":6370:6374   */\n      dup1\n        /* \"#utility.yul\":6363:6374   */\n      swap2\n      pop\n        /* \"#utility.yul\":5367:6380   */\n      pop\n        /* \"#utility.yul\":5259:6380   */\n      swap3\n      swap2\n      pop\n      pop\n      jump\t// out\n        /* \"#utility.yul\":6386:6630   */\n    tag_256:\n        /* \"#utility.yul\":6499:6509   */\n      0x00\n        /* \"#utility.yul\":6534:6624   */\n      tag_375\n        /* \"#utility.yul\":6620:6623   */\n      dup4\n        /* \"#utility.yul\":6612:6618   */\n      dup4\n        /* \"#utility.yul\":6534:6624   */\n      tag_255\n      jump\t// in\n    tag_375:\n        /* \"#utility.yul\":6520:6624   */\n      swap1\n      pop\n        /* \"#utility.yul\":6386:6630   */\n      swap3\n      swap2\n      pop\n      pop\n      jump\t// out\n        /* \"#utility.yul\":6636:6771   */\n    tag_257:\n        /* \"#utility.yul\":6728:6732   */\n      0x00\n        /* \"#utility.yul\":6760:6764   */\n      0x20\n        /* \"#utility.yul\":6755:6758   */\n      dup3\n        /* \"#utility.yul\":6751:6765   */\n      add\n        /* \"#utility.yul\":6743:6765   */\n      swap1\n      pop\n        /* \"#utility.yul\":6636:6771   */\n      swap2\n      swap1\n      pop\n      jump\t// out\n        /* \"#utility.yul\":6833:7920   */\n    tag_258:\n        /* \"#utility.yul\":6996:6999   */\n      0x00\n        /* \"#utility.yul\":7025:7101   */\n      tag_378\n        /* \"#utility.yul\":7095:7100   */\n      dup3\n        /* \"#utility.yul\":7025:7101   */\n      tag_248\n      jump\t// in\n    tag_378:\n        /* \"#utility.yul\":7117:7225   */\n      tag_379\n        /* \"#utility.yul\":7218:7224   */\n      dup2\n        /* \"#utility.yul\":7213:7216   */\n      dup6\n        /* \"#utility.yul\":7117:7225   */\n      tag_249\n      jump\t// in\n    tag_379:\n        /* \"#utility.yul\":7110:7225   */\n      swap4\n      pop\n        /* \"#utility.yul\":7251:7254   */\n      dup4\n        /* \"#utility.yul\":7296:7300   */\n      0x20\n        /* \"#utility.yul\":7288:7294   */\n      dup3\n        /* \"#utility.yul\":7284:7301   */\n      mul\n        /* \"#utility.yul\":7279:7282   */\n      dup6\n        /* \"#utility.yul\":7275:7302   */\n      add\n        /* \"#utility.yul\":7326:7404   */\n      tag_380\n        /* \"#utility.yul\":7398:7403   */\n      dup6\n        /* \"#utility.yul\":7326:7404   */\n      tag_250\n      jump\t// in\n    tag_380:\n        /* \"#utility.yul\":7427:7434   */\n      dup1\n        /* \"#utility.yul\":7458:7459   */\n      0x00\n        /* \"#utility.yul\":7443:7875   */\n    tag_381:\n        /* \"#utility.yul\":7468:7474   */\n      dup6\n        /* \"#utility.yul\":7465:7466   */\n      dup2\n        /* \"#utility.yul\":7462:7475   */\n      lt\n        /* \"#utility.yul\":7443:7875   */\n      iszero\n      tag_383\n      jumpi\n        /* \"#utility.yul\":7539:7548   */\n      dup5\n        /* \"#utility.yul\":7533:7537   */\n      dup5\n        /* \"#utility.yul\":7529:7549   */\n      sub\n        /* \"#utility.yul\":7524:7527   */\n      dup10\n        /* \"#utility.yul\":7517:7550   */\n      mstore\n        /* \"#utility.yul\":7590:7596   */\n      dup2\n        /* \"#utility.yul\":7584:7597   */\n      mload\n        /* \"#utility.yul\":7618:7726   */\n      tag_384\n        /* \"#utility.yul\":7721:7725   */\n      dup6\n        /* \"#utility.yul\":7706:7719   */\n      dup3\n        /* \"#utility.yul\":7618:7726   */\n      tag_256\n      jump\t// in\n    tag_384:\n        /* \"#utility.yul\":7610:7726   */\n      swap5\n      pop\n        /* \"#utility.yul\":7749:7831   */\n      tag_385\n        /* \"#utility.yul\":7824:7830   */\n      dup4\n        /* \"#utility.yul\":7749:7831   */\n      tag_257\n      jump\t// in\n    tag_385:\n        /* \"#utility.yul\":7739:7831   */\n      swap3\n      pop\n        /* \"#utility.yul\":7860:7864   */\n      0x20\n        /* \"#utility.yul\":7855:7858   */\n      dup11\n        /* \"#utility.yul\":7851:7865   */\n      add\n        /* \"#utility.yul\":7844:7865   */\n      swap10\n      pop\n        /* \"#utility.yul\":7503:7875   */\n      pop\n        /* \"#utility.yul\":7490:7491   */\n      0x01\n        /* \"#utility.yul\":7487:7488   */\n      dup2\n        /* \"#utility.yul\":7483:7492   */\n      add\n        /* \"#utility.yul\":7478:7492   */\n      swap1\n      pop\n        /* \"#utility.yul\":7443:7875   */\n      jump(tag_381)\n    tag_383:\n        /* \"#utility.yul\":7447:7461   */\n      pop\n        /* \"#utility.yul\":7891:7895   */\n      dup3\n        /* \"#utility.yul\":7884:7895   */\n      swap8\n      pop\n        /* \"#utility.yul\":7911:7914   */\n      dup8\n        /* \"#utility.yul\":7904:7914   */\n      swap6\n      pop\n        /* \"#utility.yul\":7001:7920   */\n      pop\n      pop\n      pop\n      pop\n      pop\n        /* \"#utility.yul\":6833:7920   */\n      swap3\n      swap2\n      pop\n      pop\n      jump\t// out\n        /* \"#utility.yul\":7926:8387   */\n    tag_31:\n        /* \"#utility.yul\":8113:8117   */\n      0x00\n        /* \"#utility.yul\":8151:8153   */\n      0x20\n        /* \"#utility.yul\":8140:8149   */\n      dup3\n        /* \"#utility.yul\":8136:8154   */\n      add\n        /* \"#utility.yul\":8128:8154   */\n      swap1\n      pop\n        /* \"#utility.yul\":8200:8209   */\n      dup2\n        /* \"#utility.yul\":8194:8198   */\n      dup2\n        /* \"#utility.yul\":8190:8210   */\n      sub\n        /* \"#utility.yul\":8186:8187   */\n      0x00\n        /* \"#utility.yul\":8175:8184   */\n      dup4\n        /* \"#utility.yul\":8171:8188   */\n      add\n        /* \"#utility.yul\":8164:8211   */\n      mstore\n        /* \"#utility.yul\":8228:8380   */\n      tag_387\n        /* \"#utility.yul\":8375:8379   */\n      dup2\n        /* \"#utility.yul\":8366:8372   */\n      dup5\n        /* \"#utility.yul\":8228:8380   */\n      tag_258\n      jump\t// in\n    tag_387:\n        /* \"#utility.yul\":8220:8380   */\n      swap1\n      pop\n        /* \"#utility.yul\":7926:8387   */\n      swap3\n      swap2\n      pop\n      pop\n      jump\t// out\n        /* \"#utility.yul\":8393:8482   */\n    tag_259:\n        /* \"#utility.yul\":8429:8436   */\n      0x00\n        /* \"#utility.yul\":8469:8475   */\n      0xffff\n        /* \"#utility.yul\":8462:8467   */\n      dup3\n        /* \"#utility.yul\":8458:8476   */\n      and\n        /* \"#utility.yul\":8447:8476   */\n      swap1\n      pop\n        /* \"#utility.yul\":8393:8482   */\n      swap2\n      swap1\n      pop\n      jump\t// out\n        /* \"#utility.yul\":8488:8608   */\n    tag_260:\n        /* \"#utility.yul\":8560:8583   */\n      tag_390\n        /* \"#utility.yul\":8577:8582   */\n      dup2\n        /* \"#utility.yul\":8560:8583   */\n      tag_259\n      jump\t// in\n    tag_390:\n        /* \"#utility.yul\":8553:8558   */\n      dup2\n        /* \"#utility.yul\":8550:8584   */\n      eq\n        /* \"#utility.yul\":8540:8602   */\n      tag_391\n      jumpi\n        /* \"#utility.yul\":8598:8599   */\n      0x00\n        /* \"#utility.yul\":8595:8596   */\n      dup1\n        /* \"#utility.yul\":8588:8600   */\n      revert\n        /* \"#utility.yul\":8540:8602   */\n    tag_391:\n        /* \"#utility.yul\":8488:8608   */\n      pop\n      jump\t// out\n        /* \"#utility.yul\":8614:8751   */\n    tag_261:\n        /* \"#utility.yul\":8659:8664   */\n      0x00\n        /* \"#utility.yul\":8697:8703   */\n      dup2\n        /* \"#utility.yul\":8684:8704   */\n      calldataload\n        /* \"#utility.yul\":8675:8704   */\n      swap1\n      pop\n        /* \"#utility.yul\":8713:8745   */\n      tag_393\n        /* \"#utility.yul\":8739:8744   */\n      dup2\n        /* \"#utility.yul\":8713:8745   */\n      tag_260\n      jump\t// in\n    tag_393:\n        /* \"#utility.yul\":8614:8751   */\n      swap3\n      swap2\n      pop\n      pop\n      jump\t// out\n        /* \"#utility.yul\":8757:9084   */\n    tag_37:\n        /* \"#utility.yul\":8815:8821   */\n      0x00\n        /* \"#utility.yul\":8864:8866   */\n      0x20\n        /* \"#utility.yul\":8852:8861   */\n      dup3\n        /* \"#utility.yul\":8843:8850   */\n      dup5\n        /* \"#utility.yul\":8839:8862   */\n      sub\n        /* \"#utility.yul\":8835:8867   */\n      slt\n        /* \"#utility.yul\":8832:8951   */\n      iszero\n      tag_395\n      jumpi\n        /* \"#utility.yul\":8870:8949   */\n      tag_396\n      tag_232\n      jump\t// in\n    tag_396:\n        /* \"#utility.yul\":8832:8951   */\n    tag_395:\n        /* \"#utility.yul\":8990:8991   */\n      0x00\n        /* \"#utility.yul\":9015:9067   */\n      tag_397\n        /* \"#utility.yul\":9059:9066   */\n      dup5\n        /* \"#utility.yul\":9050:9056   */\n      dup3\n        /* \"#utility.yul\":9039:9048   */\n      dup6\n        /* \"#utility.yul\":9035:9057   */\n      add\n        /* \"#utility.yul\":9015:9067   */\n      tag_261\n      jump\t// in\n    tag_397:\n        /* \"#utility.yul\":9005:9067   */\n      swap2\n      pop\n        /* \"#utility.yul\":8961:9077   */\n      pop\n        /* \"#utility.yul\":8757:9084   */\n      swap3\n      swap2\n      pop\n      pop\n      jump\t// out\n        /* \"#utility.yul\":9090:9205   */\n    tag_262:\n        /* \"#utility.yul\":9175:9198   */\n      tag_399\n        /* \"#utility.yul\":9192:9197   */\n      dup2\n        /* \"#utility.yul\":9175:9198   */\n      tag_259\n      jump\t// in\n    tag_399:\n        /* \"#utility.yul\":9170:9173   */\n      dup3\n        /* \"#utility.yul\":9163:9199   */\n      mstore\n        /* \"#utility.yul\":9090:9205   */\n      pop\n      pop\n      jump\t// out\n        /* \"#utility.yul\":9211:9429   */\n    tag_42:\n        /* \"#utility.yul\":9302:9306   */\n      0x00\n        /* \"#utility.yul\":9340:9342   */\n      0x20\n        /* \"#utility.yul\":9329:9338   */\n      dup3\n        /* \"#utility.yul\":9325:9343   */\n      add\n        /* \"#utility.yul\":9317:9343   */\n      swap1\n      pop\n        /* \"#utility.yul\":9353:9422   */\n      tag_401\n        /* \"#utility.yul\":9419:9420   */\n      0x00\n        /* \"#utility.yul\":9408:9417   */\n      dup4\n        /* \"#utility.yul\":9404:9421   */\n      add\n        /* \"#utility.yul\":9395:9401   */\n      dup5\n        /* \"#utility.yul\":9353:9422   */\n      tag_262\n      jump\t// in\n    tag_401:\n        /* \"#utility.yul\":9211:9429   */\n      swap3\n      swap2\n      pop\n      pop\n      jump\t// out\n        /* \"#utility.yul\":9435:9552   */\n    tag_263:\n        /* \"#utility.yul\":9544:9545   */\n      0x00\n        /* \"#utility.yul\":9541:9542   */\n      dup1\n        /* \"#utility.yul\":9534:9546   */\n      revert\n        /* \"#utility.yul\":9558:9675   */\n    tag_264:\n        /* \"#utility.yul\":9667:9668   */\n      0x00\n        /* \"#utility.yul\":9664:9665   */\n      dup1\n        /* \"#utility.yul\":9657:9669   */\n      revert\n        /* \"#utility.yul\":9681:9861   */\n    tag_265:\n        /* \"#utility.yul\":9729:9806   */\n      0x4e487b7100000000000000000000000000000000000000000000000000000000\n        /* \"#utility.yul\":9726:9727   */\n      0x00\n        /* \"#utility.yul\":9719:9807   */\n      mstore\n        /* \"#utility.yul\":9826:9830   */\n      0x41\n        /* \"#utility.yul\":9823:9824   */\n      0x04\n        /* \"#utility.yul\":9816:9831   */\n      mstore\n        /* \"#utility.yul\":9850:9854   */\n      0x24\n        /* \"#utility.yul\":9847:9848   */\n      0x00\n        /* \"#utility.yul\":9840:9855   */\n      revert\n        /* \"#utility.yul\":9867:10148   */\n    tag_266:\n        /* \"#utility.yul\":9950:9977   */\n      tag_406\n        /* \"#utility.yul\":9972:9976   */\n      dup3\n        /* \"#utility.yul\":9950:9977   */\n      tag_246\n      jump\t// in\n    tag_406:\n        /* \"#utility.yul\":9942:9948   */\n      dup2\n        /* \"#utility.yul\":9938:9978   */\n      add\n        /* \"#utility.yul\":10080:10086   */\n      dup2\n        /* \"#utility.yul\":10068:10078   */\n      dup2\n        /* \"#utility.yul\":10065:10087   */\n      lt\n        /* \"#utility.yul\":10044:10062   */\n      0xffffffffffffffff\n        /* \"#utility.yul\":10032:10042   */\n      dup3\n        /* \"#utility.yul\":10029:10063   */\n      gt\n        /* \"#utility.yul\":10026:10088   */\n      or\n        /* \"#utility.yul\":10023:10111   */\n      iszero\n      tag_407\n      jumpi\n        /* \"#utility.yul\":10091:10109   */\n      tag_408\n      tag_265\n      jump\t// in\n    tag_408:\n        /* \"#utility.yul\":10023:10111   */\n    tag_407:\n        /* \"#utility.yul\":10131:10141   */\n      dup1\n        /* \"#utility.yul\":10127:10129   */\n      0x40\n        /* \"#utility.yul\":10120:10142   */\n      mstore\n        /* \"#utility.yul\":9910:10148   */\n      pop\n        /* \"#utility.yul\":9867:10148   */\n      pop\n      pop\n      jump\t// out\n        /* \"#utility.yul\":10154:10283   */\n    tag_267:\n        /* \"#utility.yul\":10188:10194   */\n      0x00\n        /* \"#utility.yul\":10215:10235   */\n      tag_410\n      tag_231\n      jump\t// in\n    tag_410:\n        /* \"#utility.yul\":10205:10235   */\n      swap1\n      pop\n        /* \"#utility.yul\":10244:10277   */\n      tag_411\n        /* \"#utility.yul\":10272:10276   */\n      dup3\n        /* \"#utility.yul\":10264:10270   */\n      dup3\n        /* \"#utility.yul\":10244:10277   */\n      tag_266\n      jump\t// in\n    tag_411:\n        /* \"#utility.yul\":10154:10283   */\n      swap2\n      swap1\n      pop\n      jump\t// out\n        /* \"#utility.yul\":10289:10597   */\n    tag_268:\n        /* \"#utility.yul\":10351:10355   */\n      0x00\n        /* \"#utility.yul\":10441:10459   */\n      0xffffffffffffffff\n        /* \"#utility.yul\":10433:10439   */\n      dup3\n        /* \"#utility.yul\":10430:10460   */\n      gt\n        /* \"#utility.yul\":10427:10483   */\n      iszero\n      tag_413\n      jumpi\n        /* \"#utility.yul\":10463:10481   */\n      tag_414\n      tag_265\n      jump\t// in\n    tag_414:\n        /* \"#utility.yul\":10427:10483   */\n    tag_413:\n        /* \"#utility.yul\":10501:10530   */\n      tag_415\n        /* \"#utility.yul\":10523:10529   */\n      dup3\n        /* \"#utility.yul\":10501:10530   */\n      tag_246\n      jump\t// in\n    tag_415:\n        /* \"#utility.yul\":10493:10530   */\n      swap1\n      pop\n        /* \"#utility.yul\":10585:10589   */\n      0x20\n        /* \"#utility.yul\":10579:10583   */\n      dup2\n        /* \"#utility.yul\":10575:10590   */\n      add\n        /* \"#utility.yul\":10567:10590   */\n      swap1\n      pop\n        /* \"#utility.yul\":10289:10597   */\n      swap2\n      swap1\n      pop\n      jump\t// out\n        /* \"#utility.yul\":10603:10751   */\n    tag_269:\n        /* \"#utility.yul\":10701:10707   */\n      dup3\n        /* \"#utility.yul\":10696:10699   */\n      dup2\n        /* \"#utility.yul\":10691:10694   */\n      dup4\n        /* \"#utility.yul\":10678:10708   */\n      calldatacopy\n        /* \"#utility.yul\":10742:10743   */\n      0x00\n        /* \"#utility.yul\":10733:10739   */\n      dup4\n        /* \"#utility.yul\":10728:10731   */\n      dup4\n        /* \"#utility.yul\":10724:10740   */\n      add\n        /* \"#utility.yul\":10717:10744   */\n      mstore\n        /* \"#utility.yul\":10603:10751   */\n      pop\n      pop\n      pop\n      jump\t// out\n        /* \"#utility.yul\":10757:11182   */\n    tag_270:\n        /* \"#utility.yul\":10835:10840   */\n      0x00\n        /* \"#utility.yul\":10860:10926   */\n      tag_418\n        /* \"#utility.yul\":10876:10925   */\n      tag_419\n        /* \"#utility.yul\":10918:10924   */\n      dup5\n        /* \"#utility.yul\":10876:10925   */\n      tag_268\n      jump\t// in\n    tag_419:\n        /* \"#utility.yul\":10860:10926   */\n      tag_267\n      jump\t// in\n    tag_418:\n        /* \"#utility.yul\":10851:10926   */\n      swap1\n      pop\n        /* \"#utility.yul\":10949:10955   */\n      dup3\n        /* \"#utility.yul\":10942:10947   */\n      dup2\n        /* \"#utility.yul\":10935:10956   */\n      mstore\n        /* \"#utility.yul\":10987:10991   */\n      0x20\n        /* \"#utility.yul\":10980:10985   */\n      dup2\n        /* \"#utility.yul\":10976:10992   */\n      add\n        /* \"#utility.yul\":11025:11028   */\n      dup5\n        /* \"#utility.yul\":11016:11022   */\n      dup5\n        /* \"#utility.yul\":11011:11014   */\n      dup5\n        /* \"#utility.yul\":11007:11023   */\n      add\n        /* \"#utility.yul\":11004:11029   */\n      gt\n        /* \"#utility.yul\":11001:11113   */\n      iszero\n      tag_420\n      jumpi\n        /* \"#utility.yul\":11032:11111   */\n      tag_421\n      tag_264\n      jump\t// in\n    tag_421:\n        /* \"#utility.yul\":11001:11113   */\n    tag_420:\n        /* \"#utility.yul\":11122:11176   */\n      tag_422\n        /* \"#utility.yul\":11169:11175   */\n      dup5\n        /* \"#utility.yul\":11164:11167   */\n      dup3\n        /* \"#utility.yul\":11159:11162   */\n      dup6\n        /* \"#utility.yul\":11122:11176   */\n      tag_269\n      jump\t// in\n    tag_422:\n        /* \"#utility.yul\":10841:11182   */\n      pop\n        /* \"#utility.yul\":10757:11182   */\n      swap4\n      swap3\n      pop\n      pop\n      pop\n      jump\t// out\n        /* \"#utility.yul\":11202:11542   */\n    tag_271:\n        /* \"#utility.yul\":11258:11263   */\n      0x00\n        /* \"#utility.yul\":11307:11310   */\n      dup3\n        /* \"#utility.yul\":11300:11304   */\n      0x1f\n        /* \"#utility.yul\":11292:11298   */\n      dup4\n        /* \"#utility.yul\":11288:11305   */\n      add\n        /* \"#utility.yul\":11284:11311   */\n      slt\n        /* \"#utility.yul\":11274:11396   */\n      tag_424\n      jumpi\n        /* \"#utility.yul\":11315:11394   */\n      tag_425\n      tag_263\n      jump\t// in\n    tag_425:\n        /* \"#utility.yul\":11274:11396   */\n    tag_424:\n        /* \"#utility.yul\":11432:11438   */\n      dup2\n        /* \"#utility.yul\":11419:11439   */\n      calldataload\n        /* \"#utility.yul\":11457:11536   */\n      tag_426\n        /* \"#utility.yul\":11532:11535   */\n      dup5\n        /* \"#utility.yul\":11524:11530   */\n      dup3\n        /* \"#utility.yul\":11517:11521   */\n      0x20\n        /* \"#utility.yul\":11509:11515   */\n      dup7\n        /* \"#utility.yul\":11505:11522   */\n      add\n        /* \"#utility.yul\":11457:11536   */\n      tag_270\n      jump\t// in\n    tag_426:\n        /* \"#utility.yul\":11448:11536   */\n      swap2\n      pop\n        /* \"#utility.yul\":11264:11542   */\n      pop\n        /* \"#utility.yul\":11202:11542   */\n      swap3\n      swap2\n      pop\n      pop\n      jump\t// out\n        /* \"#utility.yul\":11548:12057   */\n    tag_47:\n        /* \"#utility.yul\":11617:11623   */\n      0x00\n        /* \"#utility.yul\":11666:11668   */\n      0x20\n        /* \"#utility.yul\":11654:11663   */\n      dup3\n        /* \"#utility.yul\":11645:11652   */\n      dup5\n        /* \"#utility.yul\":11641:11664   */\n      sub\n        /* \"#utility.yul\":11637:11669   */\n      slt\n        /* \"#utility.yul\":11634:11753   */\n      iszero\n      tag_428\n      jumpi\n        /* \"#utility.yul\":11672:11751   */\n      tag_429\n      tag_232\n      jump\t// in\n    tag_429:\n        /* \"#utility.yul\":11634:11753   */\n    tag_428:\n        /* \"#utility.yul\":11820:11821   */\n      0x00\n        /* \"#utility.yul\":11809:11818   */\n      dup3\n        /* \"#utility.yul\":11805:11822   */\n      add\n        /* \"#utility.yul\":11792:11823   */\n      calldataload\n        /* \"#utility.yul\":11850:11868   */\n      0xffffffffffffffff\n        /* \"#utility.yul\":11842:11848   */\n      dup2\n        /* \"#utility.yul\":11839:11869   */\n      gt\n        /* \"#utility.yul\":11836:11953   */\n      iszero\n      tag_430\n      jumpi\n        /* \"#utility.yul\":11872:11951   */\n      tag_431\n      tag_233\n      jump\t// in\n    tag_431:\n        /* \"#utility.yul\":11836:11953   */\n    tag_430:\n        /* \"#utility.yul\":11977:12040   */\n      tag_432\n        /* \"#utility.yul\":12032:12039   */\n      dup5\n        /* \"#utility.yul\":12023:12029   */\n      dup3\n        /* \"#utility.yul\":12012:12021   */\n      dup6\n        /* \"#utility.yul\":12008:12030   */\n      add\n        /* \"#utility.yul\":11977:12040   */\n      tag_271\n      jump\t// in\n    tag_432:\n        /* \"#utility.yul\":11967:12040   */\n      swap2\n      pop\n        /* \"#utility.yul\":11763:12050   */\n      pop\n        /* \"#utility.yul\":11548:12057   */\n      swap3\n      swap2\n      pop\n      pop\n      jump\t// out\n        /* \"#utility.yul\":12063:12285   */\n    tag_53:\n        /* \"#utility.yul\":12156:12160   */\n      0x00\n        /* \"#utility.yul\":12194:12196   */\n      0x20\n        /* \"#utility.yul\":12183:12192   */\n      dup3\n        /* \"#utility.yul\":12179:12197   */\n      add\n        /* \"#utility.yul\":12171:12197   */\n      swap1\n      pop\n        /* \"#utility.yul\":12207:12278   */\n      tag_434\n        /* \"#utility.yul\":12275:12276   */\n      0x00\n        /* \"#utility.yul\":12264:12273   */\n      dup4\n        /* \"#utility.yul\":12260:12277   */\n      add\n        /* \"#utility.yul\":12251:12257   */\n      dup5\n        /* \"#utility.yul\":12207:12278   */\n      tag_241\n      jump\t// in\n    tag_434:\n        /* \"#utility.yul\":12063:12285   */\n      swap3\n      swap2\n      pop\n      pop\n      jump\t// out\n        /* \"#utility.yul\":12291:12513   */\n    tag_57:\n        /* \"#utility.yul\":12384:12388   */\n      0x00\n        /* \"#utility.yul\":12422:12424   */\n      0x20\n        /* \"#utility.yul\":12411:12420   */\n      dup3\n        /* \"#utility.yul\":12407:12425   */\n      add\n        /* \"#utility.yul\":12399:12425   */\n      swap1\n      pop\n        /* \"#utility.yul\":12435:12506   */\n      tag_436\n        /* \"#utility.yul\":12503:12504   */\n      0x00\n        /* \"#utility.yul\":12492:12501   */\n      dup4\n        /* \"#utility.yul\":12488:12505   */\n      add\n        /* \"#utility.yul\":12479:12485   */\n      dup5\n        /* \"#utility.yul\":12435:12506   */\n      tag_242\n      jump\t// in\n    tag_436:\n        /* \"#utility.yul\":12291:12513   */\n      swap3\n      swap2\n      pop\n      pop\n      jump\t// out\n        /* \"#utility.yul\":12519:12993   */\n    tag_60:\n        /* \"#utility.yul\":12587:12593   */\n      0x00\n        /* \"#utility.yul\":12595:12601   */\n      dup1\n        /* \"#utility.yul\":12644:12646   */\n      0x40\n        /* \"#utility.yul\":12632:12641   */\n      dup4\n        /* \"#utility.yul\":12623:12630   */\n      dup6\n        /* \"#utility.yul\":12619:12642   */\n      sub\n        /* \"#utility.yul\":12615:12647   */\n      slt\n        /* \"#utility.yul\":12612:12731   */\n      iszero\n      tag_438\n      jumpi\n        /* \"#utility.yul\":12650:12729   */\n      tag_439\n      tag_232\n      jump\t// in\n    tag_439:\n        /* \"#utility.yul\":12612:12731   */\n    tag_438:\n        /* \"#utility.yul\":12770:12771   */\n      0x00\n        /* \"#utility.yul\":12795:12848   */\n      tag_440\n        /* \"#utility.yul\":12840:12847   */\n      dup6\n        /* \"#utility.yul\":12831:12837   */\n      dup3\n        /* \"#utility.yul\":12820:12829   */\n      dup7\n        /* \"#utility.yul\":12816:12838   */\n      add\n        /* \"#utility.yul\":12795:12848   */\n      tag_240\n      jump\t// in\n    tag_440:\n        /* \"#utility.yul\":12785:12848   */\n      swap3\n      pop\n        /* \"#utility.yul\":12741:12858   */\n      pop\n        /* \"#utility.yul\":12897:12899   */\n      0x20\n        /* \"#utility.yul\":12923:12976   */\n      tag_441\n        /* \"#utility.yul\":12968:12975   */\n      dup6\n        /* \"#utility.yul\":12959:12965   */\n      dup3\n        /* \"#utility.yul\":12948:12957   */\n      dup7\n        /* \"#utility.yul\":12944:12966   */\n      add\n        /* \"#utility.yul\":12923:12976   */\n      tag_237\n      jump\t// in\n    tag_441:\n        /* \"#utility.yul\":12913:12976   */\n      swap2\n      pop\n        /* \"#utility.yul\":12868:12986   */\n      pop\n        /* \"#utility.yul\":12519:12993   */\n      swap3\n      pop\n      swap3\n      swap1\n      pop\n      jump\t// out\n        /* \"#utility.yul\":12999:13059   */\n    tag_272:\n        /* \"#utility.yul\":13027:13030   */\n      0x00\n        /* \"#utility.yul\":13048:13053   */\n      dup2\n        /* \"#utility.yul\":13041:13053   */\n      swap1\n      pop\n        /* \"#utility.yul\":12999:13059   */\n      swap2\n      swap1\n      pop\n      jump\t// out\n        /* \"#utility.yul\":13065:13207   */\n    tag_273:\n        /* \"#utility.yul\":13115:13124   */\n      0x00\n        /* \"#utility.yul\":13148:13201   */\n      tag_444\n        /* \"#utility.yul\":13166:13200   */\n      tag_445\n        /* \"#utility.yul\":13175:13199   */\n      tag_446\n        /* \"#utility.yul\":13193:13198   */\n      dup5\n        /* \"#utility.yul\":13175:13199   */\n      tag_234\n      jump\t// in\n    tag_446:\n        /* \"#utility.yul\":13166:13200   */\n      tag_272\n      jump\t// in\n    tag_445:\n        /* \"#utility.yul\":13148:13201   */\n      tag_234\n      jump\t// in\n    tag_444:\n        /* \"#utility.yul\":13135:13201   */\n      swap1\n      pop\n        /* \"#utility.yul\":13065:13207   */\n      swap2\n      swap1\n      pop\n      jump\t// out\n        /* \"#utility.yul\":13213:13339   */\n    tag_274:\n        /* \"#utility.yul\":13263:13272   */\n      0x00\n        /* \"#utility.yul\":13296:13333   */\n      tag_448\n        /* \"#utility.yul\":13327:13332   */\n      dup3\n        /* \"#utility.yul\":13296:13333   */\n      tag_273\n      jump\t// in\n    tag_448:\n        /* \"#utility.yul\":13283:13333   */\n      swap1\n      pop\n        /* \"#utility.yul\":13213:13339   */\n      swap2\n      swap1\n      pop\n      jump\t// out\n        /* \"#utility.yul\":13345:13487   */\n    tag_275:\n        /* \"#utility.yul\":13411:13420   */\n      0x00\n        /* \"#utility.yul\":13444:13481   */\n      tag_450\n        /* \"#utility.yul\":13475:13480   */\n      dup3\n        /* \"#utility.yul\":13444:13481   */\n      tag_274\n      jump\t// in\n    tag_450:\n        /* \"#utility.yul\":13431:13481   */\n      swap1\n      pop\n        /* \"#utility.yul\":13345:13487   */\n      swap2\n      swap1\n      pop\n      jump\t// out\n        /* \"#utility.yul\":13493:13656   */\n    tag_276:\n        /* \"#utility.yul\":13596:13649   */\n      tag_452\n        /* \"#utility.yul\":13643:13648   */\n      dup2\n        /* \"#utility.yul\":13596:13649   */\n      tag_275\n      jump\t// in\n    tag_452:\n        /* \"#utility.yul\":13591:13594   */\n      dup3\n        /* \"#utility.yul\":13584:13650   */\n      mstore\n        /* \"#utility.yul\":13493:13656   */\n      pop\n      pop\n      jump\t// out\n        /* \"#utility.yul\":13662:13916   */\n    tag_65:\n        /* \"#utility.yul\":13771:13775   */\n      0x00\n        /* \"#utility.yul\":13809:13811   */\n      0x20\n        /* \"#utility.yul\":13798:13807   */\n      dup3\n        /* \"#utility.yul\":13794:13812   */\n      add\n        /* \"#utility.yul\":13786:13812   */\n      swap1\n      pop\n        /* \"#utility.yul\":13822:13909   */\n      tag_454\n        /* \"#utility.yul\":13906:13907   */\n      0x00\n        /* \"#utility.yul\":13895:13904   */\n      dup4\n        /* \"#utility.yul\":13891:13908   */\n      add\n        /* \"#utility.yul\":13882:13888   */\n      dup5\n        /* \"#utility.yul\":13822:13909   */\n      tag_276\n      jump\t// in\n    tag_454:\n        /* \"#utility.yul\":13662:13916   */\n      swap3\n      swap2\n      pop\n      pop\n      jump\t// out\n        /* \"#utility.yul\":13922:14251   */\n    tag_71:\n        /* \"#utility.yul\":13981:13987   */\n      0x00\n        /* \"#utility.yul\":14030:14032   */\n      0x20\n        /* \"#utility.yul\":14018:14027   */\n      dup3\n        /* \"#utility.yul\":14009:14016   */\n      dup5\n        /* \"#utility.yul\":14005:14028   */\n      sub\n        /* \"#utility.yul\":14001:14033   */\n      slt\n        /* \"#utility.yul\":13998:14117   */\n      iszero\n      tag_456\n      jumpi\n        /* \"#utility.yul\":14036:14115   */\n      tag_457\n      tag_232\n      jump\t// in\n    tag_457:\n        /* \"#utility.yul\":13998:14117   */\n    tag_456:\n        /* \"#utility.yul\":14156:14157   */\n      0x00\n        /* \"#utility.yul\":14181:14234   */\n      tag_458\n        /* \"#utility.yul\":14226:14233   */\n      dup5\n        /* \"#utility.yul\":14217:14223   */\n      dup3\n        /* \"#utility.yul\":14206:14215   */\n      dup6\n        /* \"#utility.yul\":14202:14224   */\n      add\n        /* \"#utility.yul\":14181:14234   */\n      tag_240\n      jump\t// in\n    tag_458:\n        /* \"#utility.yul\":14171:14234   */\n      swap2\n      pop\n        /* \"#utility.yul\":14127:14244   */\n      pop\n        /* \"#utility.yul\":13922:14251   */\n      swap3\n      swap2\n      pop\n      pop\n      jump\t// out\n        /* \"#utility.yul\":14309:15440   */\n    tag_277:\n        /* \"#utility.yul\":14422:14425   */\n      0x00\n        /* \"#utility.yul\":14458:14462   */\n      0xa0\n        /* \"#utility.yul\":14453:14456   */\n      dup4\n        /* \"#utility.yul\":14449:14463   */\n      add\n        /* \"#utility.yul\":14543:14547   */\n      0x00\n        /* \"#utility.yul\":14536:14541   */\n      dup4\n        /* \"#utility.yul\":14532:14548   */\n      add\n        /* \"#utility.yul\":14526:14549   */\n      mload\n        /* \"#utility.yul\":14562:14625   */\n      tag_460\n        /* \"#utility.yul\":14619:14623   */\n      0x00\n        /* \"#utility.yul\":14614:14617   */\n      dup7\n        /* \"#utility.yul\":14610:14624   */\n      add\n        /* \"#utility.yul\":14596:14608   */\n      dup3\n        /* \"#utility.yul\":14562:14625   */\n      tag_251\n      jump\t// in\n    tag_460:\n        /* \"#utility.yul\":14473:14635   */\n      pop\n        /* \"#utility.yul\":14719:14723   */\n      0x20\n        /* \"#utility.yul\":14712:14717   */\n      dup4\n        /* \"#utility.yul\":14708:14724   */\n      add\n        /* \"#utility.yul\":14702:14725   */\n      mload\n        /* \"#utility.yul\":14738:14801   */\n      tag_461\n        /* \"#utility.yul\":14795:14799   */\n      0x20\n        /* \"#utility.yul\":14790:14793   */\n      dup7\n        /* \"#utility.yul\":14786:14800   */\n      add\n        /* \"#utility.yul\":14772:14784   */\n      dup3\n        /* \"#utility.yul\":14738:14801   */\n      tag_252\n      jump\t// in\n    tag_461:\n        /* \"#utility.yul\":14645:14811   */\n      pop\n        /* \"#utility.yul\":14896:14900   */\n      0x40\n        /* \"#utility.yul\":14889:14894   */\n      dup4\n        /* \"#utility.yul\":14885:14901   */\n      add\n        /* \"#utility.yul\":14879:14902   */\n      mload\n        /* \"#utility.yul\":14949:14952   */\n      dup5\n        /* \"#utility.yul\":14943:14947   */\n      dup3\n        /* \"#utility.yul\":14939:14953   */\n      sub\n        /* \"#utility.yul\":14932:14936   */\n      0x40\n        /* \"#utility.yul\":14927:14930   */\n      dup7\n        /* \"#utility.yul\":14923:14937   */\n      add\n        /* \"#utility.yul\":14916:14954   */\n      mstore\n        /* \"#utility.yul\":14975:15048   */\n      tag_462\n        /* \"#utility.yul\":15043:15047   */\n      dup3\n        /* \"#utility.yul\":15029:15041   */\n      dup3\n        /* \"#utility.yul\":14975:15048   */\n      tag_254\n      jump\t// in\n    tag_462:\n        /* \"#utility.yul\":14967:15048   */\n      swap2\n      pop\n        /* \"#utility.yul\":14821:15059   */\n      pop\n        /* \"#utility.yul\":15146:15150   */\n      0x60\n        /* \"#utility.yul\":15139:15144   */\n      dup4\n        /* \"#utility.yul\":15135:15151   */\n      add\n        /* \"#utility.yul\":15129:15152   */\n      mload\n        /* \"#utility.yul\":15165:15228   */\n      tag_463\n        /* \"#utility.yul\":15222:15226   */\n      0x60\n        /* \"#utility.yul\":15217:15220   */\n      dup7\n        /* \"#utility.yul\":15213:15227   */\n      add\n        /* \"#utility.yul\":15199:15211   */\n      dup3\n        /* \"#utility.yul\":15165:15228   */\n      tag_251\n      jump\t// in\n    tag_463:\n        /* \"#utility.yul\":15069:15238   */\n      pop\n        /* \"#utility.yul\":15321:15325   */\n      0x80\n        /* \"#utility.yul\":15314:15319   */\n      dup4\n        /* \"#utility.yul\":15310:15326   */\n      add\n        /* \"#utility.yul\":15304:15327   */\n      mload\n        /* \"#utility.yul\":15340:15403   */\n      tag_464\n        /* \"#utility.yul\":15397:15401   */\n      0x80\n        /* \"#utility.yul\":15392:15395   */\n      dup7\n        /* \"#utility.yul\":15388:15402   */\n      add\n        /* \"#utility.yul\":15374:15386   */\n      dup3\n        /* \"#utility.yul\":15340:15403   */\n      tag_251\n      jump\t// in\n    tag_464:\n        /* \"#utility.yul\":15248:15413   */\n      pop\n        /* \"#utility.yul\":15430:15434   */\n      dup1\n        /* \"#utility.yul\":15423:15434   */\n      swap2\n      pop\n        /* \"#utility.yul\":14427:15440   */\n      pop\n        /* \"#utility.yul\":14309:15440   */\n      swap3\n      swap2\n      pop\n      pop\n      jump\t// out\n        /* \"#utility.yul\":15446:15807   */\n    tag_74:\n        /* \"#utility.yul\":15583:15587   */\n      0x00\n        /* \"#utility.yul\":15621:15623   */\n      0x20\n        /* \"#utility.yul\":15610:15619   */\n      dup3\n        /* \"#utility.yul\":15606:15624   */\n      add\n        /* \"#utility.yul\":15598:15624   */\n      swap1\n      pop\n        /* \"#utility.yul\":15670:15679   */\n      dup2\n        /* \"#utility.yul\":15664:15668   */\n      dup2\n        /* \"#utility.yul\":15660:15680   */\n      sub\n        /* \"#utility.yul\":15656:15657   */\n      0x00\n        /* \"#utility.yul\":15645:15654   */\n      dup4\n        /* \"#utility.yul\":15641:15658   */\n      add\n        /* \"#utility.yul\":15634:15681   */\n      mstore\n        /* \"#utility.yul\":15698:15800   */\n      tag_466\n        /* \"#utility.yul\":15795:15799   */\n      dup2\n        /* \"#utility.yul\":15786:15792   */\n      dup5\n        /* \"#utility.yul\":15698:15800   */\n      tag_277\n      jump\t// in\n    tag_466:\n        /* \"#utility.yul\":15690:15800   */\n      swap1\n      pop\n        /* \"#utility.yul\":15446:15807   */\n      swap3\n      swap2\n      pop\n      pop\n      jump\t// out\n        /* \"#utility.yul\":15813:15993   */\n    tag_278:\n        /* \"#utility.yul\":15861:15938   */\n      0x4e487b7100000000000000000000000000000000000000000000000000000000\n        /* \"#utility.yul\":15858:15859   */\n      0x00\n        /* \"#utility.yul\":15851:15939   */\n      mstore\n        /* \"#utility.yul\":15958:15962   */\n      0x22\n        /* \"#utility.yul\":15955:15956   */\n      0x04\n        /* \"#utility.yul\":15948:15963   */\n      mstore\n        /* \"#utility.yul\":15982:15986   */\n      0x24\n        /* \"#utility.yul\":15979:15980   */\n      0x00\n        /* \"#utility.yul\":15972:15987   */\n      revert\n        /* \"#utility.yul\":15999:16319   */\n    tag_81:\n        /* \"#utility.yul\":16043:16049   */\n      0x00\n        /* \"#utility.yul\":16080:16081   */\n      0x02\n        /* \"#utility.yul\":16074:16078   */\n      dup3\n        /* \"#utility.yul\":16070:16082   */\n      div\n        /* \"#utility.yul\":16060:16082   */\n      swap1\n      pop\n        /* \"#utility.yul\":16127:16128   */\n      0x01\n        /* \"#utility.yul\":16121:16125   */\n      dup3\n        /* \"#utility.yul\":16117:16129   */\n      and\n        /* \"#utility.yul\":16148:16166   */\n      dup1\n        /* \"#utility.yul\":16138:16219   */\n      tag_469\n      jumpi\n        /* \"#utility.yul\":16204:16208   */\n      0x7f\n        /* \"#utility.yul\":16196:16202   */\n      dup3\n        /* \"#utility.yul\":16192:16209   */\n      and\n        /* \"#utility.yul\":16182:16209   */\n      swap2\n      pop\n        /* \"#utility.yul\":16138:16219   */\n    tag_469:\n        /* \"#utility.yul\":16266:16268   */\n      0x20\n        /* \"#utility.yul\":16258:16264   */\n      dup3\n        /* \"#utility.yul\":16255:16269   */\n      lt\n        /* \"#utility.yul\":16235:16253   */\n      dup2\n        /* \"#utility.yul\":16232:16270   */\n      sub\n        /* \"#utility.yul\":16229:16313   */\n      tag_470\n      jumpi\n        /* \"#utility.yul\":16285:16303   */\n      tag_471\n      tag_278\n      jump\t// in\n    tag_471:\n        /* \"#utility.yul\":16229:16313   */\n    tag_470:\n        /* \"#utility.yul\":16050:16319   */\n      pop\n        /* \"#utility.yul\":15999:16319   */\n      swap2\n      swap1\n      pop\n      jump\t// out\n        /* \"#utility.yul\":16325:16442   */\n    tag_279:\n        /* \"#utility.yul\":16434:16435   */\n      0x00\n        /* \"#utility.yul\":16431:16432   */\n      dup1\n        /* \"#utility.yul\":16424:16436   */\n      revert\n        /* \"#utility.yul\":16448:16565   */\n    tag_280:\n        /* \"#utility.yul\":16557:16558   */\n      0x00\n        /* \"#utility.yul\":16554:16555   */\n      dup1\n        /* \"#utility.yul\":16547:16559   */\n      revert\n        /* \"#utility.yul\":16571:17005   */\n    tag_281:\n        /* \"#utility.yul\":16660:16665   */\n      0x00\n        /* \"#utility.yul\":16685:16751   */\n      tag_475\n        /* \"#utility.yul\":16701:16750   */\n      tag_476\n        /* \"#utility.yul\":16743:16749   */\n      dup5\n        /* \"#utility.yul\":16701:16750   */\n      tag_268\n      jump\t// in\n    tag_476:\n        /* \"#utility.yul\":16685:16751   */\n      tag_267\n      jump\t// in\n    tag_475:\n        /* \"#utility.yul\":16676:16751   */\n      swap1\n      pop\n        /* \"#utility.yul\":16774:16780   */\n      dup3\n        /* \"#utility.yul\":16767:16772   */\n      dup2\n        /* \"#utility.yul\":16760:16781   */\n      mstore\n        /* \"#utility.yul\":16812:16816   */\n      0x20\n        /* \"#utility.yul\":16805:16810   */\n      dup2\n        /* \"#utility.yul\":16801:16817   */\n      add\n        /* \"#utility.yul\":16850:16853   */\n      dup5\n        /* \"#utility.yul\":16841:16847   */\n      dup5\n        /* \"#utility.yul\":16836:16839   */\n      dup5\n        /* \"#utility.yul\":16832:16848   */\n      add\n        /* \"#utility.yul\":16829:16854   */\n      gt\n        /* \"#utility.yul\":16826:16938   */\n      iszero\n      tag_477\n      jumpi\n        /* \"#utility.yul\":16857:16936   */\n      tag_478\n      tag_264\n      jump\t// in\n    tag_478:\n        /* \"#utility.yul\":16826:16938   */\n    tag_477:\n        /* \"#utility.yul\":16947:16999   */\n      tag_479\n        /* \"#utility.yul\":16992:16998   */\n      dup5\n        /* \"#utility.yul\":16987:16990   */\n      dup3\n        /* \"#utility.yul\":16982:16985   */\n      dup6\n        /* \"#utility.yul\":16947:16999   */\n      tag_245\n      jump\t// in\n    tag_479:\n        /* \"#utility.yul\":16666:17005   */\n      pop\n        /* \"#utility.yul\":16571:17005   */\n      swap4\n      swap3\n      pop\n      pop\n      pop\n      jump\t// out\n        /* \"#utility.yul\":17025:17380   */\n    tag_282:\n        /* \"#utility.yul\":17092:17097   */\n      0x00\n        /* \"#utility.yul\":17141:17144   */\n      dup3\n        /* \"#utility.yul\":17134:17138   */\n      0x1f\n        /* \"#utility.yul\":17126:17132   */\n      dup4\n        /* \"#utility.yul\":17122:17139   */\n      add\n        /* \"#utility.yul\":17118:17145   */\n      slt\n        /* \"#utility.yul\":17108:17230   */\n      tag_481\n      jumpi\n        /* \"#utility.yul\":17149:17228   */\n      tag_482\n      tag_263\n      jump\t// in\n    tag_482:\n        /* \"#utility.yul\":17108:17230   */\n    tag_481:\n        /* \"#utility.yul\":17259:17265   */\n      dup2\n        /* \"#utility.yul\":17253:17266   */\n      mload\n        /* \"#utility.yul\":17284:17374   */\n      tag_483\n        /* \"#utility.yul\":17370:17373   */\n      dup5\n        /* \"#utility.yul\":17362:17368   */\n      dup3\n        /* \"#utility.yul\":17355:17359   */\n      0x20\n        /* \"#utility.yul\":17347:17353   */\n      dup7\n        /* \"#utility.yul\":17343:17360   */\n      add\n        /* \"#utility.yul\":17284:17374   */\n      tag_281\n      jump\t// in\n    tag_483:\n        /* \"#utility.yul\":17275:17374   */\n      swap2\n      pop\n        /* \"#utility.yul\":17098:17380   */\n      pop\n        /* \"#utility.yul\":17025:17380   */\n      swap3\n      swap2\n      pop\n      pop\n      jump\t// out\n        /* \"#utility.yul\":17421:18363   */\n    tag_283:\n        /* \"#utility.yul\":17509:17514   */\n      0x00\n        /* \"#utility.yul\":17553:17557   */\n      0x40\n        /* \"#utility.yul\":17541:17550   */\n      dup3\n        /* \"#utility.yul\":17536:17539   */\n      dup5\n        /* \"#utility.yul\":17532:17551   */\n      sub\n        /* \"#utility.yul\":17528:17558   */\n      slt\n        /* \"#utility.yul\":17525:17642   */\n      iszero\n      tag_485\n      jumpi\n        /* \"#utility.yul\":17561:17640   */\n      tag_486\n      tag_279\n      jump\t// in\n    tag_486:\n        /* \"#utility.yul\":17525:17642   */\n    tag_485:\n        /* \"#utility.yul\":17660:17681   */\n      tag_487\n        /* \"#utility.yul\":17676:17680   */\n      0x40\n        /* \"#utility.yul\":17660:17681   */\n      tag_267\n      jump\t// in\n    tag_487:\n        /* \"#utility.yul\":17651:17681   */\n      swap1\n      pop\n        /* \"#utility.yul\":17768:17769   */\n      0x00\n        /* \"#utility.yul\":17757:17766   */\n      dup3\n        /* \"#utility.yul\":17753:17770   */\n      add\n        /* \"#utility.yul\":17747:17771   */\n      mload\n        /* \"#utility.yul\":17798:17816   */\n      0xffffffffffffffff\n        /* \"#utility.yul\":17790:17796   */\n      dup2\n        /* \"#utility.yul\":17787:17817   */\n      gt\n        /* \"#utility.yul\":17784:17901   */\n      iszero\n      tag_488\n      jumpi\n        /* \"#utility.yul\":17820:17899   */\n      tag_489\n      tag_280\n      jump\t// in\n    tag_489:\n        /* \"#utility.yul\":17784:17901   */\n    tag_488:\n        /* \"#utility.yul\":17940:18010   */\n      tag_490\n        /* \"#utility.yul\":18006:18009   */\n      dup5\n        /* \"#utility.yul\":17997:18003   */\n      dup3\n        /* \"#utility.yul\":17986:17995   */\n      dup6\n        /* \"#utility.yul\":17982:18004   */\n      add\n        /* \"#utility.yul\":17940:18010   */\n      tag_282\n      jump\t// in\n    tag_490:\n        /* \"#utility.yul\":17933:17937   */\n      0x00\n        /* \"#utility.yul\":17926:17931   */\n      dup4\n        /* \"#utility.yul\":17922:17938   */\n      add\n        /* \"#utility.yul\":17915:18011   */\n      mstore\n        /* \"#utility.yul\":17691:18022   */\n      pop\n        /* \"#utility.yul\":18101:18103   */\n      0x20\n        /* \"#utility.yul\":18090:18099   */\n      dup3\n        /* \"#utility.yul\":18086:18104   */\n      add\n        /* \"#utility.yul\":18080:18105   */\n      mload\n        /* \"#utility.yul\":18132:18150   */\n      0xffffffffffffffff\n        /* \"#utility.yul\":18124:18130   */\n      dup2\n        /* \"#utility.yul\":18121:18151   */\n      gt\n        /* \"#utility.yul\":18118:18235   */\n      iszero\n      tag_491\n      jumpi\n        /* \"#utility.yul\":18154:18233   */\n      tag_492\n      tag_280\n      jump\t// in\n    tag_492:\n        /* \"#utility.yul\":18118:18235   */\n    tag_491:\n        /* \"#utility.yul\":18274:18344   */\n      tag_493\n        /* \"#utility.yul\":18340:18343   */\n      dup5\n        /* \"#utility.yul\":18331:18337   */\n      dup3\n        /* \"#utility.yul\":18320:18329   */\n      dup6\n        /* \"#utility.yul\":18316:18338   */\n      add\n        /* \"#utility.yul\":18274:18344   */\n      tag_282\n      jump\t// in\n    tag_493:\n        /* \"#utility.yul\":18267:18271   */\n      0x20\n        /* \"#utility.yul\":18260:18265   */\n      dup4\n        /* \"#utility.yul\":18256:18272   */\n      add\n        /* \"#utility.yul\":18249:18345   */\n      mstore\n        /* \"#utility.yul\":18032:18356   */\n      pop\n        /* \"#utility.yul\":17421:18363   */\n      swap3\n      swap2\n      pop\n      pop\n      jump\t// out\n        /* \"#utility.yul\":18369:18929   */\n    tag_112:\n        /* \"#utility.yul\":18467:18473   */\n      0x00\n        /* \"#utility.yul\":18516:18518   */\n      0x20\n        /* \"#utility.yul\":18504:18513   */\n      dup3\n        /* \"#utility.yul\":18495:18502   */\n      dup5\n        /* \"#utility.yul\":18491:18514   */\n      sub\n        /* \"#utility.yul\":18487:18519   */\n      slt\n        /* \"#utility.yul\":18484:18603   */\n      iszero\n      tag_495\n      jumpi\n        /* \"#utility.yul\":18522:18601   */\n      tag_496\n      tag_232\n      jump\t// in\n    tag_496:\n        /* \"#utility.yul\":18484:18603   */\n    tag_495:\n        /* \"#utility.yul\":18663:18664   */\n      0x00\n        /* \"#utility.yul\":18652:18661   */\n      dup3\n        /* \"#utility.yul\":18648:18665   */\n      add\n        /* \"#utility.yul\":18642:18666   */\n      mload\n        /* \"#utility.yul\":18693:18711   */\n      0xffffffffffffffff\n        /* \"#utility.yul\":18685:18691   */\n      dup2\n        /* \"#utility.yul\":18682:18712   */\n      gt\n        /* \"#utility.yul\":18679:18796   */\n      iszero\n      tag_497\n      jumpi\n        /* \"#utility.yul\":18715:18794   */\n      tag_498\n      tag_233\n      jump\t// in\n    tag_498:\n        /* \"#utility.yul\":18679:18796   */\n    tag_497:\n        /* \"#utility.yul\":18820:18912   */\n      tag_499\n        /* \"#utility.yul\":18904:18911   */\n      dup5\n        /* \"#utility.yul\":18895:18901   */\n      dup3\n        /* \"#utility.yul\":18884:18893   */\n      dup6\n        /* \"#utility.yul\":18880:18902   */\n      add\n        /* \"#utility.yul\":18820:18912   */\n      tag_283\n      jump\t// in\n    tag_499:\n        /* \"#utility.yul\":18810:18912   */\n      swap2\n      pop\n        /* \"#utility.yul\":18613:18922   */\n      pop\n        /* \"#utility.yul\":18369:18929   */\n      swap3\n      swap2\n      pop\n      pop\n      jump\t// out\n        /* \"#utility.yul\":18935:19104   */\n    tag_284:\n        /* \"#utility.yul\":19075:19096   */\n      0x55534552204e4f54205245474953544552454400000000000000000000000000\n        /* \"#utility.yul\":19071:19072   */\n      0x00\n        /* \"#utility.yul\":19063:19069   */\n      dup3\n        /* \"#utility.yul\":19059:19073   */\n      add\n        /* \"#utility.yul\":19052:19097   */\n      mstore\n        /* \"#utility.yul\":18935:19104   */\n      pop\n      jump\t// out\n        /* \"#utility.yul\":19110:19476   */\n    tag_285:\n        /* \"#utility.yul\":19252:19255   */\n      0x00\n        /* \"#utility.yul\":19273:19340   */\n      tag_502\n        /* \"#utility.yul\":19337:19339   */\n      0x13\n        /* \"#utility.yul\":19332:19335   */\n      dup4\n        /* \"#utility.yul\":19273:19340   */\n      tag_244\n      jump\t// in\n    tag_502:\n        /* \"#utility.yul\":19266:19340   */\n      swap2\n      pop\n        /* \"#utility.yul\":19349:19442   */\n      tag_503\n        /* \"#utility.yul\":19438:19441   */\n      dup3\n        /* \"#utility.yul\":19349:19442   */\n      tag_284\n      jump\t// in\n    tag_503:\n        /* \"#utility.yul\":19467:19469   */\n      0x20\n        /* \"#utility.yul\":19462:19465   */\n      dup3\n        /* \"#utility.yul\":19458:19470   */\n      add\n        /* \"#utility.yul\":19451:19470   */\n      swap1\n      pop\n        /* \"#utility.yul\":19110:19476   */\n      swap2\n      swap1\n      pop\n      jump\t// out\n        /* \"#utility.yul\":19482:19901   */\n    tag_115:\n        /* \"#utility.yul\":19648:19652   */\n      0x00\n        /* \"#utility.yul\":19686:19688   */\n      0x20\n        /* \"#utility.yul\":19675:19684   */\n      dup3\n        /* \"#utility.yul\":19671:19689   */\n      add\n        /* \"#utility.yul\":19663:19689   */\n      swap1\n      pop\n        /* \"#utility.yul\":19735:19744   */\n      dup2\n        /* \"#utility.yul\":19729:19733   */\n      dup2\n        /* \"#utility.yul\":19725:19745   */\n      sub\n        /* \"#utility.yul\":19721:19722   */\n      0x00\n        /* \"#utility.yul\":19710:19719   */\n      dup4\n        /* \"#utility.yul\":19706:19723   */\n      add\n        /* \"#utility.yul\":19699:19746   */\n      mstore\n        /* \"#utility.yul\":19763:19894   */\n      tag_505\n        /* \"#utility.yul\":19889:19893   */\n      dup2\n        /* \"#utility.yul\":19763:19894   */\n      tag_285\n      jump\t// in\n    tag_505:\n        /* \"#utility.yul\":19755:19894   */\n      swap1\n      pop\n        /* \"#utility.yul\":19482:19901   */\n      swap2\n      swap1\n      pop\n      jump\t// out\n        /* \"#utility.yul\":19907:20130   */\n    tag_286:\n        /* \"#utility.yul\":20047:20081   */\n      0x547765657420697320746f206c6f6e672c206d61782032383020636861726163\n        /* \"#utility.yul\":20043:20044   */\n      0x00\n        /* \"#utility.yul\":20035:20041   */\n      dup3\n        /* \"#utility.yul\":20031:20045   */\n      add\n        /* \"#utility.yul\":20024:20082   */\n      mstore\n        /* \"#utility.yul\":20116:20122   */\n      0x7465727300000000000000000000000000000000000000000000000000000000\n        /* \"#utility.yul\":20111:20113   */\n      0x20\n        /* \"#utility.yul\":20103:20109   */\n      dup3\n        /* \"#utility.yul\":20099:20114   */\n      add\n        /* \"#utility.yul\":20092:20123   */\n      mstore\n        /* \"#utility.yul\":19907:20130   */\n      pop\n      jump\t// out\n        /* \"#utility.yul\":20136:20502   */\n    tag_287:\n        /* \"#utility.yul\":20278:20281   */\n      0x00\n        /* \"#utility.yul\":20299:20366   */\n      tag_508\n        /* \"#utility.yul\":20363:20365   */\n      0x24\n        /* \"#utility.yul\":20358:20361   */\n      dup4\n        /* \"#utility.yul\":20299:20366   */\n      tag_244\n      jump\t// in\n    tag_508:\n        /* \"#utility.yul\":20292:20366   */\n      swap2\n      pop\n        /* \"#utility.yul\":20375:20468   */\n      tag_509\n        /* \"#utility.yul\":20464:20467   */\n      dup3\n        /* \"#utility.yul\":20375:20468   */\n      tag_286\n      jump\t// in\n    tag_509:\n        /* \"#utility.yul\":20493:20495   */\n      0x40\n        /* \"#utility.yul\":20488:20491   */\n      dup3\n        /* \"#utility.yul\":20484:20496   */\n      add\n        /* \"#utility.yul\":20477:20496   */\n      swap1\n      pop\n        /* \"#utility.yul\":20136:20502   */\n      swap2\n      swap1\n      pop\n      jump\t// out\n        /* \"#utility.yul\":20508:20927   */\n    tag_119:\n        /* \"#utility.yul\":20674:20678   */\n      0x00\n        /* \"#utility.yul\":20712:20714   */\n      0x20\n        /* \"#utility.yul\":20701:20710   */\n      dup3\n        /* \"#utility.yul\":20697:20715   */\n      add\n        /* \"#utility.yul\":20689:20715   */\n      swap1\n      pop\n        /* \"#utility.yul\":20761:20770   */\n      dup2\n        /* \"#utility.yul\":20755:20759   */\n      dup2\n        /* \"#utility.yul\":20751:20771   */\n      sub\n        /* \"#utility.yul\":20747:20748   */\n      0x00\n        /* \"#utility.yul\":20736:20745   */\n      dup4\n        /* \"#utility.yul\":20732:20749   */\n      add\n        /* \"#utility.yul\":20725:20772   */\n      mstore\n        /* \"#utility.yul\":20789:20920   */\n      tag_511\n        /* \"#utility.yul\":20915:20919   */\n      dup2\n        /* \"#utility.yul\":20789:20920   */\n      tag_287\n      jump\t// in\n    tag_511:\n        /* \"#utility.yul\":20781:20920   */\n      swap1\n      pop\n        /* \"#utility.yul\":20508:20927   */\n      swap2\n      swap1\n      pop\n      jump\t// out\n        /* \"#utility.yul\":20933:21074   */\n    tag_288:\n        /* \"#utility.yul\":20982:20986   */\n      0x00\n        /* \"#utility.yul\":21005:21008   */\n      dup2\n        /* \"#utility.yul\":20997:21008   */\n      swap1\n      pop\n        /* \"#utility.yul\":21028:21031   */\n      dup2\n        /* \"#utility.yul\":21025:21026   */\n      0x00\n        /* \"#utility.yul\":21018:21032   */\n      mstore\n        /* \"#utility.yul\":21062:21066   */\n      0x20\n        /* \"#utility.yul\":21059:21060   */\n      0x00\n        /* \"#utility.yul\":21049:21067   */\n      keccak256\n        /* \"#utility.yul\":21041:21067   */\n      swap1\n      pop\n        /* \"#utility.yul\":20933:21074   */\n      swap2\n      swap1\n      pop\n      jump\t// out\n        /* \"#utility.yul\":21080:21173   */\n    tag_289:\n        /* \"#utility.yul\":21117:21123   */\n      0x00\n        /* \"#utility.yul\":21164:21166   */\n      0x20\n        /* \"#utility.yul\":21159:21161   */\n      0x1f\n        /* \"#utility.yul\":21152:21157   */\n      dup4\n        /* \"#utility.yul\":21148:21162   */\n      add\n        /* \"#utility.yul\":21144:21167   */\n      div\n        /* \"#utility.yul\":21134:21167   */\n      swap1\n      pop\n        /* \"#utility.yul\":21080:21173   */\n      swap2\n      swap1\n      pop\n      jump\t// out\n        /* \"#utility.yul\":21179:21286   */\n    tag_290:\n        /* \"#utility.yul\":21223:21231   */\n      0x00\n        /* \"#utility.yul\":21273:21278   */\n      dup3\n        /* \"#utility.yul\":21267:21271   */\n      dup3\n        /* \"#utility.yul\":21263:21279   */\n      shl\n        /* \"#utility.yul\":21242:21279   */\n      swap1\n      pop\n        /* \"#utility.yul\":21179:21286   */\n      swap3\n      swap2\n      pop\n      pop\n      jump\t// out\n        /* \"#utility.yul\":21292:21685   */\n    tag_291:\n        /* \"#utility.yul\":21361:21367   */\n      0x00\n        /* \"#utility.yul\":21411:21412   */\n      0x08\n        /* \"#utility.yul\":21399:21409   */\n      dup4\n        /* \"#utility.yul\":21395:21413   */\n      mul\n        /* \"#utility.yul\":21434:21531   */\n      tag_516\n        /* \"#utility.yul\":21464:21530   */\n      0xffffffffffffffffffffffffffffffffffffffffffffffffffffffffffffffff\n        /* \"#utility.yul\":21453:21462   */\n      dup3\n        /* \"#utility.yul\":21434:21531   */\n      tag_290\n      jump\t// in\n    tag_516:\n        /* \"#utility.yul\":21552:21591   */\n      tag_517\n        /* \"#utility.yul\":21582:21590   */\n      dup7\n        /* \"#utility.yul\":21571:21580   */\n      dup4\n        /* \"#utility.yul\":21552:21591   */\n      tag_290\n      jump\t// in\n    tag_517:\n        /* \"#utility.yul\":21540:21591   */\n      swap6\n      pop\n        /* \"#utility.yul\":21624:21628   */\n      dup1\n        /* \"#utility.yul\":21620:21629   */\n      not\n        /* \"#utility.yul\":21613:21618   */\n      dup5\n        /* \"#utility.yul\":21609:21630   */\n      and\n        /* \"#utility.yul\":21600:21630   */\n      swap4\n      pop\n        /* \"#utility.yul\":21673:21677   */\n      dup1\n        /* \"#utility.yul\":21663:21671   */\n      dup7\n        /* \"#utility.yul\":21659:21678   */\n      and\n        /* \"#utility.yul\":21652:21657   */\n      dup5\n        /* \"#utility.yul\":21649:21679   */\n      or\n        /* \"#utility.yul\":21639:21679   */\n      swap3\n      pop\n        /* \"#utility.yul\":21368:21685   */\n      pop\n      pop\n        /* \"#utility.yul\":21292:21685   */\n      swap4\n      swap3\n      pop\n      pop\n      pop\n      jump\t// out\n        /* \"#utility.yul\":21691:21833   */\n    tag_292:\n        /* \"#utility.yul\":21741:21750   */\n      0x00\n        /* \"#utility.yul\":21774:21827   */\n      tag_519\n        /* \"#utility.yul\":21792:21826   */\n      tag_520\n        /* \"#utility.yul\":21801:21825   */\n      tag_521\n        /* \"#utility.yul\":21819:21824   */\n      dup5\n        /* \"#utility.yul\":21801:21825   */\n      tag_238\n      jump\t// in\n    tag_521:\n        /* \"#utility.yul\":21792:21826   */\n      tag_272\n      jump\t// in\n    tag_520:\n        /* \"#utility.yul\":21774:21827   */\n      tag_238\n      jump\t// in\n    tag_519:\n        /* \"#utility.yul\":21761:21827   */\n      swap1\n      pop\n        /* \"#utility.yul\":21691:21833   */\n      swap2\n      swap1\n      pop\n      jump\t// out\n        /* \"#utility.yul\":21839:21914   */\n    tag_293:\n        /* \"#utility.yul\":21882:21885   */\n      0x00\n        /* \"#utility.yul\":21903:21908   */\n      dup2\n        /* \"#utility.yul\":21896:21908   */\n      swap1\n      pop\n        /* \"#utility.yul\":21839:21914   */\n      swap2\n      swap1\n      pop\n      jump\t// out\n        /* \"#utility.yul\":21920:22189   */\n    tag_294:\n        /* \"#utility.yul\":22030:22069   */\n      tag_524\n        /* \"#utility.yul\":22061:22068   */\n      dup4\n        /* \"#utility.yul\":22030:22069   */\n      tag_292\n      jump\t// in\n    tag_524:\n        /* \"#utility.yul\":22091:22182   */\n      tag_525\n        /* \"#utility.yul\":22140:22181   */\n      tag_526\n        /* \"#utility.yul\":22164:22180   */\n      dup3\n        /* \"#utility.yul\":22140:22181   */\n      tag_293\n      jump\t// in\n    tag_526:\n        /* \"#utility.yul\":22132:22138   */\n      dup5\n        /* \"#utility.yul\":22125:22129   */\n      dup5\n        /* \"#utility.yul\":22119:22130   */\n      sload\n        /* \"#utility.yul\":22091:22182   */\n      tag_291\n      jump\t// in\n    tag_525:\n        /* \"#utility.yul\":22085:22089   */\n      dup3\n        /* \"#utility.yul\":22078:22183   */\n      sstore\n        /* \"#utility.yul\":21996:22189   */\n      pop\n        /* \"#utility.yul\":21920:22189   */\n      pop\n      pop\n      pop\n      jump\t// out\n        /* \"#utility.yul\":22195:22268   */\n    tag_295:\n        /* \"#utility.yul\":22240:22243   */\n      0x00\n        /* \"#utility.yul\":22195:22268   */\n      swap1\n      jump\t// out\n        /* \"#utility.yul\":22274:22463   */\n    tag_296:\n        /* \"#utility.yul\":22351:22383   */\n      tag_529\n      tag_295\n      jump\t// in\n    tag_529:\n        /* \"#utility.yul\":22392:22457   */\n      tag_530\n        /* \"#utility.yul\":22450:22456   */\n      dup2\n        /* \"#utility.yul\":22442:22448   */\n      dup5\n        /* \"#utility.yul\":22436:22440   */\n      dup5\n        /* \"#utility.yul\":22392:22457   */\n      tag_294\n      jump\t// in\n    tag_530:\n        /* \"#utility.yul\":22327:22463   */\n      pop\n        /* \"#utility.yul\":22274:22463   */\n      pop\n      pop\n      jump\t// out\n        /* \"#utility.yul\":22469:22655   */\n    tag_297:\n        /* \"#utility.yul\":22529:22649   */\n    tag_532:\n        /* \"#utility.yul\":22546:22549   */\n      dup2\n        /* \"#utility.yul\":22539:22544   */\n      dup2\n        /* \"#utility.yul\":22536:22550   */\n      lt\n        /* \"#utility.yul\":22529:22649   */\n      iszero\n      tag_534\n      jumpi\n        /* \"#utility.yul\":22600:22639   */\n      tag_535\n        /* \"#utility.yul\":22637:22638   */\n      0x00\n        /* \"#utility.yul\":22630:22635   */\n      dup3\n        /* \"#utility.yul\":22600:22639   */\n      tag_296\n      jump\t// in\n    tag_535:\n        /* \"#utility.yul\":22573:22574   */\n      0x01\n        /* \"#utility.yul\":22566:22571   */\n      dup2\n        /* \"#utility.yul\":22562:22575   */\n      add\n        /* \"#utility.yul\":22553:22575   */\n      swap1\n      pop\n        /* \"#utility.yul\":22529:22649   */\n      jump(tag_532)\n    tag_534:\n        /* \"#utility.yul\":22469:22655   */\n      pop\n      pop\n      jump\t// out\n        /* \"#utility.yul\":22661:23204   */\n    tag_298:\n        /* \"#utility.yul\":22762:22764   */\n      0x1f\n        /* \"#utility.yul\":22757:22760   */\n      dup3\n        /* \"#utility.yul\":22754:22765   */\n      gt\n        /* \"#utility.yul\":22751:23197   */\n      iszero\n      tag_537\n      jumpi\n        /* \"#utility.yul\":22796:22834   */\n      tag_538\n        /* \"#utility.yul\":22828:22833   */\n      dup2\n        /* \"#utility.yul\":22796:22834   */\n      tag_288\n      jump\t// in\n    tag_538:\n        /* \"#utility.yul\":22880:22909   */\n      tag_539\n        /* \"#utility.yul\":22898:22908   */\n      dup5\n        /* \"#utility.yul\":22880:22909   */\n      tag_289\n      jump\t// in\n    tag_539:\n        /* \"#utility.yul\":22870:22878   */\n      dup2\n        /* \"#utility.yul\":22866:22910   */\n      add\n        /* \"#utility.yul\":23063:23065   */\n      0x20\n        /* \"#utility.yul\":23051:23061   */\n      dup6\n        /* \"#utility.yul\":23048:23066   */\n      lt\n        /* \"#utility.yul\":23045:23094   */\n      iszero\n      tag_540\n      jumpi\n        /* \"#utility.yul\":23084:23092   */\n      dup2\n        /* \"#utility.yul\":23069:23092   */\n      swap1\n      pop\n        /* \"#utility.yul\":23045:23094   */\n    tag_540:\n        /* \"#utility.yul\":23107:23187   */\n      tag_541\n        /* \"#utility.yul\":23163:23185   */\n      tag_542\n        /* \"#utility.yul\":23181:23184   */\n      dup6\n        /* \"#utility.yul\":23163:23185   */\n      tag_289\n      jump\t// in\n    tag_542:\n        /* \"#utility.yul\":23153:23161   */\n      dup4\n        /* \"#utility.yul\":23149:23186   */\n      add\n        /* \"#utility.yul\":23136:23147   */\n      dup3\n        /* \"#utility.yul\":23107:23187   */\n      tag_297\n      jump\t// in\n    tag_541:\n        /* \"#utility.yul\":22766:23197   */\n      pop\n      pop\n        /* \"#utility.yul\":22751:23197   */\n    tag_537:\n        /* \"#utility.yul\":22661:23204   */\n      pop\n      pop\n      pop\n      jump\t// out\n        /* \"#utility.yul\":23210:23327   */\n    tag_299:\n        /* \"#utility.yul\":23264:23272   */\n      0x00\n        /* \"#utility.yul\":23314:23319   */\n      dup3\n        /* \"#utility.yul\":23308:23312   */\n      dup3\n        /* \"#utility.yul\":23304:23320   */\n      shr\n        /* \"#utility.yul\":23283:23320   */\n      swap1\n      pop\n        /* \"#utility.yul\":23210:23327   */\n      swap3\n      swap2\n      pop\n      pop\n      jump\t// out\n        /* \"#utility.yul\":23333:23502   */\n    tag_300:\n        /* \"#utility.yul\":23377:23383   */\n      0x00\n        /* \"#utility.yul\":23410:23461   */\n      tag_545\n        /* \"#utility.yul\":23458:23459   */\n      0x00\n        /* \"#utility.yul\":23454:23460   */\n      not\n        /* \"#utility.yul\":23446:23451   */\n      dup5\n        /* \"#utility.yul\":23443:23444   */\n      0x08\n        /* \"#utility.yul\":23439:23452   */\n      mul\n        /* \"#utility.yul\":23410:23461   */\n      tag_299\n      jump\t// in\n    tag_545:\n        /* \"#utility.yul\":23406:23462   */\n      not\n        /* \"#utility.yul\":23491:23495   */\n      dup1\n        /* \"#utility.yul\":23485:23489   */\n      dup4\n        /* \"#utility.yul\":23481:23496   */\n      and\n        /* \"#utility.yul\":23471:23496   */\n      swap2\n      pop\n        /* \"#utility.yul\":23384:23502   */\n      pop\n        /* \"#utility.yul\":23333:23502   */\n      swap3\n      swap2\n      pop\n      pop\n      jump\t// out\n        /* \"#utility.yul\":23507:23802   */\n    tag_301:\n        /* \"#utility.yul\":23583:23587   */\n      0x00\n        /* \"#utility.yul\":23729:23758   */\n      tag_547\n        /* \"#utility.yul\":23754:23757   */\n      dup4\n        /* \"#utility.yul\":23748:23752   */\n      dup4\n        /* \"#utility.yul\":23729:23758   */\n      tag_300\n      jump\t// in\n    tag_547:\n        /* \"#utility.yul\":23721:23758   */\n      swap2\n      pop\n        /* \"#utility.yul\":23791:23794   */\n      dup3\n        /* \"#utility.yul\":23788:23789   */\n      0x02\n        /* \"#utility.yul\":23784:23795   */\n      mul\n        /* \"#utility.yul\":23778:23782   */\n      dup3\n        /* \"#utility.yul\":23775:23796   */\n      or\n        /* \"#utility.yul\":23767:23796   */\n      swap1\n      pop\n        /* \"#utility.yul\":23507:23802   */\n      swap3\n      swap2\n      pop\n      pop\n      jump\t// out\n        /* \"#utility.yul\":23807:25202   */\n    tag_122:\n        /* \"#utility.yul\":23924:23961   */\n      tag_549\n        /* \"#utility.yul\":23957:23960   */\n      dup3\n        /* \"#utility.yul\":23924:23961   */\n      tag_243\n      jump\t// in\n    tag_549:\n        /* \"#utility.yul\":24026:24044   */\n      0xffffffffffffffff\n        /* \"#utility.yul\":24018:24024   */\n      dup2\n        /* \"#utility.yul\":24015:24045   */\n      gt\n        /* \"#utility.yul\":24012:24068   */\n      iszero\n      tag_550\n      jumpi\n        /* \"#utility.yul\":24048:24066   */\n      tag_551\n      tag_265\n      jump\t// in\n    tag_551:\n        /* \"#utility.yul\":24012:24068   */\n    tag_550:\n        /* \"#utility.yul\":24092:24130   */\n      tag_552\n        /* \"#utility.yul\":24124:24128   */\n      dup3\n        /* \"#utility.yul\":24118:24129   */\n      sload\n        /* \"#utility.yul\":24092:24130   */\n      tag_81\n      jump\t// in\n    tag_552:\n        /* \"#utility.yul\":24177:24244   */\n      tag_553\n        /* \"#utility.yul\":24237:24243   */\n      dup3\n        /* \"#utility.yul\":24229:24235   */\n      dup3\n        /* \"#utility.yul\":24223:24227   */\n      dup6\n        /* \"#utility.yul\":24177:24244   */\n      tag_298\n      jump\t// in\n    tag_553:\n        /* \"#utility.yul\":24271:24272   */\n      0x00\n        /* \"#utility.yul\":24295:24299   */\n      0x20\n        /* \"#utility.yul\":24282:24299   */\n      swap1\n      pop\n        /* \"#utility.yul\":24327:24329   */\n      0x1f\n        /* \"#utility.yul\":24319:24325   */\n      dup4\n        /* \"#utility.yul\":24316:24330   */\n      gt\n        /* \"#utility.yul\":24344:24345   */\n      0x01\n        /* \"#utility.yul\":24339:24957   */\n      dup2\n      eq\n      tag_555\n      jumpi\n        /* \"#utility.yul\":25001:25002   */\n      0x00\n        /* \"#utility.yul\":25018:25024   */\n      dup5\n        /* \"#utility.yul\":25015:25092   */\n      iszero\n      tag_556\n      jumpi\n        /* \"#utility.yul\":25067:25076   */\n      dup3\n        /* \"#utility.yul\":25062:25065   */\n      dup8\n        /* \"#utility.yul\":25058:25077   */\n      add\n        /* \"#utility.yul\":25052:25078   */\n      mload\n        /* \"#utility.yul\":25043:25078   */\n      swap1\n      pop\n        /* \"#utility.yul\":25015:25092   */\n    tag_556:\n        /* \"#utility.yul\":25118:25185   */\n      tag_557\n        /* \"#utility.yul\":25178:25184   */\n      dup6\n        /* \"#utility.yul\":25171:25176   */\n      dup3\n        /* \"#utility.yul\":25118:25185   */\n      tag_301\n      jump\t// in\n    tag_557:\n        /* \"#utility.yul\":25112:25116   */\n      dup7\n        /* \"#utility.yul\":25105:25186   */\n      sstore\n        /* \"#utility.yul\":24974:25196   */\n      pop\n        /* \"#utility.yul\":24309:25196   */\n      jump(tag_554)\n        /* \"#utility.yul\":24339:24957   */\n    tag_555:\n        /* \"#utility.yul\":24391:24395   */\n      0x1f\n        /* \"#utility.yul\":24387:24396   */\n      not\n        /* \"#utility.yul\":24379:24385   */\n      dup5\n        /* \"#utility.yul\":24375:24397   */\n      and\n        /* \"#utility.yul\":24425:24462   */\n      tag_558\n        /* \"#utility.yul\":24457:24461   */\n      dup7\n        /* \"#utility.yul\":24425:24462   */\n      tag_288\n      jump\t// in\n    tag_558:\n        /* \"#utility.yul\":24484:24485   */\n      0x00\n        /* \"#utility.yul\":24498:24706   */\n    tag_559:\n        /* \"#utility.yul\":24512:24519   */\n      dup3\n        /* \"#utility.yul\":24509:24510   */\n      dup2\n        /* \"#utility.yul\":24506:24520   */\n      lt\n        /* \"#utility.yul\":24498:24706   */\n      iszero\n      tag_561\n      jumpi\n        /* \"#utility.yul\":24591:24600   */\n      dup5\n        /* \"#utility.yul\":24586:24589   */\n      dup10\n        /* \"#utility.yul\":24582:24601   */\n      add\n        /* \"#utility.yul\":24576:24602   */\n      mload\n        /* \"#utility.yul\":24568:24574   */\n      dup3\n        /* \"#utility.yul\":24561:24603   */\n      sstore\n        /* \"#utility.yul\":24642:24643   */\n      0x01\n        /* \"#utility.yul\":24634:24640   */\n      dup3\n        /* \"#utility.yul\":24630:24644   */\n      add\n        /* \"#utility.yul\":24620:24644   */\n      swap2\n      pop\n        /* \"#utility.yul\":24689:24691   */\n      0x20\n        /* \"#utility.yul\":24678:24687   */\n      dup6\n        /* \"#utility.yul\":24674:24692   */\n      add\n        /* \"#utility.yul\":24661:24692   */\n      swap5\n      pop\n        /* \"#utility.yul\":24535:24539   */\n      0x20\n        /* \"#utility.yul\":24532:24533   */\n      dup2\n        /* \"#utility.yul\":24528:24540   */\n      add\n        /* \"#utility.yul\":24523:24540   */\n      swap1\n      pop\n        /* \"#utility.yul\":24498:24706   */\n      jump(tag_559)\n    tag_561:\n        /* \"#utility.yul\":24734:24740   */\n      dup7\n        /* \"#utility.yul\":24725:24732   */\n      dup4\n        /* \"#utility.yul\":24722:24741   */\n      lt\n        /* \"#utility.yul\":24719:24898   */\n      iszero\n      tag_562\n      jumpi\n        /* \"#utility.yul\":24792:24801   */\n      dup5\n        /* \"#utility.yul\":24787:24790   */\n      dup10\n        /* \"#utility.yul\":24783:24802   */\n      add\n        /* \"#utility.yul\":24777:24803   */\n      mload\n        /* \"#utility.yul\":24835:24883   */\n      tag_563\n        /* \"#utility.yul\":24877:24881   */\n      0x1f\n        /* \"#utility.yul\":24869:24875   */\n      dup10\n        /* \"#utility.yul\":24865:24882   */\n      and\n        /* \"#utility.yul\":24854:24863   */\n      dup3\n        /* \"#utility.yul\":24835:24883   */\n      tag_300\n      jump\t// in\n    tag_563:\n        /* \"#utility.yul\":24827:24833   */\n      dup4\n        /* \"#utility.yul\":24820:24884   */\n      sstore\n        /* \"#utility.yul\":24742:24898   */\n      pop\n        /* \"#utility.yul\":24719:24898   */\n    tag_562:\n        /* \"#utility.yul\":24944:24945   */\n      0x01\n        /* \"#utility.yul\":24940:24941   */\n      0x02\n        /* \"#utility.yul\":24932:24938   */\n      dup9\n        /* \"#utility.yul\":24928:24942   */\n      mul\n        /* \"#utility.yul\":24924:24946   */\n      add\n        /* \"#utility.yul\":24918:24922   */\n      dup9\n        /* \"#utility.yul\":24911:24947   */\n      sstore\n        /* \"#utility.yul\":24346:24957   */\n      pop\n      pop\n      pop\n        /* \"#utility.yul\":24309:25196   */\n    tag_554:\n      pop\n        /* \"#utility.yul\":23899:25202   */\n      pop\n      pop\n      pop\n        /* \"#utility.yul\":23807:25202   */\n      pop\n      pop\n      jump\t// out\n        /* \"#utility.yul\":25208:25741   */\n    tag_124:\n        /* \"#utility.yul\":25377:25381   */\n      0x00\n        /* \"#utility.yul\":25415:25417   */\n      0x60\n        /* \"#utility.yul\":25404:25413   */\n      dup3\n        /* \"#utility.yul\":25400:25418   */\n      add\n        /* \"#utility.yul\":25392:25418   */\n      swap1\n      pop\n        /* \"#utility.yul\":25428:25499   */\n      tag_565\n        /* \"#utility.yul\":25496:25497   */\n      0x00\n        /* \"#utility.yul\":25485:25494   */\n      dup4\n        /* \"#utility.yul\":25481:25498   */\n      add\n        /* \"#utility.yul\":25472:25478   */\n      dup7\n        /* \"#utility.yul\":25428:25499   */\n      tag_242\n      jump\t// in\n    tag_565:\n        /* \"#utility.yul\":25546:25555   */\n      dup2\n        /* \"#utility.yul\":25540:25544   */\n      dup2\n        /* \"#utility.yul\":25536:25556   */\n      sub\n        /* \"#utility.yul\":25531:25533   */\n      0x20\n        /* \"#utility.yul\":25520:25529   */\n      dup4\n        /* \"#utility.yul\":25516:25534   */\n      add\n        /* \"#utility.yul\":25509:25557   */\n      mstore\n        /* \"#utility.yul\":25574:25652   */\n      tag_566\n        /* \"#utility.yul\":25647:25651   */\n      dup2\n        /* \"#utility.yul\":25638:25644   */\n      dup6\n        /* \"#utility.yul\":25574:25652   */\n      tag_247\n      jump\t// in\n    tag_566:\n        /* \"#utility.yul\":25566:25652   */\n      swap1\n      pop\n        /* \"#utility.yul\":25662:25734   */\n      tag_567\n        /* \"#utility.yul\":25730:25732   */\n      0x40\n        /* \"#utility.yul\":25719:25728   */\n      dup4\n        /* \"#utility.yul\":25715:25733   */\n      add\n        /* \"#utility.yul\":25706:25712   */\n      dup5\n        /* \"#utility.yul\":25662:25734   */\n      tag_241\n      jump\t// in\n    tag_567:\n        /* \"#utility.yul\":25208:25741   */\n      swap5\n      swap4\n      pop\n      pop\n      pop\n      pop\n      jump\t// out\n        /* \"#utility.yul\":25747:25927   */\n    tag_131:\n        /* \"#utility.yul\":25795:25872   */\n      0x4e487b7100000000000000000000000000000000000000000000000000000000\n        /* \"#utility.yul\":25792:25793   */\n      0x00\n        /* \"#utility.yul\":25785:25873   */\n      mstore\n        /* \"#utility.yul\":25892:25896   */\n      0x32\n        /* \"#utility.yul\":25889:25890   */\n      0x04\n        /* \"#utility.yul\":25882:25897   */\n      mstore\n        /* \"#utility.yul\":25916:25920   */\n      0x24\n        /* \"#utility.yul\":25913:25914   */\n      0x00\n        /* \"#utility.yul\":25906:25921   */\n      revert\n        /* \"#utility.yul\":25933:26113   */\n    tag_302:\n        /* \"#utility.yul\":25981:26058   */\n      0x4e487b7100000000000000000000000000000000000000000000000000000000\n        /* \"#utility.yul\":25978:25979   */\n      0x00\n        /* \"#utility.yul\":25971:26059   */\n      mstore\n        /* \"#utility.yul\":26078:26082   */\n      0x11\n        /* \"#utility.yul\":26075:26076   */\n      0x04\n        /* \"#utility.yul\":26068:26083   */\n      mstore\n        /* \"#utility.yul\":26102:26106   */\n      0x24\n        /* \"#utility.yul\":26099:26100   */\n      0x00\n        /* \"#utility.yul\":26092:26107   */\n      revert\n        /* \"#utility.yul\":26119:26310   */\n    tag_134:\n        /* \"#utility.yul\":26159:26162   */\n      0x00\n        /* \"#utility.yul\":26178:26198   */\n      tag_571\n        /* \"#utility.yul\":26196:26197   */\n      dup3\n        /* \"#utility.yul\":26178:26198   */\n      tag_238\n      jump\t// in\n    tag_571:\n        /* \"#utility.yul\":26173:26198   */\n      swap2\n      pop\n        /* \"#utility.yul\":26212:26232   */\n      tag_572\n        /* \"#utility.yul\":26230:26231   */\n      dup4\n        /* \"#utility.yul\":26212:26232   */\n      tag_238\n      jump\t// in\n    tag_572:\n        /* \"#utility.yul\":26207:26232   */\n      swap3\n      pop\n        /* \"#utility.yul\":26255:26256   */\n      dup3\n        /* \"#utility.yul\":26252:26253   */\n      dup3\n        /* \"#utility.yul\":26248:26257   */\n      add\n        /* \"#utility.yul\":26241:26257   */\n      swap1\n      pop\n        /* \"#utility.yul\":26276:26279   */\n      dup1\n        /* \"#utility.yul\":26273:26274   */\n      dup3\n        /* \"#utility.yul\":26270:26280   */\n      gt\n        /* \"#utility.yul\":26267:26303   */\n      iszero\n      tag_573\n      jumpi\n        /* \"#utility.yul\":26283:26301   */\n      tag_574\n      tag_302\n      jump\t// in\n    tag_574:\n        /* \"#utility.yul\":26267:26303   */\n    tag_573:\n        /* \"#utility.yul\":26119:26310   */\n      swap3\n      swap2\n      pop\n      pop\n      jump\t// out\n        /* \"#utility.yul\":26316:26486   */\n    tag_303:\n        /* \"#utility.yul\":26456:26478   */\n      0x545745455420444f4553204e4f54204558495354000000000000000000000000\n        /* \"#utility.yul\":26452:26453   */\n      0x00\n        /* \"#utility.yul\":26444:26450   */\n      dup3\n        /* \"#utility.yul\":26440:26454   */\n      add\n        /* \"#utility.yul\":26433:26479   */\n      mstore\n        /* \"#utility.yul\":26316:26486   */\n      pop\n      jump\t// out\n        /* \"#utility.yul\":26492:26858   */\n    tag_304:\n        /* \"#utility.yul\":26634:26637   */\n      0x00\n        /* \"#utility.yul\":26655:26722   */\n      tag_577\n        /* \"#utility.yul\":26719:26721   */\n      0x14\n        /* \"#utility.yul\":26714:26717   */\n      dup4\n        /* \"#utility.yul\":26655:26722   */\n      tag_244\n      jump\t// in\n    tag_577:\n        /* \"#utility.yul\":26648:26722   */\n      swap2\n      pop\n        /* \"#utility.yul\":26731:26824   */\n      tag_578\n        /* \"#utility.yul\":26820:26823   */\n      dup3\n        /* \"#utility.yul\":26731:26824   */\n      tag_303\n      jump\t// in\n    tag_578:\n        /* \"#utility.yul\":26849:26851   */\n      0x20\n        /* \"#utility.yul\":26844:26847   */\n      dup3\n        /* \"#utility.yul\":26840:26852   */\n      add\n        /* \"#utility.yul\":26833:26852   */\n      swap1\n      pop\n        /* \"#utility.yul\":26492:26858   */\n      swap2\n      swap1\n      pop\n      jump\t// out\n        /* \"#utility.yul\":26864:27283   */\n    tag_149:\n        /* \"#utility.yul\":27030:27034   */\n      0x00\n        /* \"#utility.yul\":27068:27070   */\n      0x20\n        /* \"#utility.yul\":27057:27066   */\n      dup3\n        /* \"#utility.yul\":27053:27071   */\n      add\n        /* \"#utility.yul\":27045:27071   */\n      swap1\n      pop\n        /* \"#utility.yul\":27117:27126   */\n      dup2\n        /* \"#utility.yul\":27111:27115   */\n      dup2\n        /* \"#utility.yul\":27107:27127   */\n      sub\n        /* \"#utility.yul\":27103:27104   */\n      0x00\n        /* \"#utility.yul\":27092:27101   */\n      dup4\n        /* \"#utility.yul\":27088:27105   */\n      add\n        /* \"#utility.yul\":27081:27128   */\n      mstore\n        /* \"#utility.yul\":27145:27276   */\n      tag_580\n        /* \"#utility.yul\":27271:27275   */\n      dup2\n        /* \"#utility.yul\":27145:27276   */\n      tag_304\n      jump\t// in\n    tag_580:\n        /* \"#utility.yul\":27137:27276   */\n      swap1\n      pop\n        /* \"#utility.yul\":26864:27283   */\n      swap2\n      swap1\n      pop\n      jump\t// out\n        /* \"#utility.yul\":27289:27459   */\n    tag_305:\n        /* \"#utility.yul\":27429:27451   */\n      0x545745455420444f4553204e4f54204c494b4544000000000000000000000000\n        /* \"#utility.yul\":27425:27426   */\n      0x00\n        /* \"#utility.yul\":27417:27423   */\n      dup3\n        /* \"#utility.yul\":27413:27427   */\n      add\n        /* \"#utility.yul\":27406:27452   */\n      mstore\n        /* \"#utility.yul\":27289:27459   */\n      pop\n      jump\t// out\n        /* \"#utility.yul\":27465:27831   */\n    tag_306:\n        /* \"#utility.yul\":27607:27610   */\n      0x00\n        /* \"#utility.yul\":27628:27695   */\n      tag_583\n        /* \"#utility.yul\":27692:27694   */\n      0x14\n        /* \"#utility.yul\":27687:27690   */\n      dup4\n        /* \"#utility.yul\":27628:27695   */\n      tag_244\n      jump\t// in\n    tag_583:\n        /* \"#utility.yul\":27621:27695   */\n      swap2\n      pop\n        /* \"#utility.yul\":27704:27797   */\n      tag_584\n        /* \"#utility.yul\":27793:27796   */\n      dup3\n        /* \"#utility.yul\":27704:27797   */\n      tag_305\n      jump\t// in\n    tag_584:\n        /* \"#utility.yul\":27822:27824   */\n      0x20\n        /* \"#utility.yul\":27817:27820   */\n      dup3\n        /* \"#utility.yul\":27813:27825   */\n      add\n        /* \"#utility.yul\":27806:27825   */\n      swap1\n      pop\n        /* \"#utility.yul\":27465:27831   */\n      swap2\n      swap1\n      pop\n      jump\t// out\n        /* \"#utility.yul\":27837:28256   */\n    tag_155:\n        /* \"#utility.yul\":28003:28007   */\n      0x00\n        /* \"#utility.yul\":28041:28043   */\n      0x20\n        /* \"#utility.yul\":28030:28039   */\n      dup3\n        /* \"#utility.yul\":28026:28044   */\n      add\n        /* \"#utility.yul\":28018:28044   */\n      swap1\n      pop\n        /* \"#utility.yul\":28090:28099   */\n      dup2\n        /* \"#utility.yul\":28084:28088   */\n      dup2\n        /* \"#utility.yul\":28080:28100   */\n      sub\n        /* \"#utility.yul\":28076:28077   */\n      0x00\n        /* \"#utility.yul\":28065:28074   */\n      dup4\n        /* \"#utility.yul\":28061:28078   */\n      add\n        /* \"#utility.yul\":28054:28101   */\n      mstore\n        /* \"#utility.yul\":28118:28249   */\n      tag_586\n        /* \"#utility.yul\":28244:28248   */\n      dup2\n        /* \"#utility.yul\":28118:28249   */\n      tag_306\n      jump\t// in\n    tag_586:\n        /* \"#utility.yul\":28110:28249   */\n      swap1\n      pop\n        /* \"#utility.yul\":27837:28256   */\n      swap2\n      swap1\n      pop\n      jump\t// out\n        /* \"#utility.yul\":28262:28433   */\n    tag_160:\n        /* \"#utility.yul\":28301:28304   */\n      0x00\n        /* \"#utility.yul\":28324:28348   */\n      tag_588\n        /* \"#utility.yul\":28342:28347   */\n      dup3\n        /* \"#utility.yul\":28324:28348   */\n      tag_238\n      jump\t// in\n    tag_588:\n        /* \"#utility.yul\":28315:28348   */\n      swap2\n      pop\n        /* \"#utility.yul\":28370:28374   */\n      0x00\n        /* \"#utility.yul\":28363:28368   */\n      dup3\n        /* \"#utility.yul\":28360:28375   */\n      sub\n        /* \"#utility.yul\":28357:28398   */\n      tag_589\n      jumpi\n        /* \"#utility.yul\":28378:28396   */\n      tag_590\n      tag_302\n      jump\t// in\n    tag_590:\n        /* \"#utility.yul\":28357:28398   */\n    tag_589:\n        /* \"#utility.yul\":28425:28426   */\n      0x01\n        /* \"#utility.yul\":28418:28423   */\n      dup3\n        /* \"#utility.yul\":28414:28427   */\n      sub\n        /* \"#utility.yul\":28407:28427   */\n      swap1\n      pop\n        /* \"#utility.yul\":28262:28433   */\n      swap2\n      swap1\n      pop\n      jump\t// out\n        /* \"#utility.yul\":28439:28992   */\n    tag_165:\n        /* \"#utility.yul\":28616:28620   */\n      0x00\n        /* \"#utility.yul\":28654:28657   */\n      0x80\n        /* \"#utility.yul\":28643:28652   */\n      dup3\n        /* \"#utility.yul\":28639:28658   */\n      add\n        /* \"#utility.yul\":28631:28658   */\n      swap1\n      pop\n        /* \"#utility.yul\":28668:28739   */\n      tag_592\n        /* \"#utility.yul\":28736:28737   */\n      0x00\n        /* \"#utility.yul\":28725:28734   */\n      dup4\n        /* \"#utility.yul\":28721:28738   */\n      add\n        /* \"#utility.yul\":28712:28718   */\n      dup8\n        /* \"#utility.yul\":28668:28739   */\n      tag_242\n      jump\t// in\n    tag_592:\n        /* \"#utility.yul\":28749:28821   */\n      tag_593\n        /* \"#utility.yul\":28817:28819   */\n      0x20\n        /* \"#utility.yul\":28806:28815   */\n      dup4\n        /* \"#utility.yul\":28802:28820   */\n      add\n        /* \"#utility.yul\":28793:28799   */\n      dup7\n        /* \"#utility.yul\":28749:28821   */\n      tag_242\n      jump\t// in\n    tag_593:\n        /* \"#utility.yul\":28831:28903   */\n      tag_594\n        /* \"#utility.yul\":28899:28901   */\n      0x40\n        /* \"#utility.yul\":28888:28897   */\n      dup4\n        /* \"#utility.yul\":28884:28902   */\n      add\n        /* \"#utility.yul\":28875:28881   */\n      dup6\n        /* \"#utility.yul\":28831:28903   */\n      tag_241\n      jump\t// in\n    tag_594:\n        /* \"#utility.yul\":28913:28985   */\n      tag_595\n        /* \"#utility.yul\":28981:28983   */\n      0x60\n        /* \"#utility.yul\":28970:28979   */\n      dup4\n        /* \"#utility.yul\":28966:28984   */\n      add\n        /* \"#utility.yul\":28957:28963   */\n      dup5\n        /* \"#utility.yul\":28913:28985   */\n      tag_241\n      jump\t// in\n    tag_595:\n        /* \"#utility.yul\":28439:28992   */\n      swap6\n      swap5\n      pop\n      pop\n      pop\n      pop\n      pop\n      jump\t// out\n        /* \"#utility.yul\":28998:29231   */\n    tag_183:\n        /* \"#utility.yul\":29037:29040   */\n      0x00\n        /* \"#utility.yul\":29060:29084   */\n      tag_597\n        /* \"#utility.yul\":29078:29083   */\n      dup3\n        /* \"#utility.yul\":29060:29084   */\n      tag_238\n      jump\t// in\n    tag_597:\n        /* \"#utility.yul\":29051:29084   */\n      swap2\n      pop\n        /* \"#utility.yul\":29106:29172   */\n      0xffffffffffffffffffffffffffffffffffffffffffffffffffffffffffffffff\n        /* \"#utility.yul\":29099:29104   */\n      dup3\n        /* \"#utility.yul\":29096:29173   */\n      sub\n        /* \"#utility.yul\":29093:29196   */\n      tag_598\n      jumpi\n        /* \"#utility.yul\":29176:29194   */\n      tag_599\n      tag_302\n      jump\t// in\n    tag_599:\n        /* \"#utility.yul\":29093:29196   */\n    tag_598:\n        /* \"#utility.yul\":29223:29224   */\n      0x01\n        /* \"#utility.yul\":29216:29221   */\n      dup3\n        /* \"#utility.yul\":29212:29225   */\n      add\n        /* \"#utility.yul\":29205:29225   */\n      swap1\n      pop\n        /* \"#utility.yul\":28998:29231   */\n      swap2\n      swap1\n      pop\n      jump\t// out\n        /* \"#utility.yul\":29237:29406   */\n    tag_307:\n        /* \"#utility.yul\":29377:29398   */\n      0x496e76616c696420747765657420696e64657800000000000000000000000000\n        /* \"#utility.yul\":29373:29374   */\n      0x00\n        /* \"#utility.yul\":29365:29371   */\n      dup3\n        /* \"#utility.yul\":29361:29375   */\n      add\n        /* \"#utility.yul\":29354:29399   */\n      mstore\n        /* \"#utility.yul\":29237:29406   */\n      pop\n      jump\t// out\n        /* \"#utility.yul\":29412:29778   */\n    tag_308:\n        /* \"#utility.yul\":29554:29557   */\n      0x00\n        /* \"#utility.yul\":29575:29642   */\n      tag_602\n        /* \"#utility.yul\":29639:29641   */\n      0x13\n        /* \"#utility.yul\":29634:29637   */\n      dup4\n        /* \"#utility.yul\":29575:29642   */\n      tag_244\n      jump\t// in\n    tag_602:\n        /* \"#utility.yul\":29568:29642   */\n      swap2\n      pop\n        /* \"#utility.yul\":29651:29744   */\n      tag_603\n        /* \"#utility.yul\":29740:29743   */\n      dup3\n        /* \"#utility.yul\":29651:29744   */\n      tag_307\n      jump\t// in\n    tag_603:\n        /* \"#utility.yul\":29769:29771   */\n      0x20\n        /* \"#utility.yul\":29764:29767   */\n      dup3\n        /* \"#utility.yul\":29760:29772   */\n      add\n        /* \"#utility.yul\":29753:29772   */\n      swap1\n      pop\n        /* \"#utility.yul\":29412:29778   */\n      swap2\n      swap1\n      pop\n      jump\t// out\n        /* \"#utility.yul\":29784:30203   */\n    tag_193:\n        /* \"#utility.yul\":29950:29954   */\n      0x00\n        /* \"#utility.yul\":29988:29990   */\n      0x20\n        /* \"#utility.yul\":29977:29986   */\n      dup3\n        /* \"#utility.yul\":29973:29991   */\n      add\n        /* \"#utility.yul\":29965:29991   */\n      swap1\n      pop\n        /* \"#utility.yul\":30037:30046   */\n      dup2\n        /* \"#utility.yul\":30031:30035   */\n      dup2\n        /* \"#utility.yul\":30027:30047   */\n      sub\n        /* \"#utility.yul\":30023:30024   */\n      0x00\n        /* \"#utility.yul\":30012:30021   */\n      dup4\n        /* \"#utility.yul\":30008:30025   */\n      add\n        /* \"#utility.yul\":30001:30048   */\n      mstore\n        /* \"#utility.yul\":30065:30196   */\n      tag_605\n        /* \"#utility.yul\":30191:30195   */\n      dup2\n        /* \"#utility.yul\":30065:30196   */\n      tag_308\n      jump\t// in\n    tag_605:\n        /* \"#utility.yul\":30057:30196   */\n      swap1\n      pop\n        /* \"#utility.yul\":29784:30203   */\n      swap2\n      swap1\n      pop\n      jump\t// out\n\n    auxdata: 0xa2646970667358221220eb5267aae91cd8d383dec1c8bca89ff5d7defba9c3e3dc1b08c547bc57b83f7a64736f6c634300081a0033\n}\n",
				"bytecode": {
					"linkReferences": {},
					"object": "608060405261011860025f6101000a81548161ffff021916908361ffff16021790555034801561002d575f80fd5b5060405161264b38038061264b833981810160405281019061004f9190610235565b335f73ffffffffffffffffffffffffffffffffffffffff168173ffffffffffffffffffffffffffffffffffffffff16036100c0575f6040517f1e4fbdf70000000000000000000000000000000000000000000000000000000081526004016100b7919061026f565b60405180910390fd5b6100cf8161011660201b60201c565b50806002806101000a81548173ffffffffffffffffffffffffffffffffffffffff021916908373ffffffffffffffffffffffffffffffffffffffff16021790555050610288565b5f805f9054906101000a900473ffffffffffffffffffffffffffffffffffffffff169050815f806101000a81548173ffffffffffffffffffffffffffffffffffffffff021916908373ffffffffffffffffffffffffffffffffffffffff1602179055508173ffffffffffffffffffffffffffffffffffffffff168173ffffffffffffffffffffffffffffffffffffffff167f8be0079c531659141344cd1fd0a4f28419497f9722a3daafe3b4186f6b6457e060405160405180910390a35050565b5f80fd5b5f73ffffffffffffffffffffffffffffffffffffffff82169050919050565b5f610204826101db565b9050919050565b610214816101fa565b811461021e575f80fd5b50565b5f8151905061022f8161020b565b92915050565b5f6020828403121561024a576102496101d7565b5b5f61025784828501610221565b91505092915050565b610269816101fa565b82525050565b5f6020820190506102825f830184610260565b92915050565b6123b6806102955f395ff3fe608060405234801561000f575f80fd5b50600436106100e8575f3560e01c8063820785cc1161008a578063a3974b2111610064578063a3974b2114610236578063d04ddaa014610254578063ed9bb8d714610270578063f2fde38b146102a0576100e8565b8063820785cc146101cc5780638da5cb5b146101fc578063a1488f7c1461021a576100e8565b80636d003c01116100c65780636d003c011461016c5780636eb1079714610188578063715018a6146101a65780637c9cd2bc146101b0576100e8565b806305a1b4a9146100ec57806312e7ee1c1461012057806320f7e65c14610150575b5f80fd5b61010660048036038101906101019190611534565b6102bc565b604051610117959493929190611600565b60405180910390f35b61013a60048036038101906101359190611658565b6103ad565b6040516101479190611817565b60405180910390f35b61016a60048036038101906101659190611658565b610548565b005b6101866004803603810190610181919061186e565b610593565b005b6101906105ba565b60405161019d91906118a8565b60405180910390f35b6101ae6105cd565b005b6101ca60048036038101906101c591906119ed565b6105e0565b005b6101e660048036038101906101e19190611658565b6108c9565b6040516101f39190611a34565b60405180910390f35b610204610998565b6040516102119190611a4d565b60405180910390f35b610234600480360381019061022f9190611a66565b6109bf565b005b61023e610cf5565b60405161024b9190611aff565b60405180910390f35b61026e60048036038101906102699190611a66565b610d19565b005b61028a60048036038101906102859190611b18565b610faf565b6040516102979190611bb6565b60405180910390f35b6102ba60048036038101906102b59190611658565b6111a9565b005b6001602052815f5260405f2081815481106102d5575f80fd5b905f5260205f2090600502015f9150915050805f015490806001015f9054906101000a900473ffffffffffffffffffffffffffffffffffffffff169080600201805461032090611c03565b80601f016020809104026020016040519081016040528092919081815260200182805461034c90611c03565b80156103975780601f1061036e57610100808354040283529160200191610397565b820191905f5260205f20905b81548152906001019060200180831161037a57829003601f168201915b5050505050908060030154908060040154905085565b606060015f8373ffffffffffffffffffffffffffffffffffffffff1673ffffffffffffffffffffffffffffffffffffffff1681526020019081526020015f20805480602002602001604051908101604052809291908181526020015f905b8282101561053d578382905f5260205f2090600502016040518060a00160405290815f8201548152602001600182015f9054906101000a900473ffffffffffffffffffffffffffffffffffffffff1673ffffffffffffffffffffffffffffffffffffffff1673ffffffffffffffffffffffffffffffffffffffff16815260200160028201805461049a90611c03565b80601f01602080910402602001604051908101604052809291908181526020018280546104c690611c03565b80156105115780601f106104e857610100808354040283529160200191610511565b820191905f5260205f20905b8154815290600101906020018083116104f457829003601f168201915b50505050508152602001600382015481526020016004820154815250508152602001906001019061040b565b505050509050919050565b60015f8273ffffffffffffffffffffffffffffffffffffffff1673ffffffffffffffffffffffffffffffffffffffff1681526020019081526020015f205f610590919061137c565b50565b61059b61122d565b8060025f6101000a81548161ffff021916908361ffff16021790555050565b60025f9054906101000a900461ffff1681565b6105d561122d565b6105de5f6112b4565b565b5f60028054906101000a900473ffffffffffffffffffffffffffffffffffffffff1673ffffffffffffffffffffffffffffffffffffffff16630f53a470336040518263ffffffff1660e01b815260040161063a9190611a4d565b5f60405180830381865afa158015610654573d5f803e3d5ffd5b505050506040513d5f823e3d601f19601f8201168201806040525081019061067c9190611d2e565b90505f815f015151116106c4576040517f08c379a00000000000000000000000000000000000000000000000000000000081526004016106bb90611dbf565b60405180910390fd5b60025f9054906101000a900461ffff1661ffff168251111561071b576040517f08c379a000000000000000000000000000000000000000000000000000000000815260040161071290611e4d565b60405180910390fd5b5f6040518060a0016040528060015f3373ffffffffffffffffffffffffffffffffffffffff1673ffffffffffffffffffffffffffffffffffffffff1681526020019081526020015f208054905081526020013373ffffffffffffffffffffffffffffffffffffffff1681526020018481526020014281526020015f815250905060015f3373ffffffffffffffffffffffffffffffffffffffff1673ffffffffffffffffffffffffffffffffffffffff1681526020019081526020015f2081908060018154018082558091505060019003905f5260205f2090600502015f909190919091505f820151815f01556020820151816001015f6101000a81548173ffffffffffffffffffffffffffffffffffffffff021916908373ffffffffffffffffffffffffffffffffffffffff16021790555060408201518160020190816108629190611fff565b5060608201518160030155608082015181600401555050805f01517f16fd3c13e9d46923e0a8bce11c7b473ec508a72e6c96cd2404b29ce972afc29e8260200151836040015184606001516040516108bc939291906120ce565b60405180910390a2505050565b5f805f5b60015f8573ffffffffffffffffffffffffffffffffffffffff1673ffffffffffffffffffffffffffffffffffffffff1681526020019081526020015f208054905081101561098e5760015f8573ffffffffffffffffffffffffffffffffffffffff1673ffffffffffffffffffffffffffffffffffffffff1681526020019081526020015f2081815481106109645761096361210a565b5b905f5260205f209060050201600401548261097f9190612164565b915080806001019150506108cd565b5080915050919050565b5f805f9054906101000a900473ffffffffffffffffffffffffffffffffffffffff16905090565b5f60028054906101000a900473ffffffffffffffffffffffffffffffffffffffff1673ffffffffffffffffffffffffffffffffffffffff16630f53a470336040518263ffffffff1660e01b8152600401610a199190611a4d565b5f60405180830381865afa158015610a33573d5f803e3d5ffd5b505050506040513d5f823e3d601f19601f82011682018060405250810190610a5b9190611d2e565b90505f815f01515111610aa3576040517f08c379a0000000000000000000000000000000000000000000000000000000008152600401610a9a90611dbf565b60405180910390fd5b8260015f8473ffffffffffffffffffffffffffffffffffffffff1673ffffffffffffffffffffffffffffffffffffffff1681526020019081526020015f208481548110610af357610af261210a565b5b905f5260205f2090600502015f015414610b42576040517f08c379a0000000000000000000000000000000000000000000000000000000008152600401610b39906121e1565b60405180910390fd5b5f60015f8473ffffffffffffffffffffffffffffffffffffffff1673ffffffffffffffffffffffffffffffffffffffff1681526020019081526020015f208481548110610b9257610b9161210a565b5b905f5260205f2090600502016004015411610be2576040517f08c379a0000000000000000000000000000000000000000000000000000000008152600401610bd990612249565b60405180910390fd5b60015f8373ffffffffffffffffffffffffffffffffffffffff1673ffffffffffffffffffffffffffffffffffffffff1681526020019081526020015f208381548110610c3157610c3061210a565b5b905f5260205f2090600502016004015f815480929190610c5090612267565b91905055507f273883c252143c4abce776697615e41ca9bc1aac5968c585d1c8ba8ffaa8b3c133838560015f8773ffffffffffffffffffffffffffffffffffffffff1673ffffffffffffffffffffffffffffffffffffffff1681526020019081526020015f208781548110610cc857610cc761210a565b5b905f5260205f20906005020160040154604051610ce8949392919061228e565b60405180910390a1505050565b60028054906101000a900473ffffffffffffffffffffffffffffffffffffffff1681565b5f60028054906101000a900473ffffffffffffffffffffffffffffffffffffffff1673ffffffffffffffffffffffffffffffffffffffff16630f53a470336040518263ffffffff1660e01b8152600401610d739190611a4d565b5f60405180830381865afa158015610d8d573d5f803e3d5ffd5b505050506040513d5f823e3d601f19601f82011682018060405250810190610db59190611d2e565b90505f815f01515111610dfd576040517f08c379a0000000000000000000000000000000000000000000000000000000008152600401610df490611dbf565b60405180910390fd5b8260015f8473ffffffffffffffffffffffffffffffffffffffff1673ffffffffffffffffffffffffffffffffffffffff1681526020019081526020015f208481548110610e4d57610e4c61210a565b5b905f5260205f2090600502015f015414610e9c576040517f08c379a0000000000000000000000000000000000000000000000000000000008152600401610e93906121e1565b60405180910390fd5b60015f8373ffffffffffffffffffffffffffffffffffffffff1673ffffffffffffffffffffffffffffffffffffffff1681526020019081526020015f208381548110610eeb57610eea61210a565b5b905f5260205f2090600502016004015f815480929190610f0a906122d1565b91905055507fe8a76fc0f16d11a00d1e93b689b63d76cf60af914dd3d915375dc41d01a0c3c833838560015f8773ffffffffffffffffffffffffffffffffffffffff1673ffffffffffffffffffffffffffffffffffffffff1681526020019081526020015f208781548110610f8257610f8161210a565b5b905f5260205f20906005020160040154604051610fa2949392919061228e565b60405180910390a1505050565b610fb761139d565b60015f3373ffffffffffffffffffffffffffffffffffffffff1673ffffffffffffffffffffffffffffffffffffffff1681526020019081526020015f208054905082111561103a576040517f08c379a000000000000000000000000000000000000000000000000000000000815260040161103190612362565b60405180910390fd5b60015f3373ffffffffffffffffffffffffffffffffffffffff1673ffffffffffffffffffffffffffffffffffffffff1681526020019081526020015f2082815481106110895761108861210a565b5b905f5260205f2090600502016040518060a00160405290815f8201548152602001600182015f9054906101000a900473ffffffffffffffffffffffffffffffffffffffff1673ffffffffffffffffffffffffffffffffffffffff1673ffffffffffffffffffffffffffffffffffffffff16815260200160028201805461110e90611c03565b80601f016020809104026020016040519081016040528092919081815260200182805461113a90611c03565b80156111855780601f1061115c57610100808354040283529160200191611185565b820191905f5260205f20905b81548152906001019060200180831161116857829003601f168201915b50505050508152602001600382015481526020016004820154815250509050919050565b6111b161122d565b5f73ffffffffffffffffffffffffffffffffffffffff168173ffffffffffffffffffffffffffffffffffffffff1603611221575f6040517f1e4fbdf70000000000000000000000000000000000000000000000000000000081526004016112189190611a4d565b60405180910390fd5b61122a816112b4565b50565b611235611375565b73ffffffffffffffffffffffffffffffffffffffff16611253610998565b73ffffffffffffffffffffffffffffffffffffffff16146112b257611276611375565b6040517f118cdaa70000000000000000000000000000000000000000000000000000000081526004016112a99190611a4d565b60405180910390fd5b565b5f805f9054906101000a900473ffffffffffffffffffffffffffffffffffffffff169050815f806101000a81548173ffffffffffffffffffffffffffffffffffffffff021916908373ffffffffffffffffffffffffffffffffffffffff1602179055508173ffffffffffffffffffffffffffffffffffffffff168173ffffffffffffffffffffffffffffffffffffffff167f8be0079c531659141344cd1fd0a4f28419497f9722a3daafe3b4186f6b6457e060405160405180910390a35050565b5f33905090565b5080545f8255600502905f5260205f209081019061139a91906113de565b50565b6040518060a001604052805f81526020015f73ffffffffffffffffffffffffffffffffffffffff168152602001606081526020015f81526020015f81525090565b5b8082111561143a575f8082015f9055600182015f6101000a81549073ffffffffffffffffffffffffffffffffffffffff0219169055600282015f611423919061143e565b600382015f9055600482015f9055506005016113df565b5090565b50805461144a90611c03565b5f825580601f1061145b5750611478565b601f0160209004905f5260205f2090810190611477919061147b565b5b50565b5b80821115611492575f815f90555060010161147c565b5090565b5f604051905090565b5f80fd5b5f80fd5b5f73ffffffffffffffffffffffffffffffffffffffff82169050919050565b5f6114d0826114a7565b9050919050565b6114e0816114c6565b81146114ea575f80fd5b50565b5f813590506114fb816114d7565b92915050565b5f819050919050565b61151381611501565b811461151d575f80fd5b50565b5f8135905061152e8161150a565b92915050565b5f806040838503121561154a5761154961149f565b5b5f611557858286016114ed565b925050602061156885828601611520565b9150509250929050565b61157b81611501565b82525050565b61158a816114c6565b82525050565b5f81519050919050565b5f82825260208201905092915050565b8281835e5f83830152505050565b5f601f19601f8301169050919050565b5f6115d282611590565b6115dc818561159a565b93506115ec8185602086016115aa565b6115f5816115b8565b840191505092915050565b5f60a0820190506116135f830188611572565b6116206020830187611581565b818103604083015261163281866115c8565b90506116416060830185611572565b61164e6080830184611572565b9695505050505050565b5f6020828403121561166d5761166c61149f565b5b5f61167a848285016114ed565b91505092915050565b5f81519050919050565b5f82825260208201905092915050565b5f819050602082019050919050565b6116b581611501565b82525050565b6116c4816114c6565b82525050565b5f82825260208201905092915050565b5f6116e482611590565b6116ee81856116ca565b93506116fe8185602086016115aa565b611707816115b8565b840191505092915050565b5f60a083015f8301516117275f8601826116ac565b50602083015161173a60208601826116bb565b506040830151848203604086015261175282826116da565b915050606083015161176760608601826116ac565b50608083015161177a60808601826116ac565b508091505092915050565b5f6117908383611712565b905092915050565b5f602082019050919050565b5f6117ae82611683565b6117b8818561168d565b9350836020820285016117ca8561169d565b805f5b8581101561180557848403895281516117e68582611785565b94506117f183611798565b925060208a019950506001810190506117cd565b50829750879550505050505092915050565b5f6020820190508181035f83015261182f81846117a4565b905092915050565b5f61ffff82169050919050565b61184d81611837565b8114611857575f80fd5b50565b5f8135905061186881611844565b92915050565b5f602082840312156118835761188261149f565b5b5f6118908482850161185a565b91505092915050565b6118a281611837565b82525050565b5f6020820190506118bb5f830184611899565b92915050565b5f80fd5b5f80fd5b7f4e487b71000000000000000000000000000000000000000000000000000000005f52604160045260245ffd5b6118ff826115b8565b810181811067ffffffffffffffff8211171561191e5761191d6118c9565b5b80604052505050565b5f611930611496565b905061193c82826118f6565b919050565b5f67ffffffffffffffff82111561195b5761195a6118c9565b5b611964826115b8565b9050602081019050919050565b828183375f83830152505050565b5f61199161198c84611941565b611927565b9050828152602081018484840111156119ad576119ac6118c5565b5b6119b8848285611971565b509392505050565b5f82601f8301126119d4576119d36118c1565b5b81356119e484826020860161197f565b91505092915050565b5f60208284031215611a0257611a0161149f565b5b5f82013567ffffffffffffffff811115611a1f57611a1e6114a3565b5b611a2b848285016119c0565b91505092915050565b5f602082019050611a475f830184611572565b92915050565b5f602082019050611a605f830184611581565b92915050565b5f8060408385031215611a7c57611a7b61149f565b5b5f611a8985828601611520565b9250506020611a9a858286016114ed565b9150509250929050565b5f819050919050565b5f611ac7611ac2611abd846114a7565b611aa4565b6114a7565b9050919050565b5f611ad882611aad565b9050919050565b5f611ae982611ace565b9050919050565b611af981611adf565b82525050565b5f602082019050611b125f830184611af0565b92915050565b5f60208284031215611b2d57611b2c61149f565b5b5f611b3a84828501611520565b91505092915050565b5f60a083015f830151611b585f8601826116ac565b506020830151611b6b60208601826116bb565b5060408301518482036040860152611b8382826116da565b9150506060830151611b9860608601826116ac565b506080830151611bab60808601826116ac565b508091505092915050565b5f6020820190508181035f830152611bce8184611b43565b905092915050565b7f4e487b71000000000000000000000000000000000000000000000000000000005f52602260045260245ffd5b5f6002820490506001821680611c1a57607f821691505b602082108103611c2d57611c2c611bd6565b5b50919050565b5f80fd5b5f80fd5b5f611c4d611c4884611941565b611927565b905082815260208101848484011115611c6957611c686118c5565b5b611c748482856115aa565b509392505050565b5f82601f830112611c9057611c8f6118c1565b5b8151611ca0848260208601611c3b565b91505092915050565b5f60408284031215611cbe57611cbd611c33565b5b611cc86040611927565b90505f82015167ffffffffffffffff811115611ce757611ce6611c37565b5b611cf384828501611c7c565b5f83015250602082015167ffffffffffffffff811115611d1657611d15611c37565b5b611d2284828501611c7c565b60208301525092915050565b5f60208284031215611d4357611d4261149f565b5b5f82015167ffffffffffffffff811115611d6057611d5f6114a3565b5b611d6c84828501611ca9565b91505092915050565b7f55534552204e4f542052454749535445524544000000000000000000000000005f82015250565b5f611da960138361159a565b9150611db482611d75565b602082019050919050565b5f6020820190508181035f830152611dd681611d9d565b9050919050565b7f547765657420697320746f206c6f6e672c206d617820323830206368617261635f8201527f7465727300000000000000000000000000000000000000000000000000000000602082015250565b5f611e3760248361159a565b9150611e4282611ddd565b604082019050919050565b5f6020820190508181035f830152611e6481611e2b565b9050919050565b5f819050815f5260205f209050919050565b5f6020601f8301049050919050565b5f82821b905092915050565b5f60088302611ec77fffffffffffffffffffffffffffffffffffffffffffffffffffffffffffffffff82611e8c565b611ed18683611e8c565b95508019841693508086168417925050509392505050565b5f611f03611efe611ef984611501565b611aa4565b611501565b9050919050565b5f819050919050565b611f1c83611ee9565b611f30611f2882611f0a565b848454611e98565b825550505050565b5f90565b611f44611f38565b611f4f818484611f13565b505050565b5b81811015611f7257611f675f82611f3c565b600181019050611f55565b5050565b601f821115611fb757611f8881611e6b565b611f9184611e7d565b81016020851015611fa0578190505b611fb4611fac85611e7d565b830182611f54565b50505b505050565b5f82821c905092915050565b5f611fd75f1984600802611fbc565b1980831691505092915050565b5f611fef8383611fc8565b9150826002028217905092915050565b61200882611590565b67ffffffffffffffff811115612021576120206118c9565b5b61202b8254611c03565b612036828285611f76565b5f60209050601f831160018114612067575f8415612055578287015190505b61205f8582611fe4565b8655506120c6565b601f19841661207586611e6b565b5f5b8281101561209c57848901518255600182019150602085019450602081019050612077565b868310156120b957848901516120b5601f891682611fc8565b8355505b6001600288020188555050505b505050505050565b5f6060820190506120e15f830186611581565b81810360208301526120f381856115c8565b90506121026040830184611572565b949350505050565b7f4e487b71000000000000000000000000000000000000000000000000000000005f52603260045260245ffd5b7f4e487b71000000000000000000000000000000000000000000000000000000005f52601160045260245ffd5b5f61216e82611501565b915061217983611501565b925082820190508082111561219157612190612137565b5b92915050565b7f545745455420444f4553204e4f542045584953540000000000000000000000005f82015250565b5f6121cb60148361159a565b91506121d682612197565b602082019050919050565b5f6020820190508181035f8301526121f8816121bf565b9050919050565b7f545745455420444f4553204e4f54204c494b45440000000000000000000000005f82015250565b5f61223360148361159a565b915061223e826121ff565b602082019050919050565b5f6020820190508181035f83015261226081612227565b9050919050565b5f61227182611501565b91505f820361228357612282612137565b5b600182039050919050565b5f6080820190506122a15f830187611581565b6122ae6020830186611581565b6122bb6040830185611572565b6122c86060830184611572565b95945050505050565b5f6122db82611501565b91507fffffffffffffffffffffffffffffffffffffffffffffffffffffffffffffffff820361230d5761230c612137565b5b600182019050919050565b7f496e76616c696420747765657420696e646578000000000000000000000000005f82015250565b5f61234c60138361159a565b915061235782612318565b602082019050919050565b5f6020820190508181035f83015261237981612340565b905091905056fea2646970667358221220eb5267aae91cd8d383dec1c8bca89ff5d7defba9c3e3dc1b08c547bc57b83f7a64736f6c634300081a0033",
					"opcodes": "PUSH1 0x80 PUSH1 0x40 MSTORE PUSH2 0x118 PUSH1 0x2 PUSH0 PUSH2 0x100 EXP DUP2 SLOAD DUP2 PUSH2 0xFFFF MUL NOT AND SWAP1 DUP4 PUSH2 0xFFFF AND MUL OR SWAP1 SSTORE POP CALLVALUE DUP1 ISZERO PUSH2 0x2D JUMPI PUSH0 DUP1 REVERT JUMPDEST POP PUSH1 0x40 MLOAD PUSH2 0x264B CODESIZE SUB DUP1 PUSH2 0x264B DUP4 CODECOPY DUP2 DUP2 ADD PUSH1 0x40 MSTORE DUP2 ADD SWAP1 PUSH2 0x4F SWAP2 SWAP1 PUSH2 0x235 JUMP JUMPDEST CALLER PUSH0 PUSH20 0xFFFFFFFFFFFFFFFFFFFFFFFFFFFFFFFFFFFFFFFF AND DUP2 PUSH20 0xFFFFFFFFFFFFFFFFFFFFFFFFFFFFFFFFFFFFFFFF AND SUB PUSH2 0xC0 JUMPI PUSH0 PUSH1 0x40 MLOAD PUSH32 0x1E4FBDF700000000000000000000000000000000000000000000000000000000 DUP2 MSTORE PUSH1 0x4 ADD PUSH2 0xB7 SWAP2 SWAP1 PUSH2 0x26F JUMP JUMPDEST PUSH1 0x40 MLOAD DUP1 SWAP2 SUB SWAP1 REVERT JUMPDEST PUSH2 0xCF DUP2 PUSH2 0x116 PUSH1 0x20 SHL PUSH1 0x20 SHR JUMP JUMPDEST POP DUP1 PUSH1 0x2 DUP1 PUSH2 0x100 EXP DUP2 SLOAD DUP2 PUSH20 0xFFFFFFFFFFFFFFFFFFFFFFFFFFFFFFFFFFFFFFFF MUL NOT AND SWAP1 DUP4 PUSH20 0xFFFFFFFFFFFFFFFFFFFFFFFFFFFFFFFFFFFFFFFF AND MUL OR SWAP1 SSTORE POP POP PUSH2 0x288 JUMP JUMPDEST PUSH0 DUP1 PUSH0 SWAP1 SLOAD SWAP1 PUSH2 0x100 EXP SWAP1 DIV PUSH20 0xFFFFFFFFFFFFFFFFFFFFFFFFFFFFFFFFFFFFFFFF AND SWAP1 POP DUP2 PUSH0 DUP1 PUSH2 0x100 EXP DUP2 SLOAD DUP2 PUSH20 0xFFFFFFFFFFFFFFFFFFFFFFFFFFFFFFFFFFFFFFFF MUL NOT AND SWAP1 DUP4 PUSH20 0xFFFFFFFFFFFFFFFFFFFFFFFFFFFFFFFFFFFFFFFF AND MUL OR SWAP1 SSTORE POP DUP2 PUSH20 0xFFFFFFFFFFFFFFFFFFFFFFFFFFFFFFFFFFFFFFFF AND DUP2 PUSH20 0xFFFFFFFFFFFFFFFFFFFFFFFFFFFFFFFFFFFFFFFF AND PUSH32 0x8BE0079C531659141344CD1FD0A4F28419497F9722A3DAAFE3B4186F6B6457E0 PUSH1 0x40 MLOAD PUSH1 0x40 MLOAD DUP1 SWAP2 SUB SWAP1 LOG3 POP POP JUMP JUMPDEST PUSH0 DUP1 REVERT JUMPDEST PUSH0 PUSH20 0xFFFFFFFFFFFFFFFFFFFFFFFFFFFFFFFFFFFFFFFF DUP3 AND SWAP1 POP SWAP2 SWAP1 POP JUMP JUMPDEST PUSH0 PUSH2 0x204 DUP3 PUSH2 0x1DB JUMP JUMPDEST SWAP1 POP SWAP2 SWAP1 POP JUMP JUMPDEST PUSH2 0x214 DUP2 PUSH2 0x1FA JUMP JUMPDEST DUP2 EQ PUSH2 0x21E JUMPI PUSH0 DUP1 REVERT JUMPDEST POP JUMP JUMPDEST PUSH0 DUP2 MLOAD SWAP1 POP PUSH2 0x22F DUP2 PUSH2 0x20B JUMP JUMPDEST SWAP3 SWAP2 POP POP JUMP JUMPDEST PUSH0 PUSH1 0x20 DUP3 DUP5 SUB SLT ISZERO PUSH2 0x24A JUMPI PUSH2 0x249 PUSH2 0x1D7 JUMP JUMPDEST JUMPDEST PUSH0 PUSH2 0x257 DUP5 DUP3 DUP6 ADD PUSH2 0x221 JUMP JUMPDEST SWAP2 POP POP SWAP3 SWAP2 POP POP JUMP JUMPDEST PUSH2 0x269 DUP2 PUSH2 0x1FA JUMP JUMPDEST DUP3 MSTORE POP POP JUMP JUMPDEST PUSH0 PUSH1 0x20 DUP3 ADD SWAP1 POP PUSH2 0x282 PUSH0 DUP4 ADD DUP5 PUSH2 0x260 JUMP JUMPDEST SWAP3 SWAP2 POP POP JUMP JUMPDEST PUSH2 0x23B6 DUP1 PUSH2 0x295 PUSH0 CODECOPY PUSH0 RETURN INVALID PUSH1 0x80 PUSH1 0x40 MSTORE CALLVALUE DUP1 ISZERO PUSH2 0xF JUMPI PUSH0 DUP1 REVERT JUMPDEST POP PUSH1 0x4 CALLDATASIZE LT PUSH2 0xE8 JUMPI PUSH0 CALLDATALOAD PUSH1 0xE0 SHR DUP1 PUSH4 0x820785CC GT PUSH2 0x8A JUMPI DUP1 PUSH4 0xA3974B21 GT PUSH2 0x64 JUMPI DUP1 PUSH4 0xA3974B21 EQ PUSH2 0x236 JUMPI DUP1 PUSH4 0xD04DDAA0 EQ PUSH2 0x254 JUMPI DUP1 PUSH4 0xED9BB8D7 EQ PUSH2 0x270 JUMPI DUP1 PUSH4 0xF2FDE38B EQ PUSH2 0x2A0 JUMPI PUSH2 0xE8 JUMP JUMPDEST DUP1 PUSH4 0x820785CC EQ PUSH2 0x1CC JUMPI DUP1 PUSH4 0x8DA5CB5B EQ PUSH2 0x1FC JUMPI DUP1 PUSH4 0xA1488F7C EQ PUSH2 0x21A JUMPI PUSH2 0xE8 JUMP JUMPDEST DUP1 PUSH4 0x6D003C01 GT PUSH2 0xC6 JUMPI DUP1 PUSH4 0x6D003C01 EQ PUSH2 0x16C JUMPI DUP1 PUSH4 0x6EB10797 EQ PUSH2 0x188 JUMPI DUP1 PUSH4 0x715018A6 EQ PUSH2 0x1A6 JUMPI DUP1 PUSH4 0x7C9CD2BC EQ PUSH2 0x1B0 JUMPI PUSH2 0xE8 JUMP JUMPDEST DUP1 PUSH4 0x5A1B4A9 EQ PUSH2 0xEC JUMPI DUP1 PUSH4 0x12E7EE1C EQ PUSH2 0x120 JUMPI DUP1 PUSH4 0x20F7E65C EQ PUSH2 0x150 JUMPI JUMPDEST PUSH0 DUP1 REVERT JUMPDEST PUSH2 0x106 PUSH1 0x4 DUP1 CALLDATASIZE SUB DUP2 ADD SWAP1 PUSH2 0x101 SWAP2 SWAP1 PUSH2 0x1534 JUMP JUMPDEST PUSH2 0x2BC JUMP JUMPDEST PUSH1 0x40 MLOAD PUSH2 0x117 SWAP6 SWAP5 SWAP4 SWAP3 SWAP2 SWAP1 PUSH2 0x1600 JUMP JUMPDEST PUSH1 0x40 MLOAD DUP1 SWAP2 SUB SWAP1 RETURN JUMPDEST PUSH2 0x13A PUSH1 0x4 DUP1 CALLDATASIZE SUB DUP2 ADD SWAP1 PUSH2 0x135 SWAP2 SWAP1 PUSH2 0x1658 JUMP JUMPDEST PUSH2 0x3AD JUMP JUMPDEST PUSH1 0x40 MLOAD PUSH2 0x147 SWAP2 SWAP1 PUSH2 0x1817 JUMP JUMPDEST PUSH1 0x40 MLOAD DUP1 SWAP2 SUB SWAP1 RETURN JUMPDEST PUSH2 0x16A PUSH1 0x4 DUP1 CALLDATASIZE SUB DUP2 ADD SWAP1 PUSH2 0x165 SWAP2 SWAP1 PUSH2 0x1658 JUMP JUMPDEST PUSH2 0x548 JUMP JUMPDEST STOP JUMPDEST PUSH2 0x186 PUSH1 0x4 DUP1 CALLDATASIZE SUB DUP2 ADD SWAP1 PUSH2 0x181 SWAP2 SWAP1 PUSH2 0x186E JUMP JUMPDEST PUSH2 0x593 JUMP JUMPDEST STOP JUMPDEST PUSH2 0x190 PUSH2 0x5BA JUMP JUMPDEST PUSH1 0x40 MLOAD PUSH2 0x19D SWAP2 SWAP1 PUSH2 0x18A8 JUMP JUMPDEST PUSH1 0x40 MLOAD DUP1 SWAP2 SUB SWAP1 RETURN JUMPDEST PUSH2 0x1AE PUSH2 0x5CD JUMP JUMPDEST STOP JUMPDEST PUSH2 0x1CA PUSH1 0x4 DUP1 CALLDATASIZE SUB DUP2 ADD SWAP1 PUSH2 0x1C5 SWAP2 SWAP1 PUSH2 0x19ED JUMP JUMPDEST PUSH2 0x5E0 JUMP JUMPDEST STOP JUMPDEST PUSH2 0x1E6 PUSH1 0x4 DUP1 CALLDATASIZE SUB DUP2 ADD SWAP1 PUSH2 0x1E1 SWAP2 SWAP1 PUSH2 0x1658 JUMP JUMPDEST PUSH2 0x8C9 JUMP JUMPDEST PUSH1 0x40 MLOAD PUSH2 0x1F3 SWAP2 SWAP1 PUSH2 0x1A34 JUMP JUMPDEST PUSH1 0x40 MLOAD DUP1 SWAP2 SUB SWAP1 RETURN JUMPDEST PUSH2 0x204 PUSH2 0x998 JUMP JUMPDEST PUSH1 0x40 MLOAD PUSH2 0x211 SWAP2 SWAP1 PUSH2 0x1A4D JUMP JUMPDEST PUSH1 0x40 MLOAD DUP1 SWAP2 SUB SWAP1 RETURN JUMPDEST PUSH2 0x234 PUSH1 0x4 DUP1 CALLDATASIZE SUB DUP2 ADD SWAP1 PUSH2 0x22F SWAP2 SWAP1 PUSH2 0x1A66 JUMP JUMPDEST PUSH2 0x9BF JUMP JUMPDEST STOP JUMPDEST PUSH2 0x23E PUSH2 0xCF5 JUMP JUMPDEST PUSH1 0x40 MLOAD PUSH2 0x24B SWAP2 SWAP1 PUSH2 0x1AFF JUMP JUMPDEST PUSH1 0x40 MLOAD DUP1 SWAP2 SUB SWAP1 RETURN JUMPDEST PUSH2 0x26E PUSH1 0x4 DUP1 CALLDATASIZE SUB DUP2 ADD SWAP1 PUSH2 0x269 SWAP2 SWAP1 PUSH2 0x1A66 JUMP JUMPDEST PUSH2 0xD19 JUMP JUMPDEST STOP JUMPDEST PUSH2 0x28A PUSH1 0x4 DUP1 CALLDATASIZE SUB DUP2 ADD SWAP1 PUSH2 0x285 SWAP2 SWAP1 PUSH2 0x1B18 JUMP JUMPDEST PUSH2 0xFAF JUMP JUMPDEST PUSH1 0x40 MLOAD PUSH2 0x297 SWAP2 SWAP1 PUSH2 0x1BB6 JUMP JUMPDEST PUSH1 0x40 MLOAD DUP1 SWAP2 SUB SWAP1 RETURN JUMPDEST PUSH2 0x2BA PUSH1 0x4 DUP1 CALLDATASIZE SUB DUP2 ADD SWAP1 PUSH2 0x2B5 SWAP2 SWAP1 PUSH2 0x1658 JUMP JUMPDEST PUSH2 0x11A9 JUMP JUMPDEST STOP JUMPDEST PUSH1 0x1 PUSH1 0x20 MSTORE DUP2 PUSH0 MSTORE PUSH1 0x40 PUSH0 KECCAK256 DUP2 DUP2 SLOAD DUP2 LT PUSH2 0x2D5 JUMPI PUSH0 DUP1 REVERT JUMPDEST SWAP1 PUSH0 MSTORE PUSH1 0x20 PUSH0 KECCAK256 SWAP1 PUSH1 0x5 MUL ADD PUSH0 SWAP2 POP SWAP2 POP POP DUP1 PUSH0 ADD SLOAD SWAP1 DUP1 PUSH1 0x1 ADD PUSH0 SWAP1 SLOAD SWAP1 PUSH2 0x100 EXP SWAP1 DIV PUSH20 0xFFFFFFFFFFFFFFFFFFFFFFFFFFFFFFFFFFFFFFFF AND SWAP1 DUP1 PUSH1 0x2 ADD DUP1 SLOAD PUSH2 0x320 SWAP1 PUSH2 0x1C03 JUMP JUMPDEST DUP1 PUSH1 0x1F ADD PUSH1 0x20 DUP1 SWAP2 DIV MUL PUSH1 0x20 ADD PUSH1 0x40 MLOAD SWAP1 DUP2 ADD PUSH1 0x40 MSTORE DUP1 SWAP3 SWAP2 SWAP1 DUP2 DUP2 MSTORE PUSH1 0x20 ADD DUP3 DUP1 SLOAD PUSH2 0x34C SWAP1 PUSH2 0x1C03 JUMP JUMPDEST DUP1 ISZERO PUSH2 0x397 JUMPI DUP1 PUSH1 0x1F LT PUSH2 0x36E JUMPI PUSH2 0x100 DUP1 DUP4 SLOAD DIV MUL DUP4 MSTORE SWAP2 PUSH1 0x20 ADD SWAP2 PUSH2 0x397 JUMP JUMPDEST DUP3 ADD SWAP2 SWAP1 PUSH0 MSTORE PUSH1 0x20 PUSH0 KECCAK256 SWAP1 JUMPDEST DUP2 SLOAD DUP2 MSTORE SWAP1 PUSH1 0x1 ADD SWAP1 PUSH1 0x20 ADD DUP1 DUP4 GT PUSH2 0x37A JUMPI DUP3 SWAP1 SUB PUSH1 0x1F AND DUP3 ADD SWAP2 JUMPDEST POP POP POP POP POP SWAP1 DUP1 PUSH1 0x3 ADD SLOAD SWAP1 DUP1 PUSH1 0x4 ADD SLOAD SWAP1 POP DUP6 JUMP JUMPDEST PUSH1 0x60 PUSH1 0x1 PUSH0 DUP4 PUSH20 0xFFFFFFFFFFFFFFFFFFFFFFFFFFFFFFFFFFFFFFFF AND PUSH20 0xFFFFFFFFFFFFFFFFFFFFFFFFFFFFFFFFFFFFFFFF AND DUP2 MSTORE PUSH1 0x20 ADD SWAP1 DUP2 MSTORE PUSH1 0x20 ADD PUSH0 KECCAK256 DUP1 SLOAD DUP1 PUSH1 0x20 MUL PUSH1 0x20 ADD PUSH1 0x40 MLOAD SWAP1 DUP2 ADD PUSH1 0x40 MSTORE DUP1 SWAP3 SWAP2 SWAP1 DUP2 DUP2 MSTORE PUSH1 0x20 ADD PUSH0 SWAP1 JUMPDEST DUP3 DUP3 LT ISZERO PUSH2 0x53D JUMPI DUP4 DUP3 SWAP1 PUSH0 MSTORE PUSH1 0x20 PUSH0 KECCAK256 SWAP1 PUSH1 0x5 MUL ADD PUSH1 0x40 MLOAD DUP1 PUSH1 0xA0 ADD PUSH1 0x40 MSTORE SWAP1 DUP2 PUSH0 DUP3 ADD SLOAD DUP2 MSTORE PUSH1 0x20 ADD PUSH1 0x1 DUP3 ADD PUSH0 SWAP1 SLOAD SWAP1 PUSH2 0x100 EXP SWAP1 DIV PUSH20 0xFFFFFFFFFFFFFFFFFFFFFFFFFFFFFFFFFFFFFFFF AND PUSH20 0xFFFFFFFFFFFFFFFFFFFFFFFFFFFFFFFFFFFFFFFF AND PUSH20 0xFFFFFFFFFFFFFFFFFFFFFFFFFFFFFFFFFFFFFFFF AND DUP2 MSTORE PUSH1 0x20 ADD PUSH1 0x2 DUP3 ADD DUP1 SLOAD PUSH2 0x49A SWAP1 PUSH2 0x1C03 JUMP JUMPDEST DUP1 PUSH1 0x1F ADD PUSH1 0x20 DUP1 SWAP2 DIV MUL PUSH1 0x20 ADD PUSH1 0x40 MLOAD SWAP1 DUP2 ADD PUSH1 0x40 MSTORE DUP1 SWAP3 SWAP2 SWAP1 DUP2 DUP2 MSTORE PUSH1 0x20 ADD DUP3 DUP1 SLOAD PUSH2 0x4C6 SWAP1 PUSH2 0x1C03 JUMP JUMPDEST DUP1 ISZERO PUSH2 0x511 JUMPI DUP1 PUSH1 0x1F LT PUSH2 0x4E8 JUMPI PUSH2 0x100 DUP1 DUP4 SLOAD DIV MUL DUP4 MSTORE SWAP2 PUSH1 0x20 ADD SWAP2 PUSH2 0x511 JUMP JUMPDEST DUP3 ADD SWAP2 SWAP1 PUSH0 MSTORE PUSH1 0x20 PUSH0 KECCAK256 SWAP1 JUMPDEST DUP2 SLOAD DUP2 MSTORE SWAP1 PUSH1 0x1 ADD SWAP1 PUSH1 0x20 ADD DUP1 DUP4 GT PUSH2 0x4F4 JUMPI DUP3 SWAP1 SUB PUSH1 0x1F AND DUP3 ADD SWAP2 JUMPDEST POP POP POP POP POP DUP2 MSTORE PUSH1 0x20 ADD PUSH1 0x3 DUP3 ADD SLOAD DUP2 MSTORE PUSH1 0x20 ADD PUSH1 0x4 DUP3 ADD SLOAD DUP2 MSTORE POP POP DUP2 MSTORE PUSH1 0x20 ADD SWAP1 PUSH1 0x1 ADD SWAP1 PUSH2 0x40B JUMP JUMPDEST POP POP POP POP SWAP1 POP SWAP2 SWAP1 POP JUMP JUMPDEST PUSH1 0x1 PUSH0 DUP3 PUSH20 0xFFFFFFFFFFFFFFFFFFFFFFFFFFFFFFFFFFFFFFFF AND PUSH20 0xFFFFFFFFFFFFFFFFFFFFFFFFFFFFFFFFFFFFFFFF AND DUP2 MSTORE PUSH1 0x20 ADD SWAP1 DUP2 MSTORE PUSH1 0x20 ADD PUSH0 KECCAK256 PUSH0 PUSH2 0x590 SWAP2 SWAP1 PUSH2 0x137C JUMP JUMPDEST POP JUMP JUMPDEST PUSH2 0x59B PUSH2 0x122D JUMP JUMPDEST DUP1 PUSH1 0x2 PUSH0 PUSH2 0x100 EXP DUP2 SLOAD DUP2 PUSH2 0xFFFF MUL NOT AND SWAP1 DUP4 PUSH2 0xFFFF AND MUL OR SWAP1 SSTORE POP POP JUMP JUMPDEST PUSH1 0x2 PUSH0 SWAP1 SLOAD SWAP1 PUSH2 0x100 EXP SWAP1 DIV PUSH2 0xFFFF AND DUP2 JUMP JUMPDEST PUSH2 0x5D5 PUSH2 0x122D JUMP JUMPDEST PUSH2 0x5DE PUSH0 PUSH2 0x12B4 JUMP JUMPDEST JUMP JUMPDEST PUSH0 PUSH1 0x2 DUP1 SLOAD SWAP1 PUSH2 0x100 EXP SWAP1 DIV PUSH20 0xFFFFFFFFFFFFFFFFFFFFFFFFFFFFFFFFFFFFFFFF AND PUSH20 0xFFFFFFFFFFFFFFFFFFFFFFFFFFFFFFFFFFFFFFFF AND PUSH4 0xF53A470 CALLER PUSH1 0x40 MLOAD DUP3 PUSH4 0xFFFFFFFF AND PUSH1 0xE0 SHL DUP2 MSTORE PUSH1 0x4 ADD PUSH2 0x63A SWAP2 SWAP1 PUSH2 0x1A4D JUMP JUMPDEST PUSH0 PUSH1 0x40 MLOAD DUP1 DUP4 SUB DUP2 DUP7 GAS STATICCALL ISZERO DUP1 ISZERO PUSH2 0x654 JUMPI RETURNDATASIZE PUSH0 DUP1 RETURNDATACOPY RETURNDATASIZE PUSH0 REVERT JUMPDEST POP POP POP POP PUSH1 0x40 MLOAD RETURNDATASIZE PUSH0 DUP3 RETURNDATACOPY RETURNDATASIZE PUSH1 0x1F NOT PUSH1 0x1F DUP3 ADD AND DUP3 ADD DUP1 PUSH1 0x40 MSTORE POP DUP2 ADD SWAP1 PUSH2 0x67C SWAP2 SWAP1 PUSH2 0x1D2E JUMP JUMPDEST SWAP1 POP PUSH0 DUP2 PUSH0 ADD MLOAD MLOAD GT PUSH2 0x6C4 JUMPI PUSH1 0x40 MLOAD PUSH32 0x8C379A000000000000000000000000000000000000000000000000000000000 DUP2 MSTORE PUSH1 0x4 ADD PUSH2 0x6BB SWAP1 PUSH2 0x1DBF JUMP JUMPDEST PUSH1 0x40 MLOAD DUP1 SWAP2 SUB SWAP1 REVERT JUMPDEST PUSH1 0x2 PUSH0 SWAP1 SLOAD SWAP1 PUSH2 0x100 EXP SWAP1 DIV PUSH2 0xFFFF AND PUSH2 0xFFFF AND DUP3 MLOAD GT ISZERO PUSH2 0x71B JUMPI PUSH1 0x40 MLOAD PUSH32 0x8C379A000000000000000000000000000000000000000000000000000000000 DUP2 MSTORE PUSH1 0x4 ADD PUSH2 0x712 SWAP1 PUSH2 0x1E4D JUMP JUMPDEST PUSH1 0x40 MLOAD DUP1 SWAP2 SUB SWAP1 REVERT JUMPDEST PUSH0 PUSH1 0x40 MLOAD DUP1 PUSH1 0xA0 ADD PUSH1 0x40 MSTORE DUP1 PUSH1 0x1 PUSH0 CALLER PUSH20 0xFFFFFFFFFFFFFFFFFFFFFFFFFFFFFFFFFFFFFFFF AND PUSH20 0xFFFFFFFFFFFFFFFFFFFFFFFFFFFFFFFFFFFFFFFF AND DUP2 MSTORE PUSH1 0x20 ADD SWAP1 DUP2 MSTORE PUSH1 0x20 ADD PUSH0 KECCAK256 DUP1 SLOAD SWAP1 POP DUP2 MSTORE PUSH1 0x20 ADD CALLER PUSH20 0xFFFFFFFFFFFFFFFFFFFFFFFFFFFFFFFFFFFFFFFF AND DUP2 MSTORE PUSH1 0x20 ADD DUP5 DUP2 MSTORE PUSH1 0x20 ADD TIMESTAMP DUP2 MSTORE PUSH1 0x20 ADD PUSH0 DUP2 MSTORE POP SWAP1 POP PUSH1 0x1 PUSH0 CALLER PUSH20 0xFFFFFFFFFFFFFFFFFFFFFFFFFFFFFFFFFFFFFFFF AND PUSH20 0xFFFFFFFFFFFFFFFFFFFFFFFFFFFFFFFFFFFFFFFF AND DUP2 MSTORE PUSH1 0x20 ADD SWAP1 DUP2 MSTORE PUSH1 0x20 ADD PUSH0 KECCAK256 DUP2 SWAP1 DUP1 PUSH1 0x1 DUP2 SLOAD ADD DUP1 DUP3 SSTORE DUP1 SWAP2 POP POP PUSH1 0x1 SWAP1 SUB SWAP1 PUSH0 MSTORE PUSH1 0x20 PUSH0 KECCAK256 SWAP1 PUSH1 0x5 MUL ADD PUSH0 SWAP1 SWAP2 SWAP1 SWAP2 SWAP1 SWAP2 POP PUSH0 DUP3 ADD MLOAD DUP2 PUSH0 ADD SSTORE PUSH1 0x20 DUP3 ADD MLOAD DUP2 PUSH1 0x1 ADD PUSH0 PUSH2 0x100 EXP DUP2 SLOAD DUP2 PUSH20 0xFFFFFFFFFFFFFFFFFFFFFFFFFFFFFFFFFFFFFFFF MUL NOT AND SWAP1 DUP4 PUSH20 0xFFFFFFFFFFFFFFFFFFFFFFFFFFFFFFFFFFFFFFFF AND MUL OR SWAP1 SSTORE POP PUSH1 0x40 DUP3 ADD MLOAD DUP2 PUSH1 0x2 ADD SWAP1 DUP2 PUSH2 0x862 SWAP2 SWAP1 PUSH2 0x1FFF JUMP JUMPDEST POP PUSH1 0x60 DUP3 ADD MLOAD DUP2 PUSH1 0x3 ADD SSTORE PUSH1 0x80 DUP3 ADD MLOAD DUP2 PUSH1 0x4 ADD SSTORE POP POP DUP1 PUSH0 ADD MLOAD PUSH32 0x16FD3C13E9D46923E0A8BCE11C7B473EC508A72E6C96CD2404B29CE972AFC29E DUP3 PUSH1 0x20 ADD MLOAD DUP4 PUSH1 0x40 ADD MLOAD DUP5 PUSH1 0x60 ADD MLOAD PUSH1 0x40 MLOAD PUSH2 0x8BC SWAP4 SWAP3 SWAP2 SWAP1 PUSH2 0x20CE JUMP JUMPDEST PUSH1 0x40 MLOAD DUP1 SWAP2 SUB SWAP1 LOG2 POP POP POP JUMP JUMPDEST PUSH0 DUP1 PUSH0 JUMPDEST PUSH1 0x1 PUSH0 DUP6 PUSH20 0xFFFFFFFFFFFFFFFFFFFFFFFFFFFFFFFFFFFFFFFF AND PUSH20 0xFFFFFFFFFFFFFFFFFFFFFFFFFFFFFFFFFFFFFFFF AND DUP2 MSTORE PUSH1 0x20 ADD SWAP1 DUP2 MSTORE PUSH1 0x20 ADD PUSH0 KECCAK256 DUP1 SLOAD SWAP1 POP DUP2 LT ISZERO PUSH2 0x98E JUMPI PUSH1 0x1 PUSH0 DUP6 PUSH20 0xFFFFFFFFFFFFFFFFFFFFFFFFFFFFFFFFFFFFFFFF AND PUSH20 0xFFFFFFFFFFFFFFFFFFFFFFFFFFFFFFFFFFFFFFFF AND DUP2 MSTORE PUSH1 0x20 ADD SWAP1 DUP2 MSTORE PUSH1 0x20 ADD PUSH0 KECCAK256 DUP2 DUP2 SLOAD DUP2 LT PUSH2 0x964 JUMPI PUSH2 0x963 PUSH2 0x210A JUMP JUMPDEST JUMPDEST SWAP1 PUSH0 MSTORE PUSH1 0x20 PUSH0 KECCAK256 SWAP1 PUSH1 0x5 MUL ADD PUSH1 0x4 ADD SLOAD DUP3 PUSH2 0x97F SWAP2 SWAP1 PUSH2 0x2164 JUMP JUMPDEST SWAP2 POP DUP1 DUP1 PUSH1 0x1 ADD SWAP2 POP POP PUSH2 0x8CD JUMP JUMPDEST POP DUP1 SWAP2 POP POP SWAP2 SWAP1 POP JUMP JUMPDEST PUSH0 DUP1 PUSH0 SWAP1 SLOAD SWAP1 PUSH2 0x100 EXP SWAP1 DIV PUSH20 0xFFFFFFFFFFFFFFFFFFFFFFFFFFFFFFFFFFFFFFFF AND SWAP1 POP SWAP1 JUMP JUMPDEST PUSH0 PUSH1 0x2 DUP1 SLOAD SWAP1 PUSH2 0x100 EXP SWAP1 DIV PUSH20 0xFFFFFFFFFFFFFFFFFFFFFFFFFFFFFFFFFFFFFFFF AND PUSH20 0xFFFFFFFFFFFFFFFFFFFFFFFFFFFFFFFFFFFFFFFF AND PUSH4 0xF53A470 CALLER PUSH1 0x40 MLOAD DUP3 PUSH4 0xFFFFFFFF AND PUSH1 0xE0 SHL DUP2 MSTORE PUSH1 0x4 ADD PUSH2 0xA19 SWAP2 SWAP1 PUSH2 0x1A4D JUMP JUMPDEST PUSH0 PUSH1 0x40 MLOAD DUP1 DUP4 SUB DUP2 DUP7 GAS STATICCALL ISZERO DUP1 ISZERO PUSH2 0xA33 JUMPI RETURNDATASIZE PUSH0 DUP1 RETURNDATACOPY RETURNDATASIZE PUSH0 REVERT JUMPDEST POP POP POP POP PUSH1 0x40 MLOAD RETURNDATASIZE PUSH0 DUP3 RETURNDATACOPY RETURNDATASIZE PUSH1 0x1F NOT PUSH1 0x1F DUP3 ADD AND DUP3 ADD DUP1 PUSH1 0x40 MSTORE POP DUP2 ADD SWAP1 PUSH2 0xA5B SWAP2 SWAP1 PUSH2 0x1D2E JUMP JUMPDEST SWAP1 POP PUSH0 DUP2 PUSH0 ADD MLOAD MLOAD GT PUSH2 0xAA3 JUMPI PUSH1 0x40 MLOAD PUSH32 0x8C379A000000000000000000000000000000000000000000000000000000000 DUP2 MSTORE PUSH1 0x4 ADD PUSH2 0xA9A SWAP1 PUSH2 0x1DBF JUMP JUMPDEST PUSH1 0x40 MLOAD DUP1 SWAP2 SUB SWAP1 REVERT JUMPDEST DUP3 PUSH1 0x1 PUSH0 DUP5 PUSH20 0xFFFFFFFFFFFFFFFFFFFFFFFFFFFFFFFFFFFFFFFF AND PUSH20 0xFFFFFFFFFFFFFFFFFFFFFFFFFFFFFFFFFFFFFFFF AND DUP2 MSTORE PUSH1 0x20 ADD SWAP1 DUP2 MSTORE PUSH1 0x20 ADD PUSH0 KECCAK256 DUP5 DUP2 SLOAD DUP2 LT PUSH2 0xAF3 JUMPI PUSH2 0xAF2 PUSH2 0x210A JUMP JUMPDEST JUMPDEST SWAP1 PUSH0 MSTORE PUSH1 0x20 PUSH0 KECCAK256 SWAP1 PUSH1 0x5 MUL ADD PUSH0 ADD SLOAD EQ PUSH2 0xB42 JUMPI PUSH1 0x40 MLOAD PUSH32 0x8C379A000000000000000000000000000000000000000000000000000000000 DUP2 MSTORE PUSH1 0x4 ADD PUSH2 0xB39 SWAP1 PUSH2 0x21E1 JUMP JUMPDEST PUSH1 0x40 MLOAD DUP1 SWAP2 SUB SWAP1 REVERT JUMPDEST PUSH0 PUSH1 0x1 PUSH0 DUP5 PUSH20 0xFFFFFFFFFFFFFFFFFFFFFFFFFFFFFFFFFFFFFFFF AND PUSH20 0xFFFFFFFFFFFFFFFFFFFFFFFFFFFFFFFFFFFFFFFF AND DUP2 MSTORE PUSH1 0x20 ADD SWAP1 DUP2 MSTORE PUSH1 0x20 ADD PUSH0 KECCAK256 DUP5 DUP2 SLOAD DUP2 LT PUSH2 0xB92 JUMPI PUSH2 0xB91 PUSH2 0x210A JUMP JUMPDEST JUMPDEST SWAP1 PUSH0 MSTORE PUSH1 0x20 PUSH0 KECCAK256 SWAP1 PUSH1 0x5 MUL ADD PUSH1 0x4 ADD SLOAD GT PUSH2 0xBE2 JUMPI PUSH1 0x40 MLOAD PUSH32 0x8C379A000000000000000000000000000000000000000000000000000000000 DUP2 MSTORE PUSH1 0x4 ADD PUSH2 0xBD9 SWAP1 PUSH2 0x2249 JUMP JUMPDEST PUSH1 0x40 MLOAD DUP1 SWAP2 SUB SWAP1 REVERT JUMPDEST PUSH1 0x1 PUSH0 DUP4 PUSH20 0xFFFFFFFFFFFFFFFFFFFFFFFFFFFFFFFFFFFFFFFF AND PUSH20 0xFFFFFFFFFFFFFFFFFFFFFFFFFFFFFFFFFFFFFFFF AND DUP2 MSTORE PUSH1 0x20 ADD SWAP1 DUP2 MSTORE PUSH1 0x20 ADD PUSH0 KECCAK256 DUP4 DUP2 SLOAD DUP2 LT PUSH2 0xC31 JUMPI PUSH2 0xC30 PUSH2 0x210A JUMP JUMPDEST JUMPDEST SWAP1 PUSH0 MSTORE PUSH1 0x20 PUSH0 KECCAK256 SWAP1 PUSH1 0x5 MUL ADD PUSH1 0x4 ADD PUSH0 DUP2 SLOAD DUP1 SWAP3 SWAP2 SWAP1 PUSH2 0xC50 SWAP1 PUSH2 0x2267 JUMP JUMPDEST SWAP2 SWAP1 POP SSTORE POP PUSH32 0x273883C252143C4ABCE776697615E41CA9BC1AAC5968C585D1C8BA8FFAA8B3C1 CALLER DUP4 DUP6 PUSH1 0x1 PUSH0 DUP8 PUSH20 0xFFFFFFFFFFFFFFFFFFFFFFFFFFFFFFFFFFFFFFFF AND PUSH20 0xFFFFFFFFFFFFFFFFFFFFFFFFFFFFFFFFFFFFFFFF AND DUP2 MSTORE PUSH1 0x20 ADD SWAP1 DUP2 MSTORE PUSH1 0x20 ADD PUSH0 KECCAK256 DUP8 DUP2 SLOAD DUP2 LT PUSH2 0xCC8 JUMPI PUSH2 0xCC7 PUSH2 0x210A JUMP JUMPDEST JUMPDEST SWAP1 PUSH0 MSTORE PUSH1 0x20 PUSH0 KECCAK256 SWAP1 PUSH1 0x5 MUL ADD PUSH1 0x4 ADD SLOAD PUSH1 0x40 MLOAD PUSH2 0xCE8 SWAP5 SWAP4 SWAP3 SWAP2 SWAP1 PUSH2 0x228E JUMP JUMPDEST PUSH1 0x40 MLOAD DUP1 SWAP2 SUB SWAP1 LOG1 POP POP POP JUMP JUMPDEST PUSH1 0x2 DUP1 SLOAD SWAP1 PUSH2 0x100 EXP SWAP1 DIV PUSH20 0xFFFFFFFFFFFFFFFFFFFFFFFFFFFFFFFFFFFFFFFF AND DUP2 JUMP JUMPDEST PUSH0 PUSH1 0x2 DUP1 SLOAD SWAP1 PUSH2 0x100 EXP SWAP1 DIV PUSH20 0xFFFFFFFFFFFFFFFFFFFFFFFFFFFFFFFFFFFFFFFF AND PUSH20 0xFFFFFFFFFFFFFFFFFFFFFFFFFFFFFFFFFFFFFFFF AND PUSH4 0xF53A470 CALLER PUSH1 0x40 MLOAD DUP3 PUSH4 0xFFFFFFFF AND PUSH1 0xE0 SHL DUP2 MSTORE PUSH1 0x4 ADD PUSH2 0xD73 SWAP2 SWAP1 PUSH2 0x1A4D JUMP JUMPDEST PUSH0 PUSH1 0x40 MLOAD DUP1 DUP4 SUB DUP2 DUP7 GAS STATICCALL ISZERO DUP1 ISZERO PUSH2 0xD8D JUMPI RETURNDATASIZE PUSH0 DUP1 RETURNDATACOPY RETURNDATASIZE PUSH0 REVERT JUMPDEST POP POP POP POP PUSH1 0x40 MLOAD RETURNDATASIZE PUSH0 DUP3 RETURNDATACOPY RETURNDATASIZE PUSH1 0x1F NOT PUSH1 0x1F DUP3 ADD AND DUP3 ADD DUP1 PUSH1 0x40 MSTORE POP DUP2 ADD SWAP1 PUSH2 0xDB5 SWAP2 SWAP1 PUSH2 0x1D2E JUMP JUMPDEST SWAP1 POP PUSH0 DUP2 PUSH0 ADD MLOAD MLOAD GT PUSH2 0xDFD JUMPI PUSH1 0x40 MLOAD PUSH32 0x8C379A000000000000000000000000000000000000000000000000000000000 DUP2 MSTORE PUSH1 0x4 ADD PUSH2 0xDF4 SWAP1 PUSH2 0x1DBF JUMP JUMPDEST PUSH1 0x40 MLOAD DUP1 SWAP2 SUB SWAP1 REVERT JUMPDEST DUP3 PUSH1 0x1 PUSH0 DUP5 PUSH20 0xFFFFFFFFFFFFFFFFFFFFFFFFFFFFFFFFFFFFFFFF AND PUSH20 0xFFFFFFFFFFFFFFFFFFFFFFFFFFFFFFFFFFFFFFFF AND DUP2 MSTORE PUSH1 0x20 ADD SWAP1 DUP2 MSTORE PUSH1 0x20 ADD PUSH0 KECCAK256 DUP5 DUP2 SLOAD DUP2 LT PUSH2 0xE4D JUMPI PUSH2 0xE4C PUSH2 0x210A JUMP JUMPDEST JUMPDEST SWAP1 PUSH0 MSTORE PUSH1 0x20 PUSH0 KECCAK256 SWAP1 PUSH1 0x5 MUL ADD PUSH0 ADD SLOAD EQ PUSH2 0xE9C JUMPI PUSH1 0x40 MLOAD PUSH32 0x8C379A000000000000000000000000000000000000000000000000000000000 DUP2 MSTORE PUSH1 0x4 ADD PUSH2 0xE93 SWAP1 PUSH2 0x21E1 JUMP JUMPDEST PUSH1 0x40 MLOAD DUP1 SWAP2 SUB SWAP1 REVERT JUMPDEST PUSH1 0x1 PUSH0 DUP4 PUSH20 0xFFFFFFFFFFFFFFFFFFFFFFFFFFFFFFFFFFFFFFFF AND PUSH20 0xFFFFFFFFFFFFFFFFFFFFFFFFFFFFFFFFFFFFFFFF AND DUP2 MSTORE PUSH1 0x20 ADD SWAP1 DUP2 MSTORE PUSH1 0x20 ADD PUSH0 KECCAK256 DUP4 DUP2 SLOAD DUP2 LT PUSH2 0xEEB JUMPI PUSH2 0xEEA PUSH2 0x210A JUMP JUMPDEST JUMPDEST SWAP1 PUSH0 MSTORE PUSH1 0x20 PUSH0 KECCAK256 SWAP1 PUSH1 0x5 MUL ADD PUSH1 0x4 ADD PUSH0 DUP2 SLOAD DUP1 SWAP3 SWAP2 SWAP1 PUSH2 0xF0A SWAP1 PUSH2 0x22D1 JUMP JUMPDEST SWAP2 SWAP1 POP SSTORE POP PUSH32 0xE8A76FC0F16D11A00D1E93B689B63D76CF60AF914DD3D915375DC41D01A0C3C8 CALLER DUP4 DUP6 PUSH1 0x1 PUSH0 DUP8 PUSH20 0xFFFFFFFFFFFFFFFFFFFFFFFFFFFFFFFFFFFFFFFF AND PUSH20 0xFFFFFFFFFFFFFFFFFFFFFFFFFFFFFFFFFFFFFFFF AND DUP2 MSTORE PUSH1 0x20 ADD SWAP1 DUP2 MSTORE PUSH1 0x20 ADD PUSH0 KECCAK256 DUP8 DUP2 SLOAD DUP2 LT PUSH2 0xF82 JUMPI PUSH2 0xF81 PUSH2 0x210A JUMP JUMPDEST JUMPDEST SWAP1 PUSH0 MSTORE PUSH1 0x20 PUSH0 KECCAK256 SWAP1 PUSH1 0x5 MUL ADD PUSH1 0x4 ADD SLOAD PUSH1 0x40 MLOAD PUSH2 0xFA2 SWAP5 SWAP4 SWAP3 SWAP2 SWAP1 PUSH2 0x228E JUMP JUMPDEST PUSH1 0x40 MLOAD DUP1 SWAP2 SUB SWAP1 LOG1 POP POP POP JUMP JUMPDEST PUSH2 0xFB7 PUSH2 0x139D JUMP JUMPDEST PUSH1 0x1 PUSH0 CALLER PUSH20 0xFFFFFFFFFFFFFFFFFFFFFFFFFFFFFFFFFFFFFFFF AND PUSH20 0xFFFFFFFFFFFFFFFFFFFFFFFFFFFFFFFFFFFFFFFF AND DUP2 MSTORE PUSH1 0x20 ADD SWAP1 DUP2 MSTORE PUSH1 0x20 ADD PUSH0 KECCAK256 DUP1 SLOAD SWAP1 POP DUP3 GT ISZERO PUSH2 0x103A JUMPI PUSH1 0x40 MLOAD PUSH32 0x8C379A000000000000000000000000000000000000000000000000000000000 DUP2 MSTORE PUSH1 0x4 ADD PUSH2 0x1031 SWAP1 PUSH2 0x2362 JUMP JUMPDEST PUSH1 0x40 MLOAD DUP1 SWAP2 SUB SWAP1 REVERT JUMPDEST PUSH1 0x1 PUSH0 CALLER PUSH20 0xFFFFFFFFFFFFFFFFFFFFFFFFFFFFFFFFFFFFFFFF AND PUSH20 0xFFFFFFFFFFFFFFFFFFFFFFFFFFFFFFFFFFFFFFFF AND DUP2 MSTORE PUSH1 0x20 ADD SWAP1 DUP2 MSTORE PUSH1 0x20 ADD PUSH0 KECCAK256 DUP3 DUP2 SLOAD DUP2 LT PUSH2 0x1089 JUMPI PUSH2 0x1088 PUSH2 0x210A JUMP JUMPDEST JUMPDEST SWAP1 PUSH0 MSTORE PUSH1 0x20 PUSH0 KECCAK256 SWAP1 PUSH1 0x5 MUL ADD PUSH1 0x40 MLOAD DUP1 PUSH1 0xA0 ADD PUSH1 0x40 MSTORE SWAP1 DUP2 PUSH0 DUP3 ADD SLOAD DUP2 MSTORE PUSH1 0x20 ADD PUSH1 0x1 DUP3 ADD PUSH0 SWAP1 SLOAD SWAP1 PUSH2 0x100 EXP SWAP1 DIV PUSH20 0xFFFFFFFFFFFFFFFFFFFFFFFFFFFFFFFFFFFFFFFF AND PUSH20 0xFFFFFFFFFFFFFFFFFFFFFFFFFFFFFFFFFFFFFFFF AND PUSH20 0xFFFFFFFFFFFFFFFFFFFFFFFFFFFFFFFFFFFFFFFF AND DUP2 MSTORE PUSH1 0x20 ADD PUSH1 0x2 DUP3 ADD DUP1 SLOAD PUSH2 0x110E SWAP1 PUSH2 0x1C03 JUMP JUMPDEST DUP1 PUSH1 0x1F ADD PUSH1 0x20 DUP1 SWAP2 DIV MUL PUSH1 0x20 ADD PUSH1 0x40 MLOAD SWAP1 DUP2 ADD PUSH1 0x40 MSTORE DUP1 SWAP3 SWAP2 SWAP1 DUP2 DUP2 MSTORE PUSH1 0x20 ADD DUP3 DUP1 SLOAD PUSH2 0x113A SWAP1 PUSH2 0x1C03 JUMP JUMPDEST DUP1 ISZERO PUSH2 0x1185 JUMPI DUP1 PUSH1 0x1F LT PUSH2 0x115C JUMPI PUSH2 0x100 DUP1 DUP4 SLOAD DIV MUL DUP4 MSTORE SWAP2 PUSH1 0x20 ADD SWAP2 PUSH2 0x1185 JUMP JUMPDEST DUP3 ADD SWAP2 SWAP1 PUSH0 MSTORE PUSH1 0x20 PUSH0 KECCAK256 SWAP1 JUMPDEST DUP2 SLOAD DUP2 MSTORE SWAP1 PUSH1 0x1 ADD SWAP1 PUSH1 0x20 ADD DUP1 DUP4 GT PUSH2 0x1168 JUMPI DUP3 SWAP1 SUB PUSH1 0x1F AND DUP3 ADD SWAP2 JUMPDEST POP POP POP POP POP DUP2 MSTORE PUSH1 0x20 ADD PUSH1 0x3 DUP3 ADD SLOAD DUP2 MSTORE PUSH1 0x20 ADD PUSH1 0x4 DUP3 ADD SLOAD DUP2 MSTORE POP POP SWAP1 POP SWAP2 SWAP1 POP JUMP JUMPDEST PUSH2 0x11B1 PUSH2 0x122D JUMP JUMPDEST PUSH0 PUSH20 0xFFFFFFFFFFFFFFFFFFFFFFFFFFFFFFFFFFFFFFFF AND DUP2 PUSH20 0xFFFFFFFFFFFFFFFFFFFFFFFFFFFFFFFFFFFFFFFF AND SUB PUSH2 0x1221 JUMPI PUSH0 PUSH1 0x40 MLOAD PUSH32 0x1E4FBDF700000000000000000000000000000000000000000000000000000000 DUP2 MSTORE PUSH1 0x4 ADD PUSH2 0x1218 SWAP2 SWAP1 PUSH2 0x1A4D JUMP JUMPDEST PUSH1 0x40 MLOAD DUP1 SWAP2 SUB SWAP1 REVERT JUMPDEST PUSH2 0x122A DUP2 PUSH2 0x12B4 JUMP JUMPDEST POP JUMP JUMPDEST PUSH2 0x1235 PUSH2 0x1375 JUMP JUMPDEST PUSH20 0xFFFFFFFFFFFFFFFFFFFFFFFFFFFFFFFFFFFFFFFF AND PUSH2 0x1253 PUSH2 0x998 JUMP JUMPDEST PUSH20 0xFFFFFFFFFFFFFFFFFFFFFFFFFFFFFFFFFFFFFFFF AND EQ PUSH2 0x12B2 JUMPI PUSH2 0x1276 PUSH2 0x1375 JUMP JUMPDEST PUSH1 0x40 MLOAD PUSH32 0x118CDAA700000000000000000000000000000000000000000000000000000000 DUP2 MSTORE PUSH1 0x4 ADD PUSH2 0x12A9 SWAP2 SWAP1 PUSH2 0x1A4D JUMP JUMPDEST PUSH1 0x40 MLOAD DUP1 SWAP2 SUB SWAP1 REVERT JUMPDEST JUMP JUMPDEST PUSH0 DUP1 PUSH0 SWAP1 SLOAD SWAP1 PUSH2 0x100 EXP SWAP1 DIV PUSH20 0xFFFFFFFFFFFFFFFFFFFFFFFFFFFFFFFFFFFFFFFF AND SWAP1 POP DUP2 PUSH0 DUP1 PUSH2 0x100 EXP DUP2 SLOAD DUP2 PUSH20 0xFFFFFFFFFFFFFFFFFFFFFFFFFFFFFFFFFFFFFFFF MUL NOT AND SWAP1 DUP4 PUSH20 0xFFFFFFFFFFFFFFFFFFFFFFFFFFFFFFFFFFFFFFFF AND MUL OR SWAP1 SSTORE POP DUP2 PUSH20 0xFFFFFFFFFFFFFFFFFFFFFFFFFFFFFFFFFFFFFFFF AND DUP2 PUSH20 0xFFFFFFFFFFFFFFFFFFFFFFFFFFFFFFFFFFFFFFFF AND PUSH32 0x8BE0079C531659141344CD1FD0A4F28419497F9722A3DAAFE3B4186F6B6457E0 PUSH1 0x40 MLOAD PUSH1 0x40 MLOAD DUP1 SWAP2 SUB SWAP1 LOG3 POP POP JUMP JUMPDEST PUSH0 CALLER SWAP1 POP SWAP1 JUMP JUMPDEST POP DUP1 SLOAD PUSH0 DUP3 SSTORE PUSH1 0x5 MUL SWAP1 PUSH0 MSTORE PUSH1 0x20 PUSH0 KECCAK256 SWAP1 DUP2 ADD SWAP1 PUSH2 0x139A SWAP2 SWAP1 PUSH2 0x13DE JUMP JUMPDEST POP JUMP JUMPDEST PUSH1 0x40 MLOAD DUP1 PUSH1 0xA0 ADD PUSH1 0x40 MSTORE DUP1 PUSH0 DUP2 MSTORE PUSH1 0x20 ADD PUSH0 PUSH20 0xFFFFFFFFFFFFFFFFFFFFFFFFFFFFFFFFFFFFFFFF AND DUP2 MSTORE PUSH1 0x20 ADD PUSH1 0x60 DUP2 MSTORE PUSH1 0x20 ADD PUSH0 DUP2 MSTORE PUSH1 0x20 ADD PUSH0 DUP2 MSTORE POP SWAP1 JUMP JUMPDEST JUMPDEST DUP1 DUP3 GT ISZERO PUSH2 0x143A JUMPI PUSH0 DUP1 DUP3 ADD PUSH0 SWAP1 SSTORE PUSH1 0x1 DUP3 ADD PUSH0 PUSH2 0x100 EXP DUP2 SLOAD SWAP1 PUSH20 0xFFFFFFFFFFFFFFFFFFFFFFFFFFFFFFFFFFFFFFFF MUL NOT AND SWAP1 SSTORE PUSH1 0x2 DUP3 ADD PUSH0 PUSH2 0x1423 SWAP2 SWAP1 PUSH2 0x143E JUMP JUMPDEST PUSH1 0x3 DUP3 ADD PUSH0 SWAP1 SSTORE PUSH1 0x4 DUP3 ADD PUSH0 SWAP1 SSTORE POP PUSH1 0x5 ADD PUSH2 0x13DF JUMP JUMPDEST POP SWAP1 JUMP JUMPDEST POP DUP1 SLOAD PUSH2 0x144A SWAP1 PUSH2 0x1C03 JUMP JUMPDEST PUSH0 DUP3 SSTORE DUP1 PUSH1 0x1F LT PUSH2 0x145B JUMPI POP PUSH2 0x1478 JUMP JUMPDEST PUSH1 0x1F ADD PUSH1 0x20 SWAP1 DIV SWAP1 PUSH0 MSTORE PUSH1 0x20 PUSH0 KECCAK256 SWAP1 DUP2 ADD SWAP1 PUSH2 0x1477 SWAP2 SWAP1 PUSH2 0x147B JUMP JUMPDEST JUMPDEST POP JUMP JUMPDEST JUMPDEST DUP1 DUP3 GT ISZERO PUSH2 0x1492 JUMPI PUSH0 DUP2 PUSH0 SWAP1 SSTORE POP PUSH1 0x1 ADD PUSH2 0x147C JUMP JUMPDEST POP SWAP1 JUMP JUMPDEST PUSH0 PUSH1 0x40 MLOAD SWAP1 POP SWAP1 JUMP JUMPDEST PUSH0 DUP1 REVERT JUMPDEST PUSH0 DUP1 REVERT JUMPDEST PUSH0 PUSH20 0xFFFFFFFFFFFFFFFFFFFFFFFFFFFFFFFFFFFFFFFF DUP3 AND SWAP1 POP SWAP2 SWAP1 POP JUMP JUMPDEST PUSH0 PUSH2 0x14D0 DUP3 PUSH2 0x14A7 JUMP JUMPDEST SWAP1 POP SWAP2 SWAP1 POP JUMP JUMPDEST PUSH2 0x14E0 DUP2 PUSH2 0x14C6 JUMP JUMPDEST DUP2 EQ PUSH2 0x14EA JUMPI PUSH0 DUP1 REVERT JUMPDEST POP JUMP JUMPDEST PUSH0 DUP2 CALLDATALOAD SWAP1 POP PUSH2 0x14FB DUP2 PUSH2 0x14D7 JUMP JUMPDEST SWAP3 SWAP2 POP POP JUMP JUMPDEST PUSH0 DUP2 SWAP1 POP SWAP2 SWAP1 POP JUMP JUMPDEST PUSH2 0x1513 DUP2 PUSH2 0x1501 JUMP JUMPDEST DUP2 EQ PUSH2 0x151D JUMPI PUSH0 DUP1 REVERT JUMPDEST POP JUMP JUMPDEST PUSH0 DUP2 CALLDATALOAD SWAP1 POP PUSH2 0x152E DUP2 PUSH2 0x150A JUMP JUMPDEST SWAP3 SWAP2 POP POP JUMP JUMPDEST PUSH0 DUP1 PUSH1 0x40 DUP4 DUP6 SUB SLT ISZERO PUSH2 0x154A JUMPI PUSH2 0x1549 PUSH2 0x149F JUMP JUMPDEST JUMPDEST PUSH0 PUSH2 0x1557 DUP6 DUP3 DUP7 ADD PUSH2 0x14ED JUMP JUMPDEST SWAP3 POP POP PUSH1 0x20 PUSH2 0x1568 DUP6 DUP3 DUP7 ADD PUSH2 0x1520 JUMP JUMPDEST SWAP2 POP POP SWAP3 POP SWAP3 SWAP1 POP JUMP JUMPDEST PUSH2 0x157B DUP2 PUSH2 0x1501 JUMP JUMPDEST DUP3 MSTORE POP POP JUMP JUMPDEST PUSH2 0x158A DUP2 PUSH2 0x14C6 JUMP JUMPDEST DUP3 MSTORE POP POP JUMP JUMPDEST PUSH0 DUP2 MLOAD SWAP1 POP SWAP2 SWAP1 POP JUMP JUMPDEST PUSH0 DUP3 DUP3 MSTORE PUSH1 0x20 DUP3 ADD SWAP1 POP SWAP3 SWAP2 POP POP JUMP JUMPDEST DUP3 DUP2 DUP4 MCOPY PUSH0 DUP4 DUP4 ADD MSTORE POP POP POP JUMP JUMPDEST PUSH0 PUSH1 0x1F NOT PUSH1 0x1F DUP4 ADD AND SWAP1 POP SWAP2 SWAP1 POP JUMP JUMPDEST PUSH0 PUSH2 0x15D2 DUP3 PUSH2 0x1590 JUMP JUMPDEST PUSH2 0x15DC DUP2 DUP6 PUSH2 0x159A JUMP JUMPDEST SWAP4 POP PUSH2 0x15EC DUP2 DUP6 PUSH1 0x20 DUP7 ADD PUSH2 0x15AA JUMP JUMPDEST PUSH2 0x15F5 DUP2 PUSH2 0x15B8 JUMP JUMPDEST DUP5 ADD SWAP2 POP POP SWAP3 SWAP2 POP POP JUMP JUMPDEST PUSH0 PUSH1 0xA0 DUP3 ADD SWAP1 POP PUSH2 0x1613 PUSH0 DUP4 ADD DUP9 PUSH2 0x1572 JUMP JUMPDEST PUSH2 0x1620 PUSH1 0x20 DUP4 ADD DUP8 PUSH2 0x1581 JUMP JUMPDEST DUP2 DUP2 SUB PUSH1 0x40 DUP4 ADD MSTORE PUSH2 0x1632 DUP2 DUP7 PUSH2 0x15C8 JUMP JUMPDEST SWAP1 POP PUSH2 0x1641 PUSH1 0x60 DUP4 ADD DUP6 PUSH2 0x1572 JUMP JUMPDEST PUSH2 0x164E PUSH1 0x80 DUP4 ADD DUP5 PUSH2 0x1572 JUMP JUMPDEST SWAP7 SWAP6 POP POP POP POP POP POP JUMP JUMPDEST PUSH0 PUSH1 0x20 DUP3 DUP5 SUB SLT ISZERO PUSH2 0x166D JUMPI PUSH2 0x166C PUSH2 0x149F JUMP JUMPDEST JUMPDEST PUSH0 PUSH2 0x167A DUP5 DUP3 DUP6 ADD PUSH2 0x14ED JUMP JUMPDEST SWAP2 POP POP SWAP3 SWAP2 POP POP JUMP JUMPDEST PUSH0 DUP2 MLOAD SWAP1 POP SWAP2 SWAP1 POP JUMP JUMPDEST PUSH0 DUP3 DUP3 MSTORE PUSH1 0x20 DUP3 ADD SWAP1 POP SWAP3 SWAP2 POP POP JUMP JUMPDEST PUSH0 DUP2 SWAP1 POP PUSH1 0x20 DUP3 ADD SWAP1 POP SWAP2 SWAP1 POP JUMP JUMPDEST PUSH2 0x16B5 DUP2 PUSH2 0x1501 JUMP JUMPDEST DUP3 MSTORE POP POP JUMP JUMPDEST PUSH2 0x16C4 DUP2 PUSH2 0x14C6 JUMP JUMPDEST DUP3 MSTORE POP POP JUMP JUMPDEST PUSH0 DUP3 DUP3 MSTORE PUSH1 0x20 DUP3 ADD SWAP1 POP SWAP3 SWAP2 POP POP JUMP JUMPDEST PUSH0 PUSH2 0x16E4 DUP3 PUSH2 0x1590 JUMP JUMPDEST PUSH2 0x16EE DUP2 DUP6 PUSH2 0x16CA JUMP JUMPDEST SWAP4 POP PUSH2 0x16FE DUP2 DUP6 PUSH1 0x20 DUP7 ADD PUSH2 0x15AA JUMP JUMPDEST PUSH2 0x1707 DUP2 PUSH2 0x15B8 JUMP JUMPDEST DUP5 ADD SWAP2 POP POP SWAP3 SWAP2 POP POP JUMP JUMPDEST PUSH0 PUSH1 0xA0 DUP4 ADD PUSH0 DUP4 ADD MLOAD PUSH2 0x1727 PUSH0 DUP7 ADD DUP3 PUSH2 0x16AC JUMP JUMPDEST POP PUSH1 0x20 DUP4 ADD MLOAD PUSH2 0x173A PUSH1 0x20 DUP7 ADD DUP3 PUSH2 0x16BB JUMP JUMPDEST POP PUSH1 0x40 DUP4 ADD MLOAD DUP5 DUP3 SUB PUSH1 0x40 DUP7 ADD MSTORE PUSH2 0x1752 DUP3 DUP3 PUSH2 0x16DA JUMP JUMPDEST SWAP2 POP POP PUSH1 0x60 DUP4 ADD MLOAD PUSH2 0x1767 PUSH1 0x60 DUP7 ADD DUP3 PUSH2 0x16AC JUMP JUMPDEST POP PUSH1 0x80 DUP4 ADD MLOAD PUSH2 0x177A PUSH1 0x80 DUP7 ADD DUP3 PUSH2 0x16AC JUMP JUMPDEST POP DUP1 SWAP2 POP POP SWAP3 SWAP2 POP POP JUMP JUMPDEST PUSH0 PUSH2 0x1790 DUP4 DUP4 PUSH2 0x1712 JUMP JUMPDEST SWAP1 POP SWAP3 SWAP2 POP POP JUMP JUMPDEST PUSH0 PUSH1 0x20 DUP3 ADD SWAP1 POP SWAP2 SWAP1 POP JUMP JUMPDEST PUSH0 PUSH2 0x17AE DUP3 PUSH2 0x1683 JUMP JUMPDEST PUSH2 0x17B8 DUP2 DUP6 PUSH2 0x168D JUMP JUMPDEST SWAP4 POP DUP4 PUSH1 0x20 DUP3 MUL DUP6 ADD PUSH2 0x17CA DUP6 PUSH2 0x169D JUMP JUMPDEST DUP1 PUSH0 JUMPDEST DUP6 DUP2 LT ISZERO PUSH2 0x1805 JUMPI DUP5 DUP5 SUB DUP10 MSTORE DUP2 MLOAD PUSH2 0x17E6 DUP6 DUP3 PUSH2 0x1785 JUMP JUMPDEST SWAP5 POP PUSH2 0x17F1 DUP4 PUSH2 0x1798 JUMP JUMPDEST SWAP3 POP PUSH1 0x20 DUP11 ADD SWAP10 POP POP PUSH1 0x1 DUP2 ADD SWAP1 POP PUSH2 0x17CD JUMP JUMPDEST POP DUP3 SWAP8 POP DUP8 SWAP6 POP POP POP POP POP POP SWAP3 SWAP2 POP POP JUMP JUMPDEST PUSH0 PUSH1 0x20 DUP3 ADD SWAP1 POP DUP2 DUP2 SUB PUSH0 DUP4 ADD MSTORE PUSH2 0x182F DUP2 DUP5 PUSH2 0x17A4 JUMP JUMPDEST SWAP1 POP SWAP3 SWAP2 POP POP JUMP JUMPDEST PUSH0 PUSH2 0xFFFF DUP3 AND SWAP1 POP SWAP2 SWAP1 POP JUMP JUMPDEST PUSH2 0x184D DUP2 PUSH2 0x1837 JUMP JUMPDEST DUP2 EQ PUSH2 0x1857 JUMPI PUSH0 DUP1 REVERT JUMPDEST POP JUMP JUMPDEST PUSH0 DUP2 CALLDATALOAD SWAP1 POP PUSH2 0x1868 DUP2 PUSH2 0x1844 JUMP JUMPDEST SWAP3 SWAP2 POP POP JUMP JUMPDEST PUSH0 PUSH1 0x20 DUP3 DUP5 SUB SLT ISZERO PUSH2 0x1883 JUMPI PUSH2 0x1882 PUSH2 0x149F JUMP JUMPDEST JUMPDEST PUSH0 PUSH2 0x1890 DUP5 DUP3 DUP6 ADD PUSH2 0x185A JUMP JUMPDEST SWAP2 POP POP SWAP3 SWAP2 POP POP JUMP JUMPDEST PUSH2 0x18A2 DUP2 PUSH2 0x1837 JUMP JUMPDEST DUP3 MSTORE POP POP JUMP JUMPDEST PUSH0 PUSH1 0x20 DUP3 ADD SWAP1 POP PUSH2 0x18BB PUSH0 DUP4 ADD DUP5 PUSH2 0x1899 JUMP JUMPDEST SWAP3 SWAP2 POP POP JUMP JUMPDEST PUSH0 DUP1 REVERT JUMPDEST PUSH0 DUP1 REVERT JUMPDEST PUSH32 0x4E487B7100000000000000000000000000000000000000000000000000000000 PUSH0 MSTORE PUSH1 0x41 PUSH1 0x4 MSTORE PUSH1 0x24 PUSH0 REVERT JUMPDEST PUSH2 0x18FF DUP3 PUSH2 0x15B8 JUMP JUMPDEST DUP2 ADD DUP2 DUP2 LT PUSH8 0xFFFFFFFFFFFFFFFF DUP3 GT OR ISZERO PUSH2 0x191E JUMPI PUSH2 0x191D PUSH2 0x18C9 JUMP JUMPDEST JUMPDEST DUP1 PUSH1 0x40 MSTORE POP POP POP JUMP JUMPDEST PUSH0 PUSH2 0x1930 PUSH2 0x1496 JUMP JUMPDEST SWAP1 POP PUSH2 0x193C DUP3 DUP3 PUSH2 0x18F6 JUMP JUMPDEST SWAP2 SWAP1 POP JUMP JUMPDEST PUSH0 PUSH8 0xFFFFFFFFFFFFFFFF DUP3 GT ISZERO PUSH2 0x195B JUMPI PUSH2 0x195A PUSH2 0x18C9 JUMP JUMPDEST JUMPDEST PUSH2 0x1964 DUP3 PUSH2 0x15B8 JUMP JUMPDEST SWAP1 POP PUSH1 0x20 DUP2 ADD SWAP1 POP SWAP2 SWAP1 POP JUMP JUMPDEST DUP3 DUP2 DUP4 CALLDATACOPY PUSH0 DUP4 DUP4 ADD MSTORE POP POP POP JUMP JUMPDEST PUSH0 PUSH2 0x1991 PUSH2 0x198C DUP5 PUSH2 0x1941 JUMP JUMPDEST PUSH2 0x1927 JUMP JUMPDEST SWAP1 POP DUP3 DUP2 MSTORE PUSH1 0x20 DUP2 ADD DUP5 DUP5 DUP5 ADD GT ISZERO PUSH2 0x19AD JUMPI PUSH2 0x19AC PUSH2 0x18C5 JUMP JUMPDEST JUMPDEST PUSH2 0x19B8 DUP5 DUP3 DUP6 PUSH2 0x1971 JUMP JUMPDEST POP SWAP4 SWAP3 POP POP POP JUMP JUMPDEST PUSH0 DUP3 PUSH1 0x1F DUP4 ADD SLT PUSH2 0x19D4 JUMPI PUSH2 0x19D3 PUSH2 0x18C1 JUMP JUMPDEST JUMPDEST DUP2 CALLDATALOAD PUSH2 0x19E4 DUP5 DUP3 PUSH1 0x20 DUP7 ADD PUSH2 0x197F JUMP JUMPDEST SWAP2 POP POP SWAP3 SWAP2 POP POP JUMP JUMPDEST PUSH0 PUSH1 0x20 DUP3 DUP5 SUB SLT ISZERO PUSH2 0x1A02 JUMPI PUSH2 0x1A01 PUSH2 0x149F JUMP JUMPDEST JUMPDEST PUSH0 DUP3 ADD CALLDATALOAD PUSH8 0xFFFFFFFFFFFFFFFF DUP2 GT ISZERO PUSH2 0x1A1F JUMPI PUSH2 0x1A1E PUSH2 0x14A3 JUMP JUMPDEST JUMPDEST PUSH2 0x1A2B DUP5 DUP3 DUP6 ADD PUSH2 0x19C0 JUMP JUMPDEST SWAP2 POP POP SWAP3 SWAP2 POP POP JUMP JUMPDEST PUSH0 PUSH1 0x20 DUP3 ADD SWAP1 POP PUSH2 0x1A47 PUSH0 DUP4 ADD DUP5 PUSH2 0x1572 JUMP JUMPDEST SWAP3 SWAP2 POP POP JUMP JUMPDEST PUSH0 PUSH1 0x20 DUP3 ADD SWAP1 POP PUSH2 0x1A60 PUSH0 DUP4 ADD DUP5 PUSH2 0x1581 JUMP JUMPDEST SWAP3 SWAP2 POP POP JUMP JUMPDEST PUSH0 DUP1 PUSH1 0x40 DUP4 DUP6 SUB SLT ISZERO PUSH2 0x1A7C JUMPI PUSH2 0x1A7B PUSH2 0x149F JUMP JUMPDEST JUMPDEST PUSH0 PUSH2 0x1A89 DUP6 DUP3 DUP7 ADD PUSH2 0x1520 JUMP JUMPDEST SWAP3 POP POP PUSH1 0x20 PUSH2 0x1A9A DUP6 DUP3 DUP7 ADD PUSH2 0x14ED JUMP JUMPDEST SWAP2 POP POP SWAP3 POP SWAP3 SWAP1 POP JUMP JUMPDEST PUSH0 DUP2 SWAP1 POP SWAP2 SWAP1 POP JUMP JUMPDEST PUSH0 PUSH2 0x1AC7 PUSH2 0x1AC2 PUSH2 0x1ABD DUP5 PUSH2 0x14A7 JUMP JUMPDEST PUSH2 0x1AA4 JUMP JUMPDEST PUSH2 0x14A7 JUMP JUMPDEST SWAP1 POP SWAP2 SWAP1 POP JUMP JUMPDEST PUSH0 PUSH2 0x1AD8 DUP3 PUSH2 0x1AAD JUMP JUMPDEST SWAP1 POP SWAP2 SWAP1 POP JUMP JUMPDEST PUSH0 PUSH2 0x1AE9 DUP3 PUSH2 0x1ACE JUMP JUMPDEST SWAP1 POP SWAP2 SWAP1 POP JUMP JUMPDEST PUSH2 0x1AF9 DUP2 PUSH2 0x1ADF JUMP JUMPDEST DUP3 MSTORE POP POP JUMP JUMPDEST PUSH0 PUSH1 0x20 DUP3 ADD SWAP1 POP PUSH2 0x1B12 PUSH0 DUP4 ADD DUP5 PUSH2 0x1AF0 JUMP JUMPDEST SWAP3 SWAP2 POP POP JUMP JUMPDEST PUSH0 PUSH1 0x20 DUP3 DUP5 SUB SLT ISZERO PUSH2 0x1B2D JUMPI PUSH2 0x1B2C PUSH2 0x149F JUMP JUMPDEST JUMPDEST PUSH0 PUSH2 0x1B3A DUP5 DUP3 DUP6 ADD PUSH2 0x1520 JUMP JUMPDEST SWAP2 POP POP SWAP3 SWAP2 POP POP JUMP JUMPDEST PUSH0 PUSH1 0xA0 DUP4 ADD PUSH0 DUP4 ADD MLOAD PUSH2 0x1B58 PUSH0 DUP7 ADD DUP3 PUSH2 0x16AC JUMP JUMPDEST POP PUSH1 0x20 DUP4 ADD MLOAD PUSH2 0x1B6B PUSH1 0x20 DUP7 ADD DUP3 PUSH2 0x16BB JUMP JUMPDEST POP PUSH1 0x40 DUP4 ADD MLOAD DUP5 DUP3 SUB PUSH1 0x40 DUP7 ADD MSTORE PUSH2 0x1B83 DUP3 DUP3 PUSH2 0x16DA JUMP JUMPDEST SWAP2 POP POP PUSH1 0x60 DUP4 ADD MLOAD PUSH2 0x1B98 PUSH1 0x60 DUP7 ADD DUP3 PUSH2 0x16AC JUMP JUMPDEST POP PUSH1 0x80 DUP4 ADD MLOAD PUSH2 0x1BAB PUSH1 0x80 DUP7 ADD DUP3 PUSH2 0x16AC JUMP JUMPDEST POP DUP1 SWAP2 POP POP SWAP3 SWAP2 POP POP JUMP JUMPDEST PUSH0 PUSH1 0x20 DUP3 ADD SWAP1 POP DUP2 DUP2 SUB PUSH0 DUP4 ADD MSTORE PUSH2 0x1BCE DUP2 DUP5 PUSH2 0x1B43 JUMP JUMPDEST SWAP1 POP SWAP3 SWAP2 POP POP JUMP JUMPDEST PUSH32 0x4E487B7100000000000000000000000000000000000000000000000000000000 PUSH0 MSTORE PUSH1 0x22 PUSH1 0x4 MSTORE PUSH1 0x24 PUSH0 REVERT JUMPDEST PUSH0 PUSH1 0x2 DUP3 DIV SWAP1 POP PUSH1 0x1 DUP3 AND DUP1 PUSH2 0x1C1A JUMPI PUSH1 0x7F DUP3 AND SWAP2 POP JUMPDEST PUSH1 0x20 DUP3 LT DUP2 SUB PUSH2 0x1C2D JUMPI PUSH2 0x1C2C PUSH2 0x1BD6 JUMP JUMPDEST JUMPDEST POP SWAP2 SWAP1 POP JUMP JUMPDEST PUSH0 DUP1 REVERT JUMPDEST PUSH0 DUP1 REVERT JUMPDEST PUSH0 PUSH2 0x1C4D PUSH2 0x1C48 DUP5 PUSH2 0x1941 JUMP JUMPDEST PUSH2 0x1927 JUMP JUMPDEST SWAP1 POP DUP3 DUP2 MSTORE PUSH1 0x20 DUP2 ADD DUP5 DUP5 DUP5 ADD GT ISZERO PUSH2 0x1C69 JUMPI PUSH2 0x1C68 PUSH2 0x18C5 JUMP JUMPDEST JUMPDEST PUSH2 0x1C74 DUP5 DUP3 DUP6 PUSH2 0x15AA JUMP JUMPDEST POP SWAP4 SWAP3 POP POP POP JUMP JUMPDEST PUSH0 DUP3 PUSH1 0x1F DUP4 ADD SLT PUSH2 0x1C90 JUMPI PUSH2 0x1C8F PUSH2 0x18C1 JUMP JUMPDEST JUMPDEST DUP2 MLOAD PUSH2 0x1CA0 DUP5 DUP3 PUSH1 0x20 DUP7 ADD PUSH2 0x1C3B JUMP JUMPDEST SWAP2 POP POP SWAP3 SWAP2 POP POP JUMP JUMPDEST PUSH0 PUSH1 0x40 DUP3 DUP5 SUB SLT ISZERO PUSH2 0x1CBE JUMPI PUSH2 0x1CBD PUSH2 0x1C33 JUMP JUMPDEST JUMPDEST PUSH2 0x1CC8 PUSH1 0x40 PUSH2 0x1927 JUMP JUMPDEST SWAP1 POP PUSH0 DUP3 ADD MLOAD PUSH8 0xFFFFFFFFFFFFFFFF DUP2 GT ISZERO PUSH2 0x1CE7 JUMPI PUSH2 0x1CE6 PUSH2 0x1C37 JUMP JUMPDEST JUMPDEST PUSH2 0x1CF3 DUP5 DUP3 DUP6 ADD PUSH2 0x1C7C JUMP JUMPDEST PUSH0 DUP4 ADD MSTORE POP PUSH1 0x20 DUP3 ADD MLOAD PUSH8 0xFFFFFFFFFFFFFFFF DUP2 GT ISZERO PUSH2 0x1D16 JUMPI PUSH2 0x1D15 PUSH2 0x1C37 JUMP JUMPDEST JUMPDEST PUSH2 0x1D22 DUP5 DUP3 DUP6 ADD PUSH2 0x1C7C JUMP JUMPDEST PUSH1 0x20 DUP4 ADD MSTORE POP SWAP3 SWAP2 POP POP JUMP JUMPDEST PUSH0 PUSH1 0x20 DUP3 DUP5 SUB SLT ISZERO PUSH2 0x1D43 JUMPI PUSH2 0x1D42 PUSH2 0x149F JUMP JUMPDEST JUMPDEST PUSH0 DUP3 ADD MLOAD PUSH8 0xFFFFFFFFFFFFFFFF DUP2 GT ISZERO PUSH2 0x1D60 JUMPI PUSH2 0x1D5F PUSH2 0x14A3 JUMP JUMPDEST JUMPDEST PUSH2 0x1D6C DUP5 DUP3 DUP6 ADD PUSH2 0x1CA9 JUMP JUMPDEST SWAP2 POP POP SWAP3 SWAP2 POP POP JUMP JUMPDEST PUSH32 0x55534552204E4F54205245474953544552454400000000000000000000000000 PUSH0 DUP3 ADD MSTORE POP JUMP JUMPDEST PUSH0 PUSH2 0x1DA9 PUSH1 0x13 DUP4 PUSH2 0x159A JUMP JUMPDEST SWAP2 POP PUSH2 0x1DB4 DUP3 PUSH2 0x1D75 JUMP JUMPDEST PUSH1 0x20 DUP3 ADD SWAP1 POP SWAP2 SWAP1 POP JUMP JUMPDEST PUSH0 PUSH1 0x20 DUP3 ADD SWAP1 POP DUP2 DUP2 SUB PUSH0 DUP4 ADD MSTORE PUSH2 0x1DD6 DUP2 PUSH2 0x1D9D JUMP JUMPDEST SWAP1 POP SWAP2 SWAP1 POP JUMP JUMPDEST PUSH32 0x547765657420697320746F206C6F6E672C206D61782032383020636861726163 PUSH0 DUP3 ADD MSTORE PUSH32 0x7465727300000000000000000000000000000000000000000000000000000000 PUSH1 0x20 DUP3 ADD MSTORE POP JUMP JUMPDEST PUSH0 PUSH2 0x1E37 PUSH1 0x24 DUP4 PUSH2 0x159A JUMP JUMPDEST SWAP2 POP PUSH2 0x1E42 DUP3 PUSH2 0x1DDD JUMP JUMPDEST PUSH1 0x40 DUP3 ADD SWAP1 POP SWAP2 SWAP1 POP JUMP JUMPDEST PUSH0 PUSH1 0x20 DUP3 ADD SWAP1 POP DUP2 DUP2 SUB PUSH0 DUP4 ADD MSTORE PUSH2 0x1E64 DUP2 PUSH2 0x1E2B JUMP JUMPDEST SWAP1 POP SWAP2 SWAP1 POP JUMP JUMPDEST PUSH0 DUP2 SWAP1 POP DUP2 PUSH0 MSTORE PUSH1 0x20 PUSH0 KECCAK256 SWAP1 POP SWAP2 SWAP1 POP JUMP JUMPDEST PUSH0 PUSH1 0x20 PUSH1 0x1F DUP4 ADD DIV SWAP1 POP SWAP2 SWAP1 POP JUMP JUMPDEST PUSH0 DUP3 DUP3 SHL SWAP1 POP SWAP3 SWAP2 POP POP JUMP JUMPDEST PUSH0 PUSH1 0x8 DUP4 MUL PUSH2 0x1EC7 PUSH32 0xFFFFFFFFFFFFFFFFFFFFFFFFFFFFFFFFFFFFFFFFFFFFFFFFFFFFFFFFFFFFFFFF DUP3 PUSH2 0x1E8C JUMP JUMPDEST PUSH2 0x1ED1 DUP7 DUP4 PUSH2 0x1E8C JUMP JUMPDEST SWAP6 POP DUP1 NOT DUP5 AND SWAP4 POP DUP1 DUP7 AND DUP5 OR SWAP3 POP POP POP SWAP4 SWAP3 POP POP POP JUMP JUMPDEST PUSH0 PUSH2 0x1F03 PUSH2 0x1EFE PUSH2 0x1EF9 DUP5 PUSH2 0x1501 JUMP JUMPDEST PUSH2 0x1AA4 JUMP JUMPDEST PUSH2 0x1501 JUMP JUMPDEST SWAP1 POP SWAP2 SWAP1 POP JUMP JUMPDEST PUSH0 DUP2 SWAP1 POP SWAP2 SWAP1 POP JUMP JUMPDEST PUSH2 0x1F1C DUP4 PUSH2 0x1EE9 JUMP JUMPDEST PUSH2 0x1F30 PUSH2 0x1F28 DUP3 PUSH2 0x1F0A JUMP JUMPDEST DUP5 DUP5 SLOAD PUSH2 0x1E98 JUMP JUMPDEST DUP3 SSTORE POP POP POP POP JUMP JUMPDEST PUSH0 SWAP1 JUMP JUMPDEST PUSH2 0x1F44 PUSH2 0x1F38 JUMP JUMPDEST PUSH2 0x1F4F DUP2 DUP5 DUP5 PUSH2 0x1F13 JUMP JUMPDEST POP POP POP JUMP JUMPDEST JUMPDEST DUP2 DUP2 LT ISZERO PUSH2 0x1F72 JUMPI PUSH2 0x1F67 PUSH0 DUP3 PUSH2 0x1F3C JUMP JUMPDEST PUSH1 0x1 DUP2 ADD SWAP1 POP PUSH2 0x1F55 JUMP JUMPDEST POP POP JUMP JUMPDEST PUSH1 0x1F DUP3 GT ISZERO PUSH2 0x1FB7 JUMPI PUSH2 0x1F88 DUP2 PUSH2 0x1E6B JUMP JUMPDEST PUSH2 0x1F91 DUP5 PUSH2 0x1E7D JUMP JUMPDEST DUP2 ADD PUSH1 0x20 DUP6 LT ISZERO PUSH2 0x1FA0 JUMPI DUP2 SWAP1 POP JUMPDEST PUSH2 0x1FB4 PUSH2 0x1FAC DUP6 PUSH2 0x1E7D JUMP JUMPDEST DUP4 ADD DUP3 PUSH2 0x1F54 JUMP JUMPDEST POP POP JUMPDEST POP POP POP JUMP JUMPDEST PUSH0 DUP3 DUP3 SHR SWAP1 POP SWAP3 SWAP2 POP POP JUMP JUMPDEST PUSH0 PUSH2 0x1FD7 PUSH0 NOT DUP5 PUSH1 0x8 MUL PUSH2 0x1FBC JUMP JUMPDEST NOT DUP1 DUP4 AND SWAP2 POP POP SWAP3 SWAP2 POP POP JUMP JUMPDEST PUSH0 PUSH2 0x1FEF DUP4 DUP4 PUSH2 0x1FC8 JUMP JUMPDEST SWAP2 POP DUP3 PUSH1 0x2 MUL DUP3 OR SWAP1 POP SWAP3 SWAP2 POP POP JUMP JUMPDEST PUSH2 0x2008 DUP3 PUSH2 0x1590 JUMP JUMPDEST PUSH8 0xFFFFFFFFFFFFFFFF DUP2 GT ISZERO PUSH2 0x2021 JUMPI PUSH2 0x2020 PUSH2 0x18C9 JUMP JUMPDEST JUMPDEST PUSH2 0x202B DUP3 SLOAD PUSH2 0x1C03 JUMP JUMPDEST PUSH2 0x2036 DUP3 DUP3 DUP6 PUSH2 0x1F76 JUMP JUMPDEST PUSH0 PUSH1 0x20 SWAP1 POP PUSH1 0x1F DUP4 GT PUSH1 0x1 DUP2 EQ PUSH2 0x2067 JUMPI PUSH0 DUP5 ISZERO PUSH2 0x2055 JUMPI DUP3 DUP8 ADD MLOAD SWAP1 POP JUMPDEST PUSH2 0x205F DUP6 DUP3 PUSH2 0x1FE4 JUMP JUMPDEST DUP7 SSTORE POP PUSH2 0x20C6 JUMP JUMPDEST PUSH1 0x1F NOT DUP5 AND PUSH2 0x2075 DUP7 PUSH2 0x1E6B JUMP JUMPDEST PUSH0 JUMPDEST DUP3 DUP2 LT ISZERO PUSH2 0x209C JUMPI DUP5 DUP10 ADD MLOAD DUP3 SSTORE PUSH1 0x1 DUP3 ADD SWAP2 POP PUSH1 0x20 DUP6 ADD SWAP5 POP PUSH1 0x20 DUP2 ADD SWAP1 POP PUSH2 0x2077 JUMP JUMPDEST DUP7 DUP4 LT ISZERO PUSH2 0x20B9 JUMPI DUP5 DUP10 ADD MLOAD PUSH2 0x20B5 PUSH1 0x1F DUP10 AND DUP3 PUSH2 0x1FC8 JUMP JUMPDEST DUP4 SSTORE POP JUMPDEST PUSH1 0x1 PUSH1 0x2 DUP9 MUL ADD DUP9 SSTORE POP POP POP JUMPDEST POP POP POP POP POP POP JUMP JUMPDEST PUSH0 PUSH1 0x60 DUP3 ADD SWAP1 POP PUSH2 0x20E1 PUSH0 DUP4 ADD DUP7 PUSH2 0x1581 JUMP JUMPDEST DUP2 DUP2 SUB PUSH1 0x20 DUP4 ADD MSTORE PUSH2 0x20F3 DUP2 DUP6 PUSH2 0x15C8 JUMP JUMPDEST SWAP1 POP PUSH2 0x2102 PUSH1 0x40 DUP4 ADD DUP5 PUSH2 0x1572 JUMP JUMPDEST SWAP5 SWAP4 POP POP POP POP JUMP JUMPDEST PUSH32 0x4E487B7100000000000000000000000000000000000000000000000000000000 PUSH0 MSTORE PUSH1 0x32 PUSH1 0x4 MSTORE PUSH1 0x24 PUSH0 REVERT JUMPDEST PUSH32 0x4E487B7100000000000000000000000000000000000000000000000000000000 PUSH0 MSTORE PUSH1 0x11 PUSH1 0x4 MSTORE PUSH1 0x24 PUSH0 REVERT JUMPDEST PUSH0 PUSH2 0x216E DUP3 PUSH2 0x1501 JUMP JUMPDEST SWAP2 POP PUSH2 0x2179 DUP4 PUSH2 0x1501 JUMP JUMPDEST SWAP3 POP DUP3 DUP3 ADD SWAP1 POP DUP1 DUP3 GT ISZERO PUSH2 0x2191 JUMPI PUSH2 0x2190 PUSH2 0x2137 JUMP JUMPDEST JUMPDEST SWAP3 SWAP2 POP POP JUMP JUMPDEST PUSH32 0x545745455420444F4553204E4F54204558495354000000000000000000000000 PUSH0 DUP3 ADD MSTORE POP JUMP JUMPDEST PUSH0 PUSH2 0x21CB PUSH1 0x14 DUP4 PUSH2 0x159A JUMP JUMPDEST SWAP2 POP PUSH2 0x21D6 DUP3 PUSH2 0x2197 JUMP JUMPDEST PUSH1 0x20 DUP3 ADD SWAP1 POP SWAP2 SWAP1 POP JUMP JUMPDEST PUSH0 PUSH1 0x20 DUP3 ADD SWAP1 POP DUP2 DUP2 SUB PUSH0 DUP4 ADD MSTORE PUSH2 0x21F8 DUP2 PUSH2 0x21BF JUMP JUMPDEST SWAP1 POP SWAP2 SWAP1 POP JUMP JUMPDEST PUSH32 0x545745455420444F4553204E4F54204C494B4544000000000000000000000000 PUSH0 DUP3 ADD MSTORE POP JUMP JUMPDEST PUSH0 PUSH2 0x2233 PUSH1 0x14 DUP4 PUSH2 0x159A JUMP JUMPDEST SWAP2 POP PUSH2 0x223E DUP3 PUSH2 0x21FF JUMP JUMPDEST PUSH1 0x20 DUP3 ADD SWAP1 POP SWAP2 SWAP1 POP JUMP JUMPDEST PUSH0 PUSH1 0x20 DUP3 ADD SWAP1 POP DUP2 DUP2 SUB PUSH0 DUP4 ADD MSTORE PUSH2 0x2260 DUP2 PUSH2 0x2227 JUMP JUMPDEST SWAP1 POP SWAP2 SWAP1 POP JUMP JUMPDEST PUSH0 PUSH2 0x2271 DUP3 PUSH2 0x1501 JUMP JUMPDEST SWAP2 POP PUSH0 DUP3 SUB PUSH2 0x2283 JUMPI PUSH2 0x2282 PUSH2 0x2137 JUMP JUMPDEST JUMPDEST PUSH1 0x1 DUP3 SUB SWAP1 POP SWAP2 SWAP1 POP JUMP JUMPDEST PUSH0 PUSH1 0x80 DUP3 ADD SWAP1 POP PUSH2 0x22A1 PUSH0 DUP4 ADD DUP8 PUSH2 0x1581 JUMP JUMPDEST PUSH2 0x22AE PUSH1 0x20 DUP4 ADD DUP7 PUSH2 0x1581 JUMP JUMPDEST PUSH2 0x22BB PUSH1 0x40 DUP4 ADD DUP6 PUSH2 0x1572 JUMP JUMPDEST PUSH2 0x22C8 PUSH1 0x60 DUP4 ADD DUP5 PUSH2 0x1572 JUMP JUMPDEST SWAP6 SWAP5 POP POP POP POP POP JUMP JUMPDEST PUSH0 PUSH2 0x22DB DUP3 PUSH2 0x1501 JUMP JUMPDEST SWAP2 POP PUSH32 0xFFFFFFFFFFFFFFFFFFFFFFFFFFFFFFFFFFFFFFFFFFFFFFFFFFFFFFFFFFFFFFFF DUP3 SUB PUSH2 0x230D JUMPI PUSH2 0x230C PUSH2 0x2137 JUMP JUMPDEST JUMPDEST PUSH1 0x1 DUP3 ADD SWAP1 POP SWAP2 SWAP1 POP JUMP JUMPDEST PUSH32 0x496E76616C696420747765657420696E64657800000000000000000000000000 PUSH0 DUP3 ADD MSTORE POP JUMP JUMPDEST PUSH0 PUSH2 0x234C PUSH1 0x13 DUP4 PUSH2 0x159A JUMP JUMPDEST SWAP2 POP PUSH2 0x2357 DUP3 PUSH2 0x2318 JUMP JUMPDEST PUSH1 0x20 DUP3 ADD SWAP1 POP SWAP2 SWAP1 POP JUMP JUMPDEST PUSH0 PUSH1 0x20 DUP3 ADD SWAP1 POP DUP2 DUP2 SUB PUSH0 DUP4 ADD MSTORE PUSH2 0x2379 DUP2 PUSH2 0x2340 JUMP JUMPDEST SWAP1 POP SWAP2 SWAP1 POP JUMP INVALID LOG2 PUSH5 0x6970667358 0x22 SLT KECCAK256 0xEB MSTORE PUSH8 0xAAE91CD8D383DEC1 0xC8 0xBC 0xA8 SWAP16 CREATE2 0xD7 0xDE 0xFB 0xA9 0xC3 0xE3 0xDC SHL ADDMOD 0xC5 SELFBALANCE 0xBC JUMPI 0xB8 EXTCODEHASH PUSH27 0x64736F6C634300081A003300000000000000000000000000000000 "
				},
				"gasEstimates": {
					"creation": {
						"codeDepositCost": "1828400",
						"executionCost": "infinite",
						"totalCost": "infinite"
					},
					"external": {
						"MAX_TWEET_LENGTH()": "2511",
						"changedTweetLength(uint16)": "infinite",
						"createTweet(string)": "infinite",
						"deleteTweet(address)": "infinite",
						"getAllTweets(address)": "infinite",
						"getTotalLikes(address)": "infinite",
						"getTweets(uint256)": "infinite",
						"likeTweet(uint256,address)": "infinite",
						"owner()": "2560",
						"profileContract()": "infinite",
						"renounceOwnership()": "infinite",
						"transferOwnership(address)": "infinite",
						"tweets(address,uint256)": "infinite",
						"unlikeTweet(uint256,address)": "infinite"
					}
				},
				"methodIdentifiers": {
					"MAX_TWEET_LENGTH()": "6eb10797",
					"changedTweetLength(uint16)": "6d003c01",
					"createTweet(string)": "7c9cd2bc",
					"deleteTweet(address)": "20f7e65c",
					"getAllTweets(address)": "12e7ee1c",
					"getTotalLikes(address)": "820785cc",
					"getTweets(uint256)": "ed9bb8d7",
					"likeTweet(uint256,address)": "d04ddaa0",
					"owner()": "8da5cb5b",
					"profileContract()": "a3974b21",
					"renounceOwnership()": "715018a6",
					"transferOwnership(address)": "f2fde38b",
					"tweets(address,uint256)": "05a1b4a9",
					"unlikeTweet(uint256,address)": "a1488f7c"
				}
			},
			"storageLayout": {
				"storage": [
					{
						"astId": 8,
						"contract": "contracts/Twitter.sol:Twitter",
						"label": "_owner",
						"offset": 0,
						"slot": "0",
						"type": "t_address"
					},
					{
						"astId": 232,
						"contract": "contracts/Twitter.sol:Twitter",
						"label": "tweets",
						"offset": 0,
						"slot": "1",
						"type": "t_mapping(t_address,t_array(t_struct(Tweet)249_storage)dyn_storage)"
					},
					{
						"astId": 235,
						"contract": "contracts/Twitter.sol:Twitter",
						"label": "MAX_TWEET_LENGTH",
						"offset": 0,
						"slot": "2",
						"type": "t_uint16"
					},
					{
						"astId": 238,
						"contract": "contracts/Twitter.sol:Twitter",
						"label": "profileContract",
						"offset": 2,
						"slot": "2",
						"type": "t_contract(IProfile)194"
					}
				],
				"types": {
					"t_address": {
						"encoding": "inplace",
						"label": "address",
						"numberOfBytes": "20"
					},
					"t_array(t_struct(Tweet)249_storage)dyn_storage": {
						"base": "t_struct(Tweet)249_storage",
						"encoding": "dynamic_array",
						"label": "struct Twitter.Tweet[]",
						"numberOfBytes": "32"
					},
					"t_contract(IProfile)194": {
						"encoding": "inplace",
						"label": "contract IProfile",
						"numberOfBytes": "20"
					},
					"t_mapping(t_address,t_array(t_struct(Tweet)249_storage)dyn_storage)": {
						"encoding": "mapping",
						"key": "t_address",
						"label": "mapping(address => struct Twitter.Tweet[])",
						"numberOfBytes": "32",
						"value": "t_array(t_struct(Tweet)249_storage)dyn_storage"
					},
					"t_string_storage": {
						"encoding": "bytes",
						"label": "string",
						"numberOfBytes": "32"
					},
					"t_struct(Tweet)249_storage": {
						"encoding": "inplace",
						"label": "struct Twitter.Tweet",
						"members": [
							{
								"astId": 240,
								"contract": "contracts/Twitter.sol:Twitter",
								"label": "id",
								"offset": 0,
								"slot": "0",
								"type": "t_uint256"
							},
							{
								"astId": 242,
								"contract": "contracts/Twitter.sol:Twitter",
								"label": "author",
								"offset": 0,
								"slot": "1",
								"type": "t_address"
							},
							{
								"astId": 244,
								"contract": "contracts/Twitter.sol:Twitter",
								"label": "content",
								"offset": 0,
								"slot": "2",
								"type": "t_string_storage"
							},
							{
								"astId": 246,
								"contract": "contracts/Twitter.sol:Twitter",
								"label": "timestamp",
								"offset": 0,
								"slot": "3",
								"type": "t_uint256"
							},
							{
								"astId": 248,
								"contract": "contracts/Twitter.sol:Twitter",
								"label": "likes",
								"offset": 0,
								"slot": "4",
								"type": "t_uint256"
							}
						],
						"numberOfBytes": "160"
					},
					"t_uint16": {
						"encoding": "inplace",
						"label": "uint16",
						"numberOfBytes": "2"
					},
					"t_uint256": {
						"encoding": "inplace",
						"label": "uint256",
						"numberOfBytes": "32"
					}
				}
			},
			"userdoc": {
				"kind": "user",
				"methods": {},
				"version": 1
			}
		}
	}
}