{
	"contracts/Twitter.sol": {
		"Twitter": {
			"abi": [
				{
					"inputs": [],
					"stateMutability": "nonpayable",
					"type": "constructor"
				},
				{
					"anonymous": false,
					"inputs": [
						{
							"indexed": true,
							"internalType": "uint256",
							"name": "id",
							"type": "uint256"
						},
						{
							"indexed": false,
							"internalType": "address",
							"name": "author",
							"type": "address"
						},
						{
							"indexed": false,
							"internalType": "string",
							"name": "content",
							"type": "string"
						},
						{
							"indexed": false,
							"internalType": "uint256",
							"name": "timestamp",
							"type": "uint256"
						}
					],
					"name": "TweetCreated",
					"type": "event"
				},
				{
					"anonymous": false,
					"inputs": [
						{
							"indexed": false,
							"internalType": "address",
							"name": "liker",
							"type": "address"
						},
						{
							"indexed": false,
							"internalType": "address",
							"name": "tweetAuthor",
							"type": "address"
						},
						{
							"indexed": false,
							"internalType": "uint256",
							"name": "tweetId",
							"type": "uint256"
						},
						{
							"indexed": false,
							"internalType": "uint256",
							"name": "newLikeCount",
							"type": "uint256"
						}
					],
					"name": "TweetLiked",
					"type": "event"
				},
				{
					"anonymous": false,
					"inputs": [
						{
							"indexed": false,
							"internalType": "address",
							"name": "unliker",
							"type": "address"
						},
						{
							"indexed": false,
							"internalType": "address",
							"name": "tweetAuthor",
							"type": "address"
						},
						{
							"indexed": false,
							"internalType": "uint256",
							"name": "tweetId",
							"type": "uint256"
						},
						{
							"indexed": false,
							"internalType": "uint256",
							"name": "newLikeCount",
							"type": "uint256"
						}
					],
					"name": "TweetUnLiked",
					"type": "event"
				},
				{
					"inputs": [],
					"name": "MAX_TWEET_LENGTH",
					"outputs": [
						{
							"internalType": "uint16",
							"name": "",
							"type": "uint16"
						}
					],
					"stateMutability": "view",
					"type": "function"
				},
				{
					"inputs": [
						{
							"internalType": "uint16",
							"name": "newTweetLength",
							"type": "uint16"
						}
					],
					"name": "changedTweetLength",
					"outputs": [],
					"stateMutability": "nonpayable",
					"type": "function"
				},
				{
					"inputs": [
						{
							"internalType": "string",
							"name": "_tweet",
							"type": "string"
						}
					],
					"name": "createTweet",
					"outputs": [],
					"stateMutability": "nonpayable",
					"type": "function"
				},
				{
					"inputs": [
						{
							"internalType": "address",
							"name": "_addr",
							"type": "address"
						}
					],
					"name": "deleteTweet",
					"outputs": [],
					"stateMutability": "nonpayable",
					"type": "function"
				},
				{
					"inputs": [
						{
							"internalType": "address",
							"name": "_owner",
							"type": "address"
						}
					],
					"name": "getAllTweets",
					"outputs": [
						{
							"components": [
								{
									"internalType": "uint256",
									"name": "id",
									"type": "uint256"
								},
								{
									"internalType": "address",
									"name": "author",
									"type": "address"
								},
								{
									"internalType": "string",
									"name": "content",
									"type": "string"
								},
								{
									"internalType": "uint256",
									"name": "timestamp",
									"type": "uint256"
								},
								{
									"internalType": "uint256",
									"name": "likes",
									"type": "uint256"
								}
							],
							"internalType": "struct Twitter.Tweet[]",
							"name": "",
							"type": "tuple[]"
						}
					],
					"stateMutability": "view",
					"type": "function"
				},
				{
					"inputs": [
						{
							"internalType": "uint256",
							"name": "_i",
							"type": "uint256"
						}
					],
					"name": "getTweets",
					"outputs": [
						{
							"components": [
								{
									"internalType": "uint256",
									"name": "id",
									"type": "uint256"
								},
								{
									"internalType": "address",
									"name": "author",
									"type": "address"
								},
								{
									"internalType": "string",
									"name": "content",
									"type": "string"
								},
								{
									"internalType": "uint256",
									"name": "timestamp",
									"type": "uint256"
								},
								{
									"internalType": "uint256",
									"name": "likes",
									"type": "uint256"
								}
							],
							"internalType": "struct Twitter.Tweet",
							"name": "",
							"type": "tuple"
						}
					],
					"stateMutability": "view",
					"type": "function"
				},
				{
					"inputs": [
						{
							"internalType": "uint256",
							"name": "id",
							"type": "uint256"
						},
						{
							"internalType": "address",
							"name": "author",
							"type": "address"
						}
					],
					"name": "likeTweet",
					"outputs": [],
					"stateMutability": "nonpayable",
					"type": "function"
				},
				{
					"inputs": [],
					"name": "owner",
					"outputs": [
						{
							"internalType": "address",
							"name": "",
							"type": "address"
						}
					],
					"stateMutability": "view",
					"type": "function"
				},
				{
					"inputs": [
						{
							"internalType": "address",
							"name": "",
							"type": "address"
						},
						{
							"internalType": "uint256",
							"name": "",
							"type": "uint256"
						}
					],
					"name": "tweets",
					"outputs": [
						{
							"internalType": "uint256",
							"name": "id",
							"type": "uint256"
						},
						{
							"internalType": "address",
							"name": "author",
							"type": "address"
						},
						{
							"internalType": "string",
							"name": "content",
							"type": "string"
						},
						{
							"internalType": "uint256",
							"name": "timestamp",
							"type": "uint256"
						},
						{
							"internalType": "uint256",
							"name": "likes",
							"type": "uint256"
						}
					],
					"stateMutability": "view",
					"type": "function"
				},
				{
					"inputs": [
						{
							"internalType": "uint256",
							"name": "id",
							"type": "uint256"
						},
						{
							"internalType": "address",
							"name": "author",
							"type": "address"
						}
					],
					"name": "unlikeTweet",
					"outputs": [],
					"stateMutability": "nonpayable",
					"type": "function"
				}
			],
			"devdoc": {
				"kind": "dev",
				"methods": {},
				"version": 1
			},
			"evm": {
				"assembly": "    /* \"contracts/Twitter.sol\":463:2999  contract Twitter {... */\n  mstore(0x40, 0x80)\n    /* \"contracts/Twitter.sol\":883:886  280 */\n  0x0118\n    /* \"contracts/Twitter.sol\":850:886  uint16 public MAX_TWEET_LENGTH = 280 */\n  0x01\n  exp(0x0100, 0x00)\n  dup2\n  sload\n  dup2\n  0xffff\n  mul\n  not\n  and\n  swap1\n  dup4\n  0xffff\n  and\n  mul\n  or\n  swap1\n  sstore\n  pop\n    /* \"contracts/Twitter.sol\":1074:1125  constructor() {... */\n  callvalue\n  dup1\n  iszero\n  tag_1\n  jumpi\n  0x00\n  dup1\n  revert\ntag_1:\n  pop\n    /* \"contracts/Twitter.sol\":1107:1117  msg.sender */\n  caller\n    /* \"contracts/Twitter.sol\":1099:1104  owner */\n  0x01\n  0x02\n    /* \"contracts/Twitter.sol\":1099:1117  owner = msg.sender */\n  0x0100\n  exp\n  dup2\n  sload\n  dup2\n  0xffffffffffffffffffffffffffffffffffffffff\n  mul\n  not\n  and\n  swap1\n  dup4\n  0xffffffffffffffffffffffffffffffffffffffff\n  and\n  mul\n  or\n  swap1\n  sstore\n  pop\n    /* \"contracts/Twitter.sol\":463:2999  contract Twitter {... */\n  dataSize(sub_0)\n  dup1\n  dataOffset(sub_0)\n  0x00\n  codecopy\n  0x00\n  return\nstop\n\nsub_0: assembly {\n        /* \"contracts/Twitter.sol\":463:2999  contract Twitter {... */\n      mstore(0x40, 0x80)\n      callvalue\n      dup1\n      iszero\n      tag_1\n      jumpi\n      0x00\n      dup1\n      revert\n    tag_1:\n      pop\n      jumpi(tag_2, lt(calldatasize, 0x04))\n      shr(0xe0, calldataload(0x00))\n      dup1\n      0x7c9cd2bc\n      gt\n      tag_13\n      jumpi\n      dup1\n      0x7c9cd2bc\n      eq\n      tag_8\n      jumpi\n      dup1\n      0x8da5cb5b\n      eq\n      tag_9\n      jumpi\n      dup1\n      0xa1488f7c\n      eq\n      tag_10\n      jumpi\n      dup1\n      0xd04ddaa0\n      eq\n      tag_11\n      jumpi\n      dup1\n      0xed9bb8d7\n      eq\n      tag_12\n      jumpi\n      jump(tag_2)\n    tag_13:\n      dup1\n      0x05a1b4a9\n      eq\n      tag_3\n      jumpi\n      dup1\n      0x12e7ee1c\n      eq\n      tag_4\n      jumpi\n      dup1\n      0x20f7e65c\n      eq\n      tag_5\n      jumpi\n      dup1\n      0x6d003c01\n      eq\n      tag_6\n      jumpi\n      dup1\n      0x6eb10797\n      eq\n      tag_7\n      jumpi\n    tag_2:\n      0x00\n      dup1\n      revert\n        /* \"contracts/Twitter.sol\":801:843  mapping (address => Tweet[]) public tweets */\n    tag_3:\n      tag_14\n      0x04\n      dup1\n      calldatasize\n      sub\n      dup2\n      add\n      swap1\n      tag_15\n      swap2\n      swap1\n      tag_16\n      jump\t// in\n    tag_15:\n      tag_17\n      jump\t// in\n    tag_14:\n      mload(0x40)\n      tag_18\n      swap6\n      swap5\n      swap4\n      swap3\n      swap2\n      swap1\n      tag_19\n      jump\t// in\n    tag_18:\n      mload(0x40)\n      dup1\n      swap2\n      sub\n      swap1\n      return\n        /* \"contracts/Twitter.sol\":2195:2310  function getAllTweets(address _owner) public view returns (Tweet[] memory) {... */\n    tag_4:\n      tag_20\n      0x04\n      dup1\n      calldatasize\n      sub\n      dup2\n      add\n      swap1\n      tag_21\n      swap2\n      swap1\n      tag_22\n      jump\t// in\n    tag_21:\n      tag_23\n      jump\t// in\n    tag_20:\n      mload(0x40)\n      tag_24\n      swap2\n      swap1\n      tag_25\n      jump\t// in\n    tag_24:\n      mload(0x40)\n      dup1\n      swap2\n      sub\n      swap1\n      return\n        /* \"contracts/Twitter.sol\":2318:2400  function deleteTweet(address _addr) public {... */\n    tag_5:\n      tag_26\n      0x04\n      dup1\n      calldatasize\n      sub\n      dup2\n      add\n      swap1\n      tag_27\n      swap2\n      swap1\n      tag_22\n      jump\t// in\n    tag_27:\n      tag_28\n      jump\t// in\n    tag_26:\n      stop\n        /* \"contracts/Twitter.sol\":1248:1368  function changedTweetLength(uint16 newTweetLength) public onlyOwner {... */\n    tag_6:\n      tag_29\n      0x04\n      dup1\n      calldatasize\n      sub\n      dup2\n      add\n      swap1\n      tag_30\n      swap2\n      swap1\n      tag_31\n      jump\t// in\n    tag_30:\n      tag_32\n      jump\t// in\n    tag_29:\n      stop\n        /* \"contracts/Twitter.sol\":850:886  uint16 public MAX_TWEET_LENGTH = 280 */\n    tag_7:\n      tag_33\n      tag_34\n      jump\t// in\n    tag_33:\n      mload(0x40)\n      tag_35\n      swap2\n      swap1\n      tag_36\n      jump\t// in\n    tag_35:\n      mload(0x40)\n      dup1\n      swap2\n      sub\n      swap1\n      return\n        /* \"contracts/Twitter.sol\":1376:1907  function createTweet(string memory _tweet) public {... */\n    tag_8:\n      tag_37\n      0x04\n      dup1\n      calldatasize\n      sub\n      dup2\n      add\n      swap1\n      tag_38\n      swap2\n      swap1\n      tag_39\n      jump\t// in\n    tag_38:\n      tag_40\n      jump\t// in\n    tag_37:\n      stop\n        /* \"contracts/Twitter.sol\":893:913  address public owner */\n    tag_9:\n      tag_41\n      tag_42\n      jump\t// in\n    tag_41:\n      mload(0x40)\n      tag_43\n      swap2\n      swap1\n      tag_44\n      jump\t// in\n    tag_43:\n      mload(0x40)\n      dup1\n      swap2\n      sub\n      swap1\n      return\n        /* \"contracts/Twitter.sol\":2668:2994  function unlikeTweet(uint256 id, address author) external {... */\n    tag_10:\n      tag_45\n      0x04\n      dup1\n      calldatasize\n      sub\n      dup2\n      add\n      swap1\n      tag_46\n      swap2\n      swap1\n      tag_47\n      jump\t// in\n    tag_46:\n      tag_48\n      jump\t// in\n    tag_45:\n      stop\n        /* \"contracts/Twitter.sol\":2408:2660  function likeTweet(uint256 id, address author) external {... */\n    tag_11:\n      tag_49\n      0x04\n      dup1\n      calldatasize\n      sub\n      dup2\n      add\n      swap1\n      tag_50\n      swap2\n      swap1\n      tag_47\n      jump\t// in\n    tag_50:\n      tag_51\n      jump\t// in\n    tag_49:\n      stop\n        /* \"contracts/Twitter.sol\":1917:2187  function getTweets(uint256 _i) public view returns (Tweet memory) {... */\n    tag_12:\n      tag_52\n      0x04\n      dup1\n      calldatasize\n      sub\n      dup2\n      add\n      swap1\n      tag_53\n      swap2\n      swap1\n      tag_54\n      jump\t// in\n    tag_53:\n      tag_55\n      jump\t// in\n    tag_52:\n      mload(0x40)\n      tag_56\n      swap2\n      swap1\n      tag_57\n      jump\t// in\n    tag_56:\n      mload(0x40)\n      dup1\n      swap2\n      sub\n      swap1\n      return\n        /* \"contracts/Twitter.sol\":801:843  mapping (address => Tweet[]) public tweets */\n    tag_17:\n      mstore(0x20, 0x00)\n      dup2\n      0x00\n      mstore\n      keccak256(0x00, 0x40)\n      dup2\n      dup2\n      sload\n      dup2\n      lt\n      tag_58\n      jumpi\n      0x00\n      dup1\n      revert\n    tag_58:\n      swap1\n      0x00\n      mstore\n      keccak256(0x00, 0x20)\n      swap1\n      0x05\n      mul\n      add\n      0x00\n      swap2\n      pop\n      swap2\n      pop\n      pop\n      dup1\n      0x00\n      add\n      sload\n      swap1\n      dup1\n      0x01\n      add\n      0x00\n      swap1\n      sload\n      swap1\n      0x0100\n      exp\n      swap1\n      div\n      0xffffffffffffffffffffffffffffffffffffffff\n      and\n      swap1\n      dup1\n      0x02\n      add\n      dup1\n      sload\n      tag_60\n      swap1\n      tag_61\n      jump\t// in\n    tag_60:\n      dup1\n      0x1f\n      add\n      0x20\n      dup1\n      swap2\n      div\n      mul\n      0x20\n      add\n      mload(0x40)\n      swap1\n      dup2\n      add\n      0x40\n      mstore\n      dup1\n      swap3\n      swap2\n      swap1\n      dup2\n      dup2\n      mstore\n      0x20\n      add\n      dup3\n      dup1\n      sload\n      tag_62\n      swap1\n      tag_61\n      jump\t// in\n    tag_62:\n      dup1\n      iszero\n      tag_63\n      jumpi\n      dup1\n      0x1f\n      lt\n      tag_64\n      jumpi\n      0x0100\n      dup1\n      dup4\n      sload\n      div\n      mul\n      dup4\n      mstore\n      swap2\n      0x20\n      add\n      swap2\n      jump(tag_63)\n    tag_64:\n      dup3\n      add\n      swap2\n      swap1\n      0x00\n      mstore\n      keccak256(0x00, 0x20)\n      swap1\n    tag_65:\n      dup2\n      sload\n      dup2\n      mstore\n      swap1\n      0x01\n      add\n      swap1\n      0x20\n      add\n      dup1\n      dup4\n      gt\n      tag_65\n      jumpi\n      dup3\n      swap1\n      sub\n      0x1f\n      and\n      dup3\n      add\n      swap2\n    tag_63:\n      pop\n      pop\n      pop\n      pop\n      pop\n      swap1\n      dup1\n      0x03\n      add\n      sload\n      swap1\n      dup1\n      0x04\n      add\n      sload\n      swap1\n      pop\n      dup6\n      jump\t// out\n        /* \"contracts/Twitter.sol\":2195:2310  function getAllTweets(address _owner) public view returns (Tweet[] memory) {... */\n    tag_23:\n        /* \"contracts/Twitter.sol\":2254:2268  Tweet[] memory */\n      0x60\n        /* \"contracts/Twitter.sol\":2288:2294  tweets */\n      0x00\n        /* \"contracts/Twitter.sol\":2288:2302  tweets[_owner] */\n      dup1\n        /* \"contracts/Twitter.sol\":2295:2301  _owner */\n      dup4\n        /* \"contracts/Twitter.sol\":2288:2302  tweets[_owner] */\n      0xffffffffffffffffffffffffffffffffffffffff\n      and\n      0xffffffffffffffffffffffffffffffffffffffff\n      and\n      dup2\n      mstore\n      0x20\n      add\n      swap1\n      dup2\n      mstore\n      0x20\n      add\n      0x00\n      keccak256\n        /* \"contracts/Twitter.sol\":2281:2302  return tweets[_owner] */\n      dup1\n      sload\n      dup1\n      0x20\n      mul\n      0x20\n      add\n      mload(0x40)\n      swap1\n      dup2\n      add\n      0x40\n      mstore\n      dup1\n      swap3\n      swap2\n      swap1\n      dup2\n      dup2\n      mstore\n      0x20\n      add\n      0x00\n      swap1\n    tag_67:\n      dup3\n      dup3\n      lt\n      iszero\n      tag_68\n      jumpi\n      dup4\n      dup3\n      swap1\n      0x00\n      mstore\n      keccak256(0x00, 0x20)\n      swap1\n      0x05\n      mul\n      add\n      mload(0x40)\n      dup1\n      0xa0\n      add\n      0x40\n      mstore\n      swap1\n      dup2\n      0x00\n      dup3\n      add\n      sload\n      dup2\n      mstore\n      0x20\n      add\n      0x01\n      dup3\n      add\n      0x00\n      swap1\n      sload\n      swap1\n      0x0100\n      exp\n      swap1\n      div\n      0xffffffffffffffffffffffffffffffffffffffff\n      and\n      0xffffffffffffffffffffffffffffffffffffffff\n      and\n      0xffffffffffffffffffffffffffffffffffffffff\n      and\n      dup2\n      mstore\n      0x20\n      add\n      0x02\n      dup3\n      add\n      dup1\n      sload\n      tag_70\n      swap1\n      tag_61\n      jump\t// in\n    tag_70:\n      dup1\n      0x1f\n      add\n      0x20\n      dup1\n      swap2\n      div\n      mul\n      0x20\n      add\n      mload(0x40)\n      swap1\n      dup2\n      add\n      0x40\n      mstore\n      dup1\n      swap3\n      swap2\n      swap1\n      dup2\n      dup2\n      mstore\n      0x20\n      add\n      dup3\n      dup1\n      sload\n      tag_71\n      swap1\n      tag_61\n      jump\t// in\n    tag_71:\n      dup1\n      iszero\n      tag_72\n      jumpi\n      dup1\n      0x1f\n      lt\n      tag_73\n      jumpi\n      0x0100\n      dup1\n      dup4\n      sload\n      div\n      mul\n      dup4\n      mstore\n      swap2\n      0x20\n      add\n      swap2\n      jump(tag_72)\n    tag_73:\n      dup3\n      add\n      swap2\n      swap1\n      0x00\n      mstore\n      keccak256(0x00, 0x20)\n      swap1\n    tag_74:\n      dup2\n      sload\n      dup2\n      mstore\n      swap1\n      0x01\n      add\n      swap1\n      0x20\n      add\n      dup1\n      dup4\n      gt\n      tag_74\n      jumpi\n      dup3\n      swap1\n      sub\n      0x1f\n      and\n      dup3\n      add\n      swap2\n    tag_72:\n      pop\n      pop\n      pop\n      pop\n      pop\n      dup2\n      mstore\n      0x20\n      add\n      0x03\n      dup3\n      add\n      sload\n      dup2\n      mstore\n      0x20\n      add\n      0x04\n      dup3\n      add\n      sload\n      dup2\n      mstore\n      pop\n      pop\n      dup2\n      mstore\n      0x20\n      add\n      swap1\n      0x01\n      add\n      swap1\n      jump(tag_67)\n    tag_68:\n      pop\n      pop\n      pop\n      pop\n      swap1\n      pop\n        /* \"contracts/Twitter.sol\":2195:2310  function getAllTweets(address _owner) public view returns (Tweet[] memory) {... */\n      swap2\n      swap1\n      pop\n      jump\t// out\n        /* \"contracts/Twitter.sol\":2318:2400  function deleteTweet(address _addr) public {... */\n    tag_28:\n        /* \"contracts/Twitter.sol\":2379:2385  tweets */\n      0x00\n        /* \"contracts/Twitter.sol\":2379:2392  tweets[_addr] */\n      dup1\n        /* \"contracts/Twitter.sol\":2386:2391  _addr */\n      dup3\n        /* \"contracts/Twitter.sol\":2379:2392  tweets[_addr] */\n      0xffffffffffffffffffffffffffffffffffffffff\n      and\n      0xffffffffffffffffffffffffffffffffffffffff\n      and\n      dup2\n      mstore\n      0x20\n      add\n      swap1\n      dup2\n      mstore\n      0x20\n      add\n      0x00\n      keccak256\n      0x00\n        /* \"contracts/Twitter.sol\":2372:2392  delete tweets[_addr] */\n      tag_76\n      swap2\n      swap1\n      tag_77\n      jump\t// in\n    tag_76:\n        /* \"contracts/Twitter.sol\":2318:2400  function deleteTweet(address _addr) public {... */\n      pop\n      jump\t// out\n        /* \"contracts/Twitter.sol\":1248:1368  function changedTweetLength(uint16 newTweetLength) public onlyOwner {... */\n    tag_32:\n        /* \"contracts/Twitter.sol\":1182:1192  msg.sender */\n      caller\n        /* \"contracts/Twitter.sol\":1173:1192  owner == msg.sender */\n      0xffffffffffffffffffffffffffffffffffffffff\n      and\n        /* \"contracts/Twitter.sol\":1173:1178  owner */\n      0x01\n      0x02\n      swap1\n      sload\n      swap1\n      0x0100\n      exp\n      swap1\n      div\n      0xffffffffffffffffffffffffffffffffffffffff\n      and\n        /* \"contracts/Twitter.sol\":1173:1192  owner == msg.sender */\n      0xffffffffffffffffffffffffffffffffffffffff\n      and\n      eq\n        /* \"contracts/Twitter.sol\":1165:1220  require(owner == msg.sender, \"YOU ARE NOT THE OWNER!!\") */\n      tag_79\n      jumpi\n      mload(0x40)\n      0x08c379a000000000000000000000000000000000000000000000000000000000\n      dup2\n      mstore\n      0x04\n      add\n      tag_80\n      swap1\n      tag_81\n      jump\t// in\n    tag_80:\n      mload(0x40)\n      dup1\n      swap2\n      sub\n      swap1\n      revert\n    tag_79:\n        /* \"contracts/Twitter.sol\":1346:1360  newTweetLength */\n      dup1\n        /* \"contracts/Twitter.sol\":1327:1343  MAX_TWEET_LENGTH */\n      0x01\n      0x00\n        /* \"contracts/Twitter.sol\":1327:1360  MAX_TWEET_LENGTH = newTweetLength */\n      0x0100\n      exp\n      dup2\n      sload\n      dup2\n      0xffff\n      mul\n      not\n      and\n      swap1\n      dup4\n      0xffff\n      and\n      mul\n      or\n      swap1\n      sstore\n      pop\n        /* \"contracts/Twitter.sol\":1248:1368  function changedTweetLength(uint16 newTweetLength) public onlyOwner {... */\n      pop\n      jump\t// out\n        /* \"contracts/Twitter.sol\":850:886  uint16 public MAX_TWEET_LENGTH = 280 */\n    tag_34:\n      0x01\n      0x00\n      swap1\n      sload\n      swap1\n      0x0100\n      exp\n      swap1\n      div\n      0xffff\n      and\n      dup2\n      jump\t// out\n        /* \"contracts/Twitter.sol\":1376:1907  function createTweet(string memory _tweet) public {... */\n    tag_40:\n        /* \"contracts/Twitter.sol\":1471:1487  MAX_TWEET_LENGTH */\n      0x01\n      0x00\n      swap1\n      sload\n      swap1\n      0x0100\n      exp\n      swap1\n      div\n      0xffff\n      and\n        /* \"contracts/Twitter.sol\":1447:1487  bytes(_tweet).length <= MAX_TWEET_LENGTH */\n      0xffff\n      and\n        /* \"contracts/Twitter.sol\":1453:1459  _tweet */\n      dup2\n        /* \"contracts/Twitter.sol\":1447:1467  bytes(_tweet).length */\n      mload\n        /* \"contracts/Twitter.sol\":1447:1487  bytes(_tweet).length <= MAX_TWEET_LENGTH */\n      gt\n      iszero\n        /* \"contracts/Twitter.sol\":1439:1528  require(bytes(_tweet).length <= MAX_TWEET_LENGTH, \"Tweet is to long, max 280 characters\") */\n      tag_84\n      jumpi\n      mload(0x40)\n      0x08c379a000000000000000000000000000000000000000000000000000000000\n      dup2\n      mstore\n      0x04\n      add\n      tag_85\n      swap1\n      tag_86\n      jump\t// in\n    tag_85:\n      mload(0x40)\n      dup1\n      swap2\n      sub\n      swap1\n      revert\n    tag_84:\n        /* \"contracts/Twitter.sol\":1541:1562  Tweet memory newTweet */\n      0x00\n        /* \"contracts/Twitter.sol\":1565:1755  Tweet({... */\n      mload(0x40)\n      dup1\n      0xa0\n      add\n      0x40\n      mstore\n      dup1\n        /* \"contracts/Twitter.sol\":1590:1596  tweets */\n      0x00\n        /* \"contracts/Twitter.sol\":1590:1608  tweets[msg.sender] */\n      dup1\n        /* \"contracts/Twitter.sol\":1597:1607  msg.sender */\n      caller\n        /* \"contracts/Twitter.sol\":1590:1608  tweets[msg.sender] */\n      0xffffffffffffffffffffffffffffffffffffffff\n      and\n      0xffffffffffffffffffffffffffffffffffffffff\n      and\n      dup2\n      mstore\n      0x20\n      add\n      swap1\n      dup2\n      mstore\n      0x20\n      add\n      0x00\n      keccak256\n        /* \"contracts/Twitter.sol\":1590:1615  tweets[msg.sender].length */\n      dup1\n      sload\n      swap1\n      pop\n        /* \"contracts/Twitter.sol\":1565:1755  Tweet({... */\n      dup2\n      mstore\n      0x20\n      add\n        /* \"contracts/Twitter.sol\":1638:1648  msg.sender */\n      caller\n        /* \"contracts/Twitter.sol\":1565:1755  Tweet({... */\n      0xffffffffffffffffffffffffffffffffffffffff\n      and\n      dup2\n      mstore\n      0x20\n      add\n        /* \"contracts/Twitter.sol\":1672:1678  _tweet */\n      dup4\n        /* \"contracts/Twitter.sol\":1565:1755  Tweet({... */\n      dup2\n      mstore\n      0x20\n      add\n        /* \"contracts/Twitter.sol\":1705:1720  block.timestamp */\n      timestamp\n        /* \"contracts/Twitter.sol\":1565:1755  Tweet({... */\n      dup2\n      mstore\n      0x20\n      add\n        /* \"contracts/Twitter.sol\":1742:1743  0 */\n      0x00\n        /* \"contracts/Twitter.sol\":1565:1755  Tweet({... */\n      dup2\n      mstore\n      pop\n        /* \"contracts/Twitter.sol\":1541:1755  Tweet memory newTweet = Tweet({... */\n      swap1\n      pop\n        /* \"contracts/Twitter.sol\":1768:1774  tweets */\n      0x00\n        /* \"contracts/Twitter.sol\":1768:1786  tweets[msg.sender] */\n      dup1\n        /* \"contracts/Twitter.sol\":1775:1785  msg.sender */\n      caller\n        /* \"contracts/Twitter.sol\":1768:1786  tweets[msg.sender] */\n      0xffffffffffffffffffffffffffffffffffffffff\n      and\n      0xffffffffffffffffffffffffffffffffffffffff\n      and\n      dup2\n      mstore\n      0x20\n      add\n      swap1\n      dup2\n      mstore\n      0x20\n      add\n      0x00\n      keccak256\n        /* \"contracts/Twitter.sol\":1792:1800  newTweet */\n      dup2\n        /* \"contracts/Twitter.sol\":1768:1801  tweets[msg.sender].push(newTweet) */\n      swap1\n      dup1\n      0x01\n      dup2\n      sload\n      add\n      dup1\n      dup3\n      sstore\n      dup1\n      swap2\n      pop\n      pop\n      0x01\n      swap1\n      sub\n      swap1\n      0x00\n      mstore\n      keccak256(0x00, 0x20)\n      swap1\n      0x05\n      mul\n      add\n      0x00\n      swap1\n      swap2\n      swap1\n      swap2\n      swap1\n      swap2\n      pop\n      0x00\n      dup3\n      add\n      mload\n      dup2\n      0x00\n      add\n      sstore\n      0x20\n      dup3\n      add\n      mload\n      dup2\n      0x01\n      add\n      exp(0x0100, 0x00)\n      dup2\n      sload\n      dup2\n      0xffffffffffffffffffffffffffffffffffffffff\n      mul\n      not\n      and\n      swap1\n      dup4\n      0xffffffffffffffffffffffffffffffffffffffff\n      and\n      mul\n      or\n      swap1\n      sstore\n      pop\n      0x40\n      dup3\n      add\n      mload\n      dup2\n      0x02\n      add\n      swap1\n      dup2\n      tag_88\n      swap2\n      swap1\n      tag_89\n      jump\t// in\n    tag_88:\n      pop\n      0x60\n      dup3\n      add\n      mload\n      dup2\n      0x03\n      add\n      sstore\n      0x80\n      dup3\n      add\n      mload\n      dup2\n      0x04\n      add\n      sstore\n      pop\n      pop\n        /* \"contracts/Twitter.sol\":1832:1840  newTweet */\n      dup1\n        /* \"contracts/Twitter.sol\":1832:1843  newTweet.id */\n      0x00\n      add\n      mload\n        /* \"contracts/Twitter.sol\":1819:1899  TweetCreated(newTweet.id, newTweet.author, newTweet.content, newTweet.timestamp) */\n      0x16fd3c13e9d46923e0a8bce11c7b473ec508a72e6c96cd2404b29ce972afc29e\n        /* \"contracts/Twitter.sol\":1845:1853  newTweet */\n      dup3\n        /* \"contracts/Twitter.sol\":1845:1860  newTweet.author */\n      0x20\n      add\n      mload\n        /* \"contracts/Twitter.sol\":1862:1870  newTweet */\n      dup4\n        /* \"contracts/Twitter.sol\":1862:1878  newTweet.content */\n      0x40\n      add\n      mload\n        /* \"contracts/Twitter.sol\":1880:1888  newTweet */\n      dup5\n        /* \"contracts/Twitter.sol\":1880:1898  newTweet.timestamp */\n      0x60\n      add\n      mload\n        /* \"contracts/Twitter.sol\":1819:1899  TweetCreated(newTweet.id, newTweet.author, newTweet.content, newTweet.timestamp) */\n      mload(0x40)\n      tag_90\n      swap4\n      swap3\n      swap2\n      swap1\n      tag_91\n      jump\t// in\n    tag_90:\n      mload(0x40)\n      dup1\n      swap2\n      sub\n      swap1\n      log2\n        /* \"contracts/Twitter.sol\":1426:1907  {... */\n      pop\n        /* \"contracts/Twitter.sol\":1376:1907  function createTweet(string memory _tweet) public {... */\n      pop\n      jump\t// out\n        /* \"contracts/Twitter.sol\":893:913  address public owner */\n    tag_42:\n      0x01\n      0x02\n      swap1\n      sload\n      swap1\n      0x0100\n      exp\n      swap1\n      div\n      0xffffffffffffffffffffffffffffffffffffffff\n      and\n      dup2\n      jump\t// out\n        /* \"contracts/Twitter.sol\":2668:2994  function unlikeTweet(uint256 id, address author) external {... */\n    tag_48:\n        /* \"contracts/Twitter.sol\":2770:2772  id */\n      dup2\n        /* \"contracts/Twitter.sol\":2745:2751  tweets */\n      0x00\n        /* \"contracts/Twitter.sol\":2745:2759  tweets[author] */\n      dup1\n        /* \"contracts/Twitter.sol\":2752:2758  author */\n      dup4\n        /* \"contracts/Twitter.sol\":2745:2759  tweets[author] */\n      0xffffffffffffffffffffffffffffffffffffffff\n      and\n      0xffffffffffffffffffffffffffffffffffffffff\n      and\n      dup2\n      mstore\n      0x20\n      add\n      swap1\n      dup2\n      mstore\n      0x20\n      add\n      0x00\n      keccak256\n        /* \"contracts/Twitter.sol\":2760:2762  id */\n      dup4\n        /* \"contracts/Twitter.sol\":2745:2763  tweets[author][id] */\n      dup2\n      sload\n      dup2\n      lt\n      tag_93\n      jumpi\n      tag_94\n      tag_95\n      jump\t// in\n    tag_94:\n    tag_93:\n      swap1\n      0x00\n      mstore\n      keccak256(0x00, 0x20)\n      swap1\n      0x05\n      mul\n      add\n        /* \"contracts/Twitter.sol\":2745:2766  tweets[author][id].id */\n      0x00\n      add\n      sload\n        /* \"contracts/Twitter.sol\":2745:2772  tweets[author][id].id == id */\n      eq\n        /* \"contracts/Twitter.sol\":2737:2797  require(tweets[author][id].id == id, \"TWEET DOES NOT EXIST\") */\n      tag_97\n      jumpi\n      mload(0x40)\n      0x08c379a000000000000000000000000000000000000000000000000000000000\n      dup2\n      mstore\n      0x04\n      add\n      tag_98\n      swap1\n      tag_99\n      jump\t// in\n    tag_98:\n      mload(0x40)\n      dup1\n      swap2\n      sub\n      swap1\n      revert\n    tag_97:\n        /* \"contracts/Twitter.sol\":2843:2844  0 */\n      0x00\n        /* \"contracts/Twitter.sol\":2816:2822  tweets */\n      dup1\n        /* \"contracts/Twitter.sol\":2816:2830  tweets[author] */\n      0x00\n        /* \"contracts/Twitter.sol\":2823:2829  author */\n      dup4\n        /* \"contracts/Twitter.sol\":2816:2830  tweets[author] */\n      0xffffffffffffffffffffffffffffffffffffffff\n      and\n      0xffffffffffffffffffffffffffffffffffffffff\n      and\n      dup2\n      mstore\n      0x20\n      add\n      swap1\n      dup2\n      mstore\n      0x20\n      add\n      0x00\n      keccak256\n        /* \"contracts/Twitter.sol\":2831:2833  id */\n      dup4\n        /* \"contracts/Twitter.sol\":2816:2834  tweets[author][id] */\n      dup2\n      sload\n      dup2\n      lt\n      tag_100\n      jumpi\n      tag_101\n      tag_95\n      jump\t// in\n    tag_101:\n    tag_100:\n      swap1\n      0x00\n      mstore\n      keccak256(0x00, 0x20)\n      swap1\n      0x05\n      mul\n      add\n        /* \"contracts/Twitter.sol\":2816:2840  tweets[author][id].likes */\n      0x04\n      add\n      sload\n        /* \"contracts/Twitter.sol\":2816:2844  tweets[author][id].likes > 0 */\n      gt\n        /* \"contracts/Twitter.sol\":2808:2869  require(tweets[author][id].likes > 0, \"TWEET DOES NOT LIKED\") */\n      tag_103\n      jumpi\n      mload(0x40)\n      0x08c379a000000000000000000000000000000000000000000000000000000000\n      dup2\n      mstore\n      0x04\n      add\n      tag_104\n      swap1\n      tag_105\n      jump\t// in\n    tag_104:\n      mload(0x40)\n      dup1\n      swap2\n      sub\n      swap1\n      revert\n    tag_103:\n        /* \"contracts/Twitter.sol\":2882:2888  tweets */\n      0x00\n        /* \"contracts/Twitter.sol\":2882:2896  tweets[author] */\n      dup1\n        /* \"contracts/Twitter.sol\":2889:2895  author */\n      dup3\n        /* \"contracts/Twitter.sol\":2882:2896  tweets[author] */\n      0xffffffffffffffffffffffffffffffffffffffff\n      and\n      0xffffffffffffffffffffffffffffffffffffffff\n      and\n      dup2\n      mstore\n      0x20\n      add\n      swap1\n      dup2\n      mstore\n      0x20\n      add\n      0x00\n      keccak256\n        /* \"contracts/Twitter.sol\":2897:2899  id */\n      dup3\n        /* \"contracts/Twitter.sol\":2882:2900  tweets[author][id] */\n      dup2\n      sload\n      dup2\n      lt\n      tag_106\n      jumpi\n      tag_107\n      tag_95\n      jump\t// in\n    tag_107:\n    tag_106:\n      swap1\n      0x00\n      mstore\n      keccak256(0x00, 0x20)\n      swap1\n      0x05\n      mul\n      add\n        /* \"contracts/Twitter.sol\":2882:2906  tweets[author][id].likes */\n      0x04\n      add\n      0x00\n        /* \"contracts/Twitter.sol\":2882:2908  tweets[author][id].likes-- */\n      dup2\n      sload\n      dup1\n      swap3\n      swap2\n      swap1\n      tag_109\n      swap1\n      tag_110\n      jump\t// in\n    tag_109:\n      swap2\n      swap1\n      pop\n      sstore\n      pop\n        /* \"contracts/Twitter.sol\":2924:2986  TweetUnLiked(msg.sender, author, id, tweets[author][id].likes) */\n      0x273883c252143c4abce776697615e41ca9bc1aac5968c585d1c8ba8ffaa8b3c1\n        /* \"contracts/Twitter.sol\":2937:2947  msg.sender */\n      caller\n        /* \"contracts/Twitter.sol\":2949:2955  author */\n      dup3\n        /* \"contracts/Twitter.sol\":2957:2959  id */\n      dup5\n        /* \"contracts/Twitter.sol\":2961:2967  tweets */\n      0x00\n        /* \"contracts/Twitter.sol\":2961:2975  tweets[author] */\n      dup1\n        /* \"contracts/Twitter.sol\":2968:2974  author */\n      dup7\n        /* \"contracts/Twitter.sol\":2961:2975  tweets[author] */\n      0xffffffffffffffffffffffffffffffffffffffff\n      and\n      0xffffffffffffffffffffffffffffffffffffffff\n      and\n      dup2\n      mstore\n      0x20\n      add\n      swap1\n      dup2\n      mstore\n      0x20\n      add\n      0x00\n      keccak256\n        /* \"contracts/Twitter.sol\":2976:2978  id */\n      dup7\n        /* \"contracts/Twitter.sol\":2961:2979  tweets[author][id] */\n      dup2\n      sload\n      dup2\n      lt\n      tag_111\n      jumpi\n      tag_112\n      tag_95\n      jump\t// in\n    tag_112:\n    tag_111:\n      swap1\n      0x00\n      mstore\n      keccak256(0x00, 0x20)\n      swap1\n      0x05\n      mul\n      add\n        /* \"contracts/Twitter.sol\":2961:2985  tweets[author][id].likes */\n      0x04\n      add\n      sload\n        /* \"contracts/Twitter.sol\":2924:2986  TweetUnLiked(msg.sender, author, id, tweets[author][id].likes) */\n      mload(0x40)\n      tag_114\n      swap5\n      swap4\n      swap3\n      swap2\n      swap1\n      tag_115\n      jump\t// in\n    tag_114:\n      mload(0x40)\n      dup1\n      swap2\n      sub\n      swap1\n      log1\n        /* \"contracts/Twitter.sol\":2668:2994  function unlikeTweet(uint256 id, address author) external {... */\n      pop\n      pop\n      jump\t// out\n        /* \"contracts/Twitter.sol\":2408:2660  function likeTweet(uint256 id, address author) external {... */\n    tag_51:\n        /* \"contracts/Twitter.sol\":2508:2510  id */\n      dup2\n        /* \"contracts/Twitter.sol\":2483:2489  tweets */\n      0x00\n        /* \"contracts/Twitter.sol\":2483:2497  tweets[author] */\n      dup1\n        /* \"contracts/Twitter.sol\":2490:2496  author */\n      dup4\n        /* \"contracts/Twitter.sol\":2483:2497  tweets[author] */\n      0xffffffffffffffffffffffffffffffffffffffff\n      and\n      0xffffffffffffffffffffffffffffffffffffffff\n      and\n      dup2\n      mstore\n      0x20\n      add\n      swap1\n      dup2\n      mstore\n      0x20\n      add\n      0x00\n      keccak256\n        /* \"contracts/Twitter.sol\":2498:2500  id */\n      dup4\n        /* \"contracts/Twitter.sol\":2483:2501  tweets[author][id] */\n      dup2\n      sload\n      dup2\n      lt\n      tag_117\n      jumpi\n      tag_118\n      tag_95\n      jump\t// in\n    tag_118:\n    tag_117:\n      swap1\n      0x00\n      mstore\n      keccak256(0x00, 0x20)\n      swap1\n      0x05\n      mul\n      add\n        /* \"contracts/Twitter.sol\":2483:2504  tweets[author][id].id */\n      0x00\n      add\n      sload\n        /* \"contracts/Twitter.sol\":2483:2510  tweets[author][id].id == id */\n      eq\n        /* \"contracts/Twitter.sol\":2475:2535  require(tweets[author][id].id == id, \"TWEET DOES NOT EXIST\") */\n      tag_120\n      jumpi\n      mload(0x40)\n      0x08c379a000000000000000000000000000000000000000000000000000000000\n      dup2\n      mstore\n      0x04\n      add\n      tag_121\n      swap1\n      tag_99\n      jump\t// in\n    tag_121:\n      mload(0x40)\n      dup1\n      swap2\n      sub\n      swap1\n      revert\n    tag_120:\n        /* \"contracts/Twitter.sol\":2548:2554  tweets */\n      0x00\n        /* \"contracts/Twitter.sol\":2548:2562  tweets[author] */\n      dup1\n        /* \"contracts/Twitter.sol\":2555:2561  author */\n      dup3\n        /* \"contracts/Twitter.sol\":2548:2562  tweets[author] */\n      0xffffffffffffffffffffffffffffffffffffffff\n      and\n      0xffffffffffffffffffffffffffffffffffffffff\n      and\n      dup2\n      mstore\n      0x20\n      add\n      swap1\n      dup2\n      mstore\n      0x20\n      add\n      0x00\n      keccak256\n        /* \"contracts/Twitter.sol\":2563:2565  id */\n      dup3\n        /* \"contracts/Twitter.sol\":2548:2566  tweets[author][id] */\n      dup2\n      sload\n      dup2\n      lt\n      tag_122\n      jumpi\n      tag_123\n      tag_95\n      jump\t// in\n    tag_123:\n    tag_122:\n      swap1\n      0x00\n      mstore\n      keccak256(0x00, 0x20)\n      swap1\n      0x05\n      mul\n      add\n        /* \"contracts/Twitter.sol\":2548:2572  tweets[author][id].likes */\n      0x04\n      add\n      0x00\n        /* \"contracts/Twitter.sol\":2548:2574  tweets[author][id].likes++ */\n      dup2\n      sload\n      dup1\n      swap3\n      swap2\n      swap1\n      tag_125\n      swap1\n      tag_126\n      jump\t// in\n    tag_125:\n      swap2\n      swap1\n      pop\n      sstore\n      pop\n        /* \"contracts/Twitter.sol\":2592:2652  TweetLiked(msg.sender, author, id, tweets[author][id].likes) */\n      0xe8a76fc0f16d11a00d1e93b689b63d76cf60af914dd3d915375dc41d01a0c3c8\n        /* \"contracts/Twitter.sol\":2603:2613  msg.sender */\n      caller\n        /* \"contracts/Twitter.sol\":2615:2621  author */\n      dup3\n        /* \"contracts/Twitter.sol\":2623:2625  id */\n      dup5\n        /* \"contracts/Twitter.sol\":2627:2633  tweets */\n      0x00\n        /* \"contracts/Twitter.sol\":2627:2641  tweets[author] */\n      dup1\n        /* \"contracts/Twitter.sol\":2634:2640  author */\n      dup7\n        /* \"contracts/Twitter.sol\":2627:2641  tweets[author] */\n      0xffffffffffffffffffffffffffffffffffffffff\n      and\n      0xffffffffffffffffffffffffffffffffffffffff\n      and\n      dup2\n      mstore\n      0x20\n      add\n      swap1\n      dup2\n      mstore\n      0x20\n      add\n      0x00\n      keccak256\n        /* \"contracts/Twitter.sol\":2642:2644  id */\n      dup7\n        /* \"contracts/Twitter.sol\":2627:2645  tweets[author][id] */\n      dup2\n      sload\n      dup2\n      lt\n      tag_127\n      jumpi\n      tag_128\n      tag_95\n      jump\t// in\n    tag_128:\n    tag_127:\n      swap1\n      0x00\n      mstore\n      keccak256(0x00, 0x20)\n      swap1\n      0x05\n      mul\n      add\n        /* \"contracts/Twitter.sol\":2627:2651  tweets[author][id].likes */\n      0x04\n      add\n      sload\n        /* \"contracts/Twitter.sol\":2592:2652  TweetLiked(msg.sender, author, id, tweets[author][id].likes) */\n      mload(0x40)\n      tag_130\n      swap5\n      swap4\n      swap3\n      swap2\n      swap1\n      tag_115\n      jump\t// in\n    tag_130:\n      mload(0x40)\n      dup1\n      swap2\n      sub\n      swap1\n      log1\n        /* \"contracts/Twitter.sol\":2408:2660  function likeTweet(uint256 id, address author) external {... */\n      pop\n      pop\n      jump\t// out\n        /* \"contracts/Twitter.sol\":1917:2187  function getTweets(uint256 _i) public view returns (Tweet memory) {... */\n    tag_55:\n        /* \"contracts/Twitter.sol\":1969:1981  Tweet memory */\n      tag_131\n      tag_132\n      jump\t// in\n    tag_131:\n        /* \"contracts/Twitter.sol\":2008:2014  tweets */\n      0x00\n        /* \"contracts/Twitter.sol\":2008:2026  tweets[msg.sender] */\n      dup1\n        /* \"contracts/Twitter.sol\":2015:2025  msg.sender */\n      caller\n        /* \"contracts/Twitter.sol\":2008:2026  tweets[msg.sender] */\n      0xffffffffffffffffffffffffffffffffffffffff\n      and\n      0xffffffffffffffffffffffffffffffffffffffff\n      and\n      dup2\n      mstore\n      0x20\n      add\n      swap1\n      dup2\n      mstore\n      0x20\n      add\n      0x00\n      keccak256\n        /* \"contracts/Twitter.sol\":2008:2033  tweets[msg.sender].length */\n      dup1\n      sload\n      swap1\n      pop\n        /* \"contracts/Twitter.sol\":2002:2004  _i */\n      dup3\n        /* \"contracts/Twitter.sol\":2002:2033  _i <= tweets[msg.sender].length */\n      gt\n      iszero\n        /* \"contracts/Twitter.sol\":1994:2057  require(_i <= tweets[msg.sender].length, \"Invalid tweet index\") */\n      tag_134\n      jumpi\n      mload(0x40)\n      0x08c379a000000000000000000000000000000000000000000000000000000000\n      dup2\n      mstore\n      0x04\n      add\n      tag_135\n      swap1\n      tag_136\n      jump\t// in\n    tag_135:\n      mload(0x40)\n      dup1\n      swap2\n      sub\n      swap1\n      revert\n    tag_134:\n        /* \"contracts/Twitter.sol\":2157:2163  tweets */\n      0x00\n        /* \"contracts/Twitter.sol\":2157:2175  tweets[msg.sender] */\n      dup1\n        /* \"contracts/Twitter.sol\":2164:2174  msg.sender */\n      caller\n        /* \"contracts/Twitter.sol\":2157:2175  tweets[msg.sender] */\n      0xffffffffffffffffffffffffffffffffffffffff\n      and\n      0xffffffffffffffffffffffffffffffffffffffff\n      and\n      dup2\n      mstore\n      0x20\n      add\n      swap1\n      dup2\n      mstore\n      0x20\n      add\n      0x00\n      keccak256\n        /* \"contracts/Twitter.sol\":2176:2178  _i */\n      dup3\n        /* \"contracts/Twitter.sol\":2157:2179  tweets[msg.sender][_i] */\n      dup2\n      sload\n      dup2\n      lt\n      tag_137\n      jumpi\n      tag_138\n      tag_95\n      jump\t// in\n    tag_138:\n    tag_137:\n      swap1\n      0x00\n      mstore\n      keccak256(0x00, 0x20)\n      swap1\n      0x05\n      mul\n      add\n        /* \"contracts/Twitter.sol\":2150:2179  return tweets[msg.sender][_i] */\n      mload(0x40)\n      dup1\n      0xa0\n      add\n      0x40\n      mstore\n      swap1\n      dup2\n      0x00\n      dup3\n      add\n      sload\n      dup2\n      mstore\n      0x20\n      add\n      0x01\n      dup3\n      add\n      0x00\n      swap1\n      sload\n      swap1\n      0x0100\n      exp\n      swap1\n      div\n      0xffffffffffffffffffffffffffffffffffffffff\n      and\n      0xffffffffffffffffffffffffffffffffffffffff\n      and\n      0xffffffffffffffffffffffffffffffffffffffff\n      and\n      dup2\n      mstore\n      0x20\n      add\n      0x02\n      dup3\n      add\n      dup1\n      sload\n      tag_140\n      swap1\n      tag_61\n      jump\t// in\n    tag_140:\n      dup1\n      0x1f\n      add\n      0x20\n      dup1\n      swap2\n      div\n      mul\n      0x20\n      add\n      mload(0x40)\n      swap1\n      dup2\n      add\n      0x40\n      mstore\n      dup1\n      swap3\n      swap2\n      swap1\n      dup2\n      dup2\n      mstore\n      0x20\n      add\n      dup3\n      dup1\n      sload\n      tag_141\n      swap1\n      tag_61\n      jump\t// in\n    tag_141:\n      dup1\n      iszero\n      tag_142\n      jumpi\n      dup1\n      0x1f\n      lt\n      tag_143\n      jumpi\n      0x0100\n      dup1\n      dup4\n      sload\n      div\n      mul\n      dup4\n      mstore\n      swap2\n      0x20\n      add\n      swap2\n      jump(tag_142)\n    tag_143:\n      dup3\n      add\n      swap2\n      swap1\n      0x00\n      mstore\n      keccak256(0x00, 0x20)\n      swap1\n    tag_144:\n      dup2\n      sload\n      dup2\n      mstore\n      swap1\n      0x01\n      add\n      swap1\n      0x20\n      add\n      dup1\n      dup4\n      gt\n      tag_144\n      jumpi\n      dup3\n      swap1\n      sub\n      0x1f\n      and\n      dup3\n      add\n      swap2\n    tag_142:\n      pop\n      pop\n      pop\n      pop\n      pop\n      dup2\n      mstore\n      0x20\n      add\n      0x03\n      dup3\n      add\n      sload\n      dup2\n      mstore\n      0x20\n      add\n      0x04\n      dup3\n      add\n      sload\n      dup2\n      mstore\n      pop\n      pop\n      swap1\n      pop\n        /* \"contracts/Twitter.sol\":1917:2187  function getTweets(uint256 _i) public view returns (Tweet memory) {... */\n      swap2\n      swap1\n      pop\n      jump\t// out\n    tag_77:\n      pop\n      dup1\n      sload\n      0x00\n      dup3\n      sstore\n      0x05\n      mul\n      swap1\n      0x00\n      mstore\n      keccak256(0x00, 0x20)\n      swap1\n      dup2\n      add\n      swap1\n      tag_146\n      swap2\n      swap1\n      tag_147\n      jump\t// in\n    tag_146:\n      pop\n      jump\t// out\n    tag_132:\n      mload(0x40)\n      dup1\n      0xa0\n      add\n      0x40\n      mstore\n      dup1\n      0x00\n      dup2\n      mstore\n      0x20\n      add\n      and(0xffffffffffffffffffffffffffffffffffffffff, 0x00)\n      dup2\n      mstore\n      0x20\n      add\n      0x60\n      dup2\n      mstore\n      0x20\n      add\n      0x00\n      dup2\n      mstore\n      0x20\n      add\n      0x00\n      dup2\n      mstore\n      pop\n      swap1\n      jump\t// out\n    tag_147:\n    tag_148:\n      dup1\n      dup3\n      gt\n      iszero\n      tag_149\n      jumpi\n      0x00\n      dup1\n      dup3\n      add\n      0x00\n      swap1\n      sstore\n      0x01\n      dup3\n      add\n      exp(0x0100, 0x00)\n      dup2\n      sload\n      swap1\n      0xffffffffffffffffffffffffffffffffffffffff\n      mul\n      not\n      and\n      swap1\n      sstore\n      0x02\n      dup3\n      add\n      0x00\n      tag_150\n      swap2\n      swap1\n      tag_151\n      jump\t// in\n    tag_150:\n      0x03\n      dup3\n      add\n      0x00\n      swap1\n      sstore\n      0x04\n      dup3\n      add\n      0x00\n      swap1\n      sstore\n      pop\n      0x05\n      add\n      jump(tag_148)\n    tag_149:\n      pop\n      swap1\n      jump\t// out\n    tag_151:\n      pop\n      dup1\n      sload\n      tag_152\n      swap1\n      tag_61\n      jump\t// in\n    tag_152:\n      0x00\n      dup3\n      sstore\n      dup1\n      0x1f\n      lt\n      tag_154\n      jumpi\n      pop\n      jump(tag_153)\n    tag_154:\n      0x1f\n      add\n      0x20\n      swap1\n      div\n      swap1\n      0x00\n      mstore\n      keccak256(0x00, 0x20)\n      swap1\n      dup2\n      add\n      swap1\n      tag_155\n      swap2\n      swap1\n      tag_156\n      jump\t// in\n    tag_155:\n    tag_153:\n      pop\n      jump\t// out\n    tag_156:\n    tag_157:\n      dup1\n      dup3\n      gt\n      iszero\n      tag_158\n      jumpi\n      0x00\n      dup2\n      0x00\n      swap1\n      sstore\n      pop\n      0x01\n      add\n      jump(tag_157)\n    tag_158:\n      pop\n      swap1\n      jump\t// out\n        /* \"#utility.yul\":7:82   */\n    tag_159:\n        /* \"#utility.yul\":40:46   */\n      0x00\n        /* \"#utility.yul\":73:75   */\n      0x40\n        /* \"#utility.yul\":67:76   */\n      mload\n        /* \"#utility.yul\":57:76   */\n      swap1\n      pop\n        /* \"#utility.yul\":7:82   */\n      swap1\n      jump\t// out\n        /* \"#utility.yul\":88:205   */\n    tag_160:\n        /* \"#utility.yul\":197:198   */\n      0x00\n        /* \"#utility.yul\":194:195   */\n      dup1\n        /* \"#utility.yul\":187:199   */\n      revert\n        /* \"#utility.yul\":211:328   */\n    tag_161:\n        /* \"#utility.yul\":320:321   */\n      0x00\n        /* \"#utility.yul\":317:318   */\n      dup1\n        /* \"#utility.yul\":310:322   */\n      revert\n        /* \"#utility.yul\":334:460   */\n    tag_162:\n        /* \"#utility.yul\":371:378   */\n      0x00\n        /* \"#utility.yul\":411:453   */\n      0xffffffffffffffffffffffffffffffffffffffff\n        /* \"#utility.yul\":404:409   */\n      dup3\n        /* \"#utility.yul\":400:454   */\n      and\n        /* \"#utility.yul\":389:454   */\n      swap1\n      pop\n        /* \"#utility.yul\":334:460   */\n      swap2\n      swap1\n      pop\n      jump\t// out\n        /* \"#utility.yul\":466:562   */\n    tag_163:\n        /* \"#utility.yul\":503:510   */\n      0x00\n        /* \"#utility.yul\":532:556   */\n      tag_234\n        /* \"#utility.yul\":550:555   */\n      dup3\n        /* \"#utility.yul\":532:556   */\n      tag_162\n      jump\t// in\n    tag_234:\n        /* \"#utility.yul\":521:556   */\n      swap1\n      pop\n        /* \"#utility.yul\":466:562   */\n      swap2\n      swap1\n      pop\n      jump\t// out\n        /* \"#utility.yul\":568:690   */\n    tag_164:\n        /* \"#utility.yul\":641:665   */\n      tag_236\n        /* \"#utility.yul\":659:664   */\n      dup2\n        /* \"#utility.yul\":641:665   */\n      tag_163\n      jump\t// in\n    tag_236:\n        /* \"#utility.yul\":634:639   */\n      dup2\n        /* \"#utility.yul\":631:666   */\n      eq\n        /* \"#utility.yul\":621:684   */\n      tag_237\n      jumpi\n        /* \"#utility.yul\":680:681   */\n      0x00\n        /* \"#utility.yul\":677:678   */\n      dup1\n        /* \"#utility.yul\":670:682   */\n      revert\n        /* \"#utility.yul\":621:684   */\n    tag_237:\n        /* \"#utility.yul\":568:690   */\n      pop\n      jump\t// out\n        /* \"#utility.yul\":696:835   */\n    tag_165:\n        /* \"#utility.yul\":742:747   */\n      0x00\n        /* \"#utility.yul\":780:786   */\n      dup2\n        /* \"#utility.yul\":767:787   */\n      calldataload\n        /* \"#utility.yul\":758:787   */\n      swap1\n      pop\n        /* \"#utility.yul\":796:829   */\n      tag_239\n        /* \"#utility.yul\":823:828   */\n      dup2\n        /* \"#utility.yul\":796:829   */\n      tag_164\n      jump\t// in\n    tag_239:\n        /* \"#utility.yul\":696:835   */\n      swap3\n      swap2\n      pop\n      pop\n      jump\t// out\n        /* \"#utility.yul\":841:918   */\n    tag_166:\n        /* \"#utility.yul\":878:885   */\n      0x00\n        /* \"#utility.yul\":907:912   */\n      dup2\n        /* \"#utility.yul\":896:912   */\n      swap1\n      pop\n        /* \"#utility.yul\":841:918   */\n      swap2\n      swap1\n      pop\n      jump\t// out\n        /* \"#utility.yul\":924:1046   */\n    tag_167:\n        /* \"#utility.yul\":997:1021   */\n      tag_242\n        /* \"#utility.yul\":1015:1020   */\n      dup2\n        /* \"#utility.yul\":997:1021   */\n      tag_166\n      jump\t// in\n    tag_242:\n        /* \"#utility.yul\":990:995   */\n      dup2\n        /* \"#utility.yul\":987:1022   */\n      eq\n        /* \"#utility.yul\":977:1040   */\n      tag_243\n      jumpi\n        /* \"#utility.yul\":1036:1037   */\n      0x00\n        /* \"#utility.yul\":1033:1034   */\n      dup1\n        /* \"#utility.yul\":1026:1038   */\n      revert\n        /* \"#utility.yul\":977:1040   */\n    tag_243:\n        /* \"#utility.yul\":924:1046   */\n      pop\n      jump\t// out\n        /* \"#utility.yul\":1052:1191   */\n    tag_168:\n        /* \"#utility.yul\":1098:1103   */\n      0x00\n        /* \"#utility.yul\":1136:1142   */\n      dup2\n        /* \"#utility.yul\":1123:1143   */\n      calldataload\n        /* \"#utility.yul\":1114:1143   */\n      swap1\n      pop\n        /* \"#utility.yul\":1152:1185   */\n      tag_245\n        /* \"#utility.yul\":1179:1184   */\n      dup2\n        /* \"#utility.yul\":1152:1185   */\n      tag_167\n      jump\t// in\n    tag_245:\n        /* \"#utility.yul\":1052:1191   */\n      swap3\n      swap2\n      pop\n      pop\n      jump\t// out\n        /* \"#utility.yul\":1197:1671   */\n    tag_16:\n        /* \"#utility.yul\":1265:1271   */\n      0x00\n        /* \"#utility.yul\":1273:1279   */\n      dup1\n        /* \"#utility.yul\":1322:1324   */\n      0x40\n        /* \"#utility.yul\":1310:1319   */\n      dup4\n        /* \"#utility.yul\":1301:1308   */\n      dup6\n        /* \"#utility.yul\":1297:1320   */\n      sub\n        /* \"#utility.yul\":1293:1325   */\n      slt\n        /* \"#utility.yul\":1290:1409   */\n      iszero\n      tag_247\n      jumpi\n        /* \"#utility.yul\":1328:1407   */\n      tag_248\n      tag_160\n      jump\t// in\n    tag_248:\n        /* \"#utility.yul\":1290:1409   */\n    tag_247:\n        /* \"#utility.yul\":1448:1449   */\n      0x00\n        /* \"#utility.yul\":1473:1526   */\n      tag_249\n        /* \"#utility.yul\":1518:1525   */\n      dup6\n        /* \"#utility.yul\":1509:1515   */\n      dup3\n        /* \"#utility.yul\":1498:1507   */\n      dup7\n        /* \"#utility.yul\":1494:1516   */\n      add\n        /* \"#utility.yul\":1473:1526   */\n      tag_165\n      jump\t// in\n    tag_249:\n        /* \"#utility.yul\":1463:1526   */\n      swap3\n      pop\n        /* \"#utility.yul\":1419:1536   */\n      pop\n        /* \"#utility.yul\":1575:1577   */\n      0x20\n        /* \"#utility.yul\":1601:1654   */\n      tag_250\n        /* \"#utility.yul\":1646:1653   */\n      dup6\n        /* \"#utility.yul\":1637:1643   */\n      dup3\n        /* \"#utility.yul\":1626:1635   */\n      dup7\n        /* \"#utility.yul\":1622:1644   */\n      add\n        /* \"#utility.yul\":1601:1654   */\n      tag_168\n      jump\t// in\n    tag_250:\n        /* \"#utility.yul\":1591:1654   */\n      swap2\n      pop\n        /* \"#utility.yul\":1546:1664   */\n      pop\n        /* \"#utility.yul\":1197:1671   */\n      swap3\n      pop\n      swap3\n      swap1\n      pop\n      jump\t// out\n        /* \"#utility.yul\":1677:1795   */\n    tag_169:\n        /* \"#utility.yul\":1764:1788   */\n      tag_252\n        /* \"#utility.yul\":1782:1787   */\n      dup2\n        /* \"#utility.yul\":1764:1788   */\n      tag_166\n      jump\t// in\n    tag_252:\n        /* \"#utility.yul\":1759:1762   */\n      dup3\n        /* \"#utility.yul\":1752:1789   */\n      mstore\n        /* \"#utility.yul\":1677:1795   */\n      pop\n      pop\n      jump\t// out\n        /* \"#utility.yul\":1801:1919   */\n    tag_170:\n        /* \"#utility.yul\":1888:1912   */\n      tag_254\n        /* \"#utility.yul\":1906:1911   */\n      dup2\n        /* \"#utility.yul\":1888:1912   */\n      tag_163\n      jump\t// in\n    tag_254:\n        /* \"#utility.yul\":1883:1886   */\n      dup3\n        /* \"#utility.yul\":1876:1913   */\n      mstore\n        /* \"#utility.yul\":1801:1919   */\n      pop\n      pop\n      jump\t// out\n        /* \"#utility.yul\":1925:2024   */\n    tag_171:\n        /* \"#utility.yul\":1977:1983   */\n      0x00\n        /* \"#utility.yul\":2011:2016   */\n      dup2\n        /* \"#utility.yul\":2005:2017   */\n      mload\n        /* \"#utility.yul\":1995:2017   */\n      swap1\n      pop\n        /* \"#utility.yul\":1925:2024   */\n      swap2\n      swap1\n      pop\n      jump\t// out\n        /* \"#utility.yul\":2030:2199   */\n    tag_172:\n        /* \"#utility.yul\":2114:2125   */\n      0x00\n        /* \"#utility.yul\":2148:2154   */\n      dup3\n        /* \"#utility.yul\":2143:2146   */\n      dup3\n        /* \"#utility.yul\":2136:2155   */\n      mstore\n        /* \"#utility.yul\":2188:2192   */\n      0x20\n        /* \"#utility.yul\":2183:2186   */\n      dup3\n        /* \"#utility.yul\":2179:2193   */\n      add\n        /* \"#utility.yul\":2164:2193   */\n      swap1\n      pop\n        /* \"#utility.yul\":2030:2199   */\n      swap3\n      swap2\n      pop\n      pop\n      jump\t// out\n        /* \"#utility.yul\":2205:2344   */\n    tag_173:\n        /* \"#utility.yul\":2294:2300   */\n      dup3\n        /* \"#utility.yul\":2289:2292   */\n      dup2\n        /* \"#utility.yul\":2284:2287   */\n      dup4\n        /* \"#utility.yul\":2278:2301   */\n      mcopy\n        /* \"#utility.yul\":2335:2336   */\n      0x00\n        /* \"#utility.yul\":2326:2332   */\n      dup4\n        /* \"#utility.yul\":2321:2324   */\n      dup4\n        /* \"#utility.yul\":2317:2333   */\n      add\n        /* \"#utility.yul\":2310:2337   */\n      mstore\n        /* \"#utility.yul\":2205:2344   */\n      pop\n      pop\n      pop\n      jump\t// out\n        /* \"#utility.yul\":2350:2452   */\n    tag_174:\n        /* \"#utility.yul\":2391:2397   */\n      0x00\n        /* \"#utility.yul\":2442:2444   */\n      0x1f\n        /* \"#utility.yul\":2438:2445   */\n      not\n        /* \"#utility.yul\":2433:2435   */\n      0x1f\n        /* \"#utility.yul\":2426:2431   */\n      dup4\n        /* \"#utility.yul\":2422:2436   */\n      add\n        /* \"#utility.yul\":2418:2446   */\n      and\n        /* \"#utility.yul\":2408:2446   */\n      swap1\n      pop\n        /* \"#utility.yul\":2350:2452   */\n      swap2\n      swap1\n      pop\n      jump\t// out\n        /* \"#utility.yul\":2458:2835   */\n    tag_175:\n        /* \"#utility.yul\":2546:2549   */\n      0x00\n        /* \"#utility.yul\":2574:2613   */\n      tag_260\n        /* \"#utility.yul\":2607:2612   */\n      dup3\n        /* \"#utility.yul\":2574:2613   */\n      tag_171\n      jump\t// in\n    tag_260:\n        /* \"#utility.yul\":2629:2700   */\n      tag_261\n        /* \"#utility.yul\":2693:2699   */\n      dup2\n        /* \"#utility.yul\":2688:2691   */\n      dup6\n        /* \"#utility.yul\":2629:2700   */\n      tag_172\n      jump\t// in\n    tag_261:\n        /* \"#utility.yul\":2622:2700   */\n      swap4\n      pop\n        /* \"#utility.yul\":2709:2774   */\n      tag_262\n        /* \"#utility.yul\":2767:2773   */\n      dup2\n        /* \"#utility.yul\":2762:2765   */\n      dup6\n        /* \"#utility.yul\":2755:2759   */\n      0x20\n        /* \"#utility.yul\":2748:2753   */\n      dup7\n        /* \"#utility.yul\":2744:2760   */\n      add\n        /* \"#utility.yul\":2709:2774   */\n      tag_173\n      jump\t// in\n    tag_262:\n        /* \"#utility.yul\":2799:2828   */\n      tag_263\n        /* \"#utility.yul\":2821:2827   */\n      dup2\n        /* \"#utility.yul\":2799:2828   */\n      tag_174\n      jump\t// in\n    tag_263:\n        /* \"#utility.yul\":2794:2797   */\n      dup5\n        /* \"#utility.yul\":2790:2829   */\n      add\n        /* \"#utility.yul\":2783:2829   */\n      swap2\n      pop\n        /* \"#utility.yul\":2550:2835   */\n      pop\n        /* \"#utility.yul\":2458:2835   */\n      swap3\n      swap2\n      pop\n      pop\n      jump\t// out\n        /* \"#utility.yul\":2841:3596   */\n    tag_19:\n        /* \"#utility.yul\":3066:3070   */\n      0x00\n        /* \"#utility.yul\":3104:3107   */\n      0xa0\n        /* \"#utility.yul\":3093:3102   */\n      dup3\n        /* \"#utility.yul\":3089:3108   */\n      add\n        /* \"#utility.yul\":3081:3108   */\n      swap1\n      pop\n        /* \"#utility.yul\":3118:3189   */\n      tag_265\n        /* \"#utility.yul\":3186:3187   */\n      0x00\n        /* \"#utility.yul\":3175:3184   */\n      dup4\n        /* \"#utility.yul\":3171:3188   */\n      add\n        /* \"#utility.yul\":3162:3168   */\n      dup9\n        /* \"#utility.yul\":3118:3189   */\n      tag_169\n      jump\t// in\n    tag_265:\n        /* \"#utility.yul\":3199:3271   */\n      tag_266\n        /* \"#utility.yul\":3267:3269   */\n      0x20\n        /* \"#utility.yul\":3256:3265   */\n      dup4\n        /* \"#utility.yul\":3252:3270   */\n      add\n        /* \"#utility.yul\":3243:3249   */\n      dup8\n        /* \"#utility.yul\":3199:3271   */\n      tag_170\n      jump\t// in\n    tag_266:\n        /* \"#utility.yul\":3318:3327   */\n      dup2\n        /* \"#utility.yul\":3312:3316   */\n      dup2\n        /* \"#utility.yul\":3308:3328   */\n      sub\n        /* \"#utility.yul\":3303:3305   */\n      0x40\n        /* \"#utility.yul\":3292:3301   */\n      dup4\n        /* \"#utility.yul\":3288:3306   */\n      add\n        /* \"#utility.yul\":3281:3329   */\n      mstore\n        /* \"#utility.yul\":3346:3424   */\n      tag_267\n        /* \"#utility.yul\":3419:3423   */\n      dup2\n        /* \"#utility.yul\":3410:3416   */\n      dup7\n        /* \"#utility.yul\":3346:3424   */\n      tag_175\n      jump\t// in\n    tag_267:\n        /* \"#utility.yul\":3338:3424   */\n      swap1\n      pop\n        /* \"#utility.yul\":3434:3506   */\n      tag_268\n        /* \"#utility.yul\":3502:3504   */\n      0x60\n        /* \"#utility.yul\":3491:3500   */\n      dup4\n        /* \"#utility.yul\":3487:3505   */\n      add\n        /* \"#utility.yul\":3478:3484   */\n      dup6\n        /* \"#utility.yul\":3434:3506   */\n      tag_169\n      jump\t// in\n    tag_268:\n        /* \"#utility.yul\":3516:3589   */\n      tag_269\n        /* \"#utility.yul\":3584:3587   */\n      0x80\n        /* \"#utility.yul\":3573:3582   */\n      dup4\n        /* \"#utility.yul\":3569:3588   */\n      add\n        /* \"#utility.yul\":3560:3566   */\n      dup5\n        /* \"#utility.yul\":3516:3589   */\n      tag_169\n      jump\t// in\n    tag_269:\n        /* \"#utility.yul\":2841:3596   */\n      swap7\n      swap6\n      pop\n      pop\n      pop\n      pop\n      pop\n      pop\n      jump\t// out\n        /* \"#utility.yul\":3602:3931   */\n    tag_22:\n        /* \"#utility.yul\":3661:3667   */\n      0x00\n        /* \"#utility.yul\":3710:3712   */\n      0x20\n        /* \"#utility.yul\":3698:3707   */\n      dup3\n        /* \"#utility.yul\":3689:3696   */\n      dup5\n        /* \"#utility.yul\":3685:3708   */\n      sub\n        /* \"#utility.yul\":3681:3713   */\n      slt\n        /* \"#utility.yul\":3678:3797   */\n      iszero\n      tag_271\n      jumpi\n        /* \"#utility.yul\":3716:3795   */\n      tag_272\n      tag_160\n      jump\t// in\n    tag_272:\n        /* \"#utility.yul\":3678:3797   */\n    tag_271:\n        /* \"#utility.yul\":3836:3837   */\n      0x00\n        /* \"#utility.yul\":3861:3914   */\n      tag_273\n        /* \"#utility.yul\":3906:3913   */\n      dup5\n        /* \"#utility.yul\":3897:3903   */\n      dup3\n        /* \"#utility.yul\":3886:3895   */\n      dup6\n        /* \"#utility.yul\":3882:3904   */\n      add\n        /* \"#utility.yul\":3861:3914   */\n      tag_165\n      jump\t// in\n    tag_273:\n        /* \"#utility.yul\":3851:3914   */\n      swap2\n      pop\n        /* \"#utility.yul\":3807:3924   */\n      pop\n        /* \"#utility.yul\":3602:3931   */\n      swap3\n      swap2\n      pop\n      pop\n      jump\t// out\n        /* \"#utility.yul\":3937:4072   */\n    tag_176:\n        /* \"#utility.yul\":4025:4031   */\n      0x00\n        /* \"#utility.yul\":4059:4064   */\n      dup2\n        /* \"#utility.yul\":4053:4065   */\n      mload\n        /* \"#utility.yul\":4043:4065   */\n      swap1\n      pop\n        /* \"#utility.yul\":3937:4072   */\n      swap2\n      swap1\n      pop\n      jump\t// out\n        /* \"#utility.yul\":4078:4283   */\n    tag_177:\n        /* \"#utility.yul\":4198:4209   */\n      0x00\n        /* \"#utility.yul\":4232:4238   */\n      dup3\n        /* \"#utility.yul\":4227:4230   */\n      dup3\n        /* \"#utility.yul\":4220:4239   */\n      mstore\n        /* \"#utility.yul\":4272:4276   */\n      0x20\n        /* \"#utility.yul\":4267:4270   */\n      dup3\n        /* \"#utility.yul\":4263:4277   */\n      add\n        /* \"#utility.yul\":4248:4277   */\n      swap1\n      pop\n        /* \"#utility.yul\":4078:4283   */\n      swap3\n      swap2\n      pop\n      pop\n      jump\t// out\n        /* \"#utility.yul\":4289:4442   */\n    tag_178:\n        /* \"#utility.yul\":4377:4381   */\n      0x00\n        /* \"#utility.yul\":4400:4403   */\n      dup2\n        /* \"#utility.yul\":4392:4403   */\n      swap1\n      pop\n        /* \"#utility.yul\":4430:4434   */\n      0x20\n        /* \"#utility.yul\":4425:4428   */\n      dup3\n        /* \"#utility.yul\":4421:4435   */\n      add\n        /* \"#utility.yul\":4413:4435   */\n      swap1\n      pop\n        /* \"#utility.yul\":4289:4442   */\n      swap2\n      swap1\n      pop\n      jump\t// out\n        /* \"#utility.yul\":4448:4556   */\n    tag_179:\n        /* \"#utility.yul\":4525:4549   */\n      tag_278\n        /* \"#utility.yul\":4543:4548   */\n      dup2\n        /* \"#utility.yul\":4525:4549   */\n      tag_166\n      jump\t// in\n    tag_278:\n        /* \"#utility.yul\":4520:4523   */\n      dup3\n        /* \"#utility.yul\":4513:4550   */\n      mstore\n        /* \"#utility.yul\":4448:4556   */\n      pop\n      pop\n      jump\t// out\n        /* \"#utility.yul\":4562:4670   */\n    tag_180:\n        /* \"#utility.yul\":4639:4663   */\n      tag_280\n        /* \"#utility.yul\":4657:4662   */\n      dup2\n        /* \"#utility.yul\":4639:4663   */\n      tag_163\n      jump\t// in\n    tag_280:\n        /* \"#utility.yul\":4634:4637   */\n      dup3\n        /* \"#utility.yul\":4627:4664   */\n      mstore\n        /* \"#utility.yul\":4562:4670   */\n      pop\n      pop\n      jump\t// out\n        /* \"#utility.yul\":4676:4835   */\n    tag_181:\n        /* \"#utility.yul\":4750:4761   */\n      0x00\n        /* \"#utility.yul\":4784:4790   */\n      dup3\n        /* \"#utility.yul\":4779:4782   */\n      dup3\n        /* \"#utility.yul\":4772:4791   */\n      mstore\n        /* \"#utility.yul\":4824:4828   */\n      0x20\n        /* \"#utility.yul\":4819:4822   */\n      dup3\n        /* \"#utility.yul\":4815:4829   */\n      add\n        /* \"#utility.yul\":4800:4829   */\n      swap1\n      pop\n        /* \"#utility.yul\":4676:4835   */\n      swap3\n      swap2\n      pop\n      pop\n      jump\t// out\n        /* \"#utility.yul\":4841:5198   */\n    tag_182:\n        /* \"#utility.yul\":4919:4922   */\n      0x00\n        /* \"#utility.yul\":4947:4986   */\n      tag_283\n        /* \"#utility.yul\":4980:4985   */\n      dup3\n        /* \"#utility.yul\":4947:4986   */\n      tag_171\n      jump\t// in\n    tag_283:\n        /* \"#utility.yul\":5002:5063   */\n      tag_284\n        /* \"#utility.yul\":5056:5062   */\n      dup2\n        /* \"#utility.yul\":5051:5054   */\n      dup6\n        /* \"#utility.yul\":5002:5063   */\n      tag_181\n      jump\t// in\n    tag_284:\n        /* \"#utility.yul\":4995:5063   */\n      swap4\n      pop\n        /* \"#utility.yul\":5072:5137   */\n      tag_285\n        /* \"#utility.yul\":5130:5136   */\n      dup2\n        /* \"#utility.yul\":5125:5128   */\n      dup6\n        /* \"#utility.yul\":5118:5122   */\n      0x20\n        /* \"#utility.yul\":5111:5116   */\n      dup7\n        /* \"#utility.yul\":5107:5123   */\n      add\n        /* \"#utility.yul\":5072:5137   */\n      tag_173\n      jump\t// in\n    tag_285:\n        /* \"#utility.yul\":5162:5191   */\n      tag_286\n        /* \"#utility.yul\":5184:5190   */\n      dup2\n        /* \"#utility.yul\":5162:5191   */\n      tag_174\n      jump\t// in\n    tag_286:\n        /* \"#utility.yul\":5157:5160   */\n      dup5\n        /* \"#utility.yul\":5153:5192   */\n      add\n        /* \"#utility.yul\":5146:5192   */\n      swap2\n      pop\n        /* \"#utility.yul\":4923:5198   */\n      pop\n        /* \"#utility.yul\":4841:5198   */\n      swap3\n      swap2\n      pop\n      pop\n      jump\t// out\n        /* \"#utility.yul\":5256:6375   */\n    tag_183:\n        /* \"#utility.yul\":5357:5360   */\n      0x00\n        /* \"#utility.yul\":5393:5397   */\n      0xa0\n        /* \"#utility.yul\":5388:5391   */\n      dup4\n        /* \"#utility.yul\":5384:5398   */\n      add\n        /* \"#utility.yul\":5478:5482   */\n      0x00\n        /* \"#utility.yul\":5471:5476   */\n      dup4\n        /* \"#utility.yul\":5467:5483   */\n      add\n        /* \"#utility.yul\":5461:5484   */\n      mload\n        /* \"#utility.yul\":5497:5560   */\n      tag_288\n        /* \"#utility.yul\":5554:5558   */\n      0x00\n        /* \"#utility.yul\":5549:5552   */\n      dup7\n        /* \"#utility.yul\":5545:5559   */\n      add\n        /* \"#utility.yul\":5531:5543   */\n      dup3\n        /* \"#utility.yul\":5497:5560   */\n      tag_179\n      jump\t// in\n    tag_288:\n        /* \"#utility.yul\":5408:5570   */\n      pop\n        /* \"#utility.yul\":5654:5658   */\n      0x20\n        /* \"#utility.yul\":5647:5652   */\n      dup4\n        /* \"#utility.yul\":5643:5659   */\n      add\n        /* \"#utility.yul\":5637:5660   */\n      mload\n        /* \"#utility.yul\":5673:5736   */\n      tag_289\n        /* \"#utility.yul\":5730:5734   */\n      0x20\n        /* \"#utility.yul\":5725:5728   */\n      dup7\n        /* \"#utility.yul\":5721:5735   */\n      add\n        /* \"#utility.yul\":5707:5719   */\n      dup3\n        /* \"#utility.yul\":5673:5736   */\n      tag_180\n      jump\t// in\n    tag_289:\n        /* \"#utility.yul\":5580:5746   */\n      pop\n        /* \"#utility.yul\":5831:5835   */\n      0x40\n        /* \"#utility.yul\":5824:5829   */\n      dup4\n        /* \"#utility.yul\":5820:5836   */\n      add\n        /* \"#utility.yul\":5814:5837   */\n      mload\n        /* \"#utility.yul\":5884:5887   */\n      dup5\n        /* \"#utility.yul\":5878:5882   */\n      dup3\n        /* \"#utility.yul\":5874:5888   */\n      sub\n        /* \"#utility.yul\":5867:5871   */\n      0x40\n        /* \"#utility.yul\":5862:5865   */\n      dup7\n        /* \"#utility.yul\":5858:5872   */\n      add\n        /* \"#utility.yul\":5851:5889   */\n      mstore\n        /* \"#utility.yul\":5910:5983   */\n      tag_290\n        /* \"#utility.yul\":5978:5982   */\n      dup3\n        /* \"#utility.yul\":5964:5976   */\n      dup3\n        /* \"#utility.yul\":5910:5983   */\n      tag_182\n      jump\t// in\n    tag_290:\n        /* \"#utility.yul\":5902:5983   */\n      swap2\n      pop\n        /* \"#utility.yul\":5756:5994   */\n      pop\n        /* \"#utility.yul\":6081:6085   */\n      0x60\n        /* \"#utility.yul\":6074:6079   */\n      dup4\n        /* \"#utility.yul\":6070:6086   */\n      add\n        /* \"#utility.yul\":6064:6087   */\n      mload\n        /* \"#utility.yul\":6100:6163   */\n      tag_291\n        /* \"#utility.yul\":6157:6161   */\n      0x60\n        /* \"#utility.yul\":6152:6155   */\n      dup7\n        /* \"#utility.yul\":6148:6162   */\n      add\n        /* \"#utility.yul\":6134:6146   */\n      dup3\n        /* \"#utility.yul\":6100:6163   */\n      tag_179\n      jump\t// in\n    tag_291:\n        /* \"#utility.yul\":6004:6173   */\n      pop\n        /* \"#utility.yul\":6256:6260   */\n      0x80\n        /* \"#utility.yul\":6249:6254   */\n      dup4\n        /* \"#utility.yul\":6245:6261   */\n      add\n        /* \"#utility.yul\":6239:6262   */\n      mload\n        /* \"#utility.yul\":6275:6338   */\n      tag_292\n        /* \"#utility.yul\":6332:6336   */\n      0x80\n        /* \"#utility.yul\":6327:6330   */\n      dup7\n        /* \"#utility.yul\":6323:6337   */\n      add\n        /* \"#utility.yul\":6309:6321   */\n      dup3\n        /* \"#utility.yul\":6275:6338   */\n      tag_179\n      jump\t// in\n    tag_292:\n        /* \"#utility.yul\":6183:6348   */\n      pop\n        /* \"#utility.yul\":6365:6369   */\n      dup1\n        /* \"#utility.yul\":6358:6369   */\n      swap2\n      pop\n        /* \"#utility.yul\":5362:6375   */\n      pop\n        /* \"#utility.yul\":5256:6375   */\n      swap3\n      swap2\n      pop\n      pop\n      jump\t// out\n        /* \"#utility.yul\":6381:6621   */\n    tag_184:\n        /* \"#utility.yul\":6492:6502   */\n      0x00\n        /* \"#utility.yul\":6527:6615   */\n      tag_294\n        /* \"#utility.yul\":6611:6614   */\n      dup4\n        /* \"#utility.yul\":6603:6609   */\n      dup4\n        /* \"#utility.yul\":6527:6615   */\n      tag_183\n      jump\t// in\n    tag_294:\n        /* \"#utility.yul\":6513:6615   */\n      swap1\n      pop\n        /* \"#utility.yul\":6381:6621   */\n      swap3\n      swap2\n      pop\n      pop\n      jump\t// out\n        /* \"#utility.yul\":6627:6761   */\n    tag_185:\n        /* \"#utility.yul\":6718:6722   */\n      0x00\n        /* \"#utility.yul\":6750:6754   */\n      0x20\n        /* \"#utility.yul\":6745:6748   */\n      dup3\n        /* \"#utility.yul\":6741:6755   */\n      add\n        /* \"#utility.yul\":6733:6755   */\n      swap1\n      pop\n        /* \"#utility.yul\":6627:6761   */\n      swap2\n      swap1\n      pop\n      jump\t// out\n        /* \"#utility.yul\":6823:7902   */\n    tag_186:\n        /* \"#utility.yul\":6984:6987   */\n      0x00\n        /* \"#utility.yul\":7013:7088   */\n      tag_297\n        /* \"#utility.yul\":7082:7087   */\n      dup3\n        /* \"#utility.yul\":7013:7088   */\n      tag_176\n      jump\t// in\n    tag_297:\n        /* \"#utility.yul\":7104:7211   */\n      tag_298\n        /* \"#utility.yul\":7204:7210   */\n      dup2\n        /* \"#utility.yul\":7199:7202   */\n      dup6\n        /* \"#utility.yul\":7104:7211   */\n      tag_177\n      jump\t// in\n    tag_298:\n        /* \"#utility.yul\":7097:7211   */\n      swap4\n      pop\n        /* \"#utility.yul\":7237:7240   */\n      dup4\n        /* \"#utility.yul\":7282:7286   */\n      0x20\n        /* \"#utility.yul\":7274:7280   */\n      dup3\n        /* \"#utility.yul\":7270:7287   */\n      mul\n        /* \"#utility.yul\":7265:7268   */\n      dup6\n        /* \"#utility.yul\":7261:7288   */\n      add\n        /* \"#utility.yul\":7312:7389   */\n      tag_299\n        /* \"#utility.yul\":7383:7388   */\n      dup6\n        /* \"#utility.yul\":7312:7389   */\n      tag_178\n      jump\t// in\n    tag_299:\n        /* \"#utility.yul\":7412:7419   */\n      dup1\n        /* \"#utility.yul\":7443:7444   */\n      0x00\n        /* \"#utility.yul\":7428:7857   */\n    tag_300:\n        /* \"#utility.yul\":7453:7459   */\n      dup6\n        /* \"#utility.yul\":7450:7451   */\n      dup2\n        /* \"#utility.yul\":7447:7460   */\n      lt\n        /* \"#utility.yul\":7428:7857   */\n      iszero\n      tag_302\n      jumpi\n        /* \"#utility.yul\":7524:7533   */\n      dup5\n        /* \"#utility.yul\":7518:7522   */\n      dup5\n        /* \"#utility.yul\":7514:7534   */\n      sub\n        /* \"#utility.yul\":7509:7512   */\n      dup10\n        /* \"#utility.yul\":7502:7535   */\n      mstore\n        /* \"#utility.yul\":7575:7581   */\n      dup2\n        /* \"#utility.yul\":7569:7582   */\n      mload\n        /* \"#utility.yul\":7603:7709   */\n      tag_303\n        /* \"#utility.yul\":7704:7708   */\n      dup6\n        /* \"#utility.yul\":7689:7702   */\n      dup3\n        /* \"#utility.yul\":7603:7709   */\n      tag_184\n      jump\t// in\n    tag_303:\n        /* \"#utility.yul\":7595:7709   */\n      swap5\n      pop\n        /* \"#utility.yul\":7732:7813   */\n      tag_304\n        /* \"#utility.yul\":7806:7812   */\n      dup4\n        /* \"#utility.yul\":7732:7813   */\n      tag_185\n      jump\t// in\n    tag_304:\n        /* \"#utility.yul\":7722:7813   */\n      swap3\n      pop\n        /* \"#utility.yul\":7842:7846   */\n      0x20\n        /* \"#utility.yul\":7837:7840   */\n      dup11\n        /* \"#utility.yul\":7833:7847   */\n      add\n        /* \"#utility.yul\":7826:7847   */\n      swap10\n      pop\n        /* \"#utility.yul\":7488:7857   */\n      pop\n        /* \"#utility.yul\":7475:7476   */\n      0x01\n        /* \"#utility.yul\":7472:7473   */\n      dup2\n        /* \"#utility.yul\":7468:7477   */\n      add\n        /* \"#utility.yul\":7463:7477   */\n      swap1\n      pop\n        /* \"#utility.yul\":7428:7857   */\n      jump(tag_300)\n    tag_302:\n        /* \"#utility.yul\":7432:7446   */\n      pop\n        /* \"#utility.yul\":7873:7877   */\n      dup3\n        /* \"#utility.yul\":7866:7877   */\n      swap8\n      pop\n        /* \"#utility.yul\":7893:7896   */\n      dup8\n        /* \"#utility.yul\":7886:7896   */\n      swap6\n      pop\n        /* \"#utility.yul\":6989:7902   */\n      pop\n      pop\n      pop\n      pop\n      pop\n        /* \"#utility.yul\":6823:7902   */\n      swap3\n      swap2\n      pop\n      pop\n      jump\t// out\n        /* \"#utility.yul\":7908:8365   */\n    tag_25:\n        /* \"#utility.yul\":8093:8097   */\n      0x00\n        /* \"#utility.yul\":8131:8133   */\n      0x20\n        /* \"#utility.yul\":8120:8129   */\n      dup3\n        /* \"#utility.yul\":8116:8134   */\n      add\n        /* \"#utility.yul\":8108:8134   */\n      swap1\n      pop\n        /* \"#utility.yul\":8180:8189   */\n      dup2\n        /* \"#utility.yul\":8174:8178   */\n      dup2\n        /* \"#utility.yul\":8170:8190   */\n      sub\n        /* \"#utility.yul\":8166:8167   */\n      0x00\n        /* \"#utility.yul\":8155:8164   */\n      dup4\n        /* \"#utility.yul\":8151:8168   */\n      add\n        /* \"#utility.yul\":8144:8191   */\n      mstore\n        /* \"#utility.yul\":8208:8358   */\n      tag_306\n        /* \"#utility.yul\":8353:8357   */\n      dup2\n        /* \"#utility.yul\":8344:8350   */\n      dup5\n        /* \"#utility.yul\":8208:8358   */\n      tag_186\n      jump\t// in\n    tag_306:\n        /* \"#utility.yul\":8200:8358   */\n      swap1\n      pop\n        /* \"#utility.yul\":7908:8365   */\n      swap3\n      swap2\n      pop\n      pop\n      jump\t// out\n        /* \"#utility.yul\":8371:8460   */\n    tag_187:\n        /* \"#utility.yul\":8407:8414   */\n      0x00\n        /* \"#utility.yul\":8447:8453   */\n      0xffff\n        /* \"#utility.yul\":8440:8445   */\n      dup3\n        /* \"#utility.yul\":8436:8454   */\n      and\n        /* \"#utility.yul\":8425:8454   */\n      swap1\n      pop\n        /* \"#utility.yul\":8371:8460   */\n      swap2\n      swap1\n      pop\n      jump\t// out\n        /* \"#utility.yul\":8466:8586   */\n    tag_188:\n        /* \"#utility.yul\":8538:8561   */\n      tag_309\n        /* \"#utility.yul\":8555:8560   */\n      dup2\n        /* \"#utility.yul\":8538:8561   */\n      tag_187\n      jump\t// in\n    tag_309:\n        /* \"#utility.yul\":8531:8536   */\n      dup2\n        /* \"#utility.yul\":8528:8562   */\n      eq\n        /* \"#utility.yul\":8518:8580   */\n      tag_310\n      jumpi\n        /* \"#utility.yul\":8576:8577   */\n      0x00\n        /* \"#utility.yul\":8573:8574   */\n      dup1\n        /* \"#utility.yul\":8566:8578   */\n      revert\n        /* \"#utility.yul\":8518:8580   */\n    tag_310:\n        /* \"#utility.yul\":8466:8586   */\n      pop\n      jump\t// out\n        /* \"#utility.yul\":8592:8729   */\n    tag_189:\n        /* \"#utility.yul\":8637:8642   */\n      0x00\n        /* \"#utility.yul\":8675:8681   */\n      dup2\n        /* \"#utility.yul\":8662:8682   */\n      calldataload\n        /* \"#utility.yul\":8653:8682   */\n      swap1\n      pop\n        /* \"#utility.yul\":8691:8723   */\n      tag_312\n        /* \"#utility.yul\":8717:8722   */\n      dup2\n        /* \"#utility.yul\":8691:8723   */\n      tag_188\n      jump\t// in\n    tag_312:\n        /* \"#utility.yul\":8592:8729   */\n      swap3\n      swap2\n      pop\n      pop\n      jump\t// out\n        /* \"#utility.yul\":8735:9062   */\n    tag_31:\n        /* \"#utility.yul\":8793:8799   */\n      0x00\n        /* \"#utility.yul\":8842:8844   */\n      0x20\n        /* \"#utility.yul\":8830:8839   */\n      dup3\n        /* \"#utility.yul\":8821:8828   */\n      dup5\n        /* \"#utility.yul\":8817:8840   */\n      sub\n        /* \"#utility.yul\":8813:8845   */\n      slt\n        /* \"#utility.yul\":8810:8929   */\n      iszero\n      tag_314\n      jumpi\n        /* \"#utility.yul\":8848:8927   */\n      tag_315\n      tag_160\n      jump\t// in\n    tag_315:\n        /* \"#utility.yul\":8810:8929   */\n    tag_314:\n        /* \"#utility.yul\":8968:8969   */\n      0x00\n        /* \"#utility.yul\":8993:9045   */\n      tag_316\n        /* \"#utility.yul\":9037:9044   */\n      dup5\n        /* \"#utility.yul\":9028:9034   */\n      dup3\n        /* \"#utility.yul\":9017:9026   */\n      dup6\n        /* \"#utility.yul\":9013:9035   */\n      add\n        /* \"#utility.yul\":8993:9045   */\n      tag_189\n      jump\t// in\n    tag_316:\n        /* \"#utility.yul\":8983:9045   */\n      swap2\n      pop\n        /* \"#utility.yul\":8939:9055   */\n      pop\n        /* \"#utility.yul\":8735:9062   */\n      swap3\n      swap2\n      pop\n      pop\n      jump\t// out\n        /* \"#utility.yul\":9068:9183   */\n    tag_190:\n        /* \"#utility.yul\":9153:9176   */\n      tag_318\n        /* \"#utility.yul\":9170:9175   */\n      dup2\n        /* \"#utility.yul\":9153:9176   */\n      tag_187\n      jump\t// in\n    tag_318:\n        /* \"#utility.yul\":9148:9151   */\n      dup3\n        /* \"#utility.yul\":9141:9177   */\n      mstore\n        /* \"#utility.yul\":9068:9183   */\n      pop\n      pop\n      jump\t// out\n        /* \"#utility.yul\":9189:9407   */\n    tag_36:\n        /* \"#utility.yul\":9280:9284   */\n      0x00\n        /* \"#utility.yul\":9318:9320   */\n      0x20\n        /* \"#utility.yul\":9307:9316   */\n      dup3\n        /* \"#utility.yul\":9303:9321   */\n      add\n        /* \"#utility.yul\":9295:9321   */\n      swap1\n      pop\n        /* \"#utility.yul\":9331:9400   */\n      tag_320\n        /* \"#utility.yul\":9397:9398   */\n      0x00\n        /* \"#utility.yul\":9386:9395   */\n      dup4\n        /* \"#utility.yul\":9382:9399   */\n      add\n        /* \"#utility.yul\":9373:9379   */\n      dup5\n        /* \"#utility.yul\":9331:9400   */\n      tag_190\n      jump\t// in\n    tag_320:\n        /* \"#utility.yul\":9189:9407   */\n      swap3\n      swap2\n      pop\n      pop\n      jump\t// out\n        /* \"#utility.yul\":9413:9530   */\n    tag_191:\n        /* \"#utility.yul\":9522:9523   */\n      0x00\n        /* \"#utility.yul\":9519:9520   */\n      dup1\n        /* \"#utility.yul\":9512:9524   */\n      revert\n        /* \"#utility.yul\":9536:9653   */\n    tag_192:\n        /* \"#utility.yul\":9645:9646   */\n      0x00\n        /* \"#utility.yul\":9642:9643   */\n      dup1\n        /* \"#utility.yul\":9635:9647   */\n      revert\n        /* \"#utility.yul\":9659:9839   */\n    tag_193:\n        /* \"#utility.yul\":9707:9784   */\n      0x4e487b7100000000000000000000000000000000000000000000000000000000\n        /* \"#utility.yul\":9704:9705   */\n      0x00\n        /* \"#utility.yul\":9697:9785   */\n      mstore\n        /* \"#utility.yul\":9804:9808   */\n      0x41\n        /* \"#utility.yul\":9801:9802   */\n      0x04\n        /* \"#utility.yul\":9794:9809   */\n      mstore\n        /* \"#utility.yul\":9828:9832   */\n      0x24\n        /* \"#utility.yul\":9825:9826   */\n      0x00\n        /* \"#utility.yul\":9818:9833   */\n      revert\n        /* \"#utility.yul\":9845:10126   */\n    tag_194:\n        /* \"#utility.yul\":9928:9955   */\n      tag_325\n        /* \"#utility.yul\":9950:9954   */\n      dup3\n        /* \"#utility.yul\":9928:9955   */\n      tag_174\n      jump\t// in\n    tag_325:\n        /* \"#utility.yul\":9920:9926   */\n      dup2\n        /* \"#utility.yul\":9916:9956   */\n      add\n        /* \"#utility.yul\":10058:10064   */\n      dup2\n        /* \"#utility.yul\":10046:10056   */\n      dup2\n        /* \"#utility.yul\":10043:10065   */\n      lt\n        /* \"#utility.yul\":10022:10040   */\n      0xffffffffffffffff\n        /* \"#utility.yul\":10010:10020   */\n      dup3\n        /* \"#utility.yul\":10007:10041   */\n      gt\n        /* \"#utility.yul\":10004:10066   */\n      or\n        /* \"#utility.yul\":10001:10089   */\n      iszero\n      tag_326\n      jumpi\n        /* \"#utility.yul\":10069:10087   */\n      tag_327\n      tag_193\n      jump\t// in\n    tag_327:\n        /* \"#utility.yul\":10001:10089   */\n    tag_326:\n        /* \"#utility.yul\":10109:10119   */\n      dup1\n        /* \"#utility.yul\":10105:10107   */\n      0x40\n        /* \"#utility.yul\":10098:10120   */\n      mstore\n        /* \"#utility.yul\":9888:10126   */\n      pop\n        /* \"#utility.yul\":9845:10126   */\n      pop\n      pop\n      jump\t// out\n        /* \"#utility.yul\":10132:10261   */\n    tag_195:\n        /* \"#utility.yul\":10166:10172   */\n      0x00\n        /* \"#utility.yul\":10193:10213   */\n      tag_329\n      tag_159\n      jump\t// in\n    tag_329:\n        /* \"#utility.yul\":10183:10213   */\n      swap1\n      pop\n        /* \"#utility.yul\":10222:10255   */\n      tag_330\n        /* \"#utility.yul\":10250:10254   */\n      dup3\n        /* \"#utility.yul\":10242:10248   */\n      dup3\n        /* \"#utility.yul\":10222:10255   */\n      tag_194\n      jump\t// in\n    tag_330:\n        /* \"#utility.yul\":10132:10261   */\n      swap2\n      swap1\n      pop\n      jump\t// out\n        /* \"#utility.yul\":10267:10575   */\n    tag_196:\n        /* \"#utility.yul\":10329:10333   */\n      0x00\n        /* \"#utility.yul\":10419:10437   */\n      0xffffffffffffffff\n        /* \"#utility.yul\":10411:10417   */\n      dup3\n        /* \"#utility.yul\":10408:10438   */\n      gt\n        /* \"#utility.yul\":10405:10461   */\n      iszero\n      tag_332\n      jumpi\n        /* \"#utility.yul\":10441:10459   */\n      tag_333\n      tag_193\n      jump\t// in\n    tag_333:\n        /* \"#utility.yul\":10405:10461   */\n    tag_332:\n        /* \"#utility.yul\":10479:10508   */\n      tag_334\n        /* \"#utility.yul\":10501:10507   */\n      dup3\n        /* \"#utility.yul\":10479:10508   */\n      tag_174\n      jump\t// in\n    tag_334:\n        /* \"#utility.yul\":10471:10508   */\n      swap1\n      pop\n        /* \"#utility.yul\":10563:10567   */\n      0x20\n        /* \"#utility.yul\":10557:10561   */\n      dup2\n        /* \"#utility.yul\":10553:10568   */\n      add\n        /* \"#utility.yul\":10545:10568   */\n      swap1\n      pop\n        /* \"#utility.yul\":10267:10575   */\n      swap2\n      swap1\n      pop\n      jump\t// out\n        /* \"#utility.yul\":10581:10729   */\n    tag_197:\n        /* \"#utility.yul\":10679:10685   */\n      dup3\n        /* \"#utility.yul\":10674:10677   */\n      dup2\n        /* \"#utility.yul\":10669:10672   */\n      dup4\n        /* \"#utility.yul\":10656:10686   */\n      calldatacopy\n        /* \"#utility.yul\":10720:10721   */\n      0x00\n        /* \"#utility.yul\":10711:10717   */\n      dup4\n        /* \"#utility.yul\":10706:10709   */\n      dup4\n        /* \"#utility.yul\":10702:10718   */\n      add\n        /* \"#utility.yul\":10695:10722   */\n      mstore\n        /* \"#utility.yul\":10581:10729   */\n      pop\n      pop\n      pop\n      jump\t// out\n        /* \"#utility.yul\":10735:11160   */\n    tag_198:\n        /* \"#utility.yul\":10813:10818   */\n      0x00\n        /* \"#utility.yul\":10838:10904   */\n      tag_337\n        /* \"#utility.yul\":10854:10903   */\n      tag_338\n        /* \"#utility.yul\":10896:10902   */\n      dup5\n        /* \"#utility.yul\":10854:10903   */\n      tag_196\n      jump\t// in\n    tag_338:\n        /* \"#utility.yul\":10838:10904   */\n      tag_195\n      jump\t// in\n    tag_337:\n        /* \"#utility.yul\":10829:10904   */\n      swap1\n      pop\n        /* \"#utility.yul\":10927:10933   */\n      dup3\n        /* \"#utility.yul\":10920:10925   */\n      dup2\n        /* \"#utility.yul\":10913:10934   */\n      mstore\n        /* \"#utility.yul\":10965:10969   */\n      0x20\n        /* \"#utility.yul\":10958:10963   */\n      dup2\n        /* \"#utility.yul\":10954:10970   */\n      add\n        /* \"#utility.yul\":11003:11006   */\n      dup5\n        /* \"#utility.yul\":10994:11000   */\n      dup5\n        /* \"#utility.yul\":10989:10992   */\n      dup5\n        /* \"#utility.yul\":10985:11001   */\n      add\n        /* \"#utility.yul\":10982:11007   */\n      gt\n        /* \"#utility.yul\":10979:11091   */\n      iszero\n      tag_339\n      jumpi\n        /* \"#utility.yul\":11010:11089   */\n      tag_340\n      tag_192\n      jump\t// in\n    tag_340:\n        /* \"#utility.yul\":10979:11091   */\n    tag_339:\n        /* \"#utility.yul\":11100:11154   */\n      tag_341\n        /* \"#utility.yul\":11147:11153   */\n      dup5\n        /* \"#utility.yul\":11142:11145   */\n      dup3\n        /* \"#utility.yul\":11137:11140   */\n      dup6\n        /* \"#utility.yul\":11100:11154   */\n      tag_197\n      jump\t// in\n    tag_341:\n        /* \"#utility.yul\":10819:11160   */\n      pop\n        /* \"#utility.yul\":10735:11160   */\n      swap4\n      swap3\n      pop\n      pop\n      pop\n      jump\t// out\n        /* \"#utility.yul\":11180:11520   */\n    tag_199:\n        /* \"#utility.yul\":11236:11241   */\n      0x00\n        /* \"#utility.yul\":11285:11288   */\n      dup3\n        /* \"#utility.yul\":11278:11282   */\n      0x1f\n        /* \"#utility.yul\":11270:11276   */\n      dup4\n        /* \"#utility.yul\":11266:11283   */\n      add\n        /* \"#utility.yul\":11262:11289   */\n      slt\n        /* \"#utility.yul\":11252:11374   */\n      tag_343\n      jumpi\n        /* \"#utility.yul\":11293:11372   */\n      tag_344\n      tag_191\n      jump\t// in\n    tag_344:\n        /* \"#utility.yul\":11252:11374   */\n    tag_343:\n        /* \"#utility.yul\":11410:11416   */\n      dup2\n        /* \"#utility.yul\":11397:11417   */\n      calldataload\n        /* \"#utility.yul\":11435:11514   */\n      tag_345\n        /* \"#utility.yul\":11510:11513   */\n      dup5\n        /* \"#utility.yul\":11502:11508   */\n      dup3\n        /* \"#utility.yul\":11495:11499   */\n      0x20\n        /* \"#utility.yul\":11487:11493   */\n      dup7\n        /* \"#utility.yul\":11483:11500   */\n      add\n        /* \"#utility.yul\":11435:11514   */\n      tag_198\n      jump\t// in\n    tag_345:\n        /* \"#utility.yul\":11426:11514   */\n      swap2\n      pop\n        /* \"#utility.yul\":11242:11520   */\n      pop\n        /* \"#utility.yul\":11180:11520   */\n      swap3\n      swap2\n      pop\n      pop\n      jump\t// out\n        /* \"#utility.yul\":11526:12035   */\n    tag_39:\n        /* \"#utility.yul\":11595:11601   */\n      0x00\n        /* \"#utility.yul\":11644:11646   */\n      0x20\n        /* \"#utility.yul\":11632:11641   */\n      dup3\n        /* \"#utility.yul\":11623:11630   */\n      dup5\n        /* \"#utility.yul\":11619:11642   */\n      sub\n        /* \"#utility.yul\":11615:11647   */\n      slt\n        /* \"#utility.yul\":11612:11731   */\n      iszero\n      tag_347\n      jumpi\n        /* \"#utility.yul\":11650:11729   */\n      tag_348\n      tag_160\n      jump\t// in\n    tag_348:\n        /* \"#utility.yul\":11612:11731   */\n    tag_347:\n        /* \"#utility.yul\":11798:11799   */\n      0x00\n        /* \"#utility.yul\":11787:11796   */\n      dup3\n        /* \"#utility.yul\":11783:11800   */\n      add\n        /* \"#utility.yul\":11770:11801   */\n      calldataload\n        /* \"#utility.yul\":11828:11846   */\n      0xffffffffffffffff\n        /* \"#utility.yul\":11820:11826   */\n      dup2\n        /* \"#utility.yul\":11817:11847   */\n      gt\n        /* \"#utility.yul\":11814:11931   */\n      iszero\n      tag_349\n      jumpi\n        /* \"#utility.yul\":11850:11929   */\n      tag_350\n      tag_161\n      jump\t// in\n    tag_350:\n        /* \"#utility.yul\":11814:11931   */\n    tag_349:\n        /* \"#utility.yul\":11955:12018   */\n      tag_351\n        /* \"#utility.yul\":12010:12017   */\n      dup5\n        /* \"#utility.yul\":12001:12007   */\n      dup3\n        /* \"#utility.yul\":11990:11999   */\n      dup6\n        /* \"#utility.yul\":11986:12008   */\n      add\n        /* \"#utility.yul\":11955:12018   */\n      tag_199\n      jump\t// in\n    tag_351:\n        /* \"#utility.yul\":11945:12018   */\n      swap2\n      pop\n        /* \"#utility.yul\":11741:12028   */\n      pop\n        /* \"#utility.yul\":11526:12035   */\n      swap3\n      swap2\n      pop\n      pop\n      jump\t// out\n        /* \"#utility.yul\":12041:12263   */\n    tag_44:\n        /* \"#utility.yul\":12134:12138   */\n      0x00\n        /* \"#utility.yul\":12172:12174   */\n      0x20\n        /* \"#utility.yul\":12161:12170   */\n      dup3\n        /* \"#utility.yul\":12157:12175   */\n      add\n        /* \"#utility.yul\":12149:12175   */\n      swap1\n      pop\n        /* \"#utility.yul\":12185:12256   */\n      tag_353\n        /* \"#utility.yul\":12253:12254   */\n      0x00\n        /* \"#utility.yul\":12242:12251   */\n      dup4\n        /* \"#utility.yul\":12238:12255   */\n      add\n        /* \"#utility.yul\":12229:12235   */\n      dup5\n        /* \"#utility.yul\":12185:12256   */\n      tag_170\n      jump\t// in\n    tag_353:\n        /* \"#utility.yul\":12041:12263   */\n      swap3\n      swap2\n      pop\n      pop\n      jump\t// out\n        /* \"#utility.yul\":12269:12743   */\n    tag_47:\n        /* \"#utility.yul\":12337:12343   */\n      0x00\n        /* \"#utility.yul\":12345:12351   */\n      dup1\n        /* \"#utility.yul\":12394:12396   */\n      0x40\n        /* \"#utility.yul\":12382:12391   */\n      dup4\n        /* \"#utility.yul\":12373:12380   */\n      dup6\n        /* \"#utility.yul\":12369:12392   */\n      sub\n        /* \"#utility.yul\":12365:12397   */\n      slt\n        /* \"#utility.yul\":12362:12481   */\n      iszero\n      tag_355\n      jumpi\n        /* \"#utility.yul\":12400:12479   */\n      tag_356\n      tag_160\n      jump\t// in\n    tag_356:\n        /* \"#utility.yul\":12362:12481   */\n    tag_355:\n        /* \"#utility.yul\":12520:12521   */\n      0x00\n        /* \"#utility.yul\":12545:12598   */\n      tag_357\n        /* \"#utility.yul\":12590:12597   */\n      dup6\n        /* \"#utility.yul\":12581:12587   */\n      dup3\n        /* \"#utility.yul\":12570:12579   */\n      dup7\n        /* \"#utility.yul\":12566:12588   */\n      add\n        /* \"#utility.yul\":12545:12598   */\n      tag_168\n      jump\t// in\n    tag_357:\n        /* \"#utility.yul\":12535:12598   */\n      swap3\n      pop\n        /* \"#utility.yul\":12491:12608   */\n      pop\n        /* \"#utility.yul\":12647:12649   */\n      0x20\n        /* \"#utility.yul\":12673:12726   */\n      tag_358\n        /* \"#utility.yul\":12718:12725   */\n      dup6\n        /* \"#utility.yul\":12709:12715   */\n      dup3\n        /* \"#utility.yul\":12698:12707   */\n      dup7\n        /* \"#utility.yul\":12694:12716   */\n      add\n        /* \"#utility.yul\":12673:12726   */\n      tag_165\n      jump\t// in\n    tag_358:\n        /* \"#utility.yul\":12663:12726   */\n      swap2\n      pop\n        /* \"#utility.yul\":12618:12736   */\n      pop\n        /* \"#utility.yul\":12269:12743   */\n      swap3\n      pop\n      swap3\n      swap1\n      pop\n      jump\t// out\n        /* \"#utility.yul\":12749:13078   */\n    tag_54:\n        /* \"#utility.yul\":12808:12814   */\n      0x00\n        /* \"#utility.yul\":12857:12859   */\n      0x20\n        /* \"#utility.yul\":12845:12854   */\n      dup3\n        /* \"#utility.yul\":12836:12843   */\n      dup5\n        /* \"#utility.yul\":12832:12855   */\n      sub\n        /* \"#utility.yul\":12828:12860   */\n      slt\n        /* \"#utility.yul\":12825:12944   */\n      iszero\n      tag_360\n      jumpi\n        /* \"#utility.yul\":12863:12942   */\n      tag_361\n      tag_160\n      jump\t// in\n    tag_361:\n        /* \"#utility.yul\":12825:12944   */\n    tag_360:\n        /* \"#utility.yul\":12983:12984   */\n      0x00\n        /* \"#utility.yul\":13008:13061   */\n      tag_362\n        /* \"#utility.yul\":13053:13060   */\n      dup5\n        /* \"#utility.yul\":13044:13050   */\n      dup3\n        /* \"#utility.yul\":13033:13042   */\n      dup6\n        /* \"#utility.yul\":13029:13051   */\n      add\n        /* \"#utility.yul\":13008:13061   */\n      tag_168\n      jump\t// in\n    tag_362:\n        /* \"#utility.yul\":12998:13061   */\n      swap2\n      pop\n        /* \"#utility.yul\":12954:13071   */\n      pop\n        /* \"#utility.yul\":12749:13078   */\n      swap3\n      swap2\n      pop\n      pop\n      jump\t// out\n        /* \"#utility.yul\":13136:14265   */\n    tag_200:\n        /* \"#utility.yul\":13247:13250   */\n      0x00\n        /* \"#utility.yul\":13283:13287   */\n      0xa0\n        /* \"#utility.yul\":13278:13281   */\n      dup4\n        /* \"#utility.yul\":13274:13288   */\n      add\n        /* \"#utility.yul\":13368:13372   */\n      0x00\n        /* \"#utility.yul\":13361:13366   */\n      dup4\n        /* \"#utility.yul\":13357:13373   */\n      add\n        /* \"#utility.yul\":13351:13374   */\n      mload\n        /* \"#utility.yul\":13387:13450   */\n      tag_364\n        /* \"#utility.yul\":13444:13448   */\n      0x00\n        /* \"#utility.yul\":13439:13442   */\n      dup7\n        /* \"#utility.yul\":13435:13449   */\n      add\n        /* \"#utility.yul\":13421:13433   */\n      dup3\n        /* \"#utility.yul\":13387:13450   */\n      tag_179\n      jump\t// in\n    tag_364:\n        /* \"#utility.yul\":13298:13460   */\n      pop\n        /* \"#utility.yul\":13544:13548   */\n      0x20\n        /* \"#utility.yul\":13537:13542   */\n      dup4\n        /* \"#utility.yul\":13533:13549   */\n      add\n        /* \"#utility.yul\":13527:13550   */\n      mload\n        /* \"#utility.yul\":13563:13626   */\n      tag_365\n        /* \"#utility.yul\":13620:13624   */\n      0x20\n        /* \"#utility.yul\":13615:13618   */\n      dup7\n        /* \"#utility.yul\":13611:13625   */\n      add\n        /* \"#utility.yul\":13597:13609   */\n      dup3\n        /* \"#utility.yul\":13563:13626   */\n      tag_180\n      jump\t// in\n    tag_365:\n        /* \"#utility.yul\":13470:13636   */\n      pop\n        /* \"#utility.yul\":13721:13725   */\n      0x40\n        /* \"#utility.yul\":13714:13719   */\n      dup4\n        /* \"#utility.yul\":13710:13726   */\n      add\n        /* \"#utility.yul\":13704:13727   */\n      mload\n        /* \"#utility.yul\":13774:13777   */\n      dup5\n        /* \"#utility.yul\":13768:13772   */\n      dup3\n        /* \"#utility.yul\":13764:13778   */\n      sub\n        /* \"#utility.yul\":13757:13761   */\n      0x40\n        /* \"#utility.yul\":13752:13755   */\n      dup7\n        /* \"#utility.yul\":13748:13762   */\n      add\n        /* \"#utility.yul\":13741:13779   */\n      mstore\n        /* \"#utility.yul\":13800:13873   */\n      tag_366\n        /* \"#utility.yul\":13868:13872   */\n      dup3\n        /* \"#utility.yul\":13854:13866   */\n      dup3\n        /* \"#utility.yul\":13800:13873   */\n      tag_182\n      jump\t// in\n    tag_366:\n        /* \"#utility.yul\":13792:13873   */\n      swap2\n      pop\n        /* \"#utility.yul\":13646:13884   */\n      pop\n        /* \"#utility.yul\":13971:13975   */\n      0x60\n        /* \"#utility.yul\":13964:13969   */\n      dup4\n        /* \"#utility.yul\":13960:13976   */\n      add\n        /* \"#utility.yul\":13954:13977   */\n      mload\n        /* \"#utility.yul\":13990:14053   */\n      tag_367\n        /* \"#utility.yul\":14047:14051   */\n      0x60\n        /* \"#utility.yul\":14042:14045   */\n      dup7\n        /* \"#utility.yul\":14038:14052   */\n      add\n        /* \"#utility.yul\":14024:14036   */\n      dup3\n        /* \"#utility.yul\":13990:14053   */\n      tag_179\n      jump\t// in\n    tag_367:\n        /* \"#utility.yul\":13894:14063   */\n      pop\n        /* \"#utility.yul\":14146:14150   */\n      0x80\n        /* \"#utility.yul\":14139:14144   */\n      dup4\n        /* \"#utility.yul\":14135:14151   */\n      add\n        /* \"#utility.yul\":14129:14152   */\n      mload\n        /* \"#utility.yul\":14165:14228   */\n      tag_368\n        /* \"#utility.yul\":14222:14226   */\n      0x80\n        /* \"#utility.yul\":14217:14220   */\n      dup7\n        /* \"#utility.yul\":14213:14227   */\n      add\n        /* \"#utility.yul\":14199:14211   */\n      dup3\n        /* \"#utility.yul\":14165:14228   */\n      tag_179\n      jump\t// in\n    tag_368:\n        /* \"#utility.yul\":14073:14238   */\n      pop\n        /* \"#utility.yul\":14255:14259   */\n      dup1\n        /* \"#utility.yul\":14248:14259   */\n      swap2\n      pop\n        /* \"#utility.yul\":13252:14265   */\n      pop\n        /* \"#utility.yul\":13136:14265   */\n      swap3\n      swap2\n      pop\n      pop\n      jump\t// out\n        /* \"#utility.yul\":14271:14628   */\n    tag_57:\n        /* \"#utility.yul\":14406:14410   */\n      0x00\n        /* \"#utility.yul\":14444:14446   */\n      0x20\n        /* \"#utility.yul\":14433:14442   */\n      dup3\n        /* \"#utility.yul\":14429:14447   */\n      add\n        /* \"#utility.yul\":14421:14447   */\n      swap1\n      pop\n        /* \"#utility.yul\":14493:14502   */\n      dup2\n        /* \"#utility.yul\":14487:14491   */\n      dup2\n        /* \"#utility.yul\":14483:14503   */\n      sub\n        /* \"#utility.yul\":14479:14480   */\n      0x00\n        /* \"#utility.yul\":14468:14477   */\n      dup4\n        /* \"#utility.yul\":14464:14481   */\n      add\n        /* \"#utility.yul\":14457:14504   */\n      mstore\n        /* \"#utility.yul\":14521:14621   */\n      tag_370\n        /* \"#utility.yul\":14616:14620   */\n      dup2\n        /* \"#utility.yul\":14607:14613   */\n      dup5\n        /* \"#utility.yul\":14521:14621   */\n      tag_200\n      jump\t// in\n    tag_370:\n        /* \"#utility.yul\":14513:14621   */\n      swap1\n      pop\n        /* \"#utility.yul\":14271:14628   */\n      swap3\n      swap2\n      pop\n      pop\n      jump\t// out\n        /* \"#utility.yul\":14634:14814   */\n    tag_201:\n        /* \"#utility.yul\":14682:14759   */\n      0x4e487b7100000000000000000000000000000000000000000000000000000000\n        /* \"#utility.yul\":14679:14680   */\n      0x00\n        /* \"#utility.yul\":14672:14760   */\n      mstore\n        /* \"#utility.yul\":14779:14783   */\n      0x22\n        /* \"#utility.yul\":14776:14777   */\n      0x04\n        /* \"#utility.yul\":14769:14784   */\n      mstore\n        /* \"#utility.yul\":14803:14807   */\n      0x24\n        /* \"#utility.yul\":14800:14801   */\n      0x00\n        /* \"#utility.yul\":14793:14808   */\n      revert\n        /* \"#utility.yul\":14820:15140   */\n    tag_61:\n        /* \"#utility.yul\":14864:14870   */\n      0x00\n        /* \"#utility.yul\":14901:14902   */\n      0x02\n        /* \"#utility.yul\":14895:14899   */\n      dup3\n        /* \"#utility.yul\":14891:14903   */\n      div\n        /* \"#utility.yul\":14881:14903   */\n      swap1\n      pop\n        /* \"#utility.yul\":14948:14949   */\n      0x01\n        /* \"#utility.yul\":14942:14946   */\n      dup3\n        /* \"#utility.yul\":14938:14950   */\n      and\n        /* \"#utility.yul\":14969:14987   */\n      dup1\n        /* \"#utility.yul\":14959:15040   */\n      tag_373\n      jumpi\n        /* \"#utility.yul\":15025:15029   */\n      0x7f\n        /* \"#utility.yul\":15017:15023   */\n      dup3\n        /* \"#utility.yul\":15013:15030   */\n      and\n        /* \"#utility.yul\":15003:15030   */\n      swap2\n      pop\n        /* \"#utility.yul\":14959:15040   */\n    tag_373:\n        /* \"#utility.yul\":15087:15089   */\n      0x20\n        /* \"#utility.yul\":15079:15085   */\n      dup3\n        /* \"#utility.yul\":15076:15090   */\n      lt\n        /* \"#utility.yul\":15056:15074   */\n      dup2\n        /* \"#utility.yul\":15053:15091   */\n      sub\n        /* \"#utility.yul\":15050:15134   */\n      tag_374\n      jumpi\n        /* \"#utility.yul\":15106:15124   */\n      tag_375\n      tag_201\n      jump\t// in\n    tag_375:\n        /* \"#utility.yul\":15050:15134   */\n    tag_374:\n        /* \"#utility.yul\":14871:15140   */\n      pop\n        /* \"#utility.yul\":14820:15140   */\n      swap2\n      swap1\n      pop\n      jump\t// out\n        /* \"#utility.yul\":15146:15319   */\n    tag_202:\n        /* \"#utility.yul\":15286:15311   */\n      0x594f5520415245204e4f5420544845204f574e45522121000000000000000000\n        /* \"#utility.yul\":15282:15283   */\n      0x00\n        /* \"#utility.yul\":15274:15280   */\n      dup3\n        /* \"#utility.yul\":15270:15284   */\n      add\n        /* \"#utility.yul\":15263:15312   */\n      mstore\n        /* \"#utility.yul\":15146:15319   */\n      pop\n      jump\t// out\n        /* \"#utility.yul\":15325:15691   */\n    tag_203:\n        /* \"#utility.yul\":15467:15470   */\n      0x00\n        /* \"#utility.yul\":15488:15555   */\n      tag_378\n        /* \"#utility.yul\":15552:15554   */\n      0x17\n        /* \"#utility.yul\":15547:15550   */\n      dup4\n        /* \"#utility.yul\":15488:15555   */\n      tag_172\n      jump\t// in\n    tag_378:\n        /* \"#utility.yul\":15481:15555   */\n      swap2\n      pop\n        /* \"#utility.yul\":15564:15657   */\n      tag_379\n        /* \"#utility.yul\":15653:15656   */\n      dup3\n        /* \"#utility.yul\":15564:15657   */\n      tag_202\n      jump\t// in\n    tag_379:\n        /* \"#utility.yul\":15682:15684   */\n      0x20\n        /* \"#utility.yul\":15677:15680   */\n      dup3\n        /* \"#utility.yul\":15673:15685   */\n      add\n        /* \"#utility.yul\":15666:15685   */\n      swap1\n      pop\n        /* \"#utility.yul\":15325:15691   */\n      swap2\n      swap1\n      pop\n      jump\t// out\n        /* \"#utility.yul\":15697:16116   */\n    tag_81:\n        /* \"#utility.yul\":15863:15867   */\n      0x00\n        /* \"#utility.yul\":15901:15903   */\n      0x20\n        /* \"#utility.yul\":15890:15899   */\n      dup3\n        /* \"#utility.yul\":15886:15904   */\n      add\n        /* \"#utility.yul\":15878:15904   */\n      swap1\n      pop\n        /* \"#utility.yul\":15950:15959   */\n      dup2\n        /* \"#utility.yul\":15944:15948   */\n      dup2\n        /* \"#utility.yul\":15940:15960   */\n      sub\n        /* \"#utility.yul\":15936:15937   */\n      0x00\n        /* \"#utility.yul\":15925:15934   */\n      dup4\n        /* \"#utility.yul\":15921:15938   */\n      add\n        /* \"#utility.yul\":15914:15961   */\n      mstore\n        /* \"#utility.yul\":15978:16109   */\n      tag_381\n        /* \"#utility.yul\":16104:16108   */\n      dup2\n        /* \"#utility.yul\":15978:16109   */\n      tag_203\n      jump\t// in\n    tag_381:\n        /* \"#utility.yul\":15970:16109   */\n      swap1\n      pop\n        /* \"#utility.yul\":15697:16116   */\n      swap2\n      swap1\n      pop\n      jump\t// out\n        /* \"#utility.yul\":16122:16345   */\n    tag_204:\n        /* \"#utility.yul\":16262:16296   */\n      0x547765657420697320746f206c6f6e672c206d61782032383020636861726163\n        /* \"#utility.yul\":16258:16259   */\n      0x00\n        /* \"#utility.yul\":16250:16256   */\n      dup3\n        /* \"#utility.yul\":16246:16260   */\n      add\n        /* \"#utility.yul\":16239:16297   */\n      mstore\n        /* \"#utility.yul\":16331:16337   */\n      0x7465727300000000000000000000000000000000000000000000000000000000\n        /* \"#utility.yul\":16326:16328   */\n      0x20\n        /* \"#utility.yul\":16318:16324   */\n      dup3\n        /* \"#utility.yul\":16314:16329   */\n      add\n        /* \"#utility.yul\":16307:16338   */\n      mstore\n        /* \"#utility.yul\":16122:16345   */\n      pop\n      jump\t// out\n        /* \"#utility.yul\":16351:16717   */\n    tag_205:\n        /* \"#utility.yul\":16493:16496   */\n      0x00\n        /* \"#utility.yul\":16514:16581   */\n      tag_384\n        /* \"#utility.yul\":16578:16580   */\n      0x24\n        /* \"#utility.yul\":16573:16576   */\n      dup4\n        /* \"#utility.yul\":16514:16581   */\n      tag_172\n      jump\t// in\n    tag_384:\n        /* \"#utility.yul\":16507:16581   */\n      swap2\n      pop\n        /* \"#utility.yul\":16590:16683   */\n      tag_385\n        /* \"#utility.yul\":16679:16682   */\n      dup3\n        /* \"#utility.yul\":16590:16683   */\n      tag_204\n      jump\t// in\n    tag_385:\n        /* \"#utility.yul\":16708:16710   */\n      0x40\n        /* \"#utility.yul\":16703:16706   */\n      dup3\n        /* \"#utility.yul\":16699:16711   */\n      add\n        /* \"#utility.yul\":16692:16711   */\n      swap1\n      pop\n        /* \"#utility.yul\":16351:16717   */\n      swap2\n      swap1\n      pop\n      jump\t// out\n        /* \"#utility.yul\":16723:17142   */\n    tag_86:\n        /* \"#utility.yul\":16889:16893   */\n      0x00\n        /* \"#utility.yul\":16927:16929   */\n      0x20\n        /* \"#utility.yul\":16916:16925   */\n      dup3\n        /* \"#utility.yul\":16912:16930   */\n      add\n        /* \"#utility.yul\":16904:16930   */\n      swap1\n      pop\n        /* \"#utility.yul\":16976:16985   */\n      dup2\n        /* \"#utility.yul\":16970:16974   */\n      dup2\n        /* \"#utility.yul\":16966:16986   */\n      sub\n        /* \"#utility.yul\":16962:16963   */\n      0x00\n        /* \"#utility.yul\":16951:16960   */\n      dup4\n        /* \"#utility.yul\":16947:16964   */\n      add\n        /* \"#utility.yul\":16940:16987   */\n      mstore\n        /* \"#utility.yul\":17004:17135   */\n      tag_387\n        /* \"#utility.yul\":17130:17134   */\n      dup2\n        /* \"#utility.yul\":17004:17135   */\n      tag_205\n      jump\t// in\n    tag_387:\n        /* \"#utility.yul\":16996:17135   */\n      swap1\n      pop\n        /* \"#utility.yul\":16723:17142   */\n      swap2\n      swap1\n      pop\n      jump\t// out\n        /* \"#utility.yul\":17148:17289   */\n    tag_206:\n        /* \"#utility.yul\":17197:17201   */\n      0x00\n        /* \"#utility.yul\":17220:17223   */\n      dup2\n        /* \"#utility.yul\":17212:17223   */\n      swap1\n      pop\n        /* \"#utility.yul\":17243:17246   */\n      dup2\n        /* \"#utility.yul\":17240:17241   */\n      0x00\n        /* \"#utility.yul\":17233:17247   */\n      mstore\n        /* \"#utility.yul\":17277:17281   */\n      0x20\n        /* \"#utility.yul\":17274:17275   */\n      0x00\n        /* \"#utility.yul\":17264:17282   */\n      keccak256\n        /* \"#utility.yul\":17256:17282   */\n      swap1\n      pop\n        /* \"#utility.yul\":17148:17289   */\n      swap2\n      swap1\n      pop\n      jump\t// out\n        /* \"#utility.yul\":17295:17388   */\n    tag_207:\n        /* \"#utility.yul\":17332:17338   */\n      0x00\n        /* \"#utility.yul\":17379:17381   */\n      0x20\n        /* \"#utility.yul\":17374:17376   */\n      0x1f\n        /* \"#utility.yul\":17367:17372   */\n      dup4\n        /* \"#utility.yul\":17363:17377   */\n      add\n        /* \"#utility.yul\":17359:17382   */\n      div\n        /* \"#utility.yul\":17349:17382   */\n      swap1\n      pop\n        /* \"#utility.yul\":17295:17388   */\n      swap2\n      swap1\n      pop\n      jump\t// out\n        /* \"#utility.yul\":17394:17501   */\n    tag_208:\n        /* \"#utility.yul\":17438:17446   */\n      0x00\n        /* \"#utility.yul\":17488:17493   */\n      dup3\n        /* \"#utility.yul\":17482:17486   */\n      dup3\n        /* \"#utility.yul\":17478:17494   */\n      shl\n        /* \"#utility.yul\":17457:17494   */\n      swap1\n      pop\n        /* \"#utility.yul\":17394:17501   */\n      swap3\n      swap2\n      pop\n      pop\n      jump\t// out\n        /* \"#utility.yul\":17507:17900   */\n    tag_209:\n        /* \"#utility.yul\":17576:17582   */\n      0x00\n        /* \"#utility.yul\":17626:17627   */\n      0x08\n        /* \"#utility.yul\":17614:17624   */\n      dup4\n        /* \"#utility.yul\":17610:17628   */\n      mul\n        /* \"#utility.yul\":17649:17746   */\n      tag_392\n        /* \"#utility.yul\":17679:17745   */\n      0xffffffffffffffffffffffffffffffffffffffffffffffffffffffffffffffff\n        /* \"#utility.yul\":17668:17677   */\n      dup3\n        /* \"#utility.yul\":17649:17746   */\n      tag_208\n      jump\t// in\n    tag_392:\n        /* \"#utility.yul\":17767:17806   */\n      tag_393\n        /* \"#utility.yul\":17797:17805   */\n      dup7\n        /* \"#utility.yul\":17786:17795   */\n      dup4\n        /* \"#utility.yul\":17767:17806   */\n      tag_208\n      jump\t// in\n    tag_393:\n        /* \"#utility.yul\":17755:17806   */\n      swap6\n      pop\n        /* \"#utility.yul\":17839:17843   */\n      dup1\n        /* \"#utility.yul\":17835:17844   */\n      not\n        /* \"#utility.yul\":17828:17833   */\n      dup5\n        /* \"#utility.yul\":17824:17845   */\n      and\n        /* \"#utility.yul\":17815:17845   */\n      swap4\n      pop\n        /* \"#utility.yul\":17888:17892   */\n      dup1\n        /* \"#utility.yul\":17878:17886   */\n      dup7\n        /* \"#utility.yul\":17874:17893   */\n      and\n        /* \"#utility.yul\":17867:17872   */\n      dup5\n        /* \"#utility.yul\":17864:17894   */\n      or\n        /* \"#utility.yul\":17854:17894   */\n      swap3\n      pop\n        /* \"#utility.yul\":17583:17900   */\n      pop\n      pop\n        /* \"#utility.yul\":17507:17900   */\n      swap4\n      swap3\n      pop\n      pop\n      pop\n      jump\t// out\n        /* \"#utility.yul\":17906:17966   */\n    tag_210:\n        /* \"#utility.yul\":17934:17937   */\n      0x00\n        /* \"#utility.yul\":17955:17960   */\n      dup2\n        /* \"#utility.yul\":17948:17960   */\n      swap1\n      pop\n        /* \"#utility.yul\":17906:17966   */\n      swap2\n      swap1\n      pop\n      jump\t// out\n        /* \"#utility.yul\":17972:18114   */\n    tag_211:\n        /* \"#utility.yul\":18022:18031   */\n      0x00\n        /* \"#utility.yul\":18055:18108   */\n      tag_396\n        /* \"#utility.yul\":18073:18107   */\n      tag_397\n        /* \"#utility.yul\":18082:18106   */\n      tag_398\n        /* \"#utility.yul\":18100:18105   */\n      dup5\n        /* \"#utility.yul\":18082:18106   */\n      tag_166\n      jump\t// in\n    tag_398:\n        /* \"#utility.yul\":18073:18107   */\n      tag_210\n      jump\t// in\n    tag_397:\n        /* \"#utility.yul\":18055:18108   */\n      tag_166\n      jump\t// in\n    tag_396:\n        /* \"#utility.yul\":18042:18108   */\n      swap1\n      pop\n        /* \"#utility.yul\":17972:18114   */\n      swap2\n      swap1\n      pop\n      jump\t// out\n        /* \"#utility.yul\":18120:18195   */\n    tag_212:\n        /* \"#utility.yul\":18163:18166   */\n      0x00\n        /* \"#utility.yul\":18184:18189   */\n      dup2\n        /* \"#utility.yul\":18177:18189   */\n      swap1\n      pop\n        /* \"#utility.yul\":18120:18195   */\n      swap2\n      swap1\n      pop\n      jump\t// out\n        /* \"#utility.yul\":18201:18470   */\n    tag_213:\n        /* \"#utility.yul\":18311:18350   */\n      tag_401\n        /* \"#utility.yul\":18342:18349   */\n      dup4\n        /* \"#utility.yul\":18311:18350   */\n      tag_211\n      jump\t// in\n    tag_401:\n        /* \"#utility.yul\":18372:18463   */\n      tag_402\n        /* \"#utility.yul\":18421:18462   */\n      tag_403\n        /* \"#utility.yul\":18445:18461   */\n      dup3\n        /* \"#utility.yul\":18421:18462   */\n      tag_212\n      jump\t// in\n    tag_403:\n        /* \"#utility.yul\":18413:18419   */\n      dup5\n        /* \"#utility.yul\":18406:18410   */\n      dup5\n        /* \"#utility.yul\":18400:18411   */\n      sload\n        /* \"#utility.yul\":18372:18463   */\n      tag_209\n      jump\t// in\n    tag_402:\n        /* \"#utility.yul\":18366:18370   */\n      dup3\n        /* \"#utility.yul\":18359:18464   */\n      sstore\n        /* \"#utility.yul\":18277:18470   */\n      pop\n        /* \"#utility.yul\":18201:18470   */\n      pop\n      pop\n      pop\n      jump\t// out\n        /* \"#utility.yul\":18476:18549   */\n    tag_214:\n        /* \"#utility.yul\":18521:18524   */\n      0x00\n        /* \"#utility.yul\":18476:18549   */\n      swap1\n      jump\t// out\n        /* \"#utility.yul\":18555:18744   */\n    tag_215:\n        /* \"#utility.yul\":18632:18664   */\n      tag_406\n      tag_214\n      jump\t// in\n    tag_406:\n        /* \"#utility.yul\":18673:18738   */\n      tag_407\n        /* \"#utility.yul\":18731:18737   */\n      dup2\n        /* \"#utility.yul\":18723:18729   */\n      dup5\n        /* \"#utility.yul\":18717:18721   */\n      dup5\n        /* \"#utility.yul\":18673:18738   */\n      tag_213\n      jump\t// in\n    tag_407:\n        /* \"#utility.yul\":18608:18744   */\n      pop\n        /* \"#utility.yul\":18555:18744   */\n      pop\n      pop\n      jump\t// out\n        /* \"#utility.yul\":18750:18936   */\n    tag_216:\n        /* \"#utility.yul\":18810:18930   */\n    tag_409:\n        /* \"#utility.yul\":18827:18830   */\n      dup2\n        /* \"#utility.yul\":18820:18825   */\n      dup2\n        /* \"#utility.yul\":18817:18831   */\n      lt\n        /* \"#utility.yul\":18810:18930   */\n      iszero\n      tag_411\n      jumpi\n        /* \"#utility.yul\":18881:18920   */\n      tag_412\n        /* \"#utility.yul\":18918:18919   */\n      0x00\n        /* \"#utility.yul\":18911:18916   */\n      dup3\n        /* \"#utility.yul\":18881:18920   */\n      tag_215\n      jump\t// in\n    tag_412:\n        /* \"#utility.yul\":18854:18855   */\n      0x01\n        /* \"#utility.yul\":18847:18852   */\n      dup2\n        /* \"#utility.yul\":18843:18856   */\n      add\n        /* \"#utility.yul\":18834:18856   */\n      swap1\n      pop\n        /* \"#utility.yul\":18810:18930   */\n      jump(tag_409)\n    tag_411:\n        /* \"#utility.yul\":18750:18936   */\n      pop\n      pop\n      jump\t// out\n        /* \"#utility.yul\":18942:19485   */\n    tag_217:\n        /* \"#utility.yul\":19043:19045   */\n      0x1f\n        /* \"#utility.yul\":19038:19041   */\n      dup3\n        /* \"#utility.yul\":19035:19046   */\n      gt\n        /* \"#utility.yul\":19032:19478   */\n      iszero\n      tag_414\n      jumpi\n        /* \"#utility.yul\":19077:19115   */\n      tag_415\n        /* \"#utility.yul\":19109:19114   */\n      dup2\n        /* \"#utility.yul\":19077:19115   */\n      tag_206\n      jump\t// in\n    tag_415:\n        /* \"#utility.yul\":19161:19190   */\n      tag_416\n        /* \"#utility.yul\":19179:19189   */\n      dup5\n        /* \"#utility.yul\":19161:19190   */\n      tag_207\n      jump\t// in\n    tag_416:\n        /* \"#utility.yul\":19151:19159   */\n      dup2\n        /* \"#utility.yul\":19147:19191   */\n      add\n        /* \"#utility.yul\":19344:19346   */\n      0x20\n        /* \"#utility.yul\":19332:19342   */\n      dup6\n        /* \"#utility.yul\":19329:19347   */\n      lt\n        /* \"#utility.yul\":19326:19375   */\n      iszero\n      tag_417\n      jumpi\n        /* \"#utility.yul\":19365:19373   */\n      dup2\n        /* \"#utility.yul\":19350:19373   */\n      swap1\n      pop\n        /* \"#utility.yul\":19326:19375   */\n    tag_417:\n        /* \"#utility.yul\":19388:19468   */\n      tag_418\n        /* \"#utility.yul\":19444:19466   */\n      tag_419\n        /* \"#utility.yul\":19462:19465   */\n      dup6\n        /* \"#utility.yul\":19444:19466   */\n      tag_207\n      jump\t// in\n    tag_419:\n        /* \"#utility.yul\":19434:19442   */\n      dup4\n        /* \"#utility.yul\":19430:19467   */\n      add\n        /* \"#utility.yul\":19417:19428   */\n      dup3\n        /* \"#utility.yul\":19388:19468   */\n      tag_216\n      jump\t// in\n    tag_418:\n        /* \"#utility.yul\":19047:19478   */\n      pop\n      pop\n        /* \"#utility.yul\":19032:19478   */\n    tag_414:\n        /* \"#utility.yul\":18942:19485   */\n      pop\n      pop\n      pop\n      jump\t// out\n        /* \"#utility.yul\":19491:19608   */\n    tag_218:\n        /* \"#utility.yul\":19545:19553   */\n      0x00\n        /* \"#utility.yul\":19595:19600   */\n      dup3\n        /* \"#utility.yul\":19589:19593   */\n      dup3\n        /* \"#utility.yul\":19585:19601   */\n      shr\n        /* \"#utility.yul\":19564:19601   */\n      swap1\n      pop\n        /* \"#utility.yul\":19491:19608   */\n      swap3\n      swap2\n      pop\n      pop\n      jump\t// out\n        /* \"#utility.yul\":19614:19783   */\n    tag_219:\n        /* \"#utility.yul\":19658:19664   */\n      0x00\n        /* \"#utility.yul\":19691:19742   */\n      tag_422\n        /* \"#utility.yul\":19739:19740   */\n      0x00\n        /* \"#utility.yul\":19735:19741   */\n      not\n        /* \"#utility.yul\":19727:19732   */\n      dup5\n        /* \"#utility.yul\":19724:19725   */\n      0x08\n        /* \"#utility.yul\":19720:19733   */\n      mul\n        /* \"#utility.yul\":19691:19742   */\n      tag_218\n      jump\t// in\n    tag_422:\n        /* \"#utility.yul\":19687:19743   */\n      not\n        /* \"#utility.yul\":19772:19776   */\n      dup1\n        /* \"#utility.yul\":19766:19770   */\n      dup4\n        /* \"#utility.yul\":19762:19777   */\n      and\n        /* \"#utility.yul\":19752:19777   */\n      swap2\n      pop\n        /* \"#utility.yul\":19665:19783   */\n      pop\n        /* \"#utility.yul\":19614:19783   */\n      swap3\n      swap2\n      pop\n      pop\n      jump\t// out\n        /* \"#utility.yul\":19788:20083   */\n    tag_220:\n        /* \"#utility.yul\":19864:19868   */\n      0x00\n        /* \"#utility.yul\":20010:20039   */\n      tag_424\n        /* \"#utility.yul\":20035:20038   */\n      dup4\n        /* \"#utility.yul\":20029:20033   */\n      dup4\n        /* \"#utility.yul\":20010:20039   */\n      tag_219\n      jump\t// in\n    tag_424:\n        /* \"#utility.yul\":20002:20039   */\n      swap2\n      pop\n        /* \"#utility.yul\":20072:20075   */\n      dup3\n        /* \"#utility.yul\":20069:20070   */\n      0x02\n        /* \"#utility.yul\":20065:20076   */\n      mul\n        /* \"#utility.yul\":20059:20063   */\n      dup3\n        /* \"#utility.yul\":20056:20077   */\n      or\n        /* \"#utility.yul\":20048:20077   */\n      swap1\n      pop\n        /* \"#utility.yul\":19788:20083   */\n      swap3\n      swap2\n      pop\n      pop\n      jump\t// out\n        /* \"#utility.yul\":20088:21483   */\n    tag_89:\n        /* \"#utility.yul\":20205:20242   */\n      tag_426\n        /* \"#utility.yul\":20238:20241   */\n      dup3\n        /* \"#utility.yul\":20205:20242   */\n      tag_171\n      jump\t// in\n    tag_426:\n        /* \"#utility.yul\":20307:20325   */\n      0xffffffffffffffff\n        /* \"#utility.yul\":20299:20305   */\n      dup2\n        /* \"#utility.yul\":20296:20326   */\n      gt\n        /* \"#utility.yul\":20293:20349   */\n      iszero\n      tag_427\n      jumpi\n        /* \"#utility.yul\":20329:20347   */\n      tag_428\n      tag_193\n      jump\t// in\n    tag_428:\n        /* \"#utility.yul\":20293:20349   */\n    tag_427:\n        /* \"#utility.yul\":20373:20411   */\n      tag_429\n        /* \"#utility.yul\":20405:20409   */\n      dup3\n        /* \"#utility.yul\":20399:20410   */\n      sload\n        /* \"#utility.yul\":20373:20411   */\n      tag_61\n      jump\t// in\n    tag_429:\n        /* \"#utility.yul\":20458:20525   */\n      tag_430\n        /* \"#utility.yul\":20518:20524   */\n      dup3\n        /* \"#utility.yul\":20510:20516   */\n      dup3\n        /* \"#utility.yul\":20504:20508   */\n      dup6\n        /* \"#utility.yul\":20458:20525   */\n      tag_217\n      jump\t// in\n    tag_430:\n        /* \"#utility.yul\":20552:20553   */\n      0x00\n        /* \"#utility.yul\":20576:20580   */\n      0x20\n        /* \"#utility.yul\":20563:20580   */\n      swap1\n      pop\n        /* \"#utility.yul\":20608:20610   */\n      0x1f\n        /* \"#utility.yul\":20600:20606   */\n      dup4\n        /* \"#utility.yul\":20597:20611   */\n      gt\n        /* \"#utility.yul\":20625:20626   */\n      0x01\n        /* \"#utility.yul\":20620:21238   */\n      dup2\n      eq\n      tag_432\n      jumpi\n        /* \"#utility.yul\":21282:21283   */\n      0x00\n        /* \"#utility.yul\":21299:21305   */\n      dup5\n        /* \"#utility.yul\":21296:21373   */\n      iszero\n      tag_433\n      jumpi\n        /* \"#utility.yul\":21348:21357   */\n      dup3\n        /* \"#utility.yul\":21343:21346   */\n      dup8\n        /* \"#utility.yul\":21339:21358   */\n      add\n        /* \"#utility.yul\":21333:21359   */\n      mload\n        /* \"#utility.yul\":21324:21359   */\n      swap1\n      pop\n        /* \"#utility.yul\":21296:21373   */\n    tag_433:\n        /* \"#utility.yul\":21399:21466   */\n      tag_434\n        /* \"#utility.yul\":21459:21465   */\n      dup6\n        /* \"#utility.yul\":21452:21457   */\n      dup3\n        /* \"#utility.yul\":21399:21466   */\n      tag_220\n      jump\t// in\n    tag_434:\n        /* \"#utility.yul\":21393:21397   */\n      dup7\n        /* \"#utility.yul\":21386:21467   */\n      sstore\n        /* \"#utility.yul\":21255:21477   */\n      pop\n        /* \"#utility.yul\":20590:21477   */\n      jump(tag_431)\n        /* \"#utility.yul\":20620:21238   */\n    tag_432:\n        /* \"#utility.yul\":20672:20676   */\n      0x1f\n        /* \"#utility.yul\":20668:20677   */\n      not\n        /* \"#utility.yul\":20660:20666   */\n      dup5\n        /* \"#utility.yul\":20656:20678   */\n      and\n        /* \"#utility.yul\":20706:20743   */\n      tag_435\n        /* \"#utility.yul\":20738:20742   */\n      dup7\n        /* \"#utility.yul\":20706:20743   */\n      tag_206\n      jump\t// in\n    tag_435:\n        /* \"#utility.yul\":20765:20766   */\n      0x00\n        /* \"#utility.yul\":20779:20987   */\n    tag_436:\n        /* \"#utility.yul\":20793:20800   */\n      dup3\n        /* \"#utility.yul\":20790:20791   */\n      dup2\n        /* \"#utility.yul\":20787:20801   */\n      lt\n        /* \"#utility.yul\":20779:20987   */\n      iszero\n      tag_438\n      jumpi\n        /* \"#utility.yul\":20872:20881   */\n      dup5\n        /* \"#utility.yul\":20867:20870   */\n      dup10\n        /* \"#utility.yul\":20863:20882   */\n      add\n        /* \"#utility.yul\":20857:20883   */\n      mload\n        /* \"#utility.yul\":20849:20855   */\n      dup3\n        /* \"#utility.yul\":20842:20884   */\n      sstore\n        /* \"#utility.yul\":20923:20924   */\n      0x01\n        /* \"#utility.yul\":20915:20921   */\n      dup3\n        /* \"#utility.yul\":20911:20925   */\n      add\n        /* \"#utility.yul\":20901:20925   */\n      swap2\n      pop\n        /* \"#utility.yul\":20970:20972   */\n      0x20\n        /* \"#utility.yul\":20959:20968   */\n      dup6\n        /* \"#utility.yul\":20955:20973   */\n      add\n        /* \"#utility.yul\":20942:20973   */\n      swap5\n      pop\n        /* \"#utility.yul\":20816:20820   */\n      0x20\n        /* \"#utility.yul\":20813:20814   */\n      dup2\n        /* \"#utility.yul\":20809:20821   */\n      add\n        /* \"#utility.yul\":20804:20821   */\n      swap1\n      pop\n        /* \"#utility.yul\":20779:20987   */\n      jump(tag_436)\n    tag_438:\n        /* \"#utility.yul\":21015:21021   */\n      dup7\n        /* \"#utility.yul\":21006:21013   */\n      dup4\n        /* \"#utility.yul\":21003:21022   */\n      lt\n        /* \"#utility.yul\":21000:21179   */\n      iszero\n      tag_439\n      jumpi\n        /* \"#utility.yul\":21073:21082   */\n      dup5\n        /* \"#utility.yul\":21068:21071   */\n      dup10\n        /* \"#utility.yul\":21064:21083   */\n      add\n        /* \"#utility.yul\":21058:21084   */\n      mload\n        /* \"#utility.yul\":21116:21164   */\n      tag_440\n        /* \"#utility.yul\":21158:21162   */\n      0x1f\n        /* \"#utility.yul\":21150:21156   */\n      dup10\n        /* \"#utility.yul\":21146:21163   */\n      and\n        /* \"#utility.yul\":21135:21144   */\n      dup3\n        /* \"#utility.yul\":21116:21164   */\n      tag_219\n      jump\t// in\n    tag_440:\n        /* \"#utility.yul\":21108:21114   */\n      dup4\n        /* \"#utility.yul\":21101:21165   */\n      sstore\n        /* \"#utility.yul\":21023:21179   */\n      pop\n        /* \"#utility.yul\":21000:21179   */\n    tag_439:\n        /* \"#utility.yul\":21225:21226   */\n      0x01\n        /* \"#utility.yul\":21221:21222   */\n      0x02\n        /* \"#utility.yul\":21213:21219   */\n      dup9\n        /* \"#utility.yul\":21209:21223   */\n      mul\n        /* \"#utility.yul\":21205:21227   */\n      add\n        /* \"#utility.yul\":21199:21203   */\n      dup9\n        /* \"#utility.yul\":21192:21228   */\n      sstore\n        /* \"#utility.yul\":20627:21238   */\n      pop\n      pop\n      pop\n        /* \"#utility.yul\":20590:21477   */\n    tag_431:\n      pop\n        /* \"#utility.yul\":20180:21483   */\n      pop\n      pop\n      pop\n        /* \"#utility.yul\":20088:21483   */\n      pop\n      pop\n      jump\t// out\n        /* \"#utility.yul\":21489:22022   */\n    tag_91:\n        /* \"#utility.yul\":21658:21662   */\n      0x00\n        /* \"#utility.yul\":21696:21698   */\n      0x60\n        /* \"#utility.yul\":21685:21694   */\n      dup3\n        /* \"#utility.yul\":21681:21699   */\n      add\n        /* \"#utility.yul\":21673:21699   */\n      swap1\n      pop\n        /* \"#utility.yul\":21709:21780   */\n      tag_442\n        /* \"#utility.yul\":21777:21778   */\n      0x00\n        /* \"#utility.yul\":21766:21775   */\n      dup4\n        /* \"#utility.yul\":21762:21779   */\n      add\n        /* \"#utility.yul\":21753:21759   */\n      dup7\n        /* \"#utility.yul\":21709:21780   */\n      tag_170\n      jump\t// in\n    tag_442:\n        /* \"#utility.yul\":21827:21836   */\n      dup2\n        /* \"#utility.yul\":21821:21825   */\n      dup2\n        /* \"#utility.yul\":21817:21837   */\n      sub\n        /* \"#utility.yul\":21812:21814   */\n      0x20\n        /* \"#utility.yul\":21801:21810   */\n      dup4\n        /* \"#utility.yul\":21797:21815   */\n      add\n        /* \"#utility.yul\":21790:21838   */\n      mstore\n        /* \"#utility.yul\":21855:21933   */\n      tag_443\n        /* \"#utility.yul\":21928:21932   */\n      dup2\n        /* \"#utility.yul\":21919:21925   */\n      dup6\n        /* \"#utility.yul\":21855:21933   */\n      tag_175\n      jump\t// in\n    tag_443:\n        /* \"#utility.yul\":21847:21933   */\n      swap1\n      pop\n        /* \"#utility.yul\":21943:22015   */\n      tag_444\n        /* \"#utility.yul\":22011:22013   */\n      0x40\n        /* \"#utility.yul\":22000:22009   */\n      dup4\n        /* \"#utility.yul\":21996:22014   */\n      add\n        /* \"#utility.yul\":21987:21993   */\n      dup5\n        /* \"#utility.yul\":21943:22015   */\n      tag_169\n      jump\t// in\n    tag_444:\n        /* \"#utility.yul\":21489:22022   */\n      swap5\n      swap4\n      pop\n      pop\n      pop\n      pop\n      jump\t// out\n        /* \"#utility.yul\":22028:22208   */\n    tag_95:\n        /* \"#utility.yul\":22076:22153   */\n      0x4e487b7100000000000000000000000000000000000000000000000000000000\n        /* \"#utility.yul\":22073:22074   */\n      0x00\n        /* \"#utility.yul\":22066:22154   */\n      mstore\n        /* \"#utility.yul\":22173:22177   */\n      0x32\n        /* \"#utility.yul\":22170:22171   */\n      0x04\n        /* \"#utility.yul\":22163:22178   */\n      mstore\n        /* \"#utility.yul\":22197:22201   */\n      0x24\n        /* \"#utility.yul\":22194:22195   */\n      0x00\n        /* \"#utility.yul\":22187:22202   */\n      revert\n        /* \"#utility.yul\":22214:22384   */\n    tag_221:\n        /* \"#utility.yul\":22354:22376   */\n      0x545745455420444f4553204e4f54204558495354000000000000000000000000\n        /* \"#utility.yul\":22350:22351   */\n      0x00\n        /* \"#utility.yul\":22342:22348   */\n      dup3\n        /* \"#utility.yul\":22338:22352   */\n      add\n        /* \"#utility.yul\":22331:22377   */\n      mstore\n        /* \"#utility.yul\":22214:22384   */\n      pop\n      jump\t// out\n        /* \"#utility.yul\":22390:22756   */\n    tag_222:\n        /* \"#utility.yul\":22532:22535   */\n      0x00\n        /* \"#utility.yul\":22553:22620   */\n      tag_448\n        /* \"#utility.yul\":22617:22619   */\n      0x14\n        /* \"#utility.yul\":22612:22615   */\n      dup4\n        /* \"#utility.yul\":22553:22620   */\n      tag_172\n      jump\t// in\n    tag_448:\n        /* \"#utility.yul\":22546:22620   */\n      swap2\n      pop\n        /* \"#utility.yul\":22629:22722   */\n      tag_449\n        /* \"#utility.yul\":22718:22721   */\n      dup3\n        /* \"#utility.yul\":22629:22722   */\n      tag_221\n      jump\t// in\n    tag_449:\n        /* \"#utility.yul\":22747:22749   */\n      0x20\n        /* \"#utility.yul\":22742:22745   */\n      dup3\n        /* \"#utility.yul\":22738:22750   */\n      add\n        /* \"#utility.yul\":22731:22750   */\n      swap1\n      pop\n        /* \"#utility.yul\":22390:22756   */\n      swap2\n      swap1\n      pop\n      jump\t// out\n        /* \"#utility.yul\":22762:23181   */\n    tag_99:\n        /* \"#utility.yul\":22928:22932   */\n      0x00\n        /* \"#utility.yul\":22966:22968   */\n      0x20\n        /* \"#utility.yul\":22955:22964   */\n      dup3\n        /* \"#utility.yul\":22951:22969   */\n      add\n        /* \"#utility.yul\":22943:22969   */\n      swap1\n      pop\n        /* \"#utility.yul\":23015:23024   */\n      dup2\n        /* \"#utility.yul\":23009:23013   */\n      dup2\n        /* \"#utility.yul\":23005:23025   */\n      sub\n        /* \"#utility.yul\":23001:23002   */\n      0x00\n        /* \"#utility.yul\":22990:22999   */\n      dup4\n        /* \"#utility.yul\":22986:23003   */\n      add\n        /* \"#utility.yul\":22979:23026   */\n      mstore\n        /* \"#utility.yul\":23043:23174   */\n      tag_451\n        /* \"#utility.yul\":23169:23173   */\n      dup2\n        /* \"#utility.yul\":23043:23174   */\n      tag_222\n      jump\t// in\n    tag_451:\n        /* \"#utility.yul\":23035:23174   */\n      swap1\n      pop\n        /* \"#utility.yul\":22762:23181   */\n      swap2\n      swap1\n      pop\n      jump\t// out\n        /* \"#utility.yul\":23187:23357   */\n    tag_223:\n        /* \"#utility.yul\":23327:23349   */\n      0x545745455420444f4553204e4f54204c494b4544000000000000000000000000\n        /* \"#utility.yul\":23323:23324   */\n      0x00\n        /* \"#utility.yul\":23315:23321   */\n      dup3\n        /* \"#utility.yul\":23311:23325   */\n      add\n        /* \"#utility.yul\":23304:23350   */\n      mstore\n        /* \"#utility.yul\":23187:23357   */\n      pop\n      jump\t// out\n        /* \"#utility.yul\":23363:23729   */\n    tag_224:\n        /* \"#utility.yul\":23505:23508   */\n      0x00\n        /* \"#utility.yul\":23526:23593   */\n      tag_454\n        /* \"#utility.yul\":23590:23592   */\n      0x14\n        /* \"#utility.yul\":23585:23588   */\n      dup4\n        /* \"#utility.yul\":23526:23593   */\n      tag_172\n      jump\t// in\n    tag_454:\n        /* \"#utility.yul\":23519:23593   */\n      swap2\n      pop\n        /* \"#utility.yul\":23602:23695   */\n      tag_455\n        /* \"#utility.yul\":23691:23694   */\n      dup3\n        /* \"#utility.yul\":23602:23695   */\n      tag_223\n      jump\t// in\n    tag_455:\n        /* \"#utility.yul\":23720:23722   */\n      0x20\n        /* \"#utility.yul\":23715:23718   */\n      dup3\n        /* \"#utility.yul\":23711:23723   */\n      add\n        /* \"#utility.yul\":23704:23723   */\n      swap1\n      pop\n        /* \"#utility.yul\":23363:23729   */\n      swap2\n      swap1\n      pop\n      jump\t// out\n        /* \"#utility.yul\":23735:24154   */\n    tag_105:\n        /* \"#utility.yul\":23901:23905   */\n      0x00\n        /* \"#utility.yul\":23939:23941   */\n      0x20\n        /* \"#utility.yul\":23928:23937   */\n      dup3\n        /* \"#utility.yul\":23924:23942   */\n      add\n        /* \"#utility.yul\":23916:23942   */\n      swap1\n      pop\n        /* \"#utility.yul\":23988:23997   */\n      dup2\n        /* \"#utility.yul\":23982:23986   */\n      dup2\n        /* \"#utility.yul\":23978:23998   */\n      sub\n        /* \"#utility.yul\":23974:23975   */\n      0x00\n        /* \"#utility.yul\":23963:23972   */\n      dup4\n        /* \"#utility.yul\":23959:23976   */\n      add\n        /* \"#utility.yul\":23952:23999   */\n      mstore\n        /* \"#utility.yul\":24016:24147   */\n      tag_457\n        /* \"#utility.yul\":24142:24146   */\n      dup2\n        /* \"#utility.yul\":24016:24147   */\n      tag_224\n      jump\t// in\n    tag_457:\n        /* \"#utility.yul\":24008:24147   */\n      swap1\n      pop\n        /* \"#utility.yul\":23735:24154   */\n      swap2\n      swap1\n      pop\n      jump\t// out\n        /* \"#utility.yul\":24160:24340   */\n    tag_225:\n        /* \"#utility.yul\":24208:24285   */\n      0x4e487b7100000000000000000000000000000000000000000000000000000000\n        /* \"#utility.yul\":24205:24206   */\n      0x00\n        /* \"#utility.yul\":24198:24286   */\n      mstore\n        /* \"#utility.yul\":24305:24309   */\n      0x11\n        /* \"#utility.yul\":24302:24303   */\n      0x04\n        /* \"#utility.yul\":24295:24310   */\n      mstore\n        /* \"#utility.yul\":24329:24333   */\n      0x24\n        /* \"#utility.yul\":24326:24327   */\n      0x00\n        /* \"#utility.yul\":24319:24334   */\n      revert\n        /* \"#utility.yul\":24346:24517   */\n    tag_110:\n        /* \"#utility.yul\":24385:24388   */\n      0x00\n        /* \"#utility.yul\":24408:24432   */\n      tag_460\n        /* \"#utility.yul\":24426:24431   */\n      dup3\n        /* \"#utility.yul\":24408:24432   */\n      tag_166\n      jump\t// in\n    tag_460:\n        /* \"#utility.yul\":24399:24432   */\n      swap2\n      pop\n        /* \"#utility.yul\":24454:24458   */\n      0x00\n        /* \"#utility.yul\":24447:24452   */\n      dup3\n        /* \"#utility.yul\":24444:24459   */\n      sub\n        /* \"#utility.yul\":24441:24482   */\n      tag_461\n      jumpi\n        /* \"#utility.yul\":24462:24480   */\n      tag_462\n      tag_225\n      jump\t// in\n    tag_462:\n        /* \"#utility.yul\":24441:24482   */\n    tag_461:\n        /* \"#utility.yul\":24509:24510   */\n      0x01\n        /* \"#utility.yul\":24502:24507   */\n      dup3\n        /* \"#utility.yul\":24498:24511   */\n      sub\n        /* \"#utility.yul\":24491:24511   */\n      swap1\n      pop\n        /* \"#utility.yul\":24346:24517   */\n      swap2\n      swap1\n      pop\n      jump\t// out\n        /* \"#utility.yul\":24523:25076   */\n    tag_115:\n        /* \"#utility.yul\":24700:24704   */\n      0x00\n        /* \"#utility.yul\":24738:24741   */\n      0x80\n        /* \"#utility.yul\":24727:24736   */\n      dup3\n        /* \"#utility.yul\":24723:24742   */\n      add\n        /* \"#utility.yul\":24715:24742   */\n      swap1\n      pop\n        /* \"#utility.yul\":24752:24823   */\n      tag_464\n        /* \"#utility.yul\":24820:24821   */\n      0x00\n        /* \"#utility.yul\":24809:24818   */\n      dup4\n        /* \"#utility.yul\":24805:24822   */\n      add\n        /* \"#utility.yul\":24796:24802   */\n      dup8\n        /* \"#utility.yul\":24752:24823   */\n      tag_170\n      jump\t// in\n    tag_464:\n        /* \"#utility.yul\":24833:24905   */\n      tag_465\n        /* \"#utility.yul\":24901:24903   */\n      0x20\n        /* \"#utility.yul\":24890:24899   */\n      dup4\n        /* \"#utility.yul\":24886:24904   */\n      add\n        /* \"#utility.yul\":24877:24883   */\n      dup7\n        /* \"#utility.yul\":24833:24905   */\n      tag_170\n      jump\t// in\n    tag_465:\n        /* \"#utility.yul\":24915:24987   */\n      tag_466\n        /* \"#utility.yul\":24983:24985   */\n      0x40\n        /* \"#utility.yul\":24972:24981   */\n      dup4\n        /* \"#utility.yul\":24968:24986   */\n      add\n        /* \"#utility.yul\":24959:24965   */\n      dup6\n        /* \"#utility.yul\":24915:24987   */\n      tag_169\n      jump\t// in\n    tag_466:\n        /* \"#utility.yul\":24997:25069   */\n      tag_467\n        /* \"#utility.yul\":25065:25067   */\n      0x60\n        /* \"#utility.yul\":25054:25063   */\n      dup4\n        /* \"#utility.yul\":25050:25068   */\n      add\n        /* \"#utility.yul\":25041:25047   */\n      dup5\n        /* \"#utility.yul\":24997:25069   */\n      tag_169\n      jump\t// in\n    tag_467:\n        /* \"#utility.yul\":24523:25076   */\n      swap6\n      swap5\n      pop\n      pop\n      pop\n      pop\n      pop\n      jump\t// out\n        /* \"#utility.yul\":25082:25315   */\n    tag_126:\n        /* \"#utility.yul\":25121:25124   */\n      0x00\n        /* \"#utility.yul\":25144:25168   */\n      tag_469\n        /* \"#utility.yul\":25162:25167   */\n      dup3\n        /* \"#utility.yul\":25144:25168   */\n      tag_166\n      jump\t// in\n    tag_469:\n        /* \"#utility.yul\":25135:25168   */\n      swap2\n      pop\n        /* \"#utility.yul\":25190:25256   */\n      0xffffffffffffffffffffffffffffffffffffffffffffffffffffffffffffffff\n        /* \"#utility.yul\":25183:25188   */\n      dup3\n        /* \"#utility.yul\":25180:25257   */\n      sub\n        /* \"#utility.yul\":25177:25280   */\n      tag_470\n      jumpi\n        /* \"#utility.yul\":25260:25278   */\n      tag_471\n      tag_225\n      jump\t// in\n    tag_471:\n        /* \"#utility.yul\":25177:25280   */\n    tag_470:\n        /* \"#utility.yul\":25307:25308   */\n      0x01\n        /* \"#utility.yul\":25300:25305   */\n      dup3\n        /* \"#utility.yul\":25296:25309   */\n      add\n        /* \"#utility.yul\":25289:25309   */\n      swap1\n      pop\n        /* \"#utility.yul\":25082:25315   */\n      swap2\n      swap1\n      pop\n      jump\t// out\n        /* \"#utility.yul\":25321:25490   */\n    tag_226:\n        /* \"#utility.yul\":25461:25482   */\n      0x496e76616c696420747765657420696e64657800000000000000000000000000\n        /* \"#utility.yul\":25457:25458   */\n      0x00\n        /* \"#utility.yul\":25449:25455   */\n      dup3\n        /* \"#utility.yul\":25445:25459   */\n      add\n        /* \"#utility.yul\":25438:25483   */\n      mstore\n        /* \"#utility.yul\":25321:25490   */\n      pop\n      jump\t// out\n        /* \"#utility.yul\":25496:25862   */\n    tag_227:\n        /* \"#utility.yul\":25638:25641   */\n      0x00\n        /* \"#utility.yul\":25659:25726   */\n      tag_474\n        /* \"#utility.yul\":25723:25725   */\n      0x13\n        /* \"#utility.yul\":25718:25721   */\n      dup4\n        /* \"#utility.yul\":25659:25726   */\n      tag_172\n      jump\t// in\n    tag_474:\n        /* \"#utility.yul\":25652:25726   */\n      swap2\n      pop\n        /* \"#utility.yul\":25735:25828   */\n      tag_475\n        /* \"#utility.yul\":25824:25827   */\n      dup3\n        /* \"#utility.yul\":25735:25828   */\n      tag_226\n      jump\t// in\n    tag_475:\n        /* \"#utility.yul\":25853:25855   */\n      0x20\n        /* \"#utility.yul\":25848:25851   */\n      dup3\n        /* \"#utility.yul\":25844:25856   */\n      add\n        /* \"#utility.yul\":25837:25856   */\n      swap1\n      pop\n        /* \"#utility.yul\":25496:25862   */\n      swap2\n      swap1\n      pop\n      jump\t// out\n        /* \"#utility.yul\":25868:26287   */\n    tag_136:\n        /* \"#utility.yul\":26034:26038   */\n      0x00\n        /* \"#utility.yul\":26072:26074   */\n      0x20\n        /* \"#utility.yul\":26061:26070   */\n      dup3\n        /* \"#utility.yul\":26057:26075   */\n      add\n        /* \"#utility.yul\":26049:26075   */\n      swap1\n      pop\n        /* \"#utility.yul\":26121:26130   */\n      dup2\n        /* \"#utility.yul\":26115:26119   */\n      dup2\n        /* \"#utility.yul\":26111:26131   */\n      sub\n        /* \"#utility.yul\":26107:26108   */\n      0x00\n        /* \"#utility.yul\":26096:26105   */\n      dup4\n        /* \"#utility.yul\":26092:26109   */\n      add\n        /* \"#utility.yul\":26085:26132   */\n      mstore\n        /* \"#utility.yul\":26149:26280   */\n      tag_477\n        /* \"#utility.yul\":26275:26279   */\n      dup2\n        /* \"#utility.yul\":26149:26280   */\n      tag_227\n      jump\t// in\n    tag_477:\n        /* \"#utility.yul\":26141:26280   */\n      swap1\n      pop\n        /* \"#utility.yul\":25868:26287   */\n      swap2\n      swap1\n      pop\n      jump\t// out\n\n    auxdata: 0xa2646970667358221220c701f7688f1bc01a78d27f07de3a657e34451a2f6cdef121a95f9a695a5ffd1364736f6c634300081a0033\n}\n",
				"bytecode": {
					"linkReferences": {},
					"object": "608060405261011860015f6101000a81548161ffff021916908361ffff160217905550348015602c575f80fd5b5033600160026101000a81548173ffffffffffffffffffffffffffffffffffffffff021916908373ffffffffffffffffffffffffffffffffffffffff160217905550611bee8061007b5f395ff3fe608060405234801561000f575f80fd5b506004361061009c575f3560e01c80637c9cd2bc116100645780637c9cd2bc1461015a5780638da5cb5b14610176578063a1488f7c14610194578063d04ddaa0146101b0578063ed9bb8d7146101cc5761009c565b806305a1b4a9146100a057806312e7ee1c146100d457806320f7e65c146101045780636d003c01146101205780636eb107971461013c575b5f80fd5b6100ba60048036038101906100b59190610f65565b6101fc565b6040516100cb959493929190611031565b60405180910390f35b6100ee60048036038101906100e99190611089565b6102ec565b6040516100fb9190611248565b60405180910390f35b61011e60048036038101906101199190611089565b610486565b005b61013a6004803603810190610135919061129f565b6104d0565b005b61014461057f565b60405161015191906112d9565b60405180910390f35b610174600480360381019061016f919061141e565b610592565b005b61017e610794565b60405161018b9190611465565b60405180910390f35b6101ae60048036038101906101a9919061147e565b6107ba565b005b6101ca60048036038101906101c5919061147e565b610a07565b005b6101e660048036038101906101e191906114bc565b610bb5565b6040516101f3919061155a565b60405180910390f35b5f602052815f5260405f208181548110610214575f80fd5b905f5260205f2090600502015f9150915050805f015490806001015f9054906101000a900473ffffffffffffffffffffffffffffffffffffffff169080600201805461025f906115a7565b80601f016020809104026020016040519081016040528092919081815260200182805461028b906115a7565b80156102d65780601f106102ad576101008083540402835291602001916102d6565b820191905f5260205f20905b8154815290600101906020018083116102b957829003601f168201915b5050505050908060030154908060040154905085565b60605f808373ffffffffffffffffffffffffffffffffffffffff1673ffffffffffffffffffffffffffffffffffffffff1681526020019081526020015f20805480602002602001604051908101604052809291908181526020015f905b8282101561047b578382905f5260205f2090600502016040518060a00160405290815f8201548152602001600182015f9054906101000a900473ffffffffffffffffffffffffffffffffffffffff1673ffffffffffffffffffffffffffffffffffffffff1673ffffffffffffffffffffffffffffffffffffffff1681526020016002820180546103d8906115a7565b80601f0160208091040260200160405190810160405280929190818152602001828054610404906115a7565b801561044f5780601f106104265761010080835404028352916020019161044f565b820191905f5260205f20905b81548152906001019060200180831161043257829003601f168201915b505050505081526020016003820154815260200160048201548152505081526020019060010190610349565b505050509050919050565b5f808273ffffffffffffffffffffffffffffffffffffffff1673ffffffffffffffffffffffffffffffffffffffff1681526020019081526020015f205f6104cd9190610dad565b50565b3373ffffffffffffffffffffffffffffffffffffffff16600160029054906101000a900473ffffffffffffffffffffffffffffffffffffffff1673ffffffffffffffffffffffffffffffffffffffff1614610560576040517f08c379a000000000000000000000000000000000000000000000000000000000815260040161055790611621565b60405180910390fd5b8060015f6101000a81548161ffff021916908361ffff16021790555050565b60015f9054906101000a900461ffff1681565b60015f9054906101000a900461ffff1661ffff16815111156105e9576040517f08c379a00000000000000000000000000000000000000000000000000000000081526004016105e0906116af565b60405180910390fd5b5f6040518060a001604052805f803373ffffffffffffffffffffffffffffffffffffffff1673ffffffffffffffffffffffffffffffffffffffff1681526020019081526020015f208054905081526020013373ffffffffffffffffffffffffffffffffffffffff1681526020018381526020014281526020015f81525090505f803373ffffffffffffffffffffffffffffffffffffffff1673ffffffffffffffffffffffffffffffffffffffff1681526020019081526020015f2081908060018154018082558091505060019003905f5260205f2090600502015f909190919091505f820151815f01556020820151816001015f6101000a81548173ffffffffffffffffffffffffffffffffffffffff021916908373ffffffffffffffffffffffffffffffffffffffff160217905550604082015181600201908161072e919061186a565b5060608201518160030155608082015181600401555050805f01517f16fd3c13e9d46923e0a8bce11c7b473ec508a72e6c96cd2404b29ce972afc29e82602001518360400151846060015160405161078893929190611939565b60405180910390a25050565b600160029054906101000a900473ffffffffffffffffffffffffffffffffffffffff1681565b815f808373ffffffffffffffffffffffffffffffffffffffff1673ffffffffffffffffffffffffffffffffffffffff1681526020019081526020015f20838154811061080957610808611975565b5b905f5260205f2090600502015f015414610858576040517f08c379a000000000000000000000000000000000000000000000000000000000815260040161084f906119ec565b60405180910390fd5b5f805f8373ffffffffffffffffffffffffffffffffffffffff1673ffffffffffffffffffffffffffffffffffffffff1681526020019081526020015f2083815481106108a7576108a6611975565b5b905f5260205f20906005020160040154116108f7576040517f08c379a00000000000000000000000000000000000000000000000000000000081526004016108ee90611a54565b60405180910390fd5b5f808273ffffffffffffffffffffffffffffffffffffffff1673ffffffffffffffffffffffffffffffffffffffff1681526020019081526020015f20828154811061094557610944611975565b5b905f5260205f2090600502016004015f81548092919061096490611a9f565b91905055507f273883c252143c4abce776697615e41ca9bc1aac5968c585d1c8ba8ffaa8b3c13382845f808673ffffffffffffffffffffffffffffffffffffffff1673ffffffffffffffffffffffffffffffffffffffff1681526020019081526020015f2086815481106109db576109da611975565b5b905f5260205f209060050201600401546040516109fb9493929190611ac6565b60405180910390a15050565b815f808373ffffffffffffffffffffffffffffffffffffffff1673ffffffffffffffffffffffffffffffffffffffff1681526020019081526020015f208381548110610a5657610a55611975565b5b905f5260205f2090600502015f015414610aa5576040517f08c379a0000000000000000000000000000000000000000000000000000000008152600401610a9c906119ec565b60405180910390fd5b5f808273ffffffffffffffffffffffffffffffffffffffff1673ffffffffffffffffffffffffffffffffffffffff1681526020019081526020015f208281548110610af357610af2611975565b5b905f5260205f2090600502016004015f815480929190610b1290611b09565b91905055507fe8a76fc0f16d11a00d1e93b689b63d76cf60af914dd3d915375dc41d01a0c3c83382845f808673ffffffffffffffffffffffffffffffffffffffff1673ffffffffffffffffffffffffffffffffffffffff1681526020019081526020015f208681548110610b8957610b88611975565b5b905f5260205f20906005020160040154604051610ba99493929190611ac6565b60405180910390a15050565b610bbd610dce565b5f803373ffffffffffffffffffffffffffffffffffffffff1673ffffffffffffffffffffffffffffffffffffffff1681526020019081526020015f2080549050821115610c3f576040517f08c379a0000000000000000000000000000000000000000000000000000000008152600401610c3690611b9a565b60405180910390fd5b5f803373ffffffffffffffffffffffffffffffffffffffff1673ffffffffffffffffffffffffffffffffffffffff1681526020019081526020015f208281548110610c8d57610c8c611975565b5b905f5260205f2090600502016040518060a00160405290815f8201548152602001600182015f9054906101000a900473ffffffffffffffffffffffffffffffffffffffff1673ffffffffffffffffffffffffffffffffffffffff1673ffffffffffffffffffffffffffffffffffffffff168152602001600282018054610d12906115a7565b80601f0160208091040260200160405190810160405280929190818152602001828054610d3e906115a7565b8015610d895780601f10610d6057610100808354040283529160200191610d89565b820191905f5260205f20905b815481529060010190602001808311610d6c57829003601f168201915b50505050508152602001600382015481526020016004820154815250509050919050565b5080545f8255600502905f5260205f2090810190610dcb9190610e0f565b50565b6040518060a001604052805f81526020015f73ffffffffffffffffffffffffffffffffffffffff168152602001606081526020015f81526020015f81525090565b5b80821115610e6b575f8082015f9055600182015f6101000a81549073ffffffffffffffffffffffffffffffffffffffff0219169055600282015f610e549190610e6f565b600382015f9055600482015f905550600501610e10565b5090565b508054610e7b906115a7565b5f825580601f10610e8c5750610ea9565b601f0160209004905f5260205f2090810190610ea89190610eac565b5b50565b5b80821115610ec3575f815f905550600101610ead565b5090565b5f604051905090565b5f80fd5b5f80fd5b5f73ffffffffffffffffffffffffffffffffffffffff82169050919050565b5f610f0182610ed8565b9050919050565b610f1181610ef7565b8114610f1b575f80fd5b50565b5f81359050610f2c81610f08565b92915050565b5f819050919050565b610f4481610f32565b8114610f4e575f80fd5b50565b5f81359050610f5f81610f3b565b92915050565b5f8060408385031215610f7b57610f7a610ed0565b5b5f610f8885828601610f1e565b9250506020610f9985828601610f51565b9150509250929050565b610fac81610f32565b82525050565b610fbb81610ef7565b82525050565b5f81519050919050565b5f82825260208201905092915050565b8281835e5f83830152505050565b5f601f19601f8301169050919050565b5f61100382610fc1565b61100d8185610fcb565b935061101d818560208601610fdb565b61102681610fe9565b840191505092915050565b5f60a0820190506110445f830188610fa3565b6110516020830187610fb2565b81810360408301526110638186610ff9565b90506110726060830185610fa3565b61107f6080830184610fa3565b9695505050505050565b5f6020828403121561109e5761109d610ed0565b5b5f6110ab84828501610f1e565b91505092915050565b5f81519050919050565b5f82825260208201905092915050565b5f819050602082019050919050565b6110e681610f32565b82525050565b6110f581610ef7565b82525050565b5f82825260208201905092915050565b5f61111582610fc1565b61111f81856110fb565b935061112f818560208601610fdb565b61113881610fe9565b840191505092915050565b5f60a083015f8301516111585f8601826110dd565b50602083015161116b60208601826110ec565b5060408301518482036040860152611183828261110b565b915050606083015161119860608601826110dd565b5060808301516111ab60808601826110dd565b508091505092915050565b5f6111c18383611143565b905092915050565b5f602082019050919050565b5f6111df826110b4565b6111e981856110be565b9350836020820285016111fb856110ce565b805f5b85811015611236578484038952815161121785826111b6565b9450611222836111c9565b925060208a019950506001810190506111fe565b50829750879550505050505092915050565b5f6020820190508181035f83015261126081846111d5565b905092915050565b5f61ffff82169050919050565b61127e81611268565b8114611288575f80fd5b50565b5f8135905061129981611275565b92915050565b5f602082840312156112b4576112b3610ed0565b5b5f6112c18482850161128b565b91505092915050565b6112d381611268565b82525050565b5f6020820190506112ec5f8301846112ca565b92915050565b5f80fd5b5f80fd5b7f4e487b71000000000000000000000000000000000000000000000000000000005f52604160045260245ffd5b61133082610fe9565b810181811067ffffffffffffffff8211171561134f5761134e6112fa565b5b80604052505050565b5f611361610ec7565b905061136d8282611327565b919050565b5f67ffffffffffffffff82111561138c5761138b6112fa565b5b61139582610fe9565b9050602081019050919050565b828183375f83830152505050565b5f6113c26113bd84611372565b611358565b9050828152602081018484840111156113de576113dd6112f6565b5b6113e98482856113a2565b509392505050565b5f82601f830112611405576114046112f2565b5b81356114158482602086016113b0565b91505092915050565b5f6020828403121561143357611432610ed0565b5b5f82013567ffffffffffffffff8111156114505761144f610ed4565b5b61145c848285016113f1565b91505092915050565b5f6020820190506114785f830184610fb2565b92915050565b5f806040838503121561149457611493610ed0565b5b5f6114a185828601610f51565b92505060206114b285828601610f1e565b9150509250929050565b5f602082840312156114d1576114d0610ed0565b5b5f6114de84828501610f51565b91505092915050565b5f60a083015f8301516114fc5f8601826110dd565b50602083015161150f60208601826110ec565b5060408301518482036040860152611527828261110b565b915050606083015161153c60608601826110dd565b50608083015161154f60808601826110dd565b508091505092915050565b5f6020820190508181035f83015261157281846114e7565b905092915050565b7f4e487b71000000000000000000000000000000000000000000000000000000005f52602260045260245ffd5b5f60028204905060018216806115be57607f821691505b6020821081036115d1576115d061157a565b5b50919050565b7f594f5520415245204e4f5420544845204f574e455221210000000000000000005f82015250565b5f61160b601783610fcb565b9150611616826115d7565b602082019050919050565b5f6020820190508181035f830152611638816115ff565b9050919050565b7f547765657420697320746f206c6f6e672c206d617820323830206368617261635f8201527f7465727300000000000000000000000000000000000000000000000000000000602082015250565b5f611699602483610fcb565b91506116a48261163f565b604082019050919050565b5f6020820190508181035f8301526116c68161168d565b9050919050565b5f819050815f5260205f209050919050565b5f6020601f8301049050919050565b5f82821b905092915050565b5f600883026117297fffffffffffffffffffffffffffffffffffffffffffffffffffffffffffffffff826116ee565b61173386836116ee565b95508019841693508086168417925050509392505050565b5f819050919050565b5f61176e61176961176484610f32565b61174b565b610f32565b9050919050565b5f819050919050565b61178783611754565b61179b61179382611775565b8484546116fa565b825550505050565b5f90565b6117af6117a3565b6117ba81848461177e565b505050565b5b818110156117dd576117d25f826117a7565b6001810190506117c0565b5050565b601f821115611822576117f3816116cd565b6117fc846116df565b8101602085101561180b578190505b61181f611817856116df565b8301826117bf565b50505b505050565b5f82821c905092915050565b5f6118425f1984600802611827565b1980831691505092915050565b5f61185a8383611833565b9150826002028217905092915050565b61187382610fc1565b67ffffffffffffffff81111561188c5761188b6112fa565b5b61189682546115a7565b6118a18282856117e1565b5f60209050601f8311600181146118d2575f84156118c0578287015190505b6118ca858261184f565b865550611931565b601f1984166118e0866116cd565b5f5b82811015611907578489015182556001820191506020850194506020810190506118e2565b868310156119245784890151611920601f891682611833565b8355505b6001600288020188555050505b505050505050565b5f60608201905061194c5f830186610fb2565b818103602083015261195e8185610ff9565b905061196d6040830184610fa3565b949350505050565b7f4e487b71000000000000000000000000000000000000000000000000000000005f52603260045260245ffd5b7f545745455420444f4553204e4f542045584953540000000000000000000000005f82015250565b5f6119d6601483610fcb565b91506119e1826119a2565b602082019050919050565b5f6020820190508181035f830152611a03816119ca565b9050919050565b7f545745455420444f4553204e4f54204c494b45440000000000000000000000005f82015250565b5f611a3e601483610fcb565b9150611a4982611a0a565b602082019050919050565b5f6020820190508181035f830152611a6b81611a32565b9050919050565b7f4e487b71000000000000000000000000000000000000000000000000000000005f52601160045260245ffd5b5f611aa982610f32565b91505f8203611abb57611aba611a72565b5b600182039050919050565b5f608082019050611ad95f830187610fb2565b611ae66020830186610fb2565b611af36040830185610fa3565b611b006060830184610fa3565b95945050505050565b5f611b1382610f32565b91507fffffffffffffffffffffffffffffffffffffffffffffffffffffffffffffffff8203611b4557611b44611a72565b5b600182019050919050565b7f496e76616c696420747765657420696e646578000000000000000000000000005f82015250565b5f611b84601383610fcb565b9150611b8f82611b50565b602082019050919050565b5f6020820190508181035f830152611bb181611b78565b905091905056fea2646970667358221220c701f7688f1bc01a78d27f07de3a657e34451a2f6cdef121a95f9a695a5ffd1364736f6c634300081a0033",
					"opcodes": "PUSH1 0x80 PUSH1 0x40 MSTORE PUSH2 0x118 PUSH1 0x1 PUSH0 PUSH2 0x100 EXP DUP2 SLOAD DUP2 PUSH2 0xFFFF MUL NOT AND SWAP1 DUP4 PUSH2 0xFFFF AND MUL OR SWAP1 SSTORE POP CALLVALUE DUP1 ISZERO PUSH1 0x2C JUMPI PUSH0 DUP1 REVERT JUMPDEST POP CALLER PUSH1 0x1 PUSH1 0x2 PUSH2 0x100 EXP DUP2 SLOAD DUP2 PUSH20 0xFFFFFFFFFFFFFFFFFFFFFFFFFFFFFFFFFFFFFFFF MUL NOT AND SWAP1 DUP4 PUSH20 0xFFFFFFFFFFFFFFFFFFFFFFFFFFFFFFFFFFFFFFFF AND MUL OR SWAP1 SSTORE POP PUSH2 0x1BEE DUP1 PUSH2 0x7B PUSH0 CODECOPY PUSH0 RETURN INVALID PUSH1 0x80 PUSH1 0x40 MSTORE CALLVALUE DUP1 ISZERO PUSH2 0xF JUMPI PUSH0 DUP1 REVERT JUMPDEST POP PUSH1 0x4 CALLDATASIZE LT PUSH2 0x9C JUMPI PUSH0 CALLDATALOAD PUSH1 0xE0 SHR DUP1 PUSH4 0x7C9CD2BC GT PUSH2 0x64 JUMPI DUP1 PUSH4 0x7C9CD2BC EQ PUSH2 0x15A JUMPI DUP1 PUSH4 0x8DA5CB5B EQ PUSH2 0x176 JUMPI DUP1 PUSH4 0xA1488F7C EQ PUSH2 0x194 JUMPI DUP1 PUSH4 0xD04DDAA0 EQ PUSH2 0x1B0 JUMPI DUP1 PUSH4 0xED9BB8D7 EQ PUSH2 0x1CC JUMPI PUSH2 0x9C JUMP JUMPDEST DUP1 PUSH4 0x5A1B4A9 EQ PUSH2 0xA0 JUMPI DUP1 PUSH4 0x12E7EE1C EQ PUSH2 0xD4 JUMPI DUP1 PUSH4 0x20F7E65C EQ PUSH2 0x104 JUMPI DUP1 PUSH4 0x6D003C01 EQ PUSH2 0x120 JUMPI DUP1 PUSH4 0x6EB10797 EQ PUSH2 0x13C JUMPI JUMPDEST PUSH0 DUP1 REVERT JUMPDEST PUSH2 0xBA PUSH1 0x4 DUP1 CALLDATASIZE SUB DUP2 ADD SWAP1 PUSH2 0xB5 SWAP2 SWAP1 PUSH2 0xF65 JUMP JUMPDEST PUSH2 0x1FC JUMP JUMPDEST PUSH1 0x40 MLOAD PUSH2 0xCB SWAP6 SWAP5 SWAP4 SWAP3 SWAP2 SWAP1 PUSH2 0x1031 JUMP JUMPDEST PUSH1 0x40 MLOAD DUP1 SWAP2 SUB SWAP1 RETURN JUMPDEST PUSH2 0xEE PUSH1 0x4 DUP1 CALLDATASIZE SUB DUP2 ADD SWAP1 PUSH2 0xE9 SWAP2 SWAP1 PUSH2 0x1089 JUMP JUMPDEST PUSH2 0x2EC JUMP JUMPDEST PUSH1 0x40 MLOAD PUSH2 0xFB SWAP2 SWAP1 PUSH2 0x1248 JUMP JUMPDEST PUSH1 0x40 MLOAD DUP1 SWAP2 SUB SWAP1 RETURN JUMPDEST PUSH2 0x11E PUSH1 0x4 DUP1 CALLDATASIZE SUB DUP2 ADD SWAP1 PUSH2 0x119 SWAP2 SWAP1 PUSH2 0x1089 JUMP JUMPDEST PUSH2 0x486 JUMP JUMPDEST STOP JUMPDEST PUSH2 0x13A PUSH1 0x4 DUP1 CALLDATASIZE SUB DUP2 ADD SWAP1 PUSH2 0x135 SWAP2 SWAP1 PUSH2 0x129F JUMP JUMPDEST PUSH2 0x4D0 JUMP JUMPDEST STOP JUMPDEST PUSH2 0x144 PUSH2 0x57F JUMP JUMPDEST PUSH1 0x40 MLOAD PUSH2 0x151 SWAP2 SWAP1 PUSH2 0x12D9 JUMP JUMPDEST PUSH1 0x40 MLOAD DUP1 SWAP2 SUB SWAP1 RETURN JUMPDEST PUSH2 0x174 PUSH1 0x4 DUP1 CALLDATASIZE SUB DUP2 ADD SWAP1 PUSH2 0x16F SWAP2 SWAP1 PUSH2 0x141E JUMP JUMPDEST PUSH2 0x592 JUMP JUMPDEST STOP JUMPDEST PUSH2 0x17E PUSH2 0x794 JUMP JUMPDEST PUSH1 0x40 MLOAD PUSH2 0x18B SWAP2 SWAP1 PUSH2 0x1465 JUMP JUMPDEST PUSH1 0x40 MLOAD DUP1 SWAP2 SUB SWAP1 RETURN JUMPDEST PUSH2 0x1AE PUSH1 0x4 DUP1 CALLDATASIZE SUB DUP2 ADD SWAP1 PUSH2 0x1A9 SWAP2 SWAP1 PUSH2 0x147E JUMP JUMPDEST PUSH2 0x7BA JUMP JUMPDEST STOP JUMPDEST PUSH2 0x1CA PUSH1 0x4 DUP1 CALLDATASIZE SUB DUP2 ADD SWAP1 PUSH2 0x1C5 SWAP2 SWAP1 PUSH2 0x147E JUMP JUMPDEST PUSH2 0xA07 JUMP JUMPDEST STOP JUMPDEST PUSH2 0x1E6 PUSH1 0x4 DUP1 CALLDATASIZE SUB DUP2 ADD SWAP1 PUSH2 0x1E1 SWAP2 SWAP1 PUSH2 0x14BC JUMP JUMPDEST PUSH2 0xBB5 JUMP JUMPDEST PUSH1 0x40 MLOAD PUSH2 0x1F3 SWAP2 SWAP1 PUSH2 0x155A JUMP JUMPDEST PUSH1 0x40 MLOAD DUP1 SWAP2 SUB SWAP1 RETURN JUMPDEST PUSH0 PUSH1 0x20 MSTORE DUP2 PUSH0 MSTORE PUSH1 0x40 PUSH0 KECCAK256 DUP2 DUP2 SLOAD DUP2 LT PUSH2 0x214 JUMPI PUSH0 DUP1 REVERT JUMPDEST SWAP1 PUSH0 MSTORE PUSH1 0x20 PUSH0 KECCAK256 SWAP1 PUSH1 0x5 MUL ADD PUSH0 SWAP2 POP SWAP2 POP POP DUP1 PUSH0 ADD SLOAD SWAP1 DUP1 PUSH1 0x1 ADD PUSH0 SWAP1 SLOAD SWAP1 PUSH2 0x100 EXP SWAP1 DIV PUSH20 0xFFFFFFFFFFFFFFFFFFFFFFFFFFFFFFFFFFFFFFFF AND SWAP1 DUP1 PUSH1 0x2 ADD DUP1 SLOAD PUSH2 0x25F SWAP1 PUSH2 0x15A7 JUMP JUMPDEST DUP1 PUSH1 0x1F ADD PUSH1 0x20 DUP1 SWAP2 DIV MUL PUSH1 0x20 ADD PUSH1 0x40 MLOAD SWAP1 DUP2 ADD PUSH1 0x40 MSTORE DUP1 SWAP3 SWAP2 SWAP1 DUP2 DUP2 MSTORE PUSH1 0x20 ADD DUP3 DUP1 SLOAD PUSH2 0x28B SWAP1 PUSH2 0x15A7 JUMP JUMPDEST DUP1 ISZERO PUSH2 0x2D6 JUMPI DUP1 PUSH1 0x1F LT PUSH2 0x2AD JUMPI PUSH2 0x100 DUP1 DUP4 SLOAD DIV MUL DUP4 MSTORE SWAP2 PUSH1 0x20 ADD SWAP2 PUSH2 0x2D6 JUMP JUMPDEST DUP3 ADD SWAP2 SWAP1 PUSH0 MSTORE PUSH1 0x20 PUSH0 KECCAK256 SWAP1 JUMPDEST DUP2 SLOAD DUP2 MSTORE SWAP1 PUSH1 0x1 ADD SWAP1 PUSH1 0x20 ADD DUP1 DUP4 GT PUSH2 0x2B9 JUMPI DUP3 SWAP1 SUB PUSH1 0x1F AND DUP3 ADD SWAP2 JUMPDEST POP POP POP POP POP SWAP1 DUP1 PUSH1 0x3 ADD SLOAD SWAP1 DUP1 PUSH1 0x4 ADD SLOAD SWAP1 POP DUP6 JUMP JUMPDEST PUSH1 0x60 PUSH0 DUP1 DUP4 PUSH20 0xFFFFFFFFFFFFFFFFFFFFFFFFFFFFFFFFFFFFFFFF AND PUSH20 0xFFFFFFFFFFFFFFFFFFFFFFFFFFFFFFFFFFFFFFFF AND DUP2 MSTORE PUSH1 0x20 ADD SWAP1 DUP2 MSTORE PUSH1 0x20 ADD PUSH0 KECCAK256 DUP1 SLOAD DUP1 PUSH1 0x20 MUL PUSH1 0x20 ADD PUSH1 0x40 MLOAD SWAP1 DUP2 ADD PUSH1 0x40 MSTORE DUP1 SWAP3 SWAP2 SWAP1 DUP2 DUP2 MSTORE PUSH1 0x20 ADD PUSH0 SWAP1 JUMPDEST DUP3 DUP3 LT ISZERO PUSH2 0x47B JUMPI DUP4 DUP3 SWAP1 PUSH0 MSTORE PUSH1 0x20 PUSH0 KECCAK256 SWAP1 PUSH1 0x5 MUL ADD PUSH1 0x40 MLOAD DUP1 PUSH1 0xA0 ADD PUSH1 0x40 MSTORE SWAP1 DUP2 PUSH0 DUP3 ADD SLOAD DUP2 MSTORE PUSH1 0x20 ADD PUSH1 0x1 DUP3 ADD PUSH0 SWAP1 SLOAD SWAP1 PUSH2 0x100 EXP SWAP1 DIV PUSH20 0xFFFFFFFFFFFFFFFFFFFFFFFFFFFFFFFFFFFFFFFF AND PUSH20 0xFFFFFFFFFFFFFFFFFFFFFFFFFFFFFFFFFFFFFFFF AND PUSH20 0xFFFFFFFFFFFFFFFFFFFFFFFFFFFFFFFFFFFFFFFF AND DUP2 MSTORE PUSH1 0x20 ADD PUSH1 0x2 DUP3 ADD DUP1 SLOAD PUSH2 0x3D8 SWAP1 PUSH2 0x15A7 JUMP JUMPDEST DUP1 PUSH1 0x1F ADD PUSH1 0x20 DUP1 SWAP2 DIV MUL PUSH1 0x20 ADD PUSH1 0x40 MLOAD SWAP1 DUP2 ADD PUSH1 0x40 MSTORE DUP1 SWAP3 SWAP2 SWAP1 DUP2 DUP2 MSTORE PUSH1 0x20 ADD DUP3 DUP1 SLOAD PUSH2 0x404 SWAP1 PUSH2 0x15A7 JUMP JUMPDEST DUP1 ISZERO PUSH2 0x44F JUMPI DUP1 PUSH1 0x1F LT PUSH2 0x426 JUMPI PUSH2 0x100 DUP1 DUP4 SLOAD DIV MUL DUP4 MSTORE SWAP2 PUSH1 0x20 ADD SWAP2 PUSH2 0x44F JUMP JUMPDEST DUP3 ADD SWAP2 SWAP1 PUSH0 MSTORE PUSH1 0x20 PUSH0 KECCAK256 SWAP1 JUMPDEST DUP2 SLOAD DUP2 MSTORE SWAP1 PUSH1 0x1 ADD SWAP1 PUSH1 0x20 ADD DUP1 DUP4 GT PUSH2 0x432 JUMPI DUP3 SWAP1 SUB PUSH1 0x1F AND DUP3 ADD SWAP2 JUMPDEST POP POP POP POP POP DUP2 MSTORE PUSH1 0x20 ADD PUSH1 0x3 DUP3 ADD SLOAD DUP2 MSTORE PUSH1 0x20 ADD PUSH1 0x4 DUP3 ADD SLOAD DUP2 MSTORE POP POP DUP2 MSTORE PUSH1 0x20 ADD SWAP1 PUSH1 0x1 ADD SWAP1 PUSH2 0x349 JUMP JUMPDEST POP POP POP POP SWAP1 POP SWAP2 SWAP1 POP JUMP JUMPDEST PUSH0 DUP1 DUP3 PUSH20 0xFFFFFFFFFFFFFFFFFFFFFFFFFFFFFFFFFFFFFFFF AND PUSH20 0xFFFFFFFFFFFFFFFFFFFFFFFFFFFFFFFFFFFFFFFF AND DUP2 MSTORE PUSH1 0x20 ADD SWAP1 DUP2 MSTORE PUSH1 0x20 ADD PUSH0 KECCAK256 PUSH0 PUSH2 0x4CD SWAP2 SWAP1 PUSH2 0xDAD JUMP JUMPDEST POP JUMP JUMPDEST CALLER PUSH20 0xFFFFFFFFFFFFFFFFFFFFFFFFFFFFFFFFFFFFFFFF AND PUSH1 0x1 PUSH1 0x2 SWAP1 SLOAD SWAP1 PUSH2 0x100 EXP SWAP1 DIV PUSH20 0xFFFFFFFFFFFFFFFFFFFFFFFFFFFFFFFFFFFFFFFF AND PUSH20 0xFFFFFFFFFFFFFFFFFFFFFFFFFFFFFFFFFFFFFFFF AND EQ PUSH2 0x560 JUMPI PUSH1 0x40 MLOAD PUSH32 0x8C379A000000000000000000000000000000000000000000000000000000000 DUP2 MSTORE PUSH1 0x4 ADD PUSH2 0x557 SWAP1 PUSH2 0x1621 JUMP JUMPDEST PUSH1 0x40 MLOAD DUP1 SWAP2 SUB SWAP1 REVERT JUMPDEST DUP1 PUSH1 0x1 PUSH0 PUSH2 0x100 EXP DUP2 SLOAD DUP2 PUSH2 0xFFFF MUL NOT AND SWAP1 DUP4 PUSH2 0xFFFF AND MUL OR SWAP1 SSTORE POP POP JUMP JUMPDEST PUSH1 0x1 PUSH0 SWAP1 SLOAD SWAP1 PUSH2 0x100 EXP SWAP1 DIV PUSH2 0xFFFF AND DUP2 JUMP JUMPDEST PUSH1 0x1 PUSH0 SWAP1 SLOAD SWAP1 PUSH2 0x100 EXP SWAP1 DIV PUSH2 0xFFFF AND PUSH2 0xFFFF AND DUP2 MLOAD GT ISZERO PUSH2 0x5E9 JUMPI PUSH1 0x40 MLOAD PUSH32 0x8C379A000000000000000000000000000000000000000000000000000000000 DUP2 MSTORE PUSH1 0x4 ADD PUSH2 0x5E0 SWAP1 PUSH2 0x16AF JUMP JUMPDEST PUSH1 0x40 MLOAD DUP1 SWAP2 SUB SWAP1 REVERT JUMPDEST PUSH0 PUSH1 0x40 MLOAD DUP1 PUSH1 0xA0 ADD PUSH1 0x40 MSTORE DUP1 PUSH0 DUP1 CALLER PUSH20 0xFFFFFFFFFFFFFFFFFFFFFFFFFFFFFFFFFFFFFFFF AND PUSH20 0xFFFFFFFFFFFFFFFFFFFFFFFFFFFFFFFFFFFFFFFF AND DUP2 MSTORE PUSH1 0x20 ADD SWAP1 DUP2 MSTORE PUSH1 0x20 ADD PUSH0 KECCAK256 DUP1 SLOAD SWAP1 POP DUP2 MSTORE PUSH1 0x20 ADD CALLER PUSH20 0xFFFFFFFFFFFFFFFFFFFFFFFFFFFFFFFFFFFFFFFF AND DUP2 MSTORE PUSH1 0x20 ADD DUP4 DUP2 MSTORE PUSH1 0x20 ADD TIMESTAMP DUP2 MSTORE PUSH1 0x20 ADD PUSH0 DUP2 MSTORE POP SWAP1 POP PUSH0 DUP1 CALLER PUSH20 0xFFFFFFFFFFFFFFFFFFFFFFFFFFFFFFFFFFFFFFFF AND PUSH20 0xFFFFFFFFFFFFFFFFFFFFFFFFFFFFFFFFFFFFFFFF AND DUP2 MSTORE PUSH1 0x20 ADD SWAP1 DUP2 MSTORE PUSH1 0x20 ADD PUSH0 KECCAK256 DUP2 SWAP1 DUP1 PUSH1 0x1 DUP2 SLOAD ADD DUP1 DUP3 SSTORE DUP1 SWAP2 POP POP PUSH1 0x1 SWAP1 SUB SWAP1 PUSH0 MSTORE PUSH1 0x20 PUSH0 KECCAK256 SWAP1 PUSH1 0x5 MUL ADD PUSH0 SWAP1 SWAP2 SWAP1 SWAP2 SWAP1 SWAP2 POP PUSH0 DUP3 ADD MLOAD DUP2 PUSH0 ADD SSTORE PUSH1 0x20 DUP3 ADD MLOAD DUP2 PUSH1 0x1 ADD PUSH0 PUSH2 0x100 EXP DUP2 SLOAD DUP2 PUSH20 0xFFFFFFFFFFFFFFFFFFFFFFFFFFFFFFFFFFFFFFFF MUL NOT AND SWAP1 DUP4 PUSH20 0xFFFFFFFFFFFFFFFFFFFFFFFFFFFFFFFFFFFFFFFF AND MUL OR SWAP1 SSTORE POP PUSH1 0x40 DUP3 ADD MLOAD DUP2 PUSH1 0x2 ADD SWAP1 DUP2 PUSH2 0x72E SWAP2 SWAP1 PUSH2 0x186A JUMP JUMPDEST POP PUSH1 0x60 DUP3 ADD MLOAD DUP2 PUSH1 0x3 ADD SSTORE PUSH1 0x80 DUP3 ADD MLOAD DUP2 PUSH1 0x4 ADD SSTORE POP POP DUP1 PUSH0 ADD MLOAD PUSH32 0x16FD3C13E9D46923E0A8BCE11C7B473EC508A72E6C96CD2404B29CE972AFC29E DUP3 PUSH1 0x20 ADD MLOAD DUP4 PUSH1 0x40 ADD MLOAD DUP5 PUSH1 0x60 ADD MLOAD PUSH1 0x40 MLOAD PUSH2 0x788 SWAP4 SWAP3 SWAP2 SWAP1 PUSH2 0x1939 JUMP JUMPDEST PUSH1 0x40 MLOAD DUP1 SWAP2 SUB SWAP1 LOG2 POP POP JUMP JUMPDEST PUSH1 0x1 PUSH1 0x2 SWAP1 SLOAD SWAP1 PUSH2 0x100 EXP SWAP1 DIV PUSH20 0xFFFFFFFFFFFFFFFFFFFFFFFFFFFFFFFFFFFFFFFF AND DUP2 JUMP JUMPDEST DUP2 PUSH0 DUP1 DUP4 PUSH20 0xFFFFFFFFFFFFFFFFFFFFFFFFFFFFFFFFFFFFFFFF AND PUSH20 0xFFFFFFFFFFFFFFFFFFFFFFFFFFFFFFFFFFFFFFFF AND DUP2 MSTORE PUSH1 0x20 ADD SWAP1 DUP2 MSTORE PUSH1 0x20 ADD PUSH0 KECCAK256 DUP4 DUP2 SLOAD DUP2 LT PUSH2 0x809 JUMPI PUSH2 0x808 PUSH2 0x1975 JUMP JUMPDEST JUMPDEST SWAP1 PUSH0 MSTORE PUSH1 0x20 PUSH0 KECCAK256 SWAP1 PUSH1 0x5 MUL ADD PUSH0 ADD SLOAD EQ PUSH2 0x858 JUMPI PUSH1 0x40 MLOAD PUSH32 0x8C379A000000000000000000000000000000000000000000000000000000000 DUP2 MSTORE PUSH1 0x4 ADD PUSH2 0x84F SWAP1 PUSH2 0x19EC JUMP JUMPDEST PUSH1 0x40 MLOAD DUP1 SWAP2 SUB SWAP1 REVERT JUMPDEST PUSH0 DUP1 PUSH0 DUP4 PUSH20 0xFFFFFFFFFFFFFFFFFFFFFFFFFFFFFFFFFFFFFFFF AND PUSH20 0xFFFFFFFFFFFFFFFFFFFFFFFFFFFFFFFFFFFFFFFF AND DUP2 MSTORE PUSH1 0x20 ADD SWAP1 DUP2 MSTORE PUSH1 0x20 ADD PUSH0 KECCAK256 DUP4 DUP2 SLOAD DUP2 LT PUSH2 0x8A7 JUMPI PUSH2 0x8A6 PUSH2 0x1975 JUMP JUMPDEST JUMPDEST SWAP1 PUSH0 MSTORE PUSH1 0x20 PUSH0 KECCAK256 SWAP1 PUSH1 0x5 MUL ADD PUSH1 0x4 ADD SLOAD GT PUSH2 0x8F7 JUMPI PUSH1 0x40 MLOAD PUSH32 0x8C379A000000000000000000000000000000000000000000000000000000000 DUP2 MSTORE PUSH1 0x4 ADD PUSH2 0x8EE SWAP1 PUSH2 0x1A54 JUMP JUMPDEST PUSH1 0x40 MLOAD DUP1 SWAP2 SUB SWAP1 REVERT JUMPDEST PUSH0 DUP1 DUP3 PUSH20 0xFFFFFFFFFFFFFFFFFFFFFFFFFFFFFFFFFFFFFFFF AND PUSH20 0xFFFFFFFFFFFFFFFFFFFFFFFFFFFFFFFFFFFFFFFF AND DUP2 MSTORE PUSH1 0x20 ADD SWAP1 DUP2 MSTORE PUSH1 0x20 ADD PUSH0 KECCAK256 DUP3 DUP2 SLOAD DUP2 LT PUSH2 0x945 JUMPI PUSH2 0x944 PUSH2 0x1975 JUMP JUMPDEST JUMPDEST SWAP1 PUSH0 MSTORE PUSH1 0x20 PUSH0 KECCAK256 SWAP1 PUSH1 0x5 MUL ADD PUSH1 0x4 ADD PUSH0 DUP2 SLOAD DUP1 SWAP3 SWAP2 SWAP1 PUSH2 0x964 SWAP1 PUSH2 0x1A9F JUMP JUMPDEST SWAP2 SWAP1 POP SSTORE POP PUSH32 0x273883C252143C4ABCE776697615E41CA9BC1AAC5968C585D1C8BA8FFAA8B3C1 CALLER DUP3 DUP5 PUSH0 DUP1 DUP7 PUSH20 0xFFFFFFFFFFFFFFFFFFFFFFFFFFFFFFFFFFFFFFFF AND PUSH20 0xFFFFFFFFFFFFFFFFFFFFFFFFFFFFFFFFFFFFFFFF AND DUP2 MSTORE PUSH1 0x20 ADD SWAP1 DUP2 MSTORE PUSH1 0x20 ADD PUSH0 KECCAK256 DUP7 DUP2 SLOAD DUP2 LT PUSH2 0x9DB JUMPI PUSH2 0x9DA PUSH2 0x1975 JUMP JUMPDEST JUMPDEST SWAP1 PUSH0 MSTORE PUSH1 0x20 PUSH0 KECCAK256 SWAP1 PUSH1 0x5 MUL ADD PUSH1 0x4 ADD SLOAD PUSH1 0x40 MLOAD PUSH2 0x9FB SWAP5 SWAP4 SWAP3 SWAP2 SWAP1 PUSH2 0x1AC6 JUMP JUMPDEST PUSH1 0x40 MLOAD DUP1 SWAP2 SUB SWAP1 LOG1 POP POP JUMP JUMPDEST DUP2 PUSH0 DUP1 DUP4 PUSH20 0xFFFFFFFFFFFFFFFFFFFFFFFFFFFFFFFFFFFFFFFF AND PUSH20 0xFFFFFFFFFFFFFFFFFFFFFFFFFFFFFFFFFFFFFFFF AND DUP2 MSTORE PUSH1 0x20 ADD SWAP1 DUP2 MSTORE PUSH1 0x20 ADD PUSH0 KECCAK256 DUP4 DUP2 SLOAD DUP2 LT PUSH2 0xA56 JUMPI PUSH2 0xA55 PUSH2 0x1975 JUMP JUMPDEST JUMPDEST SWAP1 PUSH0 MSTORE PUSH1 0x20 PUSH0 KECCAK256 SWAP1 PUSH1 0x5 MUL ADD PUSH0 ADD SLOAD EQ PUSH2 0xAA5 JUMPI PUSH1 0x40 MLOAD PUSH32 0x8C379A000000000000000000000000000000000000000000000000000000000 DUP2 MSTORE PUSH1 0x4 ADD PUSH2 0xA9C SWAP1 PUSH2 0x19EC JUMP JUMPDEST PUSH1 0x40 MLOAD DUP1 SWAP2 SUB SWAP1 REVERT JUMPDEST PUSH0 DUP1 DUP3 PUSH20 0xFFFFFFFFFFFFFFFFFFFFFFFFFFFFFFFFFFFFFFFF AND PUSH20 0xFFFFFFFFFFFFFFFFFFFFFFFFFFFFFFFFFFFFFFFF AND DUP2 MSTORE PUSH1 0x20 ADD SWAP1 DUP2 MSTORE PUSH1 0x20 ADD PUSH0 KECCAK256 DUP3 DUP2 SLOAD DUP2 LT PUSH2 0xAF3 JUMPI PUSH2 0xAF2 PUSH2 0x1975 JUMP JUMPDEST JUMPDEST SWAP1 PUSH0 MSTORE PUSH1 0x20 PUSH0 KECCAK256 SWAP1 PUSH1 0x5 MUL ADD PUSH1 0x4 ADD PUSH0 DUP2 SLOAD DUP1 SWAP3 SWAP2 SWAP1 PUSH2 0xB12 SWAP1 PUSH2 0x1B09 JUMP JUMPDEST SWAP2 SWAP1 POP SSTORE POP PUSH32 0xE8A76FC0F16D11A00D1E93B689B63D76CF60AF914DD3D915375DC41D01A0C3C8 CALLER DUP3 DUP5 PUSH0 DUP1 DUP7 PUSH20 0xFFFFFFFFFFFFFFFFFFFFFFFFFFFFFFFFFFFFFFFF AND PUSH20 0xFFFFFFFFFFFFFFFFFFFFFFFFFFFFFFFFFFFFFFFF AND DUP2 MSTORE PUSH1 0x20 ADD SWAP1 DUP2 MSTORE PUSH1 0x20 ADD PUSH0 KECCAK256 DUP7 DUP2 SLOAD DUP2 LT PUSH2 0xB89 JUMPI PUSH2 0xB88 PUSH2 0x1975 JUMP JUMPDEST JUMPDEST SWAP1 PUSH0 MSTORE PUSH1 0x20 PUSH0 KECCAK256 SWAP1 PUSH1 0x5 MUL ADD PUSH1 0x4 ADD SLOAD PUSH1 0x40 MLOAD PUSH2 0xBA9 SWAP5 SWAP4 SWAP3 SWAP2 SWAP1 PUSH2 0x1AC6 JUMP JUMPDEST PUSH1 0x40 MLOAD DUP1 SWAP2 SUB SWAP1 LOG1 POP POP JUMP JUMPDEST PUSH2 0xBBD PUSH2 0xDCE JUMP JUMPDEST PUSH0 DUP1 CALLER PUSH20 0xFFFFFFFFFFFFFFFFFFFFFFFFFFFFFFFFFFFFFFFF AND PUSH20 0xFFFFFFFFFFFFFFFFFFFFFFFFFFFFFFFFFFFFFFFF AND DUP2 MSTORE PUSH1 0x20 ADD SWAP1 DUP2 MSTORE PUSH1 0x20 ADD PUSH0 KECCAK256 DUP1 SLOAD SWAP1 POP DUP3 GT ISZERO PUSH2 0xC3F JUMPI PUSH1 0x40 MLOAD PUSH32 0x8C379A000000000000000000000000000000000000000000000000000000000 DUP2 MSTORE PUSH1 0x4 ADD PUSH2 0xC36 SWAP1 PUSH2 0x1B9A JUMP JUMPDEST PUSH1 0x40 MLOAD DUP1 SWAP2 SUB SWAP1 REVERT JUMPDEST PUSH0 DUP1 CALLER PUSH20 0xFFFFFFFFFFFFFFFFFFFFFFFFFFFFFFFFFFFFFFFF AND PUSH20 0xFFFFFFFFFFFFFFFFFFFFFFFFFFFFFFFFFFFFFFFF AND DUP2 MSTORE PUSH1 0x20 ADD SWAP1 DUP2 MSTORE PUSH1 0x20 ADD PUSH0 KECCAK256 DUP3 DUP2 SLOAD DUP2 LT PUSH2 0xC8D JUMPI PUSH2 0xC8C PUSH2 0x1975 JUMP JUMPDEST JUMPDEST SWAP1 PUSH0 MSTORE PUSH1 0x20 PUSH0 KECCAK256 SWAP1 PUSH1 0x5 MUL ADD PUSH1 0x40 MLOAD DUP1 PUSH1 0xA0 ADD PUSH1 0x40 MSTORE SWAP1 DUP2 PUSH0 DUP3 ADD SLOAD DUP2 MSTORE PUSH1 0x20 ADD PUSH1 0x1 DUP3 ADD PUSH0 SWAP1 SLOAD SWAP1 PUSH2 0x100 EXP SWAP1 DIV PUSH20 0xFFFFFFFFFFFFFFFFFFFFFFFFFFFFFFFFFFFFFFFF AND PUSH20 0xFFFFFFFFFFFFFFFFFFFFFFFFFFFFFFFFFFFFFFFF AND PUSH20 0xFFFFFFFFFFFFFFFFFFFFFFFFFFFFFFFFFFFFFFFF AND DUP2 MSTORE PUSH1 0x20 ADD PUSH1 0x2 DUP3 ADD DUP1 SLOAD PUSH2 0xD12 SWAP1 PUSH2 0x15A7 JUMP JUMPDEST DUP1 PUSH1 0x1F ADD PUSH1 0x20 DUP1 SWAP2 DIV MUL PUSH1 0x20 ADD PUSH1 0x40 MLOAD SWAP1 DUP2 ADD PUSH1 0x40 MSTORE DUP1 SWAP3 SWAP2 SWAP1 DUP2 DUP2 MSTORE PUSH1 0x20 ADD DUP3 DUP1 SLOAD PUSH2 0xD3E SWAP1 PUSH2 0x15A7 JUMP JUMPDEST DUP1 ISZERO PUSH2 0xD89 JUMPI DUP1 PUSH1 0x1F LT PUSH2 0xD60 JUMPI PUSH2 0x100 DUP1 DUP4 SLOAD DIV MUL DUP4 MSTORE SWAP2 PUSH1 0x20 ADD SWAP2 PUSH2 0xD89 JUMP JUMPDEST DUP3 ADD SWAP2 SWAP1 PUSH0 MSTORE PUSH1 0x20 PUSH0 KECCAK256 SWAP1 JUMPDEST DUP2 SLOAD DUP2 MSTORE SWAP1 PUSH1 0x1 ADD SWAP1 PUSH1 0x20 ADD DUP1 DUP4 GT PUSH2 0xD6C JUMPI DUP3 SWAP1 SUB PUSH1 0x1F AND DUP3 ADD SWAP2 JUMPDEST POP POP POP POP POP DUP2 MSTORE PUSH1 0x20 ADD PUSH1 0x3 DUP3 ADD SLOAD DUP2 MSTORE PUSH1 0x20 ADD PUSH1 0x4 DUP3 ADD SLOAD DUP2 MSTORE POP POP SWAP1 POP SWAP2 SWAP1 POP JUMP JUMPDEST POP DUP1 SLOAD PUSH0 DUP3 SSTORE PUSH1 0x5 MUL SWAP1 PUSH0 MSTORE PUSH1 0x20 PUSH0 KECCAK256 SWAP1 DUP2 ADD SWAP1 PUSH2 0xDCB SWAP2 SWAP1 PUSH2 0xE0F JUMP JUMPDEST POP JUMP JUMPDEST PUSH1 0x40 MLOAD DUP1 PUSH1 0xA0 ADD PUSH1 0x40 MSTORE DUP1 PUSH0 DUP2 MSTORE PUSH1 0x20 ADD PUSH0 PUSH20 0xFFFFFFFFFFFFFFFFFFFFFFFFFFFFFFFFFFFFFFFF AND DUP2 MSTORE PUSH1 0x20 ADD PUSH1 0x60 DUP2 MSTORE PUSH1 0x20 ADD PUSH0 DUP2 MSTORE PUSH1 0x20 ADD PUSH0 DUP2 MSTORE POP SWAP1 JUMP JUMPDEST JUMPDEST DUP1 DUP3 GT ISZERO PUSH2 0xE6B JUMPI PUSH0 DUP1 DUP3 ADD PUSH0 SWAP1 SSTORE PUSH1 0x1 DUP3 ADD PUSH0 PUSH2 0x100 EXP DUP2 SLOAD SWAP1 PUSH20 0xFFFFFFFFFFFFFFFFFFFFFFFFFFFFFFFFFFFFFFFF MUL NOT AND SWAP1 SSTORE PUSH1 0x2 DUP3 ADD PUSH0 PUSH2 0xE54 SWAP2 SWAP1 PUSH2 0xE6F JUMP JUMPDEST PUSH1 0x3 DUP3 ADD PUSH0 SWAP1 SSTORE PUSH1 0x4 DUP3 ADD PUSH0 SWAP1 SSTORE POP PUSH1 0x5 ADD PUSH2 0xE10 JUMP JUMPDEST POP SWAP1 JUMP JUMPDEST POP DUP1 SLOAD PUSH2 0xE7B SWAP1 PUSH2 0x15A7 JUMP JUMPDEST PUSH0 DUP3 SSTORE DUP1 PUSH1 0x1F LT PUSH2 0xE8C JUMPI POP PUSH2 0xEA9 JUMP JUMPDEST PUSH1 0x1F ADD PUSH1 0x20 SWAP1 DIV SWAP1 PUSH0 MSTORE PUSH1 0x20 PUSH0 KECCAK256 SWAP1 DUP2 ADD SWAP1 PUSH2 0xEA8 SWAP2 SWAP1 PUSH2 0xEAC JUMP JUMPDEST JUMPDEST POP JUMP JUMPDEST JUMPDEST DUP1 DUP3 GT ISZERO PUSH2 0xEC3 JUMPI PUSH0 DUP2 PUSH0 SWAP1 SSTORE POP PUSH1 0x1 ADD PUSH2 0xEAD JUMP JUMPDEST POP SWAP1 JUMP JUMPDEST PUSH0 PUSH1 0x40 MLOAD SWAP1 POP SWAP1 JUMP JUMPDEST PUSH0 DUP1 REVERT JUMPDEST PUSH0 DUP1 REVERT JUMPDEST PUSH0 PUSH20 0xFFFFFFFFFFFFFFFFFFFFFFFFFFFFFFFFFFFFFFFF DUP3 AND SWAP1 POP SWAP2 SWAP1 POP JUMP JUMPDEST PUSH0 PUSH2 0xF01 DUP3 PUSH2 0xED8 JUMP JUMPDEST SWAP1 POP SWAP2 SWAP1 POP JUMP JUMPDEST PUSH2 0xF11 DUP2 PUSH2 0xEF7 JUMP JUMPDEST DUP2 EQ PUSH2 0xF1B JUMPI PUSH0 DUP1 REVERT JUMPDEST POP JUMP JUMPDEST PUSH0 DUP2 CALLDATALOAD SWAP1 POP PUSH2 0xF2C DUP2 PUSH2 0xF08 JUMP JUMPDEST SWAP3 SWAP2 POP POP JUMP JUMPDEST PUSH0 DUP2 SWAP1 POP SWAP2 SWAP1 POP JUMP JUMPDEST PUSH2 0xF44 DUP2 PUSH2 0xF32 JUMP JUMPDEST DUP2 EQ PUSH2 0xF4E JUMPI PUSH0 DUP1 REVERT JUMPDEST POP JUMP JUMPDEST PUSH0 DUP2 CALLDATALOAD SWAP1 POP PUSH2 0xF5F DUP2 PUSH2 0xF3B JUMP JUMPDEST SWAP3 SWAP2 POP POP JUMP JUMPDEST PUSH0 DUP1 PUSH1 0x40 DUP4 DUP6 SUB SLT ISZERO PUSH2 0xF7B JUMPI PUSH2 0xF7A PUSH2 0xED0 JUMP JUMPDEST JUMPDEST PUSH0 PUSH2 0xF88 DUP6 DUP3 DUP7 ADD PUSH2 0xF1E JUMP JUMPDEST SWAP3 POP POP PUSH1 0x20 PUSH2 0xF99 DUP6 DUP3 DUP7 ADD PUSH2 0xF51 JUMP JUMPDEST SWAP2 POP POP SWAP3 POP SWAP3 SWAP1 POP JUMP JUMPDEST PUSH2 0xFAC DUP2 PUSH2 0xF32 JUMP JUMPDEST DUP3 MSTORE POP POP JUMP JUMPDEST PUSH2 0xFBB DUP2 PUSH2 0xEF7 JUMP JUMPDEST DUP3 MSTORE POP POP JUMP JUMPDEST PUSH0 DUP2 MLOAD SWAP1 POP SWAP2 SWAP1 POP JUMP JUMPDEST PUSH0 DUP3 DUP3 MSTORE PUSH1 0x20 DUP3 ADD SWAP1 POP SWAP3 SWAP2 POP POP JUMP JUMPDEST DUP3 DUP2 DUP4 MCOPY PUSH0 DUP4 DUP4 ADD MSTORE POP POP POP JUMP JUMPDEST PUSH0 PUSH1 0x1F NOT PUSH1 0x1F DUP4 ADD AND SWAP1 POP SWAP2 SWAP1 POP JUMP JUMPDEST PUSH0 PUSH2 0x1003 DUP3 PUSH2 0xFC1 JUMP JUMPDEST PUSH2 0x100D DUP2 DUP6 PUSH2 0xFCB JUMP JUMPDEST SWAP4 POP PUSH2 0x101D DUP2 DUP6 PUSH1 0x20 DUP7 ADD PUSH2 0xFDB JUMP JUMPDEST PUSH2 0x1026 DUP2 PUSH2 0xFE9 JUMP JUMPDEST DUP5 ADD SWAP2 POP POP SWAP3 SWAP2 POP POP JUMP JUMPDEST PUSH0 PUSH1 0xA0 DUP3 ADD SWAP1 POP PUSH2 0x1044 PUSH0 DUP4 ADD DUP9 PUSH2 0xFA3 JUMP JUMPDEST PUSH2 0x1051 PUSH1 0x20 DUP4 ADD DUP8 PUSH2 0xFB2 JUMP JUMPDEST DUP2 DUP2 SUB PUSH1 0x40 DUP4 ADD MSTORE PUSH2 0x1063 DUP2 DUP7 PUSH2 0xFF9 JUMP JUMPDEST SWAP1 POP PUSH2 0x1072 PUSH1 0x60 DUP4 ADD DUP6 PUSH2 0xFA3 JUMP JUMPDEST PUSH2 0x107F PUSH1 0x80 DUP4 ADD DUP5 PUSH2 0xFA3 JUMP JUMPDEST SWAP7 SWAP6 POP POP POP POP POP POP JUMP JUMPDEST PUSH0 PUSH1 0x20 DUP3 DUP5 SUB SLT ISZERO PUSH2 0x109E JUMPI PUSH2 0x109D PUSH2 0xED0 JUMP JUMPDEST JUMPDEST PUSH0 PUSH2 0x10AB DUP5 DUP3 DUP6 ADD PUSH2 0xF1E JUMP JUMPDEST SWAP2 POP POP SWAP3 SWAP2 POP POP JUMP JUMPDEST PUSH0 DUP2 MLOAD SWAP1 POP SWAP2 SWAP1 POP JUMP JUMPDEST PUSH0 DUP3 DUP3 MSTORE PUSH1 0x20 DUP3 ADD SWAP1 POP SWAP3 SWAP2 POP POP JUMP JUMPDEST PUSH0 DUP2 SWAP1 POP PUSH1 0x20 DUP3 ADD SWAP1 POP SWAP2 SWAP1 POP JUMP JUMPDEST PUSH2 0x10E6 DUP2 PUSH2 0xF32 JUMP JUMPDEST DUP3 MSTORE POP POP JUMP JUMPDEST PUSH2 0x10F5 DUP2 PUSH2 0xEF7 JUMP JUMPDEST DUP3 MSTORE POP POP JUMP JUMPDEST PUSH0 DUP3 DUP3 MSTORE PUSH1 0x20 DUP3 ADD SWAP1 POP SWAP3 SWAP2 POP POP JUMP JUMPDEST PUSH0 PUSH2 0x1115 DUP3 PUSH2 0xFC1 JUMP JUMPDEST PUSH2 0x111F DUP2 DUP6 PUSH2 0x10FB JUMP JUMPDEST SWAP4 POP PUSH2 0x112F DUP2 DUP6 PUSH1 0x20 DUP7 ADD PUSH2 0xFDB JUMP JUMPDEST PUSH2 0x1138 DUP2 PUSH2 0xFE9 JUMP JUMPDEST DUP5 ADD SWAP2 POP POP SWAP3 SWAP2 POP POP JUMP JUMPDEST PUSH0 PUSH1 0xA0 DUP4 ADD PUSH0 DUP4 ADD MLOAD PUSH2 0x1158 PUSH0 DUP7 ADD DUP3 PUSH2 0x10DD JUMP JUMPDEST POP PUSH1 0x20 DUP4 ADD MLOAD PUSH2 0x116B PUSH1 0x20 DUP7 ADD DUP3 PUSH2 0x10EC JUMP JUMPDEST POP PUSH1 0x40 DUP4 ADD MLOAD DUP5 DUP3 SUB PUSH1 0x40 DUP7 ADD MSTORE PUSH2 0x1183 DUP3 DUP3 PUSH2 0x110B JUMP JUMPDEST SWAP2 POP POP PUSH1 0x60 DUP4 ADD MLOAD PUSH2 0x1198 PUSH1 0x60 DUP7 ADD DUP3 PUSH2 0x10DD JUMP JUMPDEST POP PUSH1 0x80 DUP4 ADD MLOAD PUSH2 0x11AB PUSH1 0x80 DUP7 ADD DUP3 PUSH2 0x10DD JUMP JUMPDEST POP DUP1 SWAP2 POP POP SWAP3 SWAP2 POP POP JUMP JUMPDEST PUSH0 PUSH2 0x11C1 DUP4 DUP4 PUSH2 0x1143 JUMP JUMPDEST SWAP1 POP SWAP3 SWAP2 POP POP JUMP JUMPDEST PUSH0 PUSH1 0x20 DUP3 ADD SWAP1 POP SWAP2 SWAP1 POP JUMP JUMPDEST PUSH0 PUSH2 0x11DF DUP3 PUSH2 0x10B4 JUMP JUMPDEST PUSH2 0x11E9 DUP2 DUP6 PUSH2 0x10BE JUMP JUMPDEST SWAP4 POP DUP4 PUSH1 0x20 DUP3 MUL DUP6 ADD PUSH2 0x11FB DUP6 PUSH2 0x10CE JUMP JUMPDEST DUP1 PUSH0 JUMPDEST DUP6 DUP2 LT ISZERO PUSH2 0x1236 JUMPI DUP5 DUP5 SUB DUP10 MSTORE DUP2 MLOAD PUSH2 0x1217 DUP6 DUP3 PUSH2 0x11B6 JUMP JUMPDEST SWAP5 POP PUSH2 0x1222 DUP4 PUSH2 0x11C9 JUMP JUMPDEST SWAP3 POP PUSH1 0x20 DUP11 ADD SWAP10 POP POP PUSH1 0x1 DUP2 ADD SWAP1 POP PUSH2 0x11FE JUMP JUMPDEST POP DUP3 SWAP8 POP DUP8 SWAP6 POP POP POP POP POP POP SWAP3 SWAP2 POP POP JUMP JUMPDEST PUSH0 PUSH1 0x20 DUP3 ADD SWAP1 POP DUP2 DUP2 SUB PUSH0 DUP4 ADD MSTORE PUSH2 0x1260 DUP2 DUP5 PUSH2 0x11D5 JUMP JUMPDEST SWAP1 POP SWAP3 SWAP2 POP POP JUMP JUMPDEST PUSH0 PUSH2 0xFFFF DUP3 AND SWAP1 POP SWAP2 SWAP1 POP JUMP JUMPDEST PUSH2 0x127E DUP2 PUSH2 0x1268 JUMP JUMPDEST DUP2 EQ PUSH2 0x1288 JUMPI PUSH0 DUP1 REVERT JUMPDEST POP JUMP JUMPDEST PUSH0 DUP2 CALLDATALOAD SWAP1 POP PUSH2 0x1299 DUP2 PUSH2 0x1275 JUMP JUMPDEST SWAP3 SWAP2 POP POP JUMP JUMPDEST PUSH0 PUSH1 0x20 DUP3 DUP5 SUB SLT ISZERO PUSH2 0x12B4 JUMPI PUSH2 0x12B3 PUSH2 0xED0 JUMP JUMPDEST JUMPDEST PUSH0 PUSH2 0x12C1 DUP5 DUP3 DUP6 ADD PUSH2 0x128B JUMP JUMPDEST SWAP2 POP POP SWAP3 SWAP2 POP POP JUMP JUMPDEST PUSH2 0x12D3 DUP2 PUSH2 0x1268 JUMP JUMPDEST DUP3 MSTORE POP POP JUMP JUMPDEST PUSH0 PUSH1 0x20 DUP3 ADD SWAP1 POP PUSH2 0x12EC PUSH0 DUP4 ADD DUP5 PUSH2 0x12CA JUMP JUMPDEST SWAP3 SWAP2 POP POP JUMP JUMPDEST PUSH0 DUP1 REVERT JUMPDEST PUSH0 DUP1 REVERT JUMPDEST PUSH32 0x4E487B7100000000000000000000000000000000000000000000000000000000 PUSH0 MSTORE PUSH1 0x41 PUSH1 0x4 MSTORE PUSH1 0x24 PUSH0 REVERT JUMPDEST PUSH2 0x1330 DUP3 PUSH2 0xFE9 JUMP JUMPDEST DUP2 ADD DUP2 DUP2 LT PUSH8 0xFFFFFFFFFFFFFFFF DUP3 GT OR ISZERO PUSH2 0x134F JUMPI PUSH2 0x134E PUSH2 0x12FA JUMP JUMPDEST JUMPDEST DUP1 PUSH1 0x40 MSTORE POP POP POP JUMP JUMPDEST PUSH0 PUSH2 0x1361 PUSH2 0xEC7 JUMP JUMPDEST SWAP1 POP PUSH2 0x136D DUP3 DUP3 PUSH2 0x1327 JUMP JUMPDEST SWAP2 SWAP1 POP JUMP JUMPDEST PUSH0 PUSH8 0xFFFFFFFFFFFFFFFF DUP3 GT ISZERO PUSH2 0x138C JUMPI PUSH2 0x138B PUSH2 0x12FA JUMP JUMPDEST JUMPDEST PUSH2 0x1395 DUP3 PUSH2 0xFE9 JUMP JUMPDEST SWAP1 POP PUSH1 0x20 DUP2 ADD SWAP1 POP SWAP2 SWAP1 POP JUMP JUMPDEST DUP3 DUP2 DUP4 CALLDATACOPY PUSH0 DUP4 DUP4 ADD MSTORE POP POP POP JUMP JUMPDEST PUSH0 PUSH2 0x13C2 PUSH2 0x13BD DUP5 PUSH2 0x1372 JUMP JUMPDEST PUSH2 0x1358 JUMP JUMPDEST SWAP1 POP DUP3 DUP2 MSTORE PUSH1 0x20 DUP2 ADD DUP5 DUP5 DUP5 ADD GT ISZERO PUSH2 0x13DE JUMPI PUSH2 0x13DD PUSH2 0x12F6 JUMP JUMPDEST JUMPDEST PUSH2 0x13E9 DUP5 DUP3 DUP6 PUSH2 0x13A2 JUMP JUMPDEST POP SWAP4 SWAP3 POP POP POP JUMP JUMPDEST PUSH0 DUP3 PUSH1 0x1F DUP4 ADD SLT PUSH2 0x1405 JUMPI PUSH2 0x1404 PUSH2 0x12F2 JUMP JUMPDEST JUMPDEST DUP2 CALLDATALOAD PUSH2 0x1415 DUP5 DUP3 PUSH1 0x20 DUP7 ADD PUSH2 0x13B0 JUMP JUMPDEST SWAP2 POP POP SWAP3 SWAP2 POP POP JUMP JUMPDEST PUSH0 PUSH1 0x20 DUP3 DUP5 SUB SLT ISZERO PUSH2 0x1433 JUMPI PUSH2 0x1432 PUSH2 0xED0 JUMP JUMPDEST JUMPDEST PUSH0 DUP3 ADD CALLDATALOAD PUSH8 0xFFFFFFFFFFFFFFFF DUP2 GT ISZERO PUSH2 0x1450 JUMPI PUSH2 0x144F PUSH2 0xED4 JUMP JUMPDEST JUMPDEST PUSH2 0x145C DUP5 DUP3 DUP6 ADD PUSH2 0x13F1 JUMP JUMPDEST SWAP2 POP POP SWAP3 SWAP2 POP POP JUMP JUMPDEST PUSH0 PUSH1 0x20 DUP3 ADD SWAP1 POP PUSH2 0x1478 PUSH0 DUP4 ADD DUP5 PUSH2 0xFB2 JUMP JUMPDEST SWAP3 SWAP2 POP POP JUMP JUMPDEST PUSH0 DUP1 PUSH1 0x40 DUP4 DUP6 SUB SLT ISZERO PUSH2 0x1494 JUMPI PUSH2 0x1493 PUSH2 0xED0 JUMP JUMPDEST JUMPDEST PUSH0 PUSH2 0x14A1 DUP6 DUP3 DUP7 ADD PUSH2 0xF51 JUMP JUMPDEST SWAP3 POP POP PUSH1 0x20 PUSH2 0x14B2 DUP6 DUP3 DUP7 ADD PUSH2 0xF1E JUMP JUMPDEST SWAP2 POP POP SWAP3 POP SWAP3 SWAP1 POP JUMP JUMPDEST PUSH0 PUSH1 0x20 DUP3 DUP5 SUB SLT ISZERO PUSH2 0x14D1 JUMPI PUSH2 0x14D0 PUSH2 0xED0 JUMP JUMPDEST JUMPDEST PUSH0 PUSH2 0x14DE DUP5 DUP3 DUP6 ADD PUSH2 0xF51 JUMP JUMPDEST SWAP2 POP POP SWAP3 SWAP2 POP POP JUMP JUMPDEST PUSH0 PUSH1 0xA0 DUP4 ADD PUSH0 DUP4 ADD MLOAD PUSH2 0x14FC PUSH0 DUP7 ADD DUP3 PUSH2 0x10DD JUMP JUMPDEST POP PUSH1 0x20 DUP4 ADD MLOAD PUSH2 0x150F PUSH1 0x20 DUP7 ADD DUP3 PUSH2 0x10EC JUMP JUMPDEST POP PUSH1 0x40 DUP4 ADD MLOAD DUP5 DUP3 SUB PUSH1 0x40 DUP7 ADD MSTORE PUSH2 0x1527 DUP3 DUP3 PUSH2 0x110B JUMP JUMPDEST SWAP2 POP POP PUSH1 0x60 DUP4 ADD MLOAD PUSH2 0x153C PUSH1 0x60 DUP7 ADD DUP3 PUSH2 0x10DD JUMP JUMPDEST POP PUSH1 0x80 DUP4 ADD MLOAD PUSH2 0x154F PUSH1 0x80 DUP7 ADD DUP3 PUSH2 0x10DD JUMP JUMPDEST POP DUP1 SWAP2 POP POP SWAP3 SWAP2 POP POP JUMP JUMPDEST PUSH0 PUSH1 0x20 DUP3 ADD SWAP1 POP DUP2 DUP2 SUB PUSH0 DUP4 ADD MSTORE PUSH2 0x1572 DUP2 DUP5 PUSH2 0x14E7 JUMP JUMPDEST SWAP1 POP SWAP3 SWAP2 POP POP JUMP JUMPDEST PUSH32 0x4E487B7100000000000000000000000000000000000000000000000000000000 PUSH0 MSTORE PUSH1 0x22 PUSH1 0x4 MSTORE PUSH1 0x24 PUSH0 REVERT JUMPDEST PUSH0 PUSH1 0x2 DUP3 DIV SWAP1 POP PUSH1 0x1 DUP3 AND DUP1 PUSH2 0x15BE JUMPI PUSH1 0x7F DUP3 AND SWAP2 POP JUMPDEST PUSH1 0x20 DUP3 LT DUP2 SUB PUSH2 0x15D1 JUMPI PUSH2 0x15D0 PUSH2 0x157A JUMP JUMPDEST JUMPDEST POP SWAP2 SWAP1 POP JUMP JUMPDEST PUSH32 0x594F5520415245204E4F5420544845204F574E45522121000000000000000000 PUSH0 DUP3 ADD MSTORE POP JUMP JUMPDEST PUSH0 PUSH2 0x160B PUSH1 0x17 DUP4 PUSH2 0xFCB JUMP JUMPDEST SWAP2 POP PUSH2 0x1616 DUP3 PUSH2 0x15D7 JUMP JUMPDEST PUSH1 0x20 DUP3 ADD SWAP1 POP SWAP2 SWAP1 POP JUMP JUMPDEST PUSH0 PUSH1 0x20 DUP3 ADD SWAP1 POP DUP2 DUP2 SUB PUSH0 DUP4 ADD MSTORE PUSH2 0x1638 DUP2 PUSH2 0x15FF JUMP JUMPDEST SWAP1 POP SWAP2 SWAP1 POP JUMP JUMPDEST PUSH32 0x547765657420697320746F206C6F6E672C206D61782032383020636861726163 PUSH0 DUP3 ADD MSTORE PUSH32 0x7465727300000000000000000000000000000000000000000000000000000000 PUSH1 0x20 DUP3 ADD MSTORE POP JUMP JUMPDEST PUSH0 PUSH2 0x1699 PUSH1 0x24 DUP4 PUSH2 0xFCB JUMP JUMPDEST SWAP2 POP PUSH2 0x16A4 DUP3 PUSH2 0x163F JUMP JUMPDEST PUSH1 0x40 DUP3 ADD SWAP1 POP SWAP2 SWAP1 POP JUMP JUMPDEST PUSH0 PUSH1 0x20 DUP3 ADD SWAP1 POP DUP2 DUP2 SUB PUSH0 DUP4 ADD MSTORE PUSH2 0x16C6 DUP2 PUSH2 0x168D JUMP JUMPDEST SWAP1 POP SWAP2 SWAP1 POP JUMP JUMPDEST PUSH0 DUP2 SWAP1 POP DUP2 PUSH0 MSTORE PUSH1 0x20 PUSH0 KECCAK256 SWAP1 POP SWAP2 SWAP1 POP JUMP JUMPDEST PUSH0 PUSH1 0x20 PUSH1 0x1F DUP4 ADD DIV SWAP1 POP SWAP2 SWAP1 POP JUMP JUMPDEST PUSH0 DUP3 DUP3 SHL SWAP1 POP SWAP3 SWAP2 POP POP JUMP JUMPDEST PUSH0 PUSH1 0x8 DUP4 MUL PUSH2 0x1729 PUSH32 0xFFFFFFFFFFFFFFFFFFFFFFFFFFFFFFFFFFFFFFFFFFFFFFFFFFFFFFFFFFFFFFFF DUP3 PUSH2 0x16EE JUMP JUMPDEST PUSH2 0x1733 DUP7 DUP4 PUSH2 0x16EE JUMP JUMPDEST SWAP6 POP DUP1 NOT DUP5 AND SWAP4 POP DUP1 DUP7 AND DUP5 OR SWAP3 POP POP POP SWAP4 SWAP3 POP POP POP JUMP JUMPDEST PUSH0 DUP2 SWAP1 POP SWAP2 SWAP1 POP JUMP JUMPDEST PUSH0 PUSH2 0x176E PUSH2 0x1769 PUSH2 0x1764 DUP5 PUSH2 0xF32 JUMP JUMPDEST PUSH2 0x174B JUMP JUMPDEST PUSH2 0xF32 JUMP JUMPDEST SWAP1 POP SWAP2 SWAP1 POP JUMP JUMPDEST PUSH0 DUP2 SWAP1 POP SWAP2 SWAP1 POP JUMP JUMPDEST PUSH2 0x1787 DUP4 PUSH2 0x1754 JUMP JUMPDEST PUSH2 0x179B PUSH2 0x1793 DUP3 PUSH2 0x1775 JUMP JUMPDEST DUP5 DUP5 SLOAD PUSH2 0x16FA JUMP JUMPDEST DUP3 SSTORE POP POP POP POP JUMP JUMPDEST PUSH0 SWAP1 JUMP JUMPDEST PUSH2 0x17AF PUSH2 0x17A3 JUMP JUMPDEST PUSH2 0x17BA DUP2 DUP5 DUP5 PUSH2 0x177E JUMP JUMPDEST POP POP POP JUMP JUMPDEST JUMPDEST DUP2 DUP2 LT ISZERO PUSH2 0x17DD JUMPI PUSH2 0x17D2 PUSH0 DUP3 PUSH2 0x17A7 JUMP JUMPDEST PUSH1 0x1 DUP2 ADD SWAP1 POP PUSH2 0x17C0 JUMP JUMPDEST POP POP JUMP JUMPDEST PUSH1 0x1F DUP3 GT ISZERO PUSH2 0x1822 JUMPI PUSH2 0x17F3 DUP2 PUSH2 0x16CD JUMP JUMPDEST PUSH2 0x17FC DUP5 PUSH2 0x16DF JUMP JUMPDEST DUP2 ADD PUSH1 0x20 DUP6 LT ISZERO PUSH2 0x180B JUMPI DUP2 SWAP1 POP JUMPDEST PUSH2 0x181F PUSH2 0x1817 DUP6 PUSH2 0x16DF JUMP JUMPDEST DUP4 ADD DUP3 PUSH2 0x17BF JUMP JUMPDEST POP POP JUMPDEST POP POP POP JUMP JUMPDEST PUSH0 DUP3 DUP3 SHR SWAP1 POP SWAP3 SWAP2 POP POP JUMP JUMPDEST PUSH0 PUSH2 0x1842 PUSH0 NOT DUP5 PUSH1 0x8 MUL PUSH2 0x1827 JUMP JUMPDEST NOT DUP1 DUP4 AND SWAP2 POP POP SWAP3 SWAP2 POP POP JUMP JUMPDEST PUSH0 PUSH2 0x185A DUP4 DUP4 PUSH2 0x1833 JUMP JUMPDEST SWAP2 POP DUP3 PUSH1 0x2 MUL DUP3 OR SWAP1 POP SWAP3 SWAP2 POP POP JUMP JUMPDEST PUSH2 0x1873 DUP3 PUSH2 0xFC1 JUMP JUMPDEST PUSH8 0xFFFFFFFFFFFFFFFF DUP2 GT ISZERO PUSH2 0x188C JUMPI PUSH2 0x188B PUSH2 0x12FA JUMP JUMPDEST JUMPDEST PUSH2 0x1896 DUP3 SLOAD PUSH2 0x15A7 JUMP JUMPDEST PUSH2 0x18A1 DUP3 DUP3 DUP6 PUSH2 0x17E1 JUMP JUMPDEST PUSH0 PUSH1 0x20 SWAP1 POP PUSH1 0x1F DUP4 GT PUSH1 0x1 DUP2 EQ PUSH2 0x18D2 JUMPI PUSH0 DUP5 ISZERO PUSH2 0x18C0 JUMPI DUP3 DUP8 ADD MLOAD SWAP1 POP JUMPDEST PUSH2 0x18CA DUP6 DUP3 PUSH2 0x184F JUMP JUMPDEST DUP7 SSTORE POP PUSH2 0x1931 JUMP JUMPDEST PUSH1 0x1F NOT DUP5 AND PUSH2 0x18E0 DUP7 PUSH2 0x16CD JUMP JUMPDEST PUSH0 JUMPDEST DUP3 DUP2 LT ISZERO PUSH2 0x1907 JUMPI DUP5 DUP10 ADD MLOAD DUP3 SSTORE PUSH1 0x1 DUP3 ADD SWAP2 POP PUSH1 0x20 DUP6 ADD SWAP5 POP PUSH1 0x20 DUP2 ADD SWAP1 POP PUSH2 0x18E2 JUMP JUMPDEST DUP7 DUP4 LT ISZERO PUSH2 0x1924 JUMPI DUP5 DUP10 ADD MLOAD PUSH2 0x1920 PUSH1 0x1F DUP10 AND DUP3 PUSH2 0x1833 JUMP JUMPDEST DUP4 SSTORE POP JUMPDEST PUSH1 0x1 PUSH1 0x2 DUP9 MUL ADD DUP9 SSTORE POP POP POP JUMPDEST POP POP POP POP POP POP JUMP JUMPDEST PUSH0 PUSH1 0x60 DUP3 ADD SWAP1 POP PUSH2 0x194C PUSH0 DUP4 ADD DUP7 PUSH2 0xFB2 JUMP JUMPDEST DUP2 DUP2 SUB PUSH1 0x20 DUP4 ADD MSTORE PUSH2 0x195E DUP2 DUP6 PUSH2 0xFF9 JUMP JUMPDEST SWAP1 POP PUSH2 0x196D PUSH1 0x40 DUP4 ADD DUP5 PUSH2 0xFA3 JUMP JUMPDEST SWAP5 SWAP4 POP POP POP POP JUMP JUMPDEST PUSH32 0x4E487B7100000000000000000000000000000000000000000000000000000000 PUSH0 MSTORE PUSH1 0x32 PUSH1 0x4 MSTORE PUSH1 0x24 PUSH0 REVERT JUMPDEST PUSH32 0x545745455420444F4553204E4F54204558495354000000000000000000000000 PUSH0 DUP3 ADD MSTORE POP JUMP JUMPDEST PUSH0 PUSH2 0x19D6 PUSH1 0x14 DUP4 PUSH2 0xFCB JUMP JUMPDEST SWAP2 POP PUSH2 0x19E1 DUP3 PUSH2 0x19A2 JUMP JUMPDEST PUSH1 0x20 DUP3 ADD SWAP1 POP SWAP2 SWAP1 POP JUMP JUMPDEST PUSH0 PUSH1 0x20 DUP3 ADD SWAP1 POP DUP2 DUP2 SUB PUSH0 DUP4 ADD MSTORE PUSH2 0x1A03 DUP2 PUSH2 0x19CA JUMP JUMPDEST SWAP1 POP SWAP2 SWAP1 POP JUMP JUMPDEST PUSH32 0x545745455420444F4553204E4F54204C494B4544000000000000000000000000 PUSH0 DUP3 ADD MSTORE POP JUMP JUMPDEST PUSH0 PUSH2 0x1A3E PUSH1 0x14 DUP4 PUSH2 0xFCB JUMP JUMPDEST SWAP2 POP PUSH2 0x1A49 DUP3 PUSH2 0x1A0A JUMP JUMPDEST PUSH1 0x20 DUP3 ADD SWAP1 POP SWAP2 SWAP1 POP JUMP JUMPDEST PUSH0 PUSH1 0x20 DUP3 ADD SWAP1 POP DUP2 DUP2 SUB PUSH0 DUP4 ADD MSTORE PUSH2 0x1A6B DUP2 PUSH2 0x1A32 JUMP JUMPDEST SWAP1 POP SWAP2 SWAP1 POP JUMP JUMPDEST PUSH32 0x4E487B7100000000000000000000000000000000000000000000000000000000 PUSH0 MSTORE PUSH1 0x11 PUSH1 0x4 MSTORE PUSH1 0x24 PUSH0 REVERT JUMPDEST PUSH0 PUSH2 0x1AA9 DUP3 PUSH2 0xF32 JUMP JUMPDEST SWAP2 POP PUSH0 DUP3 SUB PUSH2 0x1ABB JUMPI PUSH2 0x1ABA PUSH2 0x1A72 JUMP JUMPDEST JUMPDEST PUSH1 0x1 DUP3 SUB SWAP1 POP SWAP2 SWAP1 POP JUMP JUMPDEST PUSH0 PUSH1 0x80 DUP3 ADD SWAP1 POP PUSH2 0x1AD9 PUSH0 DUP4 ADD DUP8 PUSH2 0xFB2 JUMP JUMPDEST PUSH2 0x1AE6 PUSH1 0x20 DUP4 ADD DUP7 PUSH2 0xFB2 JUMP JUMPDEST PUSH2 0x1AF3 PUSH1 0x40 DUP4 ADD DUP6 PUSH2 0xFA3 JUMP JUMPDEST PUSH2 0x1B00 PUSH1 0x60 DUP4 ADD DUP5 PUSH2 0xFA3 JUMP JUMPDEST SWAP6 SWAP5 POP POP POP POP POP JUMP JUMPDEST PUSH0 PUSH2 0x1B13 DUP3 PUSH2 0xF32 JUMP JUMPDEST SWAP2 POP PUSH32 0xFFFFFFFFFFFFFFFFFFFFFFFFFFFFFFFFFFFFFFFFFFFFFFFFFFFFFFFFFFFFFFFF DUP3 SUB PUSH2 0x1B45 JUMPI PUSH2 0x1B44 PUSH2 0x1A72 JUMP JUMPDEST JUMPDEST PUSH1 0x1 DUP3 ADD SWAP1 POP SWAP2 SWAP1 POP JUMP JUMPDEST PUSH32 0x496E76616C696420747765657420696E64657800000000000000000000000000 PUSH0 DUP3 ADD MSTORE POP JUMP JUMPDEST PUSH0 PUSH2 0x1B84 PUSH1 0x13 DUP4 PUSH2 0xFCB JUMP JUMPDEST SWAP2 POP PUSH2 0x1B8F DUP3 PUSH2 0x1B50 JUMP JUMPDEST PUSH1 0x20 DUP3 ADD SWAP1 POP SWAP2 SWAP1 POP JUMP JUMPDEST PUSH0 PUSH1 0x20 DUP3 ADD SWAP1 POP DUP2 DUP2 SUB PUSH0 DUP4 ADD MSTORE PUSH2 0x1BB1 DUP2 PUSH2 0x1B78 JUMP JUMPDEST SWAP1 POP SWAP2 SWAP1 POP JUMP INVALID LOG2 PUSH5 0x6970667358 0x22 SLT KECCAK256 0xC7 ADD 0xF7 PUSH9 0x8F1BC01A78D27F07DE GASPRICE PUSH6 0x7E34451A2F6C 0xDE CALL 0x21 0xA9 PUSH0 SWAP11 PUSH10 0x5A5FFD1364736F6C6343 STOP ADDMOD BYTE STOP CALLER "
				},
				"gasEstimates": {
					"creation": {
						"codeDepositCost": "1430000",
						"executionCost": "50073",
						"totalCost": "1480073"
					},
					"external": {
						"MAX_TWEET_LENGTH()": "2555",
						"changedTweetLength(uint16)": "26960",
						"createTweet(string)": "infinite",
						"deleteTweet(address)": "infinite",
						"getAllTweets(address)": "infinite",
						"getTweets(uint256)": "infinite",
						"likeTweet(uint256,address)": "infinite",
						"owner()": "2581",
						"tweets(address,uint256)": "infinite",
						"unlikeTweet(uint256,address)": "infinite"
					}
				},
				"methodIdentifiers": {
					"MAX_TWEET_LENGTH()": "6eb10797",
					"changedTweetLength(uint16)": "6d003c01",
					"createTweet(string)": "7c9cd2bc",
					"deleteTweet(address)": "20f7e65c",
					"getAllTweets(address)": "12e7ee1c",
					"getTweets(uint256)": "ed9bb8d7",
					"likeTweet(uint256,address)": "d04ddaa0",
					"owner()": "8da5cb5b",
					"tweets(address,uint256)": "05a1b4a9",
					"unlikeTweet(uint256,address)": "a1488f7c"
				}
			},
			"storageLayout": {
				"storage": [
					{
						"astId": 37,
						"contract": "contracts/Twitter.sol:Twitter",
						"label": "tweets",
						"offset": 0,
						"slot": "0",
						"type": "t_mapping(t_address,t_array(t_struct(Tweet)53_storage)dyn_storage)"
					},
					{
						"astId": 40,
						"contract": "contracts/Twitter.sol:Twitter",
						"label": "MAX_TWEET_LENGTH",
						"offset": 0,
						"slot": "1",
						"type": "t_uint16"
					},
					{
						"astId": 42,
						"contract": "contracts/Twitter.sol:Twitter",
						"label": "owner",
						"offset": 2,
						"slot": "1",
						"type": "t_address"
					}
				],
				"types": {
					"t_address": {
						"encoding": "inplace",
						"label": "address",
						"numberOfBytes": "20"
					},
					"t_array(t_struct(Tweet)53_storage)dyn_storage": {
						"base": "t_struct(Tweet)53_storage",
						"encoding": "dynamic_array",
						"label": "struct Twitter.Tweet[]",
						"numberOfBytes": "32"
					},
					"t_mapping(t_address,t_array(t_struct(Tweet)53_storage)dyn_storage)": {
						"encoding": "mapping",
						"key": "t_address",
						"label": "mapping(address => struct Twitter.Tweet[])",
						"numberOfBytes": "32",
						"value": "t_array(t_struct(Tweet)53_storage)dyn_storage"
					},
					"t_string_storage": {
						"encoding": "bytes",
						"label": "string",
						"numberOfBytes": "32"
					},
					"t_struct(Tweet)53_storage": {
						"encoding": "inplace",
						"label": "struct Twitter.Tweet",
						"members": [
							{
								"astId": 44,
								"contract": "contracts/Twitter.sol:Twitter",
								"label": "id",
								"offset": 0,
								"slot": "0",
								"type": "t_uint256"
							},
							{
								"astId": 46,
								"contract": "contracts/Twitter.sol:Twitter",
								"label": "author",
								"offset": 0,
								"slot": "1",
								"type": "t_address"
							},
							{
								"astId": 48,
								"contract": "contracts/Twitter.sol:Twitter",
								"label": "content",
								"offset": 0,
								"slot": "2",
								"type": "t_string_storage"
							},
							{
								"astId": 50,
								"contract": "contracts/Twitter.sol:Twitter",
								"label": "timestamp",
								"offset": 0,
								"slot": "3",
								"type": "t_uint256"
							},
							{
								"astId": 52,
								"contract": "contracts/Twitter.sol:Twitter",
								"label": "likes",
								"offset": 0,
								"slot": "4",
								"type": "t_uint256"
							}
						],
						"numberOfBytes": "160"
					},
					"t_uint16": {
						"encoding": "inplace",
						"label": "uint16",
						"numberOfBytes": "2"
					},
					"t_uint256": {
						"encoding": "inplace",
						"label": "uint256",
						"numberOfBytes": "32"
					}
				}
			},
			"userdoc": {
				"kind": "user",
				"methods": {},
				"version": 1
			}
		}
	}
}